{
	"contracts/xALPACAPriceSetter.sol": {
		"xALPACAPriceSetter": {
			"abi": [
				{
					"inputs": [],
					"name": "xALPACAPriceSetter_Unauthorize",
					"type": "error"
				},
				{
					"anonymous": false,
					"inputs": [
						{
							"indexed": false,
							"internalType": "uint8",
							"name": "version",
							"type": "uint8"
						}
					],
					"name": "Initialized",
					"type": "event"
				},
				{
					"anonymous": false,
					"inputs": [
						{
							"indexed": true,
							"internalType": "address",
							"name": "_caller",
							"type": "address"
						},
						{
							"indexed": true,
							"internalType": "address",
							"name": "_priceSetter",
							"type": "address"
						}
					],
					"name": "LogSetPriceSetter",
					"type": "event"
				},
				{
					"anonymous": false,
					"inputs": [
						{
							"indexed": true,
							"internalType": "address",
							"name": "_caller",
							"type": "address"
						},
						{
							"indexed": false,
							"internalType": "uint256",
							"name": "_xALPACAValue",
							"type": "uint256"
						}
					],
					"name": "LogSetValueFromTWAP",
					"type": "event"
				},
				{
					"anonymous": false,
					"inputs": [
						{
							"indexed": true,
							"internalType": "address",
							"name": "previousOwner",
							"type": "address"
						},
						{
							"indexed": true,
							"internalType": "address",
							"name": "newOwner",
							"type": "address"
						}
					],
					"name": "OwnershipTransferred",
					"type": "event"
				},
				{
					"inputs": [],
					"name": "TWAPOracle",
					"outputs": [
						{
							"internalType": "contract ITWAPOracle",
							"name": "",
							"type": "address"
						}
					],
					"stateMutability": "view",
					"type": "function"
				},
				{
					"inputs": [],
					"name": "alpaca",
					"outputs": [
						{
							"internalType": "address",
							"name": "",
							"type": "address"
						}
					],
					"stateMutability": "view",
					"type": "function"
				},
				{
					"inputs": [
						{
							"internalType": "contract IxALPACACreditor",
							"name": "_xALPACACreditor",
							"type": "address"
						},
						{
							"internalType": "contract ITWAPOracle",
							"name": "_TWAPOracle",
							"type": "address"
						},
						{
							"internalType": "address",
							"name": "_alpaca",
							"type": "address"
						}
					],
					"name": "initialize",
					"outputs": [],
					"stateMutability": "nonpayable",
					"type": "function"
				},
				{
					"inputs": [],
					"name": "owner",
					"outputs": [
						{
							"internalType": "address",
							"name": "",
							"type": "address"
						}
					],
					"stateMutability": "view",
					"type": "function"
				},
				{
					"inputs": [],
					"name": "priceSetter",
					"outputs": [
						{
							"internalType": "address",
							"name": "",
							"type": "address"
						}
					],
					"stateMutability": "view",
					"type": "function"
				},
				{
					"inputs": [],
					"name": "renounceOwnership",
					"outputs": [],
					"stateMutability": "nonpayable",
					"type": "function"
				},
				{
					"inputs": [
						{
							"internalType": "address",
							"name": "_priceSetter",
							"type": "address"
						}
					],
					"name": "setPriceSetter",
					"outputs": [],
					"stateMutability": "nonpayable",
					"type": "function"
				},
				{
					"inputs": [],
					"name": "setValueFromTWAP",
					"outputs": [],
					"stateMutability": "nonpayable",
					"type": "function"
				},
				{
					"inputs": [
						{
							"internalType": "address",
							"name": "newOwner",
							"type": "address"
						}
					],
					"name": "transferOwnership",
					"outputs": [],
					"stateMutability": "nonpayable",
					"type": "function"
				},
				{
					"inputs": [],
					"name": "xALPACACreditor",
					"outputs": [
						{
							"internalType": "contract IxALPACACreditor",
							"name": "",
							"type": "address"
						}
					],
					"stateMutability": "view",
					"type": "function"
				}
			],
			"devdoc": {
				"kind": "dev",
				"methods": {
					"initialize(address,address,address)": {
						"params": {
							"_TWAPOracle": "TWAPOracle",
							"_alpaca": "Contract's address of ALPACA Token",
							"_xALPACACreditor": "xALPACreditor"
						}
					},
					"owner()": {
						"details": "Returns the address of the current owner."
					},
					"renounceOwnership()": {
						"details": "Leaves the contract without owner. It will not be possible to call `onlyOwner` functions anymore. Can only be called by the current owner. NOTE: Renouncing ownership will leave the contract without an owner, thereby removing any functionality that is only available to the owner."
					},
					"transferOwnership(address)": {
						"details": "Transfers ownership of the contract to a new account (`newOwner`). Can only be called by the current owner."
					}
				},
				"title": "xALPACAPriceSetter - Being setter of xALPACACreditor",
				"version": 1
			},
			"evm": {
				"assembly": "    /* \"contracts/xALPACAPriceSetter.sol\":579:2053  contract xALPACAPriceSetter is OwnableUpgradeable {... */\n  mstore(0x40, 0x80)\n  callvalue\n  dup1\n  iszero\n  tag_1\n  jumpi\n  0x00\n  dup1\n  revert\ntag_1:\n  pop\n  dataSize(sub_0)\n  dup1\n  dataOffset(sub_0)\n  0x00\n  codecopy\n  0x00\n  return\nstop\n\nsub_0: assembly {\n        /* \"contracts/xALPACAPriceSetter.sol\":579:2053  contract xALPACAPriceSetter is OwnableUpgradeable {... */\n      mstore(0x40, 0x80)\n      callvalue\n      dup1\n      iszero\n      tag_1\n      jumpi\n      0x00\n      dup1\n      revert\n    tag_1:\n      pop\n      jumpi(tag_2, lt(calldatasize, 0x04))\n      shr(0xe0, calldataload(0x00))\n      dup1\n      0x94faab23\n      gt\n      tag_13\n      jumpi\n      dup1\n      0x94faab23\n      eq\n      tag_8\n      jumpi\n      dup1\n      0xc0c53b8b\n      eq\n      tag_9\n      jumpi\n      dup1\n      0xcab0d816\n      eq\n      tag_10\n      jumpi\n      dup1\n      0xd0b373b3\n      eq\n      tag_11\n      jumpi\n      dup1\n      0xf2fde38b\n      eq\n      tag_12\n      jumpi\n      0x00\n      dup1\n      revert\n    tag_13:\n      dup1\n      0x2c09bef7\n      eq\n      tag_3\n      jumpi\n      dup1\n      0x34d29f05\n      eq\n      tag_4\n      jumpi\n      dup1\n      0x63791e3c\n      eq\n      tag_5\n      jumpi\n      dup1\n      0x715018a6\n      eq\n      tag_6\n      jumpi\n      dup1\n      0x8da5cb5b\n      eq\n      tag_7\n      jumpi\n    tag_2:\n      0x00\n      dup1\n      revert\n        /* \"contracts/xALPACAPriceSetter.sol\":1009:1035  address public priceSetter */\n    tag_3:\n      sload(0x68)\n      tag_14\n      swap1\n      sub(shl(0xa0, 0x01), 0x01)\n      and\n      dup2\n      jump\n    tag_14:\n      mload(0x40)\n      sub(shl(0xa0, 0x01), 0x01)\n        /* \"#utility.yul\":178:210   */\n      swap1\n      swap2\n      and\n        /* \"#utility.yul\":160:211   */\n      dup2\n      mstore\n        /* \"#utility.yul\":148:150   */\n      0x20\n        /* \"#utility.yul\":133:151   */\n      add\n        /* \"contracts/xALPACAPriceSetter.sol\":1009:1035  address public priceSetter */\n      mload(0x40)\n      dup1\n      swap2\n      sub\n      swap1\n      return\n        /* \"contracts/xALPACAPriceSetter.sol\":905:944  IxALPACACreditor public xALPACACreditor */\n    tag_4:\n      sload(0x65)\n      tag_14\n      swap1\n      sub(shl(0xa0, 0x01), 0x01)\n      and\n      dup2\n      jump\n        /* \"contracts/xALPACAPriceSetter.sol\":1515:1674  function setPriceSetter(address _priceSetter) external onlyOwner {... */\n    tag_5:\n      tag_22\n      tag_23\n      calldatasize\n      0x04\n      tag_24\n      jump\t// in\n    tag_23:\n      tag_25\n      jump\t// in\n    tag_22:\n      stop\n        /* \"@openzeppelin/contracts-upgradeable/access/OwnableUpgradeable.sol\":1908:2009  function renounceOwnership() public virtual onlyOwner {... */\n    tag_6:\n      tag_22\n      tag_27\n      jump\t// in\n        /* \"@openzeppelin/contracts-upgradeable/access/OwnableUpgradeable.sol\":1276:1361  function owner() public view virtual returns (address) {... */\n    tag_7:\n        /* \"@openzeppelin/contracts-upgradeable/access/OwnableUpgradeable.sol\":1348:1354  _owner */\n      and(sub(shl(0xa0, 0x01), 0x01), sload(0x33))\n        /* \"@openzeppelin/contracts-upgradeable/access/OwnableUpgradeable.sol\":1276:1361  function owner() public view virtual returns (address) {... */\n      jump(tag_14)\n        /* \"contracts/xALPACAPriceSetter.sol\":983:1004  address public alpaca */\n    tag_8:\n      sload(0x67)\n      tag_14\n      swap1\n      sub(shl(0xa0, 0x01), 0x01)\n      and\n      dup2\n      jump\n        /* \"contracts/xALPACAPriceSetter.sol\":1228:1509  function initialize(IxALPACACreditor _xALPACACreditor, ITWAPOracle _TWAPOracle, address _alpaca) external initializer {... */\n    tag_9:\n      tag_22\n      tag_35\n      calldatasize\n      0x04\n      tag_36\n      jump\t// in\n    tag_35:\n      tag_37\n      jump\t// in\n        /* \"contracts/xALPACAPriceSetter.sol\":949:978  ITWAPOracle public TWAPOracle */\n    tag_10:\n      sload(0x66)\n      tag_14\n      swap1\n      sub(shl(0xa0, 0x01), 0x01)\n      and\n      dup2\n      jump\n        /* \"contracts/xALPACAPriceSetter.sol\":1736:2048  function setValueFromTWAP() external {... */\n    tag_11:\n      tag_22\n      tag_43\n      jump\t// in\n        /* \"@openzeppelin/contracts-upgradeable/access/OwnableUpgradeable.sol\":2158:2356  function transferOwnership(address newOwner) public virtual onlyOwner {... */\n    tag_12:\n      tag_22\n      tag_45\n      calldatasize\n      0x04\n      tag_24\n      jump\t// in\n    tag_45:\n      tag_46\n      jump\t// in\n        /* \"contracts/xALPACAPriceSetter.sol\":1515:1674  function setPriceSetter(address _priceSetter) external onlyOwner {... */\n    tag_25:\n        /* \"@openzeppelin/contracts-upgradeable/access/OwnableUpgradeable.sol\":1348:1354  _owner */\n      and(sub(shl(0xa0, 0x01), 0x01), sload(0x33))\n        /* \"@openzeppelin/contracts-upgradeable/utils/ContextUpgradeable.sol\":929:939  msg.sender */\n      caller\n        /* \"@openzeppelin/contracts-upgradeable/access/OwnableUpgradeable.sol\":1488:1511  owner() == _msgSender() */\n      eq\n        /* \"@openzeppelin/contracts-upgradeable/access/OwnableUpgradeable.sol\":1480:1548  require(owner() == _msgSender(), \"Ownable: caller is not the owner\") */\n      tag_51\n      jumpi\n      mload(0x40)\n      shl(0xe5, 0x461bcd)\n      dup2\n      mstore\n      0x04\n      add\n      tag_52\n      swap1\n      tag_53\n      jump\t// in\n    tag_52:\n      mload(0x40)\n      dup1\n      swap2\n      sub\n      swap1\n      revert\n    tag_51:\n        /* \"contracts/xALPACAPriceSetter.sol\":1587:1598  priceSetter */\n      0x68\n        /* \"contracts/xALPACAPriceSetter.sol\":1587:1613  priceSetter = _priceSetter */\n      dup1\n      sload\n      not(sub(shl(0xa0, 0x01), 0x01))\n      and\n      sub(shl(0xa0, 0x01), 0x01)\n      dup4\n      and\n      swap1\n      dup2\n      or\n      swap1\n      swap2\n      sstore\n        /* \"contracts/xALPACAPriceSetter.sol\":1625:1668  LogSetPriceSetter(msg.sender, _priceSetter) */\n      mload(0x40)\n        /* \"contracts/xALPACAPriceSetter.sol\":1643:1653  msg.sender */\n      caller\n      swap1\n        /* \"contracts/xALPACAPriceSetter.sol\":1625:1668  LogSetPriceSetter(msg.sender, _priceSetter) */\n      0x73ac14f6c6f83ac21ceaedde9a348f537e8dcd3931f90b9cf101f14e534f735c\n      swap1\n      0x00\n      swap1\n      log3\n        /* \"contracts/xALPACAPriceSetter.sol\":1515:1674  function setPriceSetter(address _priceSetter) external onlyOwner {... */\n      pop\n      jump\t// out\n        /* \"@openzeppelin/contracts-upgradeable/access/OwnableUpgradeable.sol\":1908:2009  function renounceOwnership() public virtual onlyOwner {... */\n    tag_27:\n        /* \"@openzeppelin/contracts-upgradeable/access/OwnableUpgradeable.sol\":1348:1354  _owner */\n      and(sub(shl(0xa0, 0x01), 0x01), sload(0x33))\n        /* \"@openzeppelin/contracts-upgradeable/utils/ContextUpgradeable.sol\":929:939  msg.sender */\n      caller\n        /* \"@openzeppelin/contracts-upgradeable/access/OwnableUpgradeable.sol\":1488:1511  owner() == _msgSender() */\n      eq\n        /* \"@openzeppelin/contracts-upgradeable/access/OwnableUpgradeable.sol\":1480:1548  require(owner() == _msgSender(), \"Ownable: caller is not the owner\") */\n      tag_58\n      jumpi\n      mload(0x40)\n      shl(0xe5, 0x461bcd)\n      dup2\n      mstore\n      0x04\n      add\n      tag_52\n      swap1\n      tag_53\n      jump\t// in\n    tag_58:\n        /* \"@openzeppelin/contracts-upgradeable/access/OwnableUpgradeable.sol\":1972:2002  _transferOwnership(address(0)) */\n      tag_61\n        /* \"@openzeppelin/contracts-upgradeable/access/OwnableUpgradeable.sol\":1999:2000  0 */\n      0x00\n        /* \"@openzeppelin/contracts-upgradeable/access/OwnableUpgradeable.sol\":1972:1990  _transferOwnership */\n      tag_62\n        /* \"@openzeppelin/contracts-upgradeable/access/OwnableUpgradeable.sol\":1972:2002  _transferOwnership(address(0)) */\n      jump\t// in\n    tag_61:\n        /* \"@openzeppelin/contracts-upgradeable/access/OwnableUpgradeable.sol\":1908:2009  function renounceOwnership() public virtual onlyOwner {... */\n      jump\t// out\n        /* \"contracts/xALPACAPriceSetter.sol\":1228:1509  function initialize(IxALPACACreditor _xALPACACreditor, ITWAPOracle _TWAPOracle, address _alpaca) external initializer {... */\n    tag_37:\n        /* \"@openzeppelin/contracts-upgradeable/proxy/utils/Initializable.sol\":3111:3130  bool isTopLevelCall */\n      0x00\n        /* \"@openzeppelin/contracts-upgradeable/proxy/utils/Initializable.sol\":3133:3158  _setInitializedVersion(1) */\n      tag_65\n        /* \"@openzeppelin/contracts-upgradeable/proxy/utils/Initializable.sol\":3156:3157  1 */\n      0x01\n        /* \"@openzeppelin/contracts-upgradeable/proxy/utils/Initializable.sol\":3133:3155  _setInitializedVersion */\n      tag_66\n        /* \"@openzeppelin/contracts-upgradeable/proxy/utils/Initializable.sol\":3133:3158  _setInitializedVersion(1) */\n      jump\t// in\n    tag_65:\n        /* \"@openzeppelin/contracts-upgradeable/proxy/utils/Initializable.sol\":3111:3158  bool isTopLevelCall = _setInitializedVersion(1) */\n      swap1\n      pop\n        /* \"@openzeppelin/contracts-upgradeable/proxy/utils/Initializable.sol\":3172:3186  isTopLevelCall */\n      dup1\n        /* \"@openzeppelin/contracts-upgradeable/proxy/utils/Initializable.sol\":3168:3233  if (isTopLevelCall) {... */\n      iszero\n      tag_67\n      jumpi\n        /* \"@openzeppelin/contracts-upgradeable/proxy/utils/Initializable.sol\":3202:3215  _initializing */\n      0x00\n        /* \"@openzeppelin/contracts-upgradeable/proxy/utils/Initializable.sol\":3202:3222  _initializing = true */\n      dup1\n      sload\n      not(0xff00)\n      and\n      0x0100\n      or\n      swap1\n      sstore\n        /* \"@openzeppelin/contracts-upgradeable/proxy/utils/Initializable.sol\":3168:3233  if (isTopLevelCall) {... */\n    tag_67:\n        /* \"contracts/xALPACAPriceSetter.sol\":1355:1390  OwnableUpgradeable.__Ownable_init() */\n      tag_69\n        /* \"contracts/xALPACAPriceSetter.sol\":1355:1388  OwnableUpgradeable.__Ownable_init */\n      tag_70\n        /* \"contracts/xALPACAPriceSetter.sol\":1355:1390  OwnableUpgradeable.__Ownable_init() */\n      jump\t// in\n    tag_69:\n        /* \"contracts/xALPACAPriceSetter.sol\":1397:1412  xALPACACreditor */\n      0x65\n        /* \"contracts/xALPACAPriceSetter.sol\":1397:1449  xALPACACreditor = IxALPACACreditor(_xALPACACreditor) */\n      dup1\n      sload\n      sub(shl(0xa0, 0x01), 0x01)\n      dup1\n      dup8\n      and\n      not(sub(shl(0xa0, 0x01), 0x01))\n      swap3\n      dup4\n      and\n      or\n      swap1\n      swap3\n      sstore\n        /* \"contracts/xALPACAPriceSetter.sol\":1456:1466  TWAPOracle */\n      0x66\n        /* \"contracts/xALPACAPriceSetter.sol\":1456:1480  TWAPOracle = _TWAPOracle */\n      dup1\n      sload\n      dup7\n      dup5\n      and\n      swap1\n      dup4\n      and\n      or\n      swap1\n      sstore\n        /* \"contracts/xALPACAPriceSetter.sol\":1487:1493  alpaca */\n      0x67\n        /* \"contracts/xALPACAPriceSetter.sol\":1487:1503  alpaca = _alpaca */\n      dup1\n      sload\n      swap3\n      dup6\n      and\n      swap3\n      swap1\n      swap2\n      and\n      swap2\n      swap1\n      swap2\n      or\n      swap1\n      sstore\n        /* \"@openzeppelin/contracts-upgradeable/proxy/utils/Initializable.sol\":3253:3352  if (isTopLevelCall) {... */\n      dup1\n      iszero\n      tag_71\n      jumpi\n        /* \"@openzeppelin/contracts-upgradeable/proxy/utils/Initializable.sol\":3303:3308  false */\n      0x00\n        /* \"@openzeppelin/contracts-upgradeable/proxy/utils/Initializable.sol\":3287:3308  _initializing = false */\n      dup1\n      sload\n      not(0xff00)\n      and\n      swap1\n      sstore\n        /* \"@openzeppelin/contracts-upgradeable/proxy/utils/Initializable.sol\":3327:3341  Initialized(1) */\n      mload(0x40)\n      0x01\n        /* \"#utility.yul\":2159:2195   */\n      dup2\n      mstore\n        /* \"@openzeppelin/contracts-upgradeable/proxy/utils/Initializable.sol\":3327:3341  Initialized(1) */\n      0x7f26b83ff96e1f2b6a682f133852f6798a09c465da95921460cefb3847402498\n      swap1\n        /* \"#utility.yul\":2147:2149   */\n      0x20\n        /* \"#utility.yul\":2132:2150   */\n      add\n        /* \"@openzeppelin/contracts-upgradeable/proxy/utils/Initializable.sol\":3327:3341  Initialized(1) */\n      mload(0x40)\n      dup1\n      swap2\n      sub\n      swap1\n      log1\n        /* \"@openzeppelin/contracts-upgradeable/proxy/utils/Initializable.sol\":3253:3352  if (isTopLevelCall) {... */\n    tag_71:\n        /* \"@openzeppelin/contracts-upgradeable/proxy/utils/Initializable.sol\":3101:3358  {... */\n      pop\n        /* \"contracts/xALPACAPriceSetter.sol\":1228:1509  function initialize(IxALPACACreditor _xALPACACreditor, ITWAPOracle _TWAPOracle, address _alpaca) external initializer {... */\n      pop\n      pop\n      pop\n      jump\t// out\n        /* \"contracts/xALPACAPriceSetter.sol\":1736:2048  function setValueFromTWAP() external {... */\n    tag_43:\n        /* \"contracts/xALPACAPriceSetter.sol\":1798:1809  priceSetter */\n      and(sub(shl(0xa0, 0x01), 0x01), sload(0x68))\n        /* \"contracts/xALPACAPriceSetter.sol\":1784:1794  msg.sender */\n      caller\n        /* \"contracts/xALPACAPriceSetter.sol\":1784:1809  msg.sender != priceSetter */\n      eq\n        /* \"contracts/xALPACAPriceSetter.sol\":1780:1867  if (msg.sender != priceSetter) {... */\n      tag_75\n      jumpi\n        /* \"contracts/xALPACAPriceSetter.sol\":1827:1859  xALPACAPriceSetter_Unauthorize() */\n      mload(0x40)\n      shl(0xe0, 0xfe77f37f)\n      dup2\n      mstore\n      0x04\n      add\n      mload(0x40)\n      dup1\n      swap2\n      sub\n      swap1\n      revert\n        /* \"contracts/xALPACAPriceSetter.sol\":1780:1867  if (msg.sender != priceSetter) {... */\n    tag_75:\n        /* \"contracts/xALPACAPriceSetter.sol\":1899:1909  TWAPOracle */\n      sload(0x66)\n        /* \"contracts/xALPACAPriceSetter.sol\":1919:1925  alpaca */\n      sload(0x67)\n        /* \"contracts/xALPACAPriceSetter.sol\":1899:1926  TWAPOracle.getPrice(alpaca) */\n      mload(0x40)\n      shl(0xe0, 0x41976e09)\n      dup2\n      mstore\n      sub(shl(0xa0, 0x01), 0x01)\n        /* \"contracts/xALPACAPriceSetter.sol\":1919:1925  alpaca */\n      swap2\n      dup3\n      and\n        /* \"contracts/xALPACAPriceSetter.sol\":1899:1926  TWAPOracle.getPrice(alpaca) */\n      0x04\n      dup3\n      add\n        /* \"#utility.yul\":160:211   */\n      mstore\n        /* \"contracts/xALPACAPriceSetter.sol\":1875:1896  uint256 _xALPACAValue */\n      0x00\n      swap3\n        /* \"contracts/xALPACAPriceSetter.sol\":1899:1909  TWAPOracle */\n      swap2\n      swap1\n      swap2\n      and\n      swap1\n        /* \"contracts/xALPACAPriceSetter.sol\":1899:1918  TWAPOracle.getPrice */\n      0x41976e09\n      swap1\n        /* \"#utility.yul\":133:151   */\n      0x24\n      add\n        /* \"contracts/xALPACAPriceSetter.sol\":1899:1926  TWAPOracle.getPrice(alpaca) */\n      0x20\n      mload(0x40)\n      dup1\n      dup4\n      sub\n      dup2\n      dup7\n      gas\n      staticcall\n      iszero\n      dup1\n      iszero\n      tag_78\n      jumpi\n      returndatasize\n      0x00\n      dup1\n      returndatacopy\n      revert(0x00, returndatasize)\n    tag_78:\n      pop\n      pop\n      pop\n      pop\n      mload(0x40)\n      returndatasize\n      not(0x1f)\n      0x1f\n      dup3\n      add\n      and\n      dup3\n      add\n      dup1\n      0x40\n      mstore\n      pop\n      dup2\n      add\n      swap1\n      tag_79\n      swap2\n      swap1\n      tag_80\n      jump\t// in\n    tag_79:\n        /* \"contracts/xALPACAPriceSetter.sol\":1933:1948  xALPACACreditor */\n      sload(0x65)\n        /* \"contracts/xALPACAPriceSetter.sol\":1933:1982  xALPACACreditor.setValuePerxALPACA(_xALPACAValue) */\n      mload(0x40)\n      shl(0xe3, 0x19b28d75)\n      dup2\n      mstore\n      0x04\n      dup2\n      add\n        /* \"#utility.yul\":2541:2566   */\n      dup4\n      swap1\n      mstore\n        /* \"contracts/xALPACAPriceSetter.sol\":1875:1926  uint256 _xALPACAValue = TWAPOracle.getPrice(alpaca) */\n      swap2\n      swap3\n      pop\n      sub(shl(0xa0, 0x01), 0x01)\n        /* \"contracts/xALPACAPriceSetter.sol\":1933:1948  xALPACACreditor */\n      and\n      swap1\n        /* \"contracts/xALPACAPriceSetter.sol\":1933:1967  xALPACACreditor.setValuePerxALPACA */\n      0xcd946ba8\n      swap1\n        /* \"#utility.yul\":2514:2532   */\n      0x24\n      add\n        /* \"contracts/xALPACAPriceSetter.sol\":1933:1982  xALPACACreditor.setValuePerxALPACA(_xALPACAValue) */\n      0x00\n      mload(0x40)\n      dup1\n      dup4\n      sub\n      dup2\n      0x00\n      dup8\n      dup1\n      extcodesize\n      iszero\n      dup1\n      iszero\n      tag_83\n      jumpi\n      0x00\n      dup1\n      revert\n    tag_83:\n      pop\n      gas\n      call\n      iszero\n      dup1\n      iszero\n      tag_85\n      jumpi\n      returndatasize\n      0x00\n      dup1\n      returndatacopy\n      revert(0x00, returndatasize)\n    tag_85:\n      pop\n      pop\n        /* \"contracts/xALPACAPriceSetter.sol\":1996:2042  LogSetValueFromTWAP(msg.sender, _xALPACAValue) */\n      mload(0x40)\n        /* \"#utility.yul\":2541:2566   */\n      dup4\n      dup2\n      mstore\n        /* \"contracts/xALPACAPriceSetter.sol\":2016:2026  msg.sender */\n      caller\n      swap3\n      pop\n        /* \"contracts/xALPACAPriceSetter.sol\":1996:2042  LogSetValueFromTWAP(msg.sender, _xALPACAValue) */\n      0x319b98be05fdbfe94f3cf2046d4cb3ab593056698700d2e808692638dc6ca4e6\n      swap2\n      pop\n        /* \"#utility.yul\":2529:2531   */\n      0x20\n        /* \"#utility.yul\":2514:2532   */\n      add\n        /* \"contracts/xALPACAPriceSetter.sol\":1996:2042  LogSetValueFromTWAP(msg.sender, _xALPACAValue) */\n      mload(0x40)\n      dup1\n      swap2\n      sub\n      swap1\n      log2\n        /* \"contracts/xALPACAPriceSetter.sol\":1773:2048  {... */\n      pop\n        /* \"contracts/xALPACAPriceSetter.sol\":1736:2048  function setValueFromTWAP() external {... */\n      jump\t// out\n        /* \"@openzeppelin/contracts-upgradeable/access/OwnableUpgradeable.sol\":2158:2356  function transferOwnership(address newOwner) public virtual onlyOwner {... */\n    tag_46:\n        /* \"@openzeppelin/contracts-upgradeable/access/OwnableUpgradeable.sol\":1348:1354  _owner */\n      and(sub(shl(0xa0, 0x01), 0x01), sload(0x33))\n        /* \"@openzeppelin/contracts-upgradeable/utils/ContextUpgradeable.sol\":929:939  msg.sender */\n      caller\n        /* \"@openzeppelin/contracts-upgradeable/access/OwnableUpgradeable.sol\":1488:1511  owner() == _msgSender() */\n      eq\n        /* \"@openzeppelin/contracts-upgradeable/access/OwnableUpgradeable.sol\":1480:1548  require(owner() == _msgSender(), \"Ownable: caller is not the owner\") */\n      tag_90\n      jumpi\n      mload(0x40)\n      shl(0xe5, 0x461bcd)\n      dup2\n      mstore\n      0x04\n      add\n      tag_52\n      swap1\n      tag_53\n      jump\t// in\n    tag_90:\n      sub(shl(0xa0, 0x01), 0x01)\n        /* \"@openzeppelin/contracts-upgradeable/access/OwnableUpgradeable.sol\":2246:2268  newOwner != address(0) */\n      dup2\n      and\n        /* \"@openzeppelin/contracts-upgradeable/access/OwnableUpgradeable.sol\":2238:2311  require(newOwner != address(0), \"Ownable: new owner is the zero address\") */\n      tag_93\n      jumpi\n      mload(0x40)\n      shl(0xe5, 0x461bcd)\n      dup2\n      mstore\n        /* \"#utility.yul\":2779:2781   */\n      0x20\n        /* \"@openzeppelin/contracts-upgradeable/access/OwnableUpgradeable.sol\":2238:2311  require(newOwner != address(0), \"Ownable: new owner is the zero address\") */\n      0x04\n      dup3\n      add\n        /* \"#utility.yul\":2761:2782   */\n      mstore\n        /* \"#utility.yul\":2818:2820   */\n      0x26\n        /* \"#utility.yul\":2798:2816   */\n      0x24\n      dup3\n      add\n        /* \"#utility.yul\":2791:2821   */\n      mstore\n        /* \"#utility.yul\":2857:2891   */\n      0x4f776e61626c653a206e6577206f776e657220697320746865207a65726f2061\n        /* \"#utility.yul\":2837:2855   */\n      0x44\n      dup3\n      add\n        /* \"#utility.yul\":2830:2892   */\n      mstore\n      shl(0xd0, 0x646472657373)\n        /* \"#utility.yul\":2908:2926   */\n      0x64\n      dup3\n      add\n        /* \"#utility.yul\":2901:2937   */\n      mstore\n        /* \"#utility.yul\":2954:2973   */\n      0x84\n      add\n        /* \"@openzeppelin/contracts-upgradeable/access/OwnableUpgradeable.sol\":2238:2311  require(newOwner != address(0), \"Ownable: new owner is the zero address\") */\n      tag_52\n        /* \"#utility.yul\":2577:2979   */\n      jump\n        /* \"@openzeppelin/contracts-upgradeable/access/OwnableUpgradeable.sol\":2238:2311  require(newOwner != address(0), \"Ownable: new owner is the zero address\") */\n    tag_93:\n        /* \"@openzeppelin/contracts-upgradeable/access/OwnableUpgradeable.sol\":2321:2349  _transferOwnership(newOwner) */\n      tag_96\n        /* \"@openzeppelin/contracts-upgradeable/access/OwnableUpgradeable.sol\":2340:2348  newOwner */\n      dup2\n        /* \"@openzeppelin/contracts-upgradeable/access/OwnableUpgradeable.sol\":2321:2339  _transferOwnership */\n      tag_62\n        /* \"@openzeppelin/contracts-upgradeable/access/OwnableUpgradeable.sol\":2321:2349  _transferOwnership(newOwner) */\n      jump\t// in\n    tag_96:\n        /* \"@openzeppelin/contracts-upgradeable/access/OwnableUpgradeable.sol\":2158:2356  function transferOwnership(address newOwner) public virtual onlyOwner {... */\n      pop\n      jump\t// out\n        /* \"@openzeppelin/contracts-upgradeable/access/OwnableUpgradeable.sol\":2510:2697  function _transferOwnership(address newOwner) internal virtual {... */\n    tag_62:\n        /* \"@openzeppelin/contracts-upgradeable/access/OwnableUpgradeable.sol\":2602:2608  _owner */\n      0x33\n      dup1\n      sload\n      sub(shl(0xa0, 0x01), 0x01)\n        /* \"@openzeppelin/contracts-upgradeable/access/OwnableUpgradeable.sol\":2618:2635  _owner = newOwner */\n      dup4\n      dup2\n      and\n      not(sub(shl(0xa0, 0x01), 0x01))\n      dup4\n      and\n      dup2\n      or\n      swap1\n      swap4\n      sstore\n        /* \"@openzeppelin/contracts-upgradeable/access/OwnableUpgradeable.sol\":2650:2690  OwnershipTransferred(oldOwner, newOwner) */\n      mload(0x40)\n        /* \"@openzeppelin/contracts-upgradeable/access/OwnableUpgradeable.sol\":2602:2608  _owner */\n      swap2\n      and\n      swap2\n        /* \"@openzeppelin/contracts-upgradeable/access/OwnableUpgradeable.sol\":2618:2635  _owner = newOwner */\n      swap1\n        /* \"@openzeppelin/contracts-upgradeable/access/OwnableUpgradeable.sol\":2602:2608  _owner */\n      dup3\n      swap1\n        /* \"@openzeppelin/contracts-upgradeable/access/OwnableUpgradeable.sol\":2650:2690  OwnershipTransferred(oldOwner, newOwner) */\n      0x8be0079c531659141344cd1fd0a4f28419497f9722a3daafe3b4186f6b6457e0\n      swap1\n        /* \"@openzeppelin/contracts-upgradeable/access/OwnableUpgradeable.sol\":2583:2599  address oldOwner */\n      0x00\n      swap1\n        /* \"@openzeppelin/contracts-upgradeable/access/OwnableUpgradeable.sol\":2650:2690  OwnershipTransferred(oldOwner, newOwner) */\n      log3\n        /* \"@openzeppelin/contracts-upgradeable/access/OwnableUpgradeable.sol\":2573:2697  {... */\n      pop\n        /* \"@openzeppelin/contracts-upgradeable/access/OwnableUpgradeable.sol\":2510:2697  function _transferOwnership(address newOwner) internal virtual {... */\n      pop\n      jump\t// out\n        /* \"@openzeppelin/contracts-upgradeable/proxy/utils/Initializable.sol\":5287:6095  function _setInitializedVersion(uint8 version) private returns (bool) {... */\n    tag_66:\n        /* \"@openzeppelin/contracts-upgradeable/proxy/utils/Initializable.sol\":5351:5355  bool */\n      0x00\n        /* \"@openzeppelin/contracts-upgradeable/proxy/utils/Initializable.sol\":5684:5697  _initializing */\n      dup1\n      sload\n      0x0100\n      swap1\n      div\n      0xff\n      and\n        /* \"@openzeppelin/contracts-upgradeable/proxy/utils/Initializable.sol\":5680:6089  if (_initializing) {... */\n      iszero\n      tag_100\n      jumpi\n        /* \"@openzeppelin/contracts-upgradeable/proxy/utils/Initializable.sol\":5738:5745  version */\n      dup2\n        /* \"@openzeppelin/contracts-upgradeable/proxy/utils/Initializable.sol\":5738:5750  version == 1 */\n      0xff\n      and\n        /* \"@openzeppelin/contracts-upgradeable/proxy/utils/Initializable.sol\":5749:5750  1 */\n      0x01\n        /* \"@openzeppelin/contracts-upgradeable/proxy/utils/Initializable.sol\":5738:5750  version == 1 */\n      eq\n        /* \"@openzeppelin/contracts-upgradeable/proxy/utils/Initializable.sol\":5738:5799  version == 1 && !AddressUpgradeable.isContract(address(this)) */\n      dup1\n      iszero\n      tag_101\n      jumpi\n      pop\n        /* \"@openzeppelin/contracts-upgradeable/proxy/utils/Initializable.sol\":5793:5797  this */\n      address\n        /* \"@openzeppelin/contracts-upgradeable/utils/AddressUpgradeable.sol\":1476:1495  account.code.length */\n      extcodesize\n        /* \"@openzeppelin/contracts-upgradeable/utils/AddressUpgradeable.sol\":1476:1499  account.code.length > 0 */\n      iszero\n        /* \"@openzeppelin/contracts-upgradeable/proxy/utils/Initializable.sol\":5738:5799  version == 1 && !AddressUpgradeable.isContract(address(this)) */\n    tag_101:\n        /* \"@openzeppelin/contracts-upgradeable/proxy/utils/Initializable.sol\":5713:5879  require(... */\n      tag_104\n      jumpi\n      mload(0x40)\n      shl(0xe5, 0x461bcd)\n      dup2\n      mstore\n      0x04\n      add\n      tag_52\n      swap1\n      tag_106\n      jump\t// in\n    tag_104:\n      pop\n        /* \"@openzeppelin/contracts-upgradeable/proxy/utils/Initializable.sol\":5900:5905  false */\n      0x00\n      swap2\n        /* \"@openzeppelin/contracts-upgradeable/proxy/utils/Initializable.sol\":5287:6095  function _setInitializedVersion(uint8 version) private returns (bool) {... */\n      swap1\n      pop\n      jump\t// out\n        /* \"@openzeppelin/contracts-upgradeable/proxy/utils/Initializable.sol\":5680:6089  if (_initializing) {... */\n    tag_100:\n        /* \"@openzeppelin/contracts-upgradeable/proxy/utils/Initializable.sol\":5944:5956  _initialized */\n      sload(0x00)\n        /* \"@openzeppelin/contracts-upgradeable/proxy/utils/Initializable.sol\":5944:5966  _initialized < version */\n      0xff\n      dup1\n      dup5\n      and\n        /* \"@openzeppelin/contracts-upgradeable/proxy/utils/Initializable.sol\":5944:5956  _initialized */\n      swap2\n      and\n        /* \"@openzeppelin/contracts-upgradeable/proxy/utils/Initializable.sol\":5944:5966  _initialized < version */\n      lt\n        /* \"@openzeppelin/contracts-upgradeable/proxy/utils/Initializable.sol\":5936:6017  require(_initialized < version, \"Initializable: contract is already initialized\") */\n      tag_108\n      jumpi\n      mload(0x40)\n      shl(0xe5, 0x461bcd)\n      dup2\n      mstore\n      0x04\n      add\n      tag_52\n      swap1\n      tag_106\n      jump\t// in\n    tag_108:\n      pop\n        /* \"@openzeppelin/contracts-upgradeable/proxy/utils/Initializable.sol\":6031:6043  _initialized */\n      0x00\n        /* \"@openzeppelin/contracts-upgradeable/proxy/utils/Initializable.sol\":6031:6053  _initialized = version */\n      dup1\n      sload\n      not(0xff)\n      and\n      0xff\n      swap3\n      swap1\n      swap3\n      and\n      swap2\n      swap1\n      swap2\n      or\n      swap1\n      sstore\n      0x01\n      swap1\n        /* \"@openzeppelin/contracts-upgradeable/proxy/utils/Initializable.sol\":5287:6095  function _setInitializedVersion(uint8 version) private returns (bool) {... */\n      jump\t// out\n        /* \"@openzeppelin/contracts-upgradeable/access/OwnableUpgradeable.sol\":988:1083  function __Ownable_init() internal onlyInitializing {... */\n    tag_70:\n        /* \"@openzeppelin/contracts-upgradeable/proxy/utils/Initializable.sol\":4698:4711  _initializing */\n      sload(0x00)\n      0x0100\n      swap1\n      div\n      0xff\n      and\n        /* \"@openzeppelin/contracts-upgradeable/proxy/utils/Initializable.sol\":4690:4759  require(_initializing, \"Initializable: contract is not initializing\") */\n      tag_111\n      jumpi\n      mload(0x40)\n      shl(0xe5, 0x461bcd)\n      dup2\n      mstore\n      0x04\n      add\n      tag_52\n      swap1\n      tag_113\n      jump\t// in\n    tag_111:\n        /* \"@openzeppelin/contracts-upgradeable/access/OwnableUpgradeable.sol\":1050:1076  __Ownable_init_unchained() */\n      tag_61\n        /* \"@openzeppelin/contracts-upgradeable/proxy/utils/Initializable.sol\":4698:4711  _initializing */\n      sload(0x00)\n      0x0100\n      swap1\n      div\n      0xff\n      and\n        /* \"@openzeppelin/contracts-upgradeable/proxy/utils/Initializable.sol\":4690:4759  require(_initializing, \"Initializable: contract is not initializing\") */\n      tag_119\n      jumpi\n      mload(0x40)\n      shl(0xe5, 0x461bcd)\n      dup2\n      mstore\n      0x04\n      add\n      tag_52\n      swap1\n      tag_113\n      jump\t// in\n    tag_119:\n        /* \"@openzeppelin/contracts-upgradeable/access/OwnableUpgradeable.sol\":1161:1193  _transferOwnership(_msgSender()) */\n      tag_61\n        /* \"@openzeppelin/contracts-upgradeable/utils/ContextUpgradeable.sol\":929:939  msg.sender */\n      caller\n        /* \"@openzeppelin/contracts-upgradeable/access/OwnableUpgradeable.sol\":1161:1179  _transferOwnership */\n      tag_62\n        /* \"@openzeppelin/contracts-upgradeable/access/OwnableUpgradeable.sol\":1161:1193  _transferOwnership(_msgSender()) */\n      jump\t// in\n        /* \"#utility.yul\":454:585   */\n    tag_124:\n      sub(shl(0xa0, 0x01), 0x01)\n        /* \"#utility.yul\":529:560   */\n      dup2\n      and\n        /* \"#utility.yul\":519:561   */\n      dup2\n      eq\n        /* \"#utility.yul\":509:579   */\n      tag_96\n      jumpi\n        /* \"#utility.yul\":575:576   */\n      0x00\n        /* \"#utility.yul\":572:573   */\n      dup1\n        /* \"#utility.yul\":565:577   */\n      revert\n        /* \"#utility.yul\":590:837   */\n    tag_24:\n        /* \"#utility.yul\":649:655   */\n      0x00\n        /* \"#utility.yul\":702:704   */\n      0x20\n        /* \"#utility.yul\":690:699   */\n      dup3\n        /* \"#utility.yul\":681:688   */\n      dup5\n        /* \"#utility.yul\":677:700   */\n      sub\n        /* \"#utility.yul\":673:705   */\n      slt\n        /* \"#utility.yul\":670:722   */\n      iszero\n      tag_131\n      jumpi\n        /* \"#utility.yul\":718:719   */\n      0x00\n        /* \"#utility.yul\":715:716   */\n      dup1\n        /* \"#utility.yul\":708:720   */\n      revert\n        /* \"#utility.yul\":670:722   */\n    tag_131:\n        /* \"#utility.yul\":757:766   */\n      dup2\n        /* \"#utility.yul\":744:767   */\n      calldataload\n        /* \"#utility.yul\":776:807   */\n      tag_132\n        /* \"#utility.yul\":801:806   */\n      dup2\n        /* \"#utility.yul\":776:807   */\n      tag_124\n      jump\t// in\n    tag_132:\n        /* \"#utility.yul\":826:831   */\n      swap4\n        /* \"#utility.yul\":590:837   */\n      swap3\n      pop\n      pop\n      pop\n      jump\t// out\n        /* \"#utility.yul\":842:1414   */\n    tag_36:\n        /* \"#utility.yul\":962:968   */\n      0x00\n        /* \"#utility.yul\":970:976   */\n      dup1\n        /* \"#utility.yul\":978:984   */\n      0x00\n        /* \"#utility.yul\":1031:1033   */\n      0x60\n        /* \"#utility.yul\":1019:1028   */\n      dup5\n        /* \"#utility.yul\":1010:1017   */\n      dup7\n        /* \"#utility.yul\":1006:1029   */\n      sub\n        /* \"#utility.yul\":1002:1034   */\n      slt\n        /* \"#utility.yul\":999:1051   */\n      iszero\n      tag_134\n      jumpi\n        /* \"#utility.yul\":1047:1048   */\n      0x00\n        /* \"#utility.yul\":1044:1045   */\n      dup1\n        /* \"#utility.yul\":1037:1049   */\n      revert\n        /* \"#utility.yul\":999:1051   */\n    tag_134:\n        /* \"#utility.yul\":1086:1095   */\n      dup4\n        /* \"#utility.yul\":1073:1096   */\n      calldataload\n        /* \"#utility.yul\":1105:1136   */\n      tag_135\n        /* \"#utility.yul\":1130:1135   */\n      dup2\n        /* \"#utility.yul\":1105:1136   */\n      tag_124\n      jump\t// in\n    tag_135:\n        /* \"#utility.yul\":1155:1160   */\n      swap3\n      pop\n        /* \"#utility.yul\":1212:1214   */\n      0x20\n        /* \"#utility.yul\":1197:1215   */\n      dup5\n      add\n        /* \"#utility.yul\":1184:1216   */\n      calldataload\n        /* \"#utility.yul\":1225:1258   */\n      tag_136\n        /* \"#utility.yul\":1184:1216   */\n      dup2\n        /* \"#utility.yul\":1225:1258   */\n      tag_124\n      jump\t// in\n    tag_136:\n        /* \"#utility.yul\":1277:1284   */\n      swap2\n      pop\n        /* \"#utility.yul\":1336:1338   */\n      0x40\n        /* \"#utility.yul\":1321:1339   */\n      dup5\n      add\n        /* \"#utility.yul\":1308:1340   */\n      calldataload\n        /* \"#utility.yul\":1349:1382   */\n      tag_137\n        /* \"#utility.yul\":1308:1340   */\n      dup2\n        /* \"#utility.yul\":1349:1382   */\n      tag_124\n      jump\t// in\n    tag_137:\n        /* \"#utility.yul\":1401:1408   */\n      dup1\n        /* \"#utility.yul\":1391:1408   */\n      swap2\n      pop\n      pop\n        /* \"#utility.yul\":842:1414   */\n      swap3\n      pop\n      swap3\n      pop\n      swap3\n      jump\t// out\n        /* \"#utility.yul\":1646:2002   */\n    tag_53:\n        /* \"#utility.yul\":1848:1850   */\n      0x20\n        /* \"#utility.yul\":1830:1851   */\n      dup1\n      dup3\n      mstore\n        /* \"#utility.yul\":1867:1885   */\n      dup2\n      dup2\n      add\n        /* \"#utility.yul\":1860:1890   */\n      mstore\n        /* \"#utility.yul\":1926:1960   */\n      0x4f776e61626c653a2063616c6c6572206973206e6f7420746865206f776e6572\n        /* \"#utility.yul\":1921:1923   */\n      0x40\n        /* \"#utility.yul\":1906:1924   */\n      dup3\n      add\n        /* \"#utility.yul\":1899:1961   */\n      mstore\n        /* \"#utility.yul\":1993:1995   */\n      0x60\n        /* \"#utility.yul\":1978:1996   */\n      add\n      swap1\n        /* \"#utility.yul\":1646:2002   */\n      jump\t// out\n        /* \"#utility.yul\":2206:2390   */\n    tag_80:\n        /* \"#utility.yul\":2276:2282   */\n      0x00\n        /* \"#utility.yul\":2329:2331   */\n      0x20\n        /* \"#utility.yul\":2317:2326   */\n      dup3\n        /* \"#utility.yul\":2308:2315   */\n      dup5\n        /* \"#utility.yul\":2304:2327   */\n      sub\n        /* \"#utility.yul\":2300:2332   */\n      slt\n        /* \"#utility.yul\":2297:2349   */\n      iszero\n      tag_142\n      jumpi\n        /* \"#utility.yul\":2345:2346   */\n      0x00\n        /* \"#utility.yul\":2342:2343   */\n      dup1\n        /* \"#utility.yul\":2335:2347   */\n      revert\n        /* \"#utility.yul\":2297:2349   */\n    tag_142:\n      pop\n        /* \"#utility.yul\":2368:2384   */\n      mload\n      swap2\n        /* \"#utility.yul\":2206:2390   */\n      swap1\n      pop\n      jump\t// out\n        /* \"#utility.yul\":2984:3394   */\n    tag_106:\n        /* \"#utility.yul\":3186:3188   */\n      0x20\n        /* \"#utility.yul\":3168:3189   */\n      dup1\n      dup3\n      mstore\n        /* \"#utility.yul\":3225:3227   */\n      0x2e\n        /* \"#utility.yul\":3205:3223   */\n      swap1\n      dup3\n      add\n        /* \"#utility.yul\":3198:3228   */\n      mstore\n        /* \"#utility.yul\":3264:3298   */\n      0x496e697469616c697a61626c653a20636f6e747261637420697320616c726561\n        /* \"#utility.yul\":3259:3261   */\n      0x40\n        /* \"#utility.yul\":3244:3262   */\n      dup3\n      add\n        /* \"#utility.yul\":3237:3299   */\n      mstore\n      shl(0x92, 0x191e481a5b9a5d1a585b1a5e9959)\n        /* \"#utility.yul\":3330:3332   */\n      0x60\n        /* \"#utility.yul\":3315:3333   */\n      dup3\n      add\n        /* \"#utility.yul\":3308:3352   */\n      mstore\n        /* \"#utility.yul\":3384:3387   */\n      0x80\n        /* \"#utility.yul\":3369:3388   */\n      add\n      swap1\n        /* \"#utility.yul\":2984:3394   */\n      jump\t// out\n        /* \"#utility.yul\":3399:3806   */\n    tag_113:\n        /* \"#utility.yul\":3601:3603   */\n      0x20\n        /* \"#utility.yul\":3583:3604   */\n      dup1\n      dup3\n      mstore\n        /* \"#utility.yul\":3640:3642   */\n      0x2b\n        /* \"#utility.yul\":3620:3638   */\n      swap1\n      dup3\n      add\n        /* \"#utility.yul\":3613:3643   */\n      mstore\n        /* \"#utility.yul\":3679:3713   */\n      0x496e697469616c697a61626c653a20636f6e7472616374206973206e6f742069\n        /* \"#utility.yul\":3674:3676   */\n      0x40\n        /* \"#utility.yul\":3659:3677   */\n      dup3\n      add\n        /* \"#utility.yul\":3652:3714   */\n      mstore\n      shl(0xa8, 0x6e697469616c697a696e67)\n        /* \"#utility.yul\":3745:3747   */\n      0x60\n        /* \"#utility.yul\":3730:3748   */\n      dup3\n      add\n        /* \"#utility.yul\":3723:3764   */\n      mstore\n        /* \"#utility.yul\":3796:3799   */\n      0x80\n        /* \"#utility.yul\":3781:3800   */\n      add\n      swap1\n        /* \"#utility.yul\":3399:3806   */\n      jump\t// out\n\n    auxdata: 0xa2646970667358221220265a4a7fd4b99e159243b08e233817cae5eb549e35c63c850bd104f8c394a40664736f6c634300080d0033\n}\n",
				"bytecode": {
					"linkReferences": {},
					"object": "608060405234801561001057600080fd5b50610778806100206000396000f3fe608060405234801561001057600080fd5b506004361061009e5760003560e01c806394faab231161006657806394faab2314610113578063c0c53b8b14610126578063cab0d81614610139578063d0b373b31461014c578063f2fde38b1461015457600080fd5b80632c09bef7146100a357806334d29f05146100d257806363791e3c146100e5578063715018a6146100fa5780638da5cb5b14610102575b600080fd5b6068546100b6906001600160a01b031681565b6040516001600160a01b03909116815260200160405180910390f35b6065546100b6906001600160a01b031681565b6100f86100f33660046105ec565b610167565b005b6100f86101e6565b6033546001600160a01b03166100b6565b6067546100b6906001600160a01b031681565b6100f8610134366004610610565b61021c565b6066546100b6906001600160a01b031681565b6100f86102d1565b6100f86101623660046105ec565b610408565b6033546001600160a01b0316331461019a5760405162461bcd60e51b81526004016101919061065b565b60405180910390fd5b606880546001600160a01b0319166001600160a01b03831690811790915560405133907f73ac14f6c6f83ac21ceaedde9a348f537e8dcd3931f90b9cf101f14e534f735c90600090a350565b6033546001600160a01b031633146102105760405162461bcd60e51b81526004016101919061065b565b61021a60006104a3565b565b600061022860016104f5565b90508015610240576000805461ff0019166101001790555b61024861057d565b606580546001600160a01b038087166001600160a01b03199283161790925560668054868416908316179055606780549285169290911691909117905580156102cb576000805461ff0019169055604051600181527f7f26b83ff96e1f2b6a682f133852f6798a09c465da95921460cefb38474024989060200160405180910390a15b50505050565b6068546001600160a01b031633146102fc5760405163fe77f37f60e01b815260040160405180910390fd5b6066546067546040516341976e0960e01b81526001600160a01b03918216600482015260009291909116906341976e0990602401602060405180830381865afa15801561034d573d6000803e3d6000fd5b505050506040513d601f19601f820116820180604052508101906103719190610690565b6065546040516319b28d7560e31b8152600481018390529192506001600160a01b03169063cd946ba890602401600060405180830381600087803b1580156103b857600080fd5b505af11580156103cc573d6000803e3d6000fd5b50506040518381523392507f319b98be05fdbfe94f3cf2046d4cb3ab593056698700d2e808692638dc6ca4e6915060200160405180910390a250565b6033546001600160a01b031633146104325760405162461bcd60e51b81526004016101919061065b565b6001600160a01b0381166104975760405162461bcd60e51b815260206004820152602660248201527f4f776e61626c653a206e6577206f776e657220697320746865207a65726f206160448201526564647265737360d01b6064820152608401610191565b6104a0816104a3565b50565b603380546001600160a01b038381166001600160a01b0319831681179093556040519116919082907f8be0079c531659141344cd1fd0a4f28419497f9722a3daafe3b4186f6b6457e090600090a35050565b60008054610100900460ff161561053c578160ff1660011480156105185750303b155b6105345760405162461bcd60e51b8152600401610191906106a9565b506000919050565b60005460ff8084169116106105635760405162461bcd60e51b8152600401610191906106a9565b506000805460ff191660ff92909216919091179055600190565b600054610100900460ff166105a45760405162461bcd60e51b8152600401610191906106f7565b61021a600054610100900460ff166105ce5760405162461bcd60e51b8152600401610191906106f7565b61021a336104a3565b6001600160a01b03811681146104a057600080fd5b6000602082840312156105fe57600080fd5b8135610609816105d7565b9392505050565b60008060006060848603121561062557600080fd5b8335610630816105d7565b92506020840135610640816105d7565b91506040840135610650816105d7565b809150509250925092565b6020808252818101527f4f776e61626c653a2063616c6c6572206973206e6f7420746865206f776e6572604082015260600190565b6000602082840312156106a257600080fd5b5051919050565b6020808252602e908201527f496e697469616c697a61626c653a20636f6e747261637420697320616c72656160408201526d191e481a5b9a5d1a585b1a5e995960921b606082015260800190565b6020808252602b908201527f496e697469616c697a61626c653a20636f6e7472616374206973206e6f74206960408201526a6e697469616c697a696e6760a81b60608201526080019056fea2646970667358221220265a4a7fd4b99e159243b08e233817cae5eb549e35c63c850bd104f8c394a40664736f6c634300080d0033",
					"opcodes": "PUSH1 0x80 PUSH1 0x40 MSTORE CALLVALUE DUP1 ISZERO PUSH2 0x10 JUMPI PUSH1 0x0 DUP1 REVERT JUMPDEST POP PUSH2 0x778 DUP1 PUSH2 0x20 PUSH1 0x0 CODECOPY PUSH1 0x0 RETURN INVALID PUSH1 0x80 PUSH1 0x40 MSTORE CALLVALUE DUP1 ISZERO PUSH2 0x10 JUMPI PUSH1 0x0 DUP1 REVERT JUMPDEST POP PUSH1 0x4 CALLDATASIZE LT PUSH2 0x9E JUMPI PUSH1 0x0 CALLDATALOAD PUSH1 0xE0 SHR DUP1 PUSH4 0x94FAAB23 GT PUSH2 0x66 JUMPI DUP1 PUSH4 0x94FAAB23 EQ PUSH2 0x113 JUMPI DUP1 PUSH4 0xC0C53B8B EQ PUSH2 0x126 JUMPI DUP1 PUSH4 0xCAB0D816 EQ PUSH2 0x139 JUMPI DUP1 PUSH4 0xD0B373B3 EQ PUSH2 0x14C JUMPI DUP1 PUSH4 0xF2FDE38B EQ PUSH2 0x154 JUMPI PUSH1 0x0 DUP1 REVERT JUMPDEST DUP1 PUSH4 0x2C09BEF7 EQ PUSH2 0xA3 JUMPI DUP1 PUSH4 0x34D29F05 EQ PUSH2 0xD2 JUMPI DUP1 PUSH4 0x63791E3C EQ PUSH2 0xE5 JUMPI DUP1 PUSH4 0x715018A6 EQ PUSH2 0xFA JUMPI DUP1 PUSH4 0x8DA5CB5B EQ PUSH2 0x102 JUMPI JUMPDEST PUSH1 0x0 DUP1 REVERT JUMPDEST PUSH1 0x68 SLOAD PUSH2 0xB6 SWAP1 PUSH1 0x1 PUSH1 0x1 PUSH1 0xA0 SHL SUB AND DUP2 JUMP JUMPDEST PUSH1 0x40 MLOAD PUSH1 0x1 PUSH1 0x1 PUSH1 0xA0 SHL SUB SWAP1 SWAP2 AND DUP2 MSTORE PUSH1 0x20 ADD PUSH1 0x40 MLOAD DUP1 SWAP2 SUB SWAP1 RETURN JUMPDEST PUSH1 0x65 SLOAD PUSH2 0xB6 SWAP1 PUSH1 0x1 PUSH1 0x1 PUSH1 0xA0 SHL SUB AND DUP2 JUMP JUMPDEST PUSH2 0xF8 PUSH2 0xF3 CALLDATASIZE PUSH1 0x4 PUSH2 0x5EC JUMP JUMPDEST PUSH2 0x167 JUMP JUMPDEST STOP JUMPDEST PUSH2 0xF8 PUSH2 0x1E6 JUMP JUMPDEST PUSH1 0x33 SLOAD PUSH1 0x1 PUSH1 0x1 PUSH1 0xA0 SHL SUB AND PUSH2 0xB6 JUMP JUMPDEST PUSH1 0x67 SLOAD PUSH2 0xB6 SWAP1 PUSH1 0x1 PUSH1 0x1 PUSH1 0xA0 SHL SUB AND DUP2 JUMP JUMPDEST PUSH2 0xF8 PUSH2 0x134 CALLDATASIZE PUSH1 0x4 PUSH2 0x610 JUMP JUMPDEST PUSH2 0x21C JUMP JUMPDEST PUSH1 0x66 SLOAD PUSH2 0xB6 SWAP1 PUSH1 0x1 PUSH1 0x1 PUSH1 0xA0 SHL SUB AND DUP2 JUMP JUMPDEST PUSH2 0xF8 PUSH2 0x2D1 JUMP JUMPDEST PUSH2 0xF8 PUSH2 0x162 CALLDATASIZE PUSH1 0x4 PUSH2 0x5EC JUMP JUMPDEST PUSH2 0x408 JUMP JUMPDEST PUSH1 0x33 SLOAD PUSH1 0x1 PUSH1 0x1 PUSH1 0xA0 SHL SUB AND CALLER EQ PUSH2 0x19A JUMPI PUSH1 0x40 MLOAD PUSH3 0x461BCD PUSH1 0xE5 SHL DUP2 MSTORE PUSH1 0x4 ADD PUSH2 0x191 SWAP1 PUSH2 0x65B JUMP JUMPDEST PUSH1 0x40 MLOAD DUP1 SWAP2 SUB SWAP1 REVERT JUMPDEST PUSH1 0x68 DUP1 SLOAD PUSH1 0x1 PUSH1 0x1 PUSH1 0xA0 SHL SUB NOT AND PUSH1 0x1 PUSH1 0x1 PUSH1 0xA0 SHL SUB DUP4 AND SWAP1 DUP2 OR SWAP1 SWAP2 SSTORE PUSH1 0x40 MLOAD CALLER SWAP1 PUSH32 0x73AC14F6C6F83AC21CEAEDDE9A348F537E8DCD3931F90B9CF101F14E534F735C SWAP1 PUSH1 0x0 SWAP1 LOG3 POP JUMP JUMPDEST PUSH1 0x33 SLOAD PUSH1 0x1 PUSH1 0x1 PUSH1 0xA0 SHL SUB AND CALLER EQ PUSH2 0x210 JUMPI PUSH1 0x40 MLOAD PUSH3 0x461BCD PUSH1 0xE5 SHL DUP2 MSTORE PUSH1 0x4 ADD PUSH2 0x191 SWAP1 PUSH2 0x65B JUMP JUMPDEST PUSH2 0x21A PUSH1 0x0 PUSH2 0x4A3 JUMP JUMPDEST JUMP JUMPDEST PUSH1 0x0 PUSH2 0x228 PUSH1 0x1 PUSH2 0x4F5 JUMP JUMPDEST SWAP1 POP DUP1 ISZERO PUSH2 0x240 JUMPI PUSH1 0x0 DUP1 SLOAD PUSH2 0xFF00 NOT AND PUSH2 0x100 OR SWAP1 SSTORE JUMPDEST PUSH2 0x248 PUSH2 0x57D JUMP JUMPDEST PUSH1 0x65 DUP1 SLOAD PUSH1 0x1 PUSH1 0x1 PUSH1 0xA0 SHL SUB DUP1 DUP8 AND PUSH1 0x1 PUSH1 0x1 PUSH1 0xA0 SHL SUB NOT SWAP3 DUP4 AND OR SWAP1 SWAP3 SSTORE PUSH1 0x66 DUP1 SLOAD DUP7 DUP5 AND SWAP1 DUP4 AND OR SWAP1 SSTORE PUSH1 0x67 DUP1 SLOAD SWAP3 DUP6 AND SWAP3 SWAP1 SWAP2 AND SWAP2 SWAP1 SWAP2 OR SWAP1 SSTORE DUP1 ISZERO PUSH2 0x2CB JUMPI PUSH1 0x0 DUP1 SLOAD PUSH2 0xFF00 NOT AND SWAP1 SSTORE PUSH1 0x40 MLOAD PUSH1 0x1 DUP2 MSTORE PUSH32 0x7F26B83FF96E1F2B6A682F133852F6798A09C465DA95921460CEFB3847402498 SWAP1 PUSH1 0x20 ADD PUSH1 0x40 MLOAD DUP1 SWAP2 SUB SWAP1 LOG1 JUMPDEST POP POP POP POP JUMP JUMPDEST PUSH1 0x68 SLOAD PUSH1 0x1 PUSH1 0x1 PUSH1 0xA0 SHL SUB AND CALLER EQ PUSH2 0x2FC JUMPI PUSH1 0x40 MLOAD PUSH4 0xFE77F37F PUSH1 0xE0 SHL DUP2 MSTORE PUSH1 0x4 ADD PUSH1 0x40 MLOAD DUP1 SWAP2 SUB SWAP1 REVERT JUMPDEST PUSH1 0x66 SLOAD PUSH1 0x67 SLOAD PUSH1 0x40 MLOAD PUSH4 0x41976E09 PUSH1 0xE0 SHL DUP2 MSTORE PUSH1 0x1 PUSH1 0x1 PUSH1 0xA0 SHL SUB SWAP2 DUP3 AND PUSH1 0x4 DUP3 ADD MSTORE PUSH1 0x0 SWAP3 SWAP2 SWAP1 SWAP2 AND SWAP1 PUSH4 0x41976E09 SWAP1 PUSH1 0x24 ADD PUSH1 0x20 PUSH1 0x40 MLOAD DUP1 DUP4 SUB DUP2 DUP7 GAS STATICCALL ISZERO DUP1 ISZERO PUSH2 0x34D JUMPI RETURNDATASIZE PUSH1 0x0 DUP1 RETURNDATACOPY RETURNDATASIZE PUSH1 0x0 REVERT JUMPDEST POP POP POP POP PUSH1 0x40 MLOAD RETURNDATASIZE PUSH1 0x1F NOT PUSH1 0x1F DUP3 ADD AND DUP3 ADD DUP1 PUSH1 0x40 MSTORE POP DUP2 ADD SWAP1 PUSH2 0x371 SWAP2 SWAP1 PUSH2 0x690 JUMP JUMPDEST PUSH1 0x65 SLOAD PUSH1 0x40 MLOAD PUSH4 0x19B28D75 PUSH1 0xE3 SHL DUP2 MSTORE PUSH1 0x4 DUP2 ADD DUP4 SWAP1 MSTORE SWAP2 SWAP3 POP PUSH1 0x1 PUSH1 0x1 PUSH1 0xA0 SHL SUB AND SWAP1 PUSH4 0xCD946BA8 SWAP1 PUSH1 0x24 ADD PUSH1 0x0 PUSH1 0x40 MLOAD DUP1 DUP4 SUB DUP2 PUSH1 0x0 DUP8 DUP1 EXTCODESIZE ISZERO DUP1 ISZERO PUSH2 0x3B8 JUMPI PUSH1 0x0 DUP1 REVERT JUMPDEST POP GAS CALL ISZERO DUP1 ISZERO PUSH2 0x3CC JUMPI RETURNDATASIZE PUSH1 0x0 DUP1 RETURNDATACOPY RETURNDATASIZE PUSH1 0x0 REVERT JUMPDEST POP POP PUSH1 0x40 MLOAD DUP4 DUP2 MSTORE CALLER SWAP3 POP PUSH32 0x319B98BE05FDBFE94F3CF2046D4CB3AB593056698700D2E808692638DC6CA4E6 SWAP2 POP PUSH1 0x20 ADD PUSH1 0x40 MLOAD DUP1 SWAP2 SUB SWAP1 LOG2 POP JUMP JUMPDEST PUSH1 0x33 SLOAD PUSH1 0x1 PUSH1 0x1 PUSH1 0xA0 SHL SUB AND CALLER EQ PUSH2 0x432 JUMPI PUSH1 0x40 MLOAD PUSH3 0x461BCD PUSH1 0xE5 SHL DUP2 MSTORE PUSH1 0x4 ADD PUSH2 0x191 SWAP1 PUSH2 0x65B JUMP JUMPDEST PUSH1 0x1 PUSH1 0x1 PUSH1 0xA0 SHL SUB DUP2 AND PUSH2 0x497 JUMPI PUSH1 0x40 MLOAD PUSH3 0x461BCD PUSH1 0xE5 SHL DUP2 MSTORE PUSH1 0x20 PUSH1 0x4 DUP3 ADD MSTORE PUSH1 0x26 PUSH1 0x24 DUP3 ADD MSTORE PUSH32 0x4F776E61626C653A206E6577206F776E657220697320746865207A65726F2061 PUSH1 0x44 DUP3 ADD MSTORE PUSH6 0x646472657373 PUSH1 0xD0 SHL PUSH1 0x64 DUP3 ADD MSTORE PUSH1 0x84 ADD PUSH2 0x191 JUMP JUMPDEST PUSH2 0x4A0 DUP2 PUSH2 0x4A3 JUMP JUMPDEST POP JUMP JUMPDEST PUSH1 0x33 DUP1 SLOAD PUSH1 0x1 PUSH1 0x1 PUSH1 0xA0 SHL SUB DUP4 DUP2 AND PUSH1 0x1 PUSH1 0x1 PUSH1 0xA0 SHL SUB NOT DUP4 AND DUP2 OR SWAP1 SWAP4 SSTORE PUSH1 0x40 MLOAD SWAP2 AND SWAP2 SWAP1 DUP3 SWAP1 PUSH32 0x8BE0079C531659141344CD1FD0A4F28419497F9722A3DAAFE3B4186F6B6457E0 SWAP1 PUSH1 0x0 SWAP1 LOG3 POP POP JUMP JUMPDEST PUSH1 0x0 DUP1 SLOAD PUSH2 0x100 SWAP1 DIV PUSH1 0xFF AND ISZERO PUSH2 0x53C JUMPI DUP2 PUSH1 0xFF AND PUSH1 0x1 EQ DUP1 ISZERO PUSH2 0x518 JUMPI POP ADDRESS EXTCODESIZE ISZERO JUMPDEST PUSH2 0x534 JUMPI PUSH1 0x40 MLOAD PUSH3 0x461BCD PUSH1 0xE5 SHL DUP2 MSTORE PUSH1 0x4 ADD PUSH2 0x191 SWAP1 PUSH2 0x6A9 JUMP JUMPDEST POP PUSH1 0x0 SWAP2 SWAP1 POP JUMP JUMPDEST PUSH1 0x0 SLOAD PUSH1 0xFF DUP1 DUP5 AND SWAP2 AND LT PUSH2 0x563 JUMPI PUSH1 0x40 MLOAD PUSH3 0x461BCD PUSH1 0xE5 SHL DUP2 MSTORE PUSH1 0x4 ADD PUSH2 0x191 SWAP1 PUSH2 0x6A9 JUMP JUMPDEST POP PUSH1 0x0 DUP1 SLOAD PUSH1 0xFF NOT AND PUSH1 0xFF SWAP3 SWAP1 SWAP3 AND SWAP2 SWAP1 SWAP2 OR SWAP1 SSTORE PUSH1 0x1 SWAP1 JUMP JUMPDEST PUSH1 0x0 SLOAD PUSH2 0x100 SWAP1 DIV PUSH1 0xFF AND PUSH2 0x5A4 JUMPI PUSH1 0x40 MLOAD PUSH3 0x461BCD PUSH1 0xE5 SHL DUP2 MSTORE PUSH1 0x4 ADD PUSH2 0x191 SWAP1 PUSH2 0x6F7 JUMP JUMPDEST PUSH2 0x21A PUSH1 0x0 SLOAD PUSH2 0x100 SWAP1 DIV PUSH1 0xFF AND PUSH2 0x5CE JUMPI PUSH1 0x40 MLOAD PUSH3 0x461BCD PUSH1 0xE5 SHL DUP2 MSTORE PUSH1 0x4 ADD PUSH2 0x191 SWAP1 PUSH2 0x6F7 JUMP JUMPDEST PUSH2 0x21A CALLER PUSH2 0x4A3 JUMP JUMPDEST PUSH1 0x1 PUSH1 0x1 PUSH1 0xA0 SHL SUB DUP2 AND DUP2 EQ PUSH2 0x4A0 JUMPI PUSH1 0x0 DUP1 REVERT JUMPDEST PUSH1 0x0 PUSH1 0x20 DUP3 DUP5 SUB SLT ISZERO PUSH2 0x5FE JUMPI PUSH1 0x0 DUP1 REVERT JUMPDEST DUP2 CALLDATALOAD PUSH2 0x609 DUP2 PUSH2 0x5D7 JUMP JUMPDEST SWAP4 SWAP3 POP POP POP JUMP JUMPDEST PUSH1 0x0 DUP1 PUSH1 0x0 PUSH1 0x60 DUP5 DUP7 SUB SLT ISZERO PUSH2 0x625 JUMPI PUSH1 0x0 DUP1 REVERT JUMPDEST DUP4 CALLDATALOAD PUSH2 0x630 DUP2 PUSH2 0x5D7 JUMP JUMPDEST SWAP3 POP PUSH1 0x20 DUP5 ADD CALLDATALOAD PUSH2 0x640 DUP2 PUSH2 0x5D7 JUMP JUMPDEST SWAP2 POP PUSH1 0x40 DUP5 ADD CALLDATALOAD PUSH2 0x650 DUP2 PUSH2 0x5D7 JUMP JUMPDEST DUP1 SWAP2 POP POP SWAP3 POP SWAP3 POP SWAP3 JUMP JUMPDEST PUSH1 0x20 DUP1 DUP3 MSTORE DUP2 DUP2 ADD MSTORE PUSH32 0x4F776E61626C653A2063616C6C6572206973206E6F7420746865206F776E6572 PUSH1 0x40 DUP3 ADD MSTORE PUSH1 0x60 ADD SWAP1 JUMP JUMPDEST PUSH1 0x0 PUSH1 0x20 DUP3 DUP5 SUB SLT ISZERO PUSH2 0x6A2 JUMPI PUSH1 0x0 DUP1 REVERT JUMPDEST POP MLOAD SWAP2 SWAP1 POP JUMP JUMPDEST PUSH1 0x20 DUP1 DUP3 MSTORE PUSH1 0x2E SWAP1 DUP3 ADD MSTORE PUSH32 0x496E697469616C697A61626C653A20636F6E747261637420697320616C726561 PUSH1 0x40 DUP3 ADD MSTORE PUSH14 0x191E481A5B9A5D1A585B1A5E9959 PUSH1 0x92 SHL PUSH1 0x60 DUP3 ADD MSTORE PUSH1 0x80 ADD SWAP1 JUMP JUMPDEST PUSH1 0x20 DUP1 DUP3 MSTORE PUSH1 0x2B SWAP1 DUP3 ADD MSTORE PUSH32 0x496E697469616C697A61626C653A20636F6E7472616374206973206E6F742069 PUSH1 0x40 DUP3 ADD MSTORE PUSH11 0x6E697469616C697A696E67 PUSH1 0xA8 SHL PUSH1 0x60 DUP3 ADD MSTORE PUSH1 0x80 ADD SWAP1 JUMP INVALID LOG2 PUSH5 0x6970667358 0x22 SLT KECCAK256 0x26 GAS 0x4A PUSH32 0xD4B99E159243B08E233817CAE5EB549E35C63C850BD104F8C394A40664736F6C PUSH4 0x4300080D STOP CALLER "
				},
				"gasEstimates": {
					"creation": {
						"codeDepositCost": "382400",
						"executionCost": "418",
						"totalCost": "382818"
					},
					"external": {
						"TWAPOracle()": "2369",
						"alpaca()": "2325",
						"initialize(address,address,address)": "infinite",
						"owner()": "2408",
						"priceSetter()": "2326",
						"renounceOwnership()": "28184",
						"setPriceSetter(address)": "28269",
						"setValueFromTWAP()": "infinite",
						"transferOwnership(address)": "infinite",
						"xALPACACreditor()": "2348"
					}
				},
				"methodIdentifiers": {
					"TWAPOracle()": "cab0d816",
					"alpaca()": "94faab23",
					"initialize(address,address,address)": "c0c53b8b",
					"owner()": "8da5cb5b",
					"priceSetter()": "2c09bef7",
					"renounceOwnership()": "715018a6",
					"setPriceSetter(address)": "63791e3c",
					"setValueFromTWAP()": "d0b373b3",
					"transferOwnership(address)": "f2fde38b",
					"xALPACACreditor()": "34d29f05"
				}
			},
			"storageLayout": {
				"storage": [
					{
						"astId": 130,
						"contract": "contracts/xALPACAPriceSetter.sol:xALPACAPriceSetter",
						"label": "_initialized",
						"offset": 0,
						"slot": "0",
						"type": "t_uint8"
					},
					{
						"astId": 133,
						"contract": "contracts/xALPACAPriceSetter.sol:xALPACAPriceSetter",
						"label": "_initializing",
						"offset": 1,
						"slot": "0",
						"type": "t_bool"
					},
					{
						"astId": 549,
						"contract": "contracts/xALPACAPriceSetter.sol:xALPACAPriceSetter",
						"label": "__gap",
						"offset": 0,
						"slot": "1",
						"type": "t_array(t_uint256)50_storage"
					},
					{
						"astId": 10,
						"contract": "contracts/xALPACAPriceSetter.sol:xALPACAPriceSetter",
						"label": "_owner",
						"offset": 0,
						"slot": "51",
						"type": "t_address"
					},
					{
						"astId": 122,
						"contract": "contracts/xALPACAPriceSetter.sol:xALPACAPriceSetter",
						"label": "__gap",
						"offset": 0,
						"slot": "52",
						"type": "t_array(t_uint256)49_storage"
					},
					{
						"astId": 613,
						"contract": "contracts/xALPACAPriceSetter.sol:xALPACAPriceSetter",
						"label": "xALPACACreditor",
						"offset": 0,
						"slot": "101",
						"type": "t_contract(IxALPACACreditor)585"
					},
					{
						"astId": 616,
						"contract": "contracts/xALPACAPriceSetter.sol:xALPACAPriceSetter",
						"label": "TWAPOracle",
						"offset": 0,
						"slot": "102",
						"type": "t_contract(ITWAPOracle)560"
					},
					{
						"astId": 618,
						"contract": "contracts/xALPACAPriceSetter.sol:xALPACAPriceSetter",
						"label": "alpaca",
						"offset": 0,
						"slot": "103",
						"type": "t_address"
					},
					{
						"astId": 620,
						"contract": "contracts/xALPACAPriceSetter.sol:xALPACAPriceSetter",
						"label": "priceSetter",
						"offset": 0,
						"slot": "104",
						"type": "t_address"
					}
				],
				"types": {
					"t_address": {
						"encoding": "inplace",
						"label": "address",
						"numberOfBytes": "20"
					},
					"t_array(t_uint256)49_storage": {
						"base": "t_uint256",
						"encoding": "inplace",
						"label": "uint256[49]",
						"numberOfBytes": "1568"
					},
					"t_array(t_uint256)50_storage": {
						"base": "t_uint256",
						"encoding": "inplace",
						"label": "uint256[50]",
						"numberOfBytes": "1600"
					},
					"t_bool": {
						"encoding": "inplace",
						"label": "bool",
						"numberOfBytes": "1"
					},
					"t_contract(ITWAPOracle)560": {
						"encoding": "inplace",
						"label": "contract ITWAPOracle",
						"numberOfBytes": "20"
					},
					"t_contract(IxALPACACreditor)585": {
						"encoding": "inplace",
						"label": "contract IxALPACACreditor",
						"numberOfBytes": "20"
					},
					"t_uint256": {
						"encoding": "inplace",
						"label": "uint256",
						"numberOfBytes": "32"
					},
					"t_uint8": {
						"encoding": "inplace",
						"label": "uint8",
						"numberOfBytes": "1"
					}
				}
			},
			"userdoc": {
				"kind": "user",
				"methods": {
					"initialize(address,address,address)": {
						"notice": "Initialize xALPACAPriceSetter"
					},
					"setValueFromTWAP()": {
						"notice": "Set ALPACA Value (TWAP) as xALPACA Value"
					}
				},
				"version": 1
			}
		}
	}
}