{
	"contracts/xALPACACreditor.sol": {
		"xALPACACreditor": {
			"abi": [
				{
					"inputs": [],
					"stateMutability": "nonpayable",
					"type": "constructor"
				},
				{
					"inputs": [],
					"name": "xALPACACreditor_Unauthorize",
					"type": "error"
				},
				{
					"inputs": [],
					"name": "xALPACACreditor_ValueTooHigh",
					"type": "error"
				},
				{
					"anonymous": false,
					"inputs": [
						{
							"indexed": false,
							"internalType": "uint8",
							"name": "version",
							"type": "uint8"
						}
					],
					"name": "Initialized",
					"type": "event"
				},
				{
					"anonymous": false,
					"inputs": [
						{
							"indexed": true,
							"internalType": "address",
							"name": "_caller",
							"type": "address"
						},
						{
							"indexed": false,
							"internalType": "uint256",
							"name": "_oldValuePerxALPACA",
							"type": "uint256"
						},
						{
							"indexed": false,
							"internalType": "uint256",
							"name": "_newValuePerxALPACA",
							"type": "uint256"
						}
					],
					"name": "LogSetValuePerxALPACA",
					"type": "event"
				},
				{
					"anonymous": false,
					"inputs": [
						{
							"indexed": true,
							"internalType": "address",
							"name": "_caller",
							"type": "address"
						},
						{
							"indexed": true,
							"internalType": "address",
							"name": "_valueSetter",
							"type": "address"
						}
					],
					"name": "LogSetValueSetter",
					"type": "event"
				},
				{
					"anonymous": false,
					"inputs": [
						{
							"indexed": true,
							"internalType": "address",
							"name": "previousOwner",
							"type": "address"
						},
						{
							"indexed": true,
							"internalType": "address",
							"name": "newOwner",
							"type": "address"
						}
					],
					"name": "OwnershipTransferred",
					"type": "event"
				},
				{
					"inputs": [
						{
							"internalType": "address",
							"name": "_user",
							"type": "address"
						}
					],
					"name": "getUserCredit",
					"outputs": [
						{
							"internalType": "uint256",
							"name": "",
							"type": "uint256"
						}
					],
					"stateMutability": "view",
					"type": "function"
				},
				{
					"inputs": [
						{
							"internalType": "contract IxALPACA",
							"name": "_xALPACA",
							"type": "address"
						},
						{
							"internalType": "uint256",
							"name": "_valuePerxALPACA",
							"type": "uint256"
						}
					],
					"name": "initialize",
					"outputs": [],
					"stateMutability": "nonpayable",
					"type": "function"
				},
				{
					"inputs": [],
					"name": "owner",
					"outputs": [
						{
							"internalType": "address",
							"name": "",
							"type": "address"
						}
					],
					"stateMutability": "view",
					"type": "function"
				},
				{
					"inputs": [],
					"name": "renounceOwnership",
					"outputs": [],
					"stateMutability": "nonpayable",
					"type": "function"
				},
				{
					"inputs": [
						{
							"internalType": "uint256",
							"name": "_newValuePerxALPACA",
							"type": "uint256"
						}
					],
					"name": "setValuePerxALPACA",
					"outputs": [],
					"stateMutability": "nonpayable",
					"type": "function"
				},
				{
					"inputs": [
						{
							"internalType": "address",
							"name": "_newValueSetter",
							"type": "address"
						}
					],
					"name": "setValueSetter",
					"outputs": [],
					"stateMutability": "nonpayable",
					"type": "function"
				},
				{
					"inputs": [
						{
							"internalType": "address",
							"name": "newOwner",
							"type": "address"
						}
					],
					"name": "transferOwnership",
					"outputs": [],
					"stateMutability": "nonpayable",
					"type": "function"
				},
				{
					"inputs": [],
					"name": "valuePerxALPACA",
					"outputs": [
						{
							"internalType": "uint256",
							"name": "",
							"type": "uint256"
						}
					],
					"stateMutability": "view",
					"type": "function"
				},
				{
					"inputs": [],
					"name": "valueSetter",
					"outputs": [
						{
							"internalType": "address",
							"name": "",
							"type": "address"
						}
					],
					"stateMutability": "view",
					"type": "function"
				},
				{
					"inputs": [],
					"name": "xALPACA",
					"outputs": [
						{
							"internalType": "contract IxALPACA",
							"name": "",
							"type": "address"
						}
					],
					"stateMutability": "view",
					"type": "function"
				}
			],
			"devdoc": {
				"kind": "dev",
				"methods": {
					"getUserCredit(address)": {
						"params": {
							"_user": "address of user."
						},
						"returns": {
							"_0": "user's credit in USD value"
						}
					},
					"initialize(address,uint256)": {
						"params": {
							"_valuePerxALPACA": "USD value per 1 xALPACA",
							"_xALPACA": "xALPACA."
						}
					},
					"owner()": {
						"details": "Returns the address of the current owner."
					},
					"renounceOwnership()": {
						"details": "Leaves the contract without owner. It will not be possible to call `onlyOwner` functions anymore. Can only be called by the current owner. NOTE: Renouncing ownership will leave the contract without an owner, thereby removing any functionality that is only available to the owner."
					},
					"setValuePerxALPACA(uint256)": {
						"params": {
							"_newValuePerxALPACA": "new value to be set."
						}
					},
					"transferOwnership(address)": {
						"details": "Transfers ownership of the contract to a new account (`newOwner`). Can only be called by the current owner."
					}
				},
				"title": "xALPACACreditor - Assess credit of user per xALPACA that user's holding",
				"version": 1
			},
			"evm": {
				"assembly": "    /* \"contracts/xALPACACreditor.sol\":578:2537  contract xALPACACreditor is OwnableUpgradeable, ICreditor {... */\n  mstore(0x40, 0x80)\n    /* \"contracts/xALPACACreditor.sol\":1083:1111  constructor() initializer {} */\n  callvalue\n  dup1\n  iszero\n  tag_1\n  jumpi\n  0x00\n  dup1\n  revert\ntag_1:\n  pop\n    /* \"@openzeppelin/contracts-upgradeable/proxy/utils/Initializable.sol\":3111:3130  bool isTopLevelCall */\n  0x00\n    /* \"@openzeppelin/contracts-upgradeable/proxy/utils/Initializable.sol\":3133:3158  _setInitializedVersion(1) */\n  tag_4\n    /* \"@openzeppelin/contracts-upgradeable/proxy/utils/Initializable.sol\":3156:3157  1 */\n  0x01\n    /* \"@openzeppelin/contracts-upgradeable/proxy/utils/Initializable.sol\":3133:3155  _setInitializedVersion */\n  tag_5\n    /* \"@openzeppelin/contracts-upgradeable/proxy/utils/Initializable.sol\":3133:3158  _setInitializedVersion(1) */\n  jump\t// in\ntag_4:\n    /* \"@openzeppelin/contracts-upgradeable/proxy/utils/Initializable.sol\":3111:3158  bool isTopLevelCall = _setInitializedVersion(1) */\n  swap1\n  pop\n    /* \"@openzeppelin/contracts-upgradeable/proxy/utils/Initializable.sol\":3172:3186  isTopLevelCall */\n  dup1\n    /* \"@openzeppelin/contracts-upgradeable/proxy/utils/Initializable.sol\":3168:3233  if (isTopLevelCall) {... */\n  iszero\n  tag_6\n  jumpi\n    /* \"@openzeppelin/contracts-upgradeable/proxy/utils/Initializable.sol\":3202:3215  _initializing */\n  0x00\n    /* \"@openzeppelin/contracts-upgradeable/proxy/utils/Initializable.sol\":3202:3222  _initializing = true */\n  dup1\n  sload\n  not(0xff00)\n  and\n  0x0100\n  or\n  swap1\n  sstore\n    /* \"@openzeppelin/contracts-upgradeable/proxy/utils/Initializable.sol\":3168:3233  if (isTopLevelCall) {... */\ntag_6:\n    /* \"@openzeppelin/contracts-upgradeable/proxy/utils/Initializable.sol\":3257:3271  isTopLevelCall */\n  dup1\n    /* \"@openzeppelin/contracts-upgradeable/proxy/utils/Initializable.sol\":3253:3352  if (isTopLevelCall) {... */\n  iszero\n  tag_8\n  jumpi\n    /* \"@openzeppelin/contracts-upgradeable/proxy/utils/Initializable.sol\":3303:3308  false */\n  0x00\n    /* \"@openzeppelin/contracts-upgradeable/proxy/utils/Initializable.sol\":3287:3308  _initializing = false */\n  dup1\n  sload\n  not(0xff00)\n  and\n  swap1\n  sstore\n    /* \"@openzeppelin/contracts-upgradeable/proxy/utils/Initializable.sol\":3327:3341  Initialized(1) */\n  mload(0x40)\n  0x01\n    /* \"#utility.yul\":166:202   */\n  dup2\n  mstore\n    /* \"@openzeppelin/contracts-upgradeable/proxy/utils/Initializable.sol\":3327:3341  Initialized(1) */\n  0x7f26b83ff96e1f2b6a682f133852f6798a09c465da95921460cefb3847402498\n  swap1\n    /* \"#utility.yul\":154:156   */\n  0x20\n    /* \"#utility.yul\":139:157   */\n  add\n    /* \"@openzeppelin/contracts-upgradeable/proxy/utils/Initializable.sol\":3327:3341  Initialized(1) */\n  mload(0x40)\n  dup1\n  swap2\n  sub\n  swap1\n  log1\n    /* \"@openzeppelin/contracts-upgradeable/proxy/utils/Initializable.sol\":3253:3352  if (isTopLevelCall) {... */\ntag_8:\n    /* \"@openzeppelin/contracts-upgradeable/proxy/utils/Initializable.sol\":3101:3358  {... */\n  pop\n    /* \"contracts/xALPACACreditor.sol\":578:2537  contract xALPACACreditor is OwnableUpgradeable, ICreditor {... */\n  jump(tag_24)\n    /* \"@openzeppelin/contracts-upgradeable/proxy/utils/Initializable.sol\":5287:6095  function _setInitializedVersion(uint8 version) private returns (bool) {... */\ntag_5:\n    /* \"@openzeppelin/contracts-upgradeable/proxy/utils/Initializable.sol\":5351:5355  bool */\n  0x00\n    /* \"@openzeppelin/contracts-upgradeable/proxy/utils/Initializable.sol\":5684:5697  _initializing */\n  dup1\n  sload\n  0x0100\n  swap1\n  div\n  0xff\n  and\n    /* \"@openzeppelin/contracts-upgradeable/proxy/utils/Initializable.sol\":5680:6089  if (_initializing) {... */\n  iszero\n  tag_13\n  jumpi\n    /* \"@openzeppelin/contracts-upgradeable/proxy/utils/Initializable.sol\":5738:5745  version */\n  dup2\n    /* \"@openzeppelin/contracts-upgradeable/proxy/utils/Initializable.sol\":5738:5750  version == 1 */\n  0xff\n  and\n    /* \"@openzeppelin/contracts-upgradeable/proxy/utils/Initializable.sol\":5749:5750  1 */\n  0x01\n    /* \"@openzeppelin/contracts-upgradeable/proxy/utils/Initializable.sol\":5738:5750  version == 1 */\n  eq\n    /* \"@openzeppelin/contracts-upgradeable/proxy/utils/Initializable.sol\":5738:5799  version == 1 && !AddressUpgradeable.isContract(address(this)) */\n  dup1\n  iszero\n  tag_14\n  jumpi\n  pop\n    /* \"@openzeppelin/contracts-upgradeable/proxy/utils/Initializable.sol\":5755:5799  AddressUpgradeable.isContract(address(this)) */\n  tag_15\n    /* \"@openzeppelin/contracts-upgradeable/proxy/utils/Initializable.sol\":5793:5797  this */\n  address\n    /* \"@openzeppelin/contracts-upgradeable/proxy/utils/Initializable.sol\":5755:5784  AddressUpgradeable.isContract */\n  or(tag_0_50, shl(0x20, tag_16))\n    /* \"@openzeppelin/contracts-upgradeable/proxy/utils/Initializable.sol\":5755:5799  AddressUpgradeable.isContract(address(this)) */\n  0x20\n  shr\n  jump\t// in\ntag_15:\n    /* \"@openzeppelin/contracts-upgradeable/proxy/utils/Initializable.sol\":5754:5799  !AddressUpgradeable.isContract(address(this)) */\n  iszero\n    /* \"@openzeppelin/contracts-upgradeable/proxy/utils/Initializable.sol\":5738:5799  version == 1 && !AddressUpgradeable.isContract(address(this)) */\ntag_14:\n    /* \"@openzeppelin/contracts-upgradeable/proxy/utils/Initializable.sol\":5713:5879  require(... */\n  tag_17\n  jumpi\n  mload(0x40)\n  shl(0xe5, 0x461bcd)\n  dup2\n  mstore\n    /* \"#utility.yul\":415:417   */\n  0x20\n    /* \"@openzeppelin/contracts-upgradeable/proxy/utils/Initializable.sol\":5713:5879  require(... */\n  0x04\n  dup3\n  add\n    /* \"#utility.yul\":397:418   */\n  mstore\n    /* \"#utility.yul\":454:456   */\n  0x2e\n    /* \"#utility.yul\":434:452   */\n  0x24\n  dup3\n  add\n    /* \"#utility.yul\":427:457   */\n  mstore\n  0x00\n  dup1\n  mload\n  0x20\n  data_1e93930c6875183d88cd66e10df1f1e695d60226ff9068840c89b95f525592b2\n  dup4\n  codecopy\n  dup2\n  mload\n  swap2\n  mstore\n    /* \"#utility.yul\":473:491   */\n  0x44\n  dup3\n  add\n    /* \"#utility.yul\":466:528   */\n  mstore\n  shl(0x92, 0x191e481a5b9a5d1a585b1a5e9959)\n    /* \"#utility.yul\":544:562   */\n  0x64\n  dup3\n  add\n    /* \"#utility.yul\":537:581   */\n  mstore\n    /* \"#utility.yul\":598:617   */\n  0x84\n  add\n    /* \"@openzeppelin/contracts-upgradeable/proxy/utils/Initializable.sol\":5713:5879  require(... */\ntag_18:\n  mload(0x40)\n  dup1\n  swap2\n  sub\n  swap1\n  revert\ntag_17:\n  pop\n    /* \"@openzeppelin/contracts-upgradeable/proxy/utils/Initializable.sol\":5900:5905  false */\n  0x00\n  swap2\n    /* \"@openzeppelin/contracts-upgradeable/proxy/utils/Initializable.sol\":5287:6095  function _setInitializedVersion(uint8 version) private returns (bool) {... */\n  swap1\n  pop\n  jump\t// out\n    /* \"@openzeppelin/contracts-upgradeable/proxy/utils/Initializable.sol\":5680:6089  if (_initializing) {... */\ntag_13:\n    /* \"@openzeppelin/contracts-upgradeable/proxy/utils/Initializable.sol\":5944:5956  _initialized */\n  sload(0x00)\n    /* \"@openzeppelin/contracts-upgradeable/proxy/utils/Initializable.sol\":5944:5966  _initialized < version */\n  0xff\n  dup1\n  dup5\n  and\n    /* \"@openzeppelin/contracts-upgradeable/proxy/utils/Initializable.sol\":5944:5956  _initialized */\n  swap2\n  and\n    /* \"@openzeppelin/contracts-upgradeable/proxy/utils/Initializable.sol\":5944:5966  _initialized < version */\n  lt\n    /* \"@openzeppelin/contracts-upgradeable/proxy/utils/Initializable.sol\":5936:6017  require(_initialized < version, \"Initializable: contract is already initialized\") */\n  tag_21\n  jumpi\n  mload(0x40)\n  shl(0xe5, 0x461bcd)\n  dup2\n  mstore\n    /* \"#utility.yul\":415:417   */\n  0x20\n    /* \"@openzeppelin/contracts-upgradeable/proxy/utils/Initializable.sol\":5936:6017  require(_initialized < version, \"Initializable: contract is already initialized\") */\n  0x04\n  dup3\n  add\n    /* \"#utility.yul\":397:418   */\n  mstore\n    /* \"#utility.yul\":454:456   */\n  0x2e\n    /* \"#utility.yul\":434:452   */\n  0x24\n  dup3\n  add\n    /* \"#utility.yul\":427:457   */\n  mstore\n  0x00\n  dup1\n  mload\n  0x20\n  data_1e93930c6875183d88cd66e10df1f1e695d60226ff9068840c89b95f525592b2\n  dup4\n  codecopy\n  dup2\n  mload\n  swap2\n  mstore\n    /* \"#utility.yul\":473:491   */\n  0x44\n  dup3\n  add\n    /* \"#utility.yul\":466:528   */\n  mstore\n  shl(0x92, 0x191e481a5b9a5d1a585b1a5e9959)\n    /* \"#utility.yul\":544:562   */\n  0x64\n  dup3\n  add\n    /* \"#utility.yul\":537:581   */\n  mstore\n    /* \"#utility.yul\":598:617   */\n  0x84\n  add\n    /* \"@openzeppelin/contracts-upgradeable/proxy/utils/Initializable.sol\":5936:6017  require(_initialized < version, \"Initializable: contract is already initialized\") */\n  tag_18\n    /* \"#utility.yul\":213:623   */\n  jump\n    /* \"@openzeppelin/contracts-upgradeable/proxy/utils/Initializable.sol\":5936:6017  require(_initialized < version, \"Initializable: contract is already initialized\") */\ntag_21:\n  pop\n    /* \"@openzeppelin/contracts-upgradeable/proxy/utils/Initializable.sol\":6031:6043  _initialized */\n  0x00\n    /* \"@openzeppelin/contracts-upgradeable/proxy/utils/Initializable.sol\":6031:6053  _initialized = version */\n  dup1\n  sload\n  not(0xff)\n  and\n  0xff\n  swap3\n  swap1\n  swap3\n  and\n  swap2\n  swap1\n  swap2\n  or\n  swap1\n  sstore\n  0x01\n  swap1\n    /* \"@openzeppelin/contracts-upgradeable/proxy/utils/Initializable.sol\":5287:6095  function _setInitializedVersion(uint8 version) private returns (bool) {... */\n  jump\t// out\n    /* \"@openzeppelin/contracts-upgradeable/utils/AddressUpgradeable.sol\":1186:1506  function isContract(address account) internal view returns (bool) {... */\ntag_16:\n  sub(shl(0xa0, 0x01), 0x01)\n    /* \"@openzeppelin/contracts-upgradeable/utils/AddressUpgradeable.sol\":1476:1495  account.code.length */\n  and\n  extcodesize\n    /* \"@openzeppelin/contracts-upgradeable/utils/AddressUpgradeable.sol\":1476:1499  account.code.length > 0 */\n  iszero\n  iszero\n  swap1\n    /* \"@openzeppelin/contracts-upgradeable/utils/AddressUpgradeable.sol\":1186:1506  function isContract(address account) internal view returns (bool) {... */\n  jump\t// out\n    /* \"#utility.yul\":213:623   */\ntag_24:\n    /* \"contracts/xALPACACreditor.sol\":578:2537  contract xALPACACreditor is OwnableUpgradeable, ICreditor {... */\n  dataSize(sub_0)\n  dup1\n  dataOffset(sub_0)\n  0x00\n  codecopy\n  0x00\n  return\nstop\ndata_1e93930c6875183d88cd66e10df1f1e695d60226ff9068840c89b95f525592b2 496e697469616c697a61626c653a20636f6e747261637420697320616c726561\n\nsub_0: assembly {\n        /* \"contracts/xALPACACreditor.sol\":578:2537  contract xALPACACreditor is OwnableUpgradeable, ICreditor {... */\n      mstore(0x40, 0x80)\n      callvalue\n      dup1\n      iszero\n      tag_1\n      jumpi\n      0x00\n      dup1\n      revert\n    tag_1:\n      pop\n      jumpi(tag_2, lt(calldatasize, 0x04))\n      shr(0xe0, calldataload(0x00))\n      dup1\n      0xb6df14ab\n      gt\n      tag_13\n      jumpi\n      dup1\n      0xb6df14ab\n      eq\n      tag_8\n      jumpi\n      dup1\n      0xcd6dc687\n      eq\n      tag_9\n      jumpi\n      dup1\n      0xcd946ba8\n      eq\n      tag_10\n      jumpi\n      dup1\n      0xdad6f0dc\n      eq\n      tag_11\n      jumpi\n      dup1\n      0xf2fde38b\n      eq\n      tag_12\n      jumpi\n      0x00\n      dup1\n      revert\n    tag_13:\n      dup1\n      0x2ba4f0a2\n      eq\n      tag_3\n      jumpi\n      dup1\n      0x715018a6\n      eq\n      tag_4\n      jumpi\n      dup1\n      0x7c5f6349\n      eq\n      tag_5\n      jumpi\n      dup1\n      0x8da5cb5b\n      eq\n      tag_6\n      jumpi\n      dup1\n      0xb224f9bb\n      eq\n      tag_7\n      jumpi\n    tag_2:\n      0x00\n      dup1\n      revert\n        /* \"contracts/xALPACACreditor.sol\":1015:1045  uint256 public valuePerxALPACA */\n    tag_3:\n      tag_14\n      sload(0x66)\n      dup2\n      jump\n    tag_14:\n      mload(0x40)\n        /* \"#utility.yul\":160:185   */\n      swap1\n      dup2\n      mstore\n        /* \"#utility.yul\":148:150   */\n      0x20\n        /* \"#utility.yul\":133:151   */\n      add\n        /* \"contracts/xALPACACreditor.sol\":1015:1045  uint256 public valuePerxALPACA */\n    tag_16:\n      mload(0x40)\n      dup1\n      swap2\n      sub\n      swap1\n      return\n        /* \"@openzeppelin/contracts-upgradeable/access/OwnableUpgradeable.sol\":1908:2009  function renounceOwnership() public virtual onlyOwner {... */\n    tag_4:\n      tag_18\n      tag_19\n      jump\t// in\n    tag_18:\n      stop\n        /* \"contracts/xALPACACreditor.sol\":1050:1076  address public valueSetter */\n    tag_5:\n      sload(0x67)\n      tag_20\n      swap1\n      sub(shl(0xa0, 0x01), 0x01)\n      and\n      dup2\n      jump\n    tag_20:\n      mload(0x40)\n      sub(shl(0xa0, 0x01), 0x01)\n        /* \"#utility.yul\":360:392   */\n      swap1\n      swap2\n      and\n        /* \"#utility.yul\":342:393   */\n      dup2\n      mstore\n        /* \"#utility.yul\":330:332   */\n      0x20\n        /* \"#utility.yul\":315:333   */\n      add\n        /* \"contracts/xALPACACreditor.sol\":1050:1076  address public valueSetter */\n      tag_16\n        /* \"#utility.yul\":196:399   */\n      jump\n        /* \"@openzeppelin/contracts-upgradeable/access/OwnableUpgradeable.sol\":1276:1361  function owner() public view virtual returns (address) {... */\n    tag_6:\n        /* \"@openzeppelin/contracts-upgradeable/access/OwnableUpgradeable.sol\":1348:1354  _owner */\n      and(sub(shl(0xa0, 0x01), 0x01), sload(0x33))\n        /* \"@openzeppelin/contracts-upgradeable/access/OwnableUpgradeable.sol\":1276:1361  function owner() public view virtual returns (address) {... */\n      jump(tag_20)\n        /* \"contracts/xALPACACreditor.sol\":987:1010  IxALPACA public xALPACA */\n    tag_7:\n      sload(0x65)\n      tag_20\n      swap1\n      sub(shl(0xa0, 0x01), 0x01)\n      and\n      dup2\n      jump\n        /* \"contracts/xALPACACreditor.sol\":1816:1984  function setValueSetter(address _newValueSetter) external onlyOwner {... */\n    tag_8:\n      tag_18\n      tag_32\n      calldatasize\n      0x04\n      tag_33\n      jump\t// in\n    tag_32:\n      tag_34\n      jump\t// in\n        /* \"contracts/xALPACACreditor.sol\":1246:1502  function initialize(IxALPACA _xALPACA, uint256 _valuePerxALPACA) external initializer {... */\n    tag_9:\n      tag_18\n      tag_36\n      calldatasize\n      0x04\n      tag_37\n      jump\t// in\n    tag_36:\n      tag_38\n      jump\t// in\n        /* \"contracts/xALPACACreditor.sol\":2086:2534  function setValuePerxALPACA(uint256 _newValuePerxALPACA) external {... */\n    tag_10:\n      tag_18\n      tag_40\n      calldatasize\n      0x04\n      tag_41\n      jump\t// in\n    tag_40:\n      tag_42\n      jump\t// in\n        /* \"contracts/xALPACACreditor.sol\":1633:1774  function getUserCredit(address _user) external view returns (uint256) {... */\n    tag_11:\n      tag_14\n      tag_44\n      calldatasize\n      0x04\n      tag_33\n      jump\t// in\n    tag_44:\n      tag_45\n      jump\t// in\n        /* \"@openzeppelin/contracts-upgradeable/access/OwnableUpgradeable.sol\":2158:2356  function transferOwnership(address newOwner) public virtual onlyOwner {... */\n    tag_12:\n      tag_18\n      tag_48\n      calldatasize\n      0x04\n      tag_33\n      jump\t// in\n    tag_48:\n      tag_49\n      jump\t// in\n        /* \"@openzeppelin/contracts-upgradeable/access/OwnableUpgradeable.sol\":1908:2009  function renounceOwnership() public virtual onlyOwner {... */\n    tag_19:\n        /* \"@openzeppelin/contracts-upgradeable/access/OwnableUpgradeable.sol\":1348:1354  _owner */\n      and(sub(shl(0xa0, 0x01), 0x01), sload(0x33))\n        /* \"@openzeppelin/contracts-upgradeable/utils/ContextUpgradeable.sol\":929:939  msg.sender */\n      caller\n        /* \"@openzeppelin/contracts-upgradeable/access/OwnableUpgradeable.sol\":1488:1511  owner() == _msgSender() */\n      eq\n        /* \"@openzeppelin/contracts-upgradeable/access/OwnableUpgradeable.sol\":1480:1548  require(owner() == _msgSender(), \"Ownable: caller is not the owner\") */\n      tag_55\n      jumpi\n      mload(0x40)\n      shl(0xe5, 0x461bcd)\n      dup2\n      mstore\n      0x04\n      add\n      tag_56\n      swap1\n      tag_57\n      jump\t// in\n    tag_56:\n      mload(0x40)\n      dup1\n      swap2\n      sub\n      swap1\n      revert\n    tag_55:\n        /* \"@openzeppelin/contracts-upgradeable/access/OwnableUpgradeable.sol\":1972:2002  _transferOwnership(address(0)) */\n      tag_59\n        /* \"@openzeppelin/contracts-upgradeable/access/OwnableUpgradeable.sol\":1999:2000  0 */\n      0x00\n        /* \"@openzeppelin/contracts-upgradeable/access/OwnableUpgradeable.sol\":1972:1990  _transferOwnership */\n      tag_60\n        /* \"@openzeppelin/contracts-upgradeable/access/OwnableUpgradeable.sol\":1972:2002  _transferOwnership(address(0)) */\n      jump\t// in\n    tag_59:\n        /* \"@openzeppelin/contracts-upgradeable/access/OwnableUpgradeable.sol\":1908:2009  function renounceOwnership() public virtual onlyOwner {... */\n      jump\t// out\n        /* \"contracts/xALPACACreditor.sol\":1816:1984  function setValueSetter(address _newValueSetter) external onlyOwner {... */\n    tag_34:\n        /* \"@openzeppelin/contracts-upgradeable/access/OwnableUpgradeable.sol\":1348:1354  _owner */\n      and(sub(shl(0xa0, 0x01), 0x01), sload(0x33))\n        /* \"@openzeppelin/contracts-upgradeable/utils/ContextUpgradeable.sol\":929:939  msg.sender */\n      caller\n        /* \"@openzeppelin/contracts-upgradeable/access/OwnableUpgradeable.sol\":1488:1511  owner() == _msgSender() */\n      eq\n        /* \"@openzeppelin/contracts-upgradeable/access/OwnableUpgradeable.sol\":1480:1548  require(owner() == _msgSender(), \"Ownable: caller is not the owner\") */\n      tag_65\n      jumpi\n      mload(0x40)\n      shl(0xe5, 0x461bcd)\n      dup2\n      mstore\n      0x04\n      add\n      tag_56\n      swap1\n      tag_57\n      jump\t// in\n    tag_65:\n        /* \"contracts/xALPACACreditor.sol\":1891:1902  valueSetter */\n      0x67\n        /* \"contracts/xALPACACreditor.sol\":1891:1920  valueSetter = _newValueSetter */\n      dup1\n      sload\n      not(sub(shl(0xa0, 0x01), 0x01))\n      and\n      sub(shl(0xa0, 0x01), 0x01)\n      dup4\n      and\n      swap1\n      dup2\n      or\n      swap1\n      swap2\n      sstore\n        /* \"contracts/xALPACACreditor.sol\":1932:1978  LogSetValueSetter(msg.sender, _newValueSetter) */\n      mload(0x40)\n        /* \"contracts/xALPACACreditor.sol\":1950:1960  msg.sender */\n      caller\n      swap1\n        /* \"contracts/xALPACACreditor.sol\":1932:1978  LogSetValueSetter(msg.sender, _newValueSetter) */\n      0x143756cbf499512428f05e75fac99a3a9b4bdce5c2254e99f2fbc2a75b75e505\n      swap1\n      0x00\n      swap1\n      log3\n        /* \"contracts/xALPACACreditor.sol\":1816:1984  function setValueSetter(address _newValueSetter) external onlyOwner {... */\n      pop\n      jump\t// out\n        /* \"contracts/xALPACACreditor.sol\":1246:1502  function initialize(IxALPACA _xALPACA, uint256 _valuePerxALPACA) external initializer {... */\n    tag_38:\n        /* \"@openzeppelin/contracts-upgradeable/proxy/utils/Initializable.sol\":3111:3130  bool isTopLevelCall */\n      0x00\n        /* \"@openzeppelin/contracts-upgradeable/proxy/utils/Initializable.sol\":3133:3158  _setInitializedVersion(1) */\n      tag_69\n        /* \"@openzeppelin/contracts-upgradeable/proxy/utils/Initializable.sol\":3156:3157  1 */\n      0x01\n        /* \"@openzeppelin/contracts-upgradeable/proxy/utils/Initializable.sol\":3133:3155  _setInitializedVersion */\n      tag_70\n        /* \"@openzeppelin/contracts-upgradeable/proxy/utils/Initializable.sol\":3133:3158  _setInitializedVersion(1) */\n      jump\t// in\n    tag_69:\n        /* \"@openzeppelin/contracts-upgradeable/proxy/utils/Initializable.sol\":3111:3158  bool isTopLevelCall = _setInitializedVersion(1) */\n      swap1\n      pop\n        /* \"@openzeppelin/contracts-upgradeable/proxy/utils/Initializable.sol\":3172:3186  isTopLevelCall */\n      dup1\n        /* \"@openzeppelin/contracts-upgradeable/proxy/utils/Initializable.sol\":3168:3233  if (isTopLevelCall) {... */\n      iszero\n      tag_71\n      jumpi\n        /* \"@openzeppelin/contracts-upgradeable/proxy/utils/Initializable.sol\":3202:3215  _initializing */\n      0x00\n        /* \"@openzeppelin/contracts-upgradeable/proxy/utils/Initializable.sol\":3202:3222  _initializing = true */\n      dup1\n      sload\n      not(0xff00)\n      and\n      0x0100\n      or\n      swap1\n      sstore\n        /* \"@openzeppelin/contracts-upgradeable/proxy/utils/Initializable.sol\":3168:3233  if (isTopLevelCall) {... */\n    tag_71:\n        /* \"contracts/xALPACACreditor.sol\":1360:1368  _xALPACA */\n      dup3\n      sub(shl(0xa0, 0x01), 0x01)\n        /* \"contracts/xALPACACreditor.sol\":1360:1374  _xALPACA.epoch */\n      and\n      0x900cf0cf\n        /* \"contracts/xALPACACreditor.sol\":1360:1376  _xALPACA.epoch() */\n      mload(0x40)\n      dup2\n      0xffffffff\n      and\n      0xe0\n      shl\n      dup2\n      mstore\n      0x04\n      add\n      0x20\n      mload(0x40)\n      dup1\n      dup4\n      sub\n      dup2\n      dup7\n      gas\n      staticcall\n      iszero\n      dup1\n      iszero\n      tag_74\n      jumpi\n      returndatasize\n      0x00\n      dup1\n      returndatacopy\n      revert(0x00, returndatasize)\n    tag_74:\n      pop\n      pop\n      pop\n      pop\n      mload(0x40)\n      returndatasize\n      not(0x1f)\n      0x1f\n      dup3\n      add\n      and\n      dup3\n      add\n      dup1\n      0x40\n      mstore\n      pop\n      dup2\n      add\n      swap1\n      tag_75\n      swap2\n      swap1\n      tag_76\n      jump\t// in\n    tag_75:\n      pop\n        /* \"contracts/xALPACACreditor.sol\":1385:1420  OwnableUpgradeable.__Ownable_init() */\n      tag_77\n        /* \"contracts/xALPACACreditor.sol\":1385:1418  OwnableUpgradeable.__Ownable_init */\n      tag_78\n        /* \"contracts/xALPACACreditor.sol\":1385:1420  OwnableUpgradeable.__Ownable_init() */\n      jump\t// in\n    tag_77:\n        /* \"contracts/xALPACACreditor.sol\":1427:1434  xALPACA */\n      0x65\n        /* \"contracts/xALPACACreditor.sol\":1427:1455  xALPACA = IxALPACA(_xALPACA) */\n      dup1\n      sload\n      not(sub(shl(0xa0, 0x01), 0x01))\n      and\n      sub(shl(0xa0, 0x01), 0x01)\n      dup6\n      and\n      or\n      swap1\n      sstore\n        /* \"contracts/xALPACACreditor.sol\":1462:1477  valuePerxALPACA */\n      0x66\n        /* \"contracts/xALPACACreditor.sol\":1462:1496  valuePerxALPACA = _valuePerxALPACA */\n      dup3\n      swap1\n      sstore\n        /* \"@openzeppelin/contracts-upgradeable/proxy/utils/Initializable.sol\":3253:3352  if (isTopLevelCall) {... */\n      dup1\n      iszero\n      tag_79\n      jumpi\n        /* \"@openzeppelin/contracts-upgradeable/proxy/utils/Initializable.sol\":3303:3308  false */\n      0x00\n        /* \"@openzeppelin/contracts-upgradeable/proxy/utils/Initializable.sol\":3287:3308  _initializing = false */\n      dup1\n      sload\n      not(0xff00)\n      and\n      swap1\n      sstore\n        /* \"@openzeppelin/contracts-upgradeable/proxy/utils/Initializable.sol\":3327:3341  Initialized(1) */\n      mload(0x40)\n      0x01\n        /* \"#utility.yul\":2239:2275   */\n      dup2\n      mstore\n        /* \"@openzeppelin/contracts-upgradeable/proxy/utils/Initializable.sol\":3327:3341  Initialized(1) */\n      0x7f26b83ff96e1f2b6a682f133852f6798a09c465da95921460cefb3847402498\n      swap1\n        /* \"#utility.yul\":2227:2229   */\n      0x20\n        /* \"#utility.yul\":2212:2230   */\n      add\n        /* \"@openzeppelin/contracts-upgradeable/proxy/utils/Initializable.sol\":3327:3341  Initialized(1) */\n      mload(0x40)\n      dup1\n      swap2\n      sub\n      swap1\n      log1\n        /* \"@openzeppelin/contracts-upgradeable/proxy/utils/Initializable.sol\":3253:3352  if (isTopLevelCall) {... */\n    tag_79:\n        /* \"@openzeppelin/contracts-upgradeable/proxy/utils/Initializable.sol\":3101:3358  {... */\n      pop\n        /* \"contracts/xALPACACreditor.sol\":1246:1502  function initialize(IxALPACA _xALPACA, uint256 _valuePerxALPACA) external initializer {... */\n      pop\n      pop\n      jump\t// out\n        /* \"contracts/xALPACACreditor.sol\":2086:2534  function setValuePerxALPACA(uint256 _newValuePerxALPACA) external {... */\n    tag_42:\n        /* \"contracts/xALPACACreditor.sol\":2177:2188  valueSetter */\n      and(sub(shl(0xa0, 0x01), 0x01), sload(0x67))\n        /* \"contracts/xALPACACreditor.sol\":2163:2173  msg.sender */\n      caller\n        /* \"contracts/xALPACACreditor.sol\":2163:2188  msg.sender != valueSetter */\n      eq\n        /* \"contracts/xALPACACreditor.sol\":2159:2243  if (msg.sender != valueSetter) {... */\n      tag_83\n      jumpi\n        /* \"contracts/xALPACACreditor.sol\":2206:2235  xALPACACreditor_Unauthorize() */\n      mload(0x40)\n      shl(0xe0, 0xd3e80f79)\n      dup2\n      mstore\n      0x04\n      add\n      mload(0x40)\n      dup1\n      swap2\n      sub\n      swap1\n      revert\n        /* \"contracts/xALPACACreditor.sol\":2159:2243  if (msg.sender != valueSetter) {... */\n    tag_83:\n        /* \"contracts/xALPACACreditor.sol\":2275:2286  1000 * 1e18 */\n      0x3635c9adc5dea00000\n        /* \"contracts/xALPACACreditor.sol\":2253:2272  _newValuePerxALPACA */\n      dup2\n        /* \"contracts/xALPACACreditor.sol\":2253:2286  _newValuePerxALPACA > 1000 * 1e18 */\n      gt\n        /* \"contracts/xALPACACreditor.sol\":2249:2342  if (_newValuePerxALPACA > 1000 * 1e18) {... */\n      iszero\n      tag_84\n      jumpi\n        /* \"contracts/xALPACACreditor.sol\":2304:2334  xALPACACreditor_ValueTooHigh() */\n      mload(0x40)\n      shl(0xe1, 0x074dedeb)\n      dup2\n      mstore\n      0x04\n      add\n      mload(0x40)\n      dup1\n      swap2\n      sub\n      swap1\n      revert\n        /* \"contracts/xALPACACreditor.sol\":2249:2342  if (_newValuePerxALPACA > 1000 * 1e18) {... */\n    tag_84:\n        /* \"contracts/xALPACACreditor.sol\":2380:2395  valuePerxALPACA */\n      0x66\n      dup1\n      sload\n        /* \"contracts/xALPACACreditor.sol\":2402:2439  valuePerxALPACA = _newValuePerxALPACA */\n      swap1\n      dup3\n      swap1\n      sstore\n        /* \"contracts/xALPACACreditor.sol\":2453:2528  LogSetValuePerxALPACA(msg.sender, _oldValuePerxALPACA, _newValuePerxALPACA) */\n      0x40\n      dup1\n      mload\n        /* \"#utility.yul\":2460:2485   */\n      dup3\n      dup2\n      mstore\n        /* \"#utility.yul\":2516:2518   */\n      0x20\n        /* \"#utility.yul\":2501:2519   */\n      dup2\n      add\n        /* \"#utility.yul\":2494:2528   */\n      dup5\n      swap1\n      mstore\n        /* \"contracts/xALPACACreditor.sol\":2475:2485  msg.sender */\n      caller\n      swap2\n        /* \"contracts/xALPACACreditor.sol\":2453:2528  LogSetValuePerxALPACA(msg.sender, _oldValuePerxALPACA, _newValuePerxALPACA) */\n      0xde8475cec749561c373d0a6dc945aeae0c2b5c44568c89322c9b449d2b7c9d12\n      swap2\n        /* \"#utility.yul\":2433:2451   */\n      add\n        /* \"contracts/xALPACACreditor.sol\":2453:2528  LogSetValuePerxALPACA(msg.sender, _oldValuePerxALPACA, _newValuePerxALPACA) */\n      mload(0x40)\n      dup1\n      swap2\n      sub\n      swap1\n      log2\n        /* \"contracts/xALPACACreditor.sol\":2152:2534  {... */\n      pop\n        /* \"contracts/xALPACACreditor.sol\":2086:2534  function setValuePerxALPACA(uint256 _newValuePerxALPACA) external {... */\n      pop\n      jump\t// out\n        /* \"contracts/xALPACACreditor.sol\":1633:1774  function getUserCredit(address _user) external view returns (uint256) {... */\n    tag_45:\n        /* \"contracts/xALPACACreditor.sol\":1745:1760  valuePerxALPACA */\n      sload(0x66)\n        /* \"contracts/xALPACACreditor.sol\":1718:1725  xALPACA */\n      sload(0x65)\n        /* \"contracts/xALPACACreditor.sol\":1718:1742  xALPACA.balanceOf(_user) */\n      mload(0x40)\n      shl(0xe0, 0x70a08231)\n      dup2\n      mstore\n      sub(shl(0xa0, 0x01), 0x01)\n        /* \"#utility.yul\":360:392   */\n      dup5\n      dup2\n      and\n        /* \"contracts/xALPACACreditor.sol\":1718:1742  xALPACA.balanceOf(_user) */\n      0x04\n      dup4\n      add\n        /* \"#utility.yul\":342:393   */\n      mstore\n        /* \"contracts/xALPACACreditor.sol\":1694:1701  uint256 */\n      0x00\n      swap4\n        /* \"contracts/xALPACACreditor.sol\":1764:1768  1e18 */\n      0x0de0b6b3a7640000\n      swap4\n        /* \"contracts/xALPACACreditor.sol\":1745:1760  valuePerxALPACA */\n      swap1\n      swap3\n        /* \"contracts/xALPACACreditor.sol\":1718:1725  xALPACA */\n      swap2\n      and\n      swap1\n        /* \"contracts/xALPACACreditor.sol\":1718:1735  xALPACA.balanceOf */\n      0x70a08231\n      swap1\n        /* \"#utility.yul\":315:333   */\n      0x24\n      add\n        /* \"contracts/xALPACACreditor.sol\":1718:1742  xALPACA.balanceOf(_user) */\n      0x20\n      mload(0x40)\n      dup1\n      dup4\n      sub\n      dup2\n      dup7\n      gas\n      staticcall\n      iszero\n      dup1\n      iszero\n      tag_90\n      jumpi\n      returndatasize\n      0x00\n      dup1\n      returndatacopy\n      revert(0x00, returndatasize)\n    tag_90:\n      pop\n      pop\n      pop\n      pop\n      mload(0x40)\n      returndatasize\n      not(0x1f)\n      0x1f\n      dup3\n      add\n      and\n      dup3\n      add\n      dup1\n      0x40\n      mstore\n      pop\n      dup2\n      add\n      swap1\n      tag_91\n      swap2\n      swap1\n      tag_76\n      jump\t// in\n    tag_91:\n        /* \"contracts/xALPACACreditor.sol\":1718:1760  xALPACA.balanceOf(_user) * valuePerxALPACA */\n      tag_92\n      swap2\n      swap1\n      tag_93\n      jump\t// in\n    tag_92:\n        /* \"contracts/xALPACACreditor.sol\":1717:1768  (xALPACA.balanceOf(_user) * valuePerxALPACA) / 1e18 */\n      tag_94\n      swap2\n      swap1\n      tag_95\n      jump\t// in\n    tag_94:\n        /* \"contracts/xALPACACreditor.sol\":1710:1768  return (xALPACA.balanceOf(_user) * valuePerxALPACA) / 1e18 */\n      swap3\n        /* \"contracts/xALPACACreditor.sol\":1633:1774  function getUserCredit(address _user) external view returns (uint256) {... */\n      swap2\n      pop\n      pop\n      jump\t// out\n        /* \"@openzeppelin/contracts-upgradeable/access/OwnableUpgradeable.sol\":2158:2356  function transferOwnership(address newOwner) public virtual onlyOwner {... */\n    tag_49:\n        /* \"@openzeppelin/contracts-upgradeable/access/OwnableUpgradeable.sol\":1348:1354  _owner */\n      and(sub(shl(0xa0, 0x01), 0x01), sload(0x33))\n        /* \"@openzeppelin/contracts-upgradeable/utils/ContextUpgradeable.sol\":929:939  msg.sender */\n      caller\n        /* \"@openzeppelin/contracts-upgradeable/access/OwnableUpgradeable.sol\":1488:1511  owner() == _msgSender() */\n      eq\n        /* \"@openzeppelin/contracts-upgradeable/access/OwnableUpgradeable.sol\":1480:1548  require(owner() == _msgSender(), \"Ownable: caller is not the owner\") */\n      tag_99\n      jumpi\n      mload(0x40)\n      shl(0xe5, 0x461bcd)\n      dup2\n      mstore\n      0x04\n      add\n      tag_56\n      swap1\n      tag_57\n      jump\t// in\n    tag_99:\n      sub(shl(0xa0, 0x01), 0x01)\n        /* \"@openzeppelin/contracts-upgradeable/access/OwnableUpgradeable.sol\":2246:2268  newOwner != address(0) */\n      dup2\n      and\n        /* \"@openzeppelin/contracts-upgradeable/access/OwnableUpgradeable.sol\":2238:2311  require(newOwner != address(0), \"Ownable: new owner is the zero address\") */\n      tag_102\n      jumpi\n      mload(0x40)\n      shl(0xe5, 0x461bcd)\n      dup2\n      mstore\n        /* \"#utility.yul\":3233:3235   */\n      0x20\n        /* \"@openzeppelin/contracts-upgradeable/access/OwnableUpgradeable.sol\":2238:2311  require(newOwner != address(0), \"Ownable: new owner is the zero address\") */\n      0x04\n      dup3\n      add\n        /* \"#utility.yul\":3215:3236   */\n      mstore\n        /* \"#utility.yul\":3272:3274   */\n      0x26\n        /* \"#utility.yul\":3252:3270   */\n      0x24\n      dup3\n      add\n        /* \"#utility.yul\":3245:3275   */\n      mstore\n        /* \"#utility.yul\":3311:3345   */\n      0x4f776e61626c653a206e6577206f776e657220697320746865207a65726f2061\n        /* \"#utility.yul\":3291:3309   */\n      0x44\n      dup3\n      add\n        /* \"#utility.yul\":3284:3346   */\n      mstore\n      shl(0xd0, 0x646472657373)\n        /* \"#utility.yul\":3362:3380   */\n      0x64\n      dup3\n      add\n        /* \"#utility.yul\":3355:3391   */\n      mstore\n        /* \"#utility.yul\":3408:3427   */\n      0x84\n      add\n        /* \"@openzeppelin/contracts-upgradeable/access/OwnableUpgradeable.sol\":2238:2311  require(newOwner != address(0), \"Ownable: new owner is the zero address\") */\n      tag_56\n        /* \"#utility.yul\":3031:3433   */\n      jump\n        /* \"@openzeppelin/contracts-upgradeable/access/OwnableUpgradeable.sol\":2238:2311  require(newOwner != address(0), \"Ownable: new owner is the zero address\") */\n    tag_102:\n        /* \"@openzeppelin/contracts-upgradeable/access/OwnableUpgradeable.sol\":2321:2349  _transferOwnership(newOwner) */\n      tag_105\n        /* \"@openzeppelin/contracts-upgradeable/access/OwnableUpgradeable.sol\":2340:2348  newOwner */\n      dup2\n        /* \"@openzeppelin/contracts-upgradeable/access/OwnableUpgradeable.sol\":2321:2339  _transferOwnership */\n      tag_60\n        /* \"@openzeppelin/contracts-upgradeable/access/OwnableUpgradeable.sol\":2321:2349  _transferOwnership(newOwner) */\n      jump\t// in\n    tag_105:\n        /* \"@openzeppelin/contracts-upgradeable/access/OwnableUpgradeable.sol\":2158:2356  function transferOwnership(address newOwner) public virtual onlyOwner {... */\n      pop\n      jump\t// out\n        /* \"@openzeppelin/contracts-upgradeable/utils/AddressUpgradeable.sol\":1186:1506  function isContract(address account) internal view returns (bool) {... */\n    tag_50:\n      sub(shl(0xa0, 0x01), 0x01)\n        /* \"@openzeppelin/contracts-upgradeable/utils/AddressUpgradeable.sol\":1476:1495  account.code.length */\n      and\n      extcodesize\n        /* \"@openzeppelin/contracts-upgradeable/utils/AddressUpgradeable.sol\":1476:1499  account.code.length > 0 */\n      iszero\n      iszero\n      swap1\n        /* \"@openzeppelin/contracts-upgradeable/utils/AddressUpgradeable.sol\":1186:1506  function isContract(address account) internal view returns (bool) {... */\n      jump\t// out\n        /* \"@openzeppelin/contracts-upgradeable/access/OwnableUpgradeable.sol\":2510:2697  function _transferOwnership(address newOwner) internal virtual {... */\n    tag_60:\n        /* \"@openzeppelin/contracts-upgradeable/access/OwnableUpgradeable.sol\":2602:2608  _owner */\n      0x33\n      dup1\n      sload\n      sub(shl(0xa0, 0x01), 0x01)\n        /* \"@openzeppelin/contracts-upgradeable/access/OwnableUpgradeable.sol\":2618:2635  _owner = newOwner */\n      dup4\n      dup2\n      and\n      not(sub(shl(0xa0, 0x01), 0x01))\n      dup4\n      and\n      dup2\n      or\n      swap1\n      swap4\n      sstore\n        /* \"@openzeppelin/contracts-upgradeable/access/OwnableUpgradeable.sol\":2650:2690  OwnershipTransferred(oldOwner, newOwner) */\n      mload(0x40)\n        /* \"@openzeppelin/contracts-upgradeable/access/OwnableUpgradeable.sol\":2602:2608  _owner */\n      swap2\n      and\n      swap2\n        /* \"@openzeppelin/contracts-upgradeable/access/OwnableUpgradeable.sol\":2618:2635  _owner = newOwner */\n      swap1\n        /* \"@openzeppelin/contracts-upgradeable/access/OwnableUpgradeable.sol\":2602:2608  _owner */\n      dup3\n      swap1\n        /* \"@openzeppelin/contracts-upgradeable/access/OwnableUpgradeable.sol\":2650:2690  OwnershipTransferred(oldOwner, newOwner) */\n      0x8be0079c531659141344cd1fd0a4f28419497f9722a3daafe3b4186f6b6457e0\n      swap1\n        /* \"@openzeppelin/contracts-upgradeable/access/OwnableUpgradeable.sol\":2583:2599  address oldOwner */\n      0x00\n      swap1\n        /* \"@openzeppelin/contracts-upgradeable/access/OwnableUpgradeable.sol\":2650:2690  OwnershipTransferred(oldOwner, newOwner) */\n      log3\n        /* \"@openzeppelin/contracts-upgradeable/access/OwnableUpgradeable.sol\":2573:2697  {... */\n      pop\n        /* \"@openzeppelin/contracts-upgradeable/access/OwnableUpgradeable.sol\":2510:2697  function _transferOwnership(address newOwner) internal virtual {... */\n      pop\n      jump\t// out\n        /* \"@openzeppelin/contracts-upgradeable/proxy/utils/Initializable.sol\":5287:6095  function _setInitializedVersion(uint8 version) private returns (bool) {... */\n    tag_70:\n        /* \"@openzeppelin/contracts-upgradeable/proxy/utils/Initializable.sol\":5351:5355  bool */\n      0x00\n        /* \"@openzeppelin/contracts-upgradeable/proxy/utils/Initializable.sol\":5684:5697  _initializing */\n      dup1\n      sload\n      0x0100\n      swap1\n      div\n      0xff\n      and\n        /* \"@openzeppelin/contracts-upgradeable/proxy/utils/Initializable.sol\":5680:6089  if (_initializing) {... */\n      iszero\n      tag_110\n      jumpi\n        /* \"@openzeppelin/contracts-upgradeable/proxy/utils/Initializable.sol\":5738:5745  version */\n      dup2\n        /* \"@openzeppelin/contracts-upgradeable/proxy/utils/Initializable.sol\":5738:5750  version == 1 */\n      0xff\n      and\n        /* \"@openzeppelin/contracts-upgradeable/proxy/utils/Initializable.sol\":5749:5750  1 */\n      0x01\n        /* \"@openzeppelin/contracts-upgradeable/proxy/utils/Initializable.sol\":5738:5750  version == 1 */\n      eq\n        /* \"@openzeppelin/contracts-upgradeable/proxy/utils/Initializable.sol\":5738:5799  version == 1 && !AddressUpgradeable.isContract(address(this)) */\n      dup1\n      iszero\n      tag_111\n      jumpi\n      pop\n        /* \"@openzeppelin/contracts-upgradeable/proxy/utils/Initializable.sol\":5793:5797  this */\n      address\n        /* \"@openzeppelin/contracts-upgradeable/utils/AddressUpgradeable.sol\":1476:1495  account.code.length */\n      extcodesize\n        /* \"@openzeppelin/contracts-upgradeable/utils/AddressUpgradeable.sol\":1476:1499  account.code.length > 0 */\n      iszero\n        /* \"@openzeppelin/contracts-upgradeable/proxy/utils/Initializable.sol\":5738:5799  version == 1 && !AddressUpgradeable.isContract(address(this)) */\n    tag_111:\n        /* \"@openzeppelin/contracts-upgradeable/proxy/utils/Initializable.sol\":5713:5879  require(... */\n      tag_113\n      jumpi\n      mload(0x40)\n      shl(0xe5, 0x461bcd)\n      dup2\n      mstore\n      0x04\n      add\n      tag_56\n      swap1\n      tag_115\n      jump\t// in\n    tag_113:\n      pop\n        /* \"@openzeppelin/contracts-upgradeable/proxy/utils/Initializable.sol\":5900:5905  false */\n      0x00\n      swap2\n        /* \"@openzeppelin/contracts-upgradeable/proxy/utils/Initializable.sol\":5287:6095  function _setInitializedVersion(uint8 version) private returns (bool) {... */\n      swap1\n      pop\n      jump\t// out\n        /* \"@openzeppelin/contracts-upgradeable/proxy/utils/Initializable.sol\":5680:6089  if (_initializing) {... */\n    tag_110:\n        /* \"@openzeppelin/contracts-upgradeable/proxy/utils/Initializable.sol\":5944:5956  _initialized */\n      sload(0x00)\n        /* \"@openzeppelin/contracts-upgradeable/proxy/utils/Initializable.sol\":5944:5966  _initialized < version */\n      0xff\n      dup1\n      dup5\n      and\n        /* \"@openzeppelin/contracts-upgradeable/proxy/utils/Initializable.sol\":5944:5956  _initialized */\n      swap2\n      and\n        /* \"@openzeppelin/contracts-upgradeable/proxy/utils/Initializable.sol\":5944:5966  _initialized < version */\n      lt\n        /* \"@openzeppelin/contracts-upgradeable/proxy/utils/Initializable.sol\":5936:6017  require(_initialized < version, \"Initializable: contract is already initialized\") */\n      tag_117\n      jumpi\n      mload(0x40)\n      shl(0xe5, 0x461bcd)\n      dup2\n      mstore\n      0x04\n      add\n      tag_56\n      swap1\n      tag_115\n      jump\t// in\n    tag_117:\n      pop\n        /* \"@openzeppelin/contracts-upgradeable/proxy/utils/Initializable.sol\":6031:6043  _initialized */\n      0x00\n        /* \"@openzeppelin/contracts-upgradeable/proxy/utils/Initializable.sol\":6031:6053  _initialized = version */\n      dup1\n      sload\n      not(0xff)\n      and\n      0xff\n      swap3\n      swap1\n      swap3\n      and\n      swap2\n      swap1\n      swap2\n      or\n      swap1\n      sstore\n      0x01\n      swap1\n        /* \"@openzeppelin/contracts-upgradeable/proxy/utils/Initializable.sol\":5287:6095  function _setInitializedVersion(uint8 version) private returns (bool) {... */\n      jump\t// out\n        /* \"@openzeppelin/contracts-upgradeable/access/OwnableUpgradeable.sol\":988:1083  function __Ownable_init() internal onlyInitializing {... */\n    tag_78:\n        /* \"@openzeppelin/contracts-upgradeable/proxy/utils/Initializable.sol\":4698:4711  _initializing */\n      sload(0x00)\n      0x0100\n      swap1\n      div\n      0xff\n      and\n        /* \"@openzeppelin/contracts-upgradeable/proxy/utils/Initializable.sol\":4690:4759  require(_initializing, \"Initializable: contract is not initializing\") */\n      tag_120\n      jumpi\n      mload(0x40)\n      shl(0xe5, 0x461bcd)\n      dup2\n      mstore\n      0x04\n      add\n      tag_56\n      swap1\n      tag_122\n      jump\t// in\n    tag_120:\n        /* \"@openzeppelin/contracts-upgradeable/access/OwnableUpgradeable.sol\":1050:1076  __Ownable_init_unchained() */\n      tag_59\n        /* \"@openzeppelin/contracts-upgradeable/proxy/utils/Initializable.sol\":4698:4711  _initializing */\n      sload(0x00)\n      0x0100\n      swap1\n      div\n      0xff\n      and\n        /* \"@openzeppelin/contracts-upgradeable/proxy/utils/Initializable.sol\":4690:4759  require(_initializing, \"Initializable: contract is not initializing\") */\n      tag_127\n      jumpi\n      mload(0x40)\n      shl(0xe5, 0x461bcd)\n      dup2\n      mstore\n      0x04\n      add\n      tag_56\n      swap1\n      tag_122\n      jump\t// in\n    tag_127:\n        /* \"@openzeppelin/contracts-upgradeable/access/OwnableUpgradeable.sol\":1161:1193  _transferOwnership(_msgSender()) */\n      tag_59\n        /* \"@openzeppelin/contracts-upgradeable/utils/ContextUpgradeable.sol\":929:939  msg.sender */\n      caller\n        /* \"@openzeppelin/contracts-upgradeable/access/OwnableUpgradeable.sol\":1161:1179  _transferOwnership */\n      tag_60\n        /* \"@openzeppelin/contracts-upgradeable/access/OwnableUpgradeable.sol\":1161:1193  _transferOwnership(_msgSender()) */\n      jump\t// in\n        /* \"#utility.yul\":628:759   */\n    tag_132:\n      sub(shl(0xa0, 0x01), 0x01)\n        /* \"#utility.yul\":703:734   */\n      dup2\n      and\n        /* \"#utility.yul\":693:735   */\n      dup2\n      eq\n        /* \"#utility.yul\":683:753   */\n      tag_105\n      jumpi\n        /* \"#utility.yul\":749:750   */\n      0x00\n        /* \"#utility.yul\":746:747   */\n      dup1\n        /* \"#utility.yul\":739:751   */\n      revert\n        /* \"#utility.yul\":764:1011   */\n    tag_33:\n        /* \"#utility.yul\":823:829   */\n      0x00\n        /* \"#utility.yul\":876:878   */\n      0x20\n        /* \"#utility.yul\":864:873   */\n      dup3\n        /* \"#utility.yul\":855:862   */\n      dup5\n        /* \"#utility.yul\":851:874   */\n      sub\n        /* \"#utility.yul\":847:879   */\n      slt\n        /* \"#utility.yul\":844:896   */\n      iszero\n      tag_140\n      jumpi\n        /* \"#utility.yul\":892:893   */\n      0x00\n        /* \"#utility.yul\":889:890   */\n      dup1\n        /* \"#utility.yul\":882:894   */\n      revert\n        /* \"#utility.yul\":844:896   */\n    tag_140:\n        /* \"#utility.yul\":931:940   */\n      dup2\n        /* \"#utility.yul\":918:941   */\n      calldataload\n        /* \"#utility.yul\":950:981   */\n      tag_141\n        /* \"#utility.yul\":975:980   */\n      dup2\n        /* \"#utility.yul\":950:981   */\n      tag_132\n      jump\t// in\n    tag_141:\n        /* \"#utility.yul\":1000:1005   */\n      swap4\n        /* \"#utility.yul\":764:1011   */\n      swap3\n      pop\n      pop\n      pop\n      jump\t// out\n        /* \"#utility.yul\":1016:1347   */\n    tag_37:\n        /* \"#utility.yul\":1100:1106   */\n      0x00\n        /* \"#utility.yul\":1108:1114   */\n      dup1\n        /* \"#utility.yul\":1161:1163   */\n      0x40\n        /* \"#utility.yul\":1149:1158   */\n      dup4\n        /* \"#utility.yul\":1140:1147   */\n      dup6\n        /* \"#utility.yul\":1136:1159   */\n      sub\n        /* \"#utility.yul\":1132:1164   */\n      slt\n        /* \"#utility.yul\":1129:1181   */\n      iszero\n      tag_143\n      jumpi\n        /* \"#utility.yul\":1177:1178   */\n      0x00\n        /* \"#utility.yul\":1174:1175   */\n      dup1\n        /* \"#utility.yul\":1167:1179   */\n      revert\n        /* \"#utility.yul\":1129:1181   */\n    tag_143:\n        /* \"#utility.yul\":1216:1225   */\n      dup3\n        /* \"#utility.yul\":1203:1226   */\n      calldataload\n        /* \"#utility.yul\":1235:1266   */\n      tag_144\n        /* \"#utility.yul\":1260:1265   */\n      dup2\n        /* \"#utility.yul\":1235:1266   */\n      tag_132\n      jump\t// in\n    tag_144:\n        /* \"#utility.yul\":1285:1290   */\n      swap5\n        /* \"#utility.yul\":1337:1339   */\n      0x20\n        /* \"#utility.yul\":1322:1340   */\n      swap4\n      swap1\n      swap4\n      add\n        /* \"#utility.yul\":1309:1341   */\n      calldataload\n      swap4\n      pop\n      pop\n      pop\n        /* \"#utility.yul\":1016:1347   */\n      jump\t// out\n        /* \"#utility.yul\":1352:1532   */\n    tag_41:\n        /* \"#utility.yul\":1411:1417   */\n      0x00\n        /* \"#utility.yul\":1464:1466   */\n      0x20\n        /* \"#utility.yul\":1452:1461   */\n      dup3\n        /* \"#utility.yul\":1443:1450   */\n      dup5\n        /* \"#utility.yul\":1439:1462   */\n      sub\n        /* \"#utility.yul\":1435:1467   */\n      slt\n        /* \"#utility.yul\":1432:1484   */\n      iszero\n      tag_146\n      jumpi\n        /* \"#utility.yul\":1480:1481   */\n      0x00\n        /* \"#utility.yul\":1477:1478   */\n      dup1\n        /* \"#utility.yul\":1470:1482   */\n      revert\n        /* \"#utility.yul\":1432:1484   */\n    tag_146:\n      pop\n        /* \"#utility.yul\":1503:1526   */\n      calldataload\n      swap2\n        /* \"#utility.yul\":1352:1532   */\n      swap1\n      pop\n      jump\t// out\n        /* \"#utility.yul\":1537:1893   */\n    tag_57:\n        /* \"#utility.yul\":1739:1741   */\n      0x20\n        /* \"#utility.yul\":1721:1742   */\n      dup1\n      dup3\n      mstore\n        /* \"#utility.yul\":1758:1776   */\n      dup2\n      dup2\n      add\n        /* \"#utility.yul\":1751:1781   */\n      mstore\n        /* \"#utility.yul\":1817:1851   */\n      0x4f776e61626c653a2063616c6c6572206973206e6f7420746865206f776e6572\n        /* \"#utility.yul\":1812:1814   */\n      0x40\n        /* \"#utility.yul\":1797:1815   */\n      dup3\n      add\n        /* \"#utility.yul\":1790:1852   */\n      mstore\n        /* \"#utility.yul\":1884:1886   */\n      0x60\n        /* \"#utility.yul\":1869:1887   */\n      add\n      swap1\n        /* \"#utility.yul\":1537:1893   */\n      jump\t// out\n        /* \"#utility.yul\":1898:2082   */\n    tag_76:\n        /* \"#utility.yul\":1968:1974   */\n      0x00\n        /* \"#utility.yul\":2021:2023   */\n      0x20\n        /* \"#utility.yul\":2009:2018   */\n      dup3\n        /* \"#utility.yul\":2000:2007   */\n      dup5\n        /* \"#utility.yul\":1996:2019   */\n      sub\n        /* \"#utility.yul\":1992:2024   */\n      slt\n        /* \"#utility.yul\":1989:2041   */\n      iszero\n      tag_149\n      jumpi\n        /* \"#utility.yul\":2037:2038   */\n      0x00\n        /* \"#utility.yul\":2034:2035   */\n      dup1\n        /* \"#utility.yul\":2027:2039   */\n      revert\n        /* \"#utility.yul\":1989:2041   */\n    tag_149:\n      pop\n        /* \"#utility.yul\":2060:2076   */\n      mload\n      swap2\n        /* \"#utility.yul\":1898:2082   */\n      swap1\n      pop\n      jump\t// out\n        /* \"#utility.yul\":2539:2804   */\n    tag_93:\n        /* \"#utility.yul\":2579:2586   */\n      0x00\n        /* \"#utility.yul\":2645:2646   */\n      dup2\n        /* \"#utility.yul\":2641:2642   */\n      0x00\n        /* \"#utility.yul\":2637:2643   */\n      not\n        /* \"#utility.yul\":2633:2647   */\n      div\n        /* \"#utility.yul\":2630:2631   */\n      dup4\n        /* \"#utility.yul\":2627:2648   */\n      gt\n        /* \"#utility.yul\":2622:2623   */\n      dup3\n        /* \"#utility.yul\":2615:2624   */\n      iszero\n        /* \"#utility.yul\":2608:2625   */\n      iszero\n        /* \"#utility.yul\":2604:2649   */\n      and\n        /* \"#utility.yul\":2601:2769   */\n      iszero\n      tag_153\n      jumpi\n        /* \"#utility.yul\":2691:2701   */\n      0x4e487b71\n        /* \"#utility.yul\":2686:2689   */\n      0xe0\n        /* \"#utility.yul\":2682:2702   */\n      shl\n        /* \"#utility.yul\":2679:2680   */\n      0x00\n        /* \"#utility.yul\":2672:2703   */\n      mstore\n        /* \"#utility.yul\":2726:2730   */\n      0x11\n        /* \"#utility.yul\":2723:2724   */\n      0x04\n        /* \"#utility.yul\":2716:2731   */\n      mstore\n        /* \"#utility.yul\":2754:2758   */\n      0x24\n        /* \"#utility.yul\":2751:2752   */\n      0x00\n        /* \"#utility.yul\":2744:2759   */\n      revert\n        /* \"#utility.yul\":2601:2769   */\n    tag_153:\n      pop\n        /* \"#utility.yul\":2789:2798   */\n      mul\n      swap1\n        /* \"#utility.yul\":2539:2804   */\n      jump\t// out\n        /* \"#utility.yul\":2809:3026   */\n    tag_95:\n        /* \"#utility.yul\":2849:2850   */\n      0x00\n        /* \"#utility.yul\":2875:2876   */\n      dup3\n        /* \"#utility.yul\":2865:2997   */\n      tag_155\n      jumpi\n        /* \"#utility.yul\":2919:2929   */\n      0x4e487b71\n        /* \"#utility.yul\":2914:2917   */\n      0xe0\n        /* \"#utility.yul\":2910:2930   */\n      shl\n        /* \"#utility.yul\":2907:2908   */\n      0x00\n        /* \"#utility.yul\":2900:2931   */\n      mstore\n        /* \"#utility.yul\":2954:2958   */\n      0x12\n        /* \"#utility.yul\":2951:2952   */\n      0x04\n        /* \"#utility.yul\":2944:2959   */\n      mstore\n        /* \"#utility.yul\":2982:2986   */\n      0x24\n        /* \"#utility.yul\":2979:2980   */\n      0x00\n        /* \"#utility.yul\":2972:2987   */\n      revert\n        /* \"#utility.yul\":2865:2997   */\n    tag_155:\n      pop\n        /* \"#utility.yul\":3011:3020   */\n      div\n      swap1\n        /* \"#utility.yul\":2809:3026   */\n      jump\t// out\n        /* \"#utility.yul\":3438:3848   */\n    tag_115:\n        /* \"#utility.yul\":3640:3642   */\n      0x20\n        /* \"#utility.yul\":3622:3643   */\n      dup1\n      dup3\n      mstore\n        /* \"#utility.yul\":3679:3681   */\n      0x2e\n        /* \"#utility.yul\":3659:3677   */\n      swap1\n      dup3\n      add\n        /* \"#utility.yul\":3652:3682   */\n      mstore\n        /* \"#utility.yul\":3718:3752   */\n      0x496e697469616c697a61626c653a20636f6e747261637420697320616c726561\n        /* \"#utility.yul\":3713:3715   */\n      0x40\n        /* \"#utility.yul\":3698:3716   */\n      dup3\n      add\n        /* \"#utility.yul\":3691:3753   */\n      mstore\n      shl(0x92, 0x191e481a5b9a5d1a585b1a5e9959)\n        /* \"#utility.yul\":3784:3786   */\n      0x60\n        /* \"#utility.yul\":3769:3787   */\n      dup3\n      add\n        /* \"#utility.yul\":3762:3806   */\n      mstore\n        /* \"#utility.yul\":3838:3841   */\n      0x80\n        /* \"#utility.yul\":3823:3842   */\n      add\n      swap1\n        /* \"#utility.yul\":3438:3848   */\n      jump\t// out\n        /* \"#utility.yul\":3853:4260   */\n    tag_122:\n        /* \"#utility.yul\":4055:4057   */\n      0x20\n        /* \"#utility.yul\":4037:4058   */\n      dup1\n      dup3\n      mstore\n        /* \"#utility.yul\":4094:4096   */\n      0x2b\n        /* \"#utility.yul\":4074:4092   */\n      swap1\n      dup3\n      add\n        /* \"#utility.yul\":4067:4097   */\n      mstore\n        /* \"#utility.yul\":4133:4167   */\n      0x496e697469616c697a61626c653a20636f6e7472616374206973206e6f742069\n        /* \"#utility.yul\":4128:4130   */\n      0x40\n        /* \"#utility.yul\":4113:4131   */\n      dup3\n      add\n        /* \"#utility.yul\":4106:4168   */\n      mstore\n      shl(0xa8, 0x6e697469616c697a696e67)\n        /* \"#utility.yul\":4199:4201   */\n      0x60\n        /* \"#utility.yul\":4184:4202   */\n      dup3\n      add\n        /* \"#utility.yul\":4177:4218   */\n      mstore\n        /* \"#utility.yul\":4250:4253   */\n      0x80\n        /* \"#utility.yul\":4235:4254   */\n      add\n      swap1\n        /* \"#utility.yul\":3853:4260   */\n      jump\t// out\n\n    auxdata: 0xa26469706673582212203deb40ef9eeba4631108456464fc5d0d5ec3e5df26bacef819d0ca81cd01085364736f6c634300080d0033\n}\n",
				"bytecode": {
					"linkReferences": {},
					"object": "608060405234801561001057600080fd5b50600061001d6001610081565b90508015610035576000805461ff0019166101001790555b801561007b576000805461ff0019169055604051600181527f7f26b83ff96e1f2b6a682f133852f6798a09c465da95921460cefb38474024989060200160405180910390a15b50610198565b60008054610100900460ff1615610113578160ff1660011480156100b557506100b33061018960201b6104f61760201c565b155b61010b5760405162461bcd60e51b815260206004820152602e60248201526000805160206109ca83398151915260448201526d191e481a5b9a5d1a585b1a5e995960921b60648201526084015b60405180910390fd5b506000919050565b60005460ff80841691161061016f5760405162461bcd60e51b815260206004820152602e60248201526000805160206109ca83398151915260448201526d191e481a5b9a5d1a585b1a5e995960921b6064820152608401610102565b506000805460ff191660ff92909216919091179055600190565b6001600160a01b03163b151590565b610823806101a76000396000f3fe608060405234801561001057600080fd5b506004361061009e5760003560e01c8063b6df14ab11610066578063b6df14ab14610118578063cd6dc6871461012b578063cd946ba81461013e578063dad6f0dc14610151578063f2fde38b1461016457600080fd5b80632ba4f0a2146100a3578063715018a6146100bf5780637c5f6349146100c95780638da5cb5b146100f4578063b224f9bb14610105575b600080fd5b6100ac60665481565b6040519081526020015b60405180910390f35b6100c7610177565b005b6067546100dc906001600160a01b031681565b6040516001600160a01b0390911681526020016100b6565b6033546001600160a01b03166100dc565b6065546100dc906001600160a01b031681565b6100c761012636600461064e565b6101b6565b6100c7610139366004610672565b61022c565b6100c761014c36600461069e565b610326565b6100ac61015f36600461064e565b6103c2565b6100c761017236600461064e565b61045b565b6033546001600160a01b031633146101aa5760405162461bcd60e51b81526004016101a1906106b7565b60405180910390fd5b6101b46000610505565b565b6033546001600160a01b031633146101e05760405162461bcd60e51b81526004016101a1906106b7565b606780546001600160a01b0319166001600160a01b03831690811790915560405133907f143756cbf499512428f05e75fac99a3a9b4bdce5c2254e99f2fbc2a75b75e50590600090a350565b60006102386001610557565b90508015610250576000805461ff0019166101001790555b826001600160a01b031663900cf0cf6040518163ffffffff1660e01b8152600401602060405180830381865afa15801561028e573d6000803e3d6000fd5b505050506040513d601f19601f820116820180604052508101906102b291906106ec565b506102bb6105df565b606580546001600160a01b0319166001600160a01b03851617905560668290558015610321576000805461ff0019169055604051600181527f7f26b83ff96e1f2b6a682f133852f6798a09c465da95921460cefb38474024989060200160405180910390a15b505050565b6067546001600160a01b031633146103515760405163d3e80f7960e01b815260040160405180910390fd5b683635c9adc5dea0000081111561037b5760405163074dedeb60e11b815260040160405180910390fd5b6066805490829055604080518281526020810184905233917fde8475cec749561c373d0a6dc945aeae0c2b5c44568c89322c9b449d2b7c9d12910160405180910390a25050565b6066546065546040516370a0823160e01b81526001600160a01b038481166004830152600093670de0b6b3a76400009390929116906370a0823190602401602060405180830381865afa15801561041d573d6000803e3d6000fd5b505050506040513d601f19601f8201168201806040525081019061044191906106ec565b61044b9190610705565b6104559190610732565b92915050565b6033546001600160a01b031633146104855760405162461bcd60e51b81526004016101a1906106b7565b6001600160a01b0381166104ea5760405162461bcd60e51b815260206004820152602660248201527f4f776e61626c653a206e6577206f776e657220697320746865207a65726f206160448201526564647265737360d01b60648201526084016101a1565b6104f381610505565b50565b6001600160a01b03163b151590565b603380546001600160a01b038381166001600160a01b0319831681179093556040519116919082907f8be0079c531659141344cd1fd0a4f28419497f9722a3daafe3b4186f6b6457e090600090a35050565b60008054610100900460ff161561059e578160ff16600114801561057a5750303b155b6105965760405162461bcd60e51b81526004016101a190610754565b506000919050565b60005460ff8084169116106105c55760405162461bcd60e51b81526004016101a190610754565b506000805460ff191660ff92909216919091179055600190565b600054610100900460ff166106065760405162461bcd60e51b81526004016101a1906107a2565b6101b4600054610100900460ff166106305760405162461bcd60e51b81526004016101a1906107a2565b6101b433610505565b6001600160a01b03811681146104f357600080fd5b60006020828403121561066057600080fd5b813561066b81610639565b9392505050565b6000806040838503121561068557600080fd5b823561069081610639565b946020939093013593505050565b6000602082840312156106b057600080fd5b5035919050565b6020808252818101527f4f776e61626c653a2063616c6c6572206973206e6f7420746865206f776e6572604082015260600190565b6000602082840312156106fe57600080fd5b5051919050565b600081600019048311821515161561072d57634e487b7160e01b600052601160045260246000fd5b500290565b60008261074f57634e487b7160e01b600052601260045260246000fd5b500490565b6020808252602e908201527f496e697469616c697a61626c653a20636f6e747261637420697320616c72656160408201526d191e481a5b9a5d1a585b1a5e995960921b606082015260800190565b6020808252602b908201527f496e697469616c697a61626c653a20636f6e7472616374206973206e6f74206960408201526a6e697469616c697a696e6760a81b60608201526080019056fea26469706673582212203deb40ef9eeba4631108456464fc5d0d5ec3e5df26bacef819d0ca81cd01085364736f6c634300080d0033496e697469616c697a61626c653a20636f6e747261637420697320616c726561",
					"opcodes": "PUSH1 0x80 PUSH1 0x40 MSTORE CALLVALUE DUP1 ISZERO PUSH2 0x10 JUMPI PUSH1 0x0 DUP1 REVERT JUMPDEST POP PUSH1 0x0 PUSH2 0x1D PUSH1 0x1 PUSH2 0x81 JUMP JUMPDEST SWAP1 POP DUP1 ISZERO PUSH2 0x35 JUMPI PUSH1 0x0 DUP1 SLOAD PUSH2 0xFF00 NOT AND PUSH2 0x100 OR SWAP1 SSTORE JUMPDEST DUP1 ISZERO PUSH2 0x7B JUMPI PUSH1 0x0 DUP1 SLOAD PUSH2 0xFF00 NOT AND SWAP1 SSTORE PUSH1 0x40 MLOAD PUSH1 0x1 DUP2 MSTORE PUSH32 0x7F26B83FF96E1F2B6A682F133852F6798A09C465DA95921460CEFB3847402498 SWAP1 PUSH1 0x20 ADD PUSH1 0x40 MLOAD DUP1 SWAP2 SUB SWAP1 LOG1 JUMPDEST POP PUSH2 0x198 JUMP JUMPDEST PUSH1 0x0 DUP1 SLOAD PUSH2 0x100 SWAP1 DIV PUSH1 0xFF AND ISZERO PUSH2 0x113 JUMPI DUP2 PUSH1 0xFF AND PUSH1 0x1 EQ DUP1 ISZERO PUSH2 0xB5 JUMPI POP PUSH2 0xB3 ADDRESS PUSH2 0x189 PUSH1 0x20 SHL PUSH2 0x4F6 OR PUSH1 0x20 SHR JUMP JUMPDEST ISZERO JUMPDEST PUSH2 0x10B JUMPI PUSH1 0x40 MLOAD PUSH3 0x461BCD PUSH1 0xE5 SHL DUP2 MSTORE PUSH1 0x20 PUSH1 0x4 DUP3 ADD MSTORE PUSH1 0x2E PUSH1 0x24 DUP3 ADD MSTORE PUSH1 0x0 DUP1 MLOAD PUSH1 0x20 PUSH2 0x9CA DUP4 CODECOPY DUP2 MLOAD SWAP2 MSTORE PUSH1 0x44 DUP3 ADD MSTORE PUSH14 0x191E481A5B9A5D1A585B1A5E9959 PUSH1 0x92 SHL PUSH1 0x64 DUP3 ADD MSTORE PUSH1 0x84 ADD JUMPDEST PUSH1 0x40 MLOAD DUP1 SWAP2 SUB SWAP1 REVERT JUMPDEST POP PUSH1 0x0 SWAP2 SWAP1 POP JUMP JUMPDEST PUSH1 0x0 SLOAD PUSH1 0xFF DUP1 DUP5 AND SWAP2 AND LT PUSH2 0x16F JUMPI PUSH1 0x40 MLOAD PUSH3 0x461BCD PUSH1 0xE5 SHL DUP2 MSTORE PUSH1 0x20 PUSH1 0x4 DUP3 ADD MSTORE PUSH1 0x2E PUSH1 0x24 DUP3 ADD MSTORE PUSH1 0x0 DUP1 MLOAD PUSH1 0x20 PUSH2 0x9CA DUP4 CODECOPY DUP2 MLOAD SWAP2 MSTORE PUSH1 0x44 DUP3 ADD MSTORE PUSH14 0x191E481A5B9A5D1A585B1A5E9959 PUSH1 0x92 SHL PUSH1 0x64 DUP3 ADD MSTORE PUSH1 0x84 ADD PUSH2 0x102 JUMP JUMPDEST POP PUSH1 0x0 DUP1 SLOAD PUSH1 0xFF NOT AND PUSH1 0xFF SWAP3 SWAP1 SWAP3 AND SWAP2 SWAP1 SWAP2 OR SWAP1 SSTORE PUSH1 0x1 SWAP1 JUMP JUMPDEST PUSH1 0x1 PUSH1 0x1 PUSH1 0xA0 SHL SUB AND EXTCODESIZE ISZERO ISZERO SWAP1 JUMP JUMPDEST PUSH2 0x823 DUP1 PUSH2 0x1A7 PUSH1 0x0 CODECOPY PUSH1 0x0 RETURN INVALID PUSH1 0x80 PUSH1 0x40 MSTORE CALLVALUE DUP1 ISZERO PUSH2 0x10 JUMPI PUSH1 0x0 DUP1 REVERT JUMPDEST POP PUSH1 0x4 CALLDATASIZE LT PUSH2 0x9E JUMPI PUSH1 0x0 CALLDATALOAD PUSH1 0xE0 SHR DUP1 PUSH4 0xB6DF14AB GT PUSH2 0x66 JUMPI DUP1 PUSH4 0xB6DF14AB EQ PUSH2 0x118 JUMPI DUP1 PUSH4 0xCD6DC687 EQ PUSH2 0x12B JUMPI DUP1 PUSH4 0xCD946BA8 EQ PUSH2 0x13E JUMPI DUP1 PUSH4 0xDAD6F0DC EQ PUSH2 0x151 JUMPI DUP1 PUSH4 0xF2FDE38B EQ PUSH2 0x164 JUMPI PUSH1 0x0 DUP1 REVERT JUMPDEST DUP1 PUSH4 0x2BA4F0A2 EQ PUSH2 0xA3 JUMPI DUP1 PUSH4 0x715018A6 EQ PUSH2 0xBF JUMPI DUP1 PUSH4 0x7C5F6349 EQ PUSH2 0xC9 JUMPI DUP1 PUSH4 0x8DA5CB5B EQ PUSH2 0xF4 JUMPI DUP1 PUSH4 0xB224F9BB EQ PUSH2 0x105 JUMPI JUMPDEST PUSH1 0x0 DUP1 REVERT JUMPDEST PUSH2 0xAC PUSH1 0x66 SLOAD DUP2 JUMP JUMPDEST PUSH1 0x40 MLOAD SWAP1 DUP2 MSTORE PUSH1 0x20 ADD JUMPDEST PUSH1 0x40 MLOAD DUP1 SWAP2 SUB SWAP1 RETURN JUMPDEST PUSH2 0xC7 PUSH2 0x177 JUMP JUMPDEST STOP JUMPDEST PUSH1 0x67 SLOAD PUSH2 0xDC SWAP1 PUSH1 0x1 PUSH1 0x1 PUSH1 0xA0 SHL SUB AND DUP2 JUMP JUMPDEST PUSH1 0x40 MLOAD PUSH1 0x1 PUSH1 0x1 PUSH1 0xA0 SHL SUB SWAP1 SWAP2 AND DUP2 MSTORE PUSH1 0x20 ADD PUSH2 0xB6 JUMP JUMPDEST PUSH1 0x33 SLOAD PUSH1 0x1 PUSH1 0x1 PUSH1 0xA0 SHL SUB AND PUSH2 0xDC JUMP JUMPDEST PUSH1 0x65 SLOAD PUSH2 0xDC SWAP1 PUSH1 0x1 PUSH1 0x1 PUSH1 0xA0 SHL SUB AND DUP2 JUMP JUMPDEST PUSH2 0xC7 PUSH2 0x126 CALLDATASIZE PUSH1 0x4 PUSH2 0x64E JUMP JUMPDEST PUSH2 0x1B6 JUMP JUMPDEST PUSH2 0xC7 PUSH2 0x139 CALLDATASIZE PUSH1 0x4 PUSH2 0x672 JUMP JUMPDEST PUSH2 0x22C JUMP JUMPDEST PUSH2 0xC7 PUSH2 0x14C CALLDATASIZE PUSH1 0x4 PUSH2 0x69E JUMP JUMPDEST PUSH2 0x326 JUMP JUMPDEST PUSH2 0xAC PUSH2 0x15F CALLDATASIZE PUSH1 0x4 PUSH2 0x64E JUMP JUMPDEST PUSH2 0x3C2 JUMP JUMPDEST PUSH2 0xC7 PUSH2 0x172 CALLDATASIZE PUSH1 0x4 PUSH2 0x64E JUMP JUMPDEST PUSH2 0x45B JUMP JUMPDEST PUSH1 0x33 SLOAD PUSH1 0x1 PUSH1 0x1 PUSH1 0xA0 SHL SUB AND CALLER EQ PUSH2 0x1AA JUMPI PUSH1 0x40 MLOAD PUSH3 0x461BCD PUSH1 0xE5 SHL DUP2 MSTORE PUSH1 0x4 ADD PUSH2 0x1A1 SWAP1 PUSH2 0x6B7 JUMP JUMPDEST PUSH1 0x40 MLOAD DUP1 SWAP2 SUB SWAP1 REVERT JUMPDEST PUSH2 0x1B4 PUSH1 0x0 PUSH2 0x505 JUMP JUMPDEST JUMP JUMPDEST PUSH1 0x33 SLOAD PUSH1 0x1 PUSH1 0x1 PUSH1 0xA0 SHL SUB AND CALLER EQ PUSH2 0x1E0 JUMPI PUSH1 0x40 MLOAD PUSH3 0x461BCD PUSH1 0xE5 SHL DUP2 MSTORE PUSH1 0x4 ADD PUSH2 0x1A1 SWAP1 PUSH2 0x6B7 JUMP JUMPDEST PUSH1 0x67 DUP1 SLOAD PUSH1 0x1 PUSH1 0x1 PUSH1 0xA0 SHL SUB NOT AND PUSH1 0x1 PUSH1 0x1 PUSH1 0xA0 SHL SUB DUP4 AND SWAP1 DUP2 OR SWAP1 SWAP2 SSTORE PUSH1 0x40 MLOAD CALLER SWAP1 PUSH32 0x143756CBF499512428F05E75FAC99A3A9B4BDCE5C2254E99F2FBC2A75B75E505 SWAP1 PUSH1 0x0 SWAP1 LOG3 POP JUMP JUMPDEST PUSH1 0x0 PUSH2 0x238 PUSH1 0x1 PUSH2 0x557 JUMP JUMPDEST SWAP1 POP DUP1 ISZERO PUSH2 0x250 JUMPI PUSH1 0x0 DUP1 SLOAD PUSH2 0xFF00 NOT AND PUSH2 0x100 OR SWAP1 SSTORE JUMPDEST DUP3 PUSH1 0x1 PUSH1 0x1 PUSH1 0xA0 SHL SUB AND PUSH4 0x900CF0CF PUSH1 0x40 MLOAD DUP2 PUSH4 0xFFFFFFFF AND PUSH1 0xE0 SHL DUP2 MSTORE PUSH1 0x4 ADD PUSH1 0x20 PUSH1 0x40 MLOAD DUP1 DUP4 SUB DUP2 DUP7 GAS STATICCALL ISZERO DUP1 ISZERO PUSH2 0x28E JUMPI RETURNDATASIZE PUSH1 0x0 DUP1 RETURNDATACOPY RETURNDATASIZE PUSH1 0x0 REVERT JUMPDEST POP POP POP POP PUSH1 0x40 MLOAD RETURNDATASIZE PUSH1 0x1F NOT PUSH1 0x1F DUP3 ADD AND DUP3 ADD DUP1 PUSH1 0x40 MSTORE POP DUP2 ADD SWAP1 PUSH2 0x2B2 SWAP2 SWAP1 PUSH2 0x6EC JUMP JUMPDEST POP PUSH2 0x2BB PUSH2 0x5DF JUMP JUMPDEST PUSH1 0x65 DUP1 SLOAD PUSH1 0x1 PUSH1 0x1 PUSH1 0xA0 SHL SUB NOT AND PUSH1 0x1 PUSH1 0x1 PUSH1 0xA0 SHL SUB DUP6 AND OR SWAP1 SSTORE PUSH1 0x66 DUP3 SWAP1 SSTORE DUP1 ISZERO PUSH2 0x321 JUMPI PUSH1 0x0 DUP1 SLOAD PUSH2 0xFF00 NOT AND SWAP1 SSTORE PUSH1 0x40 MLOAD PUSH1 0x1 DUP2 MSTORE PUSH32 0x7F26B83FF96E1F2B6A682F133852F6798A09C465DA95921460CEFB3847402498 SWAP1 PUSH1 0x20 ADD PUSH1 0x40 MLOAD DUP1 SWAP2 SUB SWAP1 LOG1 JUMPDEST POP POP POP JUMP JUMPDEST PUSH1 0x67 SLOAD PUSH1 0x1 PUSH1 0x1 PUSH1 0xA0 SHL SUB AND CALLER EQ PUSH2 0x351 JUMPI PUSH1 0x40 MLOAD PUSH4 0xD3E80F79 PUSH1 0xE0 SHL DUP2 MSTORE PUSH1 0x4 ADD PUSH1 0x40 MLOAD DUP1 SWAP2 SUB SWAP1 REVERT JUMPDEST PUSH9 0x3635C9ADC5DEA00000 DUP2 GT ISZERO PUSH2 0x37B JUMPI PUSH1 0x40 MLOAD PUSH4 0x74DEDEB PUSH1 0xE1 SHL DUP2 MSTORE PUSH1 0x4 ADD PUSH1 0x40 MLOAD DUP1 SWAP2 SUB SWAP1 REVERT JUMPDEST PUSH1 0x66 DUP1 SLOAD SWAP1 DUP3 SWAP1 SSTORE PUSH1 0x40 DUP1 MLOAD DUP3 DUP2 MSTORE PUSH1 0x20 DUP2 ADD DUP5 SWAP1 MSTORE CALLER SWAP2 PUSH32 0xDE8475CEC749561C373D0A6DC945AEAE0C2B5C44568C89322C9B449D2B7C9D12 SWAP2 ADD PUSH1 0x40 MLOAD DUP1 SWAP2 SUB SWAP1 LOG2 POP POP JUMP JUMPDEST PUSH1 0x66 SLOAD PUSH1 0x65 SLOAD PUSH1 0x40 MLOAD PUSH4 0x70A08231 PUSH1 0xE0 SHL DUP2 MSTORE PUSH1 0x1 PUSH1 0x1 PUSH1 0xA0 SHL SUB DUP5 DUP2 AND PUSH1 0x4 DUP4 ADD MSTORE PUSH1 0x0 SWAP4 PUSH8 0xDE0B6B3A7640000 SWAP4 SWAP1 SWAP3 SWAP2 AND SWAP1 PUSH4 0x70A08231 SWAP1 PUSH1 0x24 ADD PUSH1 0x20 PUSH1 0x40 MLOAD DUP1 DUP4 SUB DUP2 DUP7 GAS STATICCALL ISZERO DUP1 ISZERO PUSH2 0x41D JUMPI RETURNDATASIZE PUSH1 0x0 DUP1 RETURNDATACOPY RETURNDATASIZE PUSH1 0x0 REVERT JUMPDEST POP POP POP POP PUSH1 0x40 MLOAD RETURNDATASIZE PUSH1 0x1F NOT PUSH1 0x1F DUP3 ADD AND DUP3 ADD DUP1 PUSH1 0x40 MSTORE POP DUP2 ADD SWAP1 PUSH2 0x441 SWAP2 SWAP1 PUSH2 0x6EC JUMP JUMPDEST PUSH2 0x44B SWAP2 SWAP1 PUSH2 0x705 JUMP JUMPDEST PUSH2 0x455 SWAP2 SWAP1 PUSH2 0x732 JUMP JUMPDEST SWAP3 SWAP2 POP POP JUMP JUMPDEST PUSH1 0x33 SLOAD PUSH1 0x1 PUSH1 0x1 PUSH1 0xA0 SHL SUB AND CALLER EQ PUSH2 0x485 JUMPI PUSH1 0x40 MLOAD PUSH3 0x461BCD PUSH1 0xE5 SHL DUP2 MSTORE PUSH1 0x4 ADD PUSH2 0x1A1 SWAP1 PUSH2 0x6B7 JUMP JUMPDEST PUSH1 0x1 PUSH1 0x1 PUSH1 0xA0 SHL SUB DUP2 AND PUSH2 0x4EA JUMPI PUSH1 0x40 MLOAD PUSH3 0x461BCD PUSH1 0xE5 SHL DUP2 MSTORE PUSH1 0x20 PUSH1 0x4 DUP3 ADD MSTORE PUSH1 0x26 PUSH1 0x24 DUP3 ADD MSTORE PUSH32 0x4F776E61626C653A206E6577206F776E657220697320746865207A65726F2061 PUSH1 0x44 DUP3 ADD MSTORE PUSH6 0x646472657373 PUSH1 0xD0 SHL PUSH1 0x64 DUP3 ADD MSTORE PUSH1 0x84 ADD PUSH2 0x1A1 JUMP JUMPDEST PUSH2 0x4F3 DUP2 PUSH2 0x505 JUMP JUMPDEST POP JUMP JUMPDEST PUSH1 0x1 PUSH1 0x1 PUSH1 0xA0 SHL SUB AND EXTCODESIZE ISZERO ISZERO SWAP1 JUMP JUMPDEST PUSH1 0x33 DUP1 SLOAD PUSH1 0x1 PUSH1 0x1 PUSH1 0xA0 SHL SUB DUP4 DUP2 AND PUSH1 0x1 PUSH1 0x1 PUSH1 0xA0 SHL SUB NOT DUP4 AND DUP2 OR SWAP1 SWAP4 SSTORE PUSH1 0x40 MLOAD SWAP2 AND SWAP2 SWAP1 DUP3 SWAP1 PUSH32 0x8BE0079C531659141344CD1FD0A4F28419497F9722A3DAAFE3B4186F6B6457E0 SWAP1 PUSH1 0x0 SWAP1 LOG3 POP POP JUMP JUMPDEST PUSH1 0x0 DUP1 SLOAD PUSH2 0x100 SWAP1 DIV PUSH1 0xFF AND ISZERO PUSH2 0x59E JUMPI DUP2 PUSH1 0xFF AND PUSH1 0x1 EQ DUP1 ISZERO PUSH2 0x57A JUMPI POP ADDRESS EXTCODESIZE ISZERO JUMPDEST PUSH2 0x596 JUMPI PUSH1 0x40 MLOAD PUSH3 0x461BCD PUSH1 0xE5 SHL DUP2 MSTORE PUSH1 0x4 ADD PUSH2 0x1A1 SWAP1 PUSH2 0x754 JUMP JUMPDEST POP PUSH1 0x0 SWAP2 SWAP1 POP JUMP JUMPDEST PUSH1 0x0 SLOAD PUSH1 0xFF DUP1 DUP5 AND SWAP2 AND LT PUSH2 0x5C5 JUMPI PUSH1 0x40 MLOAD PUSH3 0x461BCD PUSH1 0xE5 SHL DUP2 MSTORE PUSH1 0x4 ADD PUSH2 0x1A1 SWAP1 PUSH2 0x754 JUMP JUMPDEST POP PUSH1 0x0 DUP1 SLOAD PUSH1 0xFF NOT AND PUSH1 0xFF SWAP3 SWAP1 SWAP3 AND SWAP2 SWAP1 SWAP2 OR SWAP1 SSTORE PUSH1 0x1 SWAP1 JUMP JUMPDEST PUSH1 0x0 SLOAD PUSH2 0x100 SWAP1 DIV PUSH1 0xFF AND PUSH2 0x606 JUMPI PUSH1 0x40 MLOAD PUSH3 0x461BCD PUSH1 0xE5 SHL DUP2 MSTORE PUSH1 0x4 ADD PUSH2 0x1A1 SWAP1 PUSH2 0x7A2 JUMP JUMPDEST PUSH2 0x1B4 PUSH1 0x0 SLOAD PUSH2 0x100 SWAP1 DIV PUSH1 0xFF AND PUSH2 0x630 JUMPI PUSH1 0x40 MLOAD PUSH3 0x461BCD PUSH1 0xE5 SHL DUP2 MSTORE PUSH1 0x4 ADD PUSH2 0x1A1 SWAP1 PUSH2 0x7A2 JUMP JUMPDEST PUSH2 0x1B4 CALLER PUSH2 0x505 JUMP JUMPDEST PUSH1 0x1 PUSH1 0x1 PUSH1 0xA0 SHL SUB DUP2 AND DUP2 EQ PUSH2 0x4F3 JUMPI PUSH1 0x0 DUP1 REVERT JUMPDEST PUSH1 0x0 PUSH1 0x20 DUP3 DUP5 SUB SLT ISZERO PUSH2 0x660 JUMPI PUSH1 0x0 DUP1 REVERT JUMPDEST DUP2 CALLDATALOAD PUSH2 0x66B DUP2 PUSH2 0x639 JUMP JUMPDEST SWAP4 SWAP3 POP POP POP JUMP JUMPDEST PUSH1 0x0 DUP1 PUSH1 0x40 DUP4 DUP6 SUB SLT ISZERO PUSH2 0x685 JUMPI PUSH1 0x0 DUP1 REVERT JUMPDEST DUP3 CALLDATALOAD PUSH2 0x690 DUP2 PUSH2 0x639 JUMP JUMPDEST SWAP5 PUSH1 0x20 SWAP4 SWAP1 SWAP4 ADD CALLDATALOAD SWAP4 POP POP POP JUMP JUMPDEST PUSH1 0x0 PUSH1 0x20 DUP3 DUP5 SUB SLT ISZERO PUSH2 0x6B0 JUMPI PUSH1 0x0 DUP1 REVERT JUMPDEST POP CALLDATALOAD SWAP2 SWAP1 POP JUMP JUMPDEST PUSH1 0x20 DUP1 DUP3 MSTORE DUP2 DUP2 ADD MSTORE PUSH32 0x4F776E61626C653A2063616C6C6572206973206E6F7420746865206F776E6572 PUSH1 0x40 DUP3 ADD MSTORE PUSH1 0x60 ADD SWAP1 JUMP JUMPDEST PUSH1 0x0 PUSH1 0x20 DUP3 DUP5 SUB SLT ISZERO PUSH2 0x6FE JUMPI PUSH1 0x0 DUP1 REVERT JUMPDEST POP MLOAD SWAP2 SWAP1 POP JUMP JUMPDEST PUSH1 0x0 DUP2 PUSH1 0x0 NOT DIV DUP4 GT DUP3 ISZERO ISZERO AND ISZERO PUSH2 0x72D JUMPI PUSH4 0x4E487B71 PUSH1 0xE0 SHL PUSH1 0x0 MSTORE PUSH1 0x11 PUSH1 0x4 MSTORE PUSH1 0x24 PUSH1 0x0 REVERT JUMPDEST POP MUL SWAP1 JUMP JUMPDEST PUSH1 0x0 DUP3 PUSH2 0x74F JUMPI PUSH4 0x4E487B71 PUSH1 0xE0 SHL PUSH1 0x0 MSTORE PUSH1 0x12 PUSH1 0x4 MSTORE PUSH1 0x24 PUSH1 0x0 REVERT JUMPDEST POP DIV SWAP1 JUMP JUMPDEST PUSH1 0x20 DUP1 DUP3 MSTORE PUSH1 0x2E SWAP1 DUP3 ADD MSTORE PUSH32 0x496E697469616C697A61626C653A20636F6E747261637420697320616C726561 PUSH1 0x40 DUP3 ADD MSTORE PUSH14 0x191E481A5B9A5D1A585B1A5E9959 PUSH1 0x92 SHL PUSH1 0x60 DUP3 ADD MSTORE PUSH1 0x80 ADD SWAP1 JUMP JUMPDEST PUSH1 0x20 DUP1 DUP3 MSTORE PUSH1 0x2B SWAP1 DUP3 ADD MSTORE PUSH32 0x496E697469616C697A61626C653A20636F6E7472616374206973206E6F742069 PUSH1 0x40 DUP3 ADD MSTORE PUSH11 0x6E697469616C697A696E67 PUSH1 0xA8 SHL PUSH1 0x60 DUP3 ADD MSTORE PUSH1 0x80 ADD SWAP1 JUMP INVALID LOG2 PUSH5 0x6970667358 0x22 SLT KECCAK256 RETURNDATASIZE 0xEB BLOCKHASH 0xEF SWAP15 0xEB LOG4 PUSH4 0x11084564 PUSH5 0xFC5D0D5EC3 0xE5 0xDF 0x26 0xBA 0xCE 0xF8 NOT 0xD0 0xCA DUP2 0xCD ADD ADDMOD MSTORE8 PUSH5 0x736F6C6343 STOP ADDMOD 0xD STOP CALLER 0x49 PUSH15 0x697469616C697A61626C653A20636F PUSH15 0x747261637420697320616C72656100 "
				},
				"gasEstimates": {
					"creation": {
						"codeDepositCost": "416600",
						"executionCost": "infinite",
						"totalCost": "infinite"
					},
					"external": {
						"getUserCredit(address)": "infinite",
						"initialize(address,uint256)": "infinite",
						"owner()": "2398",
						"renounceOwnership()": "28140",
						"setValuePerxALPACA(uint256)": "28364",
						"setValueSetter(address)": "28224",
						"transferOwnership(address)": "infinite",
						"valuePerxALPACA()": "2285",
						"valueSetter()": "2382",
						"xALPACA()": "2426"
					}
				},
				"methodIdentifiers": {
					"getUserCredit(address)": "dad6f0dc",
					"initialize(address,uint256)": "cd6dc687",
					"owner()": "8da5cb5b",
					"renounceOwnership()": "715018a6",
					"setValuePerxALPACA(uint256)": "cd946ba8",
					"setValueSetter(address)": "b6df14ab",
					"transferOwnership(address)": "f2fde38b",
					"valuePerxALPACA()": "2ba4f0a2",
					"valueSetter()": "7c5f6349",
					"xALPACA()": "b224f9bb"
				}
			},
			"storageLayout": {
				"storage": [
					{
						"astId": 130,
						"contract": "contracts/xALPACACreditor.sol:xALPACACreditor",
						"label": "_initialized",
						"offset": 0,
						"slot": "0",
						"type": "t_uint8"
					},
					{
						"astId": 133,
						"contract": "contracts/xALPACACreditor.sol:xALPACACreditor",
						"label": "_initializing",
						"offset": 1,
						"slot": "0",
						"type": "t_bool"
					},
					{
						"astId": 549,
						"contract": "contracts/xALPACACreditor.sol:xALPACACreditor",
						"label": "__gap",
						"offset": 0,
						"slot": "1",
						"type": "t_array(t_uint256)50_storage"
					},
					{
						"astId": 10,
						"contract": "contracts/xALPACACreditor.sol:xALPACACreditor",
						"label": "_owner",
						"offset": 0,
						"slot": "51",
						"type": "t_address"
					},
					{
						"astId": 122,
						"contract": "contracts/xALPACACreditor.sol:xALPACACreditor",
						"label": "__gap",
						"offset": 0,
						"slot": "52",
						"type": "t_array(t_uint256)49_storage"
					},
					{
						"astId": 618,
						"contract": "contracts/xALPACACreditor.sol:xALPACACreditor",
						"label": "xALPACA",
						"offset": 0,
						"slot": "101",
						"type": "t_contract(IxALPACA)584"
					},
					{
						"astId": 620,
						"contract": "contracts/xALPACACreditor.sol:xALPACACreditor",
						"label": "valuePerxALPACA",
						"offset": 0,
						"slot": "102",
						"type": "t_uint256"
					},
					{
						"astId": 622,
						"contract": "contracts/xALPACACreditor.sol:xALPACACreditor",
						"label": "valueSetter",
						"offset": 0,
						"slot": "103",
						"type": "t_address"
					}
				],
				"types": {
					"t_address": {
						"encoding": "inplace",
						"label": "address",
						"numberOfBytes": "20"
					},
					"t_array(t_uint256)49_storage": {
						"base": "t_uint256",
						"encoding": "inplace",
						"label": "uint256[49]",
						"numberOfBytes": "1568"
					},
					"t_array(t_uint256)50_storage": {
						"base": "t_uint256",
						"encoding": "inplace",
						"label": "uint256[50]",
						"numberOfBytes": "1600"
					},
					"t_bool": {
						"encoding": "inplace",
						"label": "bool",
						"numberOfBytes": "1"
					},
					"t_contract(IxALPACA)584": {
						"encoding": "inplace",
						"label": "contract IxALPACA",
						"numberOfBytes": "20"
					},
					"t_uint256": {
						"encoding": "inplace",
						"label": "uint256",
						"numberOfBytes": "32"
					},
					"t_uint8": {
						"encoding": "inplace",
						"label": "uint8",
						"numberOfBytes": "1"
					}
				}
			},
			"userdoc": {
				"kind": "user",
				"methods": {
					"getUserCredit(address)": {
						"notice": "Get user's credit in USD value"
					},
					"initialize(address,uint256)": {
						"notice": "Initialize xALPACACreditor"
					},
					"setValuePerxALPACA(uint256)": {
						"notice": "Set the value per xALPACA"
					},
					"setValueSetter(address)": {
						"notice": "set the value setter"
					}
				},
				"version": 1
			}
		}
	}
}