{
	"contracts/DeltaNeutralVaultConfig02.sol": {
		"DeltaNeutralVaultConfig02": {
			"abi": [
				{
					"inputs": [],
					"name": "DeltaNeutralVaultConfig_InvalidReinvestPath",
					"type": "error"
				},
				{
					"inputs": [],
					"name": "DeltaNeutralVaultConfig_InvalidReinvestPathLength",
					"type": "error"
				},
				{
					"inputs": [],
					"name": "DeltaNeutralVaultConfig_InvalidSwapRouter",
					"type": "error"
				},
				{
					"inputs": [],
					"name": "DeltaNeutralVaultConfig_LeverageLevelTooLow",
					"type": "error"
				},
				{
					"inputs": [
						{
							"internalType": "uint256",
							"name": "_bounty",
							"type": "uint256"
						}
					],
					"name": "DeltaNeutralVaultConfig_TooMuchBounty",
					"type": "error"
				},
				{
					"inputs": [
						{
							"internalType": "uint256",
							"name": "_depositFeeBps",
							"type": "uint256"
						},
						{
							"internalType": "uint256",
							"name": "_withdrawalFeeBps",
							"type": "uint256"
						},
						{
							"internalType": "uint256",
							"name": "_mangementFeeBps",
							"type": "uint256"
						}
					],
					"name": "DeltaNeutralVaultConfig_TooMuchFee",
					"type": "error"
				},
				{
					"anonymous": false,
					"inputs": [
						{
							"indexed": false,
							"internalType": "uint8",
							"name": "version",
							"type": "uint8"
						}
					],
					"name": "Initialized",
					"type": "event"
				},
				{
					"anonymous": false,
					"inputs": [
						{
							"indexed": true,
							"internalType": "address",
							"name": "_caller",
							"type": "address"
						},
						{
							"indexed": false,
							"internalType": "address",
							"name": "_alpacaBeneficiary",
							"type": "address"
						},
						{
							"indexed": false,
							"internalType": "uint256",
							"name": "_alpacaBeneficiaryBps",
							"type": "uint256"
						}
					],
					"name": "LogSetAlpacaBeneficiaryConfig",
					"type": "event"
				},
				{
					"anonymous": false,
					"inputs": [
						{
							"indexed": true,
							"internalType": "address",
							"name": "_caller",
							"type": "address"
						},
						{
							"indexed": false,
							"internalType": "address",
							"name": "_alpacaReinvestTreasury",
							"type": "address"
						},
						{
							"indexed": false,
							"internalType": "uint256",
							"name": "_alpacaBountyBps",
							"type": "uint256"
						}
					],
					"name": "LogSetAlpacaBountyConfig",
					"type": "event"
				},
				{
					"anonymous": false,
					"inputs": [
						{
							"indexed": true,
							"internalType": "address",
							"name": "_caller",
							"type": "address"
						},
						{
							"indexed": false,
							"internalType": "address",
							"name": "_controller",
							"type": "address"
						}
					],
					"name": "LogSetController",
					"type": "event"
				},
				{
					"anonymous": false,
					"inputs": [
						{
							"indexed": true,
							"internalType": "address",
							"name": "_caller",
							"type": "address"
						},
						{
							"indexed": false,
							"internalType": "address",
							"name": "_depositExecutor",
							"type": "address"
						},
						{
							"indexed": false,
							"internalType": "address",
							"name": "_withdrawExecutor",
							"type": "address"
						},
						{
							"indexed": false,
							"internalType": "address",
							"name": "_rebalanceExecutor",
							"type": "address"
						},
						{
							"indexed": false,
							"internalType": "address",
							"name": "_reinvestExecutor",
							"type": "address"
						}
					],
					"name": "LogSetExecutor",
					"type": "event"
				},
				{
					"anonymous": false,
					"inputs": [
						{
							"indexed": true,
							"internalType": "address",
							"name": "_caller",
							"type": "address"
						},
						{
							"indexed": true,
							"internalType": "address",
							"name": "_address",
							"type": "address"
						},
						{
							"indexed": false,
							"internalType": "bool",
							"name": "_ok",
							"type": "bool"
						}
					],
					"name": "LogSetFeeExemptedCallers",
					"type": "event"
				},
				{
					"anonymous": false,
					"inputs": [
						{
							"indexed": true,
							"internalType": "address",
							"name": "_caller",
							"type": "address"
						},
						{
							"indexed": false,
							"internalType": "address",
							"name": "_depositFeeTreasury",
							"type": "address"
						},
						{
							"indexed": false,
							"internalType": "address",
							"name": "_withdrawFeeTreasury",
							"type": "address"
						},
						{
							"indexed": false,
							"internalType": "address",
							"name": "_managementFeeTreasury",
							"type": "address"
						}
					],
					"name": "LogSetFeeTreasury",
					"type": "event"
				},
				{
					"anonymous": false,
					"inputs": [
						{
							"indexed": true,
							"internalType": "address",
							"name": "_caller",
							"type": "address"
						},
						{
							"indexed": false,
							"internalType": "uint256",
							"name": "_depositFeeBps",
							"type": "uint256"
						},
						{
							"indexed": false,
							"internalType": "uint256",
							"name": "_withdrawalFeeBps",
							"type": "uint256"
						},
						{
							"indexed": false,
							"internalType": "uint256",
							"name": "_managementFeePerSec",
							"type": "uint256"
						}
					],
					"name": "LogSetFees",
					"type": "event"
				},
				{
					"anonymous": false,
					"inputs": [
						{
							"indexed": true,
							"internalType": "address",
							"name": "_caller",
							"type": "address"
						},
						{
							"indexed": false,
							"internalType": "uint8",
							"name": "_newLeverageLevel",
							"type": "uint8"
						}
					],
					"name": "LogSetLeverageLevel",
					"type": "event"
				},
				{
					"anonymous": false,
					"inputs": [
						{
							"indexed": true,
							"internalType": "address",
							"name": "_caller",
							"type": "address"
						},
						{
							"indexed": false,
							"internalType": "address",
							"name": "_getWrappedNativeAddr",
							"type": "address"
						},
						{
							"indexed": false,
							"internalType": "address",
							"name": "_getWNativeRelayer",
							"type": "address"
						},
						{
							"indexed": false,
							"internalType": "address",
							"name": "_fairLaunchAddr",
							"type": "address"
						},
						{
							"indexed": false,
							"internalType": "uint256",
							"name": "_rebalanceFactor",
							"type": "uint256"
						},
						{
							"indexed": false,
							"internalType": "uint256",
							"name": "_positionValueTolerance",
							"type": "uint256"
						},
						{
							"indexed": false,
							"internalType": "uint256",
							"name": "_debtRatioTolerance",
							"type": "uint256"
						}
					],
					"name": "LogSetParams",
					"type": "event"
				},
				{
					"anonymous": false,
					"inputs": [
						{
							"indexed": true,
							"internalType": "address",
							"name": "_caller",
							"type": "address"
						},
						{
							"indexed": false,
							"internalType": "address[]",
							"name": "_reinvestPath",
							"type": "address[]"
						}
					],
					"name": "LogSetReinvestPath",
					"type": "event"
				},
				{
					"anonymous": false,
					"inputs": [
						{
							"indexed": true,
							"internalType": "address",
							"name": "_caller",
							"type": "address"
						},
						{
							"indexed": false,
							"internalType": "address",
							"name": "partialCloseMinimizeStrategy",
							"type": "address"
						},
						{
							"indexed": false,
							"internalType": "address",
							"name": "stableAddTwoSideStrategy",
							"type": "address"
						},
						{
							"indexed": false,
							"internalType": "address",
							"name": "assetAddTwoSideStrategy",
							"type": "address"
						}
					],
					"name": "LogSetStrategies",
					"type": "event"
				},
				{
					"anonymous": false,
					"inputs": [
						{
							"indexed": true,
							"internalType": "address",
							"name": "_caller",
							"type": "address"
						},
						{
							"indexed": false,
							"internalType": "uint256",
							"name": "swapFee",
							"type": "uint256"
						},
						{
							"indexed": false,
							"internalType": "uint256",
							"name": "swapFeeDenom",
							"type": "uint256"
						}
					],
					"name": "LogSetSwapConfig",
					"type": "event"
				},
				{
					"anonymous": false,
					"inputs": [
						{
							"indexed": true,
							"internalType": "address",
							"name": "_caller",
							"type": "address"
						},
						{
							"indexed": true,
							"internalType": "address",
							"name": "_swapRouter",
							"type": "address"
						},
						{
							"indexed": false,
							"internalType": "address",
							"name": "source",
							"type": "address"
						},
						{
							"indexed": false,
							"internalType": "address",
							"name": "destination",
							"type": "address"
						}
					],
					"name": "LogSetSwapRoute",
					"type": "event"
				},
				{
					"anonymous": false,
					"inputs": [
						{
							"indexed": true,
							"internalType": "address",
							"name": "_caller",
							"type": "address"
						},
						{
							"indexed": false,
							"internalType": "address",
							"name": "_swapRouter",
							"type": "address"
						}
					],
					"name": "LogSetSwapRouter",
					"type": "event"
				},
				{
					"anonymous": false,
					"inputs": [
						{
							"indexed": true,
							"internalType": "address",
							"name": "_caller",
							"type": "address"
						},
						{
							"indexed": false,
							"internalType": "uint256",
							"name": "_maxVaultPositionValue",
							"type": "uint256"
						}
					],
					"name": "LogSetValueLimit",
					"type": "event"
				},
				{
					"anonymous": false,
					"inputs": [
						{
							"indexed": true,
							"internalType": "address",
							"name": "_caller",
							"type": "address"
						},
						{
							"indexed": true,
							"internalType": "address",
							"name": "_address",
							"type": "address"
						},
						{
							"indexed": false,
							"internalType": "bool",
							"name": "_ok",
							"type": "bool"
						}
					],
					"name": "LogSetWhitelistedCallers",
					"type": "event"
				},
				{
					"anonymous": false,
					"inputs": [
						{
							"indexed": true,
							"internalType": "address",
							"name": "_caller",
							"type": "address"
						},
						{
							"indexed": true,
							"internalType": "address",
							"name": "_address",
							"type": "address"
						},
						{
							"indexed": false,
							"internalType": "bool",
							"name": "_ok",
							"type": "bool"
						}
					],
					"name": "LogSetWhitelistedRebalancers",
					"type": "event"
				},
				{
					"anonymous": false,
					"inputs": [
						{
							"indexed": true,
							"internalType": "address",
							"name": "_caller",
							"type": "address"
						},
						{
							"indexed": true,
							"internalType": "address",
							"name": "_address",
							"type": "address"
						},
						{
							"indexed": false,
							"internalType": "bool",
							"name": "_ok",
							"type": "bool"
						}
					],
					"name": "LogSetWhitelistedReinvestors",
					"type": "event"
				},
				{
					"anonymous": false,
					"inputs": [
						{
							"indexed": true,
							"internalType": "address",
							"name": "previousOwner",
							"type": "address"
						},
						{
							"indexed": true,
							"internalType": "address",
							"name": "newOwner",
							"type": "address"
						}
					],
					"name": "OwnershipTransferred",
					"type": "event"
				},
				{
					"inputs": [],
					"name": "alpacaBeneficiary",
					"outputs": [
						{
							"internalType": "address",
							"name": "",
							"type": "address"
						}
					],
					"stateMutability": "view",
					"type": "function"
				},
				{
					"inputs": [],
					"name": "alpacaBeneficiaryBps",
					"outputs": [
						{
							"internalType": "uint256",
							"name": "",
							"type": "uint256"
						}
					],
					"stateMutability": "view",
					"type": "function"
				},
				{
					"inputs": [],
					"name": "alpacaBountyBps",
					"outputs": [
						{
							"internalType": "uint256",
							"name": "",
							"type": "uint256"
						}
					],
					"stateMutability": "view",
					"type": "function"
				},
				{
					"inputs": [],
					"name": "alpacaReinvestFeeTreasury",
					"outputs": [
						{
							"internalType": "address",
							"name": "",
							"type": "address"
						}
					],
					"stateMutability": "view",
					"type": "function"
				},
				{
					"inputs": [],
					"name": "alpacaToken",
					"outputs": [
						{
							"internalType": "address",
							"name": "",
							"type": "address"
						}
					],
					"stateMutability": "view",
					"type": "function"
				},
				{
					"inputs": [],
					"name": "assetAddTwoSideStrategy",
					"outputs": [
						{
							"internalType": "address",
							"name": "",
							"type": "address"
						}
					],
					"stateMutability": "view",
					"type": "function"
				},
				{
					"inputs": [],
					"name": "controller",
					"outputs": [
						{
							"internalType": "address",
							"name": "",
							"type": "address"
						}
					],
					"stateMutability": "view",
					"type": "function"
				},
				{
					"inputs": [],
					"name": "debtRatioTolerance",
					"outputs": [
						{
							"internalType": "uint256",
							"name": "",
							"type": "uint256"
						}
					],
					"stateMutability": "view",
					"type": "function"
				},
				{
					"inputs": [],
					"name": "depositExecutor",
					"outputs": [
						{
							"internalType": "address",
							"name": "",
							"type": "address"
						}
					],
					"stateMutability": "view",
					"type": "function"
				},
				{
					"inputs": [],
					"name": "depositFeeBps",
					"outputs": [
						{
							"internalType": "uint256",
							"name": "",
							"type": "uint256"
						}
					],
					"stateMutability": "view",
					"type": "function"
				},
				{
					"inputs": [],
					"name": "depositFeeTreasury",
					"outputs": [
						{
							"internalType": "address",
							"name": "",
							"type": "address"
						}
					],
					"stateMutability": "view",
					"type": "function"
				},
				{
					"inputs": [],
					"name": "fairLaunchAddr",
					"outputs": [
						{
							"internalType": "address",
							"name": "",
							"type": "address"
						}
					],
					"stateMutability": "view",
					"type": "function"
				},
				{
					"inputs": [
						{
							"internalType": "address",
							"name": "",
							"type": "address"
						}
					],
					"name": "feeExemptedCallers",
					"outputs": [
						{
							"internalType": "bool",
							"name": "",
							"type": "bool"
						}
					],
					"stateMutability": "view",
					"type": "function"
				},
				{
					"inputs": [],
					"name": "getReinvestPath",
					"outputs": [
						{
							"internalType": "address[]",
							"name": "",
							"type": "address[]"
						}
					],
					"stateMutability": "view",
					"type": "function"
				},
				{
					"inputs": [],
					"name": "getSwapRouter",
					"outputs": [
						{
							"internalType": "address",
							"name": "",
							"type": "address"
						}
					],
					"stateMutability": "view",
					"type": "function"
				},
				{
					"inputs": [],
					"name": "getWNativeRelayer",
					"outputs": [
						{
							"internalType": "address",
							"name": "",
							"type": "address"
						}
					],
					"stateMutability": "view",
					"type": "function"
				},
				{
					"inputs": [],
					"name": "getWrappedNativeAddr",
					"outputs": [
						{
							"internalType": "address",
							"name": "",
							"type": "address"
						}
					],
					"stateMutability": "view",
					"type": "function"
				},
				{
					"inputs": [
						{
							"internalType": "address",
							"name": "_getWrappedNativeAddr",
							"type": "address"
						},
						{
							"internalType": "address",
							"name": "_getWNativeRelayer",
							"type": "address"
						},
						{
							"internalType": "address",
							"name": "_fairLaunchAddr",
							"type": "address"
						},
						{
							"internalType": "uint256",
							"name": "_rebalanceFactor",
							"type": "uint256"
						},
						{
							"internalType": "uint256",
							"name": "_positionValueTolerance",
							"type": "uint256"
						},
						{
							"internalType": "uint256",
							"name": "_debtRatioTolerance",
							"type": "uint256"
						},
						{
							"internalType": "address",
							"name": "_depositFeeTreasury",
							"type": "address"
						},
						{
							"internalType": "address",
							"name": "_managementFeeTreasury",
							"type": "address"
						},
						{
							"internalType": "address",
							"name": "_withdrawFeeTreasury",
							"type": "address"
						},
						{
							"internalType": "address",
							"name": "_alpacaToken",
							"type": "address"
						}
					],
					"name": "initialize",
					"outputs": [],
					"stateMutability": "nonpayable",
					"type": "function"
				},
				{
					"inputs": [
						{
							"internalType": "address",
							"name": "_caller",
							"type": "address"
						}
					],
					"name": "isExecutor",
					"outputs": [
						{
							"internalType": "bool",
							"name": "",
							"type": "bool"
						}
					],
					"stateMutability": "view",
					"type": "function"
				},
				{
					"inputs": [
						{
							"internalType": "uint256",
							"name": "_totalPositionValue",
							"type": "uint256"
						}
					],
					"name": "isVaultSizeAcceptable",
					"outputs": [
						{
							"internalType": "bool",
							"name": "",
							"type": "bool"
						}
					],
					"stateMutability": "view",
					"type": "function"
				},
				{
					"inputs": [],
					"name": "leverageLevel",
					"outputs": [
						{
							"internalType": "uint8",
							"name": "",
							"type": "uint8"
						}
					],
					"stateMutability": "view",
					"type": "function"
				},
				{
					"inputs": [],
					"name": "managementFeePerSec",
					"outputs": [
						{
							"internalType": "uint256",
							"name": "",
							"type": "uint256"
						}
					],
					"stateMutability": "view",
					"type": "function"
				},
				{
					"inputs": [],
					"name": "managementFeeTreasury",
					"outputs": [
						{
							"internalType": "address",
							"name": "",
							"type": "address"
						}
					],
					"stateMutability": "view",
					"type": "function"
				},
				{
					"inputs": [],
					"name": "maxVaultPositionValue",
					"outputs": [
						{
							"internalType": "uint256",
							"name": "",
							"type": "uint256"
						}
					],
					"stateMutability": "view",
					"type": "function"
				},
				{
					"inputs": [],
					"name": "owner",
					"outputs": [
						{
							"internalType": "address",
							"name": "",
							"type": "address"
						}
					],
					"stateMutability": "view",
					"type": "function"
				},
				{
					"inputs": [],
					"name": "partialCloseMinimizeStrategy",
					"outputs": [
						{
							"internalType": "address",
							"name": "",
							"type": "address"
						}
					],
					"stateMutability": "view",
					"type": "function"
				},
				{
					"inputs": [],
					"name": "positionValueTolerance",
					"outputs": [
						{
							"internalType": "uint256",
							"name": "",
							"type": "uint256"
						}
					],
					"stateMutability": "view",
					"type": "function"
				},
				{
					"inputs": [],
					"name": "rebalanceExecutor",
					"outputs": [
						{
							"internalType": "address",
							"name": "",
							"type": "address"
						}
					],
					"stateMutability": "view",
					"type": "function"
				},
				{
					"inputs": [],
					"name": "rebalanceFactor",
					"outputs": [
						{
							"internalType": "uint256",
							"name": "",
							"type": "uint256"
						}
					],
					"stateMutability": "view",
					"type": "function"
				},
				{
					"inputs": [],
					"name": "reinvestExecutor",
					"outputs": [
						{
							"internalType": "address",
							"name": "",
							"type": "address"
						}
					],
					"stateMutability": "view",
					"type": "function"
				},
				{
					"inputs": [
						{
							"internalType": "uint256",
							"name": "",
							"type": "uint256"
						}
					],
					"name": "reinvestPath",
					"outputs": [
						{
							"internalType": "address",
							"name": "",
							"type": "address"
						}
					],
					"stateMutability": "view",
					"type": "function"
				},
				{
					"inputs": [],
					"name": "renounceOwnership",
					"outputs": [],
					"stateMutability": "nonpayable",
					"type": "function"
				},
				{
					"inputs": [
						{
							"internalType": "address",
							"name": "_newAlpacaBeneficiary",
							"type": "address"
						},
						{
							"internalType": "uint256",
							"name": "_newAlpacaBeneficiaryBps",
							"type": "uint256"
						}
					],
					"name": "setAlpacaBeneficiaryConfig",
					"outputs": [],
					"stateMutability": "nonpayable",
					"type": "function"
				},
				{
					"inputs": [
						{
							"internalType": "address",
							"name": "_newAlpacaReinvestFeeTreasury",
							"type": "address"
						},
						{
							"internalType": "uint256",
							"name": "_newAlpacaBountyBps",
							"type": "uint256"
						}
					],
					"name": "setAlpacaBountyConfig",
					"outputs": [],
					"stateMutability": "nonpayable",
					"type": "function"
				},
				{
					"inputs": [
						{
							"internalType": "address",
							"name": "_controller",
							"type": "address"
						}
					],
					"name": "setController",
					"outputs": [],
					"stateMutability": "nonpayable",
					"type": "function"
				},
				{
					"inputs": [
						{
							"internalType": "address",
							"name": "_depositExecutor",
							"type": "address"
						},
						{
							"internalType": "address",
							"name": "_withdrawExecutor",
							"type": "address"
						},
						{
							"internalType": "address",
							"name": "_rebalanceExecutor",
							"type": "address"
						},
						{
							"internalType": "address",
							"name": "_reinvestExecutor",
							"type": "address"
						}
					],
					"name": "setExecutor",
					"outputs": [],
					"stateMutability": "nonpayable",
					"type": "function"
				},
				{
					"inputs": [
						{
							"internalType": "address[]",
							"name": "_callers",
							"type": "address[]"
						},
						{
							"internalType": "bool",
							"name": "_ok",
							"type": "bool"
						}
					],
					"name": "setFeeExemptedCallers",
					"outputs": [],
					"stateMutability": "nonpayable",
					"type": "function"
				},
				{
					"inputs": [
						{
							"internalType": "address",
							"name": "_newDepositFeeTreasury",
							"type": "address"
						},
						{
							"internalType": "uint256",
							"name": "_newDepositFeeBps",
							"type": "uint256"
						},
						{
							"internalType": "address",
							"name": "_newWithdrawalFeeTreasury",
							"type": "address"
						},
						{
							"internalType": "uint256",
							"name": "_newWithdrawalFeeBps",
							"type": "uint256"
						},
						{
							"internalType": "address",
							"name": "_newManagementFeeTreasury",
							"type": "address"
						},
						{
							"internalType": "uint256",
							"name": "_newManagementFeePerSec",
							"type": "uint256"
						}
					],
					"name": "setFees",
					"outputs": [],
					"stateMutability": "nonpayable",
					"type": "function"
				},
				{
					"inputs": [
						{
							"internalType": "uint8",
							"name": "_newLeverageLevel",
							"type": "uint8"
						}
					],
					"name": "setLeverageLevel",
					"outputs": [],
					"stateMutability": "nonpayable",
					"type": "function"
				},
				{
					"inputs": [
						{
							"internalType": "address",
							"name": "_getWrappedNativeAddr",
							"type": "address"
						},
						{
							"internalType": "address",
							"name": "_getWNativeRelayer",
							"type": "address"
						},
						{
							"internalType": "address",
							"name": "_fairLaunchAddr",
							"type": "address"
						},
						{
							"internalType": "uint256",
							"name": "_rebalanceFactor",
							"type": "uint256"
						},
						{
							"internalType": "uint256",
							"name": "_positionValueTolerance",
							"type": "uint256"
						},
						{
							"internalType": "uint256",
							"name": "_debtRatioTolerance",
							"type": "uint256"
						}
					],
					"name": "setParams",
					"outputs": [],
					"stateMutability": "nonpayable",
					"type": "function"
				},
				{
					"inputs": [
						{
							"internalType": "address[]",
							"name": "_reinvestPath",
							"type": "address[]"
						}
					],
					"name": "setReinvestPath",
					"outputs": [],
					"stateMutability": "nonpayable",
					"type": "function"
				},
				{
					"inputs": [
						{
							"internalType": "address",
							"name": "_partialCloseMinimizeStrategy",
							"type": "address"
						},
						{
							"internalType": "address",
							"name": "_stableAddTwoSideStrategy",
							"type": "address"
						},
						{
							"internalType": "address",
							"name": "_assetAddTwoSideStrategy",
							"type": "address"
						}
					],
					"name": "setStrategies",
					"outputs": [],
					"stateMutability": "nonpayable",
					"type": "function"
				},
				{
					"inputs": [
						{
							"internalType": "uint256",
							"name": "_swapFee",
							"type": "uint256"
						},
						{
							"internalType": "uint256",
							"name": "_swapFeeDenom",
							"type": "uint256"
						}
					],
					"name": "setSwapConfig",
					"outputs": [],
					"stateMutability": "nonpayable",
					"type": "function"
				},
				{
					"inputs": [
						{
							"internalType": "address",
							"name": "_swapRouter",
							"type": "address"
						}
					],
					"name": "setSwapRouter",
					"outputs": [],
					"stateMutability": "nonpayable",
					"type": "function"
				},
				{
					"inputs": [
						{
							"internalType": "uint256",
							"name": "_maxVaultPositionValue",
							"type": "uint256"
						}
					],
					"name": "setValueLimit",
					"outputs": [],
					"stateMutability": "nonpayable",
					"type": "function"
				},
				{
					"inputs": [
						{
							"internalType": "address[]",
							"name": "_callers",
							"type": "address[]"
						},
						{
							"internalType": "bool",
							"name": "_ok",
							"type": "bool"
						}
					],
					"name": "setWhitelistedCallers",
					"outputs": [],
					"stateMutability": "nonpayable",
					"type": "function"
				},
				{
					"inputs": [
						{
							"internalType": "address[]",
							"name": "_callers",
							"type": "address[]"
						},
						{
							"internalType": "bool",
							"name": "_ok",
							"type": "bool"
						}
					],
					"name": "setWhitelistedRebalancer",
					"outputs": [],
					"stateMutability": "nonpayable",
					"type": "function"
				},
				{
					"inputs": [
						{
							"internalType": "address[]",
							"name": "_callers",
							"type": "address[]"
						},
						{
							"internalType": "bool",
							"name": "_ok",
							"type": "bool"
						}
					],
					"name": "setwhitelistedReinvestors",
					"outputs": [],
					"stateMutability": "nonpayable",
					"type": "function"
				},
				{
					"inputs": [],
					"name": "stableAddTwoSideStrategy",
					"outputs": [
						{
							"internalType": "address",
							"name": "",
							"type": "address"
						}
					],
					"stateMutability": "view",
					"type": "function"
				},
				{
					"inputs": [],
					"name": "swapFee",
					"outputs": [
						{
							"internalType": "uint256",
							"name": "",
							"type": "uint256"
						}
					],
					"stateMutability": "view",
					"type": "function"
				},
				{
					"inputs": [],
					"name": "swapFeeDenom",
					"outputs": [
						{
							"internalType": "uint256",
							"name": "",
							"type": "uint256"
						}
					],
					"stateMutability": "view",
					"type": "function"
				},
				{
					"inputs": [
						{
							"internalType": "address",
							"name": "newOwner",
							"type": "address"
						}
					],
					"name": "transferOwnership",
					"outputs": [],
					"stateMutability": "nonpayable",
					"type": "function"
				},
				{
					"inputs": [
						{
							"internalType": "address",
							"name": "",
							"type": "address"
						}
					],
					"name": "whitelistedCallers",
					"outputs": [
						{
							"internalType": "bool",
							"name": "",
							"type": "bool"
						}
					],
					"stateMutability": "view",
					"type": "function"
				},
				{
					"inputs": [
						{
							"internalType": "address",
							"name": "",
							"type": "address"
						}
					],
					"name": "whitelistedRebalancers",
					"outputs": [
						{
							"internalType": "bool",
							"name": "",
							"type": "bool"
						}
					],
					"stateMutability": "view",
					"type": "function"
				},
				{
					"inputs": [
						{
							"internalType": "address",
							"name": "",
							"type": "address"
						}
					],
					"name": "whitelistedReinvestors",
					"outputs": [
						{
							"internalType": "bool",
							"name": "",
							"type": "bool"
						}
					],
					"stateMutability": "view",
					"type": "function"
				},
				{
					"inputs": [],
					"name": "withdrawExecutor",
					"outputs": [
						{
							"internalType": "address",
							"name": "",
							"type": "address"
						}
					],
					"stateMutability": "view",
					"type": "function"
				},
				{
					"inputs": [],
					"name": "withdrawalFeeBps",
					"outputs": [
						{
							"internalType": "uint256",
							"name": "",
							"type": "uint256"
						}
					],
					"stateMutability": "view",
					"type": "function"
				},
				{
					"inputs": [],
					"name": "withdrawalFeeTreasury",
					"outputs": [
						{
							"internalType": "address",
							"name": "",
							"type": "address"
						}
					],
					"stateMutability": "view",
					"type": "function"
				}
			],
			"devdoc": {
				"kind": "dev",
				"methods": {
					"getReinvestPath()": {
						"details": "Get the reinvest path."
					},
					"isExecutor(address)": {
						"params": {
							"_caller": "caller."
						}
					},
					"isVaultSizeAcceptable(uint256)": {
						"params": {
							"_totalPositionValue": "new vault position value."
						}
					},
					"owner()": {
						"details": "Returns the address of the current owner."
					},
					"renounceOwnership()": {
						"details": "Leaves the contract without owner. It will not be possible to call `onlyOwner` functions anymore. Can only be called by the current owner. NOTE: Renouncing ownership will leave the contract without an owner, thereby removing any functionality that is only available to the owner."
					},
					"setAlpacaBeneficiaryConfig(address,uint256)": {
						"details": "Must only be called by owner.",
						"params": {
							"_newAlpacaBeneficiary": "The new address to received ALPACA reinvest fee",
							"_newAlpacaBeneficiaryBps": "Fee from reinvesting ALPACA to positions."
						}
					},
					"setAlpacaBountyConfig(address,uint256)": {
						"details": "Must only be called by owner.",
						"params": {
							"_newAlpacaBountyBps": "Fee from reinvesting ALPACA to positions.",
							"_newAlpacaReinvestFeeTreasury": "The new address to received ALPACA reinvest fee"
						}
					},
					"setController(address)": {
						"details": "Set a new controller"
					},
					"setFeeExemptedCallers(address[],bool)": {
						"details": "Must only be called by owner.",
						"params": {
							"_callers": "addresses to be exempted.",
							"_ok": "The new ok flag for callers."
						}
					},
					"setFees(address,uint256,address,uint256,address,uint256)": {
						"details": "Must only be called by owner.",
						"params": {
							"_newDepositFeeBps": "Fee when user deposit to delta neutral vault.",
							"_newManagementFeePerSec": "Mangement Fee per second.",
							"_newWithdrawalFeeBps": "Fee when user deposit to delta neutral vault."
						}
					},
					"setLeverageLevel(uint8)": {
						"details": "Must only be called by owner.",
						"params": {
							"_newLeverageLevel": "The new leverage level to be set. Must be >= 3"
						}
					},
					"setReinvestPath(address[])": {
						"details": "Set the reinvest path.",
						"params": {
							"_reinvestPath": "- The reinvest path to update."
						}
					},
					"setSwapRouter(address)": {
						"details": "Set the reinvest configuration.",
						"params": {
							"_swapRouter": "- The router address to update."
						}
					},
					"setValueLimit(uint256)": {
						"details": "Must only be called by owner.",
						"params": {
							"_maxVaultPositionValue": "Maximum vault size position value."
						}
					},
					"setWhitelistedCallers(address[],bool)": {
						"details": "Must only be called by owner.",
						"params": {
							"_callers": "addresses to be whitelisted.",
							"_ok": "The new ok flag for callers."
						}
					},
					"setWhitelistedRebalancer(address[],bool)": {
						"details": "Must only be called by owner.",
						"params": {
							"_callers": "addresses to be whitelisted.",
							"_ok": "The new ok flag for callers."
						}
					},
					"setwhitelistedReinvestors(address[],bool)": {
						"details": "Must only be called by owner.",
						"params": {
							"_callers": "addresses to be whitelisted.",
							"_ok": "The new ok flag for callers."
						}
					},
					"transferOwnership(address)": {
						"details": "Transfers ownership of the contract to a new account (`newOwner`). Can only be called by the current owner."
					}
				},
				"stateVariables": {
					"alpacaBeneficiary": {
						"details": "Return ALPACA beneficiary address."
					},
					"alpacaBeneficiaryBps": {
						"details": "Return ALPACA beneficiary bps."
					},
					"alpacaBountyBps": {
						"details": "Return alpaca bounty bps."
					},
					"alpacaReinvestFeeTreasury": {
						"details": "Return ALPACA reinvest fee treasury."
					},
					"assetAddTwoSideStrategy": {
						"details": "Return Asset add two side strategy address"
					},
					"controller": {
						"details": "Return controller address"
					},
					"depositFeeBps": {
						"details": "Get deposit fee."
					},
					"depositFeeTreasury": {
						"details": "Return the deposit fee treasury."
					},
					"fairLaunchAddr": {
						"details": "Get fairlaunch address."
					},
					"feeExemptedCallers": {
						"details": "Return if the caller is exempted from fee."
					},
					"getSwapRouter": {
						"details": "Return swap router"
					},
					"leverageLevel": {
						"details": "Get leverage level."
					},
					"managementFeePerSec": {
						"details": "Return management fee per sec."
					},
					"managementFeeTreasury": {
						"details": "Return management fee treasury"
					},
					"rebalanceExecutor": {
						"details": "Return rebalance executor"
					},
					"reinvestExecutor": {
						"details": "Return reinvest executor"
					},
					"stableAddTwoSideStrategy": {
						"details": "Return Stable add two side strategy address"
					},
					"swapFeeDenom": {
						"details": "Return swap fee denom"
					},
					"whitelistedCallers": {
						"details": "Return if the caller is whitelisted."
					},
					"whitelistedRebalancers": {
						"details": "Return if the caller is whitelisted."
					},
					"whitelistedReinvestors": {
						"details": "Return if the caller is whitelisted."
					},
					"withdrawExecutor": {
						"details": "Return withdraw executor"
					},
					"withdrawalFeeBps": {
						"details": "Get withdrawal fee."
					},
					"withdrawalFeeTreasury": {
						"details": "Return the withdrawl fee treasury."
					}
				},
				"title": "DeltaNeutralVaultConfig02 - A place where you can find all delta neutral vault config",
				"version": 1
			},
			"evm": {
				"assembly": "    /* \"contracts/DeltaNeutralVaultConfig02.sol\":584:16649  contract DeltaNeutralVaultConfig02 is IDeltaNeutralVaultConfig02, OwnableUpgradeable {... */\n  mstore(0x40, 0x80)\n  callvalue\n  dup1\n  iszero\n  tag_1\n  jumpi\n  0x00\n  dup1\n  revert\ntag_1:\n  pop\n  dataSize(sub_0)\n  dup1\n  dataOffset(sub_0)\n  0x00\n  codecopy\n  0x00\n  return\nstop\n\nsub_0: assembly {\n        /* \"contracts/DeltaNeutralVaultConfig02.sol\":584:16649  contract DeltaNeutralVaultConfig02 is IDeltaNeutralVaultConfig02, OwnableUpgradeable {... */\n      mstore(0x40, 0x80)\n      callvalue\n      dup1\n      iszero\n      tag_1\n      jumpi\n      0x00\n      dup1\n      revert\n    tag_1:\n      pop\n      jumpi(tag_2, lt(calldatasize, 0x04))\n      shr(0xe0, calldataload(0x00))\n      dup1\n      0x79d37981\n      gt\n      tag_61\n      jumpi\n      dup1\n      0xd1783fa8\n      gt\n      tag_62\n      jumpi\n      dup1\n      0xef3bac5e\n      gt\n      tag_63\n      jumpi\n      dup1\n      0xf77c4791\n      gt\n      tag_64\n      jumpi\n      dup1\n      0xf77c4791\n      eq\n      tag_57\n      jumpi\n      dup1\n      0xf9bfd907\n      eq\n      tag_58\n      jumpi\n      dup1\n      0xfe865db9\n      eq\n      tag_59\n      jumpi\n      dup1\n      0xffc97ce9\n      eq\n      tag_60\n      jumpi\n      0x00\n      dup1\n      revert\n    tag_64:\n      dup1\n      0xef3bac5e\n      eq\n      tag_53\n      jumpi\n      dup1\n      0xf2fde38b\n      eq\n      tag_54\n      jumpi\n      dup1\n      0xf52c6764\n      eq\n      tag_55\n      jumpi\n      dup1\n      0xf679eda1\n      eq\n      tag_56\n      jumpi\n      0x00\n      dup1\n      revert\n    tag_63:\n      dup1\n      0xdebfda30\n      gt\n      tag_65\n      jumpi\n      dup1\n      0xdebfda30\n      eq\n      tag_49\n      jumpi\n      dup1\n      0xe592c5fa\n      eq\n      tag_50\n      jumpi\n      dup1\n      0xe6abb8bd\n      eq\n      tag_51\n      jumpi\n      dup1\n      0xeea99787\n      eq\n      tag_52\n      jumpi\n      0x00\n      dup1\n      revert\n    tag_65:\n      dup1\n      0xd1783fa8\n      eq\n      tag_46\n      jumpi\n      dup1\n      0xd4f3949a\n      eq\n      tag_47\n      jumpi\n      dup1\n      0xd77ab72d\n      eq\n      tag_48\n      jumpi\n      0x00\n      dup1\n      revert\n    tag_62:\n      dup1\n      0x9e1b8fa2\n      gt\n      tag_66\n      jumpi\n      dup1\n      0xb192362a\n      gt\n      tag_67\n      jumpi\n      dup1\n      0xb192362a\n      eq\n      tag_42\n      jumpi\n      dup1\n      0xb8e09260\n      eq\n      tag_43\n      jumpi\n      dup1\n      0xb9059d73\n      eq\n      tag_44\n      jumpi\n      dup1\n      0xbed65bae\n      eq\n      tag_45\n      jumpi\n      0x00\n      dup1\n      revert\n    tag_67:\n      dup1\n      0x9e1b8fa2\n      eq\n      tag_39\n      jumpi\n      dup1\n      0xa361f404\n      eq\n      tag_40\n      jumpi\n      dup1\n      0xab879827\n      eq\n      tag_41\n      jumpi\n      0x00\n      dup1\n      revert\n    tag_66:\n      dup1\n      0x8ed5bb92\n      gt\n      tag_68\n      jumpi\n      dup1\n      0x8ed5bb92\n      eq\n      tag_35\n      jumpi\n      dup1\n      0x91ba87d8\n      eq\n      tag_36\n      jumpi\n      dup1\n      0x92eefe9b\n      eq\n      tag_37\n      jumpi\n      dup1\n      0x956c9da0\n      eq\n      tag_38\n      jumpi\n      0x00\n      dup1\n      revert\n    tag_68:\n      dup1\n      0x79d37981\n      eq\n      tag_32\n      jumpi\n      dup1\n      0x8c8a4b58\n      eq\n      tag_33\n      jumpi\n      dup1\n      0x8da5cb5b\n      eq\n      tag_34\n      jumpi\n      0x00\n      dup1\n      revert\n    tag_61:\n      dup1\n      0x4f40e368\n      gt\n      tag_69\n      jumpi\n      dup1\n      0x6155501b\n      gt\n      tag_70\n      jumpi\n      dup1\n      0x698d92cb\n      gt\n      tag_71\n      jumpi\n      dup1\n      0x698d92cb\n      eq\n      tag_28\n      jumpi\n      dup1\n      0x6a5bf606\n      eq\n      tag_29\n      jumpi\n      dup1\n      0x715018a6\n      eq\n      tag_30\n      jumpi\n      dup1\n      0x725c9c49\n      eq\n      tag_31\n      jumpi\n      0x00\n      dup1\n      revert\n    tag_71:\n      dup1\n      0x6155501b\n      eq\n      tag_24\n      jumpi\n      dup1\n      0x62969467\n      eq\n      tag_25\n      jumpi\n      dup1\n      0x64c65705\n      eq\n      tag_26\n      jumpi\n      dup1\n      0x64facdd5\n      eq\n      tag_27\n      jumpi\n      0x00\n      dup1\n      revert\n    tag_70:\n      dup1\n      0x58d4c4ea\n      gt\n      tag_72\n      jumpi\n      dup1\n      0x58d4c4ea\n      eq\n      tag_20\n      jumpi\n      dup1\n      0x595d4ece\n      eq\n      tag_21\n      jumpi\n      dup1\n      0x5c23aed6\n      eq\n      tag_22\n      jumpi\n      dup1\n      0x60bdf9e5\n      eq\n      tag_23\n      jumpi\n      0x00\n      dup1\n      revert\n    tag_72:\n      dup1\n      0x4f40e368\n      eq\n      tag_17\n      jumpi\n      dup1\n      0x54cf2aeb\n      eq\n      tag_18\n      jumpi\n      dup1\n      0x56fc97a0\n      eq\n      tag_19\n      jumpi\n      0x00\n      dup1\n      revert\n    tag_69:\n      dup1\n      0x2ce2a218\n      gt\n      tag_73\n      jumpi\n      dup1\n      0x41273657\n      gt\n      tag_74\n      jumpi\n      dup1\n      0x41273657\n      eq\n      tag_13\n      jumpi\n      dup1\n      0x429e0971\n      eq\n      tag_14\n      jumpi\n      dup1\n      0x45b61b00\n      eq\n      tag_15\n      jumpi\n      dup1\n      0x49b2045c\n      eq\n      tag_16\n      jumpi\n      0x00\n      dup1\n      revert\n    tag_74:\n      dup1\n      0x2ce2a218\n      eq\n      tag_10\n      jumpi\n      dup1\n      0x35824061\n      eq\n      tag_11\n      jumpi\n      dup1\n      0x3924f233\n      eq\n      tag_12\n      jumpi\n      0x00\n      dup1\n      revert\n    tag_73:\n      dup1\n      0x12440ccb\n      gt\n      tag_75\n      jumpi\n      dup1\n      0x12440ccb\n      eq\n      tag_6\n      jumpi\n      dup1\n      0x1bb8c61d\n      eq\n      tag_7\n      jumpi\n      dup1\n      0x1c425a45\n      eq\n      tag_8\n      jumpi\n      dup1\n      0x235ec73d\n      eq\n      tag_9\n      jumpi\n      0x00\n      dup1\n      revert\n    tag_75:\n      dup1\n      0x04336bb3\n      eq\n      tag_3\n      jumpi\n      dup1\n      0x0573f19c\n      eq\n      tag_4\n      jumpi\n      dup1\n      0x1218cf18\n      eq\n      tag_5\n      jumpi\n    tag_2:\n      0x00\n      dup1\n      revert\n        /* \"contracts/DeltaNeutralVaultConfig02.sol\":4762:4802  uint256 public override withdrawalFeeBps */\n    tag_3:\n      tag_76\n      sload(0x6f)\n      dup2\n      jump\n    tag_76:\n      mload(0x40)\n        /* \"#utility.yul\":160:185   */\n      swap1\n      dup2\n      mstore\n        /* \"#utility.yul\":148:150   */\n      0x20\n        /* \"#utility.yul\":133:151   */\n      add\n        /* \"contracts/DeltaNeutralVaultConfig02.sol\":4762:4802  uint256 public override withdrawalFeeBps */\n    tag_78:\n      mload(0x40)\n      dup1\n      swap2\n      sub\n      swap1\n      return\n        /* \"contracts/DeltaNeutralVaultConfig02.sol\":6439:6477  address public assetAddTwoSideStrategy */\n    tag_4:\n      sload(0x86)\n      tag_80\n      swap1\n      sub(shl(0xa0, 0x01), 0x01)\n      and\n      dup2\n      jump\n    tag_80:\n      mload(0x40)\n      sub(shl(0xa0, 0x01), 0x01)\n        /* \"#utility.yul\":360:392   */\n      swap1\n      swap2\n      and\n        /* \"#utility.yul\":342:393   */\n      dup2\n      mstore\n        /* \"#utility.yul\":330:332   */\n      0x20\n        /* \"#utility.yul\":315:333   */\n      add\n        /* \"contracts/DeltaNeutralVaultConfig02.sol\":6439:6477  address public assetAddTwoSideStrategy */\n      tag_78\n        /* \"#utility.yul\":196:399   */\n      jump\n        /* \"contracts/DeltaNeutralVaultConfig02.sol\":12001:12479  function setAlpacaBountyConfig(address _newAlpacaReinvestFeeTreasury, uint256 _newAlpacaBountyBps)... */\n    tag_5:\n      tag_84\n      tag_85\n      calldatasize\n      0x04\n      tag_86\n      jump\t// in\n    tag_85:\n      tag_87\n      jump\t// in\n    tag_84:\n      stop\n        /* \"contracts/DeltaNeutralVaultConfig02.sol\":5615:5669  mapping(address => bool) public whitelistedReinvestors */\n    tag_6:\n      tag_88\n      tag_89\n      calldatasize\n      0x04\n      tag_90\n      jump\t// in\n    tag_89:\n      mstore(0x20, 0x78)\n      0x00\n      swap1\n      dup2\n      mstore\n      0x40\n      swap1\n      keccak256\n      sload\n      0xff\n      and\n      dup2\n      jump\n    tag_88:\n      mload(0x40)\n        /* \"#utility.yul\":1197:1211   */\n      swap1\n      iszero\n        /* \"#utility.yul\":1190:1212   */\n      iszero\n        /* \"#utility.yul\":1172:1213   */\n      dup2\n      mstore\n        /* \"#utility.yul\":1160:1162   */\n      0x20\n        /* \"#utility.yul\":1145:1163   */\n      add\n        /* \"contracts/DeltaNeutralVaultConfig02.sol\":5615:5669  mapping(address => bool) public whitelistedReinvestors */\n      tag_78\n        /* \"#utility.yul\":1032:1219   */\n      jump\n        /* \"contracts/DeltaNeutralVaultConfig02.sol\":8167:8451  function setWhitelistedCallers(address[] calldata _callers, bool _ok) external onlyOwner {... */\n    tag_7:\n      tag_84\n      tag_95\n      calldatasize\n      0x04\n      tag_96\n      jump\t// in\n    tag_95:\n      tag_97\n      jump\t// in\n        /* \"contracts/DeltaNeutralVaultConfig02.sol\":6211:6242  address public reinvestExecutor */\n    tag_8:\n      sload(0x81)\n      tag_80\n      swap1\n      sub(shl(0xa0, 0x01), 0x01)\n      and\n      dup2\n      jump\n        /* \"contracts/DeltaNeutralVaultConfig02.sol\":6138:6169  address public withdrawExecutor */\n    tag_9:\n      sload(0x7f)\n      tag_80\n      swap1\n      sub(shl(0xa0, 0x01), 0x01)\n      and\n      dup2\n      jump\n        /* \"contracts/DeltaNeutralVaultConfig02.sol\":10068:10352  function setFeeExemptedCallers(address[] calldata _callers, bool _ok) external onlyOwner {... */\n    tag_10:\n      tag_84\n      tag_105\n      calldatasize\n      0x04\n      tag_96\n      jump\t// in\n    tag_105:\n      tag_106\n      jump\t// in\n        /* \"contracts/DeltaNeutralVaultConfig02.sol\":13710:13907  function isVaultSizeAcceptable(uint256 _totalPositionValue) external view returns (bool) {... */\n    tag_11:\n      tag_88\n      tag_108\n      calldatasize\n      0x04\n      tag_109\n      jump\t// in\n    tag_108:\n      tag_110\n      jump\t// in\n        /* \"contracts/DeltaNeutralVaultConfig02.sol\":5532:5582  mapping(address => bool) public feeExemptedCallers */\n    tag_12:\n      tag_88\n      tag_113\n      calldatasize\n      0x04\n      tag_90\n      jump\t// in\n    tag_113:\n      mstore(0x20, 0x77)\n      0x00\n      swap1\n      dup2\n      mstore\n      0x40\n      swap1\n      keccak256\n      sload\n      0xff\n      and\n      dup2\n      jump\n        /* \"contracts/DeltaNeutralVaultConfig02.sol\":14015:14259  function setSwapRouter(address _swapRouter) external onlyOwner {... */\n    tag_13:\n      tag_84\n      tag_117\n      calldatasize\n      0x04\n      tag_90\n      jump\t// in\n    tag_117:\n      tag_118\n      jump\t// in\n        /* \"contracts/DeltaNeutralVaultConfig02.sol\":6295:6322  uint256 public swapFeeDenom */\n    tag_14:\n      tag_76\n      sload(0x83)\n      dup2\n      jump\n        /* \"contracts/DeltaNeutralVaultConfig02.sol\":4838:4874  address public managementFeeTreasury */\n    tag_15:\n      sload(0x70)\n      tag_80\n      swap1\n      sub(shl(0xa0, 0x01), 0x01)\n      and\n      dup2\n      jump\n        /* \"contracts/DeltaNeutralVaultConfig02.sol\":6347:6390  address public partialCloseMinimizeStrategy */\n    tag_16:\n      sload(0x84)\n      tag_80\n      swap1\n      sub(shl(0xa0, 0x01), 0x01)\n      and\n      dup2\n      jump\n        /* \"contracts/DeltaNeutralVaultConfig02.sol\":5439:5493  mapping(address => bool) public whitelistedRebalancers */\n    tag_17:\n      tag_88\n      tag_129\n      calldatasize\n      0x04\n      tag_90\n      jump\t// in\n    tag_129:\n      mstore(0x20, 0x76)\n      0x00\n      swap1\n      dup2\n      mstore\n      0x40\n      swap1\n      keccak256\n      sload\n      0xff\n      and\n      dup2\n      jump\n        /* \"contracts/DeltaNeutralVaultConfig02.sol\":6268:6290  uint256 public swapFee */\n    tag_18:\n      tag_76\n      sload(0x82)\n      dup2\n      jump\n        /* \"contracts/DeltaNeutralVaultConfig02.sol\":4100:4136  uint256 public maxVaultPositionValue */\n    tag_19:\n      tag_76\n      sload(0x68)\n      dup2\n      jump\n        /* \"contracts/DeltaNeutralVaultConfig02.sol\":6103:6133  address public depositExecutor */\n    tag_20:\n      sload(0x7e)\n      tag_80\n      swap1\n      sub(shl(0xa0, 0x01), 0x01)\n      and\n      dup2\n      jump\n        /* \"contracts/DeltaNeutralVaultConfig02.sol\":5698:5738  address public alpacaReinvestFeeTreasury */\n    tag_21:\n      sload(0x79)\n      tag_80\n      swap1\n      sub(shl(0xa0, 0x01), 0x01)\n      and\n      dup2\n      jump\n        /* \"contracts/DeltaNeutralVaultConfig02.sol\":3994:4023  address public fairLaunchAddr */\n    tag_22:\n      sload(0x67)\n      tag_80\n      swap1\n      sub(shl(0xa0, 0x01), 0x01)\n      and\n      dup2\n      jump\n        /* \"contracts/DeltaNeutralVaultConfig02.sol\":13385:13582  function setValueLimit(uint256 _maxVaultPositionValue) external onlyOwner {... */\n    tag_23:\n      tag_84\n      tag_148\n      calldatasize\n      0x04\n      tag_109\n      jump\t// in\n    tag_148:\n      tag_149\n      jump\t// in\n        /* \"contracts/DeltaNeutralVaultConfig02.sol\":14359:14730  function setReinvestPath(address[] calldata _reinvestPath) external onlyOwner {... */\n    tag_24:\n      tag_84\n      tag_151\n      calldatasize\n      0x04\n      tag_152\n      jump\t// in\n    tag_151:\n      tag_153\n      jump\t// in\n        /* \"contracts/DeltaNeutralVaultConfig02.sol\":4204:4243  uint256 public override rebalanceFactor */\n    tag_25:\n      tag_76\n      sload(0x69)\n      dup2\n      jump\n        /* \"contracts/DeltaNeutralVaultConfig02.sol\":6484:7229  function initialize(... */\n    tag_26:\n      tag_84\n      tag_158\n      calldatasize\n      0x04\n      tag_159\n      jump\t// in\n    tag_158:\n      tag_160\n      jump\t// in\n        /* \"contracts/DeltaNeutralVaultConfig02.sol\":4428:4470  uint256 public override debtRatioTolerance */\n    tag_27:\n      tag_76\n      sload(0x6b)\n      dup2\n      jump\n        /* \"contracts/DeltaNeutralVaultConfig02.sol\":4667:4703  address public withdrawalFeeTreasury */\n    tag_28:\n      sload(0x6e)\n      tag_80\n      swap1\n      sub(shl(0xa0, 0x01), 0x01)\n      and\n      dup2\n      jump\n        /* \"contracts/DeltaNeutralVaultConfig02.sol\":15904:16120  function setSwapConfig(uint256 _swapFee, uint256 _swapFeeDenom) external onlyOwner {... */\n    tag_29:\n      tag_84\n      tag_168\n      calldatasize\n      0x04\n      tag_169\n      jump\t// in\n    tag_168:\n      tag_170\n      jump\t// in\n        /* \"@openzeppelin/contracts-upgradeable/access/OwnableUpgradeable.sol\":1908:2009  function renounceOwnership() public virtual onlyOwner {... */\n    tag_30:\n      tag_84\n      tag_172\n      jump\t// in\n        /* \"contracts/DeltaNeutralVaultConfig02.sol\":5195:5223  address public getSwapRouter */\n    tag_31:\n      sload(0x73)\n      tag_80\n      swap1\n      sub(shl(0xa0, 0x01), 0x01)\n      and\n      dup2\n      jump\n        /* \"contracts/DeltaNeutralVaultConfig02.sol\":6395:6434  address public stableAddTwoSideStrategy */\n    tag_32:\n      sload(0x85)\n      tag_80\n      swap1\n      sub(shl(0xa0, 0x01), 0x01)\n      and\n      dup2\n      jump\n        /* \"contracts/DeltaNeutralVaultConfig02.sol\":7235:7980  function setParams(... */\n    tag_33:\n      tag_84\n      tag_180\n      calldatasize\n      0x04\n      tag_181\n      jump\t// in\n    tag_180:\n      tag_182\n      jump\t// in\n        /* \"@openzeppelin/contracts-upgradeable/access/OwnableUpgradeable.sol\":1276:1361  function owner() public view virtual returns (address) {... */\n    tag_34:\n        /* \"@openzeppelin/contracts-upgradeable/access/OwnableUpgradeable.sol\":1348:1354  _owner */\n      and(sub(shl(0xa0, 0x01), 0x01), sload(0x33))\n        /* \"@openzeppelin/contracts-upgradeable/access/OwnableUpgradeable.sol\":1276:1361  function owner() public view virtual returns (address) {... */\n      jump(tag_80)\n        /* \"contracts/DeltaNeutralVaultConfig02.sol\":5270:5299  address[] public reinvestPath */\n    tag_35:\n      tag_80\n      tag_187\n      calldatasize\n      0x04\n      tag_109\n      jump\t// in\n    tag_187:\n      tag_188\n      jump\t// in\n        /* \"contracts/DeltaNeutralVaultConfig02.sol\":9128:9424  function setwhitelistedReinvestors(address[] calldata _callers, bool _ok) external onlyOwner {... */\n    tag_36:\n      tag_84\n      tag_191\n      calldatasize\n      0x04\n      tag_96\n      jump\t// in\n    tag_191:\n      tag_192\n      jump\t// in\n        /* \"contracts/DeltaNeutralVaultConfig02.sol\":14877:15110  function setController(address _controller) external onlyOwner {... */\n    tag_37:\n      tag_84\n      tag_194\n      calldatasize\n      0x04\n      tag_90\n      jump\t// in\n    tag_194:\n      tag_195\n      jump\t// in\n        /* \"contracts/DeltaNeutralVaultConfig02.sol\":5775:5805  uint256 public alpacaBountyBps */\n    tag_38:\n      tag_76\n      sload(0x7a)\n      dup2\n      jump\n        /* \"contracts/DeltaNeutralVaultConfig02.sol\":8642:8937  function setWhitelistedRebalancer(address[] calldata _callers, bool _ok) external onlyOwner {... */\n    tag_39:\n      tag_84\n      tag_200\n      calldatasize\n      0x04\n      tag_96\n      jump\t// in\n    tag_200:\n      tag_201\n      jump\t// in\n        /* \"contracts/DeltaNeutralVaultConfig02.sol\":5897:5929  address public alpacaBeneficiary */\n    tag_40:\n      sload(0x7b)\n      tag_80\n      swap1\n      sub(shl(0xa0, 0x01), 0x01)\n      and\n      dup2\n      jump\n        /* \"contracts/DeltaNeutralVaultConfig02.sol\":4594:4631  uint256 public override depositFeeBps */\n    tag_41:\n      tag_76\n      sload(0x6d)\n      dup2\n      jump\n        /* \"contracts/DeltaNeutralVaultConfig02.sol\":4930:4973  uint256 public override managementFeePerSec */\n    tag_42:\n      tag_76\n      sload(0x71)\n      dup2\n      jump\n        /* \"contracts/DeltaNeutralVaultConfig02.sol\":15116:15583  function setExecutor(... */\n    tag_43:\n      tag_84\n      tag_212\n      calldatasize\n      0x04\n      tag_213\n      jump\t// in\n    tag_212:\n      tag_214\n      jump\t// in\n        /* \"contracts/DeltaNeutralVaultConfig02.sol\":12733:13224  function setAlpacaBeneficiaryConfig(address _newAlpacaBeneficiary, uint256 _newAlpacaBeneficiaryBps)... */\n    tag_44:\n      tag_84\n      tag_216\n      calldatasize\n      0x04\n      tag_86\n      jump\t// in\n    tag_216:\n      tag_217\n      jump\t// in\n        /* \"contracts/DeltaNeutralVaultConfig02.sol\":5101:5127  address public alpacaToken */\n    tag_45:\n      sload(0x72)\n      tag_80\n      swap1\n      0x0100\n      swap1\n      div\n      sub(shl(0xa0, 0x01), 0x01)\n      and\n      dup2\n      jump\n        /* \"contracts/DeltaNeutralVaultConfig02.sol\":3914:3955  address public override getWNativeRelayer */\n    tag_46:\n      sload(0x66)\n      tag_80\n      swap1\n      sub(shl(0xa0, 0x01), 0x01)\n      and\n      dup2\n      jump\n        /* \"contracts/DeltaNeutralVaultConfig02.sol\":16126:16646  function setStrategies(... */\n    tag_47:\n      tag_84\n      tag_225\n      calldatasize\n      0x04\n      tag_226\n      jump\t// in\n    tag_225:\n      tag_227\n      jump\t// in\n        /* \"contracts/DeltaNeutralVaultConfig02.sol\":6174:6206  address public rebalanceExecutor */\n    tag_48:\n      sload(0x80)\n      tag_80\n      swap1\n      sub(shl(0xa0, 0x01), 0x01)\n      and\n      dup2\n      jump\n        /* \"contracts/DeltaNeutralVaultConfig02.sol\":15664:15898  function isExecutor(address _caller) external view returns (bool) {... */\n    tag_49:\n      tag_88\n      tag_232\n      calldatasize\n      0x04\n      tag_90\n      jump\t// in\n    tag_232:\n      tag_233\n      jump\t// in\n        /* \"contracts/DeltaNeutralVaultConfig02.sol\":5040:5075  uint8 public override leverageLevel */\n    tag_50:\n      sload(0x72)\n      tag_235\n      swap1\n      0xff\n      and\n      dup2\n      jump\n    tag_235:\n      mload(0x40)\n        /* \"#utility.yul\":5396:5400   */\n      0xff\n        /* \"#utility.yul\":5384:5401   */\n      swap1\n      swap2\n      and\n        /* \"#utility.yul\":5366:5402   */\n      dup2\n      mstore\n        /* \"#utility.yul\":5354:5356   */\n      0x20\n        /* \"#utility.yul\":5339:5357   */\n      add\n        /* \"contracts/DeltaNeutralVaultConfig02.sol\":5040:5075  uint8 public override leverageLevel */\n      tag_78\n        /* \"#utility.yul\":5224:5408   */\n      jump\n        /* \"contracts/DeltaNeutralVaultConfig02.sol\":10648:11749  function setFees(... */\n    tag_51:\n      tag_84\n      tag_240\n      calldatasize\n      0x04\n      tag_241\n      jump\t// in\n    tag_240:\n      tag_242\n      jump\t// in\n        /* \"contracts/DeltaNeutralVaultConfig02.sol\":4505:4538  address public depositFeeTreasury */\n    tag_52:\n      sload(0x6c)\n      tag_80\n      swap1\n      sub(shl(0xa0, 0x01), 0x01)\n      and\n      dup2\n      jump\n        /* \"contracts/DeltaNeutralVaultConfig02.sol\":3832:3876  address public override getWrappedNativeAddr */\n    tag_53:\n      sload(0x65)\n      tag_80\n      swap1\n      sub(shl(0xa0, 0x01), 0x01)\n      and\n      dup2\n      jump\n        /* \"@openzeppelin/contracts-upgradeable/access/OwnableUpgradeable.sol\":2158:2356  function transferOwnership(address newOwner) public virtual onlyOwner {... */\n    tag_54:\n      tag_84\n      tag_250\n      calldatasize\n      0x04\n      tag_90\n      jump\t// in\n    tag_250:\n      tag_251\n      jump\t// in\n        /* \"contracts/DeltaNeutralVaultConfig02.sol\":5971:6006  uint256 public alpacaBeneficiaryBps */\n    tag_55:\n      tag_76\n      sload(0x7c)\n      dup2\n      jump\n        /* \"contracts/DeltaNeutralVaultConfig02.sol\":14771:14871  function getReinvestPath() external view returns (address[] memory) {... */\n    tag_56:\n      tag_255\n      tag_256\n      jump\t// in\n    tag_255:\n      mload(0x40)\n      tag_78\n      swap2\n      swap1\n      tag_258\n      jump\t// in\n        /* \"contracts/DeltaNeutralVaultConfig02.sol\":6046:6080  address public override controller */\n    tag_57:\n      sload(0x7d)\n      tag_80\n      swap1\n      sub(shl(0xa0, 0x01), 0x01)\n      and\n      dup2\n      jump\n        /* \"contracts/DeltaNeutralVaultConfig02.sol\":4307:4353  uint256 public override positionValueTolerance */\n    tag_58:\n      tag_76\n      sload(0x6a)\n      dup2\n      jump\n        /* \"contracts/DeltaNeutralVaultConfig02.sol\":9586:9883  function setLeverageLevel(uint8 _newLeverageLevel) external onlyOwner {... */\n    tag_59:\n      tag_84\n      tag_266\n      calldatasize\n      0x04\n      tag_267\n      jump\t// in\n    tag_266:\n      tag_268\n      jump\t// in\n        /* \"contracts/DeltaNeutralVaultConfig02.sol\":5343:5393  mapping(address => bool) public whitelistedCallers */\n    tag_60:\n      tag_88\n      tag_270\n      calldatasize\n      0x04\n      tag_90\n      jump\t// in\n    tag_270:\n      mstore(0x20, 0x75)\n      0x00\n      swap1\n      dup2\n      mstore\n      0x40\n      swap1\n      keccak256\n      sload\n      0xff\n      and\n      dup2\n      jump\n        /* \"contracts/DeltaNeutralVaultConfig02.sol\":12001:12479  function setAlpacaBountyConfig(address _newAlpacaReinvestFeeTreasury, uint256 _newAlpacaBountyBps)... */\n    tag_87:\n        /* \"@openzeppelin/contracts-upgradeable/access/OwnableUpgradeable.sol\":1348:1354  _owner */\n      and(sub(shl(0xa0, 0x01), 0x01), sload(0x33))\n        /* \"@openzeppelin/contracts-upgradeable/utils/ContextUpgradeable.sol\":929:939  msg.sender */\n      caller\n        /* \"@openzeppelin/contracts-upgradeable/access/OwnableUpgradeable.sol\":1488:1511  owner() == _msgSender() */\n      eq\n        /* \"@openzeppelin/contracts-upgradeable/access/OwnableUpgradeable.sol\":1480:1548  require(owner() == _msgSender(), \"Ownable: caller is not the owner\") */\n      tag_277\n      jumpi\n      mload(0x40)\n      shl(0xe5, 0x461bcd)\n      dup2\n      mstore\n      0x04\n      add\n      tag_278\n      swap1\n      tag_279\n      jump\t// in\n    tag_278:\n      mload(0x40)\n      dup1\n      swap2\n      sub\n      swap1\n      revert\n    tag_277:\n        /* \"contracts/DeltaNeutralVaultConfig02.sol\":3646:3650  2500 */\n      0x09c4\n        /* \"contracts/DeltaNeutralVaultConfig02.sol\":12143:12162  _newAlpacaBountyBps */\n      dup2\n        /* \"contracts/DeltaNeutralVaultConfig02.sol\":12143:12186  _newAlpacaBountyBps > MAX_ALPACA_BOUNTY_BPS */\n      gt\n        /* \"contracts/DeltaNeutralVaultConfig02.sol\":12139:12270  if (_newAlpacaBountyBps > MAX_ALPACA_BOUNTY_BPS) {... */\n      iszero\n      tag_281\n      jumpi\n        /* \"contracts/DeltaNeutralVaultConfig02.sol\":12204:12262  DeltaNeutralVaultConfig_TooMuchBounty(_newAlpacaBountyBps) */\n      mload(0x40)\n      shl(0xe1, 0x2b14f147)\n      dup2\n      mstore\n      0x04\n      dup2\n      add\n        /* \"#utility.yul\":160:185   */\n      dup3\n      swap1\n      mstore\n        /* \"#utility.yul\":133:151   */\n      0x24\n      add\n        /* \"contracts/DeltaNeutralVaultConfig02.sol\":12204:12262  DeltaNeutralVaultConfig_TooMuchBounty(_newAlpacaBountyBps) */\n      tag_278\n        /* \"#utility.yul\":14:191   */\n      jump\n        /* \"contracts/DeltaNeutralVaultConfig02.sol\":12139:12270  if (_newAlpacaBountyBps > MAX_ALPACA_BOUNTY_BPS) {... */\n    tag_281:\n        /* \"contracts/DeltaNeutralVaultConfig02.sol\":12278:12303  alpacaReinvestFeeTreasury */\n      0x79\n        /* \"contracts/DeltaNeutralVaultConfig02.sol\":12278:12335  alpacaReinvestFeeTreasury = _newAlpacaReinvestFeeTreasury */\n      dup1\n      sload\n      not(sub(shl(0xa0, 0x01), 0x01))\n      and\n      sub(shl(0xa0, 0x01), 0x01)\n      dup5\n      and\n      swap1\n      dup2\n      or\n      swap1\n      swap2\n      sstore\n        /* \"contracts/DeltaNeutralVaultConfig02.sol\":12342:12357  alpacaBountyBps */\n      0x7a\n        /* \"contracts/DeltaNeutralVaultConfig02.sol\":12342:12379  alpacaBountyBps = _newAlpacaBountyBps */\n      dup3\n      swap1\n      sstore\n        /* \"contracts/DeltaNeutralVaultConfig02.sol\":12393:12473  LogSetAlpacaBountyConfig(msg.sender, alpacaReinvestFeeTreasury, alpacaBountyBps) */\n      0x40\n      dup1\n      mload\n        /* \"#utility.yul\":7431:7482   */\n      swap2\n      dup3\n      mstore\n        /* \"#utility.yul\":7513:7515   */\n      0x20\n        /* \"#utility.yul\":7498:7516   */\n      dup3\n      add\n        /* \"#utility.yul\":7491:7525   */\n      dup4\n      swap1\n      mstore\n        /* \"contracts/DeltaNeutralVaultConfig02.sol\":12418:12428  msg.sender */\n      caller\n      swap2\n        /* \"contracts/DeltaNeutralVaultConfig02.sol\":12393:12473  LogSetAlpacaBountyConfig(msg.sender, alpacaReinvestFeeTreasury, alpacaBountyBps) */\n      0x07a990b3304df1347b430697979619a7a4c80cb4bd939e73ced1f7ca6101d6f6\n      swap2\n        /* \"#utility.yul\":7404:7422   */\n      add\n        /* \"contracts/DeltaNeutralVaultConfig02.sol\":12393:12473  LogSetAlpacaBountyConfig(msg.sender, alpacaReinvestFeeTreasury, alpacaBountyBps) */\n    tag_283:\n      mload(0x40)\n      dup1\n      swap2\n      sub\n      swap1\n      log2\n        /* \"contracts/DeltaNeutralVaultConfig02.sol\":12001:12479  function setAlpacaBountyConfig(address _newAlpacaReinvestFeeTreasury, uint256 _newAlpacaBountyBps)... */\n      pop\n      pop\n      jump\t// out\n        /* \"contracts/DeltaNeutralVaultConfig02.sol\":8167:8451  function setWhitelistedCallers(address[] calldata _callers, bool _ok) external onlyOwner {... */\n    tag_97:\n        /* \"@openzeppelin/contracts-upgradeable/access/OwnableUpgradeable.sol\":1348:1354  _owner */\n      and(sub(shl(0xa0, 0x01), 0x01), sload(0x33))\n        /* \"@openzeppelin/contracts-upgradeable/utils/ContextUpgradeable.sol\":929:939  msg.sender */\n      caller\n        /* \"@openzeppelin/contracts-upgradeable/access/OwnableUpgradeable.sol\":1488:1511  owner() == _msgSender() */\n      eq\n        /* \"@openzeppelin/contracts-upgradeable/access/OwnableUpgradeable.sol\":1480:1548  require(owner() == _msgSender(), \"Ownable: caller is not the owner\") */\n      tag_288\n      jumpi\n      mload(0x40)\n      shl(0xe5, 0x461bcd)\n      dup2\n      mstore\n      0x04\n      add\n      tag_278\n      swap1\n      tag_279\n      jump\t// in\n    tag_288:\n        /* \"contracts/DeltaNeutralVaultConfig02.sol\":8268:8280  uint256 _idx */\n      0x00\n        /* \"contracts/DeltaNeutralVaultConfig02.sol\":8263:8446  for (uint256 _idx = 0; _idx < _callers.length; _idx++) {... */\n    tag_291:\n        /* \"contracts/DeltaNeutralVaultConfig02.sol\":8286:8308  _idx < _callers.length */\n      dup3\n      dup2\n      lt\n        /* \"contracts/DeltaNeutralVaultConfig02.sol\":8263:8446  for (uint256 _idx = 0; _idx < _callers.length; _idx++) {... */\n      iszero\n      tag_292\n      jumpi\n        /* \"contracts/DeltaNeutralVaultConfig02.sol\":8364:8367  _ok */\n      dup2\n        /* \"contracts/DeltaNeutralVaultConfig02.sol\":8327:8345  whitelistedCallers */\n      0x75\n        /* \"contracts/DeltaNeutralVaultConfig02.sol\":8327:8361  whitelistedCallers[_callers[_idx]] */\n      0x00\n        /* \"contracts/DeltaNeutralVaultConfig02.sol\":8346:8354  _callers */\n      dup7\n      dup7\n        /* \"contracts/DeltaNeutralVaultConfig02.sol\":8355:8359  _idx */\n      dup6\n        /* \"contracts/DeltaNeutralVaultConfig02.sol\":8346:8360  _callers[_idx] */\n      dup2\n      dup2\n      lt\n      tag_295\n      jumpi\n      tag_295\n      tag_296\n      jump\t// in\n    tag_295:\n      swap1\n      pop\n      0x20\n      mul\n      add\n      0x20\n      dup2\n      add\n      swap1\n      tag_297\n      swap2\n      swap1\n      tag_90\n      jump\t// in\n    tag_297:\n      sub(shl(0xa0, 0x01), 0x01)\n        /* \"contracts/DeltaNeutralVaultConfig02.sol\":8327:8361  whitelistedCallers[_callers[_idx]] */\n      and\n      dup2\n      mstore\n      0x20\n      dup2\n      add\n      swap2\n      swap1\n      swap2\n      mstore\n      0x40\n      add\n      0x00\n      keccak256\n        /* \"contracts/DeltaNeutralVaultConfig02.sol\":8327:8367  whitelistedCallers[_callers[_idx]] = _ok */\n      dup1\n      sload\n      not(0xff)\n      and\n      swap2\n      iszero\n      iszero\n      swap2\n      swap1\n      swap2\n      or\n      swap1\n      sstore\n        /* \"contracts/DeltaNeutralVaultConfig02.sol\":8418:8426  _callers */\n      dup4\n      dup4\n        /* \"contracts/DeltaNeutralVaultConfig02.sol\":8427:8431  _idx */\n      dup3\n        /* \"contracts/DeltaNeutralVaultConfig02.sol\":8418:8432  _callers[_idx] */\n      dup2\n      dup2\n      lt\n      tag_299\n      jumpi\n      tag_299\n      tag_296\n      jump\t// in\n    tag_299:\n      swap1\n      pop\n      0x20\n      mul\n      add\n      0x20\n      dup2\n      add\n      swap1\n      tag_300\n      swap2\n      swap1\n      tag_90\n      jump\t// in\n    tag_300:\n      sub(shl(0xa0, 0x01), 0x01)\n        /* \"contracts/DeltaNeutralVaultConfig02.sol\":8381:8438  LogSetWhitelistedCallers(msg.sender, _callers[_idx], _ok) */\n      and\n        /* \"contracts/DeltaNeutralVaultConfig02.sol\":8406:8416  msg.sender */\n      caller\n      sub(shl(0xa0, 0x01), 0x01)\n        /* \"contracts/DeltaNeutralVaultConfig02.sol\":8381:8438  LogSetWhitelistedCallers(msg.sender, _callers[_idx], _ok) */\n      and\n      0x6954b3b4020bd8480cd160fffd549537b617f20a8074ce45b2dee80cab6ef8e2\n        /* \"contracts/DeltaNeutralVaultConfig02.sol\":8434:8437  _ok */\n      dup5\n        /* \"contracts/DeltaNeutralVaultConfig02.sol\":8381:8438  LogSetWhitelistedCallers(msg.sender, _callers[_idx], _ok) */\n      mload(0x40)\n      tag_301\n      swap2\n        /* \"#utility.yul\":1197:1211   */\n      iszero\n        /* \"#utility.yul\":1190:1212   */\n      iszero\n        /* \"#utility.yul\":1172:1213   */\n      dup2\n      mstore\n        /* \"#utility.yul\":1160:1162   */\n      0x20\n        /* \"#utility.yul\":1145:1163   */\n      add\n      swap1\n        /* \"#utility.yul\":1032:1219   */\n      jump\n        /* \"contracts/DeltaNeutralVaultConfig02.sol\":8381:8438  LogSetWhitelistedCallers(msg.sender, _callers[_idx], _ok) */\n    tag_301:\n      mload(0x40)\n      dup1\n      swap2\n      sub\n      swap1\n      log3\n        /* \"contracts/DeltaNeutralVaultConfig02.sol\":8310:8316  _idx++ */\n      dup1\n      tag_302\n      dup2\n      tag_303\n      jump\t// in\n    tag_302:\n      swap2\n      pop\n      pop\n        /* \"contracts/DeltaNeutralVaultConfig02.sol\":8263:8446  for (uint256 _idx = 0; _idx < _callers.length; _idx++) {... */\n      jump(tag_291)\n    tag_292:\n      pop\n        /* \"contracts/DeltaNeutralVaultConfig02.sol\":8167:8451  function setWhitelistedCallers(address[] calldata _callers, bool _ok) external onlyOwner {... */\n      pop\n      pop\n      pop\n      jump\t// out\n        /* \"contracts/DeltaNeutralVaultConfig02.sol\":10068:10352  function setFeeExemptedCallers(address[] calldata _callers, bool _ok) external onlyOwner {... */\n    tag_106:\n        /* \"@openzeppelin/contracts-upgradeable/access/OwnableUpgradeable.sol\":1348:1354  _owner */\n      and(sub(shl(0xa0, 0x01), 0x01), sload(0x33))\n        /* \"@openzeppelin/contracts-upgradeable/utils/ContextUpgradeable.sol\":929:939  msg.sender */\n      caller\n        /* \"@openzeppelin/contracts-upgradeable/access/OwnableUpgradeable.sol\":1488:1511  owner() == _msgSender() */\n      eq\n        /* \"@openzeppelin/contracts-upgradeable/access/OwnableUpgradeable.sol\":1480:1548  require(owner() == _msgSender(), \"Ownable: caller is not the owner\") */\n      tag_307\n      jumpi\n      mload(0x40)\n      shl(0xe5, 0x461bcd)\n      dup2\n      mstore\n      0x04\n      add\n      tag_278\n      swap1\n      tag_279\n      jump\t// in\n    tag_307:\n        /* \"contracts/DeltaNeutralVaultConfig02.sol\":10169:10181  uint256 _idx */\n      0x00\n        /* \"contracts/DeltaNeutralVaultConfig02.sol\":10164:10347  for (uint256 _idx = 0; _idx < _callers.length; _idx++) {... */\n    tag_310:\n        /* \"contracts/DeltaNeutralVaultConfig02.sol\":10187:10209  _idx < _callers.length */\n      dup3\n      dup2\n      lt\n        /* \"contracts/DeltaNeutralVaultConfig02.sol\":10164:10347  for (uint256 _idx = 0; _idx < _callers.length; _idx++) {... */\n      iszero\n      tag_292\n      jumpi\n        /* \"contracts/DeltaNeutralVaultConfig02.sol\":10265:10268  _ok */\n      dup2\n        /* \"contracts/DeltaNeutralVaultConfig02.sol\":10228:10246  feeExemptedCallers */\n      0x77\n        /* \"contracts/DeltaNeutralVaultConfig02.sol\":10228:10262  feeExemptedCallers[_callers[_idx]] */\n      0x00\n        /* \"contracts/DeltaNeutralVaultConfig02.sol\":10247:10255  _callers */\n      dup7\n      dup7\n        /* \"contracts/DeltaNeutralVaultConfig02.sol\":10256:10260  _idx */\n      dup6\n        /* \"contracts/DeltaNeutralVaultConfig02.sol\":10247:10261  _callers[_idx] */\n      dup2\n      dup2\n      lt\n      tag_314\n      jumpi\n      tag_314\n      tag_296\n      jump\t// in\n    tag_314:\n      swap1\n      pop\n      0x20\n      mul\n      add\n      0x20\n      dup2\n      add\n      swap1\n      tag_315\n      swap2\n      swap1\n      tag_90\n      jump\t// in\n    tag_315:\n      sub(shl(0xa0, 0x01), 0x01)\n        /* \"contracts/DeltaNeutralVaultConfig02.sol\":10228:10262  feeExemptedCallers[_callers[_idx]] */\n      and\n      dup2\n      mstore\n      0x20\n      dup2\n      add\n      swap2\n      swap1\n      swap2\n      mstore\n      0x40\n      add\n      0x00\n      keccak256\n        /* \"contracts/DeltaNeutralVaultConfig02.sol\":10228:10268  feeExemptedCallers[_callers[_idx]] = _ok */\n      dup1\n      sload\n      not(0xff)\n      and\n      swap2\n      iszero\n      iszero\n      swap2\n      swap1\n      swap2\n      or\n      swap1\n      sstore\n        /* \"contracts/DeltaNeutralVaultConfig02.sol\":10319:10327  _callers */\n      dup4\n      dup4\n        /* \"contracts/DeltaNeutralVaultConfig02.sol\":10328:10332  _idx */\n      dup3\n        /* \"contracts/DeltaNeutralVaultConfig02.sol\":10319:10333  _callers[_idx] */\n      dup2\n      dup2\n      lt\n      tag_317\n      jumpi\n      tag_317\n      tag_296\n      jump\t// in\n    tag_317:\n      swap1\n      pop\n      0x20\n      mul\n      add\n      0x20\n      dup2\n      add\n      swap1\n      tag_318\n      swap2\n      swap1\n      tag_90\n      jump\t// in\n    tag_318:\n      sub(shl(0xa0, 0x01), 0x01)\n        /* \"contracts/DeltaNeutralVaultConfig02.sol\":10282:10339  LogSetFeeExemptedCallers(msg.sender, _callers[_idx], _ok) */\n      and\n        /* \"contracts/DeltaNeutralVaultConfig02.sol\":10307:10317  msg.sender */\n      caller\n      sub(shl(0xa0, 0x01), 0x01)\n        /* \"contracts/DeltaNeutralVaultConfig02.sol\":10282:10339  LogSetFeeExemptedCallers(msg.sender, _callers[_idx], _ok) */\n      and\n      0xafed47930189ea124b8d808450ba0e6c685037de026cb6e56907751f1eef52dc\n        /* \"contracts/DeltaNeutralVaultConfig02.sol\":10335:10338  _ok */\n      dup5\n        /* \"contracts/DeltaNeutralVaultConfig02.sol\":10282:10339  LogSetFeeExemptedCallers(msg.sender, _callers[_idx], _ok) */\n      mload(0x40)\n      tag_319\n      swap2\n        /* \"#utility.yul\":1197:1211   */\n      iszero\n        /* \"#utility.yul\":1190:1212   */\n      iszero\n        /* \"#utility.yul\":1172:1213   */\n      dup2\n      mstore\n        /* \"#utility.yul\":1160:1162   */\n      0x20\n        /* \"#utility.yul\":1145:1163   */\n      add\n      swap1\n        /* \"#utility.yul\":1032:1219   */\n      jump\n        /* \"contracts/DeltaNeutralVaultConfig02.sol\":10282:10339  LogSetFeeExemptedCallers(msg.sender, _callers[_idx], _ok) */\n    tag_319:\n      mload(0x40)\n      dup1\n      swap2\n      sub\n      swap1\n      log3\n        /* \"contracts/DeltaNeutralVaultConfig02.sol\":10211:10217  _idx++ */\n      dup1\n      tag_320\n      dup2\n      tag_303\n      jump\t// in\n    tag_320:\n      swap2\n      pop\n      pop\n        /* \"contracts/DeltaNeutralVaultConfig02.sol\":10164:10347  for (uint256 _idx = 0; _idx < _callers.length; _idx++) {... */\n      jump(tag_310)\n        /* \"contracts/DeltaNeutralVaultConfig02.sol\":13710:13907  function isVaultSizeAcceptable(uint256 _totalPositionValue) external view returns (bool) {... */\n    tag_110:\n        /* \"contracts/DeltaNeutralVaultConfig02.sol\":13793:13797  bool */\n      0x00\n        /* \"contracts/DeltaNeutralVaultConfig02.sol\":13832:13853  maxVaultPositionValue */\n      sload(0x68)\n        /* \"contracts/DeltaNeutralVaultConfig02.sol\":13810:13829  _totalPositionValue */\n      dup3\n        /* \"contracts/DeltaNeutralVaultConfig02.sol\":13810:13853  _totalPositionValue > maxVaultPositionValue */\n      gt\n        /* \"contracts/DeltaNeutralVaultConfig02.sol\":13806:13884  if (_totalPositionValue > maxVaultPositionValue) {... */\n      iszero\n      tag_322\n      jumpi\n      pop\n        /* \"contracts/DeltaNeutralVaultConfig02.sol\":13871:13876  false */\n      0x00\n      swap2\n        /* \"contracts/DeltaNeutralVaultConfig02.sol\":13710:13907  function isVaultSizeAcceptable(uint256 _totalPositionValue) external view returns (bool) {... */\n      swap1\n      pop\n      jump\t// out\n        /* \"contracts/DeltaNeutralVaultConfig02.sol\":13806:13884  if (_totalPositionValue > maxVaultPositionValue) {... */\n    tag_322:\n      pop\n        /* \"contracts/DeltaNeutralVaultConfig02.sol\":13897:13901  true */\n      0x01\n      swap2\n        /* \"contracts/DeltaNeutralVaultConfig02.sol\":13710:13907  function isVaultSizeAcceptable(uint256 _totalPositionValue) external view returns (bool) {... */\n      swap1\n      pop\n      jump\t// out\n        /* \"contracts/DeltaNeutralVaultConfig02.sol\":14015:14259  function setSwapRouter(address _swapRouter) external onlyOwner {... */\n    tag_118:\n        /* \"@openzeppelin/contracts-upgradeable/access/OwnableUpgradeable.sol\":1348:1354  _owner */\n      and(sub(shl(0xa0, 0x01), 0x01), sload(0x33))\n        /* \"@openzeppelin/contracts-upgradeable/utils/ContextUpgradeable.sol\":929:939  msg.sender */\n      caller\n        /* \"@openzeppelin/contracts-upgradeable/access/OwnableUpgradeable.sol\":1488:1511  owner() == _msgSender() */\n      eq\n        /* \"@openzeppelin/contracts-upgradeable/access/OwnableUpgradeable.sol\":1480:1548  require(owner() == _msgSender(), \"Ownable: caller is not the owner\") */\n      tag_326\n      jumpi\n      mload(0x40)\n      shl(0xe5, 0x461bcd)\n      dup2\n      mstore\n      0x04\n      add\n      tag_278\n      swap1\n      tag_279\n      jump\t// in\n    tag_326:\n      sub(shl(0xa0, 0x01), 0x01)\n        /* \"contracts/DeltaNeutralVaultConfig02.sol\":14089:14114  _swapRouter == address(0) */\n      dup2\n      and\n        /* \"contracts/DeltaNeutralVaultConfig02.sol\":14085:14166  if (_swapRouter == address(0)) revert DeltaNeutralVaultConfig_InvalidSwapRouter() */\n      tag_329\n      jumpi\n        /* \"contracts/DeltaNeutralVaultConfig02.sol\":14123:14166  DeltaNeutralVaultConfig_InvalidSwapRouter() */\n      mload(0x40)\n      shl(0xe1, 0x4cd66137)\n      dup2\n      mstore\n      0x04\n      add\n      mload(0x40)\n      dup1\n      swap2\n      sub\n      swap1\n      revert\n        /* \"contracts/DeltaNeutralVaultConfig02.sol\":14085:14166  if (_swapRouter == address(0)) revert DeltaNeutralVaultConfig_InvalidSwapRouter() */\n    tag_329:\n        /* \"contracts/DeltaNeutralVaultConfig02.sol\":14173:14186  getSwapRouter */\n      0x73\n        /* \"contracts/DeltaNeutralVaultConfig02.sol\":14173:14200  getSwapRouter = _swapRouter */\n      dup1\n      sload\n      not(sub(shl(0xa0, 0x01), 0x01))\n      and\n      sub(shl(0xa0, 0x01), 0x01)\n      dup4\n      and\n      swap1\n      dup2\n      or\n      swap1\n      swap2\n      sstore\n        /* \"contracts/DeltaNeutralVaultConfig02.sol\":14212:14253  LogSetSwapRouter(msg.sender, _swapRouter) */\n      mload(0x40)\n        /* \"#utility.yul\":342:393   */\n      swap1\n      dup2\n      mstore\n        /* \"contracts/DeltaNeutralVaultConfig02.sol\":14229:14239  msg.sender */\n      caller\n      swap1\n        /* \"contracts/DeltaNeutralVaultConfig02.sol\":14212:14253  LogSetSwapRouter(msg.sender, _swapRouter) */\n      0x05647eff4880e5135952763bda009997b9c8669cac9292ef87f28badca4f32a6\n      swap1\n        /* \"#utility.yul\":330:332   */\n      0x20\n        /* \"#utility.yul\":315:333   */\n      add\n        /* \"contracts/DeltaNeutralVaultConfig02.sol\":14212:14253  LogSetSwapRouter(msg.sender, _swapRouter) */\n    tag_330:\n      mload(0x40)\n      dup1\n      swap2\n      sub\n      swap1\n      log2\n        /* \"contracts/DeltaNeutralVaultConfig02.sol\":14015:14259  function setSwapRouter(address _swapRouter) external onlyOwner {... */\n      pop\n      jump\t// out\n        /* \"contracts/DeltaNeutralVaultConfig02.sol\":13385:13582  function setValueLimit(uint256 _maxVaultPositionValue) external onlyOwner {... */\n    tag_149:\n        /* \"@openzeppelin/contracts-upgradeable/access/OwnableUpgradeable.sol\":1348:1354  _owner */\n      and(sub(shl(0xa0, 0x01), 0x01), sload(0x33))\n        /* \"@openzeppelin/contracts-upgradeable/utils/ContextUpgradeable.sol\":929:939  msg.sender */\n      caller\n        /* \"@openzeppelin/contracts-upgradeable/access/OwnableUpgradeable.sol\":1488:1511  owner() == _msgSender() */\n      eq\n        /* \"@openzeppelin/contracts-upgradeable/access/OwnableUpgradeable.sol\":1480:1548  require(owner() == _msgSender(), \"Ownable: caller is not the owner\") */\n      tag_334\n      jumpi\n      mload(0x40)\n      shl(0xe5, 0x461bcd)\n      dup2\n      mstore\n      0x04\n      add\n      tag_278\n      swap1\n      tag_279\n      jump\t// in\n    tag_334:\n        /* \"contracts/DeltaNeutralVaultConfig02.sol\":13466:13487  maxVaultPositionValue */\n      0x68\n        /* \"contracts/DeltaNeutralVaultConfig02.sol\":13466:13512  maxVaultPositionValue = _maxVaultPositionValue */\n      dup2\n      swap1\n      sstore\n        /* \"contracts/DeltaNeutralVaultConfig02.sol\":13524:13576  LogSetValueLimit(msg.sender, _maxVaultPositionValue) */\n      mload(0x40)\n        /* \"#utility.yul\":160:185   */\n      dup2\n      dup2\n      mstore\n        /* \"contracts/DeltaNeutralVaultConfig02.sol\":13541:13551  msg.sender */\n      caller\n      swap1\n        /* \"contracts/DeltaNeutralVaultConfig02.sol\":13524:13576  LogSetValueLimit(msg.sender, _maxVaultPositionValue) */\n      0xa604cbdca7ee706aafea3c555e0385946d7b121453a1b0ac8b3cd58c63014f07\n      swap1\n        /* \"#utility.yul\":148:150   */\n      0x20\n        /* \"#utility.yul\":133:151   */\n      add\n        /* \"contracts/DeltaNeutralVaultConfig02.sol\":13524:13576  LogSetValueLimit(msg.sender, _maxVaultPositionValue) */\n      tag_330\n        /* \"#utility.yul\":14:191   */\n      jump\n        /* \"contracts/DeltaNeutralVaultConfig02.sol\":14359:14730  function setReinvestPath(address[] calldata _reinvestPath) external onlyOwner {... */\n    tag_153:\n        /* \"@openzeppelin/contracts-upgradeable/access/OwnableUpgradeable.sol\":1348:1354  _owner */\n      and(sub(shl(0xa0, 0x01), 0x01), sload(0x33))\n        /* \"@openzeppelin/contracts-upgradeable/utils/ContextUpgradeable.sol\":929:939  msg.sender */\n      caller\n        /* \"@openzeppelin/contracts-upgradeable/access/OwnableUpgradeable.sol\":1488:1511  owner() == _msgSender() */\n      eq\n        /* \"@openzeppelin/contracts-upgradeable/access/OwnableUpgradeable.sol\":1480:1548  require(owner() == _msgSender(), \"Ownable: caller is not the owner\") */\n      tag_341\n      jumpi\n      mload(0x40)\n      shl(0xe5, 0x461bcd)\n      dup2\n      mstore\n      0x04\n      add\n      tag_278\n      swap1\n      tag_279\n      jump\t// in\n    tag_341:\n        /* \"contracts/DeltaNeutralVaultConfig02.sol\":14471:14472  2 */\n      0x02\n        /* \"contracts/DeltaNeutralVaultConfig02.sol\":14448:14472  _reinvestPath.length < 2 */\n      dup2\n      lt\n        /* \"contracts/DeltaNeutralVaultConfig02.sol\":14444:14532  if (_reinvestPath.length < 2) revert DeltaNeutralVaultConfig_InvalidReinvestPathLength() */\n      iszero\n      tag_344\n      jumpi\n        /* \"contracts/DeltaNeutralVaultConfig02.sol\":14481:14532  DeltaNeutralVaultConfig_InvalidReinvestPathLength() */\n      mload(0x40)\n      shl(0xe0, 0x9be12e77)\n      dup2\n      mstore\n      0x04\n      add\n      mload(0x40)\n      dup1\n      swap2\n      sub\n      swap1\n      revert\n        /* \"contracts/DeltaNeutralVaultConfig02.sol\":14444:14532  if (_reinvestPath.length < 2) revert DeltaNeutralVaultConfig_InvalidReinvestPathLength() */\n    tag_344:\n        /* \"contracts/DeltaNeutralVaultConfig02.sol\":14565:14576  alpacaToken */\n      sload(0x72)\n      0x0100\n      swap1\n      div\n      sub(shl(0xa0, 0x01), 0x01)\n      and\n        /* \"contracts/DeltaNeutralVaultConfig02.sol\":14545:14558  _reinvestPath */\n      dup3\n      dup3\n        /* \"contracts/DeltaNeutralVaultConfig02.sol\":14559:14560  0 */\n      0x00\n        /* \"contracts/DeltaNeutralVaultConfig02.sol\":14545:14558  _reinvestPath */\n      dup2\n        /* \"contracts/DeltaNeutralVaultConfig02.sol\":14545:14561  _reinvestPath[0] */\n      tag_346\n      jumpi\n      tag_346\n      tag_296\n      jump\t// in\n    tag_346:\n      swap1\n      pop\n      0x20\n      mul\n      add\n      0x20\n      dup2\n      add\n      swap1\n      tag_347\n      swap2\n      swap1\n      tag_90\n      jump\t// in\n    tag_347:\n      sub(shl(0xa0, 0x01), 0x01)\n        /* \"contracts/DeltaNeutralVaultConfig02.sol\":14545:14576  _reinvestPath[0] != alpacaToken */\n      and\n      eq\n        /* \"contracts/DeltaNeutralVaultConfig02.sol\":14541:14630  if (_reinvestPath[0] != alpacaToken) revert DeltaNeutralVaultConfig_InvalidReinvestPath() */\n      tag_348\n      jumpi\n        /* \"contracts/DeltaNeutralVaultConfig02.sol\":14585:14630  DeltaNeutralVaultConfig_InvalidReinvestPath() */\n      mload(0x40)\n      shl(0xe3, 0x0c3e3d85)\n      dup2\n      mstore\n      0x04\n      add\n      mload(0x40)\n      dup1\n      swap2\n      sub\n      swap1\n      revert\n        /* \"contracts/DeltaNeutralVaultConfig02.sol\":14541:14630  if (_reinvestPath[0] != alpacaToken) revert DeltaNeutralVaultConfig_InvalidReinvestPath() */\n    tag_348:\n        /* \"contracts/DeltaNeutralVaultConfig02.sol\":14639:14667  reinvestPath = _reinvestPath */\n      tag_349\n        /* \"contracts/DeltaNeutralVaultConfig02.sol\":14639:14651  reinvestPath */\n      0x74\n        /* \"contracts/DeltaNeutralVaultConfig02.sol\":14654:14667  _reinvestPath */\n      dup4\n      dup4\n        /* \"contracts/DeltaNeutralVaultConfig02.sol\":14639:14667  reinvestPath = _reinvestPath */\n      tag_350\n      jump\t// in\n    tag_349:\n      pop\n        /* \"contracts/DeltaNeutralVaultConfig02.sol\":14698:14708  msg.sender */\n      caller\n      sub(shl(0xa0, 0x01), 0x01)\n        /* \"contracts/DeltaNeutralVaultConfig02.sol\":14679:14724  LogSetReinvestPath(msg.sender, _reinvestPath) */\n      and\n      0xb67c241a52658f85ec5362073fc9a0909e07aad7e75f92291c35f910c57f8086\n        /* \"contracts/DeltaNeutralVaultConfig02.sol\":14710:14723  _reinvestPath */\n      dup4\n      dup4\n        /* \"contracts/DeltaNeutralVaultConfig02.sol\":14679:14724  LogSetReinvestPath(msg.sender, _reinvestPath) */\n      mload(0x40)\n      tag_283\n      swap3\n      swap2\n      swap1\n      tag_352\n      jump\t// in\n        /* \"contracts/DeltaNeutralVaultConfig02.sol\":6484:7229  function initialize(... */\n    tag_160:\n        /* \"@openzeppelin/contracts-upgradeable/proxy/utils/Initializable.sol\":3111:3130  bool isTopLevelCall */\n      0x00\n        /* \"@openzeppelin/contracts-upgradeable/proxy/utils/Initializable.sol\":3133:3158  _setInitializedVersion(1) */\n      tag_354\n        /* \"@openzeppelin/contracts-upgradeable/proxy/utils/Initializable.sol\":3156:3157  1 */\n      0x01\n        /* \"@openzeppelin/contracts-upgradeable/proxy/utils/Initializable.sol\":3133:3155  _setInitializedVersion */\n      tag_355\n        /* \"@openzeppelin/contracts-upgradeable/proxy/utils/Initializable.sol\":3133:3158  _setInitializedVersion(1) */\n      jump\t// in\n    tag_354:\n        /* \"@openzeppelin/contracts-upgradeable/proxy/utils/Initializable.sol\":3111:3158  bool isTopLevelCall = _setInitializedVersion(1) */\n      swap1\n      pop\n        /* \"@openzeppelin/contracts-upgradeable/proxy/utils/Initializable.sol\":3172:3186  isTopLevelCall */\n      dup1\n        /* \"@openzeppelin/contracts-upgradeable/proxy/utils/Initializable.sol\":3168:3233  if (isTopLevelCall) {... */\n      iszero\n      tag_356\n      jumpi\n        /* \"@openzeppelin/contracts-upgradeable/proxy/utils/Initializable.sol\":3202:3215  _initializing */\n      0x00\n        /* \"@openzeppelin/contracts-upgradeable/proxy/utils/Initializable.sol\":3202:3222  _initializing = true */\n      dup1\n      sload\n      not(0xff00)\n      and\n      0x0100\n      or\n      swap1\n      sstore\n        /* \"@openzeppelin/contracts-upgradeable/proxy/utils/Initializable.sol\":3168:3233  if (isTopLevelCall) {... */\n    tag_356:\n        /* \"contracts/DeltaNeutralVaultConfig02.sol\":6872:6907  OwnableUpgradeable.__Ownable_init() */\n      tag_358\n        /* \"contracts/DeltaNeutralVaultConfig02.sol\":6872:6905  OwnableUpgradeable.__Ownable_init */\n      tag_359\n        /* \"contracts/DeltaNeutralVaultConfig02.sol\":6872:6907  OwnableUpgradeable.__Ownable_init() */\n      jump\t// in\n    tag_358:\n        /* \"contracts/DeltaNeutralVaultConfig02.sol\":6916:6927  alpacaToken */\n      0x72\n        /* \"contracts/DeltaNeutralVaultConfig02.sol\":6916:6942  alpacaToken = _alpacaToken */\n      dup1\n      sload\n      not(sub(shl(0xa8, 0x01), 0x0100))\n      and\n      0x0100\n      sub(shl(0xa0, 0x01), 0x01)\n      dup6\n      and\n      mul\n      or\n      swap1\n      sstore\n        /* \"contracts/DeltaNeutralVaultConfig02.sol\":6951:7034  setFees(_depositFeeTreasury, 0, _withdrawFeeTreasury, 0, _managementFeeTreasury, 0) */\n      tag_360\n        /* \"contracts/DeltaNeutralVaultConfig02.sol\":6959:6978  _depositFeeTreasury */\n      dup6\n      0x00\n        /* \"contracts/DeltaNeutralVaultConfig02.sol\":6983:7003  _withdrawFeeTreasury */\n      dup6\n      dup2\n        /* \"contracts/DeltaNeutralVaultConfig02.sol\":7008:7030  _managementFeeTreasury */\n      dup9\n      dup2\n        /* \"contracts/DeltaNeutralVaultConfig02.sol\":6951:6958  setFees */\n      tag_242\n        /* \"contracts/DeltaNeutralVaultConfig02.sol\":6951:7034  setFees(_depositFeeTreasury, 0, _withdrawFeeTreasury, 0, _managementFeeTreasury, 0) */\n      jump\t// in\n    tag_360:\n        /* \"contracts/DeltaNeutralVaultConfig02.sol\":7041:7223  setParams(... */\n      tag_361\n        /* \"contracts/DeltaNeutralVaultConfig02.sol\":7059:7080  _getWrappedNativeAddr */\n      dup12\n        /* \"contracts/DeltaNeutralVaultConfig02.sol\":7089:7107  _getWNativeRelayer */\n      dup12\n        /* \"contracts/DeltaNeutralVaultConfig02.sol\":7116:7131  _fairLaunchAddr */\n      dup12\n        /* \"contracts/DeltaNeutralVaultConfig02.sol\":7140:7156  _rebalanceFactor */\n      dup12\n        /* \"contracts/DeltaNeutralVaultConfig02.sol\":7165:7188  _positionValueTolerance */\n      dup12\n        /* \"contracts/DeltaNeutralVaultConfig02.sol\":7197:7216  _debtRatioTolerance */\n      dup12\n        /* \"contracts/DeltaNeutralVaultConfig02.sol\":7041:7050  setParams */\n      tag_182\n        /* \"contracts/DeltaNeutralVaultConfig02.sol\":7041:7223  setParams(... */\n      jump\t// in\n    tag_361:\n        /* \"@openzeppelin/contracts-upgradeable/proxy/utils/Initializable.sol\":3257:3271  isTopLevelCall */\n      dup1\n        /* \"@openzeppelin/contracts-upgradeable/proxy/utils/Initializable.sol\":3253:3352  if (isTopLevelCall) {... */\n      iszero\n      tag_362\n      jumpi\n        /* \"@openzeppelin/contracts-upgradeable/proxy/utils/Initializable.sol\":3303:3308  false */\n      0x00\n        /* \"@openzeppelin/contracts-upgradeable/proxy/utils/Initializable.sol\":3287:3308  _initializing = false */\n      dup1\n      sload\n      not(0xff00)\n      and\n      swap1\n      sstore\n        /* \"@openzeppelin/contracts-upgradeable/proxy/utils/Initializable.sol\":3327:3341  Initialized(1) */\n      mload(0x40)\n      0x01\n        /* \"#utility.yul\":5366:5402   */\n      dup2\n      mstore\n        /* \"@openzeppelin/contracts-upgradeable/proxy/utils/Initializable.sol\":3327:3341  Initialized(1) */\n      0x7f26b83ff96e1f2b6a682f133852f6798a09c465da95921460cefb3847402498\n      swap1\n        /* \"#utility.yul\":5354:5356   */\n      0x20\n        /* \"#utility.yul\":5339:5357   */\n      add\n        /* \"@openzeppelin/contracts-upgradeable/proxy/utils/Initializable.sol\":3327:3341  Initialized(1) */\n      mload(0x40)\n      dup1\n      swap2\n      sub\n      swap1\n      log1\n        /* \"@openzeppelin/contracts-upgradeable/proxy/utils/Initializable.sol\":3253:3352  if (isTopLevelCall) {... */\n    tag_362:\n        /* \"@openzeppelin/contracts-upgradeable/proxy/utils/Initializable.sol\":3101:3358  {... */\n      pop\n        /* \"contracts/DeltaNeutralVaultConfig02.sol\":6484:7229  function initialize(... */\n      pop\n      pop\n      pop\n      pop\n      pop\n      pop\n      pop\n      pop\n      pop\n      pop\n      jump\t// out\n        /* \"contracts/DeltaNeutralVaultConfig02.sol\":15904:16120  function setSwapConfig(uint256 _swapFee, uint256 _swapFeeDenom) external onlyOwner {... */\n    tag_170:\n        /* \"@openzeppelin/contracts-upgradeable/access/OwnableUpgradeable.sol\":1348:1354  _owner */\n      and(sub(shl(0xa0, 0x01), 0x01), sload(0x33))\n        /* \"@openzeppelin/contracts-upgradeable/utils/ContextUpgradeable.sol\":929:939  msg.sender */\n      caller\n        /* \"@openzeppelin/contracts-upgradeable/access/OwnableUpgradeable.sol\":1488:1511  owner() == _msgSender() */\n      eq\n        /* \"@openzeppelin/contracts-upgradeable/access/OwnableUpgradeable.sol\":1480:1548  require(owner() == _msgSender(), \"Ownable: caller is not the owner\") */\n      tag_368\n      jumpi\n      mload(0x40)\n      shl(0xe5, 0x461bcd)\n      dup2\n      mstore\n      0x04\n      add\n      tag_278\n      swap1\n      tag_279\n      jump\t// in\n    tag_368:\n        /* \"contracts/DeltaNeutralVaultConfig02.sol\":15994:16001  swapFee */\n      0x82\n        /* \"contracts/DeltaNeutralVaultConfig02.sol\":15994:16012  swapFee = _swapFee */\n      dup3\n      swap1\n      sstore\n        /* \"contracts/DeltaNeutralVaultConfig02.sol\":16019:16031  swapFeeDenom */\n      0x83\n        /* \"contracts/DeltaNeutralVaultConfig02.sol\":16019:16047  swapFeeDenom = _swapFeeDenom */\n      dup2\n      swap1\n      sstore\n        /* \"contracts/DeltaNeutralVaultConfig02.sol\":16061:16114  LogSetSwapConfig(msg.sender, _swapFee, _swapFeeDenom) */\n      0x40\n      dup1\n      mload\n        /* \"#utility.yul\":8919:8944   */\n      dup4\n      dup2\n      mstore\n        /* \"#utility.yul\":8975:8977   */\n      0x20\n        /* \"#utility.yul\":8960:8978   */\n      dup2\n      add\n        /* \"#utility.yul\":8953:8987   */\n      dup4\n      swap1\n      mstore\n        /* \"contracts/DeltaNeutralVaultConfig02.sol\":16078:16088  msg.sender */\n      caller\n      swap2\n        /* \"contracts/DeltaNeutralVaultConfig02.sol\":16061:16114  LogSetSwapConfig(msg.sender, _swapFee, _swapFeeDenom) */\n      0x377241d1cd344fbe941f17d99a8ea4b7c81990ec2da5f6d7ccfe19b9b1676f8f\n      swap2\n        /* \"#utility.yul\":8892:8910   */\n      add\n        /* \"contracts/DeltaNeutralVaultConfig02.sol\":16061:16114  LogSetSwapConfig(msg.sender, _swapFee, _swapFeeDenom) */\n      tag_283\n        /* \"#utility.yul\":8745:8993   */\n      jump\n        /* \"@openzeppelin/contracts-upgradeable/access/OwnableUpgradeable.sol\":1908:2009  function renounceOwnership() public virtual onlyOwner {... */\n    tag_172:\n        /* \"@openzeppelin/contracts-upgradeable/access/OwnableUpgradeable.sol\":1348:1354  _owner */\n      and(sub(shl(0xa0, 0x01), 0x01), sload(0x33))\n        /* \"@openzeppelin/contracts-upgradeable/utils/ContextUpgradeable.sol\":929:939  msg.sender */\n      caller\n        /* \"@openzeppelin/contracts-upgradeable/access/OwnableUpgradeable.sol\":1488:1511  owner() == _msgSender() */\n      eq\n        /* \"@openzeppelin/contracts-upgradeable/access/OwnableUpgradeable.sol\":1480:1548  require(owner() == _msgSender(), \"Ownable: caller is not the owner\") */\n      tag_376\n      jumpi\n      mload(0x40)\n      shl(0xe5, 0x461bcd)\n      dup2\n      mstore\n      0x04\n      add\n      tag_278\n      swap1\n      tag_279\n      jump\t// in\n    tag_376:\n        /* \"@openzeppelin/contracts-upgradeable/access/OwnableUpgradeable.sol\":1972:2002  _transferOwnership(address(0)) */\n      tag_379\n        /* \"@openzeppelin/contracts-upgradeable/access/OwnableUpgradeable.sol\":1999:2000  0 */\n      0x00\n        /* \"@openzeppelin/contracts-upgradeable/access/OwnableUpgradeable.sol\":1972:1990  _transferOwnership */\n      tag_380\n        /* \"@openzeppelin/contracts-upgradeable/access/OwnableUpgradeable.sol\":1972:2002  _transferOwnership(address(0)) */\n      jump\t// in\n    tag_379:\n        /* \"@openzeppelin/contracts-upgradeable/access/OwnableUpgradeable.sol\":1908:2009  function renounceOwnership() public virtual onlyOwner {... */\n      jump\t// out\n        /* \"contracts/DeltaNeutralVaultConfig02.sol\":7235:7980  function setParams(... */\n    tag_182:\n        /* \"@openzeppelin/contracts-upgradeable/access/OwnableUpgradeable.sol\":1348:1354  _owner */\n      and(sub(shl(0xa0, 0x01), 0x01), sload(0x33))\n        /* \"@openzeppelin/contracts-upgradeable/utils/ContextUpgradeable.sol\":929:939  msg.sender */\n      caller\n        /* \"@openzeppelin/contracts-upgradeable/access/OwnableUpgradeable.sol\":1488:1511  owner() == _msgSender() */\n      eq\n        /* \"@openzeppelin/contracts-upgradeable/access/OwnableUpgradeable.sol\":1480:1548  require(owner() == _msgSender(), \"Ownable: caller is not the owner\") */\n      tag_384\n      jumpi\n      mload(0x40)\n      shl(0xe5, 0x461bcd)\n      dup2\n      mstore\n      0x04\n      add\n      tag_278\n      swap1\n      tag_279\n      jump\t// in\n    tag_384:\n        /* \"contracts/DeltaNeutralVaultConfig02.sol\":7485:7505  getWrappedNativeAddr */\n      0x65\n        /* \"contracts/DeltaNeutralVaultConfig02.sol\":7485:7529  getWrappedNativeAddr = _getWrappedNativeAddr */\n      dup1\n      sload\n      sub(shl(0xa0, 0x01), 0x01)\n      dup9\n      dup2\n      and\n      not(sub(shl(0xa0, 0x01), 0x01))\n      swap3\n      dup4\n      and\n      dup2\n      or\n      swap1\n      swap4\n      sstore\n        /* \"contracts/DeltaNeutralVaultConfig02.sol\":7536:7553  getWNativeRelayer */\n      0x66\n        /* \"contracts/DeltaNeutralVaultConfig02.sol\":7536:7574  getWNativeRelayer = _getWNativeRelayer */\n      dup1\n      sload\n      dup10\n      dup4\n      and\n      swap1\n      dup5\n      and\n      dup2\n      or\n      swap1\n      swap2\n      sstore\n        /* \"contracts/DeltaNeutralVaultConfig02.sol\":7581:7595  fairLaunchAddr */\n      0x67\n        /* \"contracts/DeltaNeutralVaultConfig02.sol\":7581:7613  fairLaunchAddr = _fairLaunchAddr */\n      dup1\n      sload\n      swap3\n      dup10\n      and\n      swap3\n      swap1\n      swap4\n      and\n      dup3\n      or\n      swap1\n      swap3\n      sstore\n        /* \"contracts/DeltaNeutralVaultConfig02.sol\":7620:7635  rebalanceFactor */\n      0x69\n        /* \"contracts/DeltaNeutralVaultConfig02.sol\":7620:7654  rebalanceFactor = _rebalanceFactor */\n      dup7\n      swap1\n      sstore\n        /* \"contracts/DeltaNeutralVaultConfig02.sol\":7661:7683  positionValueTolerance */\n      0x6a\n        /* \"contracts/DeltaNeutralVaultConfig02.sol\":7661:7709  positionValueTolerance = _positionValueTolerance */\n      dup6\n      swap1\n      sstore\n        /* \"contracts/DeltaNeutralVaultConfig02.sol\":7716:7734  debtRatioTolerance */\n      0x6b\n        /* \"contracts/DeltaNeutralVaultConfig02.sol\":7716:7756  debtRatioTolerance = _debtRatioTolerance */\n      dup5\n      swap1\n      sstore\n        /* \"contracts/DeltaNeutralVaultConfig02.sol\":7770:7974  LogSetParams(... */\n      0x40\n      dup1\n      mload\n        /* \"#utility.yul\":9323:9357   */\n      swap4\n      dup5\n      mstore\n        /* \"#utility.yul\":9388:9390   */\n      0x20\n        /* \"#utility.yul\":9373:9391   */\n      dup5\n      add\n        /* \"#utility.yul\":9366:9409   */\n      swap3\n      swap1\n      swap3\n      mstore\n        /* \"#utility.yul\":9425:9443   */\n      swap1\n      dup3\n      add\n        /* \"#utility.yul\":9418:9461   */\n      mstore\n        /* \"#utility.yul\":9492:9494   */\n      0x60\n        /* \"#utility.yul\":9477:9495   */\n      dup2\n      add\n        /* \"#utility.yul\":9470:9504   */\n      dup5\n      swap1\n      mstore\n        /* \"#utility.yul\":9535:9538   */\n      0x80\n        /* \"#utility.yul\":9520:9539   */\n      dup2\n      add\n        /* \"#utility.yul\":9513:9548   */\n      dup4\n      swap1\n      mstore\n        /* \"#utility.yul\":9303:9306   */\n      0xa0\n        /* \"#utility.yul\":9564:9583   */\n      dup2\n      add\n        /* \"#utility.yul\":9557:9592   */\n      dup3\n      swap1\n      mstore\n        /* \"contracts/DeltaNeutralVaultConfig02.sol\":7791:7801  msg.sender */\n      caller\n      swap1\n        /* \"contracts/DeltaNeutralVaultConfig02.sol\":7770:7974  LogSetParams(... */\n      0xd4ca73c532248c12fc93b1dd748b3954751548cac9a9565697a3849bf7dd3b4c\n      swap1\n        /* \"#utility.yul\":9272:9275   */\n      0xc0\n        /* \"#utility.yul\":9257:9276   */\n      add\n        /* \"contracts/DeltaNeutralVaultConfig02.sol\":7770:7974  LogSetParams(... */\n    tag_387:\n      mload(0x40)\n      dup1\n      swap2\n      sub\n      swap1\n      log2\n        /* \"contracts/DeltaNeutralVaultConfig02.sol\":7235:7980  function setParams(... */\n      pop\n      pop\n      pop\n      pop\n      pop\n      pop\n      jump\t// out\n        /* \"contracts/DeltaNeutralVaultConfig02.sol\":5270:5299  address[] public reinvestPath */\n    tag_188:\n      0x74\n      dup2\n      dup2\n      sload\n      dup2\n      lt\n      tag_390\n      jumpi\n      0x00\n      dup1\n      revert\n    tag_390:\n      0x00\n      swap2\n      dup3\n      mstore\n      0x20\n      swap1\n      swap2\n      keccak256\n      add\n      sload\n      sub(shl(0xa0, 0x01), 0x01)\n      and\n      swap1\n      pop\n      dup2\n      jump\t// out\n        /* \"contracts/DeltaNeutralVaultConfig02.sol\":9128:9424  function setwhitelistedReinvestors(address[] calldata _callers, bool _ok) external onlyOwner {... */\n    tag_192:\n        /* \"@openzeppelin/contracts-upgradeable/access/OwnableUpgradeable.sol\":1348:1354  _owner */\n      and(sub(shl(0xa0, 0x01), 0x01), sload(0x33))\n        /* \"@openzeppelin/contracts-upgradeable/utils/ContextUpgradeable.sol\":929:939  msg.sender */\n      caller\n        /* \"@openzeppelin/contracts-upgradeable/access/OwnableUpgradeable.sol\":1488:1511  owner() == _msgSender() */\n      eq\n        /* \"@openzeppelin/contracts-upgradeable/access/OwnableUpgradeable.sol\":1480:1548  require(owner() == _msgSender(), \"Ownable: caller is not the owner\") */\n      tag_395\n      jumpi\n      mload(0x40)\n      shl(0xe5, 0x461bcd)\n      dup2\n      mstore\n      0x04\n      add\n      tag_278\n      swap1\n      tag_279\n      jump\t// in\n    tag_395:\n        /* \"contracts/DeltaNeutralVaultConfig02.sol\":9233:9245  uint256 _idx */\n      0x00\n        /* \"contracts/DeltaNeutralVaultConfig02.sol\":9228:9419  for (uint256 _idx = 0; _idx < _callers.length; _idx++) {... */\n    tag_398:\n        /* \"contracts/DeltaNeutralVaultConfig02.sol\":9251:9273  _idx < _callers.length */\n      dup3\n      dup2\n      lt\n        /* \"contracts/DeltaNeutralVaultConfig02.sol\":9228:9419  for (uint256 _idx = 0; _idx < _callers.length; _idx++) {... */\n      iszero\n      tag_292\n      jumpi\n        /* \"contracts/DeltaNeutralVaultConfig02.sol\":9333:9336  _ok */\n      dup2\n        /* \"contracts/DeltaNeutralVaultConfig02.sol\":9292:9314  whitelistedReinvestors */\n      0x78\n        /* \"contracts/DeltaNeutralVaultConfig02.sol\":9292:9330  whitelistedReinvestors[_callers[_idx]] */\n      0x00\n        /* \"contracts/DeltaNeutralVaultConfig02.sol\":9315:9323  _callers */\n      dup7\n      dup7\n        /* \"contracts/DeltaNeutralVaultConfig02.sol\":9324:9328  _idx */\n      dup6\n        /* \"contracts/DeltaNeutralVaultConfig02.sol\":9315:9329  _callers[_idx] */\n      dup2\n      dup2\n      lt\n      tag_402\n      jumpi\n      tag_402\n      tag_296\n      jump\t// in\n    tag_402:\n      swap1\n      pop\n      0x20\n      mul\n      add\n      0x20\n      dup2\n      add\n      swap1\n      tag_403\n      swap2\n      swap1\n      tag_90\n      jump\t// in\n    tag_403:\n      sub(shl(0xa0, 0x01), 0x01)\n        /* \"contracts/DeltaNeutralVaultConfig02.sol\":9292:9330  whitelistedReinvestors[_callers[_idx]] */\n      and\n      dup2\n      mstore\n      0x20\n      dup2\n      add\n      swap2\n      swap1\n      swap2\n      mstore\n      0x40\n      add\n      0x00\n      keccak256\n        /* \"contracts/DeltaNeutralVaultConfig02.sol\":9292:9336  whitelistedReinvestors[_callers[_idx]] = _ok */\n      dup1\n      sload\n      not(0xff)\n      and\n      swap2\n      iszero\n      iszero\n      swap2\n      swap1\n      swap2\n      or\n      swap1\n      sstore\n        /* \"contracts/DeltaNeutralVaultConfig02.sol\":9391:9399  _callers */\n      dup4\n      dup4\n        /* \"contracts/DeltaNeutralVaultConfig02.sol\":9400:9404  _idx */\n      dup3\n        /* \"contracts/DeltaNeutralVaultConfig02.sol\":9391:9405  _callers[_idx] */\n      dup2\n      dup2\n      lt\n      tag_405\n      jumpi\n      tag_405\n      tag_296\n      jump\t// in\n    tag_405:\n      swap1\n      pop\n      0x20\n      mul\n      add\n      0x20\n      dup2\n      add\n      swap1\n      tag_406\n      swap2\n      swap1\n      tag_90\n      jump\t// in\n    tag_406:\n      sub(shl(0xa0, 0x01), 0x01)\n        /* \"contracts/DeltaNeutralVaultConfig02.sol\":9350:9411  LogSetWhitelistedReinvestors(msg.sender, _callers[_idx], _ok) */\n      and\n        /* \"contracts/DeltaNeutralVaultConfig02.sol\":9379:9389  msg.sender */\n      caller\n      sub(shl(0xa0, 0x01), 0x01)\n        /* \"contracts/DeltaNeutralVaultConfig02.sol\":9350:9411  LogSetWhitelistedReinvestors(msg.sender, _callers[_idx], _ok) */\n      and\n      0x9e48685292272e85fa3be83f07779af7794d29a6efb26b5f834bfb48e220d370\n        /* \"contracts/DeltaNeutralVaultConfig02.sol\":9407:9410  _ok */\n      dup5\n        /* \"contracts/DeltaNeutralVaultConfig02.sol\":9350:9411  LogSetWhitelistedReinvestors(msg.sender, _callers[_idx], _ok) */\n      mload(0x40)\n      tag_407\n      swap2\n        /* \"#utility.yul\":1197:1211   */\n      iszero\n        /* \"#utility.yul\":1190:1212   */\n      iszero\n        /* \"#utility.yul\":1172:1213   */\n      dup2\n      mstore\n        /* \"#utility.yul\":1160:1162   */\n      0x20\n        /* \"#utility.yul\":1145:1163   */\n      add\n      swap1\n        /* \"#utility.yul\":1032:1219   */\n      jump\n        /* \"contracts/DeltaNeutralVaultConfig02.sol\":9350:9411  LogSetWhitelistedReinvestors(msg.sender, _callers[_idx], _ok) */\n    tag_407:\n      mload(0x40)\n      dup1\n      swap2\n      sub\n      swap1\n      log3\n        /* \"contracts/DeltaNeutralVaultConfig02.sol\":9275:9281  _idx++ */\n      dup1\n      tag_408\n      dup2\n      tag_303\n      jump\t// in\n    tag_408:\n      swap2\n      pop\n      pop\n        /* \"contracts/DeltaNeutralVaultConfig02.sol\":9228:9419  for (uint256 _idx = 0; _idx < _callers.length; _idx++) {... */\n      jump(tag_398)\n        /* \"contracts/DeltaNeutralVaultConfig02.sol\":14877:15110  function setController(address _controller) external onlyOwner {... */\n    tag_195:\n        /* \"@openzeppelin/contracts-upgradeable/access/OwnableUpgradeable.sol\":1348:1354  _owner */\n      and(sub(shl(0xa0, 0x01), 0x01), sload(0x33))\n        /* \"@openzeppelin/contracts-upgradeable/utils/ContextUpgradeable.sol\":929:939  msg.sender */\n      caller\n        /* \"@openzeppelin/contracts-upgradeable/access/OwnableUpgradeable.sol\":1488:1511  owner() == _msgSender() */\n      eq\n        /* \"@openzeppelin/contracts-upgradeable/access/OwnableUpgradeable.sol\":1480:1548  require(owner() == _msgSender(), \"Ownable: caller is not the owner\") */\n      tag_412\n      jumpi\n      mload(0x40)\n      shl(0xe5, 0x461bcd)\n      dup2\n      mstore\n      0x04\n      add\n      tag_278\n      swap1\n      tag_279\n      jump\t// in\n    tag_412:\n        /* \"contracts/DeltaNeutralVaultConfig02.sol\":14968:15016  IController(_controller).totalCredit(address(0)) */\n      mload(0x40)\n      shl(0xe2, 0x3c88345b)\n      dup2\n      mstore\n        /* \"contracts/DeltaNeutralVaultConfig02.sol\":15013:15014  0 */\n      0x00\n        /* \"contracts/DeltaNeutralVaultConfig02.sol\":14968:15016  IController(_controller).totalCredit(address(0)) */\n      0x04\n      dup3\n      add\n        /* \"#utility.yul\":342:393   */\n      mstore\n      sub(shl(0xa0, 0x01), 0x01)\n        /* \"contracts/DeltaNeutralVaultConfig02.sol\":14968:15004  IController(_controller).totalCredit */\n      dup3\n      and\n      swap1\n      0xf220d16c\n      swap1\n        /* \"#utility.yul\":315:333   */\n      0x24\n      add\n        /* \"contracts/DeltaNeutralVaultConfig02.sol\":14968:15016  IController(_controller).totalCredit(address(0)) */\n      0x20\n      mload(0x40)\n      dup1\n      dup4\n      sub\n      dup2\n      dup7\n      gas\n      staticcall\n      iszero\n      dup1\n      iszero\n      tag_417\n      jumpi\n      returndatasize\n      0x00\n      dup1\n      returndatacopy\n      revert(0x00, returndatasize)\n    tag_417:\n      pop\n      pop\n      pop\n      pop\n      mload(0x40)\n      returndatasize\n      not(0x1f)\n      0x1f\n      dup3\n      add\n      and\n      dup3\n      add\n      dup1\n      0x40\n      mstore\n      pop\n      dup2\n      add\n      swap1\n      tag_418\n      swap2\n      swap1\n      tag_419\n      jump\t// in\n    tag_418:\n      pop\n        /* \"contracts/DeltaNeutralVaultConfig02.sol\":15025:15035  controller */\n      0x7d\n        /* \"contracts/DeltaNeutralVaultConfig02.sol\":15025:15049  controller = _controller */\n      dup1\n      sload\n      not(sub(shl(0xa0, 0x01), 0x01))\n      and\n      sub(shl(0xa0, 0x01), 0x01)\n      dup4\n      and\n      swap1\n      dup2\n      or\n      swap1\n      swap2\n      sstore\n        /* \"contracts/DeltaNeutralVaultConfig02.sol\":15063:15104  LogSetController(msg.sender, _controller) */\n      mload(0x40)\n        /* \"#utility.yul\":342:393   */\n      swap1\n      dup2\n      mstore\n        /* \"contracts/DeltaNeutralVaultConfig02.sol\":15080:15090  msg.sender */\n      caller\n      swap1\n        /* \"contracts/DeltaNeutralVaultConfig02.sol\":15063:15104  LogSetController(msg.sender, _controller) */\n      0x1d38dced3210495ad7eff4825fd4dd5cc0e44c11c98519840691e5391c78cd15\n      swap1\n        /* \"#utility.yul\":330:332   */\n      0x20\n        /* \"#utility.yul\":315:333   */\n      add\n        /* \"contracts/DeltaNeutralVaultConfig02.sol\":15063:15104  LogSetController(msg.sender, _controller) */\n      tag_330\n        /* \"#utility.yul\":196:399   */\n      jump\n        /* \"contracts/DeltaNeutralVaultConfig02.sol\":8642:8937  function setWhitelistedRebalancer(address[] calldata _callers, bool _ok) external onlyOwner {... */\n    tag_201:\n        /* \"@openzeppelin/contracts-upgradeable/access/OwnableUpgradeable.sol\":1348:1354  _owner */\n      and(sub(shl(0xa0, 0x01), 0x01), sload(0x33))\n        /* \"@openzeppelin/contracts-upgradeable/utils/ContextUpgradeable.sol\":929:939  msg.sender */\n      caller\n        /* \"@openzeppelin/contracts-upgradeable/access/OwnableUpgradeable.sol\":1488:1511  owner() == _msgSender() */\n      eq\n        /* \"@openzeppelin/contracts-upgradeable/access/OwnableUpgradeable.sol\":1480:1548  require(owner() == _msgSender(), \"Ownable: caller is not the owner\") */\n      tag_424\n      jumpi\n      mload(0x40)\n      shl(0xe5, 0x461bcd)\n      dup2\n      mstore\n      0x04\n      add\n      tag_278\n      swap1\n      tag_279\n      jump\t// in\n    tag_424:\n        /* \"contracts/DeltaNeutralVaultConfig02.sol\":8746:8758  uint256 _idx */\n      0x00\n        /* \"contracts/DeltaNeutralVaultConfig02.sol\":8741:8932  for (uint256 _idx = 0; _idx < _callers.length; _idx++) {... */\n    tag_427:\n        /* \"contracts/DeltaNeutralVaultConfig02.sol\":8764:8786  _idx < _callers.length */\n      dup3\n      dup2\n      lt\n        /* \"contracts/DeltaNeutralVaultConfig02.sol\":8741:8932  for (uint256 _idx = 0; _idx < _callers.length; _idx++) {... */\n      iszero\n      tag_292\n      jumpi\n        /* \"contracts/DeltaNeutralVaultConfig02.sol\":8846:8849  _ok */\n      dup2\n        /* \"contracts/DeltaNeutralVaultConfig02.sol\":8805:8827  whitelistedRebalancers */\n      0x76\n        /* \"contracts/DeltaNeutralVaultConfig02.sol\":8805:8843  whitelistedRebalancers[_callers[_idx]] */\n      0x00\n        /* \"contracts/DeltaNeutralVaultConfig02.sol\":8828:8836  _callers */\n      dup7\n      dup7\n        /* \"contracts/DeltaNeutralVaultConfig02.sol\":8837:8841  _idx */\n      dup6\n        /* \"contracts/DeltaNeutralVaultConfig02.sol\":8828:8842  _callers[_idx] */\n      dup2\n      dup2\n      lt\n      tag_431\n      jumpi\n      tag_431\n      tag_296\n      jump\t// in\n    tag_431:\n      swap1\n      pop\n      0x20\n      mul\n      add\n      0x20\n      dup2\n      add\n      swap1\n      tag_432\n      swap2\n      swap1\n      tag_90\n      jump\t// in\n    tag_432:\n      sub(shl(0xa0, 0x01), 0x01)\n        /* \"contracts/DeltaNeutralVaultConfig02.sol\":8805:8843  whitelistedRebalancers[_callers[_idx]] */\n      and\n      dup2\n      mstore\n      0x20\n      dup2\n      add\n      swap2\n      swap1\n      swap2\n      mstore\n      0x40\n      add\n      0x00\n      keccak256\n        /* \"contracts/DeltaNeutralVaultConfig02.sol\":8805:8849  whitelistedRebalancers[_callers[_idx]] = _ok */\n      dup1\n      sload\n      not(0xff)\n      and\n      swap2\n      iszero\n      iszero\n      swap2\n      swap1\n      swap2\n      or\n      swap1\n      sstore\n        /* \"contracts/DeltaNeutralVaultConfig02.sol\":8904:8912  _callers */\n      dup4\n      dup4\n        /* \"contracts/DeltaNeutralVaultConfig02.sol\":8913:8917  _idx */\n      dup3\n        /* \"contracts/DeltaNeutralVaultConfig02.sol\":8904:8918  _callers[_idx] */\n      dup2\n      dup2\n      lt\n      tag_434\n      jumpi\n      tag_434\n      tag_296\n      jump\t// in\n    tag_434:\n      swap1\n      pop\n      0x20\n      mul\n      add\n      0x20\n      dup2\n      add\n      swap1\n      tag_435\n      swap2\n      swap1\n      tag_90\n      jump\t// in\n    tag_435:\n      sub(shl(0xa0, 0x01), 0x01)\n        /* \"contracts/DeltaNeutralVaultConfig02.sol\":8863:8924  LogSetWhitelistedRebalancers(msg.sender, _callers[_idx], _ok) */\n      and\n        /* \"contracts/DeltaNeutralVaultConfig02.sol\":8892:8902  msg.sender */\n      caller\n      sub(shl(0xa0, 0x01), 0x01)\n        /* \"contracts/DeltaNeutralVaultConfig02.sol\":8863:8924  LogSetWhitelistedRebalancers(msg.sender, _callers[_idx], _ok) */\n      and\n      0xa36d60ecff7c14072a077a9b05c8c98cfdfbf7b5f8e354a071764c27e5330855\n        /* \"contracts/DeltaNeutralVaultConfig02.sol\":8920:8923  _ok */\n      dup5\n        /* \"contracts/DeltaNeutralVaultConfig02.sol\":8863:8924  LogSetWhitelistedRebalancers(msg.sender, _callers[_idx], _ok) */\n      mload(0x40)\n      tag_436\n      swap2\n        /* \"#utility.yul\":1197:1211   */\n      iszero\n        /* \"#utility.yul\":1190:1212   */\n      iszero\n        /* \"#utility.yul\":1172:1213   */\n      dup2\n      mstore\n        /* \"#utility.yul\":1160:1162   */\n      0x20\n        /* \"#utility.yul\":1145:1163   */\n      add\n      swap1\n        /* \"#utility.yul\":1032:1219   */\n      jump\n        /* \"contracts/DeltaNeutralVaultConfig02.sol\":8863:8924  LogSetWhitelistedRebalancers(msg.sender, _callers[_idx], _ok) */\n    tag_436:\n      mload(0x40)\n      dup1\n      swap2\n      sub\n      swap1\n      log3\n        /* \"contracts/DeltaNeutralVaultConfig02.sol\":8788:8794  _idx++ */\n      dup1\n      tag_437\n      dup2\n      tag_303\n      jump\t// in\n    tag_437:\n      swap2\n      pop\n      pop\n        /* \"contracts/DeltaNeutralVaultConfig02.sol\":8741:8932  for (uint256 _idx = 0; _idx < _callers.length; _idx++) {... */\n      jump(tag_427)\n        /* \"contracts/DeltaNeutralVaultConfig02.sol\":15116:15583  function setExecutor(... */\n    tag_214:\n        /* \"@openzeppelin/contracts-upgradeable/access/OwnableUpgradeable.sol\":1348:1354  _owner */\n      and(sub(shl(0xa0, 0x01), 0x01), sload(0x33))\n        /* \"@openzeppelin/contracts-upgradeable/utils/ContextUpgradeable.sol\":929:939  msg.sender */\n      caller\n        /* \"@openzeppelin/contracts-upgradeable/access/OwnableUpgradeable.sol\":1488:1511  owner() == _msgSender() */\n      eq\n        /* \"@openzeppelin/contracts-upgradeable/access/OwnableUpgradeable.sol\":1480:1548  require(owner() == _msgSender(), \"Ownable: caller is not the owner\") */\n      tag_441\n      jumpi\n      mload(0x40)\n      shl(0xe5, 0x461bcd)\n      dup2\n      mstore\n      0x04\n      add\n      tag_278\n      swap1\n      tag_279\n      jump\t// in\n    tag_441:\n        /* \"contracts/DeltaNeutralVaultConfig02.sol\":15296:15311  depositExecutor */\n      0x7e\n        /* \"contracts/DeltaNeutralVaultConfig02.sol\":15296:15330  depositExecutor = _depositExecutor */\n      dup1\n      sload\n      sub(shl(0xa0, 0x01), 0x01)\n      dup7\n      dup2\n      and\n      not(sub(shl(0xa0, 0x01), 0x01))\n      swap3\n      dup4\n      and\n      dup2\n      or\n      swap1\n      swap4\n      sstore\n        /* \"contracts/DeltaNeutralVaultConfig02.sol\":15337:15353  withdrawExecutor */\n      0x7f\n        /* \"contracts/DeltaNeutralVaultConfig02.sol\":15337:15373  withdrawExecutor = _withdrawExecutor */\n      dup1\n      sload\n      dup8\n      dup4\n      and\n      swap1\n      dup5\n      and\n      dup2\n      or\n      swap1\n      swap2\n      sstore\n        /* \"contracts/DeltaNeutralVaultConfig02.sol\":15380:15397  rebalanceExecutor */\n      0x80\n        /* \"contracts/DeltaNeutralVaultConfig02.sol\":15380:15418  rebalanceExecutor = _rebalanceExecutor */\n      dup1\n      sload\n      dup8\n      dup5\n      and\n      swap1\n      dup6\n      and\n      dup2\n      or\n      dup3\n      sstore\n        /* \"contracts/DeltaNeutralVaultConfig02.sol\":15425:15441  reinvestExecutor */\n      0x81\n        /* \"contracts/DeltaNeutralVaultConfig02.sol\":15425:15461  reinvestExecutor = _reinvestExecutor */\n      dup1\n      sload\n      swap5\n      dup9\n      and\n      swap5\n      swap1\n      swap6\n      and\n      dup5\n      or\n      swap1\n      swap5\n      sstore\n        /* \"contracts/DeltaNeutralVaultConfig02.sol\":15475:15577  LogSetExecutor(msg.sender, _depositExecutor, _withdrawExecutor, _rebalanceExecutor, _reinvestExecutor) */\n      0x40\n      dup1\n      mload\n        /* \"#utility.yul\":10061:10095   */\n      swap6\n      dup7\n      mstore\n        /* \"#utility.yul\":10126:10128   */\n      0x20\n        /* \"#utility.yul\":10111:10129   */\n      dup7\n      add\n        /* \"#utility.yul\":10104:10147   */\n      swap3\n      swap1\n      swap3\n      mstore\n        /* \"#utility.yul\":10163:10181   */\n      swap1\n      dup5\n      add\n        /* \"#utility.yul\":10156:10199   */\n      swap3\n      swap1\n      swap3\n      mstore\n        /* \"#utility.yul\":10230:10232   */\n      0x60\n        /* \"#utility.yul\":10215:10233   */\n      dup4\n      add\n        /* \"#utility.yul\":10208:10251   */\n      mstore\n        /* \"contracts/DeltaNeutralVaultConfig02.sol\":15490:15500  msg.sender */\n      caller\n      swap2\n        /* \"contracts/DeltaNeutralVaultConfig02.sol\":15475:15577  LogSetExecutor(msg.sender, _depositExecutor, _withdrawExecutor, _rebalanceExecutor, _reinvestExecutor) */\n      0x11cbce6c87791f09a7c2108a3abea2993ab3de5c9ed89a0bd108618ece832b23\n      swap2\n        /* \"#utility.yul\":9995:10014   */\n      add\n        /* \"contracts/DeltaNeutralVaultConfig02.sol\":15475:15577  LogSetExecutor(msg.sender, _depositExecutor, _withdrawExecutor, _rebalanceExecutor, _reinvestExecutor) */\n      mload(0x40)\n      dup1\n      swap2\n      sub\n      swap1\n      log2\n        /* \"contracts/DeltaNeutralVaultConfig02.sol\":15116:15583  function setExecutor(... */\n      pop\n      pop\n      pop\n      pop\n      jump\t// out\n        /* \"contracts/DeltaNeutralVaultConfig02.sol\":12733:13224  function setAlpacaBeneficiaryConfig(address _newAlpacaBeneficiary, uint256 _newAlpacaBeneficiaryBps)... */\n    tag_217:\n        /* \"@openzeppelin/contracts-upgradeable/access/OwnableUpgradeable.sol\":1348:1354  _owner */\n      and(sub(shl(0xa0, 0x01), 0x01), sload(0x33))\n        /* \"@openzeppelin/contracts-upgradeable/utils/ContextUpgradeable.sol\":929:939  msg.sender */\n      caller\n        /* \"@openzeppelin/contracts-upgradeable/access/OwnableUpgradeable.sol\":1488:1511  owner() == _msgSender() */\n      eq\n        /* \"@openzeppelin/contracts-upgradeable/access/OwnableUpgradeable.sol\":1480:1548  require(owner() == _msgSender(), \"Ownable: caller is not the owner\") */\n      tag_449\n      jumpi\n      mload(0x40)\n      shl(0xe5, 0x461bcd)\n      dup2\n      mstore\n      0x04\n      add\n      tag_278\n      swap1\n      tag_279\n      jump\t// in\n    tag_449:\n        /* \"contracts/DeltaNeutralVaultConfig02.sol\":3709:3713  6000 */\n      0x1770\n        /* \"contracts/DeltaNeutralVaultConfig02.sol\":12877:12901  _newAlpacaBeneficiaryBps */\n      dup2\n        /* \"contracts/DeltaNeutralVaultConfig02.sol\":12877:12930  _newAlpacaBeneficiaryBps > MAX_ALPACA_BENEFICIARY_BPS */\n      gt\n        /* \"contracts/DeltaNeutralVaultConfig02.sol\":12873:13019  if (_newAlpacaBeneficiaryBps > MAX_ALPACA_BENEFICIARY_BPS) {... */\n      iszero\n      tag_452\n      jumpi\n        /* \"contracts/DeltaNeutralVaultConfig02.sol\":12948:13011  DeltaNeutralVaultConfig_TooMuchBounty(_newAlpacaBeneficiaryBps) */\n      mload(0x40)\n      shl(0xe1, 0x2b14f147)\n      dup2\n      mstore\n      0x04\n      dup2\n      add\n        /* \"#utility.yul\":160:185   */\n      dup3\n      swap1\n      mstore\n        /* \"#utility.yul\":133:151   */\n      0x24\n      add\n        /* \"contracts/DeltaNeutralVaultConfig02.sol\":12948:13011  DeltaNeutralVaultConfig_TooMuchBounty(_newAlpacaBeneficiaryBps) */\n      tag_278\n        /* \"#utility.yul\":14:191   */\n      jump\n        /* \"contracts/DeltaNeutralVaultConfig02.sol\":12873:13019  if (_newAlpacaBeneficiaryBps > MAX_ALPACA_BENEFICIARY_BPS) {... */\n    tag_452:\n        /* \"contracts/DeltaNeutralVaultConfig02.sol\":13027:13044  alpacaBeneficiary */\n      0x7b\n        /* \"contracts/DeltaNeutralVaultConfig02.sol\":13027:13068  alpacaBeneficiary = _newAlpacaBeneficiary */\n      dup1\n      sload\n      not(sub(shl(0xa0, 0x01), 0x01))\n      and\n      sub(shl(0xa0, 0x01), 0x01)\n      dup5\n      and\n      swap1\n      dup2\n      or\n      swap1\n      swap2\n      sstore\n        /* \"contracts/DeltaNeutralVaultConfig02.sol\":13075:13095  alpacaBeneficiaryBps */\n      0x7c\n        /* \"contracts/DeltaNeutralVaultConfig02.sol\":13075:13122  alpacaBeneficiaryBps = _newAlpacaBeneficiaryBps */\n      dup3\n      swap1\n      sstore\n        /* \"contracts/DeltaNeutralVaultConfig02.sol\":13136:13218  LogSetAlpacaBeneficiaryConfig(msg.sender, alpacaBeneficiary, alpacaBeneficiaryBps) */\n      0x40\n      dup1\n      mload\n        /* \"#utility.yul\":7431:7482   */\n      swap2\n      dup3\n      mstore\n        /* \"#utility.yul\":7513:7515   */\n      0x20\n        /* \"#utility.yul\":7498:7516   */\n      dup3\n      add\n        /* \"#utility.yul\":7491:7525   */\n      dup4\n      swap1\n      mstore\n        /* \"contracts/DeltaNeutralVaultConfig02.sol\":13166:13176  msg.sender */\n      caller\n      swap2\n        /* \"contracts/DeltaNeutralVaultConfig02.sol\":13136:13218  LogSetAlpacaBeneficiaryConfig(msg.sender, alpacaBeneficiary, alpacaBeneficiaryBps) */\n      0x49d9e0ca3aa68af12938170e0cd7267d832389603122e97b1cc70333942b8d21\n      swap2\n        /* \"#utility.yul\":7404:7422   */\n      add\n        /* \"contracts/DeltaNeutralVaultConfig02.sol\":13136:13218  LogSetAlpacaBeneficiaryConfig(msg.sender, alpacaBeneficiary, alpacaBeneficiaryBps) */\n      tag_283\n        /* \"#utility.yul\":7257:7531   */\n      jump\n        /* \"contracts/DeltaNeutralVaultConfig02.sol\":16126:16646  function setStrategies(... */\n    tag_227:\n        /* \"@openzeppelin/contracts-upgradeable/access/OwnableUpgradeable.sol\":1348:1354  _owner */\n      and(sub(shl(0xa0, 0x01), 0x01), sload(0x33))\n        /* \"@openzeppelin/contracts-upgradeable/utils/ContextUpgradeable.sol\":929:939  msg.sender */\n      caller\n        /* \"@openzeppelin/contracts-upgradeable/access/OwnableUpgradeable.sol\":1488:1511  owner() == _msgSender() */\n      eq\n        /* \"@openzeppelin/contracts-upgradeable/access/OwnableUpgradeable.sol\":1480:1548  require(owner() == _msgSender(), \"Ownable: caller is not the owner\") */\n      tag_458\n      jumpi\n      mload(0x40)\n      shl(0xe5, 0x461bcd)\n      dup2\n      mstore\n      0x04\n      add\n      tag_278\n      swap1\n      tag_279\n      jump\t// in\n    tag_458:\n        /* \"contracts/DeltaNeutralVaultConfig02.sol\":16303:16331  partialCloseMinimizeStrategy */\n      0x84\n        /* \"contracts/DeltaNeutralVaultConfig02.sol\":16303:16363  partialCloseMinimizeStrategy = _partialCloseMinimizeStrategy */\n      dup1\n      sload\n      sub(shl(0xa0, 0x01), 0x01)\n      dup6\n      dup2\n      and\n      not(sub(shl(0xa0, 0x01), 0x01))\n      swap3\n      dup4\n      and\n      dup2\n      or\n      swap1\n      swap4\n      sstore\n        /* \"contracts/DeltaNeutralVaultConfig02.sol\":16370:16394  stableAddTwoSideStrategy */\n      0x85\n        /* \"contracts/DeltaNeutralVaultConfig02.sol\":16370:16422  stableAddTwoSideStrategy = _stableAddTwoSideStrategy */\n      dup1\n      sload\n      dup7\n      dup4\n      and\n      swap1\n      dup5\n      and\n      dup2\n      or\n      swap1\n      swap2\n      sstore\n        /* \"contracts/DeltaNeutralVaultConfig02.sol\":16429:16452  assetAddTwoSideStrategy */\n      0x86\n        /* \"contracts/DeltaNeutralVaultConfig02.sol\":16429:16479  assetAddTwoSideStrategy = _assetAddTwoSideStrategy */\n      dup1\n      sload\n      swap3\n      dup7\n      and\n      swap3\n      swap1\n      swap4\n      and\n      dup3\n      or\n      swap1\n      swap3\n      sstore\n        /* \"contracts/DeltaNeutralVaultConfig02.sol\":16493:16640  LogSetStrategies(... */\n      0x40\n      dup1\n      mload\n        /* \"#utility.yul\":10502:10536   */\n      swap4\n      dup5\n      mstore\n        /* \"#utility.yul\":10567:10569   */\n      0x20\n        /* \"#utility.yul\":10552:10570   */\n      dup5\n      add\n        /* \"#utility.yul\":10545:10588   */\n      swap3\n      swap1\n      swap3\n      mstore\n        /* \"#utility.yul\":10604:10622   */\n      swap1\n      dup3\n      add\n        /* \"#utility.yul\":10597:10640   */\n      mstore\n        /* \"contracts/DeltaNeutralVaultConfig02.sol\":16518:16528  msg.sender */\n      caller\n      swap1\n        /* \"contracts/DeltaNeutralVaultConfig02.sol\":16493:16640  LogSetStrategies(... */\n      0x4aaf8791c546d8d1000b9d104834f06eea9b95c08f81c36f7eee152623edf4ae\n      swap1\n        /* \"#utility.yul\":10452:10454   */\n      0x60\n        /* \"#utility.yul\":10437:10455   */\n      add\n        /* \"contracts/DeltaNeutralVaultConfig02.sol\":16493:16640  LogSetStrategies(... */\n      mload(0x40)\n      dup1\n      swap2\n      sub\n      swap1\n      log2\n        /* \"contracts/DeltaNeutralVaultConfig02.sol\":16126:16646  function setStrategies(... */\n      pop\n      pop\n      pop\n      jump\t// out\n        /* \"contracts/DeltaNeutralVaultConfig02.sol\":15664:15898  function isExecutor(address _caller) external view returns (bool) {... */\n    tag_233:\n        /* \"contracts/DeltaNeutralVaultConfig02.sol\":15762:15777  depositExecutor */\n      sload(0x7e)\n        /* \"contracts/DeltaNeutralVaultConfig02.sol\":15724:15728  bool */\n      0x00\n      swap1\n      sub(shl(0xa0, 0x01), 0x01)\n        /* \"contracts/DeltaNeutralVaultConfig02.sol\":15751:15777  _caller == depositExecutor */\n      dup4\n      dup2\n      and\n        /* \"contracts/DeltaNeutralVaultConfig02.sol\":15762:15777  depositExecutor */\n      swap2\n      and\n        /* \"contracts/DeltaNeutralVaultConfig02.sol\":15751:15777  _caller == depositExecutor */\n      eq\n      dup1\n        /* \"contracts/DeltaNeutralVaultConfig02.sol\":15751:15815  _caller == depositExecutor ||... */\n      tag_464\n      jumpi\n      pop\n        /* \"contracts/DeltaNeutralVaultConfig02.sol\":15799:15815  withdrawExecutor */\n      sload(0x7f)\n      sub(shl(0xa0, 0x01), 0x01)\n        /* \"contracts/DeltaNeutralVaultConfig02.sol\":15788:15815  _caller == withdrawExecutor */\n      dup4\n      dup2\n      and\n        /* \"contracts/DeltaNeutralVaultConfig02.sol\":15799:15815  withdrawExecutor */\n      swap2\n      and\n        /* \"contracts/DeltaNeutralVaultConfig02.sol\":15788:15815  _caller == withdrawExecutor */\n      eq\n        /* \"contracts/DeltaNeutralVaultConfig02.sol\":15751:15815  _caller == depositExecutor ||... */\n    tag_464:\n        /* \"contracts/DeltaNeutralVaultConfig02.sol\":15751:15854  _caller == depositExecutor ||... */\n      dup1\n      tag_465\n      jumpi\n      pop\n        /* \"contracts/DeltaNeutralVaultConfig02.sol\":15837:15854  rebalanceExecutor */\n      sload(0x80)\n      sub(shl(0xa0, 0x01), 0x01)\n        /* \"contracts/DeltaNeutralVaultConfig02.sol\":15826:15854  _caller == rebalanceExecutor */\n      dup4\n      dup2\n      and\n        /* \"contracts/DeltaNeutralVaultConfig02.sol\":15837:15854  rebalanceExecutor */\n      swap2\n      and\n        /* \"contracts/DeltaNeutralVaultConfig02.sol\":15826:15854  _caller == rebalanceExecutor */\n      eq\n        /* \"contracts/DeltaNeutralVaultConfig02.sol\":15751:15854  _caller == depositExecutor ||... */\n    tag_465:\n        /* \"contracts/DeltaNeutralVaultConfig02.sol\":15751:15892  _caller == depositExecutor ||... */\n      dup1\n      tag_466\n      jumpi\n      pop\n        /* \"contracts/DeltaNeutralVaultConfig02.sol\":15876:15892  reinvestExecutor */\n      sload(0x81)\n      sub(shl(0xa0, 0x01), 0x01)\n        /* \"contracts/DeltaNeutralVaultConfig02.sol\":15865:15892  _caller == reinvestExecutor */\n      dup4\n      dup2\n      and\n        /* \"contracts/DeltaNeutralVaultConfig02.sol\":15876:15892  reinvestExecutor */\n      swap2\n      and\n        /* \"contracts/DeltaNeutralVaultConfig02.sol\":15865:15892  _caller == reinvestExecutor */\n      eq\n        /* \"contracts/DeltaNeutralVaultConfig02.sol\":15751:15892  _caller == depositExecutor ||... */\n    tag_466:\n        /* \"contracts/DeltaNeutralVaultConfig02.sol\":15737:15892  return... */\n      swap3\n        /* \"contracts/DeltaNeutralVaultConfig02.sol\":15664:15898  function isExecutor(address _caller) external view returns (bool) {... */\n      swap2\n      pop\n      pop\n      jump\t// out\n        /* \"contracts/DeltaNeutralVaultConfig02.sol\":10648:11749  function setFees(... */\n    tag_242:\n        /* \"@openzeppelin/contracts-upgradeable/access/OwnableUpgradeable.sol\":1348:1354  _owner */\n      and(sub(shl(0xa0, 0x01), 0x01), sload(0x33))\n        /* \"@openzeppelin/contracts-upgradeable/utils/ContextUpgradeable.sol\":929:939  msg.sender */\n      caller\n        /* \"@openzeppelin/contracts-upgradeable/access/OwnableUpgradeable.sol\":1488:1511  owner() == _msgSender() */\n      eq\n        /* \"@openzeppelin/contracts-upgradeable/access/OwnableUpgradeable.sol\":1480:1548  require(owner() == _msgSender(), \"Ownable: caller is not the owner\") */\n      tag_470\n      jumpi\n      mload(0x40)\n      shl(0xe5, 0x461bcd)\n      dup2\n      mstore\n      0x04\n      add\n      tag_278\n      swap1\n      tag_279\n      jump\t// in\n    tag_470:\n        /* \"contracts/DeltaNeutralVaultConfig02.sol\":3461:3465  1000 */\n      0x03e8\n        /* \"contracts/DeltaNeutralVaultConfig02.sol\":10928:10945  _newDepositFeeBps */\n      dup6\n        /* \"contracts/DeltaNeutralVaultConfig02.sol\":10928:10967  _newDepositFeeBps > MAX_DEPOSIT_FEE_BPS */\n      gt\n        /* \"contracts/DeltaNeutralVaultConfig02.sol\":10928:11023  _newDepositFeeBps > MAX_DEPOSIT_FEE_BPS ||... */\n      dup1\n      tag_473\n      jumpi\n      pop\n        /* \"contracts/DeltaNeutralVaultConfig02.sol\":3520:3524  1000 */\n      0x03e8\n        /* \"contracts/DeltaNeutralVaultConfig02.sol\":10978:10998  _newWithdrawalFeeBps */\n      dup4\n        /* \"contracts/DeltaNeutralVaultConfig02.sol\":10978:11023  _newWithdrawalFeeBps > MAX_WITHDRAWAL_FEE_BPS */\n      gt\n        /* \"contracts/DeltaNeutralVaultConfig02.sol\":10928:11023  _newDepositFeeBps > MAX_DEPOSIT_FEE_BPS ||... */\n    tag_473:\n        /* \"contracts/DeltaNeutralVaultConfig02.sol\":10928:11085  _newDepositFeeBps > MAX_DEPOSIT_FEE_BPS ||... */\n      dup1\n      tag_474\n      jumpi\n      pop\n        /* \"contracts/DeltaNeutralVaultConfig02.sol\":3582:3592  3170979198 */\n      0xbd014d7e\n        /* \"contracts/DeltaNeutralVaultConfig02.sol\":11034:11057  _newManagementFeePerSec */\n      dup2\n        /* \"contracts/DeltaNeutralVaultConfig02.sol\":11034:11085  _newManagementFeePerSec > MAX_MANGEMENT_FEE_PER_SEC */\n      gt\n        /* \"contracts/DeltaNeutralVaultConfig02.sol\":10928:11085  _newDepositFeeBps > MAX_DEPOSIT_FEE_BPS ||... */\n    tag_474:\n        /* \"contracts/DeltaNeutralVaultConfig02.sol\":10916:11217  if (... */\n      iszero\n      tag_475\n      jumpi\n        /* \"contracts/DeltaNeutralVaultConfig02.sol\":11109:11209  DeltaNeutralVaultConfig_TooMuchFee(_newDepositFeeBps, _newWithdrawalFeeBps, _newManagementFeePerSec) */\n      mload(0x40)\n      shl(0xe1, 0x4b873b29)\n      dup2\n      mstore\n      0x04\n      dup2\n      add\n        /* \"#utility.yul\":10853:10878   */\n      dup7\n      swap1\n      mstore\n        /* \"#utility.yul\":10894:10912   */\n      0x24\n      dup2\n      add\n        /* \"#utility.yul\":10887:10921   */\n      dup5\n      swap1\n      mstore\n        /* \"#utility.yul\":10937:10955   */\n      0x44\n      dup2\n      add\n        /* \"#utility.yul\":10930:10964   */\n      dup3\n      swap1\n      mstore\n        /* \"#utility.yul\":10826:10844   */\n      0x64\n      add\n        /* \"contracts/DeltaNeutralVaultConfig02.sol\":11109:11209  DeltaNeutralVaultConfig_TooMuchFee(_newDepositFeeBps, _newWithdrawalFeeBps, _newManagementFeePerSec) */\n      tag_278\n        /* \"#utility.yul\":10651:10970   */\n      jump\n        /* \"contracts/DeltaNeutralVaultConfig02.sol\":10916:11217  if (... */\n    tag_475:\n        /* \"contracts/DeltaNeutralVaultConfig02.sol\":11225:11243  depositFeeTreasury */\n      0x6c\n        /* \"contracts/DeltaNeutralVaultConfig02.sol\":11225:11268  depositFeeTreasury = _newDepositFeeTreasury */\n      dup1\n      sload\n      sub(shl(0xa0, 0x01), 0x01)\n      dup9\n      dup2\n      and\n      not(sub(shl(0xa0, 0x01), 0x01))\n      swap3\n      dup4\n      and\n      or\n      swap1\n      swap3\n      sstore\n        /* \"contracts/DeltaNeutralVaultConfig02.sol\":11275:11288  depositFeeBps */\n      0x6d\n        /* \"contracts/DeltaNeutralVaultConfig02.sol\":11275:11308  depositFeeBps = _newDepositFeeBps */\n      dup8\n      swap1\n      sstore\n        /* \"contracts/DeltaNeutralVaultConfig02.sol\":11317:11338  withdrawalFeeTreasury */\n      0x6e\n        /* \"contracts/DeltaNeutralVaultConfig02.sol\":11317:11366  withdrawalFeeTreasury = _newWithdrawalFeeTreasury */\n      dup1\n      sload\n      dup8\n      dup5\n      and\n      swap1\n      dup4\n      and\n      or\n      swap1\n      sstore\n        /* \"contracts/DeltaNeutralVaultConfig02.sol\":11373:11389  withdrawalFeeBps */\n      0x6f\n        /* \"contracts/DeltaNeutralVaultConfig02.sol\":11373:11412  withdrawalFeeBps = _newWithdrawalFeeBps */\n      dup6\n      swap1\n      sstore\n        /* \"contracts/DeltaNeutralVaultConfig02.sol\":11421:11442  managementFeeTreasury */\n      0x70\n        /* \"contracts/DeltaNeutralVaultConfig02.sol\":11421:11470  managementFeeTreasury = _newManagementFeeTreasury */\n      dup1\n      sload\n      swap3\n      dup6\n      and\n      swap3\n      swap1\n      swap2\n      and\n      swap2\n      swap1\n      swap2\n      or\n      swap1\n      sstore\n        /* \"contracts/DeltaNeutralVaultConfig02.sol\":11477:11496  managementFeePerSec */\n      0x71\n        /* \"contracts/DeltaNeutralVaultConfig02.sol\":11477:11522  managementFeePerSec = _newManagementFeePerSec */\n      dup2\n      swap1\n      sstore\n        /* \"contracts/DeltaNeutralVaultConfig02.sol\":11536:11624  LogSetFees(msg.sender, _newDepositFeeBps, _newWithdrawalFeeBps, _newManagementFeePerSec) */\n      0x40\n      dup1\n      mload\n        /* \"#utility.yul\":10853:10878   */\n      dup7\n      dup2\n      mstore\n        /* \"#utility.yul\":10909:10911   */\n      0x20\n        /* \"#utility.yul\":10894:10912   */\n      dup2\n      add\n        /* \"#utility.yul\":10887:10921   */\n      dup6\n      swap1\n      mstore\n        /* \"#utility.yul\":10937:10955   */\n      swap1\n      dup2\n      add\n        /* \"#utility.yul\":10930:10964   */\n      dup3\n      swap1\n      mstore\n        /* \"contracts/DeltaNeutralVaultConfig02.sol\":11547:11557  msg.sender */\n      caller\n      swap1\n        /* \"contracts/DeltaNeutralVaultConfig02.sol\":11536:11624  LogSetFees(msg.sender, _newDepositFeeBps, _newWithdrawalFeeBps, _newManagementFeePerSec) */\n      0xc4d5650477cd4354e9a07e898df55abe6fecec3e415531e27a8499597b462be2\n      swap1\n        /* \"#utility.yul\":10841:10843   */\n      0x60\n        /* \"#utility.yul\":10826:10844   */\n      add\n        /* \"contracts/DeltaNeutralVaultConfig02.sol\":11536:11624  LogSetFees(msg.sender, _newDepositFeeBps, _newWithdrawalFeeBps, _newManagementFeePerSec) */\n      mload(0x40)\n      dup1\n      swap2\n      sub\n      swap1\n      log2\n        /* \"contracts/DeltaNeutralVaultConfig02.sol\":11636:11743  LogSetFeeTreasury(msg.sender, _newDepositFeeTreasury, _newWithdrawalFeeTreasury, _newManagementFeeTreasury) */\n      0x40\n      dup1\n      mload\n      sub(shl(0xa0, 0x01), 0x01)\n        /* \"#utility.yul\":10520:10535   */\n      dup9\n      dup2\n      and\n        /* \"#utility.yul\":10502:10536   */\n      dup3\n      mstore\n        /* \"#utility.yul\":10572:10587   */\n      dup7\n      dup2\n      and\n        /* \"#utility.yul\":10567:10569   */\n      0x20\n        /* \"#utility.yul\":10552:10570   */\n      dup4\n      add\n        /* \"#utility.yul\":10545:10588   */\n      mstore\n        /* \"#utility.yul\":10624:10639   */\n      dup5\n      and\n        /* \"#utility.yul\":10604:10622   */\n      swap2\n      dup2\n      add\n        /* \"#utility.yul\":10597:10640   */\n      swap2\n      swap1\n      swap2\n      mstore\n        /* \"contracts/DeltaNeutralVaultConfig02.sol\":11654:11664  msg.sender */\n      caller\n      swap1\n        /* \"contracts/DeltaNeutralVaultConfig02.sol\":11636:11743  LogSetFeeTreasury(msg.sender, _newDepositFeeTreasury, _newWithdrawalFeeTreasury, _newManagementFeeTreasury) */\n      0x6ebcbf01234512b5d15e025b0aa6bd7514d7f7690b4ff5b260bea6b9aac29e0f\n      swap1\n        /* \"#utility.yul\":10452:10454   */\n      0x60\n        /* \"#utility.yul\":10437:10455   */\n      add\n        /* \"contracts/DeltaNeutralVaultConfig02.sol\":11636:11743  LogSetFeeTreasury(msg.sender, _newDepositFeeTreasury, _newWithdrawalFeeTreasury, _newManagementFeeTreasury) */\n      tag_387\n        /* \"#utility.yul\":10262:10646   */\n      jump\n        /* \"@openzeppelin/contracts-upgradeable/access/OwnableUpgradeable.sol\":2158:2356  function transferOwnership(address newOwner) public virtual onlyOwner {... */\n    tag_251:\n        /* \"@openzeppelin/contracts-upgradeable/access/OwnableUpgradeable.sol\":1348:1354  _owner */\n      and(sub(shl(0xa0, 0x01), 0x01), sload(0x33))\n        /* \"@openzeppelin/contracts-upgradeable/utils/ContextUpgradeable.sol\":929:939  msg.sender */\n      caller\n        /* \"@openzeppelin/contracts-upgradeable/access/OwnableUpgradeable.sol\":1488:1511  owner() == _msgSender() */\n      eq\n        /* \"@openzeppelin/contracts-upgradeable/access/OwnableUpgradeable.sol\":1480:1548  require(owner() == _msgSender(), \"Ownable: caller is not the owner\") */\n      tag_483\n      jumpi\n      mload(0x40)\n      shl(0xe5, 0x461bcd)\n      dup2\n      mstore\n      0x04\n      add\n      tag_278\n      swap1\n      tag_279\n      jump\t// in\n    tag_483:\n      sub(shl(0xa0, 0x01), 0x01)\n        /* \"@openzeppelin/contracts-upgradeable/access/OwnableUpgradeable.sol\":2246:2268  newOwner != address(0) */\n      dup2\n      and\n        /* \"@openzeppelin/contracts-upgradeable/access/OwnableUpgradeable.sol\":2238:2311  require(newOwner != address(0), \"Ownable: new owner is the zero address\") */\n      tag_486\n      jumpi\n      mload(0x40)\n      shl(0xe5, 0x461bcd)\n      dup2\n      mstore\n        /* \"#utility.yul\":11177:11179   */\n      0x20\n        /* \"@openzeppelin/contracts-upgradeable/access/OwnableUpgradeable.sol\":2238:2311  require(newOwner != address(0), \"Ownable: new owner is the zero address\") */\n      0x04\n      dup3\n      add\n        /* \"#utility.yul\":11159:11180   */\n      mstore\n        /* \"#utility.yul\":11216:11218   */\n      0x26\n        /* \"#utility.yul\":11196:11214   */\n      0x24\n      dup3\n      add\n        /* \"#utility.yul\":11189:11219   */\n      mstore\n        /* \"#utility.yul\":11255:11289   */\n      0x4f776e61626c653a206e6577206f776e657220697320746865207a65726f2061\n        /* \"#utility.yul\":11235:11253   */\n      0x44\n      dup3\n      add\n        /* \"#utility.yul\":11228:11290   */\n      mstore\n      shl(0xd0, 0x646472657373)\n        /* \"#utility.yul\":11306:11324   */\n      0x64\n      dup3\n      add\n        /* \"#utility.yul\":11299:11335   */\n      mstore\n        /* \"#utility.yul\":11352:11371   */\n      0x84\n      add\n        /* \"@openzeppelin/contracts-upgradeable/access/OwnableUpgradeable.sol\":2238:2311  require(newOwner != address(0), \"Ownable: new owner is the zero address\") */\n      tag_278\n        /* \"#utility.yul\":10975:11377   */\n      jump\n        /* \"@openzeppelin/contracts-upgradeable/access/OwnableUpgradeable.sol\":2238:2311  require(newOwner != address(0), \"Ownable: new owner is the zero address\") */\n    tag_486:\n        /* \"@openzeppelin/contracts-upgradeable/access/OwnableUpgradeable.sol\":2321:2349  _transferOwnership(newOwner) */\n      tag_489\n        /* \"@openzeppelin/contracts-upgradeable/access/OwnableUpgradeable.sol\":2340:2348  newOwner */\n      dup2\n        /* \"@openzeppelin/contracts-upgradeable/access/OwnableUpgradeable.sol\":2321:2339  _transferOwnership */\n      tag_380\n        /* \"@openzeppelin/contracts-upgradeable/access/OwnableUpgradeable.sol\":2321:2349  _transferOwnership(newOwner) */\n      jump\t// in\n    tag_489:\n        /* \"@openzeppelin/contracts-upgradeable/access/OwnableUpgradeable.sol\":2158:2356  function transferOwnership(address newOwner) public virtual onlyOwner {... */\n      pop\n      jump\t// out\n        /* \"contracts/DeltaNeutralVaultConfig02.sol\":14771:14871  function getReinvestPath() external view returns (address[] memory) {... */\n    tag_256:\n        /* \"contracts/DeltaNeutralVaultConfig02.sol\":14821:14837  address[] memory */\n      0x60\n        /* \"contracts/DeltaNeutralVaultConfig02.sol\":14853:14865  reinvestPath */\n      0x74\n        /* \"contracts/DeltaNeutralVaultConfig02.sol\":14846:14865  return reinvestPath */\n      dup1\n      sload\n      dup1\n      0x20\n      mul\n      0x20\n      add\n      mload(0x40)\n      swap1\n      dup2\n      add\n      0x40\n      mstore\n      dup1\n      swap3\n      swap2\n      swap1\n      dup2\n      dup2\n      mstore\n      0x20\n      add\n      dup3\n      dup1\n      sload\n      dup1\n      iszero\n      tag_491\n      jumpi\n      0x20\n      mul\n      dup3\n      add\n      swap2\n      swap1\n      0x00\n      mstore\n      keccak256(0x00, 0x20)\n      swap1\n    tag_492:\n      dup2\n      sload\n      sub(shl(0xa0, 0x01), 0x01)\n      and\n      dup2\n      mstore\n      0x01\n      swap1\n      swap2\n      add\n      swap1\n      0x20\n      add\n      dup1\n      dup4\n      gt\n      tag_492\n      jumpi\n    tag_491:\n      pop\n      pop\n      pop\n      pop\n      pop\n      swap1\n      pop\n        /* \"contracts/DeltaNeutralVaultConfig02.sol\":14771:14871  function getReinvestPath() external view returns (address[] memory) {... */\n      swap1\n      jump\t// out\n        /* \"contracts/DeltaNeutralVaultConfig02.sol\":9586:9883  function setLeverageLevel(uint8 _newLeverageLevel) external onlyOwner {... */\n    tag_268:\n        /* \"@openzeppelin/contracts-upgradeable/access/OwnableUpgradeable.sol\":1348:1354  _owner */\n      and(sub(shl(0xa0, 0x01), 0x01), sload(0x33))\n        /* \"@openzeppelin/contracts-upgradeable/utils/ContextUpgradeable.sol\":929:939  msg.sender */\n      caller\n        /* \"@openzeppelin/contracts-upgradeable/access/OwnableUpgradeable.sol\":1488:1511  owner() == _msgSender() */\n      eq\n        /* \"@openzeppelin/contracts-upgradeable/access/OwnableUpgradeable.sol\":1480:1548  require(owner() == _msgSender(), \"Ownable: caller is not the owner\") */\n      tag_496\n      jumpi\n      mload(0x40)\n      shl(0xe5, 0x461bcd)\n      dup2\n      mstore\n      0x04\n      add\n      tag_278\n      swap1\n      tag_279\n      jump\t// in\n    tag_496:\n        /* \"contracts/DeltaNeutralVaultConfig02.sol\":3408:3409  3 */\n      0x03\n        /* \"contracts/DeltaNeutralVaultConfig02.sol\":9667:9705  _newLeverageLevel < MIN_LEVERAGE_LEVEL */\n      0xff\n      dup3\n      and\n      lt\n        /* \"contracts/DeltaNeutralVaultConfig02.sol\":9663:9776  if (_newLeverageLevel < MIN_LEVERAGE_LEVEL) {... */\n      iszero\n      tag_499\n      jumpi\n        /* \"contracts/DeltaNeutralVaultConfig02.sol\":9723:9768  DeltaNeutralVaultConfig_LeverageLevelTooLow() */\n      mload(0x40)\n      shl(0xe1, 0x279a13c3)\n      dup2\n      mstore\n      0x04\n      add\n      mload(0x40)\n      dup1\n      swap2\n      sub\n      swap1\n      revert\n        /* \"contracts/DeltaNeutralVaultConfig02.sol\":9663:9776  if (_newLeverageLevel < MIN_LEVERAGE_LEVEL) {... */\n    tag_499:\n        /* \"contracts/DeltaNeutralVaultConfig02.sol\":9782:9795  leverageLevel */\n      0x72\n        /* \"contracts/DeltaNeutralVaultConfig02.sol\":9782:9815  leverageLevel = _newLeverageLevel */\n      dup1\n      sload\n      not(0xff)\n      and\n      0xff\n      dup4\n      and\n      swap1\n      dup2\n      or\n      swap1\n      swap2\n      sstore\n        /* \"contracts/DeltaNeutralVaultConfig02.sol\":9827:9877  LogSetLeverageLevel(msg.sender, _newLeverageLevel) */\n      mload(0x40)\n        /* \"#utility.yul\":5366:5402   */\n      swap1\n      dup2\n      mstore\n        /* \"contracts/DeltaNeutralVaultConfig02.sol\":9847:9857  msg.sender */\n      caller\n      swap1\n        /* \"contracts/DeltaNeutralVaultConfig02.sol\":9827:9877  LogSetLeverageLevel(msg.sender, _newLeverageLevel) */\n      0x0162496fc30aed361442504cdd534d5911e2997e66eb97f7455486c9476c8bfb\n      swap1\n        /* \"#utility.yul\":5354:5356   */\n      0x20\n        /* \"#utility.yul\":5339:5357   */\n      add\n        /* \"contracts/DeltaNeutralVaultConfig02.sol\":9827:9877  LogSetLeverageLevel(msg.sender, _newLeverageLevel) */\n      tag_330\n        /* \"#utility.yul\":5224:5408   */\n      jump\n        /* \"@openzeppelin/contracts-upgradeable/proxy/utils/Initializable.sol\":5287:6095  function _setInitializedVersion(uint8 version) private returns (bool) {... */\n    tag_355:\n        /* \"@openzeppelin/contracts-upgradeable/proxy/utils/Initializable.sol\":5351:5355  bool */\n      0x00\n        /* \"@openzeppelin/contracts-upgradeable/proxy/utils/Initializable.sol\":5684:5697  _initializing */\n      dup1\n      sload\n      0x0100\n      swap1\n      div\n      0xff\n      and\n        /* \"@openzeppelin/contracts-upgradeable/proxy/utils/Initializable.sol\":5680:6089  if (_initializing) {... */\n      iszero\n      tag_503\n      jumpi\n        /* \"@openzeppelin/contracts-upgradeable/proxy/utils/Initializable.sol\":5738:5745  version */\n      dup2\n        /* \"@openzeppelin/contracts-upgradeable/proxy/utils/Initializable.sol\":5738:5750  version == 1 */\n      0xff\n      and\n        /* \"@openzeppelin/contracts-upgradeable/proxy/utils/Initializable.sol\":5749:5750  1 */\n      0x01\n        /* \"@openzeppelin/contracts-upgradeable/proxy/utils/Initializable.sol\":5738:5750  version == 1 */\n      eq\n        /* \"@openzeppelin/contracts-upgradeable/proxy/utils/Initializable.sol\":5738:5799  version == 1 && !AddressUpgradeable.isContract(address(this)) */\n      dup1\n      iszero\n      tag_504\n      jumpi\n      pop\n        /* \"@openzeppelin/contracts-upgradeable/proxy/utils/Initializable.sol\":5793:5797  this */\n      address\n        /* \"@openzeppelin/contracts-upgradeable/utils/AddressUpgradeable.sol\":1476:1495  account.code.length */\n      extcodesize\n        /* \"@openzeppelin/contracts-upgradeable/utils/AddressUpgradeable.sol\":1476:1499  account.code.length > 0 */\n      iszero\n        /* \"@openzeppelin/contracts-upgradeable/proxy/utils/Initializable.sol\":5738:5799  version == 1 && !AddressUpgradeable.isContract(address(this)) */\n    tag_504:\n        /* \"@openzeppelin/contracts-upgradeable/proxy/utils/Initializable.sol\":5713:5879  require(... */\n      tag_507\n      jumpi\n      mload(0x40)\n      shl(0xe5, 0x461bcd)\n      dup2\n      mstore\n      0x04\n      add\n      tag_278\n      swap1\n      tag_509\n      jump\t// in\n    tag_507:\n      pop\n        /* \"@openzeppelin/contracts-upgradeable/proxy/utils/Initializable.sol\":5900:5905  false */\n      0x00\n      swap2\n        /* \"@openzeppelin/contracts-upgradeable/proxy/utils/Initializable.sol\":5287:6095  function _setInitializedVersion(uint8 version) private returns (bool) {... */\n      swap1\n      pop\n      jump\t// out\n        /* \"@openzeppelin/contracts-upgradeable/proxy/utils/Initializable.sol\":5680:6089  if (_initializing) {... */\n    tag_503:\n        /* \"@openzeppelin/contracts-upgradeable/proxy/utils/Initializable.sol\":5944:5956  _initialized */\n      sload(0x00)\n        /* \"@openzeppelin/contracts-upgradeable/proxy/utils/Initializable.sol\":5944:5966  _initialized < version */\n      0xff\n      dup1\n      dup5\n      and\n        /* \"@openzeppelin/contracts-upgradeable/proxy/utils/Initializable.sol\":5944:5956  _initialized */\n      swap2\n      and\n        /* \"@openzeppelin/contracts-upgradeable/proxy/utils/Initializable.sol\":5944:5966  _initialized < version */\n      lt\n        /* \"@openzeppelin/contracts-upgradeable/proxy/utils/Initializable.sol\":5936:6017  require(_initialized < version, \"Initializable: contract is already initialized\") */\n      tag_511\n      jumpi\n      mload(0x40)\n      shl(0xe5, 0x461bcd)\n      dup2\n      mstore\n      0x04\n      add\n      tag_278\n      swap1\n      tag_509\n      jump\t// in\n    tag_511:\n      pop\n        /* \"@openzeppelin/contracts-upgradeable/proxy/utils/Initializable.sol\":6031:6043  _initialized */\n      0x00\n        /* \"@openzeppelin/contracts-upgradeable/proxy/utils/Initializable.sol\":6031:6053  _initialized = version */\n      dup1\n      sload\n      not(0xff)\n      and\n      0xff\n      swap3\n      swap1\n      swap3\n      and\n      swap2\n      swap1\n      swap2\n      or\n      swap1\n      sstore\n      0x01\n      swap1\n        /* \"@openzeppelin/contracts-upgradeable/proxy/utils/Initializable.sol\":5287:6095  function _setInitializedVersion(uint8 version) private returns (bool) {... */\n      jump\t// out\n        /* \"@openzeppelin/contracts-upgradeable/proxy/utils/Initializable.sol\":5680:6089  if (_initializing) {... */\n    tag_510:\n        /* \"@openzeppelin/contracts-upgradeable/proxy/utils/Initializable.sol\":5287:6095  function _setInitializedVersion(uint8 version) private returns (bool) {... */\n      swap2\n      swap1\n      pop\n      jump\t// out\n        /* \"@openzeppelin/contracts-upgradeable/access/OwnableUpgradeable.sol\":988:1083  function __Ownable_init() internal onlyInitializing {... */\n    tag_359:\n        /* \"@openzeppelin/contracts-upgradeable/proxy/utils/Initializable.sol\":4698:4711  _initializing */\n      sload(0x00)\n      0x0100\n      swap1\n      div\n      0xff\n      and\n        /* \"@openzeppelin/contracts-upgradeable/proxy/utils/Initializable.sol\":4690:4759  require(_initializing, \"Initializable: contract is not initializing\") */\n      tag_514\n      jumpi\n      mload(0x40)\n      shl(0xe5, 0x461bcd)\n      dup2\n      mstore\n      0x04\n      add\n      tag_278\n      swap1\n      tag_516\n      jump\t// in\n    tag_514:\n        /* \"@openzeppelin/contracts-upgradeable/access/OwnableUpgradeable.sol\":1050:1076  __Ownable_init_unchained() */\n      tag_379\n        /* \"@openzeppelin/contracts-upgradeable/access/OwnableUpgradeable.sol\":1050:1074  __Ownable_init_unchained */\n      tag_519\n        /* \"@openzeppelin/contracts-upgradeable/access/OwnableUpgradeable.sol\":1050:1076  __Ownable_init_unchained() */\n      jump\t// in\n        /* \"@openzeppelin/contracts-upgradeable/access/OwnableUpgradeable.sol\":2510:2697  function _transferOwnership(address newOwner) internal virtual {... */\n    tag_380:\n        /* \"@openzeppelin/contracts-upgradeable/access/OwnableUpgradeable.sol\":2602:2608  _owner */\n      0x33\n      dup1\n      sload\n      sub(shl(0xa0, 0x01), 0x01)\n        /* \"@openzeppelin/contracts-upgradeable/access/OwnableUpgradeable.sol\":2618:2635  _owner = newOwner */\n      dup4\n      dup2\n      and\n      not(sub(shl(0xa0, 0x01), 0x01))\n      dup4\n      and\n      dup2\n      or\n      swap1\n      swap4\n      sstore\n        /* \"@openzeppelin/contracts-upgradeable/access/OwnableUpgradeable.sol\":2650:2690  OwnershipTransferred(oldOwner, newOwner) */\n      mload(0x40)\n        /* \"@openzeppelin/contracts-upgradeable/access/OwnableUpgradeable.sol\":2602:2608  _owner */\n      swap2\n      and\n      swap2\n        /* \"@openzeppelin/contracts-upgradeable/access/OwnableUpgradeable.sol\":2618:2635  _owner = newOwner */\n      swap1\n        /* \"@openzeppelin/contracts-upgradeable/access/OwnableUpgradeable.sol\":2602:2608  _owner */\n      dup3\n      swap1\n        /* \"@openzeppelin/contracts-upgradeable/access/OwnableUpgradeable.sol\":2650:2690  OwnershipTransferred(oldOwner, newOwner) */\n      0x8be0079c531659141344cd1fd0a4f28419497f9722a3daafe3b4186f6b6457e0\n      swap1\n        /* \"@openzeppelin/contracts-upgradeable/access/OwnableUpgradeable.sol\":2583:2599  address oldOwner */\n      0x00\n      swap1\n        /* \"@openzeppelin/contracts-upgradeable/access/OwnableUpgradeable.sol\":2650:2690  OwnershipTransferred(oldOwner, newOwner) */\n      log3\n        /* \"@openzeppelin/contracts-upgradeable/access/OwnableUpgradeable.sol\":2573:2697  {... */\n      pop\n        /* \"@openzeppelin/contracts-upgradeable/access/OwnableUpgradeable.sol\":2510:2697  function _transferOwnership(address newOwner) internal virtual {... */\n      pop\n      jump\t// out\n        /* \"@openzeppelin/contracts-upgradeable/access/OwnableUpgradeable.sol\":1089:1200  function __Ownable_init_unchained() internal onlyInitializing {... */\n    tag_519:\n        /* \"@openzeppelin/contracts-upgradeable/proxy/utils/Initializable.sol\":4698:4711  _initializing */\n      sload(0x00)\n      0x0100\n      swap1\n      div\n      0xff\n      and\n        /* \"@openzeppelin/contracts-upgradeable/proxy/utils/Initializable.sol\":4690:4759  require(_initializing, \"Initializable: contract is not initializing\") */\n      tag_523\n      jumpi\n      mload(0x40)\n      shl(0xe5, 0x461bcd)\n      dup2\n      mstore\n      0x04\n      add\n      tag_278\n      swap1\n      tag_516\n      jump\t// in\n    tag_523:\n        /* \"@openzeppelin/contracts-upgradeable/access/OwnableUpgradeable.sol\":1161:1193  _transferOwnership(_msgSender()) */\n      tag_379\n        /* \"@openzeppelin/contracts-upgradeable/utils/ContextUpgradeable.sol\":929:939  msg.sender */\n      caller\n        /* \"@openzeppelin/contracts-upgradeable/access/OwnableUpgradeable.sol\":1161:1179  _transferOwnership */\n      tag_380\n        /* \"@openzeppelin/contracts-upgradeable/access/OwnableUpgradeable.sol\":1161:1193  _transferOwnership(_msgSender()) */\n      jump\t// in\n    tag_350:\n      dup3\n      dup1\n      sload\n      dup3\n      dup3\n      sstore\n      swap1\n      0x00\n      mstore\n      keccak256(0x00, 0x20)\n      swap1\n      dup2\n      add\n      swap3\n      dup3\n      iszero\n      tag_530\n      jumpi\n      swap2\n      0x20\n      mul\n      dup3\n      add\n    tag_529:\n      dup3\n      dup2\n      gt\n      iszero\n      tag_530\n      jumpi\n      dup2\n      sload\n      not(sub(shl(0xa0, 0x01), 0x01))\n      and\n      sub(shl(0xa0, 0x01), 0x01)\n      dup5\n      calldataload\n      and\n      or\n      dup3\n      sstore\n      0x20\n      swap1\n      swap3\n      add\n      swap2\n      0x01\n      swap1\n      swap2\n      add\n      swap1\n      jump(tag_529)\n    tag_530:\n      pop\n      tag_531\n      swap3\n      swap2\n      pop\n      tag_532\n      jump\t// in\n    tag_531:\n      pop\n      swap1\n      jump\t// out\n    tag_532:\n    tag_533:\n      dup1\n      dup3\n      gt\n      iszero\n      tag_531\n      jumpi\n      0x00\n      dup2\n      sstore\n      0x01\n      add\n      jump(tag_533)\n        /* \"#utility.yul\":404:577   */\n    tag_535:\n        /* \"#utility.yul\":472:492   */\n      dup1\n      calldataload\n      sub(shl(0xa0, 0x01), 0x01)\n        /* \"#utility.yul\":521:552   */\n      dup2\n      and\n        /* \"#utility.yul\":511:553   */\n      dup2\n      eq\n        /* \"#utility.yul\":501:571   */\n      tag_510\n      jumpi\n        /* \"#utility.yul\":567:568   */\n      0x00\n        /* \"#utility.yul\":564:565   */\n      dup1\n        /* \"#utility.yul\":557:569   */\n      revert\n        /* \"#utility.yul\":582:836   */\n    tag_86:\n        /* \"#utility.yul\":650:656   */\n      0x00\n        /* \"#utility.yul\":658:664   */\n      dup1\n        /* \"#utility.yul\":711:713   */\n      0x40\n        /* \"#utility.yul\":699:708   */\n      dup4\n        /* \"#utility.yul\":690:697   */\n      dup6\n        /* \"#utility.yul\":686:709   */\n      sub\n        /* \"#utility.yul\":682:714   */\n      slt\n        /* \"#utility.yul\":679:731   */\n      iszero\n      tag_543\n      jumpi\n        /* \"#utility.yul\":727:728   */\n      0x00\n        /* \"#utility.yul\":724:725   */\n      dup1\n        /* \"#utility.yul\":717:729   */\n      revert\n        /* \"#utility.yul\":679:731   */\n    tag_543:\n        /* \"#utility.yul\":750:779   */\n      tag_544\n        /* \"#utility.yul\":769:778   */\n      dup4\n        /* \"#utility.yul\":750:779   */\n      tag_535\n      jump\t// in\n    tag_544:\n        /* \"#utility.yul\":740:779   */\n      swap5\n        /* \"#utility.yul\":826:828   */\n      0x20\n        /* \"#utility.yul\":811:829   */\n      swap4\n      swap1\n      swap4\n      add\n        /* \"#utility.yul\":798:830   */\n      calldataload\n      swap4\n      pop\n      pop\n      pop\n        /* \"#utility.yul\":582:836   */\n      jump\t// out\n        /* \"#utility.yul\":841:1027   */\n    tag_90:\n        /* \"#utility.yul\":900:906   */\n      0x00\n        /* \"#utility.yul\":953:955   */\n      0x20\n        /* \"#utility.yul\":941:950   */\n      dup3\n        /* \"#utility.yul\":932:939   */\n      dup5\n        /* \"#utility.yul\":928:951   */\n      sub\n        /* \"#utility.yul\":924:956   */\n      slt\n        /* \"#utility.yul\":921:973   */\n      iszero\n      tag_546\n      jumpi\n        /* \"#utility.yul\":969:970   */\n      0x00\n        /* \"#utility.yul\":966:967   */\n      dup1\n        /* \"#utility.yul\":959:971   */\n      revert\n        /* \"#utility.yul\":921:973   */\n    tag_546:\n        /* \"#utility.yul\":992:1021   */\n      tag_547\n        /* \"#utility.yul\":1011:1020   */\n      dup3\n        /* \"#utility.yul\":992:1021   */\n      tag_535\n      jump\t// in\n    tag_547:\n        /* \"#utility.yul\":982:1021   */\n      swap4\n        /* \"#utility.yul\":841:1027   */\n      swap3\n      pop\n      pop\n      pop\n      jump\t// out\n        /* \"#utility.yul\":1224:1591   */\n    tag_536:\n        /* \"#utility.yul\":1287:1295   */\n      0x00\n        /* \"#utility.yul\":1297:1303   */\n      dup1\n        /* \"#utility.yul\":1351:1354   */\n      dup4\n        /* \"#utility.yul\":1344:1348   */\n      0x1f\n        /* \"#utility.yul\":1336:1342   */\n      dup5\n        /* \"#utility.yul\":1332:1349   */\n      add\n        /* \"#utility.yul\":1328:1355   */\n      slt\n        /* \"#utility.yul\":1318:1373   */\n      tag_550\n      jumpi\n        /* \"#utility.yul\":1369:1370   */\n      0x00\n        /* \"#utility.yul\":1366:1367   */\n      dup1\n        /* \"#utility.yul\":1359:1371   */\n      revert\n        /* \"#utility.yul\":1318:1373   */\n    tag_550:\n      pop\n        /* \"#utility.yul\":1392:1412   */\n      dup2\n      calldataload\n        /* \"#utility.yul\":1435:1453   */\n      0xffffffffffffffff\n        /* \"#utility.yul\":1424:1454   */\n      dup2\n      gt\n        /* \"#utility.yul\":1421:1471   */\n      iszero\n      tag_551\n      jumpi\n        /* \"#utility.yul\":1467:1468   */\n      0x00\n        /* \"#utility.yul\":1464:1465   */\n      dup1\n        /* \"#utility.yul\":1457:1469   */\n      revert\n        /* \"#utility.yul\":1421:1471   */\n    tag_551:\n        /* \"#utility.yul\":1504:1508   */\n      0x20\n        /* \"#utility.yul\":1496:1502   */\n      dup4\n        /* \"#utility.yul\":1492:1509   */\n      add\n        /* \"#utility.yul\":1480:1509   */\n      swap2\n      pop\n        /* \"#utility.yul\":1564:1567   */\n      dup4\n        /* \"#utility.yul\":1557:1561   */\n      0x20\n        /* \"#utility.yul\":1547:1553   */\n      dup3\n        /* \"#utility.yul\":1544:1545   */\n      0x05\n        /* \"#utility.yul\":1540:1554   */\n      shl\n        /* \"#utility.yul\":1532:1538   */\n      dup6\n        /* \"#utility.yul\":1528:1555   */\n      add\n        /* \"#utility.yul\":1524:1562   */\n      add\n        /* \"#utility.yul\":1521:1568   */\n      gt\n        /* \"#utility.yul\":1518:1585   */\n      iszero\n      tag_552\n      jumpi\n        /* \"#utility.yul\":1581:1582   */\n      0x00\n        /* \"#utility.yul\":1578:1579   */\n      dup1\n        /* \"#utility.yul\":1571:1583   */\n      revert\n        /* \"#utility.yul\":1518:1585   */\n    tag_552:\n        /* \"#utility.yul\":1224:1591   */\n      swap3\n      pop\n      swap3\n      swap1\n      pop\n      jump\t// out\n        /* \"#utility.yul\":1596:2194   */\n    tag_96:\n        /* \"#utility.yul\":1688:1694   */\n      0x00\n        /* \"#utility.yul\":1696:1702   */\n      dup1\n        /* \"#utility.yul\":1704:1710   */\n      0x00\n        /* \"#utility.yul\":1757:1759   */\n      0x40\n        /* \"#utility.yul\":1745:1754   */\n      dup5\n        /* \"#utility.yul\":1736:1743   */\n      dup7\n        /* \"#utility.yul\":1732:1755   */\n      sub\n        /* \"#utility.yul\":1728:1760   */\n      slt\n        /* \"#utility.yul\":1725:1777   */\n      iszero\n      tag_554\n      jumpi\n        /* \"#utility.yul\":1773:1774   */\n      0x00\n        /* \"#utility.yul\":1770:1771   */\n      dup1\n        /* \"#utility.yul\":1763:1775   */\n      revert\n        /* \"#utility.yul\":1725:1777   */\n    tag_554:\n        /* \"#utility.yul\":1813:1822   */\n      dup4\n        /* \"#utility.yul\":1800:1823   */\n      calldataload\n        /* \"#utility.yul\":1846:1864   */\n      0xffffffffffffffff\n        /* \"#utility.yul\":1838:1844   */\n      dup2\n        /* \"#utility.yul\":1835:1865   */\n      gt\n        /* \"#utility.yul\":1832:1882   */\n      iszero\n      tag_555\n      jumpi\n        /* \"#utility.yul\":1878:1879   */\n      0x00\n        /* \"#utility.yul\":1875:1876   */\n      dup1\n        /* \"#utility.yul\":1868:1880   */\n      revert\n        /* \"#utility.yul\":1832:1882   */\n    tag_555:\n        /* \"#utility.yul\":1917:1987   */\n      tag_556\n        /* \"#utility.yul\":1979:1986   */\n      dup7\n        /* \"#utility.yul\":1970:1976   */\n      dup3\n        /* \"#utility.yul\":1959:1968   */\n      dup8\n        /* \"#utility.yul\":1955:1977   */\n      add\n        /* \"#utility.yul\":1917:1987   */\n      tag_536\n      jump\t// in\n    tag_556:\n        /* \"#utility.yul\":2006:2014   */\n      swap1\n      swap5\n      pop\n        /* \"#utility.yul\":1891:1987   */\n      swap3\n      pop\n      pop\n        /* \"#utility.yul\":2091:2093   */\n      0x20\n        /* \"#utility.yul\":2076:2094   */\n      dup5\n      add\n        /* \"#utility.yul\":2063:2095   */\n      calldataload\n        /* \"#utility.yul\":2131:2144   */\n      dup1\n      iszero\n        /* \"#utility.yul\":2124:2145   */\n      iszero\n        /* \"#utility.yul\":2114:2146   */\n      dup2\n      eq\n        /* \"#utility.yul\":2104:2164   */\n      tag_557\n      jumpi\n        /* \"#utility.yul\":2160:2161   */\n      0x00\n        /* \"#utility.yul\":2157:2158   */\n      dup1\n        /* \"#utility.yul\":2150:2162   */\n      revert\n        /* \"#utility.yul\":2104:2164   */\n    tag_557:\n        /* \"#utility.yul\":2183:2188   */\n      dup1\n        /* \"#utility.yul\":2173:2188   */\n      swap2\n      pop\n      pop\n        /* \"#utility.yul\":1596:2194   */\n      swap3\n      pop\n      swap3\n      pop\n      swap3\n      jump\t// out\n        /* \"#utility.yul\":2199:2379   */\n    tag_109:\n        /* \"#utility.yul\":2258:2264   */\n      0x00\n        /* \"#utility.yul\":2311:2313   */\n      0x20\n        /* \"#utility.yul\":2299:2308   */\n      dup3\n        /* \"#utility.yul\":2290:2297   */\n      dup5\n        /* \"#utility.yul\":2286:2309   */\n      sub\n        /* \"#utility.yul\":2282:2314   */\n      slt\n        /* \"#utility.yul\":2279:2331   */\n      iszero\n      tag_559\n      jumpi\n        /* \"#utility.yul\":2327:2328   */\n      0x00\n        /* \"#utility.yul\":2324:2325   */\n      dup1\n        /* \"#utility.yul\":2317:2329   */\n      revert\n        /* \"#utility.yul\":2279:2331   */\n    tag_559:\n      pop\n        /* \"#utility.yul\":2350:2373   */\n      calldataload\n      swap2\n        /* \"#utility.yul\":2199:2379   */\n      swap1\n      pop\n      jump\t// out\n        /* \"#utility.yul\":2384:2821   */\n    tag_152:\n        /* \"#utility.yul\":2470:2476   */\n      0x00\n        /* \"#utility.yul\":2478:2484   */\n      dup1\n        /* \"#utility.yul\":2531:2533   */\n      0x20\n        /* \"#utility.yul\":2519:2528   */\n      dup4\n        /* \"#utility.yul\":2510:2517   */\n      dup6\n        /* \"#utility.yul\":2506:2529   */\n      sub\n        /* \"#utility.yul\":2502:2534   */\n      slt\n        /* \"#utility.yul\":2499:2551   */\n      iszero\n      tag_561\n      jumpi\n        /* \"#utility.yul\":2547:2548   */\n      0x00\n        /* \"#utility.yul\":2544:2545   */\n      dup1\n        /* \"#utility.yul\":2537:2549   */\n      revert\n        /* \"#utility.yul\":2499:2551   */\n    tag_561:\n        /* \"#utility.yul\":2587:2596   */\n      dup3\n        /* \"#utility.yul\":2574:2597   */\n      calldataload\n        /* \"#utility.yul\":2620:2638   */\n      0xffffffffffffffff\n        /* \"#utility.yul\":2612:2618   */\n      dup2\n        /* \"#utility.yul\":2609:2639   */\n      gt\n        /* \"#utility.yul\":2606:2656   */\n      iszero\n      tag_562\n      jumpi\n        /* \"#utility.yul\":2652:2653   */\n      0x00\n        /* \"#utility.yul\":2649:2650   */\n      dup1\n        /* \"#utility.yul\":2642:2654   */\n      revert\n        /* \"#utility.yul\":2606:2656   */\n    tag_562:\n        /* \"#utility.yul\":2691:2761   */\n      tag_563\n        /* \"#utility.yul\":2753:2760   */\n      dup6\n        /* \"#utility.yul\":2744:2750   */\n      dup3\n        /* \"#utility.yul\":2733:2742   */\n      dup7\n        /* \"#utility.yul\":2729:2751   */\n      add\n        /* \"#utility.yul\":2691:2761   */\n      tag_536\n      jump\t// in\n    tag_563:\n        /* \"#utility.yul\":2780:2788   */\n      swap1\n      swap7\n        /* \"#utility.yul\":2665:2761   */\n      swap1\n      swap6\n      pop\n        /* \"#utility.yul\":2384:2821   */\n      swap4\n      pop\n      pop\n      pop\n      pop\n      jump\t// out\n        /* \"#utility.yul\":2826:3667   */\n    tag_159:\n        /* \"#utility.yul\":2966:2972   */\n      0x00\n        /* \"#utility.yul\":2974:2980   */\n      dup1\n        /* \"#utility.yul\":2982:2988   */\n      0x00\n        /* \"#utility.yul\":2990:2996   */\n      dup1\n        /* \"#utility.yul\":2998:3004   */\n      0x00\n        /* \"#utility.yul\":3006:3012   */\n      dup1\n        /* \"#utility.yul\":3014:3020   */\n      0x00\n        /* \"#utility.yul\":3022:3028   */\n      dup1\n        /* \"#utility.yul\":3030:3036   */\n      0x00\n        /* \"#utility.yul\":3038:3044   */\n      dup1\n        /* \"#utility.yul\":3091:3094   */\n      0x0140\n        /* \"#utility.yul\":3079:3088   */\n      dup12\n        /* \"#utility.yul\":3070:3077   */\n      dup14\n        /* \"#utility.yul\":3066:3089   */\n      sub\n        /* \"#utility.yul\":3062:3095   */\n      slt\n        /* \"#utility.yul\":3059:3112   */\n      iszero\n      tag_565\n      jumpi\n        /* \"#utility.yul\":3108:3109   */\n      0x00\n        /* \"#utility.yul\":3105:3106   */\n      dup1\n        /* \"#utility.yul\":3098:3110   */\n      revert\n        /* \"#utility.yul\":3059:3112   */\n    tag_565:\n        /* \"#utility.yul\":3131:3160   */\n      tag_566\n        /* \"#utility.yul\":3150:3159   */\n      dup12\n        /* \"#utility.yul\":3131:3160   */\n      tag_535\n      jump\t// in\n    tag_566:\n        /* \"#utility.yul\":3121:3160   */\n      swap10\n      pop\n        /* \"#utility.yul\":3179:3217   */\n      tag_567\n        /* \"#utility.yul\":3213:3215   */\n      0x20\n        /* \"#utility.yul\":3202:3211   */\n      dup13\n        /* \"#utility.yul\":3198:3216   */\n      add\n        /* \"#utility.yul\":3179:3217   */\n      tag_535\n      jump\t// in\n    tag_567:\n        /* \"#utility.yul\":3169:3217   */\n      swap9\n      pop\n        /* \"#utility.yul\":3236:3274   */\n      tag_568\n        /* \"#utility.yul\":3270:3272   */\n      0x40\n        /* \"#utility.yul\":3259:3268   */\n      dup13\n        /* \"#utility.yul\":3255:3273   */\n      add\n        /* \"#utility.yul\":3236:3274   */\n      tag_535\n      jump\t// in\n    tag_568:\n        /* \"#utility.yul\":3226:3274   */\n      swap8\n      pop\n        /* \"#utility.yul\":3321:3323   */\n      0x60\n        /* \"#utility.yul\":3310:3319   */\n      dup12\n        /* \"#utility.yul\":3306:3324   */\n      add\n        /* \"#utility.yul\":3293:3325   */\n      calldataload\n        /* \"#utility.yul\":3283:3325   */\n      swap7\n      pop\n        /* \"#utility.yul\":3372:3375   */\n      0x80\n        /* \"#utility.yul\":3361:3370   */\n      dup12\n        /* \"#utility.yul\":3357:3376   */\n      add\n        /* \"#utility.yul\":3344:3377   */\n      calldataload\n        /* \"#utility.yul\":3334:3377   */\n      swap6\n      pop\n        /* \"#utility.yul\":3424:3427   */\n      0xa0\n        /* \"#utility.yul\":3413:3422   */\n      dup12\n        /* \"#utility.yul\":3409:3428   */\n      add\n        /* \"#utility.yul\":3396:3429   */\n      calldataload\n        /* \"#utility.yul\":3386:3429   */\n      swap5\n      pop\n        /* \"#utility.yul\":3448:3487   */\n      tag_569\n        /* \"#utility.yul\":3482:3485   */\n      0xc0\n        /* \"#utility.yul\":3471:3480   */\n      dup13\n        /* \"#utility.yul\":3467:3486   */\n      add\n        /* \"#utility.yul\":3448:3487   */\n      tag_535\n      jump\t// in\n    tag_569:\n        /* \"#utility.yul\":3438:3487   */\n      swap4\n      pop\n        /* \"#utility.yul\":3506:3545   */\n      tag_570\n        /* \"#utility.yul\":3540:3543   */\n      0xe0\n        /* \"#utility.yul\":3529:3538   */\n      dup13\n        /* \"#utility.yul\":3525:3544   */\n      add\n        /* \"#utility.yul\":3506:3545   */\n      tag_535\n      jump\t// in\n    tag_570:\n        /* \"#utility.yul\":3496:3545   */\n      swap3\n      pop\n        /* \"#utility.yul\":3564:3603   */\n      tag_571\n        /* \"#utility.yul\":3598:3601   */\n      0x0100\n        /* \"#utility.yul\":3587:3596   */\n      dup13\n        /* \"#utility.yul\":3583:3602   */\n      add\n        /* \"#utility.yul\":3564:3603   */\n      tag_535\n      jump\t// in\n    tag_571:\n        /* \"#utility.yul\":3554:3603   */\n      swap2\n      pop\n        /* \"#utility.yul\":3622:3661   */\n      tag_572\n        /* \"#utility.yul\":3656:3659   */\n      0x0120\n        /* \"#utility.yul\":3645:3654   */\n      dup13\n        /* \"#utility.yul\":3641:3660   */\n      add\n        /* \"#utility.yul\":3622:3661   */\n      tag_535\n      jump\t// in\n    tag_572:\n        /* \"#utility.yul\":3612:3661   */\n      swap1\n      pop\n        /* \"#utility.yul\":2826:3667   */\n      swap3\n      swap6\n      swap9\n      swap12\n      swap2\n      swap5\n      swap8\n      swap11\n      pop\n      swap3\n      swap6\n      swap9\n      pop\n      jump\t// out\n        /* \"#utility.yul\":3672:3920   */\n    tag_169:\n        /* \"#utility.yul\":3740:3746   */\n      0x00\n        /* \"#utility.yul\":3748:3754   */\n      dup1\n        /* \"#utility.yul\":3801:3803   */\n      0x40\n        /* \"#utility.yul\":3789:3798   */\n      dup4\n        /* \"#utility.yul\":3780:3787   */\n      dup6\n        /* \"#utility.yul\":3776:3799   */\n      sub\n        /* \"#utility.yul\":3772:3804   */\n      slt\n        /* \"#utility.yul\":3769:3821   */\n      iszero\n      tag_574\n      jumpi\n        /* \"#utility.yul\":3817:3818   */\n      0x00\n        /* \"#utility.yul\":3814:3815   */\n      dup1\n        /* \"#utility.yul\":3807:3819   */\n      revert\n        /* \"#utility.yul\":3769:3821   */\n    tag_574:\n      pop\n      pop\n        /* \"#utility.yul\":3840:3863   */\n      dup1\n      calldataload\n      swap3\n        /* \"#utility.yul\":3910:3912   */\n      0x20\n        /* \"#utility.yul\":3895:3913   */\n      swap1\n      swap2\n      add\n        /* \"#utility.yul\":3882:3914   */\n      calldataload\n      swap2\n      pop\n        /* \"#utility.yul\":3672:3920   */\n      jump\t// out\n        /* \"#utility.yul\":3925:4466   */\n    tag_181:\n        /* \"#utility.yul\":4029:4035   */\n      0x00\n        /* \"#utility.yul\":4037:4043   */\n      dup1\n        /* \"#utility.yul\":4045:4051   */\n      0x00\n        /* \"#utility.yul\":4053:4059   */\n      dup1\n        /* \"#utility.yul\":4061:4067   */\n      0x00\n        /* \"#utility.yul\":4069:4075   */\n      dup1\n        /* \"#utility.yul\":4122:4125   */\n      0xc0\n        /* \"#utility.yul\":4110:4119   */\n      dup8\n        /* \"#utility.yul\":4101:4108   */\n      dup10\n        /* \"#utility.yul\":4097:4120   */\n      sub\n        /* \"#utility.yul\":4093:4126   */\n      slt\n        /* \"#utility.yul\":4090:4143   */\n      iszero\n      tag_576\n      jumpi\n        /* \"#utility.yul\":4139:4140   */\n      0x00\n        /* \"#utility.yul\":4136:4137   */\n      dup1\n        /* \"#utility.yul\":4129:4141   */\n      revert\n        /* \"#utility.yul\":4090:4143   */\n    tag_576:\n        /* \"#utility.yul\":4162:4191   */\n      tag_577\n        /* \"#utility.yul\":4181:4190   */\n      dup8\n        /* \"#utility.yul\":4162:4191   */\n      tag_535\n      jump\t// in\n    tag_577:\n        /* \"#utility.yul\":4152:4191   */\n      swap6\n      pop\n        /* \"#utility.yul\":4210:4248   */\n      tag_578\n        /* \"#utility.yul\":4244:4246   */\n      0x20\n        /* \"#utility.yul\":4233:4242   */\n      dup9\n        /* \"#utility.yul\":4229:4247   */\n      add\n        /* \"#utility.yul\":4210:4248   */\n      tag_535\n      jump\t// in\n    tag_578:\n        /* \"#utility.yul\":4200:4248   */\n      swap5\n      pop\n        /* \"#utility.yul\":4267:4305   */\n      tag_579\n        /* \"#utility.yul\":4301:4303   */\n      0x40\n        /* \"#utility.yul\":4290:4299   */\n      dup9\n        /* \"#utility.yul\":4286:4304   */\n      add\n        /* \"#utility.yul\":4267:4305   */\n      tag_535\n      jump\t// in\n    tag_579:\n        /* \"#utility.yul\":4257:4305   */\n      swap4\n      pop\n        /* \"#utility.yul\":4352:4354   */\n      0x60\n        /* \"#utility.yul\":4341:4350   */\n      dup8\n        /* \"#utility.yul\":4337:4355   */\n      add\n        /* \"#utility.yul\":4324:4356   */\n      calldataload\n        /* \"#utility.yul\":4314:4356   */\n      swap3\n      pop\n        /* \"#utility.yul\":4403:4406   */\n      0x80\n        /* \"#utility.yul\":4392:4401   */\n      dup8\n        /* \"#utility.yul\":4388:4407   */\n      add\n        /* \"#utility.yul\":4375:4408   */\n      calldataload\n        /* \"#utility.yul\":4365:4408   */\n      swap2\n      pop\n        /* \"#utility.yul\":4455:4458   */\n      0xa0\n        /* \"#utility.yul\":4444:4453   */\n      dup8\n        /* \"#utility.yul\":4440:4459   */\n      add\n        /* \"#utility.yul\":4427:4460   */\n      calldataload\n        /* \"#utility.yul\":4417:4460   */\n      swap1\n      pop\n        /* \"#utility.yul\":3925:4466   */\n      swap3\n      swap6\n      pop\n      swap3\n      swap6\n      pop\n      swap3\n      swap6\n      jump\t// out\n        /* \"#utility.yul\":4471:4880   */\n    tag_213:\n        /* \"#utility.yul\":4557:4563   */\n      0x00\n        /* \"#utility.yul\":4565:4571   */\n      dup1\n        /* \"#utility.yul\":4573:4579   */\n      0x00\n        /* \"#utility.yul\":4581:4587   */\n      dup1\n        /* \"#utility.yul\":4634:4637   */\n      0x80\n        /* \"#utility.yul\":4622:4631   */\n      dup6\n        /* \"#utility.yul\":4613:4620   */\n      dup8\n        /* \"#utility.yul\":4609:4632   */\n      sub\n        /* \"#utility.yul\":4605:4638   */\n      slt\n        /* \"#utility.yul\":4602:4655   */\n      iszero\n      tag_581\n      jumpi\n        /* \"#utility.yul\":4651:4652   */\n      0x00\n        /* \"#utility.yul\":4648:4649   */\n      dup1\n        /* \"#utility.yul\":4641:4653   */\n      revert\n        /* \"#utility.yul\":4602:4655   */\n    tag_581:\n        /* \"#utility.yul\":4674:4703   */\n      tag_582\n        /* \"#utility.yul\":4693:4702   */\n      dup6\n        /* \"#utility.yul\":4674:4703   */\n      tag_535\n      jump\t// in\n    tag_582:\n        /* \"#utility.yul\":4664:4703   */\n      swap4\n      pop\n        /* \"#utility.yul\":4722:4760   */\n      tag_583\n        /* \"#utility.yul\":4756:4758   */\n      0x20\n        /* \"#utility.yul\":4745:4754   */\n      dup7\n        /* \"#utility.yul\":4741:4759   */\n      add\n        /* \"#utility.yul\":4722:4760   */\n      tag_535\n      jump\t// in\n    tag_583:\n        /* \"#utility.yul\":4712:4760   */\n      swap3\n      pop\n        /* \"#utility.yul\":4779:4817   */\n      tag_584\n        /* \"#utility.yul\":4813:4815   */\n      0x40\n        /* \"#utility.yul\":4802:4811   */\n      dup7\n        /* \"#utility.yul\":4798:4816   */\n      add\n        /* \"#utility.yul\":4779:4817   */\n      tag_535\n      jump\t// in\n    tag_584:\n        /* \"#utility.yul\":4769:4817   */\n      swap2\n      pop\n        /* \"#utility.yul\":4836:4874   */\n      tag_585\n        /* \"#utility.yul\":4870:4872   */\n      0x60\n        /* \"#utility.yul\":4859:4868   */\n      dup7\n        /* \"#utility.yul\":4855:4873   */\n      add\n        /* \"#utility.yul\":4836:4874   */\n      tag_535\n      jump\t// in\n    tag_585:\n        /* \"#utility.yul\":4826:4874   */\n      swap1\n      pop\n        /* \"#utility.yul\":4471:4880   */\n      swap3\n      swap6\n      swap2\n      swap5\n      pop\n      swap3\n      pop\n      jump\t// out\n        /* \"#utility.yul\":4885:5219   */\n    tag_226:\n        /* \"#utility.yul\":4962:4968   */\n      0x00\n        /* \"#utility.yul\":4970:4976   */\n      dup1\n        /* \"#utility.yul\":4978:4984   */\n      0x00\n        /* \"#utility.yul\":5031:5033   */\n      0x60\n        /* \"#utility.yul\":5019:5028   */\n      dup5\n        /* \"#utility.yul\":5010:5017   */\n      dup7\n        /* \"#utility.yul\":5006:5029   */\n      sub\n        /* \"#utility.yul\":5002:5034   */\n      slt\n        /* \"#utility.yul\":4999:5051   */\n      iszero\n      tag_587\n      jumpi\n        /* \"#utility.yul\":5047:5048   */\n      0x00\n        /* \"#utility.yul\":5044:5045   */\n      dup1\n        /* \"#utility.yul\":5037:5049   */\n      revert\n        /* \"#utility.yul\":4999:5051   */\n    tag_587:\n        /* \"#utility.yul\":5070:5099   */\n      tag_588\n        /* \"#utility.yul\":5089:5098   */\n      dup5\n        /* \"#utility.yul\":5070:5099   */\n      tag_535\n      jump\t// in\n    tag_588:\n        /* \"#utility.yul\":5060:5099   */\n      swap3\n      pop\n        /* \"#utility.yul\":5118:5156   */\n      tag_589\n        /* \"#utility.yul\":5152:5154   */\n      0x20\n        /* \"#utility.yul\":5141:5150   */\n      dup6\n        /* \"#utility.yul\":5137:5155   */\n      add\n        /* \"#utility.yul\":5118:5156   */\n      tag_535\n      jump\t// in\n    tag_589:\n        /* \"#utility.yul\":5108:5156   */\n      swap2\n      pop\n        /* \"#utility.yul\":5175:5213   */\n      tag_590\n        /* \"#utility.yul\":5209:5211   */\n      0x40\n        /* \"#utility.yul\":5198:5207   */\n      dup6\n        /* \"#utility.yul\":5194:5212   */\n      add\n        /* \"#utility.yul\":5175:5213   */\n      tag_535\n      jump\t// in\n    tag_590:\n        /* \"#utility.yul\":5165:5213   */\n      swap1\n      pop\n        /* \"#utility.yul\":4885:5219   */\n      swap3\n      pop\n      swap3\n      pop\n      swap3\n      jump\t// out\n        /* \"#utility.yul\":5413:5954   */\n    tag_241:\n        /* \"#utility.yul\":5517:5523   */\n      0x00\n        /* \"#utility.yul\":5525:5531   */\n      dup1\n        /* \"#utility.yul\":5533:5539   */\n      0x00\n        /* \"#utility.yul\":5541:5547   */\n      dup1\n        /* \"#utility.yul\":5549:5555   */\n      0x00\n        /* \"#utility.yul\":5557:5563   */\n      dup1\n        /* \"#utility.yul\":5610:5613   */\n      0xc0\n        /* \"#utility.yul\":5598:5607   */\n      dup8\n        /* \"#utility.yul\":5589:5596   */\n      dup10\n        /* \"#utility.yul\":5585:5608   */\n      sub\n        /* \"#utility.yul\":5581:5614   */\n      slt\n        /* \"#utility.yul\":5578:5631   */\n      iszero\n      tag_593\n      jumpi\n        /* \"#utility.yul\":5627:5628   */\n      0x00\n        /* \"#utility.yul\":5624:5625   */\n      dup1\n        /* \"#utility.yul\":5617:5629   */\n      revert\n        /* \"#utility.yul\":5578:5631   */\n    tag_593:\n        /* \"#utility.yul\":5650:5679   */\n      tag_594\n        /* \"#utility.yul\":5669:5678   */\n      dup8\n        /* \"#utility.yul\":5650:5679   */\n      tag_535\n      jump\t// in\n    tag_594:\n        /* \"#utility.yul\":5640:5679   */\n      swap6\n      pop\n        /* \"#utility.yul\":5726:5728   */\n      0x20\n        /* \"#utility.yul\":5715:5724   */\n      dup8\n        /* \"#utility.yul\":5711:5729   */\n      add\n        /* \"#utility.yul\":5698:5730   */\n      calldataload\n        /* \"#utility.yul\":5688:5730   */\n      swap5\n      pop\n        /* \"#utility.yul\":5749:5787   */\n      tag_595\n        /* \"#utility.yul\":5783:5785   */\n      0x40\n        /* \"#utility.yul\":5772:5781   */\n      dup9\n        /* \"#utility.yul\":5768:5786   */\n      add\n        /* \"#utility.yul\":5749:5787   */\n      tag_535\n      jump\t// in\n    tag_595:\n        /* \"#utility.yul\":5739:5787   */\n      swap4\n      pop\n        /* \"#utility.yul\":5834:5836   */\n      0x60\n        /* \"#utility.yul\":5823:5832   */\n      dup8\n        /* \"#utility.yul\":5819:5837   */\n      add\n        /* \"#utility.yul\":5806:5838   */\n      calldataload\n        /* \"#utility.yul\":5796:5838   */\n      swap3\n      pop\n        /* \"#utility.yul\":5857:5896   */\n      tag_596\n        /* \"#utility.yul\":5891:5894   */\n      0x80\n        /* \"#utility.yul\":5880:5889   */\n      dup9\n        /* \"#utility.yul\":5876:5895   */\n      add\n        /* \"#utility.yul\":5857:5896   */\n      tag_535\n      jump\t// in\n    tag_596:\n        /* \"#utility.yul\":5847:5896   */\n      swap2\n      pop\n        /* \"#utility.yul\":5943:5946   */\n      0xa0\n        /* \"#utility.yul\":5932:5941   */\n      dup8\n        /* \"#utility.yul\":5928:5947   */\n      add\n        /* \"#utility.yul\":5915:5948   */\n      calldataload\n        /* \"#utility.yul\":5905:5948   */\n      swap1\n      pop\n        /* \"#utility.yul\":5413:5954   */\n      swap3\n      swap6\n      pop\n      swap3\n      swap6\n      pop\n      swap3\n      swap6\n      jump\t// out\n        /* \"#utility.yul\":5959:6617   */\n    tag_258:\n        /* \"#utility.yul\":6130:6132   */\n      0x20\n        /* \"#utility.yul\":6182:6203   */\n      dup1\n      dup3\n      mstore\n        /* \"#utility.yul\":6252:6265   */\n      dup3\n      mload\n        /* \"#utility.yul\":6155:6173   */\n      dup3\n      dup3\n      add\n        /* \"#utility.yul\":6274:6296   */\n      dup2\n      swap1\n      mstore\n        /* \"#utility.yul\":6101:6105   */\n      0x00\n      swap2\n        /* \"#utility.yul\":6130:6132   */\n      swap1\n        /* \"#utility.yul\":6353:6368   */\n      dup5\n      dup3\n      add\n      swap1\n        /* \"#utility.yul\":6327:6329   */\n      0x40\n        /* \"#utility.yul\":6312:6330   */\n      dup6\n      add\n      swap1\n        /* \"#utility.yul\":6101:6105   */\n      dup5\n        /* \"#utility.yul\":6396:6591   */\n    tag_598:\n        /* \"#utility.yul\":6410:6416   */\n      dup2\n        /* \"#utility.yul\":6407:6408   */\n      dup2\n        /* \"#utility.yul\":6404:6417   */\n      lt\n        /* \"#utility.yul\":6396:6591   */\n      iszero\n      tag_600\n      jumpi\n        /* \"#utility.yul\":6475:6488   */\n      dup4\n      mload\n      sub(shl(0xa0, 0x01), 0x01)\n        /* \"#utility.yul\":6471:6510   */\n      and\n        /* \"#utility.yul\":6459:6511   */\n      dup4\n      mstore\n        /* \"#utility.yul\":6566:6581   */\n      swap3\n      dup5\n      add\n      swap3\n        /* \"#utility.yul\":6531:6543   */\n      swap2\n      dup5\n      add\n      swap2\n        /* \"#utility.yul\":6507:6508   */\n      0x01\n        /* \"#utility.yul\":6425:6434   */\n      add\n        /* \"#utility.yul\":6396:6591   */\n      jump(tag_598)\n    tag_600:\n      pop\n        /* \"#utility.yul\":6608:6611   */\n      swap1\n      swap7\n        /* \"#utility.yul\":5959:6617   */\n      swap6\n      pop\n      pop\n      pop\n      pop\n      pop\n      pop\n      jump\t// out\n        /* \"#utility.yul\":6622:6891   */\n    tag_267:\n        /* \"#utility.yul\":6679:6685   */\n      0x00\n        /* \"#utility.yul\":6732:6734   */\n      0x20\n        /* \"#utility.yul\":6720:6729   */\n      dup3\n        /* \"#utility.yul\":6711:6718   */\n      dup5\n        /* \"#utility.yul\":6707:6730   */\n      sub\n        /* \"#utility.yul\":6703:6735   */\n      slt\n        /* \"#utility.yul\":6700:6752   */\n      iszero\n      tag_602\n      jumpi\n        /* \"#utility.yul\":6748:6749   */\n      0x00\n        /* \"#utility.yul\":6745:6746   */\n      dup1\n        /* \"#utility.yul\":6738:6750   */\n      revert\n        /* \"#utility.yul\":6700:6752   */\n    tag_602:\n        /* \"#utility.yul\":6787:6796   */\n      dup2\n        /* \"#utility.yul\":6774:6797   */\n      calldataload\n        /* \"#utility.yul\":6837:6841   */\n      0xff\n        /* \"#utility.yul\":6830:6835   */\n      dup2\n        /* \"#utility.yul\":6826:6842   */\n      and\n        /* \"#utility.yul\":6819:6824   */\n      dup2\n        /* \"#utility.yul\":6816:6843   */\n      eq\n        /* \"#utility.yul\":6806:6861   */\n      tag_547\n      jumpi\n        /* \"#utility.yul\":6857:6858   */\n      0x00\n        /* \"#utility.yul\":6854:6855   */\n      dup1\n        /* \"#utility.yul\":6847:6859   */\n      revert\n        /* \"#utility.yul\":6896:7252   */\n    tag_279:\n        /* \"#utility.yul\":7098:7100   */\n      0x20\n        /* \"#utility.yul\":7080:7101   */\n      dup1\n      dup3\n      mstore\n        /* \"#utility.yul\":7117:7135   */\n      dup2\n      dup2\n      add\n        /* \"#utility.yul\":7110:7140   */\n      mstore\n        /* \"#utility.yul\":7176:7210   */\n      0x4f776e61626c653a2063616c6c6572206973206e6f7420746865206f776e6572\n        /* \"#utility.yul\":7171:7173   */\n      0x40\n        /* \"#utility.yul\":7156:7174   */\n      dup3\n      add\n        /* \"#utility.yul\":7149:7211   */\n      mstore\n        /* \"#utility.yul\":7243:7245   */\n      0x60\n        /* \"#utility.yul\":7228:7246   */\n      add\n      swap1\n        /* \"#utility.yul\":6896:7252   */\n      jump\t// out\n        /* \"#utility.yul\":7536:7663   */\n    tag_296:\n        /* \"#utility.yul\":7597:7607   */\n      0x4e487b71\n        /* \"#utility.yul\":7592:7595   */\n      0xe0\n        /* \"#utility.yul\":7588:7608   */\n      shl\n        /* \"#utility.yul\":7585:7586   */\n      0x00\n        /* \"#utility.yul\":7578:7609   */\n      mstore\n        /* \"#utility.yul\":7628:7632   */\n      0x32\n        /* \"#utility.yul\":7625:7626   */\n      0x04\n        /* \"#utility.yul\":7618:7633   */\n      mstore\n        /* \"#utility.yul\":7652:7656   */\n      0x24\n        /* \"#utility.yul\":7649:7650   */\n      0x00\n        /* \"#utility.yul\":7642:7657   */\n      revert\n        /* \"#utility.yul\":7668:7900   */\n    tag_303:\n        /* \"#utility.yul\":7707:7710   */\n      0x00\n        /* \"#utility.yul\":7728:7745   */\n      0x01\n      dup3\n      add\n        /* \"#utility.yul\":7725:7865   */\n      tag_608\n      jumpi\n        /* \"#utility.yul\":7787:7797   */\n      0x4e487b71\n        /* \"#utility.yul\":7782:7785   */\n      0xe0\n        /* \"#utility.yul\":7778:7798   */\n      shl\n        /* \"#utility.yul\":7775:7776   */\n      0x00\n        /* \"#utility.yul\":7768:7799   */\n      mstore\n        /* \"#utility.yul\":7822:7826   */\n      0x11\n        /* \"#utility.yul\":7819:7820   */\n      0x04\n        /* \"#utility.yul\":7812:7827   */\n      mstore\n        /* \"#utility.yul\":7850:7854   */\n      0x24\n        /* \"#utility.yul\":7847:7848   */\n      0x00\n        /* \"#utility.yul\":7840:7855   */\n      revert\n        /* \"#utility.yul\":7725:7865   */\n    tag_608:\n      pop\n        /* \"#utility.yul\":7892:7893   */\n      0x01\n        /* \"#utility.yul\":7881:7894   */\n      add\n      swap1\n        /* \"#utility.yul\":7668:7900   */\n      jump\t// out\n        /* \"#utility.yul\":7905:8541   */\n    tag_352:\n        /* \"#utility.yul\":8086:8088   */\n      0x20\n        /* \"#utility.yul\":8138:8159   */\n      dup1\n      dup3\n      mstore\n        /* \"#utility.yul\":8111:8129   */\n      dup2\n      dup2\n      add\n        /* \"#utility.yul\":8194:8216   */\n      dup4\n      swap1\n      mstore\n        /* \"#utility.yul\":8057:8061   */\n      0x00\n      swap1\n        /* \"#utility.yul\":8273:8279   */\n      dup5\n        /* \"#utility.yul\":8247:8249   */\n      0x40\n        /* \"#utility.yul\":8232:8250   */\n      dup5\n      add\n        /* \"#utility.yul\":8057:8061   */\n      dup4\n        /* \"#utility.yul\":8307:8515   */\n    tag_610:\n        /* \"#utility.yul\":8321:8327   */\n      dup7\n        /* \"#utility.yul\":8318:8319   */\n      dup2\n        /* \"#utility.yul\":8315:8328   */\n      lt\n        /* \"#utility.yul\":8307:8515   */\n      iszero\n      tag_612\n      jumpi\n      sub(shl(0xa0, 0x01), 0x01)\n        /* \"#utility.yul\":8386:8412   */\n      tag_613\n        /* \"#utility.yul\":8405:8411   */\n      dup5\n        /* \"#utility.yul\":8386:8412   */\n      tag_535\n      jump\t// in\n    tag_613:\n        /* \"#utility.yul\":8382:8434   */\n      and\n        /* \"#utility.yul\":8370:8435   */\n      dup3\n      mstore\n        /* \"#utility.yul\":8490:8505   */\n      swap2\n      dup4\n      add\n      swap2\n        /* \"#utility.yul\":8455:8467   */\n      swap1\n      dup4\n      add\n      swap1\n        /* \"#utility.yul\":8343:8344   */\n      0x01\n        /* \"#utility.yul\":8336:8345   */\n      add\n        /* \"#utility.yul\":8307:8515   */\n      jump(tag_610)\n    tag_612:\n      pop\n        /* \"#utility.yul\":8532:8535   */\n      swap7\n        /* \"#utility.yul\":7905:8541   */\n      swap6\n      pop\n      pop\n      pop\n      pop\n      pop\n      pop\n      jump\t// out\n        /* \"#utility.yul\":9603:9787   */\n    tag_419:\n        /* \"#utility.yul\":9673:9679   */\n      0x00\n        /* \"#utility.yul\":9726:9728   */\n      0x20\n        /* \"#utility.yul\":9714:9723   */\n      dup3\n        /* \"#utility.yul\":9705:9712   */\n      dup5\n        /* \"#utility.yul\":9701:9724   */\n      sub\n        /* \"#utility.yul\":9697:9729   */\n      slt\n        /* \"#utility.yul\":9694:9746   */\n      iszero\n      tag_618\n      jumpi\n        /* \"#utility.yul\":9742:9743   */\n      0x00\n        /* \"#utility.yul\":9739:9740   */\n      dup1\n        /* \"#utility.yul\":9732:9744   */\n      revert\n        /* \"#utility.yul\":9694:9746   */\n    tag_618:\n      pop\n        /* \"#utility.yul\":9765:9781   */\n      mload\n      swap2\n        /* \"#utility.yul\":9603:9787   */\n      swap1\n      pop\n      jump\t// out\n        /* \"#utility.yul\":11382:11792   */\n    tag_509:\n        /* \"#utility.yul\":11584:11586   */\n      0x20\n        /* \"#utility.yul\":11566:11587   */\n      dup1\n      dup3\n      mstore\n        /* \"#utility.yul\":11623:11625   */\n      0x2e\n        /* \"#utility.yul\":11603:11621   */\n      swap1\n      dup3\n      add\n        /* \"#utility.yul\":11596:11626   */\n      mstore\n        /* \"#utility.yul\":11662:11696   */\n      0x496e697469616c697a61626c653a20636f6e747261637420697320616c726561\n        /* \"#utility.yul\":11657:11659   */\n      0x40\n        /* \"#utility.yul\":11642:11660   */\n      dup3\n      add\n        /* \"#utility.yul\":11635:11697   */\n      mstore\n      shl(0x92, 0x191e481a5b9a5d1a585b1a5e9959)\n        /* \"#utility.yul\":11728:11730   */\n      0x60\n        /* \"#utility.yul\":11713:11731   */\n      dup3\n      add\n        /* \"#utility.yul\":11706:11750   */\n      mstore\n        /* \"#utility.yul\":11782:11785   */\n      0x80\n        /* \"#utility.yul\":11767:11786   */\n      add\n      swap1\n        /* \"#utility.yul\":11382:11792   */\n      jump\t// out\n        /* \"#utility.yul\":11797:12204   */\n    tag_516:\n        /* \"#utility.yul\":11999:12001   */\n      0x20\n        /* \"#utility.yul\":11981:12002   */\n      dup1\n      dup3\n      mstore\n        /* \"#utility.yul\":12038:12040   */\n      0x2b\n        /* \"#utility.yul\":12018:12036   */\n      swap1\n      dup3\n      add\n        /* \"#utility.yul\":12011:12041   */\n      mstore\n        /* \"#utility.yul\":12077:12111   */\n      0x496e697469616c697a61626c653a20636f6e7472616374206973206e6f742069\n        /* \"#utility.yul\":12072:12074   */\n      0x40\n        /* \"#utility.yul\":12057:12075   */\n      dup3\n      add\n        /* \"#utility.yul\":12050:12112   */\n      mstore\n      shl(0xa8, 0x6e697469616c697a696e67)\n        /* \"#utility.yul\":12143:12145   */\n      0x60\n        /* \"#utility.yul\":12128:12146   */\n      dup3\n      add\n        /* \"#utility.yul\":12121:12162   */\n      mstore\n        /* \"#utility.yul\":12194:12197   */\n      0x80\n        /* \"#utility.yul\":12179:12198   */\n      add\n      swap1\n        /* \"#utility.yul\":11797:12204   */\n      jump\t// out\n\n    auxdata: 0xa26469706673582212209ca8dd7cae10fd0ceea443a3032f42612cc08c36bba6cf5a0ef69c690ca0ea7b64736f6c634300080d0033\n}\n",
				"bytecode": {
					"linkReferences": {},
					"object": "608060405234801561001057600080fd5b50611f08806100206000396000f3fe608060405234801561001057600080fd5b506004361061038e5760003560e01c806379d37981116101de578063d1783fa81161010f578063ef3bac5e116100ad578063f77c47911161007c578063f77c4791146107a4578063f9bfd907146107b7578063fe865db9146107c0578063ffc97ce9146107d357600080fd5b8063ef3bac5e14610760578063f2fde38b14610773578063f52c676414610786578063f679eda11461078f57600080fd5b8063debfda30116100e9578063debfda3014610708578063e592c5fa1461071b578063e6abb8bd1461073a578063eea997871461074d57600080fd5b8063d1783fa8146106cf578063d4f3949a146106e2578063d77ab72d146106f557600080fd5b80639e1b8fa21161017c578063b192362a11610156578063b192362a14610688578063b8e0926014610691578063b9059d73146106a4578063bed65bae146106b757600080fd5b80639e1b8fa214610659578063a361f4041461066c578063ab8798271461067f57600080fd5b80638ed5bb92116101b85780638ed5bb921461061757806391ba87d81461062a57806392eefe9b1461063d578063956c9da01461065057600080fd5b806379d37981146105e05780638c8a4b58146105f35780638da5cb5b1461060657600080fd5b80634f40e368116102c35780636155501b11610261578063698d92cb11610230578063698d92cb1461059f5780636a5bf606146105b2578063715018a6146105c5578063725c9c49146105cd57600080fd5b80636155501b14610567578063629694671461057a57806364c657051461058357806364facdd51461059657600080fd5b806358d4c4ea1161029d57806358d4c4ea1461051b578063595d4ece1461052e5780635c23aed61461054157806360bdf9e51461055457600080fd5b80634f40e368146104e657806354cf2aeb1461050957806356fc97a01461051257600080fd5b80632ce2a21811610330578063412736571161030a57806341273657146104a4578063429e0971146104b757806345b61b00146104c057806349b2045c146104d357600080fd5b80632ce2a2181461045b578063358240611461046e5780633924f2331461048157600080fd5b806312440ccb1161036c57806312440ccb146103ef5780631bb8c61d146104225780631c425a4514610435578063235ec73d1461044857600080fd5b806304336bb3146103935780630573f19c146103af5780631218cf18146103da575b600080fd5b61039c606f5481565b6040519081526020015b60405180910390f35b6086546103c2906001600160a01b031681565b6040516001600160a01b0390911681526020016103a6565b6103ed6103e8366004611987565b6107f6565b005b6104126103fd3660046119b1565b60786020526000908152604090205460ff1681565b60405190151581526020016103a6565b6103ed610430366004611a1f565b6108b2565b6081546103c2906001600160a01b031681565b607f546103c2906001600160a01b031681565b6103ed610469366004611a1f565b6109c8565b61041261047c366004611a7b565b610ad8565b61041261048f3660046119b1565b60776020526000908152604090205460ff1681565b6103ed6104b23660046119b1565b610af4565b61039c60835481565b6070546103c2906001600160a01b031681565b6084546103c2906001600160a01b031681565b6104126104f43660046119b1565b60766020526000908152604090205460ff1681565b61039c60825481565b61039c60685481565b607e546103c2906001600160a01b031681565b6079546103c2906001600160a01b031681565b6067546103c2906001600160a01b031681565b6103ed610562366004611a7b565b610b9c565b6103ed610575366004611a94565b610bfd565b61039c60695481565b6103ed610591366004611ad6565b610cef565b61039c606b5481565b606e546103c2906001600160a01b031681565b6103ed6105c0366004611b7b565b610dab565b6103ed610e17565b6073546103c2906001600160a01b031681565b6085546103c2906001600160a01b031681565b6103ed610601366004611b9d565b610e4d565b6033546001600160a01b03166103c2565b6103c2610625366004611a7b565b610f25565b6103ed610638366004611a1f565b610f4f565b6103ed61064b3660046119b1565b61105f565b61039c607a5481565b6103ed610667366004611a1f565b611143565b607b546103c2906001600160a01b031681565b61039c606d5481565b61039c60715481565b6103ed61069f366004611bfc565b611253565b6103ed6106b2366004611987565b611318565b6072546103c29061010090046001600160a01b031681565b6066546103c2906001600160a01b031681565b6103ed6106f0366004611c50565b6113c3565b6080546103c2906001600160a01b031681565b6104126107163660046119b1565b611473565b6072546107289060ff1681565b60405160ff90911681526020016103a6565b6103ed610748366004611c93565b6114d5565b606c546103c2906001600160a01b031681565b6065546103c2906001600160a01b031681565b6103ed6107813660046119b1565b61162a565b61039c607c5481565b6107976116c5565b6040516103a69190611cf2565b607d546103c2906001600160a01b031681565b61039c606a5481565b6103ed6107ce366004611d3f565b611727565b6104126107e13660046119b1565b60756020526000908152604090205460ff1681565b6033546001600160a01b031633146108295760405162461bcd60e51b815260040161082090611d62565b60405180910390fd5b6109c481111561084f57604051632b14f14760e11b815260048101829052602401610820565b607980546001600160a01b0319166001600160a01b038416908117909155607a829055604080519182526020820183905233917f07a990b3304df1347b430697979619a7a4c80cb4bd939e73ced1f7ca6101d6f691015b60405180910390a25050565b6033546001600160a01b031633146108dc5760405162461bcd60e51b815260040161082090611d62565b60005b828110156109c25781607560008686858181106108fe576108fe611d97565b905060200201602081019061091391906119b1565b6001600160a01b031681526020810191909152604001600020805460ff191691151591909117905583838281811061094d5761094d611d97565b905060200201602081019061096291906119b1565b6001600160a01b0316336001600160a01b03167f6954b3b4020bd8480cd160fffd549537b617f20a8074ce45b2dee80cab6ef8e2846040516109a8911515815260200190565b60405180910390a3806109ba81611dad565b9150506108df565b50505050565b6033546001600160a01b031633146109f25760405162461bcd60e51b815260040161082090611d62565b60005b828110156109c2578160776000868685818110610a1457610a14611d97565b9050602002016020810190610a2991906119b1565b6001600160a01b031681526020810191909152604001600020805460ff1916911515919091179055838382818110610a6357610a63611d97565b9050602002016020810190610a7891906119b1565b6001600160a01b0316336001600160a01b03167fafed47930189ea124b8d808450ba0e6c685037de026cb6e56907751f1eef52dc84604051610abe911515815260200190565b60405180910390a380610ad081611dad565b9150506109f5565b6000606854821115610aec57506000919050565b506001919050565b6033546001600160a01b03163314610b1e5760405162461bcd60e51b815260040161082090611d62565b6001600160a01b038116610b4557604051634cd6613760e11b815260040160405180910390fd5b607380546001600160a01b0319166001600160a01b03831690811790915560405190815233907f05647eff4880e5135952763bda009997b9c8669cac9292ef87f28badca4f32a6906020015b60405180910390a250565b6033546001600160a01b03163314610bc65760405162461bcd60e51b815260040161082090611d62565b606881905560405181815233907fa604cbdca7ee706aafea3c555e0385946d7b121453a1b0ac8b3cd58c63014f0790602001610b91565b6033546001600160a01b03163314610c275760405162461bcd60e51b815260040161082090611d62565b6002811015610c4957604051639be12e7760e01b815260040160405180910390fd5b60725461010090046001600160a01b03168282600081610c6b57610c6b611d97565b9050602002016020810190610c8091906119b1565b6001600160a01b031614610ca757604051630c3e3d8560e31b815260040160405180910390fd5b610cb3607483836118f8565b50336001600160a01b03167fb67c241a52658f85ec5362073fc9a0909e07aad7e75f92291c35f910c57f808683836040516108a6929190611dd4565b6000610cfb60016117ba565b90508015610d13576000805461ff0019166101001790555b610d1b611847565b60728054610100600160a81b0319166101006001600160a01b03851602179055610d4a856000858188816114d5565b610d588b8b8b8b8b8b610e4d565b8015610d9e576000805461ff0019169055604051600181527f7f26b83ff96e1f2b6a682f133852f6798a09c465da95921460cefb38474024989060200160405180910390a15b5050505050505050505050565b6033546001600160a01b03163314610dd55760405162461bcd60e51b815260040161082090611d62565b60828290556083819055604080518381526020810183905233917f377241d1cd344fbe941f17d99a8ea4b7c81990ec2da5f6d7ccfe19b9b1676f8f91016108a6565b6033546001600160a01b03163314610e415760405162461bcd60e51b815260040161082090611d62565b610e4b6000611876565b565b6033546001600160a01b03163314610e775760405162461bcd60e51b815260040161082090611d62565b606580546001600160a01b038881166001600160a01b03199283168117909355606680548983169084168117909155606780549289169290931682179092556069869055606a859055606b84905560408051938452602084019290925290820152606081018490526080810183905260a0810182905233907fd4ca73c532248c12fc93b1dd748b3954751548cac9a9565697a3849bf7dd3b4c9060c0015b60405180910390a2505050505050565b60748181548110610f3557600080fd5b6000918252602090912001546001600160a01b0316905081565b6033546001600160a01b03163314610f795760405162461bcd60e51b815260040161082090611d62565b60005b828110156109c2578160786000868685818110610f9b57610f9b611d97565b9050602002016020810190610fb091906119b1565b6001600160a01b031681526020810191909152604001600020805460ff1916911515919091179055838382818110610fea57610fea611d97565b9050602002016020810190610fff91906119b1565b6001600160a01b0316336001600160a01b03167f9e48685292272e85fa3be83f07779af7794d29a6efb26b5f834bfb48e220d37084604051611045911515815260200190565b60405180910390a38061105781611dad565b915050610f7c565b6033546001600160a01b031633146110895760405162461bcd60e51b815260040161082090611d62565b604051633c88345b60e21b8152600060048201526001600160a01b0382169063f220d16c90602401602060405180830381865afa1580156110ce573d6000803e3d6000fd5b505050506040513d601f19601f820116820180604052508101906110f29190611e20565b50607d80546001600160a01b0319166001600160a01b03831690811790915560405190815233907f1d38dced3210495ad7eff4825fd4dd5cc0e44c11c98519840691e5391c78cd1590602001610b91565b6033546001600160a01b0316331461116d5760405162461bcd60e51b815260040161082090611d62565b60005b828110156109c257816076600086868581811061118f5761118f611d97565b90506020020160208101906111a491906119b1565b6001600160a01b031681526020810191909152604001600020805460ff19169115159190911790558383828181106111de576111de611d97565b90506020020160208101906111f391906119b1565b6001600160a01b0316336001600160a01b03167fa36d60ecff7c14072a077a9b05c8c98cfdfbf7b5f8e354a071764c27e533085584604051611239911515815260200190565b60405180910390a38061124b81611dad565b915050611170565b6033546001600160a01b0316331461127d5760405162461bcd60e51b815260040161082090611d62565b607e80546001600160a01b038681166001600160a01b03199283168117909355607f8054878316908416811790915560808054878416908516811782556081805494881694909516841790945560408051958652602086019290925290840192909252606083015233917f11cbce6c87791f09a7c2108a3abea2993ab3de5c9ed89a0bd108618ece832b23910160405180910390a250505050565b6033546001600160a01b031633146113425760405162461bcd60e51b815260040161082090611d62565b61177081111561136857604051632b14f14760e11b815260048101829052602401610820565b607b80546001600160a01b0319166001600160a01b038416908117909155607c829055604080519182526020820183905233917f49d9e0ca3aa68af12938170e0cd7267d832389603122e97b1cc70333942b8d2191016108a6565b6033546001600160a01b031633146113ed5760405162461bcd60e51b815260040161082090611d62565b608480546001600160a01b038581166001600160a01b03199283168117909355608580548683169084168117909155608680549286169290931682179092556040805193845260208401929092529082015233907f4aaf8791c546d8d1000b9d104834f06eea9b95c08f81c36f7eee152623edf4ae9060600160405180910390a2505050565b607e546000906001600160a01b038381169116148061149f5750607f546001600160a01b038381169116145b806114b757506080546001600160a01b038381169116145b806114cf57506081546001600160a01b038381169116145b92915050565b6033546001600160a01b031633146114ff5760405162461bcd60e51b815260040161082090611d62565b6103e885118061151057506103e883115b8061151e575063bd014d7e81115b1561154d57604051634b873b2960e11b8152600481018690526024810184905260448101829052606401610820565b606c80546001600160a01b038881166001600160a01b031992831617909255606d879055606e8054878416908316179055606f85905560708054928516929091169190911790556071819055604080518681526020810185905290810182905233907fc4d5650477cd4354e9a07e898df55abe6fecec3e415531e27a8499597b462be29060600160405180910390a2604080516001600160a01b038881168252868116602083015284169181019190915233907f6ebcbf01234512b5d15e025b0aa6bd7514d7f7690b4ff5b260bea6b9aac29e0f90606001610f15565b6033546001600160a01b031633146116545760405162461bcd60e51b815260040161082090611d62565b6001600160a01b0381166116b95760405162461bcd60e51b815260206004820152602660248201527f4f776e61626c653a206e6577206f776e657220697320746865207a65726f206160448201526564647265737360d01b6064820152608401610820565b6116c281611876565b50565b6060607480548060200260200160405190810160405280929190818152602001828054801561171d57602002820191906000526020600020905b81546001600160a01b031681526001909101906020018083116116ff575b5050505050905090565b6033546001600160a01b031633146117515760405162461bcd60e51b815260040161082090611d62565b600360ff821610156117765760405163279a13c360e11b815260040160405180910390fd5b6072805460ff191660ff831690811790915560405190815233907f0162496fc30aed361442504cdd534d5911e2997e66eb97f7455486c9476c8bfb90602001610b91565b60008054610100900460ff1615611801578160ff1660011480156117dd5750303b155b6117f95760405162461bcd60e51b815260040161082090611e39565b506000919050565b60005460ff8084169116106118285760405162461bcd60e51b815260040161082090611e39565b506000805460ff191660ff92909216919091179055600190565b919050565b600054610100900460ff1661186e5760405162461bcd60e51b815260040161082090611e87565b610e4b6118c8565b603380546001600160a01b038381166001600160a01b0319831681179093556040519116919082907f8be0079c531659141344cd1fd0a4f28419497f9722a3daafe3b4186f6b6457e090600090a35050565b600054610100900460ff166118ef5760405162461bcd60e51b815260040161082090611e87565b610e4b33611876565b82805482825590600052602060002090810192821561194b579160200282015b8281111561194b5781546001600160a01b0319166001600160a01b03843516178255602090920191600190910190611918565b5061195792915061195b565b5090565b5b80821115611957576000815560010161195c565b80356001600160a01b038116811461184257600080fd5b6000806040838503121561199a57600080fd5b6119a383611970565b946020939093013593505050565b6000602082840312156119c357600080fd5b6119cc82611970565b9392505050565b60008083601f8401126119e557600080fd5b50813567ffffffffffffffff8111156119fd57600080fd5b6020830191508360208260051b8501011115611a1857600080fd5b9250929050565b600080600060408486031215611a3457600080fd5b833567ffffffffffffffff811115611a4b57600080fd5b611a57868287016119d3565b90945092505060208401358015158114611a7057600080fd5b809150509250925092565b600060208284031215611a8d57600080fd5b5035919050565b60008060208385031215611aa757600080fd5b823567ffffffffffffffff811115611abe57600080fd5b611aca858286016119d3565b90969095509350505050565b6000806000806000806000806000806101408b8d031215611af657600080fd5b611aff8b611970565b9950611b0d60208c01611970565b9850611b1b60408c01611970565b975060608b0135965060808b0135955060a08b01359450611b3e60c08c01611970565b9350611b4c60e08c01611970565b9250611b5b6101008c01611970565b9150611b6a6101208c01611970565b90509295989b9194979a5092959850565b60008060408385031215611b8e57600080fd5b50508035926020909101359150565b60008060008060008060c08789031215611bb657600080fd5b611bbf87611970565b9550611bcd60208801611970565b9450611bdb60408801611970565b9350606087013592506080870135915060a087013590509295509295509295565b60008060008060808587031215611c1257600080fd5b611c1b85611970565b9350611c2960208601611970565b9250611c3760408601611970565b9150611c4560608601611970565b905092959194509250565b600080600060608486031215611c6557600080fd5b611c6e84611970565b9250611c7c60208501611970565b9150611c8a60408501611970565b90509250925092565b60008060008060008060c08789031215611cac57600080fd5b611cb587611970565b955060208701359450611cca60408801611970565b935060608701359250611cdf60808801611970565b915060a087013590509295509295509295565b6020808252825182820181905260009190848201906040850190845b81811015611d335783516001600160a01b031683529284019291840191600101611d0e565b50909695505050505050565b600060208284031215611d5157600080fd5b813560ff811681146119cc57600080fd5b6020808252818101527f4f776e61626c653a2063616c6c6572206973206e6f7420746865206f776e6572604082015260600190565b634e487b7160e01b600052603260045260246000fd5b600060018201611dcd57634e487b7160e01b600052601160045260246000fd5b5060010190565b60208082528181018390526000908460408401835b86811015611e15576001600160a01b03611e0284611970565b1682529183019190830190600101611de9565b509695505050505050565b600060208284031215611e3257600080fd5b5051919050565b6020808252602e908201527f496e697469616c697a61626c653a20636f6e747261637420697320616c72656160408201526d191e481a5b9a5d1a585b1a5e995960921b606082015260800190565b6020808252602b908201527f496e697469616c697a61626c653a20636f6e7472616374206973206e6f74206960408201526a6e697469616c697a696e6760a81b60608201526080019056fea26469706673582212209ca8dd7cae10fd0ceea443a3032f42612cc08c36bba6cf5a0ef69c690ca0ea7b64736f6c634300080d0033",
					"opcodes": "PUSH1 0x80 PUSH1 0x40 MSTORE CALLVALUE DUP1 ISZERO PUSH2 0x10 JUMPI PUSH1 0x0 DUP1 REVERT JUMPDEST POP PUSH2 0x1F08 DUP1 PUSH2 0x20 PUSH1 0x0 CODECOPY PUSH1 0x0 RETURN INVALID PUSH1 0x80 PUSH1 0x40 MSTORE CALLVALUE DUP1 ISZERO PUSH2 0x10 JUMPI PUSH1 0x0 DUP1 REVERT JUMPDEST POP PUSH1 0x4 CALLDATASIZE LT PUSH2 0x38E JUMPI PUSH1 0x0 CALLDATALOAD PUSH1 0xE0 SHR DUP1 PUSH4 0x79D37981 GT PUSH2 0x1DE JUMPI DUP1 PUSH4 0xD1783FA8 GT PUSH2 0x10F JUMPI DUP1 PUSH4 0xEF3BAC5E GT PUSH2 0xAD JUMPI DUP1 PUSH4 0xF77C4791 GT PUSH2 0x7C JUMPI DUP1 PUSH4 0xF77C4791 EQ PUSH2 0x7A4 JUMPI DUP1 PUSH4 0xF9BFD907 EQ PUSH2 0x7B7 JUMPI DUP1 PUSH4 0xFE865DB9 EQ PUSH2 0x7C0 JUMPI DUP1 PUSH4 0xFFC97CE9 EQ PUSH2 0x7D3 JUMPI PUSH1 0x0 DUP1 REVERT JUMPDEST DUP1 PUSH4 0xEF3BAC5E EQ PUSH2 0x760 JUMPI DUP1 PUSH4 0xF2FDE38B EQ PUSH2 0x773 JUMPI DUP1 PUSH4 0xF52C6764 EQ PUSH2 0x786 JUMPI DUP1 PUSH4 0xF679EDA1 EQ PUSH2 0x78F JUMPI PUSH1 0x0 DUP1 REVERT JUMPDEST DUP1 PUSH4 0xDEBFDA30 GT PUSH2 0xE9 JUMPI DUP1 PUSH4 0xDEBFDA30 EQ PUSH2 0x708 JUMPI DUP1 PUSH4 0xE592C5FA EQ PUSH2 0x71B JUMPI DUP1 PUSH4 0xE6ABB8BD EQ PUSH2 0x73A JUMPI DUP1 PUSH4 0xEEA99787 EQ PUSH2 0x74D JUMPI PUSH1 0x0 DUP1 REVERT JUMPDEST DUP1 PUSH4 0xD1783FA8 EQ PUSH2 0x6CF JUMPI DUP1 PUSH4 0xD4F3949A EQ PUSH2 0x6E2 JUMPI DUP1 PUSH4 0xD77AB72D EQ PUSH2 0x6F5 JUMPI PUSH1 0x0 DUP1 REVERT JUMPDEST DUP1 PUSH4 0x9E1B8FA2 GT PUSH2 0x17C JUMPI DUP1 PUSH4 0xB192362A GT PUSH2 0x156 JUMPI DUP1 PUSH4 0xB192362A EQ PUSH2 0x688 JUMPI DUP1 PUSH4 0xB8E09260 EQ PUSH2 0x691 JUMPI DUP1 PUSH4 0xB9059D73 EQ PUSH2 0x6A4 JUMPI DUP1 PUSH4 0xBED65BAE EQ PUSH2 0x6B7 JUMPI PUSH1 0x0 DUP1 REVERT JUMPDEST DUP1 PUSH4 0x9E1B8FA2 EQ PUSH2 0x659 JUMPI DUP1 PUSH4 0xA361F404 EQ PUSH2 0x66C JUMPI DUP1 PUSH4 0xAB879827 EQ PUSH2 0x67F JUMPI PUSH1 0x0 DUP1 REVERT JUMPDEST DUP1 PUSH4 0x8ED5BB92 GT PUSH2 0x1B8 JUMPI DUP1 PUSH4 0x8ED5BB92 EQ PUSH2 0x617 JUMPI DUP1 PUSH4 0x91BA87D8 EQ PUSH2 0x62A JUMPI DUP1 PUSH4 0x92EEFE9B EQ PUSH2 0x63D JUMPI DUP1 PUSH4 0x956C9DA0 EQ PUSH2 0x650 JUMPI PUSH1 0x0 DUP1 REVERT JUMPDEST DUP1 PUSH4 0x79D37981 EQ PUSH2 0x5E0 JUMPI DUP1 PUSH4 0x8C8A4B58 EQ PUSH2 0x5F3 JUMPI DUP1 PUSH4 0x8DA5CB5B EQ PUSH2 0x606 JUMPI PUSH1 0x0 DUP1 REVERT JUMPDEST DUP1 PUSH4 0x4F40E368 GT PUSH2 0x2C3 JUMPI DUP1 PUSH4 0x6155501B GT PUSH2 0x261 JUMPI DUP1 PUSH4 0x698D92CB GT PUSH2 0x230 JUMPI DUP1 PUSH4 0x698D92CB EQ PUSH2 0x59F JUMPI DUP1 PUSH4 0x6A5BF606 EQ PUSH2 0x5B2 JUMPI DUP1 PUSH4 0x715018A6 EQ PUSH2 0x5C5 JUMPI DUP1 PUSH4 0x725C9C49 EQ PUSH2 0x5CD JUMPI PUSH1 0x0 DUP1 REVERT JUMPDEST DUP1 PUSH4 0x6155501B EQ PUSH2 0x567 JUMPI DUP1 PUSH4 0x62969467 EQ PUSH2 0x57A JUMPI DUP1 PUSH4 0x64C65705 EQ PUSH2 0x583 JUMPI DUP1 PUSH4 0x64FACDD5 EQ PUSH2 0x596 JUMPI PUSH1 0x0 DUP1 REVERT JUMPDEST DUP1 PUSH4 0x58D4C4EA GT PUSH2 0x29D JUMPI DUP1 PUSH4 0x58D4C4EA EQ PUSH2 0x51B JUMPI DUP1 PUSH4 0x595D4ECE EQ PUSH2 0x52E JUMPI DUP1 PUSH4 0x5C23AED6 EQ PUSH2 0x541 JUMPI DUP1 PUSH4 0x60BDF9E5 EQ PUSH2 0x554 JUMPI PUSH1 0x0 DUP1 REVERT JUMPDEST DUP1 PUSH4 0x4F40E368 EQ PUSH2 0x4E6 JUMPI DUP1 PUSH4 0x54CF2AEB EQ PUSH2 0x509 JUMPI DUP1 PUSH4 0x56FC97A0 EQ PUSH2 0x512 JUMPI PUSH1 0x0 DUP1 REVERT JUMPDEST DUP1 PUSH4 0x2CE2A218 GT PUSH2 0x330 JUMPI DUP1 PUSH4 0x41273657 GT PUSH2 0x30A JUMPI DUP1 PUSH4 0x41273657 EQ PUSH2 0x4A4 JUMPI DUP1 PUSH4 0x429E0971 EQ PUSH2 0x4B7 JUMPI DUP1 PUSH4 0x45B61B00 EQ PUSH2 0x4C0 JUMPI DUP1 PUSH4 0x49B2045C EQ PUSH2 0x4D3 JUMPI PUSH1 0x0 DUP1 REVERT JUMPDEST DUP1 PUSH4 0x2CE2A218 EQ PUSH2 0x45B JUMPI DUP1 PUSH4 0x35824061 EQ PUSH2 0x46E JUMPI DUP1 PUSH4 0x3924F233 EQ PUSH2 0x481 JUMPI PUSH1 0x0 DUP1 REVERT JUMPDEST DUP1 PUSH4 0x12440CCB GT PUSH2 0x36C JUMPI DUP1 PUSH4 0x12440CCB EQ PUSH2 0x3EF JUMPI DUP1 PUSH4 0x1BB8C61D EQ PUSH2 0x422 JUMPI DUP1 PUSH4 0x1C425A45 EQ PUSH2 0x435 JUMPI DUP1 PUSH4 0x235EC73D EQ PUSH2 0x448 JUMPI PUSH1 0x0 DUP1 REVERT JUMPDEST DUP1 PUSH4 0x4336BB3 EQ PUSH2 0x393 JUMPI DUP1 PUSH4 0x573F19C EQ PUSH2 0x3AF JUMPI DUP1 PUSH4 0x1218CF18 EQ PUSH2 0x3DA JUMPI JUMPDEST PUSH1 0x0 DUP1 REVERT JUMPDEST PUSH2 0x39C PUSH1 0x6F SLOAD DUP2 JUMP JUMPDEST PUSH1 0x40 MLOAD SWAP1 DUP2 MSTORE PUSH1 0x20 ADD JUMPDEST PUSH1 0x40 MLOAD DUP1 SWAP2 SUB SWAP1 RETURN JUMPDEST PUSH1 0x86 SLOAD PUSH2 0x3C2 SWAP1 PUSH1 0x1 PUSH1 0x1 PUSH1 0xA0 SHL SUB AND DUP2 JUMP JUMPDEST PUSH1 0x40 MLOAD PUSH1 0x1 PUSH1 0x1 PUSH1 0xA0 SHL SUB SWAP1 SWAP2 AND DUP2 MSTORE PUSH1 0x20 ADD PUSH2 0x3A6 JUMP JUMPDEST PUSH2 0x3ED PUSH2 0x3E8 CALLDATASIZE PUSH1 0x4 PUSH2 0x1987 JUMP JUMPDEST PUSH2 0x7F6 JUMP JUMPDEST STOP JUMPDEST PUSH2 0x412 PUSH2 0x3FD CALLDATASIZE PUSH1 0x4 PUSH2 0x19B1 JUMP JUMPDEST PUSH1 0x78 PUSH1 0x20 MSTORE PUSH1 0x0 SWAP1 DUP2 MSTORE PUSH1 0x40 SWAP1 KECCAK256 SLOAD PUSH1 0xFF AND DUP2 JUMP JUMPDEST PUSH1 0x40 MLOAD SWAP1 ISZERO ISZERO DUP2 MSTORE PUSH1 0x20 ADD PUSH2 0x3A6 JUMP JUMPDEST PUSH2 0x3ED PUSH2 0x430 CALLDATASIZE PUSH1 0x4 PUSH2 0x1A1F JUMP JUMPDEST PUSH2 0x8B2 JUMP JUMPDEST PUSH1 0x81 SLOAD PUSH2 0x3C2 SWAP1 PUSH1 0x1 PUSH1 0x1 PUSH1 0xA0 SHL SUB AND DUP2 JUMP JUMPDEST PUSH1 0x7F SLOAD PUSH2 0x3C2 SWAP1 PUSH1 0x1 PUSH1 0x1 PUSH1 0xA0 SHL SUB AND DUP2 JUMP JUMPDEST PUSH2 0x3ED PUSH2 0x469 CALLDATASIZE PUSH1 0x4 PUSH2 0x1A1F JUMP JUMPDEST PUSH2 0x9C8 JUMP JUMPDEST PUSH2 0x412 PUSH2 0x47C CALLDATASIZE PUSH1 0x4 PUSH2 0x1A7B JUMP JUMPDEST PUSH2 0xAD8 JUMP JUMPDEST PUSH2 0x412 PUSH2 0x48F CALLDATASIZE PUSH1 0x4 PUSH2 0x19B1 JUMP JUMPDEST PUSH1 0x77 PUSH1 0x20 MSTORE PUSH1 0x0 SWAP1 DUP2 MSTORE PUSH1 0x40 SWAP1 KECCAK256 SLOAD PUSH1 0xFF AND DUP2 JUMP JUMPDEST PUSH2 0x3ED PUSH2 0x4B2 CALLDATASIZE PUSH1 0x4 PUSH2 0x19B1 JUMP JUMPDEST PUSH2 0xAF4 JUMP JUMPDEST PUSH2 0x39C PUSH1 0x83 SLOAD DUP2 JUMP JUMPDEST PUSH1 0x70 SLOAD PUSH2 0x3C2 SWAP1 PUSH1 0x1 PUSH1 0x1 PUSH1 0xA0 SHL SUB AND DUP2 JUMP JUMPDEST PUSH1 0x84 SLOAD PUSH2 0x3C2 SWAP1 PUSH1 0x1 PUSH1 0x1 PUSH1 0xA0 SHL SUB AND DUP2 JUMP JUMPDEST PUSH2 0x412 PUSH2 0x4F4 CALLDATASIZE PUSH1 0x4 PUSH2 0x19B1 JUMP JUMPDEST PUSH1 0x76 PUSH1 0x20 MSTORE PUSH1 0x0 SWAP1 DUP2 MSTORE PUSH1 0x40 SWAP1 KECCAK256 SLOAD PUSH1 0xFF AND DUP2 JUMP JUMPDEST PUSH2 0x39C PUSH1 0x82 SLOAD DUP2 JUMP JUMPDEST PUSH2 0x39C PUSH1 0x68 SLOAD DUP2 JUMP JUMPDEST PUSH1 0x7E SLOAD PUSH2 0x3C2 SWAP1 PUSH1 0x1 PUSH1 0x1 PUSH1 0xA0 SHL SUB AND DUP2 JUMP JUMPDEST PUSH1 0x79 SLOAD PUSH2 0x3C2 SWAP1 PUSH1 0x1 PUSH1 0x1 PUSH1 0xA0 SHL SUB AND DUP2 JUMP JUMPDEST PUSH1 0x67 SLOAD PUSH2 0x3C2 SWAP1 PUSH1 0x1 PUSH1 0x1 PUSH1 0xA0 SHL SUB AND DUP2 JUMP JUMPDEST PUSH2 0x3ED PUSH2 0x562 CALLDATASIZE PUSH1 0x4 PUSH2 0x1A7B JUMP JUMPDEST PUSH2 0xB9C JUMP JUMPDEST PUSH2 0x3ED PUSH2 0x575 CALLDATASIZE PUSH1 0x4 PUSH2 0x1A94 JUMP JUMPDEST PUSH2 0xBFD JUMP JUMPDEST PUSH2 0x39C PUSH1 0x69 SLOAD DUP2 JUMP JUMPDEST PUSH2 0x3ED PUSH2 0x591 CALLDATASIZE PUSH1 0x4 PUSH2 0x1AD6 JUMP JUMPDEST PUSH2 0xCEF JUMP JUMPDEST PUSH2 0x39C PUSH1 0x6B SLOAD DUP2 JUMP JUMPDEST PUSH1 0x6E SLOAD PUSH2 0x3C2 SWAP1 PUSH1 0x1 PUSH1 0x1 PUSH1 0xA0 SHL SUB AND DUP2 JUMP JUMPDEST PUSH2 0x3ED PUSH2 0x5C0 CALLDATASIZE PUSH1 0x4 PUSH2 0x1B7B JUMP JUMPDEST PUSH2 0xDAB JUMP JUMPDEST PUSH2 0x3ED PUSH2 0xE17 JUMP JUMPDEST PUSH1 0x73 SLOAD PUSH2 0x3C2 SWAP1 PUSH1 0x1 PUSH1 0x1 PUSH1 0xA0 SHL SUB AND DUP2 JUMP JUMPDEST PUSH1 0x85 SLOAD PUSH2 0x3C2 SWAP1 PUSH1 0x1 PUSH1 0x1 PUSH1 0xA0 SHL SUB AND DUP2 JUMP JUMPDEST PUSH2 0x3ED PUSH2 0x601 CALLDATASIZE PUSH1 0x4 PUSH2 0x1B9D JUMP JUMPDEST PUSH2 0xE4D JUMP JUMPDEST PUSH1 0x33 SLOAD PUSH1 0x1 PUSH1 0x1 PUSH1 0xA0 SHL SUB AND PUSH2 0x3C2 JUMP JUMPDEST PUSH2 0x3C2 PUSH2 0x625 CALLDATASIZE PUSH1 0x4 PUSH2 0x1A7B JUMP JUMPDEST PUSH2 0xF25 JUMP JUMPDEST PUSH2 0x3ED PUSH2 0x638 CALLDATASIZE PUSH1 0x4 PUSH2 0x1A1F JUMP JUMPDEST PUSH2 0xF4F JUMP JUMPDEST PUSH2 0x3ED PUSH2 0x64B CALLDATASIZE PUSH1 0x4 PUSH2 0x19B1 JUMP JUMPDEST PUSH2 0x105F JUMP JUMPDEST PUSH2 0x39C PUSH1 0x7A SLOAD DUP2 JUMP JUMPDEST PUSH2 0x3ED PUSH2 0x667 CALLDATASIZE PUSH1 0x4 PUSH2 0x1A1F JUMP JUMPDEST PUSH2 0x1143 JUMP JUMPDEST PUSH1 0x7B SLOAD PUSH2 0x3C2 SWAP1 PUSH1 0x1 PUSH1 0x1 PUSH1 0xA0 SHL SUB AND DUP2 JUMP JUMPDEST PUSH2 0x39C PUSH1 0x6D SLOAD DUP2 JUMP JUMPDEST PUSH2 0x39C PUSH1 0x71 SLOAD DUP2 JUMP JUMPDEST PUSH2 0x3ED PUSH2 0x69F CALLDATASIZE PUSH1 0x4 PUSH2 0x1BFC JUMP JUMPDEST PUSH2 0x1253 JUMP JUMPDEST PUSH2 0x3ED PUSH2 0x6B2 CALLDATASIZE PUSH1 0x4 PUSH2 0x1987 JUMP JUMPDEST PUSH2 0x1318 JUMP JUMPDEST PUSH1 0x72 SLOAD PUSH2 0x3C2 SWAP1 PUSH2 0x100 SWAP1 DIV PUSH1 0x1 PUSH1 0x1 PUSH1 0xA0 SHL SUB AND DUP2 JUMP JUMPDEST PUSH1 0x66 SLOAD PUSH2 0x3C2 SWAP1 PUSH1 0x1 PUSH1 0x1 PUSH1 0xA0 SHL SUB AND DUP2 JUMP JUMPDEST PUSH2 0x3ED PUSH2 0x6F0 CALLDATASIZE PUSH1 0x4 PUSH2 0x1C50 JUMP JUMPDEST PUSH2 0x13C3 JUMP JUMPDEST PUSH1 0x80 SLOAD PUSH2 0x3C2 SWAP1 PUSH1 0x1 PUSH1 0x1 PUSH1 0xA0 SHL SUB AND DUP2 JUMP JUMPDEST PUSH2 0x412 PUSH2 0x716 CALLDATASIZE PUSH1 0x4 PUSH2 0x19B1 JUMP JUMPDEST PUSH2 0x1473 JUMP JUMPDEST PUSH1 0x72 SLOAD PUSH2 0x728 SWAP1 PUSH1 0xFF AND DUP2 JUMP JUMPDEST PUSH1 0x40 MLOAD PUSH1 0xFF SWAP1 SWAP2 AND DUP2 MSTORE PUSH1 0x20 ADD PUSH2 0x3A6 JUMP JUMPDEST PUSH2 0x3ED PUSH2 0x748 CALLDATASIZE PUSH1 0x4 PUSH2 0x1C93 JUMP JUMPDEST PUSH2 0x14D5 JUMP JUMPDEST PUSH1 0x6C SLOAD PUSH2 0x3C2 SWAP1 PUSH1 0x1 PUSH1 0x1 PUSH1 0xA0 SHL SUB AND DUP2 JUMP JUMPDEST PUSH1 0x65 SLOAD PUSH2 0x3C2 SWAP1 PUSH1 0x1 PUSH1 0x1 PUSH1 0xA0 SHL SUB AND DUP2 JUMP JUMPDEST PUSH2 0x3ED PUSH2 0x781 CALLDATASIZE PUSH1 0x4 PUSH2 0x19B1 JUMP JUMPDEST PUSH2 0x162A JUMP JUMPDEST PUSH2 0x39C PUSH1 0x7C SLOAD DUP2 JUMP JUMPDEST PUSH2 0x797 PUSH2 0x16C5 JUMP JUMPDEST PUSH1 0x40 MLOAD PUSH2 0x3A6 SWAP2 SWAP1 PUSH2 0x1CF2 JUMP JUMPDEST PUSH1 0x7D SLOAD PUSH2 0x3C2 SWAP1 PUSH1 0x1 PUSH1 0x1 PUSH1 0xA0 SHL SUB AND DUP2 JUMP JUMPDEST PUSH2 0x39C PUSH1 0x6A SLOAD DUP2 JUMP JUMPDEST PUSH2 0x3ED PUSH2 0x7CE CALLDATASIZE PUSH1 0x4 PUSH2 0x1D3F JUMP JUMPDEST PUSH2 0x1727 JUMP JUMPDEST PUSH2 0x412 PUSH2 0x7E1 CALLDATASIZE PUSH1 0x4 PUSH2 0x19B1 JUMP JUMPDEST PUSH1 0x75 PUSH1 0x20 MSTORE PUSH1 0x0 SWAP1 DUP2 MSTORE PUSH1 0x40 SWAP1 KECCAK256 SLOAD PUSH1 0xFF AND DUP2 JUMP JUMPDEST PUSH1 0x33 SLOAD PUSH1 0x1 PUSH1 0x1 PUSH1 0xA0 SHL SUB AND CALLER EQ PUSH2 0x829 JUMPI PUSH1 0x40 MLOAD PUSH3 0x461BCD PUSH1 0xE5 SHL DUP2 MSTORE PUSH1 0x4 ADD PUSH2 0x820 SWAP1 PUSH2 0x1D62 JUMP JUMPDEST PUSH1 0x40 MLOAD DUP1 SWAP2 SUB SWAP1 REVERT JUMPDEST PUSH2 0x9C4 DUP2 GT ISZERO PUSH2 0x84F JUMPI PUSH1 0x40 MLOAD PUSH4 0x2B14F147 PUSH1 0xE1 SHL DUP2 MSTORE PUSH1 0x4 DUP2 ADD DUP3 SWAP1 MSTORE PUSH1 0x24 ADD PUSH2 0x820 JUMP JUMPDEST PUSH1 0x79 DUP1 SLOAD PUSH1 0x1 PUSH1 0x1 PUSH1 0xA0 SHL SUB NOT AND PUSH1 0x1 PUSH1 0x1 PUSH1 0xA0 SHL SUB DUP5 AND SWAP1 DUP2 OR SWAP1 SWAP2 SSTORE PUSH1 0x7A DUP3 SWAP1 SSTORE PUSH1 0x40 DUP1 MLOAD SWAP2 DUP3 MSTORE PUSH1 0x20 DUP3 ADD DUP4 SWAP1 MSTORE CALLER SWAP2 PUSH32 0x7A990B3304DF1347B430697979619A7A4C80CB4BD939E73CED1F7CA6101D6F6 SWAP2 ADD JUMPDEST PUSH1 0x40 MLOAD DUP1 SWAP2 SUB SWAP1 LOG2 POP POP JUMP JUMPDEST PUSH1 0x33 SLOAD PUSH1 0x1 PUSH1 0x1 PUSH1 0xA0 SHL SUB AND CALLER EQ PUSH2 0x8DC JUMPI PUSH1 0x40 MLOAD PUSH3 0x461BCD PUSH1 0xE5 SHL DUP2 MSTORE PUSH1 0x4 ADD PUSH2 0x820 SWAP1 PUSH2 0x1D62 JUMP JUMPDEST PUSH1 0x0 JUMPDEST DUP3 DUP2 LT ISZERO PUSH2 0x9C2 JUMPI DUP2 PUSH1 0x75 PUSH1 0x0 DUP7 DUP7 DUP6 DUP2 DUP2 LT PUSH2 0x8FE JUMPI PUSH2 0x8FE PUSH2 0x1D97 JUMP JUMPDEST SWAP1 POP PUSH1 0x20 MUL ADD PUSH1 0x20 DUP2 ADD SWAP1 PUSH2 0x913 SWAP2 SWAP1 PUSH2 0x19B1 JUMP JUMPDEST PUSH1 0x1 PUSH1 0x1 PUSH1 0xA0 SHL SUB AND DUP2 MSTORE PUSH1 0x20 DUP2 ADD SWAP2 SWAP1 SWAP2 MSTORE PUSH1 0x40 ADD PUSH1 0x0 KECCAK256 DUP1 SLOAD PUSH1 0xFF NOT AND SWAP2 ISZERO ISZERO SWAP2 SWAP1 SWAP2 OR SWAP1 SSTORE DUP4 DUP4 DUP3 DUP2 DUP2 LT PUSH2 0x94D JUMPI PUSH2 0x94D PUSH2 0x1D97 JUMP JUMPDEST SWAP1 POP PUSH1 0x20 MUL ADD PUSH1 0x20 DUP2 ADD SWAP1 PUSH2 0x962 SWAP2 SWAP1 PUSH2 0x19B1 JUMP JUMPDEST PUSH1 0x1 PUSH1 0x1 PUSH1 0xA0 SHL SUB AND CALLER PUSH1 0x1 PUSH1 0x1 PUSH1 0xA0 SHL SUB AND PUSH32 0x6954B3B4020BD8480CD160FFFD549537B617F20A8074CE45B2DEE80CAB6EF8E2 DUP5 PUSH1 0x40 MLOAD PUSH2 0x9A8 SWAP2 ISZERO ISZERO DUP2 MSTORE PUSH1 0x20 ADD SWAP1 JUMP JUMPDEST PUSH1 0x40 MLOAD DUP1 SWAP2 SUB SWAP1 LOG3 DUP1 PUSH2 0x9BA DUP2 PUSH2 0x1DAD JUMP JUMPDEST SWAP2 POP POP PUSH2 0x8DF JUMP JUMPDEST POP POP POP POP JUMP JUMPDEST PUSH1 0x33 SLOAD PUSH1 0x1 PUSH1 0x1 PUSH1 0xA0 SHL SUB AND CALLER EQ PUSH2 0x9F2 JUMPI PUSH1 0x40 MLOAD PUSH3 0x461BCD PUSH1 0xE5 SHL DUP2 MSTORE PUSH1 0x4 ADD PUSH2 0x820 SWAP1 PUSH2 0x1D62 JUMP JUMPDEST PUSH1 0x0 JUMPDEST DUP3 DUP2 LT ISZERO PUSH2 0x9C2 JUMPI DUP2 PUSH1 0x77 PUSH1 0x0 DUP7 DUP7 DUP6 DUP2 DUP2 LT PUSH2 0xA14 JUMPI PUSH2 0xA14 PUSH2 0x1D97 JUMP JUMPDEST SWAP1 POP PUSH1 0x20 MUL ADD PUSH1 0x20 DUP2 ADD SWAP1 PUSH2 0xA29 SWAP2 SWAP1 PUSH2 0x19B1 JUMP JUMPDEST PUSH1 0x1 PUSH1 0x1 PUSH1 0xA0 SHL SUB AND DUP2 MSTORE PUSH1 0x20 DUP2 ADD SWAP2 SWAP1 SWAP2 MSTORE PUSH1 0x40 ADD PUSH1 0x0 KECCAK256 DUP1 SLOAD PUSH1 0xFF NOT AND SWAP2 ISZERO ISZERO SWAP2 SWAP1 SWAP2 OR SWAP1 SSTORE DUP4 DUP4 DUP3 DUP2 DUP2 LT PUSH2 0xA63 JUMPI PUSH2 0xA63 PUSH2 0x1D97 JUMP JUMPDEST SWAP1 POP PUSH1 0x20 MUL ADD PUSH1 0x20 DUP2 ADD SWAP1 PUSH2 0xA78 SWAP2 SWAP1 PUSH2 0x19B1 JUMP JUMPDEST PUSH1 0x1 PUSH1 0x1 PUSH1 0xA0 SHL SUB AND CALLER PUSH1 0x1 PUSH1 0x1 PUSH1 0xA0 SHL SUB AND PUSH32 0xAFED47930189EA124B8D808450BA0E6C685037DE026CB6E56907751F1EEF52DC DUP5 PUSH1 0x40 MLOAD PUSH2 0xABE SWAP2 ISZERO ISZERO DUP2 MSTORE PUSH1 0x20 ADD SWAP1 JUMP JUMPDEST PUSH1 0x40 MLOAD DUP1 SWAP2 SUB SWAP1 LOG3 DUP1 PUSH2 0xAD0 DUP2 PUSH2 0x1DAD JUMP JUMPDEST SWAP2 POP POP PUSH2 0x9F5 JUMP JUMPDEST PUSH1 0x0 PUSH1 0x68 SLOAD DUP3 GT ISZERO PUSH2 0xAEC JUMPI POP PUSH1 0x0 SWAP2 SWAP1 POP JUMP JUMPDEST POP PUSH1 0x1 SWAP2 SWAP1 POP JUMP JUMPDEST PUSH1 0x33 SLOAD PUSH1 0x1 PUSH1 0x1 PUSH1 0xA0 SHL SUB AND CALLER EQ PUSH2 0xB1E JUMPI PUSH1 0x40 MLOAD PUSH3 0x461BCD PUSH1 0xE5 SHL DUP2 MSTORE PUSH1 0x4 ADD PUSH2 0x820 SWAP1 PUSH2 0x1D62 JUMP JUMPDEST PUSH1 0x1 PUSH1 0x1 PUSH1 0xA0 SHL SUB DUP2 AND PUSH2 0xB45 JUMPI PUSH1 0x40 MLOAD PUSH4 0x4CD66137 PUSH1 0xE1 SHL DUP2 MSTORE PUSH1 0x4 ADD PUSH1 0x40 MLOAD DUP1 SWAP2 SUB SWAP1 REVERT JUMPDEST PUSH1 0x73 DUP1 SLOAD PUSH1 0x1 PUSH1 0x1 PUSH1 0xA0 SHL SUB NOT AND PUSH1 0x1 PUSH1 0x1 PUSH1 0xA0 SHL SUB DUP4 AND SWAP1 DUP2 OR SWAP1 SWAP2 SSTORE PUSH1 0x40 MLOAD SWAP1 DUP2 MSTORE CALLER SWAP1 PUSH32 0x5647EFF4880E5135952763BDA009997B9C8669CAC9292EF87F28BADCA4F32A6 SWAP1 PUSH1 0x20 ADD JUMPDEST PUSH1 0x40 MLOAD DUP1 SWAP2 SUB SWAP1 LOG2 POP JUMP JUMPDEST PUSH1 0x33 SLOAD PUSH1 0x1 PUSH1 0x1 PUSH1 0xA0 SHL SUB AND CALLER EQ PUSH2 0xBC6 JUMPI PUSH1 0x40 MLOAD PUSH3 0x461BCD PUSH1 0xE5 SHL DUP2 MSTORE PUSH1 0x4 ADD PUSH2 0x820 SWAP1 PUSH2 0x1D62 JUMP JUMPDEST PUSH1 0x68 DUP2 SWAP1 SSTORE PUSH1 0x40 MLOAD DUP2 DUP2 MSTORE CALLER SWAP1 PUSH32 0xA604CBDCA7EE706AAFEA3C555E0385946D7B121453A1B0AC8B3CD58C63014F07 SWAP1 PUSH1 0x20 ADD PUSH2 0xB91 JUMP JUMPDEST PUSH1 0x33 SLOAD PUSH1 0x1 PUSH1 0x1 PUSH1 0xA0 SHL SUB AND CALLER EQ PUSH2 0xC27 JUMPI PUSH1 0x40 MLOAD PUSH3 0x461BCD PUSH1 0xE5 SHL DUP2 MSTORE PUSH1 0x4 ADD PUSH2 0x820 SWAP1 PUSH2 0x1D62 JUMP JUMPDEST PUSH1 0x2 DUP2 LT ISZERO PUSH2 0xC49 JUMPI PUSH1 0x40 MLOAD PUSH4 0x9BE12E77 PUSH1 0xE0 SHL DUP2 MSTORE PUSH1 0x4 ADD PUSH1 0x40 MLOAD DUP1 SWAP2 SUB SWAP1 REVERT JUMPDEST PUSH1 0x72 SLOAD PUSH2 0x100 SWAP1 DIV PUSH1 0x1 PUSH1 0x1 PUSH1 0xA0 SHL SUB AND DUP3 DUP3 PUSH1 0x0 DUP2 PUSH2 0xC6B JUMPI PUSH2 0xC6B PUSH2 0x1D97 JUMP JUMPDEST SWAP1 POP PUSH1 0x20 MUL ADD PUSH1 0x20 DUP2 ADD SWAP1 PUSH2 0xC80 SWAP2 SWAP1 PUSH2 0x19B1 JUMP JUMPDEST PUSH1 0x1 PUSH1 0x1 PUSH1 0xA0 SHL SUB AND EQ PUSH2 0xCA7 JUMPI PUSH1 0x40 MLOAD PUSH4 0xC3E3D85 PUSH1 0xE3 SHL DUP2 MSTORE PUSH1 0x4 ADD PUSH1 0x40 MLOAD DUP1 SWAP2 SUB SWAP1 REVERT JUMPDEST PUSH2 0xCB3 PUSH1 0x74 DUP4 DUP4 PUSH2 0x18F8 JUMP JUMPDEST POP CALLER PUSH1 0x1 PUSH1 0x1 PUSH1 0xA0 SHL SUB AND PUSH32 0xB67C241A52658F85EC5362073FC9A0909E07AAD7E75F92291C35F910C57F8086 DUP4 DUP4 PUSH1 0x40 MLOAD PUSH2 0x8A6 SWAP3 SWAP2 SWAP1 PUSH2 0x1DD4 JUMP JUMPDEST PUSH1 0x0 PUSH2 0xCFB PUSH1 0x1 PUSH2 0x17BA JUMP JUMPDEST SWAP1 POP DUP1 ISZERO PUSH2 0xD13 JUMPI PUSH1 0x0 DUP1 SLOAD PUSH2 0xFF00 NOT AND PUSH2 0x100 OR SWAP1 SSTORE JUMPDEST PUSH2 0xD1B PUSH2 0x1847 JUMP JUMPDEST PUSH1 0x72 DUP1 SLOAD PUSH2 0x100 PUSH1 0x1 PUSH1 0xA8 SHL SUB NOT AND PUSH2 0x100 PUSH1 0x1 PUSH1 0x1 PUSH1 0xA0 SHL SUB DUP6 AND MUL OR SWAP1 SSTORE PUSH2 0xD4A DUP6 PUSH1 0x0 DUP6 DUP2 DUP9 DUP2 PUSH2 0x14D5 JUMP JUMPDEST PUSH2 0xD58 DUP12 DUP12 DUP12 DUP12 DUP12 DUP12 PUSH2 0xE4D JUMP JUMPDEST DUP1 ISZERO PUSH2 0xD9E JUMPI PUSH1 0x0 DUP1 SLOAD PUSH2 0xFF00 NOT AND SWAP1 SSTORE PUSH1 0x40 MLOAD PUSH1 0x1 DUP2 MSTORE PUSH32 0x7F26B83FF96E1F2B6A682F133852F6798A09C465DA95921460CEFB3847402498 SWAP1 PUSH1 0x20 ADD PUSH1 0x40 MLOAD DUP1 SWAP2 SUB SWAP1 LOG1 JUMPDEST POP POP POP POP POP POP POP POP POP POP POP JUMP JUMPDEST PUSH1 0x33 SLOAD PUSH1 0x1 PUSH1 0x1 PUSH1 0xA0 SHL SUB AND CALLER EQ PUSH2 0xDD5 JUMPI PUSH1 0x40 MLOAD PUSH3 0x461BCD PUSH1 0xE5 SHL DUP2 MSTORE PUSH1 0x4 ADD PUSH2 0x820 SWAP1 PUSH2 0x1D62 JUMP JUMPDEST PUSH1 0x82 DUP3 SWAP1 SSTORE PUSH1 0x83 DUP2 SWAP1 SSTORE PUSH1 0x40 DUP1 MLOAD DUP4 DUP2 MSTORE PUSH1 0x20 DUP2 ADD DUP4 SWAP1 MSTORE CALLER SWAP2 PUSH32 0x377241D1CD344FBE941F17D99A8EA4B7C81990EC2DA5F6D7CCFE19B9B1676F8F SWAP2 ADD PUSH2 0x8A6 JUMP JUMPDEST PUSH1 0x33 SLOAD PUSH1 0x1 PUSH1 0x1 PUSH1 0xA0 SHL SUB AND CALLER EQ PUSH2 0xE41 JUMPI PUSH1 0x40 MLOAD PUSH3 0x461BCD PUSH1 0xE5 SHL DUP2 MSTORE PUSH1 0x4 ADD PUSH2 0x820 SWAP1 PUSH2 0x1D62 JUMP JUMPDEST PUSH2 0xE4B PUSH1 0x0 PUSH2 0x1876 JUMP JUMPDEST JUMP JUMPDEST PUSH1 0x33 SLOAD PUSH1 0x1 PUSH1 0x1 PUSH1 0xA0 SHL SUB AND CALLER EQ PUSH2 0xE77 JUMPI PUSH1 0x40 MLOAD PUSH3 0x461BCD PUSH1 0xE5 SHL DUP2 MSTORE PUSH1 0x4 ADD PUSH2 0x820 SWAP1 PUSH2 0x1D62 JUMP JUMPDEST PUSH1 0x65 DUP1 SLOAD PUSH1 0x1 PUSH1 0x1 PUSH1 0xA0 SHL SUB DUP9 DUP2 AND PUSH1 0x1 PUSH1 0x1 PUSH1 0xA0 SHL SUB NOT SWAP3 DUP4 AND DUP2 OR SWAP1 SWAP4 SSTORE PUSH1 0x66 DUP1 SLOAD DUP10 DUP4 AND SWAP1 DUP5 AND DUP2 OR SWAP1 SWAP2 SSTORE PUSH1 0x67 DUP1 SLOAD SWAP3 DUP10 AND SWAP3 SWAP1 SWAP4 AND DUP3 OR SWAP1 SWAP3 SSTORE PUSH1 0x69 DUP7 SWAP1 SSTORE PUSH1 0x6A DUP6 SWAP1 SSTORE PUSH1 0x6B DUP5 SWAP1 SSTORE PUSH1 0x40 DUP1 MLOAD SWAP4 DUP5 MSTORE PUSH1 0x20 DUP5 ADD SWAP3 SWAP1 SWAP3 MSTORE SWAP1 DUP3 ADD MSTORE PUSH1 0x60 DUP2 ADD DUP5 SWAP1 MSTORE PUSH1 0x80 DUP2 ADD DUP4 SWAP1 MSTORE PUSH1 0xA0 DUP2 ADD DUP3 SWAP1 MSTORE CALLER SWAP1 PUSH32 0xD4CA73C532248C12FC93B1DD748B3954751548CAC9A9565697A3849BF7DD3B4C SWAP1 PUSH1 0xC0 ADD JUMPDEST PUSH1 0x40 MLOAD DUP1 SWAP2 SUB SWAP1 LOG2 POP POP POP POP POP POP JUMP JUMPDEST PUSH1 0x74 DUP2 DUP2 SLOAD DUP2 LT PUSH2 0xF35 JUMPI PUSH1 0x0 DUP1 REVERT JUMPDEST PUSH1 0x0 SWAP2 DUP3 MSTORE PUSH1 0x20 SWAP1 SWAP2 KECCAK256 ADD SLOAD PUSH1 0x1 PUSH1 0x1 PUSH1 0xA0 SHL SUB AND SWAP1 POP DUP2 JUMP JUMPDEST PUSH1 0x33 SLOAD PUSH1 0x1 PUSH1 0x1 PUSH1 0xA0 SHL SUB AND CALLER EQ PUSH2 0xF79 JUMPI PUSH1 0x40 MLOAD PUSH3 0x461BCD PUSH1 0xE5 SHL DUP2 MSTORE PUSH1 0x4 ADD PUSH2 0x820 SWAP1 PUSH2 0x1D62 JUMP JUMPDEST PUSH1 0x0 JUMPDEST DUP3 DUP2 LT ISZERO PUSH2 0x9C2 JUMPI DUP2 PUSH1 0x78 PUSH1 0x0 DUP7 DUP7 DUP6 DUP2 DUP2 LT PUSH2 0xF9B JUMPI PUSH2 0xF9B PUSH2 0x1D97 JUMP JUMPDEST SWAP1 POP PUSH1 0x20 MUL ADD PUSH1 0x20 DUP2 ADD SWAP1 PUSH2 0xFB0 SWAP2 SWAP1 PUSH2 0x19B1 JUMP JUMPDEST PUSH1 0x1 PUSH1 0x1 PUSH1 0xA0 SHL SUB AND DUP2 MSTORE PUSH1 0x20 DUP2 ADD SWAP2 SWAP1 SWAP2 MSTORE PUSH1 0x40 ADD PUSH1 0x0 KECCAK256 DUP1 SLOAD PUSH1 0xFF NOT AND SWAP2 ISZERO ISZERO SWAP2 SWAP1 SWAP2 OR SWAP1 SSTORE DUP4 DUP4 DUP3 DUP2 DUP2 LT PUSH2 0xFEA JUMPI PUSH2 0xFEA PUSH2 0x1D97 JUMP JUMPDEST SWAP1 POP PUSH1 0x20 MUL ADD PUSH1 0x20 DUP2 ADD SWAP1 PUSH2 0xFFF SWAP2 SWAP1 PUSH2 0x19B1 JUMP JUMPDEST PUSH1 0x1 PUSH1 0x1 PUSH1 0xA0 SHL SUB AND CALLER PUSH1 0x1 PUSH1 0x1 PUSH1 0xA0 SHL SUB AND PUSH32 0x9E48685292272E85FA3BE83F07779AF7794D29A6EFB26B5F834BFB48E220D370 DUP5 PUSH1 0x40 MLOAD PUSH2 0x1045 SWAP2 ISZERO ISZERO DUP2 MSTORE PUSH1 0x20 ADD SWAP1 JUMP JUMPDEST PUSH1 0x40 MLOAD DUP1 SWAP2 SUB SWAP1 LOG3 DUP1 PUSH2 0x1057 DUP2 PUSH2 0x1DAD JUMP JUMPDEST SWAP2 POP POP PUSH2 0xF7C JUMP JUMPDEST PUSH1 0x33 SLOAD PUSH1 0x1 PUSH1 0x1 PUSH1 0xA0 SHL SUB AND CALLER EQ PUSH2 0x1089 JUMPI PUSH1 0x40 MLOAD PUSH3 0x461BCD PUSH1 0xE5 SHL DUP2 MSTORE PUSH1 0x4 ADD PUSH2 0x820 SWAP1 PUSH2 0x1D62 JUMP JUMPDEST PUSH1 0x40 MLOAD PUSH4 0x3C88345B PUSH1 0xE2 SHL DUP2 MSTORE PUSH1 0x0 PUSH1 0x4 DUP3 ADD MSTORE PUSH1 0x1 PUSH1 0x1 PUSH1 0xA0 SHL SUB DUP3 AND SWAP1 PUSH4 0xF220D16C SWAP1 PUSH1 0x24 ADD PUSH1 0x20 PUSH1 0x40 MLOAD DUP1 DUP4 SUB DUP2 DUP7 GAS STATICCALL ISZERO DUP1 ISZERO PUSH2 0x10CE JUMPI RETURNDATASIZE PUSH1 0x0 DUP1 RETURNDATACOPY RETURNDATASIZE PUSH1 0x0 REVERT JUMPDEST POP POP POP POP PUSH1 0x40 MLOAD RETURNDATASIZE PUSH1 0x1F NOT PUSH1 0x1F DUP3 ADD AND DUP3 ADD DUP1 PUSH1 0x40 MSTORE POP DUP2 ADD SWAP1 PUSH2 0x10F2 SWAP2 SWAP1 PUSH2 0x1E20 JUMP JUMPDEST POP PUSH1 0x7D DUP1 SLOAD PUSH1 0x1 PUSH1 0x1 PUSH1 0xA0 SHL SUB NOT AND PUSH1 0x1 PUSH1 0x1 PUSH1 0xA0 SHL SUB DUP4 AND SWAP1 DUP2 OR SWAP1 SWAP2 SSTORE PUSH1 0x40 MLOAD SWAP1 DUP2 MSTORE CALLER SWAP1 PUSH32 0x1D38DCED3210495AD7EFF4825FD4DD5CC0E44C11C98519840691E5391C78CD15 SWAP1 PUSH1 0x20 ADD PUSH2 0xB91 JUMP JUMPDEST PUSH1 0x33 SLOAD PUSH1 0x1 PUSH1 0x1 PUSH1 0xA0 SHL SUB AND CALLER EQ PUSH2 0x116D JUMPI PUSH1 0x40 MLOAD PUSH3 0x461BCD PUSH1 0xE5 SHL DUP2 MSTORE PUSH1 0x4 ADD PUSH2 0x820 SWAP1 PUSH2 0x1D62 JUMP JUMPDEST PUSH1 0x0 JUMPDEST DUP3 DUP2 LT ISZERO PUSH2 0x9C2 JUMPI DUP2 PUSH1 0x76 PUSH1 0x0 DUP7 DUP7 DUP6 DUP2 DUP2 LT PUSH2 0x118F JUMPI PUSH2 0x118F PUSH2 0x1D97 JUMP JUMPDEST SWAP1 POP PUSH1 0x20 MUL ADD PUSH1 0x20 DUP2 ADD SWAP1 PUSH2 0x11A4 SWAP2 SWAP1 PUSH2 0x19B1 JUMP JUMPDEST PUSH1 0x1 PUSH1 0x1 PUSH1 0xA0 SHL SUB AND DUP2 MSTORE PUSH1 0x20 DUP2 ADD SWAP2 SWAP1 SWAP2 MSTORE PUSH1 0x40 ADD PUSH1 0x0 KECCAK256 DUP1 SLOAD PUSH1 0xFF NOT AND SWAP2 ISZERO ISZERO SWAP2 SWAP1 SWAP2 OR SWAP1 SSTORE DUP4 DUP4 DUP3 DUP2 DUP2 LT PUSH2 0x11DE JUMPI PUSH2 0x11DE PUSH2 0x1D97 JUMP JUMPDEST SWAP1 POP PUSH1 0x20 MUL ADD PUSH1 0x20 DUP2 ADD SWAP1 PUSH2 0x11F3 SWAP2 SWAP1 PUSH2 0x19B1 JUMP JUMPDEST PUSH1 0x1 PUSH1 0x1 PUSH1 0xA0 SHL SUB AND CALLER PUSH1 0x1 PUSH1 0x1 PUSH1 0xA0 SHL SUB AND PUSH32 0xA36D60ECFF7C14072A077A9B05C8C98CFDFBF7B5F8E354A071764C27E5330855 DUP5 PUSH1 0x40 MLOAD PUSH2 0x1239 SWAP2 ISZERO ISZERO DUP2 MSTORE PUSH1 0x20 ADD SWAP1 JUMP JUMPDEST PUSH1 0x40 MLOAD DUP1 SWAP2 SUB SWAP1 LOG3 DUP1 PUSH2 0x124B DUP2 PUSH2 0x1DAD JUMP JUMPDEST SWAP2 POP POP PUSH2 0x1170 JUMP JUMPDEST PUSH1 0x33 SLOAD PUSH1 0x1 PUSH1 0x1 PUSH1 0xA0 SHL SUB AND CALLER EQ PUSH2 0x127D JUMPI PUSH1 0x40 MLOAD PUSH3 0x461BCD PUSH1 0xE5 SHL DUP2 MSTORE PUSH1 0x4 ADD PUSH2 0x820 SWAP1 PUSH2 0x1D62 JUMP JUMPDEST PUSH1 0x7E DUP1 SLOAD PUSH1 0x1 PUSH1 0x1 PUSH1 0xA0 SHL SUB DUP7 DUP2 AND PUSH1 0x1 PUSH1 0x1 PUSH1 0xA0 SHL SUB NOT SWAP3 DUP4 AND DUP2 OR SWAP1 SWAP4 SSTORE PUSH1 0x7F DUP1 SLOAD DUP8 DUP4 AND SWAP1 DUP5 AND DUP2 OR SWAP1 SWAP2 SSTORE PUSH1 0x80 DUP1 SLOAD DUP8 DUP5 AND SWAP1 DUP6 AND DUP2 OR DUP3 SSTORE PUSH1 0x81 DUP1 SLOAD SWAP5 DUP9 AND SWAP5 SWAP1 SWAP6 AND DUP5 OR SWAP1 SWAP5 SSTORE PUSH1 0x40 DUP1 MLOAD SWAP6 DUP7 MSTORE PUSH1 0x20 DUP7 ADD SWAP3 SWAP1 SWAP3 MSTORE SWAP1 DUP5 ADD SWAP3 SWAP1 SWAP3 MSTORE PUSH1 0x60 DUP4 ADD MSTORE CALLER SWAP2 PUSH32 0x11CBCE6C87791F09A7C2108A3ABEA2993AB3DE5C9ED89A0BD108618ECE832B23 SWAP2 ADD PUSH1 0x40 MLOAD DUP1 SWAP2 SUB SWAP1 LOG2 POP POP POP POP JUMP JUMPDEST PUSH1 0x33 SLOAD PUSH1 0x1 PUSH1 0x1 PUSH1 0xA0 SHL SUB AND CALLER EQ PUSH2 0x1342 JUMPI PUSH1 0x40 MLOAD PUSH3 0x461BCD PUSH1 0xE5 SHL DUP2 MSTORE PUSH1 0x4 ADD PUSH2 0x820 SWAP1 PUSH2 0x1D62 JUMP JUMPDEST PUSH2 0x1770 DUP2 GT ISZERO PUSH2 0x1368 JUMPI PUSH1 0x40 MLOAD PUSH4 0x2B14F147 PUSH1 0xE1 SHL DUP2 MSTORE PUSH1 0x4 DUP2 ADD DUP3 SWAP1 MSTORE PUSH1 0x24 ADD PUSH2 0x820 JUMP JUMPDEST PUSH1 0x7B DUP1 SLOAD PUSH1 0x1 PUSH1 0x1 PUSH1 0xA0 SHL SUB NOT AND PUSH1 0x1 PUSH1 0x1 PUSH1 0xA0 SHL SUB DUP5 AND SWAP1 DUP2 OR SWAP1 SWAP2 SSTORE PUSH1 0x7C DUP3 SWAP1 SSTORE PUSH1 0x40 DUP1 MLOAD SWAP2 DUP3 MSTORE PUSH1 0x20 DUP3 ADD DUP4 SWAP1 MSTORE CALLER SWAP2 PUSH32 0x49D9E0CA3AA68AF12938170E0CD7267D832389603122E97B1CC70333942B8D21 SWAP2 ADD PUSH2 0x8A6 JUMP JUMPDEST PUSH1 0x33 SLOAD PUSH1 0x1 PUSH1 0x1 PUSH1 0xA0 SHL SUB AND CALLER EQ PUSH2 0x13ED JUMPI PUSH1 0x40 MLOAD PUSH3 0x461BCD PUSH1 0xE5 SHL DUP2 MSTORE PUSH1 0x4 ADD PUSH2 0x820 SWAP1 PUSH2 0x1D62 JUMP JUMPDEST PUSH1 0x84 DUP1 SLOAD PUSH1 0x1 PUSH1 0x1 PUSH1 0xA0 SHL SUB DUP6 DUP2 AND PUSH1 0x1 PUSH1 0x1 PUSH1 0xA0 SHL SUB NOT SWAP3 DUP4 AND DUP2 OR SWAP1 SWAP4 SSTORE PUSH1 0x85 DUP1 SLOAD DUP7 DUP4 AND SWAP1 DUP5 AND DUP2 OR SWAP1 SWAP2 SSTORE PUSH1 0x86 DUP1 SLOAD SWAP3 DUP7 AND SWAP3 SWAP1 SWAP4 AND DUP3 OR SWAP1 SWAP3 SSTORE PUSH1 0x40 DUP1 MLOAD SWAP4 DUP5 MSTORE PUSH1 0x20 DUP5 ADD SWAP3 SWAP1 SWAP3 MSTORE SWAP1 DUP3 ADD MSTORE CALLER SWAP1 PUSH32 0x4AAF8791C546D8D1000B9D104834F06EEA9B95C08F81C36F7EEE152623EDF4AE SWAP1 PUSH1 0x60 ADD PUSH1 0x40 MLOAD DUP1 SWAP2 SUB SWAP1 LOG2 POP POP POP JUMP JUMPDEST PUSH1 0x7E SLOAD PUSH1 0x0 SWAP1 PUSH1 0x1 PUSH1 0x1 PUSH1 0xA0 SHL SUB DUP4 DUP2 AND SWAP2 AND EQ DUP1 PUSH2 0x149F JUMPI POP PUSH1 0x7F SLOAD PUSH1 0x1 PUSH1 0x1 PUSH1 0xA0 SHL SUB DUP4 DUP2 AND SWAP2 AND EQ JUMPDEST DUP1 PUSH2 0x14B7 JUMPI POP PUSH1 0x80 SLOAD PUSH1 0x1 PUSH1 0x1 PUSH1 0xA0 SHL SUB DUP4 DUP2 AND SWAP2 AND EQ JUMPDEST DUP1 PUSH2 0x14CF JUMPI POP PUSH1 0x81 SLOAD PUSH1 0x1 PUSH1 0x1 PUSH1 0xA0 SHL SUB DUP4 DUP2 AND SWAP2 AND EQ JUMPDEST SWAP3 SWAP2 POP POP JUMP JUMPDEST PUSH1 0x33 SLOAD PUSH1 0x1 PUSH1 0x1 PUSH1 0xA0 SHL SUB AND CALLER EQ PUSH2 0x14FF JUMPI PUSH1 0x40 MLOAD PUSH3 0x461BCD PUSH1 0xE5 SHL DUP2 MSTORE PUSH1 0x4 ADD PUSH2 0x820 SWAP1 PUSH2 0x1D62 JUMP JUMPDEST PUSH2 0x3E8 DUP6 GT DUP1 PUSH2 0x1510 JUMPI POP PUSH2 0x3E8 DUP4 GT JUMPDEST DUP1 PUSH2 0x151E JUMPI POP PUSH4 0xBD014D7E DUP2 GT JUMPDEST ISZERO PUSH2 0x154D JUMPI PUSH1 0x40 MLOAD PUSH4 0x4B873B29 PUSH1 0xE1 SHL DUP2 MSTORE PUSH1 0x4 DUP2 ADD DUP7 SWAP1 MSTORE PUSH1 0x24 DUP2 ADD DUP5 SWAP1 MSTORE PUSH1 0x44 DUP2 ADD DUP3 SWAP1 MSTORE PUSH1 0x64 ADD PUSH2 0x820 JUMP JUMPDEST PUSH1 0x6C DUP1 SLOAD PUSH1 0x1 PUSH1 0x1 PUSH1 0xA0 SHL SUB DUP9 DUP2 AND PUSH1 0x1 PUSH1 0x1 PUSH1 0xA0 SHL SUB NOT SWAP3 DUP4 AND OR SWAP1 SWAP3 SSTORE PUSH1 0x6D DUP8 SWAP1 SSTORE PUSH1 0x6E DUP1 SLOAD DUP8 DUP5 AND SWAP1 DUP4 AND OR SWAP1 SSTORE PUSH1 0x6F DUP6 SWAP1 SSTORE PUSH1 0x70 DUP1 SLOAD SWAP3 DUP6 AND SWAP3 SWAP1 SWAP2 AND SWAP2 SWAP1 SWAP2 OR SWAP1 SSTORE PUSH1 0x71 DUP2 SWAP1 SSTORE PUSH1 0x40 DUP1 MLOAD DUP7 DUP2 MSTORE PUSH1 0x20 DUP2 ADD DUP6 SWAP1 MSTORE SWAP1 DUP2 ADD DUP3 SWAP1 MSTORE CALLER SWAP1 PUSH32 0xC4D5650477CD4354E9A07E898DF55ABE6FECEC3E415531E27A8499597B462BE2 SWAP1 PUSH1 0x60 ADD PUSH1 0x40 MLOAD DUP1 SWAP2 SUB SWAP1 LOG2 PUSH1 0x40 DUP1 MLOAD PUSH1 0x1 PUSH1 0x1 PUSH1 0xA0 SHL SUB DUP9 DUP2 AND DUP3 MSTORE DUP7 DUP2 AND PUSH1 0x20 DUP4 ADD MSTORE DUP5 AND SWAP2 DUP2 ADD SWAP2 SWAP1 SWAP2 MSTORE CALLER SWAP1 PUSH32 0x6EBCBF01234512B5D15E025B0AA6BD7514D7F7690B4FF5B260BEA6B9AAC29E0F SWAP1 PUSH1 0x60 ADD PUSH2 0xF15 JUMP JUMPDEST PUSH1 0x33 SLOAD PUSH1 0x1 PUSH1 0x1 PUSH1 0xA0 SHL SUB AND CALLER EQ PUSH2 0x1654 JUMPI PUSH1 0x40 MLOAD PUSH3 0x461BCD PUSH1 0xE5 SHL DUP2 MSTORE PUSH1 0x4 ADD PUSH2 0x820 SWAP1 PUSH2 0x1D62 JUMP JUMPDEST PUSH1 0x1 PUSH1 0x1 PUSH1 0xA0 SHL SUB DUP2 AND PUSH2 0x16B9 JUMPI PUSH1 0x40 MLOAD PUSH3 0x461BCD PUSH1 0xE5 SHL DUP2 MSTORE PUSH1 0x20 PUSH1 0x4 DUP3 ADD MSTORE PUSH1 0x26 PUSH1 0x24 DUP3 ADD MSTORE PUSH32 0x4F776E61626C653A206E6577206F776E657220697320746865207A65726F2061 PUSH1 0x44 DUP3 ADD MSTORE PUSH6 0x646472657373 PUSH1 0xD0 SHL PUSH1 0x64 DUP3 ADD MSTORE PUSH1 0x84 ADD PUSH2 0x820 JUMP JUMPDEST PUSH2 0x16C2 DUP2 PUSH2 0x1876 JUMP JUMPDEST POP JUMP JUMPDEST PUSH1 0x60 PUSH1 0x74 DUP1 SLOAD DUP1 PUSH1 0x20 MUL PUSH1 0x20 ADD PUSH1 0x40 MLOAD SWAP1 DUP2 ADD PUSH1 0x40 MSTORE DUP1 SWAP3 SWAP2 SWAP1 DUP2 DUP2 MSTORE PUSH1 0x20 ADD DUP3 DUP1 SLOAD DUP1 ISZERO PUSH2 0x171D JUMPI PUSH1 0x20 MUL DUP3 ADD SWAP2 SWAP1 PUSH1 0x0 MSTORE PUSH1 0x20 PUSH1 0x0 KECCAK256 SWAP1 JUMPDEST DUP2 SLOAD PUSH1 0x1 PUSH1 0x1 PUSH1 0xA0 SHL SUB AND DUP2 MSTORE PUSH1 0x1 SWAP1 SWAP2 ADD SWAP1 PUSH1 0x20 ADD DUP1 DUP4 GT PUSH2 0x16FF JUMPI JUMPDEST POP POP POP POP POP SWAP1 POP SWAP1 JUMP JUMPDEST PUSH1 0x33 SLOAD PUSH1 0x1 PUSH1 0x1 PUSH1 0xA0 SHL SUB AND CALLER EQ PUSH2 0x1751 JUMPI PUSH1 0x40 MLOAD PUSH3 0x461BCD PUSH1 0xE5 SHL DUP2 MSTORE PUSH1 0x4 ADD PUSH2 0x820 SWAP1 PUSH2 0x1D62 JUMP JUMPDEST PUSH1 0x3 PUSH1 0xFF DUP3 AND LT ISZERO PUSH2 0x1776 JUMPI PUSH1 0x40 MLOAD PUSH4 0x279A13C3 PUSH1 0xE1 SHL DUP2 MSTORE PUSH1 0x4 ADD PUSH1 0x40 MLOAD DUP1 SWAP2 SUB SWAP1 REVERT JUMPDEST PUSH1 0x72 DUP1 SLOAD PUSH1 0xFF NOT AND PUSH1 0xFF DUP4 AND SWAP1 DUP2 OR SWAP1 SWAP2 SSTORE PUSH1 0x40 MLOAD SWAP1 DUP2 MSTORE CALLER SWAP1 PUSH32 0x162496FC30AED361442504CDD534D5911E2997E66EB97F7455486C9476C8BFB SWAP1 PUSH1 0x20 ADD PUSH2 0xB91 JUMP JUMPDEST PUSH1 0x0 DUP1 SLOAD PUSH2 0x100 SWAP1 DIV PUSH1 0xFF AND ISZERO PUSH2 0x1801 JUMPI DUP2 PUSH1 0xFF AND PUSH1 0x1 EQ DUP1 ISZERO PUSH2 0x17DD JUMPI POP ADDRESS EXTCODESIZE ISZERO JUMPDEST PUSH2 0x17F9 JUMPI PUSH1 0x40 MLOAD PUSH3 0x461BCD PUSH1 0xE5 SHL DUP2 MSTORE PUSH1 0x4 ADD PUSH2 0x820 SWAP1 PUSH2 0x1E39 JUMP JUMPDEST POP PUSH1 0x0 SWAP2 SWAP1 POP JUMP JUMPDEST PUSH1 0x0 SLOAD PUSH1 0xFF DUP1 DUP5 AND SWAP2 AND LT PUSH2 0x1828 JUMPI PUSH1 0x40 MLOAD PUSH3 0x461BCD PUSH1 0xE5 SHL DUP2 MSTORE PUSH1 0x4 ADD PUSH2 0x820 SWAP1 PUSH2 0x1E39 JUMP JUMPDEST POP PUSH1 0x0 DUP1 SLOAD PUSH1 0xFF NOT AND PUSH1 0xFF SWAP3 SWAP1 SWAP3 AND SWAP2 SWAP1 SWAP2 OR SWAP1 SSTORE PUSH1 0x1 SWAP1 JUMP JUMPDEST SWAP2 SWAP1 POP JUMP JUMPDEST PUSH1 0x0 SLOAD PUSH2 0x100 SWAP1 DIV PUSH1 0xFF AND PUSH2 0x186E JUMPI PUSH1 0x40 MLOAD PUSH3 0x461BCD PUSH1 0xE5 SHL DUP2 MSTORE PUSH1 0x4 ADD PUSH2 0x820 SWAP1 PUSH2 0x1E87 JUMP JUMPDEST PUSH2 0xE4B PUSH2 0x18C8 JUMP JUMPDEST PUSH1 0x33 DUP1 SLOAD PUSH1 0x1 PUSH1 0x1 PUSH1 0xA0 SHL SUB DUP4 DUP2 AND PUSH1 0x1 PUSH1 0x1 PUSH1 0xA0 SHL SUB NOT DUP4 AND DUP2 OR SWAP1 SWAP4 SSTORE PUSH1 0x40 MLOAD SWAP2 AND SWAP2 SWAP1 DUP3 SWAP1 PUSH32 0x8BE0079C531659141344CD1FD0A4F28419497F9722A3DAAFE3B4186F6B6457E0 SWAP1 PUSH1 0x0 SWAP1 LOG3 POP POP JUMP JUMPDEST PUSH1 0x0 SLOAD PUSH2 0x100 SWAP1 DIV PUSH1 0xFF AND PUSH2 0x18EF JUMPI PUSH1 0x40 MLOAD PUSH3 0x461BCD PUSH1 0xE5 SHL DUP2 MSTORE PUSH1 0x4 ADD PUSH2 0x820 SWAP1 PUSH2 0x1E87 JUMP JUMPDEST PUSH2 0xE4B CALLER PUSH2 0x1876 JUMP JUMPDEST DUP3 DUP1 SLOAD DUP3 DUP3 SSTORE SWAP1 PUSH1 0x0 MSTORE PUSH1 0x20 PUSH1 0x0 KECCAK256 SWAP1 DUP2 ADD SWAP3 DUP3 ISZERO PUSH2 0x194B JUMPI SWAP2 PUSH1 0x20 MUL DUP3 ADD JUMPDEST DUP3 DUP2 GT ISZERO PUSH2 0x194B JUMPI DUP2 SLOAD PUSH1 0x1 PUSH1 0x1 PUSH1 0xA0 SHL SUB NOT AND PUSH1 0x1 PUSH1 0x1 PUSH1 0xA0 SHL SUB DUP5 CALLDATALOAD AND OR DUP3 SSTORE PUSH1 0x20 SWAP1 SWAP3 ADD SWAP2 PUSH1 0x1 SWAP1 SWAP2 ADD SWAP1 PUSH2 0x1918 JUMP JUMPDEST POP PUSH2 0x1957 SWAP3 SWAP2 POP PUSH2 0x195B JUMP JUMPDEST POP SWAP1 JUMP JUMPDEST JUMPDEST DUP1 DUP3 GT ISZERO PUSH2 0x1957 JUMPI PUSH1 0x0 DUP2 SSTORE PUSH1 0x1 ADD PUSH2 0x195C JUMP JUMPDEST DUP1 CALLDATALOAD PUSH1 0x1 PUSH1 0x1 PUSH1 0xA0 SHL SUB DUP2 AND DUP2 EQ PUSH2 0x1842 JUMPI PUSH1 0x0 DUP1 REVERT JUMPDEST PUSH1 0x0 DUP1 PUSH1 0x40 DUP4 DUP6 SUB SLT ISZERO PUSH2 0x199A JUMPI PUSH1 0x0 DUP1 REVERT JUMPDEST PUSH2 0x19A3 DUP4 PUSH2 0x1970 JUMP JUMPDEST SWAP5 PUSH1 0x20 SWAP4 SWAP1 SWAP4 ADD CALLDATALOAD SWAP4 POP POP POP JUMP JUMPDEST PUSH1 0x0 PUSH1 0x20 DUP3 DUP5 SUB SLT ISZERO PUSH2 0x19C3 JUMPI PUSH1 0x0 DUP1 REVERT JUMPDEST PUSH2 0x19CC DUP3 PUSH2 0x1970 JUMP JUMPDEST SWAP4 SWAP3 POP POP POP JUMP JUMPDEST PUSH1 0x0 DUP1 DUP4 PUSH1 0x1F DUP5 ADD SLT PUSH2 0x19E5 JUMPI PUSH1 0x0 DUP1 REVERT JUMPDEST POP DUP2 CALLDATALOAD PUSH8 0xFFFFFFFFFFFFFFFF DUP2 GT ISZERO PUSH2 0x19FD JUMPI PUSH1 0x0 DUP1 REVERT JUMPDEST PUSH1 0x20 DUP4 ADD SWAP2 POP DUP4 PUSH1 0x20 DUP3 PUSH1 0x5 SHL DUP6 ADD ADD GT ISZERO PUSH2 0x1A18 JUMPI PUSH1 0x0 DUP1 REVERT JUMPDEST SWAP3 POP SWAP3 SWAP1 POP JUMP JUMPDEST PUSH1 0x0 DUP1 PUSH1 0x0 PUSH1 0x40 DUP5 DUP7 SUB SLT ISZERO PUSH2 0x1A34 JUMPI PUSH1 0x0 DUP1 REVERT JUMPDEST DUP4 CALLDATALOAD PUSH8 0xFFFFFFFFFFFFFFFF DUP2 GT ISZERO PUSH2 0x1A4B JUMPI PUSH1 0x0 DUP1 REVERT JUMPDEST PUSH2 0x1A57 DUP7 DUP3 DUP8 ADD PUSH2 0x19D3 JUMP JUMPDEST SWAP1 SWAP5 POP SWAP3 POP POP PUSH1 0x20 DUP5 ADD CALLDATALOAD DUP1 ISZERO ISZERO DUP2 EQ PUSH2 0x1A70 JUMPI PUSH1 0x0 DUP1 REVERT JUMPDEST DUP1 SWAP2 POP POP SWAP3 POP SWAP3 POP SWAP3 JUMP JUMPDEST PUSH1 0x0 PUSH1 0x20 DUP3 DUP5 SUB SLT ISZERO PUSH2 0x1A8D JUMPI PUSH1 0x0 DUP1 REVERT JUMPDEST POP CALLDATALOAD SWAP2 SWAP1 POP JUMP JUMPDEST PUSH1 0x0 DUP1 PUSH1 0x20 DUP4 DUP6 SUB SLT ISZERO PUSH2 0x1AA7 JUMPI PUSH1 0x0 DUP1 REVERT JUMPDEST DUP3 CALLDATALOAD PUSH8 0xFFFFFFFFFFFFFFFF DUP2 GT ISZERO PUSH2 0x1ABE JUMPI PUSH1 0x0 DUP1 REVERT JUMPDEST PUSH2 0x1ACA DUP6 DUP3 DUP7 ADD PUSH2 0x19D3 JUMP JUMPDEST SWAP1 SWAP7 SWAP1 SWAP6 POP SWAP4 POP POP POP POP JUMP JUMPDEST PUSH1 0x0 DUP1 PUSH1 0x0 DUP1 PUSH1 0x0 DUP1 PUSH1 0x0 DUP1 PUSH1 0x0 DUP1 PUSH2 0x140 DUP12 DUP14 SUB SLT ISZERO PUSH2 0x1AF6 JUMPI PUSH1 0x0 DUP1 REVERT JUMPDEST PUSH2 0x1AFF DUP12 PUSH2 0x1970 JUMP JUMPDEST SWAP10 POP PUSH2 0x1B0D PUSH1 0x20 DUP13 ADD PUSH2 0x1970 JUMP JUMPDEST SWAP9 POP PUSH2 0x1B1B PUSH1 0x40 DUP13 ADD PUSH2 0x1970 JUMP JUMPDEST SWAP8 POP PUSH1 0x60 DUP12 ADD CALLDATALOAD SWAP7 POP PUSH1 0x80 DUP12 ADD CALLDATALOAD SWAP6 POP PUSH1 0xA0 DUP12 ADD CALLDATALOAD SWAP5 POP PUSH2 0x1B3E PUSH1 0xC0 DUP13 ADD PUSH2 0x1970 JUMP JUMPDEST SWAP4 POP PUSH2 0x1B4C PUSH1 0xE0 DUP13 ADD PUSH2 0x1970 JUMP JUMPDEST SWAP3 POP PUSH2 0x1B5B PUSH2 0x100 DUP13 ADD PUSH2 0x1970 JUMP JUMPDEST SWAP2 POP PUSH2 0x1B6A PUSH2 0x120 DUP13 ADD PUSH2 0x1970 JUMP JUMPDEST SWAP1 POP SWAP3 SWAP6 SWAP9 SWAP12 SWAP2 SWAP5 SWAP8 SWAP11 POP SWAP3 SWAP6 SWAP9 POP JUMP JUMPDEST PUSH1 0x0 DUP1 PUSH1 0x40 DUP4 DUP6 SUB SLT ISZERO PUSH2 0x1B8E JUMPI PUSH1 0x0 DUP1 REVERT JUMPDEST POP POP DUP1 CALLDATALOAD SWAP3 PUSH1 0x20 SWAP1 SWAP2 ADD CALLDATALOAD SWAP2 POP JUMP JUMPDEST PUSH1 0x0 DUP1 PUSH1 0x0 DUP1 PUSH1 0x0 DUP1 PUSH1 0xC0 DUP8 DUP10 SUB SLT ISZERO PUSH2 0x1BB6 JUMPI PUSH1 0x0 DUP1 REVERT JUMPDEST PUSH2 0x1BBF DUP8 PUSH2 0x1970 JUMP JUMPDEST SWAP6 POP PUSH2 0x1BCD PUSH1 0x20 DUP9 ADD PUSH2 0x1970 JUMP JUMPDEST SWAP5 POP PUSH2 0x1BDB PUSH1 0x40 DUP9 ADD PUSH2 0x1970 JUMP JUMPDEST SWAP4 POP PUSH1 0x60 DUP8 ADD CALLDATALOAD SWAP3 POP PUSH1 0x80 DUP8 ADD CALLDATALOAD SWAP2 POP PUSH1 0xA0 DUP8 ADD CALLDATALOAD SWAP1 POP SWAP3 SWAP6 POP SWAP3 SWAP6 POP SWAP3 SWAP6 JUMP JUMPDEST PUSH1 0x0 DUP1 PUSH1 0x0 DUP1 PUSH1 0x80 DUP6 DUP8 SUB SLT ISZERO PUSH2 0x1C12 JUMPI PUSH1 0x0 DUP1 REVERT JUMPDEST PUSH2 0x1C1B DUP6 PUSH2 0x1970 JUMP JUMPDEST SWAP4 POP PUSH2 0x1C29 PUSH1 0x20 DUP7 ADD PUSH2 0x1970 JUMP JUMPDEST SWAP3 POP PUSH2 0x1C37 PUSH1 0x40 DUP7 ADD PUSH2 0x1970 JUMP JUMPDEST SWAP2 POP PUSH2 0x1C45 PUSH1 0x60 DUP7 ADD PUSH2 0x1970 JUMP JUMPDEST SWAP1 POP SWAP3 SWAP6 SWAP2 SWAP5 POP SWAP3 POP JUMP JUMPDEST PUSH1 0x0 DUP1 PUSH1 0x0 PUSH1 0x60 DUP5 DUP7 SUB SLT ISZERO PUSH2 0x1C65 JUMPI PUSH1 0x0 DUP1 REVERT JUMPDEST PUSH2 0x1C6E DUP5 PUSH2 0x1970 JUMP JUMPDEST SWAP3 POP PUSH2 0x1C7C PUSH1 0x20 DUP6 ADD PUSH2 0x1970 JUMP JUMPDEST SWAP2 POP PUSH2 0x1C8A PUSH1 0x40 DUP6 ADD PUSH2 0x1970 JUMP JUMPDEST SWAP1 POP SWAP3 POP SWAP3 POP SWAP3 JUMP JUMPDEST PUSH1 0x0 DUP1 PUSH1 0x0 DUP1 PUSH1 0x0 DUP1 PUSH1 0xC0 DUP8 DUP10 SUB SLT ISZERO PUSH2 0x1CAC JUMPI PUSH1 0x0 DUP1 REVERT JUMPDEST PUSH2 0x1CB5 DUP8 PUSH2 0x1970 JUMP JUMPDEST SWAP6 POP PUSH1 0x20 DUP8 ADD CALLDATALOAD SWAP5 POP PUSH2 0x1CCA PUSH1 0x40 DUP9 ADD PUSH2 0x1970 JUMP JUMPDEST SWAP4 POP PUSH1 0x60 DUP8 ADD CALLDATALOAD SWAP3 POP PUSH2 0x1CDF PUSH1 0x80 DUP9 ADD PUSH2 0x1970 JUMP JUMPDEST SWAP2 POP PUSH1 0xA0 DUP8 ADD CALLDATALOAD SWAP1 POP SWAP3 SWAP6 POP SWAP3 SWAP6 POP SWAP3 SWAP6 JUMP JUMPDEST PUSH1 0x20 DUP1 DUP3 MSTORE DUP3 MLOAD DUP3 DUP3 ADD DUP2 SWAP1 MSTORE PUSH1 0x0 SWAP2 SWAP1 DUP5 DUP3 ADD SWAP1 PUSH1 0x40 DUP6 ADD SWAP1 DUP5 JUMPDEST DUP2 DUP2 LT ISZERO PUSH2 0x1D33 JUMPI DUP4 MLOAD PUSH1 0x1 PUSH1 0x1 PUSH1 0xA0 SHL SUB AND DUP4 MSTORE SWAP3 DUP5 ADD SWAP3 SWAP2 DUP5 ADD SWAP2 PUSH1 0x1 ADD PUSH2 0x1D0E JUMP JUMPDEST POP SWAP1 SWAP7 SWAP6 POP POP POP POP POP POP JUMP JUMPDEST PUSH1 0x0 PUSH1 0x20 DUP3 DUP5 SUB SLT ISZERO PUSH2 0x1D51 JUMPI PUSH1 0x0 DUP1 REVERT JUMPDEST DUP2 CALLDATALOAD PUSH1 0xFF DUP2 AND DUP2 EQ PUSH2 0x19CC JUMPI PUSH1 0x0 DUP1 REVERT JUMPDEST PUSH1 0x20 DUP1 DUP3 MSTORE DUP2 DUP2 ADD MSTORE PUSH32 0x4F776E61626C653A2063616C6C6572206973206E6F7420746865206F776E6572 PUSH1 0x40 DUP3 ADD MSTORE PUSH1 0x60 ADD SWAP1 JUMP JUMPDEST PUSH4 0x4E487B71 PUSH1 0xE0 SHL PUSH1 0x0 MSTORE PUSH1 0x32 PUSH1 0x4 MSTORE PUSH1 0x24 PUSH1 0x0 REVERT JUMPDEST PUSH1 0x0 PUSH1 0x1 DUP3 ADD PUSH2 0x1DCD JUMPI PUSH4 0x4E487B71 PUSH1 0xE0 SHL PUSH1 0x0 MSTORE PUSH1 0x11 PUSH1 0x4 MSTORE PUSH1 0x24 PUSH1 0x0 REVERT JUMPDEST POP PUSH1 0x1 ADD SWAP1 JUMP JUMPDEST PUSH1 0x20 DUP1 DUP3 MSTORE DUP2 DUP2 ADD DUP4 SWAP1 MSTORE PUSH1 0x0 SWAP1 DUP5 PUSH1 0x40 DUP5 ADD DUP4 JUMPDEST DUP7 DUP2 LT ISZERO PUSH2 0x1E15 JUMPI PUSH1 0x1 PUSH1 0x1 PUSH1 0xA0 SHL SUB PUSH2 0x1E02 DUP5 PUSH2 0x1970 JUMP JUMPDEST AND DUP3 MSTORE SWAP2 DUP4 ADD SWAP2 SWAP1 DUP4 ADD SWAP1 PUSH1 0x1 ADD PUSH2 0x1DE9 JUMP JUMPDEST POP SWAP7 SWAP6 POP POP POP POP POP POP JUMP JUMPDEST PUSH1 0x0 PUSH1 0x20 DUP3 DUP5 SUB SLT ISZERO PUSH2 0x1E32 JUMPI PUSH1 0x0 DUP1 REVERT JUMPDEST POP MLOAD SWAP2 SWAP1 POP JUMP JUMPDEST PUSH1 0x20 DUP1 DUP3 MSTORE PUSH1 0x2E SWAP1 DUP3 ADD MSTORE PUSH32 0x496E697469616C697A61626C653A20636F6E747261637420697320616C726561 PUSH1 0x40 DUP3 ADD MSTORE PUSH14 0x191E481A5B9A5D1A585B1A5E9959 PUSH1 0x92 SHL PUSH1 0x60 DUP3 ADD MSTORE PUSH1 0x80 ADD SWAP1 JUMP JUMPDEST PUSH1 0x20 DUP1 DUP3 MSTORE PUSH1 0x2B SWAP1 DUP3 ADD MSTORE PUSH32 0x496E697469616C697A61626C653A20636F6E7472616374206973206E6F742069 PUSH1 0x40 DUP3 ADD MSTORE PUSH11 0x6E697469616C697A696E67 PUSH1 0xA8 SHL PUSH1 0x60 DUP3 ADD MSTORE PUSH1 0x80 ADD SWAP1 JUMP INVALID LOG2 PUSH5 0x6970667358 0x22 SLT KECCAK256 SWAP13 0xA8 0xDD PUSH29 0xAE10FD0CEEA443A3032F42612CC08C36BBA6CF5A0EF69C690CA0EA7B64 PUSH20 0x6F6C634300080D00330000000000000000000000 "
				},
				"gasEstimates": {
					"creation": {
						"codeDepositCost": "1588800",
						"executionCost": "1666",
						"totalCost": "1590466"
					},
					"external": {
						"alpacaBeneficiary()": "2427",
						"alpacaBeneficiaryBps()": "2395",
						"alpacaBountyBps()": "2418",
						"alpacaReinvestFeeTreasury()": "2427",
						"alpacaToken()": "2481",
						"assetAddTwoSideStrategy()": "2429",
						"controller()": "2403",
						"debtRatioTolerance()": "2418",
						"depositExecutor()": "2405",
						"depositFeeBps()": "2396",
						"depositFeeTreasury()": "2470",
						"fairLaunchAddr()": "2449",
						"feeExemptedCallers(address)": "2644",
						"getReinvestPath()": "infinite",
						"getSwapRouter()": "2470",
						"getWNativeRelayer()": "2405",
						"getWrappedNativeAddr()": "2404",
						"initialize(address,address,address,uint256,uint256,uint256,address,address,address,address)": "infinite",
						"isExecutor(address)": "9049",
						"isVaultSizeAcceptable(uint256)": "2517",
						"leverageLevel()": "2402",
						"managementFeePerSec()": "2351",
						"managementFeeTreasury()": "2449",
						"maxVaultPositionValue()": "2397",
						"owner()": "2444",
						"partialCloseMinimizeStrategy()": "2471",
						"positionValueTolerance()": "2372",
						"rebalanceExecutor()": "2449",
						"rebalanceFactor()": "2374",
						"reinvestExecutor()": "2450",
						"reinvestPath(uint256)": "4682",
						"renounceOwnership()": "28228",
						"setAlpacaBeneficiaryConfig(address,uint256)": "50702",
						"setAlpacaBountyConfig(address,uint256)": "50694",
						"setController(address)": "infinite",
						"setExecutor(address,address,address,address)": "infinite",
						"setFeeExemptedCallers(address[],bool)": "infinite",
						"setFees(address,uint256,address,uint256,address,uint256)": "infinite",
						"setLeverageLevel(uint8)": "28227",
						"setParams(address,address,address,uint256,uint256,uint256)": "infinite",
						"setReinvestPath(address[])": "infinite",
						"setStrategies(address,address,address)": "infinite",
						"setSwapConfig(uint256,uint256)": "48421",
						"setSwapRouter(address)": "28248",
						"setValueLimit(uint256)": "26055",
						"setWhitelistedCallers(address[],bool)": "infinite",
						"setWhitelistedRebalancer(address[],bool)": "infinite",
						"setwhitelistedReinvestors(address[],bool)": "infinite",
						"stableAddTwoSideStrategy()": "2406",
						"swapFee()": "2375",
						"swapFeeDenom()": "2374",
						"transferOwnership(address)": "28401",
						"whitelistedCallers(address)": "2663",
						"whitelistedRebalancers(address)": "2600",
						"whitelistedReinvestors(address)": "2600",
						"withdrawExecutor()": "2472",
						"withdrawalFeeBps()": "2354",
						"withdrawalFeeTreasury()": "2404"
					}
				},
				"methodIdentifiers": {
					"alpacaBeneficiary()": "a361f404",
					"alpacaBeneficiaryBps()": "f52c6764",
					"alpacaBountyBps()": "956c9da0",
					"alpacaReinvestFeeTreasury()": "595d4ece",
					"alpacaToken()": "bed65bae",
					"assetAddTwoSideStrategy()": "0573f19c",
					"controller()": "f77c4791",
					"debtRatioTolerance()": "64facdd5",
					"depositExecutor()": "58d4c4ea",
					"depositFeeBps()": "ab879827",
					"depositFeeTreasury()": "eea99787",
					"fairLaunchAddr()": "5c23aed6",
					"feeExemptedCallers(address)": "3924f233",
					"getReinvestPath()": "f679eda1",
					"getSwapRouter()": "725c9c49",
					"getWNativeRelayer()": "d1783fa8",
					"getWrappedNativeAddr()": "ef3bac5e",
					"initialize(address,address,address,uint256,uint256,uint256,address,address,address,address)": "64c65705",
					"isExecutor(address)": "debfda30",
					"isVaultSizeAcceptable(uint256)": "35824061",
					"leverageLevel()": "e592c5fa",
					"managementFeePerSec()": "b192362a",
					"managementFeeTreasury()": "45b61b00",
					"maxVaultPositionValue()": "56fc97a0",
					"owner()": "8da5cb5b",
					"partialCloseMinimizeStrategy()": "49b2045c",
					"positionValueTolerance()": "f9bfd907",
					"rebalanceExecutor()": "d77ab72d",
					"rebalanceFactor()": "62969467",
					"reinvestExecutor()": "1c425a45",
					"reinvestPath(uint256)": "8ed5bb92",
					"renounceOwnership()": "715018a6",
					"setAlpacaBeneficiaryConfig(address,uint256)": "b9059d73",
					"setAlpacaBountyConfig(address,uint256)": "1218cf18",
					"setController(address)": "92eefe9b",
					"setExecutor(address,address,address,address)": "b8e09260",
					"setFeeExemptedCallers(address[],bool)": "2ce2a218",
					"setFees(address,uint256,address,uint256,address,uint256)": "e6abb8bd",
					"setLeverageLevel(uint8)": "fe865db9",
					"setParams(address,address,address,uint256,uint256,uint256)": "8c8a4b58",
					"setReinvestPath(address[])": "6155501b",
					"setStrategies(address,address,address)": "d4f3949a",
					"setSwapConfig(uint256,uint256)": "6a5bf606",
					"setSwapRouter(address)": "41273657",
					"setValueLimit(uint256)": "60bdf9e5",
					"setWhitelistedCallers(address[],bool)": "1bb8c61d",
					"setWhitelistedRebalancer(address[],bool)": "9e1b8fa2",
					"setwhitelistedReinvestors(address[],bool)": "91ba87d8",
					"stableAddTwoSideStrategy()": "79d37981",
					"swapFee()": "54cf2aeb",
					"swapFeeDenom()": "429e0971",
					"transferOwnership(address)": "f2fde38b",
					"whitelistedCallers(address)": "ffc97ce9",
					"whitelistedRebalancers(address)": "4f40e368",
					"whitelistedReinvestors(address)": "12440ccb",
					"withdrawExecutor()": "235ec73d",
					"withdrawalFeeBps()": "04336bb3",
					"withdrawalFeeTreasury()": "698d92cb"
				}
			},
			"storageLayout": {
				"storage": [
					{
						"astId": 130,
						"contract": "contracts/DeltaNeutralVaultConfig02.sol:DeltaNeutralVaultConfig02",
						"label": "_initialized",
						"offset": 0,
						"slot": "0",
						"type": "t_uint8"
					},
					{
						"astId": 133,
						"contract": "contracts/DeltaNeutralVaultConfig02.sol:DeltaNeutralVaultConfig02",
						"label": "_initializing",
						"offset": 1,
						"slot": "0",
						"type": "t_bool"
					},
					{
						"astId": 549,
						"contract": "contracts/DeltaNeutralVaultConfig02.sol:DeltaNeutralVaultConfig02",
						"label": "__gap",
						"offset": 0,
						"slot": "1",
						"type": "t_array(t_uint256)50_storage"
					},
					{
						"astId": 10,
						"contract": "contracts/DeltaNeutralVaultConfig02.sol:DeltaNeutralVaultConfig02",
						"label": "_owner",
						"offset": 0,
						"slot": "51",
						"type": "t_address"
					},
					{
						"astId": 122,
						"contract": "contracts/DeltaNeutralVaultConfig02.sol:DeltaNeutralVaultConfig02",
						"label": "__gap",
						"offset": 0,
						"slot": "52",
						"type": "t_array(t_uint256)49_storage"
					},
					{
						"astId": 756,
						"contract": "contracts/DeltaNeutralVaultConfig02.sol:DeltaNeutralVaultConfig02",
						"label": "getWrappedNativeAddr",
						"offset": 0,
						"slot": "101",
						"type": "t_address"
					},
					{
						"astId": 759,
						"contract": "contracts/DeltaNeutralVaultConfig02.sol:DeltaNeutralVaultConfig02",
						"label": "getWNativeRelayer",
						"offset": 0,
						"slot": "102",
						"type": "t_address"
					},
					{
						"astId": 761,
						"contract": "contracts/DeltaNeutralVaultConfig02.sol:DeltaNeutralVaultConfig02",
						"label": "fairLaunchAddr",
						"offset": 0,
						"slot": "103",
						"type": "t_address"
					},
					{
						"astId": 763,
						"contract": "contracts/DeltaNeutralVaultConfig02.sol:DeltaNeutralVaultConfig02",
						"label": "maxVaultPositionValue",
						"offset": 0,
						"slot": "104",
						"type": "t_uint256"
					},
					{
						"astId": 766,
						"contract": "contracts/DeltaNeutralVaultConfig02.sol:DeltaNeutralVaultConfig02",
						"label": "rebalanceFactor",
						"offset": 0,
						"slot": "105",
						"type": "t_uint256"
					},
					{
						"astId": 769,
						"contract": "contracts/DeltaNeutralVaultConfig02.sol:DeltaNeutralVaultConfig02",
						"label": "positionValueTolerance",
						"offset": 0,
						"slot": "106",
						"type": "t_uint256"
					},
					{
						"astId": 772,
						"contract": "contracts/DeltaNeutralVaultConfig02.sol:DeltaNeutralVaultConfig02",
						"label": "debtRatioTolerance",
						"offset": 0,
						"slot": "107",
						"type": "t_uint256"
					},
					{
						"astId": 774,
						"contract": "contracts/DeltaNeutralVaultConfig02.sol:DeltaNeutralVaultConfig02",
						"label": "depositFeeTreasury",
						"offset": 0,
						"slot": "108",
						"type": "t_address"
					},
					{
						"astId": 777,
						"contract": "contracts/DeltaNeutralVaultConfig02.sol:DeltaNeutralVaultConfig02",
						"label": "depositFeeBps",
						"offset": 0,
						"slot": "109",
						"type": "t_uint256"
					},
					{
						"astId": 779,
						"contract": "contracts/DeltaNeutralVaultConfig02.sol:DeltaNeutralVaultConfig02",
						"label": "withdrawalFeeTreasury",
						"offset": 0,
						"slot": "110",
						"type": "t_address"
					},
					{
						"astId": 782,
						"contract": "contracts/DeltaNeutralVaultConfig02.sol:DeltaNeutralVaultConfig02",
						"label": "withdrawalFeeBps",
						"offset": 0,
						"slot": "111",
						"type": "t_uint256"
					},
					{
						"astId": 784,
						"contract": "contracts/DeltaNeutralVaultConfig02.sol:DeltaNeutralVaultConfig02",
						"label": "managementFeeTreasury",
						"offset": 0,
						"slot": "112",
						"type": "t_address"
					},
					{
						"astId": 787,
						"contract": "contracts/DeltaNeutralVaultConfig02.sol:DeltaNeutralVaultConfig02",
						"label": "managementFeePerSec",
						"offset": 0,
						"slot": "113",
						"type": "t_uint256"
					},
					{
						"astId": 790,
						"contract": "contracts/DeltaNeutralVaultConfig02.sol:DeltaNeutralVaultConfig02",
						"label": "leverageLevel",
						"offset": 0,
						"slot": "114",
						"type": "t_uint8"
					},
					{
						"astId": 792,
						"contract": "contracts/DeltaNeutralVaultConfig02.sol:DeltaNeutralVaultConfig02",
						"label": "alpacaToken",
						"offset": 1,
						"slot": "114",
						"type": "t_address"
					},
					{
						"astId": 794,
						"contract": "contracts/DeltaNeutralVaultConfig02.sol:DeltaNeutralVaultConfig02",
						"label": "getSwapRouter",
						"offset": 0,
						"slot": "115",
						"type": "t_address"
					},
					{
						"astId": 797,
						"contract": "contracts/DeltaNeutralVaultConfig02.sol:DeltaNeutralVaultConfig02",
						"label": "reinvestPath",
						"offset": 0,
						"slot": "116",
						"type": "t_array(t_address)dyn_storage"
					},
					{
						"astId": 801,
						"contract": "contracts/DeltaNeutralVaultConfig02.sol:DeltaNeutralVaultConfig02",
						"label": "whitelistedCallers",
						"offset": 0,
						"slot": "117",
						"type": "t_mapping(t_address,t_bool)"
					},
					{
						"astId": 805,
						"contract": "contracts/DeltaNeutralVaultConfig02.sol:DeltaNeutralVaultConfig02",
						"label": "whitelistedRebalancers",
						"offset": 0,
						"slot": "118",
						"type": "t_mapping(t_address,t_bool)"
					},
					{
						"astId": 809,
						"contract": "contracts/DeltaNeutralVaultConfig02.sol:DeltaNeutralVaultConfig02",
						"label": "feeExemptedCallers",
						"offset": 0,
						"slot": "119",
						"type": "t_mapping(t_address,t_bool)"
					},
					{
						"astId": 813,
						"contract": "contracts/DeltaNeutralVaultConfig02.sol:DeltaNeutralVaultConfig02",
						"label": "whitelistedReinvestors",
						"offset": 0,
						"slot": "120",
						"type": "t_mapping(t_address,t_bool)"
					},
					{
						"astId": 815,
						"contract": "contracts/DeltaNeutralVaultConfig02.sol:DeltaNeutralVaultConfig02",
						"label": "alpacaReinvestFeeTreasury",
						"offset": 0,
						"slot": "121",
						"type": "t_address"
					},
					{
						"astId": 817,
						"contract": "contracts/DeltaNeutralVaultConfig02.sol:DeltaNeutralVaultConfig02",
						"label": "alpacaBountyBps",
						"offset": 0,
						"slot": "122",
						"type": "t_uint256"
					},
					{
						"astId": 819,
						"contract": "contracts/DeltaNeutralVaultConfig02.sol:DeltaNeutralVaultConfig02",
						"label": "alpacaBeneficiary",
						"offset": 0,
						"slot": "123",
						"type": "t_address"
					},
					{
						"astId": 821,
						"contract": "contracts/DeltaNeutralVaultConfig02.sol:DeltaNeutralVaultConfig02",
						"label": "alpacaBeneficiaryBps",
						"offset": 0,
						"slot": "124",
						"type": "t_uint256"
					},
					{
						"astId": 824,
						"contract": "contracts/DeltaNeutralVaultConfig02.sol:DeltaNeutralVaultConfig02",
						"label": "controller",
						"offset": 0,
						"slot": "125",
						"type": "t_address"
					},
					{
						"astId": 827,
						"contract": "contracts/DeltaNeutralVaultConfig02.sol:DeltaNeutralVaultConfig02",
						"label": "depositExecutor",
						"offset": 0,
						"slot": "126",
						"type": "t_address"
					},
					{
						"astId": 829,
						"contract": "contracts/DeltaNeutralVaultConfig02.sol:DeltaNeutralVaultConfig02",
						"label": "withdrawExecutor",
						"offset": 0,
						"slot": "127",
						"type": "t_address"
					},
					{
						"astId": 831,
						"contract": "contracts/DeltaNeutralVaultConfig02.sol:DeltaNeutralVaultConfig02",
						"label": "rebalanceExecutor",
						"offset": 0,
						"slot": "128",
						"type": "t_address"
					},
					{
						"astId": 833,
						"contract": "contracts/DeltaNeutralVaultConfig02.sol:DeltaNeutralVaultConfig02",
						"label": "reinvestExecutor",
						"offset": 0,
						"slot": "129",
						"type": "t_address"
					},
					{
						"astId": 836,
						"contract": "contracts/DeltaNeutralVaultConfig02.sol:DeltaNeutralVaultConfig02",
						"label": "swapFee",
						"offset": 0,
						"slot": "130",
						"type": "t_uint256"
					},
					{
						"astId": 838,
						"contract": "contracts/DeltaNeutralVaultConfig02.sol:DeltaNeutralVaultConfig02",
						"label": "swapFeeDenom",
						"offset": 0,
						"slot": "131",
						"type": "t_uint256"
					},
					{
						"astId": 841,
						"contract": "contracts/DeltaNeutralVaultConfig02.sol:DeltaNeutralVaultConfig02",
						"label": "partialCloseMinimizeStrategy",
						"offset": 0,
						"slot": "132",
						"type": "t_address"
					},
					{
						"astId": 843,
						"contract": "contracts/DeltaNeutralVaultConfig02.sol:DeltaNeutralVaultConfig02",
						"label": "stableAddTwoSideStrategy",
						"offset": 0,
						"slot": "133",
						"type": "t_address"
					},
					{
						"astId": 845,
						"contract": "contracts/DeltaNeutralVaultConfig02.sol:DeltaNeutralVaultConfig02",
						"label": "assetAddTwoSideStrategy",
						"offset": 0,
						"slot": "134",
						"type": "t_address"
					}
				],
				"types": {
					"t_address": {
						"encoding": "inplace",
						"label": "address",
						"numberOfBytes": "20"
					},
					"t_array(t_address)dyn_storage": {
						"base": "t_address",
						"encoding": "dynamic_array",
						"label": "address[]",
						"numberOfBytes": "32"
					},
					"t_array(t_uint256)49_storage": {
						"base": "t_uint256",
						"encoding": "inplace",
						"label": "uint256[49]",
						"numberOfBytes": "1568"
					},
					"t_array(t_uint256)50_storage": {
						"base": "t_uint256",
						"encoding": "inplace",
						"label": "uint256[50]",
						"numberOfBytes": "1600"
					},
					"t_bool": {
						"encoding": "inplace",
						"label": "bool",
						"numberOfBytes": "1"
					},
					"t_mapping(t_address,t_bool)": {
						"encoding": "mapping",
						"key": "t_address",
						"label": "mapping(address => bool)",
						"numberOfBytes": "32",
						"value": "t_bool"
					},
					"t_uint256": {
						"encoding": "inplace",
						"label": "uint256",
						"numberOfBytes": "32"
					},
					"t_uint8": {
						"encoding": "inplace",
						"label": "uint8",
						"numberOfBytes": "1"
					}
				}
			},
			"userdoc": {
				"kind": "user",
				"methods": {
					"depositExecutor()": {
						"notice": "Executor"
					},
					"isExecutor(address)": {
						"notice": "Return if caller is executor."
					},
					"isVaultSizeAcceptable(uint256)": {
						"notice": "Return if vault can accept new position value."
					},
					"partialCloseMinimizeStrategy()": {
						"notice": "Strategies"
					},
					"setAlpacaBeneficiaryConfig(address,uint256)": {
						"notice": "Set alpacaBeneficiaryBps."
					},
					"setAlpacaBountyConfig(address,uint256)": {
						"notice": "Set alpacaBountyBps."
					},
					"setFeeExemptedCallers(address[],bool)": {
						"notice": "Set exempted fee callers."
					},
					"setFees(address,uint256,address,uint256,address,uint256)": {
						"notice": "Set fees."
					},
					"setLeverageLevel(uint8)": {
						"notice": "Set leverage level."
					},
					"setValueLimit(uint256)": {
						"notice": "Set position value limit."
					},
					"setWhitelistedCallers(address[],bool)": {
						"notice": "Set whitelisted callers."
					},
					"setWhitelistedRebalancer(address[],bool)": {
						"notice": "Set whitelisted rebalancers."
					},
					"setwhitelistedReinvestors(address[],bool)": {
						"notice": "Set whitelisted reinvestors."
					},
					"swapFee()": {
						"notice": "swap config"
					}
				},
				"version": 1
			}
		}
	}
}