{
	"contracts/AutomatedVaultController.sol": {
		"AutomatedVaultController": {
			"abi": [
				{
					"inputs": [],
					"stateMutability": "nonpayable",
					"type": "constructor"
				},
				{
					"anonymous": false,
					"inputs": [
						{
							"indexed": false,
							"internalType": "uint8",
							"name": "version",
							"type": "uint8"
						}
					],
					"name": "Initialized",
					"type": "event"
				},
				{
					"anonymous": false,
					"inputs": [
						{
							"indexed": true,
							"internalType": "address",
							"name": "_caller",
							"type": "address"
						},
						{
							"indexed": false,
							"internalType": "contract ICreditor[]",
							"name": "_creditors",
							"type": "address[]"
						}
					],
					"name": "LogSetCreditors",
					"type": "event"
				},
				{
					"anonymous": false,
					"inputs": [
						{
							"indexed": true,
							"internalType": "address",
							"name": "_caller",
							"type": "address"
						},
						{
							"indexed": false,
							"internalType": "contract IDeltaNeutralVault[]",
							"name": "_vaults",
							"type": "address[]"
						}
					],
					"name": "LogSetPrivateVaults",
					"type": "event"
				},
				{
					"anonymous": false,
					"inputs": [
						{
							"indexed": true,
							"internalType": "address",
							"name": "previousOwner",
							"type": "address"
						},
						{
							"indexed": true,
							"internalType": "address",
							"name": "newOwner",
							"type": "address"
						}
					],
					"name": "OwnershipTransferred",
					"type": "event"
				},
				{
					"inputs": [
						{
							"internalType": "address",
							"name": "_user",
							"type": "address"
						}
					],
					"name": "availableCredit",
					"outputs": [
						{
							"internalType": "uint256",
							"name": "",
							"type": "uint256"
						}
					],
					"stateMutability": "view",
					"type": "function"
				},
				{
					"inputs": [
						{
							"internalType": "uint256",
							"name": "",
							"type": "uint256"
						}
					],
					"name": "creditors",
					"outputs": [
						{
							"internalType": "contract ICreditor",
							"name": "",
							"type": "address"
						}
					],
					"stateMutability": "view",
					"type": "function"
				},
				{
					"inputs": [
						{
							"internalType": "address",
							"name": "_user",
							"type": "address"
						},
						{
							"internalType": "address",
							"name": "_vault",
							"type": "address"
						}
					],
					"name": "getUserVaultShares",
					"outputs": [
						{
							"internalType": "uint256",
							"name": "",
							"type": "uint256"
						}
					],
					"stateMutability": "view",
					"type": "function"
				},
				{
					"inputs": [
						{
							"internalType": "contract ICreditor[]",
							"name": "_creditors",
							"type": "address[]"
						},
						{
							"internalType": "contract IDeltaNeutralVault[]",
							"name": "_privateVaults",
							"type": "address[]"
						}
					],
					"name": "initialize",
					"outputs": [],
					"stateMutability": "nonpayable",
					"type": "function"
				},
				{
					"inputs": [
						{
							"internalType": "address",
							"name": "_user",
							"type": "address"
						},
						{
							"internalType": "uint256",
							"name": "_shareAmount",
							"type": "uint256"
						}
					],
					"name": "onDeposit",
					"outputs": [],
					"stateMutability": "nonpayable",
					"type": "function"
				},
				{
					"inputs": [
						{
							"internalType": "address",
							"name": "_user",
							"type": "address"
						},
						{
							"internalType": "uint256",
							"name": "_shareAmount",
							"type": "uint256"
						}
					],
					"name": "onWithdraw",
					"outputs": [],
					"stateMutability": "nonpayable",
					"type": "function"
				},
				{
					"inputs": [],
					"name": "owner",
					"outputs": [
						{
							"internalType": "address",
							"name": "",
							"type": "address"
						}
					],
					"stateMutability": "view",
					"type": "function"
				},
				{
					"inputs": [
						{
							"internalType": "uint256",
							"name": "",
							"type": "uint256"
						}
					],
					"name": "privateVaults",
					"outputs": [
						{
							"internalType": "contract IDeltaNeutralVault",
							"name": "",
							"type": "address"
						}
					],
					"stateMutability": "view",
					"type": "function"
				},
				{
					"inputs": [],
					"name": "renounceOwnership",
					"outputs": [],
					"stateMutability": "nonpayable",
					"type": "function"
				},
				{
					"inputs": [
						{
							"internalType": "contract ICreditor[]",
							"name": "_newCreditors",
							"type": "address[]"
						}
					],
					"name": "setCreditors",
					"outputs": [],
					"stateMutability": "nonpayable",
					"type": "function"
				},
				{
					"inputs": [
						{
							"internalType": "contract IDeltaNeutralVault[]",
							"name": "_newPrivateVaults",
							"type": "address[]"
						}
					],
					"name": "setPrivateVaults",
					"outputs": [],
					"stateMutability": "nonpayable",
					"type": "function"
				},
				{
					"inputs": [
						{
							"internalType": "address",
							"name": "_user",
							"type": "address"
						}
					],
					"name": "totalCredit",
					"outputs": [
						{
							"internalType": "uint256",
							"name": "",
							"type": "uint256"
						}
					],
					"stateMutability": "view",
					"type": "function"
				},
				{
					"inputs": [
						{
							"internalType": "address",
							"name": "newOwner",
							"type": "address"
						}
					],
					"name": "transferOwnership",
					"outputs": [],
					"stateMutability": "nonpayable",
					"type": "function"
				},
				{
					"inputs": [
						{
							"internalType": "address",
							"name": "_user",
							"type": "address"
						}
					],
					"name": "usedCredit",
					"outputs": [
						{
							"internalType": "uint256",
							"name": "",
							"type": "uint256"
						}
					],
					"stateMutability": "view",
					"type": "function"
				},
				{
					"inputs": [
						{
							"internalType": "address",
							"name": "",
							"type": "address"
						},
						{
							"internalType": "address",
							"name": "",
							"type": "address"
						}
					],
					"name": "userVaultShares",
					"outputs": [
						{
							"internalType": "uint256",
							"name": "",
							"type": "uint256"
						}
					],
					"stateMutability": "view",
					"type": "function"
				}
			],
			"devdoc": {
				"kind": "dev",
				"methods": {
					"availableCredit(address)": {
						"params": {
							"_user": "address of user."
						},
						"returns": {
							"_0": "_total remaining credit of this user"
						}
					},
					"getUserVaultShares(address,address)": {
						"params": {
							"_user": "share owner",
							"_vault": "delta vault"
						}
					},
					"initialize(address[],address[])": {
						"params": {
							"_creditors": "list of credit sources",
							"_privateVaults": "list of private automated vaults"
						}
					},
					"onDeposit(address,uint256)": {
						"params": {
							"_shareAmount": "amount of automated vault's share",
							"_user": "share owner"
						}
					},
					"onWithdraw(address,uint256)": {
						"params": {
							"_shareAmount": "amount of automated vault's share withdrawn",
							"_user": "share owner"
						}
					},
					"owner()": {
						"details": "Returns the address of the current owner."
					},
					"renounceOwnership()": {
						"details": "Leaves the contract without owner. It will not be possible to call `onlyOwner` functions anymore. Can only be called by the current owner. NOTE: Renouncing ownership will leave the contract without an owner, thereby removing any functionality that is only available to the owner."
					},
					"setCreditors(address[])": {
						"params": {
							"_newCreditors": "list of credit sources"
						}
					},
					"setPrivateVaults(address[])": {
						"params": {
							"_newPrivateVaults": "list of private automated vaults"
						}
					},
					"totalCredit(address)": {
						"params": {
							"_user": "address of user."
						},
						"returns": {
							"_0": "_total user's credit in USD value"
						}
					},
					"transferOwnership(address)": {
						"details": "Transfers ownership of the contract to a new account (`newOwner`). Can only be called by the current owner."
					},
					"usedCredit(address)": {
						"params": {
							"_user": "address of user."
						},
						"returns": {
							"_0": "_total user's used credit in USD value from depositing into private automated vaults"
						}
					}
				},
				"title": "AutomatedVaultController - Controller how much investor can invest in the private automated vault",
				"version": 1
			},
			"evm": {
				"assembly": "    /* \"contracts/AutomatedVaultController.sol\":624:5551  contract AutomatedVaultController is OwnableUpgradeable {... */\n  mstore(0x40, 0x80)\n    /* \"contracts/AutomatedVaultController.sol\":1054:1082  constructor() initializer {} */\n  callvalue\n  dup1\n  iszero\n  tag_1\n  jumpi\n  0x00\n  dup1\n  revert\ntag_1:\n  pop\n    /* \"@openzeppelin/contracts-upgradeable/proxy/utils/Initializable.sol\":3111:3130  bool isTopLevelCall */\n  0x00\n    /* \"@openzeppelin/contracts-upgradeable/proxy/utils/Initializable.sol\":3133:3158  _setInitializedVersion(1) */\n  tag_4\n    /* \"@openzeppelin/contracts-upgradeable/proxy/utils/Initializable.sol\":3156:3157  1 */\n  0x01\n    /* \"@openzeppelin/contracts-upgradeable/proxy/utils/Initializable.sol\":3133:3155  _setInitializedVersion */\n  tag_5\n    /* \"@openzeppelin/contracts-upgradeable/proxy/utils/Initializable.sol\":3133:3158  _setInitializedVersion(1) */\n  jump\t// in\ntag_4:\n    /* \"@openzeppelin/contracts-upgradeable/proxy/utils/Initializable.sol\":3111:3158  bool isTopLevelCall = _setInitializedVersion(1) */\n  swap1\n  pop\n    /* \"@openzeppelin/contracts-upgradeable/proxy/utils/Initializable.sol\":3172:3186  isTopLevelCall */\n  dup1\n    /* \"@openzeppelin/contracts-upgradeable/proxy/utils/Initializable.sol\":3168:3233  if (isTopLevelCall) {... */\n  iszero\n  tag_6\n  jumpi\n    /* \"@openzeppelin/contracts-upgradeable/proxy/utils/Initializable.sol\":3202:3215  _initializing */\n  0x00\n    /* \"@openzeppelin/contracts-upgradeable/proxy/utils/Initializable.sol\":3202:3222  _initializing = true */\n  dup1\n  sload\n  not(0xff00)\n  and\n  0x0100\n  or\n  swap1\n  sstore\n    /* \"@openzeppelin/contracts-upgradeable/proxy/utils/Initializable.sol\":3168:3233  if (isTopLevelCall) {... */\ntag_6:\n    /* \"@openzeppelin/contracts-upgradeable/proxy/utils/Initializable.sol\":3257:3271  isTopLevelCall */\n  dup1\n    /* \"@openzeppelin/contracts-upgradeable/proxy/utils/Initializable.sol\":3253:3352  if (isTopLevelCall) {... */\n  iszero\n  tag_8\n  jumpi\n    /* \"@openzeppelin/contracts-upgradeable/proxy/utils/Initializable.sol\":3303:3308  false */\n  0x00\n    /* \"@openzeppelin/contracts-upgradeable/proxy/utils/Initializable.sol\":3287:3308  _initializing = false */\n  dup1\n  sload\n  not(0xff00)\n  and\n  swap1\n  sstore\n    /* \"@openzeppelin/contracts-upgradeable/proxy/utils/Initializable.sol\":3327:3341  Initialized(1) */\n  mload(0x40)\n  0x01\n    /* \"#utility.yul\":166:202   */\n  dup2\n  mstore\n    /* \"@openzeppelin/contracts-upgradeable/proxy/utils/Initializable.sol\":3327:3341  Initialized(1) */\n  0x7f26b83ff96e1f2b6a682f133852f6798a09c465da95921460cefb3847402498\n  swap1\n    /* \"#utility.yul\":154:156   */\n  0x20\n    /* \"#utility.yul\":139:157   */\n  add\n    /* \"@openzeppelin/contracts-upgradeable/proxy/utils/Initializable.sol\":3327:3341  Initialized(1) */\n  mload(0x40)\n  dup1\n  swap2\n  sub\n  swap1\n  log1\n    /* \"@openzeppelin/contracts-upgradeable/proxy/utils/Initializable.sol\":3253:3352  if (isTopLevelCall) {... */\ntag_8:\n    /* \"@openzeppelin/contracts-upgradeable/proxy/utils/Initializable.sol\":3101:3358  {... */\n  pop\n    /* \"contracts/AutomatedVaultController.sol\":624:5551  contract AutomatedVaultController is OwnableUpgradeable {... */\n  jump(tag_24)\n    /* \"@openzeppelin/contracts-upgradeable/proxy/utils/Initializable.sol\":5287:6095  function _setInitializedVersion(uint8 version) private returns (bool) {... */\ntag_5:\n    /* \"@openzeppelin/contracts-upgradeable/proxy/utils/Initializable.sol\":5351:5355  bool */\n  0x00\n    /* \"@openzeppelin/contracts-upgradeable/proxy/utils/Initializable.sol\":5684:5697  _initializing */\n  dup1\n  sload\n  0x0100\n  swap1\n  div\n  0xff\n  and\n    /* \"@openzeppelin/contracts-upgradeable/proxy/utils/Initializable.sol\":5680:6089  if (_initializing) {... */\n  iszero\n  tag_13\n  jumpi\n    /* \"@openzeppelin/contracts-upgradeable/proxy/utils/Initializable.sol\":5738:5745  version */\n  dup2\n    /* \"@openzeppelin/contracts-upgradeable/proxy/utils/Initializable.sol\":5738:5750  version == 1 */\n  0xff\n  and\n    /* \"@openzeppelin/contracts-upgradeable/proxy/utils/Initializable.sol\":5749:5750  1 */\n  0x01\n    /* \"@openzeppelin/contracts-upgradeable/proxy/utils/Initializable.sol\":5738:5750  version == 1 */\n  eq\n    /* \"@openzeppelin/contracts-upgradeable/proxy/utils/Initializable.sol\":5738:5799  version == 1 && !AddressUpgradeable.isContract(address(this)) */\n  dup1\n  iszero\n  tag_14\n  jumpi\n  pop\n    /* \"@openzeppelin/contracts-upgradeable/proxy/utils/Initializable.sol\":5755:5799  AddressUpgradeable.isContract(address(this)) */\n  tag_15\n    /* \"@openzeppelin/contracts-upgradeable/proxy/utils/Initializable.sol\":5793:5797  this */\n  address\n    /* \"@openzeppelin/contracts-upgradeable/proxy/utils/Initializable.sol\":5755:5784  AddressUpgradeable.isContract */\n  or(tag_0_83, shl(0x20, tag_16))\n    /* \"@openzeppelin/contracts-upgradeable/proxy/utils/Initializable.sol\":5755:5799  AddressUpgradeable.isContract(address(this)) */\n  0x20\n  shr\n  jump\t// in\ntag_15:\n    /* \"@openzeppelin/contracts-upgradeable/proxy/utils/Initializable.sol\":5754:5799  !AddressUpgradeable.isContract(address(this)) */\n  iszero\n    /* \"@openzeppelin/contracts-upgradeable/proxy/utils/Initializable.sol\":5738:5799  version == 1 && !AddressUpgradeable.isContract(address(this)) */\ntag_14:\n    /* \"@openzeppelin/contracts-upgradeable/proxy/utils/Initializable.sol\":5713:5879  require(... */\n  tag_17\n  jumpi\n  mload(0x40)\n  shl(0xe5, 0x461bcd)\n  dup2\n  mstore\n    /* \"#utility.yul\":415:417   */\n  0x20\n    /* \"@openzeppelin/contracts-upgradeable/proxy/utils/Initializable.sol\":5713:5879  require(... */\n  0x04\n  dup3\n  add\n    /* \"#utility.yul\":397:418   */\n  mstore\n    /* \"#utility.yul\":454:456   */\n  0x2e\n    /* \"#utility.yul\":434:452   */\n  0x24\n  dup3\n  add\n    /* \"#utility.yul\":427:457   */\n  mstore\n  0x00\n  dup1\n  mload\n  0x20\n  data_1e93930c6875183d88cd66e10df1f1e695d60226ff9068840c89b95f525592b2\n  dup4\n  codecopy\n  dup2\n  mload\n  swap2\n  mstore\n    /* \"#utility.yul\":473:491   */\n  0x44\n  dup3\n  add\n    /* \"#utility.yul\":466:528   */\n  mstore\n  shl(0x92, 0x191e481a5b9a5d1a585b1a5e9959)\n    /* \"#utility.yul\":544:562   */\n  0x64\n  dup3\n  add\n    /* \"#utility.yul\":537:581   */\n  mstore\n    /* \"#utility.yul\":598:617   */\n  0x84\n  add\n    /* \"@openzeppelin/contracts-upgradeable/proxy/utils/Initializable.sol\":5713:5879  require(... */\ntag_18:\n  mload(0x40)\n  dup1\n  swap2\n  sub\n  swap1\n  revert\ntag_17:\n  pop\n    /* \"@openzeppelin/contracts-upgradeable/proxy/utils/Initializable.sol\":5900:5905  false */\n  0x00\n  swap2\n    /* \"@openzeppelin/contracts-upgradeable/proxy/utils/Initializable.sol\":5287:6095  function _setInitializedVersion(uint8 version) private returns (bool) {... */\n  swap1\n  pop\n  jump\t// out\n    /* \"@openzeppelin/contracts-upgradeable/proxy/utils/Initializable.sol\":5680:6089  if (_initializing) {... */\ntag_13:\n    /* \"@openzeppelin/contracts-upgradeable/proxy/utils/Initializable.sol\":5944:5956  _initialized */\n  sload(0x00)\n    /* \"@openzeppelin/contracts-upgradeable/proxy/utils/Initializable.sol\":5944:5966  _initialized < version */\n  0xff\n  dup1\n  dup5\n  and\n    /* \"@openzeppelin/contracts-upgradeable/proxy/utils/Initializable.sol\":5944:5956  _initialized */\n  swap2\n  and\n    /* \"@openzeppelin/contracts-upgradeable/proxy/utils/Initializable.sol\":5944:5966  _initialized < version */\n  lt\n    /* \"@openzeppelin/contracts-upgradeable/proxy/utils/Initializable.sol\":5936:6017  require(_initialized < version, \"Initializable: contract is already initialized\") */\n  tag_21\n  jumpi\n  mload(0x40)\n  shl(0xe5, 0x461bcd)\n  dup2\n  mstore\n    /* \"#utility.yul\":415:417   */\n  0x20\n    /* \"@openzeppelin/contracts-upgradeable/proxy/utils/Initializable.sol\":5936:6017  require(_initialized < version, \"Initializable: contract is already initialized\") */\n  0x04\n  dup3\n  add\n    /* \"#utility.yul\":397:418   */\n  mstore\n    /* \"#utility.yul\":454:456   */\n  0x2e\n    /* \"#utility.yul\":434:452   */\n  0x24\n  dup3\n  add\n    /* \"#utility.yul\":427:457   */\n  mstore\n  0x00\n  dup1\n  mload\n  0x20\n  data_1e93930c6875183d88cd66e10df1f1e695d60226ff9068840c89b95f525592b2\n  dup4\n  codecopy\n  dup2\n  mload\n  swap2\n  mstore\n    /* \"#utility.yul\":473:491   */\n  0x44\n  dup3\n  add\n    /* \"#utility.yul\":466:528   */\n  mstore\n  shl(0x92, 0x191e481a5b9a5d1a585b1a5e9959)\n    /* \"#utility.yul\":544:562   */\n  0x64\n  dup3\n  add\n    /* \"#utility.yul\":537:581   */\n  mstore\n    /* \"#utility.yul\":598:617   */\n  0x84\n  add\n    /* \"@openzeppelin/contracts-upgradeable/proxy/utils/Initializable.sol\":5936:6017  require(_initialized < version, \"Initializable: contract is already initialized\") */\n  tag_18\n    /* \"#utility.yul\":213:623   */\n  jump\n    /* \"@openzeppelin/contracts-upgradeable/proxy/utils/Initializable.sol\":5936:6017  require(_initialized < version, \"Initializable: contract is already initialized\") */\ntag_21:\n  pop\n    /* \"@openzeppelin/contracts-upgradeable/proxy/utils/Initializable.sol\":6031:6043  _initialized */\n  0x00\n    /* \"@openzeppelin/contracts-upgradeable/proxy/utils/Initializable.sol\":6031:6053  _initialized = version */\n  dup1\n  sload\n  not(0xff)\n  and\n  0xff\n  swap3\n  swap1\n  swap3\n  and\n  swap2\n  swap1\n  swap2\n  or\n  swap1\n  sstore\n  0x01\n  swap1\n    /* \"@openzeppelin/contracts-upgradeable/proxy/utils/Initializable.sol\":5287:6095  function _setInitializedVersion(uint8 version) private returns (bool) {... */\n  jump\t// out\n    /* \"@openzeppelin/contracts-upgradeable/utils/AddressUpgradeable.sol\":1186:1506  function isContract(address account) internal view returns (bool) {... */\ntag_16:\n  sub(shl(0xa0, 0x01), 0x01)\n    /* \"@openzeppelin/contracts-upgradeable/utils/AddressUpgradeable.sol\":1476:1495  account.code.length */\n  and\n  extcodesize\n    /* \"@openzeppelin/contracts-upgradeable/utils/AddressUpgradeable.sol\":1476:1499  account.code.length > 0 */\n  iszero\n  iszero\n  swap1\n    /* \"@openzeppelin/contracts-upgradeable/utils/AddressUpgradeable.sol\":1186:1506  function isContract(address account) internal view returns (bool) {... */\n  jump\t// out\n    /* \"#utility.yul\":213:623   */\ntag_24:\n    /* \"contracts/AutomatedVaultController.sol\":624:5551  contract AutomatedVaultController is OwnableUpgradeable {... */\n  dataSize(sub_0)\n  dup1\n  dataOffset(sub_0)\n  0x00\n  codecopy\n  0x00\n  return\nstop\ndata_1e93930c6875183d88cd66e10df1f1e695d60226ff9068840c89b95f525592b2 496e697469616c697a61626c653a20636f6e747261637420697320616c726561\n\nsub_0: assembly {\n        /* \"contracts/AutomatedVaultController.sol\":624:5551  contract AutomatedVaultController is OwnableUpgradeable {... */\n      mstore(0x40, 0x80)\n      callvalue\n      dup1\n      iszero\n      tag_1\n      jumpi\n      0x00\n      dup1\n      revert\n    tag_1:\n      pop\n      jumpi(tag_2, lt(calldatasize, 0x04))\n      shr(0xe0, calldataload(0x00))\n      dup1\n      0x87f049e4\n      gt\n      tag_18\n      jumpi\n      dup1\n      0xccad973d\n      gt\n      tag_19\n      jumpi\n      dup1\n      0xccad973d\n      eq\n      tag_14\n      jumpi\n      dup1\n      0xe7d325a1\n      eq\n      tag_15\n      jumpi\n      dup1\n      0xf220d16c\n      eq\n      tag_16\n      jumpi\n      dup1\n      0xf2fde38b\n      eq\n      tag_17\n      jumpi\n      0x00\n      dup1\n      revert\n    tag_19:\n      dup1\n      0x87f049e4\n      eq\n      tag_10\n      jumpi\n      dup1\n      0x8da5cb5b\n      eq\n      tag_11\n      jumpi\n      dup1\n      0x9f7b7ead\n      eq\n      tag_12\n      jumpi\n      dup1\n      0xc5c66d4d\n      eq\n      tag_13\n      jumpi\n      0x00\n      dup1\n      revert\n    tag_18:\n      dup1\n      0x715018a6\n      gt\n      tag_20\n      jumpi\n      dup1\n      0x715018a6\n      eq\n      tag_6\n      jumpi\n      dup1\n      0x71bc16b5\n      eq\n      tag_7\n      jumpi\n      dup1\n      0x73cf25f8\n      eq\n      tag_8\n      jumpi\n      dup1\n      0x7bf962de\n      eq\n      tag_9\n      jumpi\n      0x00\n      dup1\n      revert\n    tag_20:\n      dup1\n      0x2bf9518c\n      eq\n      tag_3\n      jumpi\n      dup1\n      0x4fe01823\n      eq\n      tag_4\n      jumpi\n      dup1\n      0x5886216f\n      eq\n      tag_5\n      jumpi\n    tag_2:\n      0x00\n      dup1\n      revert\n        /* \"contracts/AutomatedVaultController.sol\":4697:4871  function onDeposit(address _user, uint256 _shareAmount) external {... */\n    tag_3:\n      tag_21\n      tag_22\n      calldatasize\n      0x04\n      tag_23\n      jump\t// in\n    tag_22:\n      tag_24\n      jump\t// in\n    tag_21:\n      stop\n        /* \"contracts/AutomatedVaultController.sol\":3475:3974  function setPrivateVaults(IDeltaNeutralVault[] memory _newPrivateVaults) external onlyOwner {... */\n    tag_4:\n      tag_21\n      tag_26\n      calldatasize\n      0x04\n      tag_27\n      jump\t// in\n    tag_26:\n      tag_28\n      jump\t// in\n        /* \"contracts/AutomatedVaultController.sol\":3153:3360  function availableCredit(address _user) public view returns (uint256) {... */\n    tag_5:\n      tag_29\n      tag_30\n      calldatasize\n      0x04\n      tag_31\n      jump\t// in\n    tag_30:\n      tag_32\n      jump\t// in\n    tag_29:\n      mload(0x40)\n        /* \"#utility.yul\":2669:2694   */\n      swap1\n      dup2\n      mstore\n        /* \"#utility.yul\":2657:2659   */\n      0x20\n        /* \"#utility.yul\":2642:2660   */\n      add\n        /* \"contracts/AutomatedVaultController.sol\":3153:3360  function availableCredit(address _user) public view returns (uint256) {... */\n    tag_33:\n      mload(0x40)\n      dup1\n      swap2\n      sub\n      swap1\n      return\n        /* \"@openzeppelin/contracts-upgradeable/access/OwnableUpgradeable.sol\":1908:2009  function renounceOwnership() public virtual onlyOwner {... */\n    tag_6:\n      tag_21\n      tag_36\n      jump\t// in\n        /* \"contracts/AutomatedVaultController.sol\":898:926  ICreditor[] public creditors */\n    tag_7:\n      tag_37\n      tag_38\n      calldatasize\n      0x04\n      tag_39\n      jump\t// in\n    tag_38:\n      tag_40\n      jump\t// in\n    tag_37:\n      mload(0x40)\n      sub(shl(0xa0, 0x01), 0x01)\n        /* \"#utility.yul\":3071:3103   */\n      swap1\n      swap2\n      and\n        /* \"#utility.yul\":3053:3104   */\n      dup2\n      mstore\n        /* \"#utility.yul\":3041:3043   */\n      0x20\n        /* \"#utility.yul\":3026:3044   */\n      add\n        /* \"contracts/AutomatedVaultController.sol\":898:926  ICreditor[] public creditors */\n      tag_33\n        /* \"#utility.yul\":2890:3110   */\n      jump\n        /* \"contracts/AutomatedVaultController.sol\":1251:1850  function initialize(ICreditor[] memory _creditors, IDeltaNeutralVault[] memory _privateVaults) external initializer {... */\n    tag_8:\n      tag_21\n      tag_44\n      calldatasize\n      0x04\n      tag_45\n      jump\t// in\n    tag_44:\n      tag_46\n      jump\t// in\n        /* \"contracts/AutomatedVaultController.sol\":2538:3002  function usedCredit(address _user) public view returns (uint256) {... */\n    tag_9:\n      tag_29\n      tag_48\n      calldatasize\n      0x04\n      tag_31\n      jump\t// in\n    tag_48:\n      tag_49\n      jump\t// in\n        /* \"contracts/AutomatedVaultController.sol\":931:972  IDeltaNeutralVault[] public privateVaults */\n    tag_10:\n      tag_37\n      tag_52\n      calldatasize\n      0x04\n      tag_39\n      jump\t// in\n    tag_52:\n      tag_53\n      jump\t// in\n        /* \"@openzeppelin/contracts-upgradeable/access/OwnableUpgradeable.sol\":1276:1361  function owner() public view virtual returns (address) {... */\n    tag_11:\n        /* \"@openzeppelin/contracts-upgradeable/access/OwnableUpgradeable.sol\":1348:1354  _owner */\n      and(sub(shl(0xa0, 0x01), 0x01), sload(0x33))\n        /* \"@openzeppelin/contracts-upgradeable/access/OwnableUpgradeable.sol\":1276:1361  function owner() public view virtual returns (address) {... */\n      jump(tag_37)\n        /* \"contracts/AutomatedVaultController.sol\":977:1047  mapping(address => mapping(address => uint256)) public userVaultShares */\n    tag_12:\n      tag_29\n      tag_61\n      calldatasize\n      0x04\n      tag_62\n      jump\t// in\n    tag_61:\n      0x67\n      0x20\n      swap1\n      dup2\n      mstore\n      0x00\n      swap3\n      dup4\n      mstore\n      0x40\n      dup1\n      dup5\n      keccak256\n      swap1\n      swap2\n      mstore\n      swap1\n      dup3\n      mstore\n      swap1\n      keccak256\n      sload\n      dup2\n      jump\n        /* \"contracts/AutomatedVaultController.sol\":5407:5548  function getUserVaultShares(address _user, address _vault) external view returns (uint256) {... */\n    tag_13:\n      tag_29\n      tag_66\n      calldatasize\n      0x04\n      tag_62\n      jump\t// in\n    tag_66:\n      sub(shl(0xa0, 0x01), 0x01)\n        /* \"contracts/AutomatedVaultController.sol\":5512:5534  userVaultShares[_user] */\n      swap2\n      dup3\n      and\n        /* \"contracts/AutomatedVaultController.sol\":5489:5496  uint256 */\n      0x00\n        /* \"contracts/AutomatedVaultController.sol\":5512:5534  userVaultShares[_user] */\n      swap1\n      dup2\n      mstore\n        /* \"contracts/AutomatedVaultController.sol\":5512:5527  userVaultShares */\n      0x67\n        /* \"contracts/AutomatedVaultController.sol\":5512:5534  userVaultShares[_user] */\n      0x20\n      swap1\n      dup2\n      mstore\n      0x40\n      dup1\n      dup4\n      keccak256\n        /* \"contracts/AutomatedVaultController.sol\":5512:5542  userVaultShares[_user][_vault] */\n      swap4\n      swap1\n      swap5\n      and\n      dup3\n      mstore\n      swap2\n      swap1\n      swap2\n      mstore\n      keccak256\n      sload\n      swap1\n        /* \"contracts/AutomatedVaultController.sol\":5407:5548  function getUserVaultShares(address _user, address _vault) external view returns (uint256) {... */\n      jump\n        /* \"contracts/AutomatedVaultController.sol\":5049:5285  function onWithdraw(address _user, uint256 _shareAmount) external {... */\n    tag_14:\n      tag_21\n      tag_70\n      calldatasize\n      0x04\n      tag_23\n      jump\t// in\n    tag_70:\n      tag_71\n      jump\t// in\n        /* \"contracts/AutomatedVaultController.sol\":4075:4532  function setCreditors(ICreditor[] memory _newCreditors) external onlyOwner {... */\n    tag_15:\n      tag_21\n      tag_73\n      calldatasize\n      0x04\n      tag_74\n      jump\t// in\n    tag_73:\n      tag_75\n      jump\t// in\n        /* \"contracts/AutomatedVaultController.sol\":1988:2350  function totalCredit(address _user) public view returns (uint256) {... */\n    tag_16:\n      tag_29\n      tag_77\n      calldatasize\n      0x04\n      tag_31\n      jump\t// in\n    tag_77:\n      tag_78\n      jump\t// in\n        /* \"@openzeppelin/contracts-upgradeable/access/OwnableUpgradeable.sol\":2158:2356  function transferOwnership(address newOwner) public virtual onlyOwner {... */\n    tag_17:\n      tag_21\n      tag_81\n      calldatasize\n      0x04\n      tag_31\n      jump\t// in\n    tag_81:\n      tag_82\n      jump\t// in\n        /* \"contracts/AutomatedVaultController.sol\":4697:4871  function onDeposit(address _user, uint256 _shareAmount) external {... */\n    tag_24:\n      sub(shl(0xa0, 0x01), 0x01)\n        /* \"contracts/AutomatedVaultController.sol\":4815:4837  userVaultShares[_user] */\n      dup3\n      and\n      0x00\n      swap1\n      dup2\n      mstore\n        /* \"contracts/AutomatedVaultController.sol\":4815:4830  userVaultShares */\n      0x67\n        /* \"contracts/AutomatedVaultController.sol\":4815:4837  userVaultShares[_user] */\n      0x20\n      swap1\n      dup2\n      mstore\n      0x40\n      dup1\n      dup4\n      keccak256\n        /* \"contracts/AutomatedVaultController.sol\":4838:4848  msg.sender */\n      caller\n        /* \"contracts/AutomatedVaultController.sol\":4815:4849  userVaultShares[_user][msg.sender] */\n      dup5\n      mstore\n      swap1\n      swap2\n      mstore\n      dup2\n      keccak256\n        /* \"contracts/AutomatedVaultController.sol\":4815:4865  userVaultShares[_user][msg.sender] += _shareAmount */\n      dup1\n      sload\n        /* \"contracts/AutomatedVaultController.sol\":4853:4865  _shareAmount */\n      dup4\n      swap3\n        /* \"contracts/AutomatedVaultController.sol\":4815:4837  userVaultShares[_user] */\n      swap1\n        /* \"contracts/AutomatedVaultController.sol\":4815:4865  userVaultShares[_user][msg.sender] += _shareAmount */\n      tag_85\n      swap1\n        /* \"contracts/AutomatedVaultController.sol\":4853:4865  _shareAmount */\n      dup5\n      swap1\n        /* \"contracts/AutomatedVaultController.sol\":4815:4865  userVaultShares[_user][msg.sender] += _shareAmount */\n      tag_86\n      jump\t// in\n    tag_85:\n      swap1\n      swap2\n      sstore\n      pop\n      pop\n      pop\n      pop\n        /* \"contracts/AutomatedVaultController.sol\":4697:4871  function onDeposit(address _user, uint256 _shareAmount) external {... */\n      jump\t// out\n        /* \"contracts/AutomatedVaultController.sol\":3475:3974  function setPrivateVaults(IDeltaNeutralVault[] memory _newPrivateVaults) external onlyOwner {... */\n    tag_28:\n        /* \"@openzeppelin/contracts-upgradeable/access/OwnableUpgradeable.sol\":1348:1354  _owner */\n      and(sub(shl(0xa0, 0x01), 0x01), sload(0x33))\n        /* \"@openzeppelin/contracts-upgradeable/utils/ContextUpgradeable.sol\":929:939  msg.sender */\n      caller\n        /* \"@openzeppelin/contracts-upgradeable/access/OwnableUpgradeable.sol\":1488:1511  owner() == _msgSender() */\n      eq\n        /* \"@openzeppelin/contracts-upgradeable/access/OwnableUpgradeable.sol\":1480:1548  require(owner() == _msgSender(), \"Ownable: caller is not the owner\") */\n      tag_91\n      jumpi\n      mload(0x40)\n      shl(0xe5, 0x461bcd)\n      dup2\n      mstore\n      0x04\n      add\n      tag_92\n      swap1\n      tag_93\n      jump\t// in\n    tag_92:\n      mload(0x40)\n      dup1\n      swap2\n      sub\n      swap1\n      revert\n    tag_91:\n        /* \"contracts/AutomatedVaultController.sol\":3628:3652  _newPrivateVaults.length */\n      dup1\n      mload\n        /* \"contracts/AutomatedVaultController.sol\":3595:3625  uint256 _newPrivateVaultLength */\n      0x00\n        /* \"contracts/AutomatedVaultController.sol\":3659:3848  for (uint8 _i = 0; _i < _newPrivateVaultLength; ) {... */\n    tag_95:\n        /* \"contracts/AutomatedVaultController.sol\":3683:3705  _newPrivateVaultLength */\n      dup2\n        /* \"contracts/AutomatedVaultController.sol\":3678:3680  _i */\n      dup2\n        /* \"contracts/AutomatedVaultController.sol\":3678:3705  _i < _newPrivateVaultLength */\n      0xff\n      and\n      lt\n        /* \"contracts/AutomatedVaultController.sol\":3659:3848  for (uint8 _i = 0; _i < _newPrivateVaultLength; ) {... */\n      iszero\n      tag_96\n      jumpi\n        /* \"contracts/AutomatedVaultController.sol\":3718:3735  _newPrivateVaults */\n      dup3\n        /* \"contracts/AutomatedVaultController.sol\":3736:3738  _i */\n      dup2\n        /* \"contracts/AutomatedVaultController.sol\":3718:3739  _newPrivateVaults[_i] */\n      0xff\n      and\n      dup2\n      mload\n      dup2\n      lt\n      tag_99\n      jumpi\n      tag_99\n      tag_100\n      jump\t// in\n    tag_99:\n      0x20\n      mul\n      0x20\n      add\n      add\n      mload\n      sub(shl(0xa0, 0x01), 0x01)\n        /* \"contracts/AutomatedVaultController.sol\":3718:3752  _newPrivateVaults[_i].shareToValue */\n      and\n      0x441130d5\n        /* \"contracts/AutomatedVaultController.sol\":3753:3757  1e18 */\n      0x0de0b6b3a7640000\n        /* \"contracts/AutomatedVaultController.sol\":3718:3758  _newPrivateVaults[_i].shareToValue(1e18) */\n      mload(0x40)\n      dup3\n      0xffffffff\n      and\n      0xe0\n      shl\n      dup2\n      mstore\n      0x04\n      add\n      tag_101\n      swap2\n        /* \"#utility.yul\":2669:2694   */\n      dup2\n      mstore\n        /* \"#utility.yul\":2657:2659   */\n      0x20\n        /* \"#utility.yul\":2642:2660   */\n      add\n      swap1\n        /* \"#utility.yul\":2523:2700   */\n      jump\n        /* \"contracts/AutomatedVaultController.sol\":3718:3758  _newPrivateVaults[_i].shareToValue(1e18) */\n    tag_101:\n      0x20\n      mload(0x40)\n      dup1\n      dup4\n      sub\n      dup2\n      dup7\n      gas\n      staticcall\n      iszero\n      dup1\n      iszero\n      tag_104\n      jumpi\n      returndatasize\n      0x00\n      dup1\n      returndatacopy\n      revert(0x00, returndatasize)\n    tag_104:\n      pop\n      pop\n      pop\n      pop\n      mload(0x40)\n      returndatasize\n      not(0x1f)\n      0x1f\n      dup3\n      add\n      and\n      dup3\n      add\n      dup1\n      0x40\n      mstore\n      pop\n      dup2\n      add\n      swap1\n      tag_105\n      swap2\n      swap1\n      tag_106\n      jump\t// in\n    tag_105:\n      pop\n        /* \"contracts/AutomatedVaultController.sol\":3827:3831  _i++ */\n      0x01\n      add\n        /* \"contracts/AutomatedVaultController.sol\":3659:3848  for (uint8 _i = 0; _i < _newPrivateVaultLength; ) {... */\n      jump(tag_95)\n    tag_96:\n      pop\n        /* \"contracts/AutomatedVaultController.sol\":3871:3904  privateVaults = _newPrivateVaults */\n      dup2\n      mload\n      tag_107\n      swap1\n        /* \"contracts/AutomatedVaultController.sol\":3871:3884  privateVaults */\n      0x66\n      swap1\n        /* \"contracts/AutomatedVaultController.sol\":3871:3904  privateVaults = _newPrivateVaults */\n      0x20\n      dup6\n      add\n      swap1\n      tag_108\n      jump\t// in\n    tag_107:\n      pop\n        /* \"contracts/AutomatedVaultController.sol\":3938:3948  msg.sender */\n      caller\n      sub(shl(0xa0, 0x01), 0x01)\n        /* \"contracts/AutomatedVaultController.sol\":3918:3968  LogSetPrivateVaults(msg.sender, _newPrivateVaults) */\n      and\n      0x2abc0e25ec4d3cb00cd094f0bca86e790d0f6455cf9064345274fc97586b31c5\n        /* \"contracts/AutomatedVaultController.sol\":3950:3967  _newPrivateVaults */\n      dup4\n        /* \"contracts/AutomatedVaultController.sol\":3918:3968  LogSetPrivateVaults(msg.sender, _newPrivateVaults) */\n      mload(0x40)\n      tag_109\n      swap2\n      swap1\n      tag_110\n      jump\t// in\n    tag_109:\n      mload(0x40)\n      dup1\n      swap2\n      sub\n      swap1\n      log2\n        /* \"contracts/AutomatedVaultController.sol\":3567:3974  {... */\n      pop\n        /* \"contracts/AutomatedVaultController.sol\":3475:3974  function setPrivateVaults(IDeltaNeutralVault[] memory _newPrivateVaults) external onlyOwner {... */\n      pop\n      jump\t// out\n        /* \"contracts/AutomatedVaultController.sol\":3153:3360  function availableCredit(address _user) public view returns (uint256) {... */\n    tag_32:\n        /* \"contracts/AutomatedVaultController.sol\":3214:3221  uint256 */\n      0x00\n        /* \"contracts/AutomatedVaultController.sol\":3230:3244  uint256 _total */\n      dup1\n        /* \"contracts/AutomatedVaultController.sol\":3247:3265  totalCredit(_user) */\n      tag_112\n        /* \"contracts/AutomatedVaultController.sol\":3259:3264  _user */\n      dup4\n        /* \"contracts/AutomatedVaultController.sol\":3247:3258  totalCredit */\n      tag_78\n        /* \"contracts/AutomatedVaultController.sol\":3247:3265  totalCredit(_user) */\n      jump\t// in\n    tag_112:\n        /* \"contracts/AutomatedVaultController.sol\":3230:3265  uint256 _total = totalCredit(_user) */\n      swap1\n      pop\n        /* \"contracts/AutomatedVaultController.sol\":3272:3285  uint256 _used */\n      0x00\n        /* \"contracts/AutomatedVaultController.sol\":3288:3305  usedCredit(_user) */\n      tag_113\n        /* \"contracts/AutomatedVaultController.sol\":3299:3304  _user */\n      dup5\n        /* \"contracts/AutomatedVaultController.sol\":3288:3298  usedCredit */\n      tag_49\n        /* \"contracts/AutomatedVaultController.sol\":3288:3305  usedCredit(_user) */\n      jump\t// in\n    tag_113:\n        /* \"contracts/AutomatedVaultController.sol\":3272:3305  uint256 _used = usedCredit(_user) */\n      swap1\n      pop\n        /* \"contracts/AutomatedVaultController.sol\":3328:3333  _used */\n      dup1\n        /* \"contracts/AutomatedVaultController.sol\":3319:3325  _total */\n      dup3\n        /* \"contracts/AutomatedVaultController.sol\":3319:3333  _total > _used */\n      gt\n        /* \"contracts/AutomatedVaultController.sol\":3319:3354  _total > _used ? _total - _used : 0 */\n      tag_114\n      jumpi\n        /* \"contracts/AutomatedVaultController.sol\":3353:3354  0 */\n      0x00\n        /* \"contracts/AutomatedVaultController.sol\":3319:3354  _total > _used ? _total - _used : 0 */\n      jump(tag_116)\n    tag_114:\n        /* \"contracts/AutomatedVaultController.sol\":3336:3350  _total - _used */\n      tag_116\n        /* \"contracts/AutomatedVaultController.sol\":3345:3350  _used */\n      dup2\n        /* \"contracts/AutomatedVaultController.sol\":3336:3342  _total */\n      dup4\n        /* \"contracts/AutomatedVaultController.sol\":3336:3350  _total - _used */\n      tag_117\n      jump\t// in\n    tag_116:\n        /* \"contracts/AutomatedVaultController.sol\":3312:3354  return _total > _used ? _total - _used : 0 */\n      swap5\n        /* \"contracts/AutomatedVaultController.sol\":3153:3360  function availableCredit(address _user) public view returns (uint256) {... */\n      swap4\n      pop\n      pop\n      pop\n      pop\n      jump\t// out\n        /* \"@openzeppelin/contracts-upgradeable/access/OwnableUpgradeable.sol\":1908:2009  function renounceOwnership() public virtual onlyOwner {... */\n    tag_36:\n        /* \"@openzeppelin/contracts-upgradeable/access/OwnableUpgradeable.sol\":1348:1354  _owner */\n      and(sub(shl(0xa0, 0x01), 0x01), sload(0x33))\n        /* \"@openzeppelin/contracts-upgradeable/utils/ContextUpgradeable.sol\":929:939  msg.sender */\n      caller\n        /* \"@openzeppelin/contracts-upgradeable/access/OwnableUpgradeable.sol\":1488:1511  owner() == _msgSender() */\n      eq\n        /* \"@openzeppelin/contracts-upgradeable/access/OwnableUpgradeable.sol\":1480:1548  require(owner() == _msgSender(), \"Ownable: caller is not the owner\") */\n      tag_121\n      jumpi\n      mload(0x40)\n      shl(0xe5, 0x461bcd)\n      dup2\n      mstore\n      0x04\n      add\n      tag_92\n      swap1\n      tag_93\n      jump\t// in\n    tag_121:\n        /* \"@openzeppelin/contracts-upgradeable/access/OwnableUpgradeable.sol\":1972:2002  _transferOwnership(address(0)) */\n      tag_124\n        /* \"@openzeppelin/contracts-upgradeable/access/OwnableUpgradeable.sol\":1999:2000  0 */\n      0x00\n        /* \"@openzeppelin/contracts-upgradeable/access/OwnableUpgradeable.sol\":1972:1990  _transferOwnership */\n      tag_125\n        /* \"@openzeppelin/contracts-upgradeable/access/OwnableUpgradeable.sol\":1972:2002  _transferOwnership(address(0)) */\n      jump\t// in\n    tag_124:\n        /* \"@openzeppelin/contracts-upgradeable/access/OwnableUpgradeable.sol\":1908:2009  function renounceOwnership() public virtual onlyOwner {... */\n      jump\t// out\n        /* \"contracts/AutomatedVaultController.sol\":898:926  ICreditor[] public creditors */\n    tag_40:\n      0x65\n      dup2\n      dup2\n      sload\n      dup2\n      lt\n      tag_126\n      jumpi\n      0x00\n      dup1\n      revert\n    tag_126:\n      0x00\n      swap2\n      dup3\n      mstore\n      0x20\n      swap1\n      swap2\n      keccak256\n      add\n      sload\n      sub(shl(0xa0, 0x01), 0x01)\n      and\n      swap1\n      pop\n      dup2\n      jump\t// out\n        /* \"contracts/AutomatedVaultController.sol\":1251:1850  function initialize(ICreditor[] memory _creditors, IDeltaNeutralVault[] memory _privateVaults) external initializer {... */\n    tag_46:\n        /* \"@openzeppelin/contracts-upgradeable/proxy/utils/Initializable.sol\":3111:3130  bool isTopLevelCall */\n      0x00\n        /* \"@openzeppelin/contracts-upgradeable/proxy/utils/Initializable.sol\":3133:3158  _setInitializedVersion(1) */\n      tag_129\n        /* \"@openzeppelin/contracts-upgradeable/proxy/utils/Initializable.sol\":3156:3157  1 */\n      0x01\n        /* \"@openzeppelin/contracts-upgradeable/proxy/utils/Initializable.sol\":3133:3155  _setInitializedVersion */\n      tag_130\n        /* \"@openzeppelin/contracts-upgradeable/proxy/utils/Initializable.sol\":3133:3158  _setInitializedVersion(1) */\n      jump\t// in\n    tag_129:\n        /* \"@openzeppelin/contracts-upgradeable/proxy/utils/Initializable.sol\":3111:3158  bool isTopLevelCall = _setInitializedVersion(1) */\n      swap1\n      pop\n        /* \"@openzeppelin/contracts-upgradeable/proxy/utils/Initializable.sol\":3172:3186  isTopLevelCall */\n      dup1\n        /* \"@openzeppelin/contracts-upgradeable/proxy/utils/Initializable.sol\":3168:3233  if (isTopLevelCall) {... */\n      iszero\n      tag_131\n      jumpi\n        /* \"@openzeppelin/contracts-upgradeable/proxy/utils/Initializable.sol\":3202:3215  _initializing */\n      0x00\n        /* \"@openzeppelin/contracts-upgradeable/proxy/utils/Initializable.sol\":3202:3222  _initializing = true */\n      dup1\n      sload\n      not(0xff00)\n      and\n      0x0100\n      or\n      swap1\n      sstore\n        /* \"@openzeppelin/contracts-upgradeable/proxy/utils/Initializable.sol\":3168:3233  if (isTopLevelCall) {... */\n    tag_131:\n        /* \"contracts/AutomatedVaultController.sol\":1421:1438  _creditors.length */\n      dup3\n      mload\n        /* \"contracts/AutomatedVaultController.sol\":1395:1418  uint256 _creditorLength */\n      0x00\n        /* \"contracts/AutomatedVaultController.sol\":1445:1549  for (uint8 _i = 0; _i < _creditorLength; _i++) {... */\n    tag_133:\n        /* \"contracts/AutomatedVaultController.sol\":1469:1484  _creditorLength */\n      dup2\n        /* \"contracts/AutomatedVaultController.sol\":1464:1466  _i */\n      dup2\n        /* \"contracts/AutomatedVaultController.sol\":1464:1484  _i < _creditorLength */\n      0xff\n      and\n      lt\n        /* \"contracts/AutomatedVaultController.sol\":1445:1549  for (uint8 _i = 0; _i < _creditorLength; _i++) {... */\n      iszero\n      tag_134\n      jumpi\n        /* \"contracts/AutomatedVaultController.sol\":1501:1511  _creditors */\n      dup5\n        /* \"contracts/AutomatedVaultController.sol\":1512:1514  _i */\n      dup2\n        /* \"contracts/AutomatedVaultController.sol\":1501:1515  _creditors[_i] */\n      0xff\n      and\n      dup2\n      mload\n      dup2\n      lt\n      tag_137\n      jumpi\n      tag_137\n      tag_100\n      jump\t// in\n    tag_137:\n      0x20\n      swap1\n      dup2\n      mul\n      swap2\n      swap1\n      swap2\n      add\n      add\n      mload\n        /* \"contracts/AutomatedVaultController.sol\":1501:1541  _creditors[_i].getUserCredit(address(0)) */\n      mload(0x40)\n      shl(0xe2, 0x36b5bc37)\n      dup2\n      mstore\n        /* \"contracts/AutomatedVaultController.sol\":1538:1539  0 */\n      0x00\n        /* \"contracts/AutomatedVaultController.sol\":1501:1541  _creditors[_i].getUserCredit(address(0)) */\n      0x04\n      dup3\n      add\n        /* \"#utility.yul\":3053:3104   */\n      mstore\n      sub(shl(0xa0, 0x01), 0x01)\n        /* \"contracts/AutomatedVaultController.sol\":1501:1529  _creditors[_i].getUserCredit */\n      swap1\n      swap2\n      and\n      swap1\n      0xdad6f0dc\n      swap1\n        /* \"#utility.yul\":3026:3044   */\n      0x24\n      add\n        /* \"contracts/AutomatedVaultController.sol\":1501:1541  _creditors[_i].getUserCredit(address(0)) */\n      0x20\n      mload(0x40)\n      dup1\n      dup4\n      sub\n      dup2\n      dup7\n      gas\n      staticcall\n      iszero\n      dup1\n      iszero\n      tag_140\n      jumpi\n      returndatasize\n      0x00\n      dup1\n      returndatacopy\n      revert(0x00, returndatasize)\n    tag_140:\n      pop\n      pop\n      pop\n      pop\n      mload(0x40)\n      returndatasize\n      not(0x1f)\n      0x1f\n      dup3\n      add\n      and\n      dup3\n      add\n      dup1\n      0x40\n      mstore\n      pop\n      dup2\n      add\n      swap1\n      tag_141\n      swap2\n      swap1\n      tag_106\n      jump\t// in\n    tag_141:\n      pop\n        /* \"contracts/AutomatedVaultController.sol\":1486:1490  _i++ */\n      dup1\n      tag_142\n      dup2\n      tag_143\n      jump\t// in\n    tag_142:\n      swap2\n      pop\n      pop\n        /* \"contracts/AutomatedVaultController.sol\":1445:1549  for (uint8 _i = 0; _i < _creditorLength; _i++) {... */\n      jump(tag_133)\n    tag_134:\n      pop\n        /* \"contracts/AutomatedVaultController.sol\":1587:1608  _privateVaults.length */\n      dup3\n      mload\n        /* \"contracts/AutomatedVaultController.sol\":1557:1584  uint256 _privateVaultLength */\n      0x00\n        /* \"contracts/AutomatedVaultController.sol\":1615:1720  for (uint8 _i = 0; _i < _privateVaultLength; _i++) {... */\n    tag_144:\n        /* \"contracts/AutomatedVaultController.sol\":1639:1658  _privateVaultLength */\n      dup2\n        /* \"contracts/AutomatedVaultController.sol\":1634:1636  _i */\n      dup2\n        /* \"contracts/AutomatedVaultController.sol\":1634:1658  _i < _privateVaultLength */\n      0xff\n      and\n      lt\n        /* \"contracts/AutomatedVaultController.sol\":1615:1720  for (uint8 _i = 0; _i < _privateVaultLength; _i++) {... */\n      iszero\n      tag_145\n      jumpi\n        /* \"contracts/AutomatedVaultController.sol\":1675:1689  _privateVaults */\n      dup5\n        /* \"contracts/AutomatedVaultController.sol\":1690:1692  _i */\n      dup2\n        /* \"contracts/AutomatedVaultController.sol\":1675:1693  _privateVaults[_i] */\n      0xff\n      and\n      dup2\n      mload\n      dup2\n      lt\n      tag_148\n      jumpi\n      tag_148\n      tag_100\n      jump\t// in\n    tag_148:\n      0x20\n      mul\n      0x20\n      add\n      add\n      mload\n      sub(shl(0xa0, 0x01), 0x01)\n        /* \"contracts/AutomatedVaultController.sol\":1675:1706  _privateVaults[_i].shareToValue */\n      and\n      0x441130d5\n        /* \"contracts/AutomatedVaultController.sol\":1707:1711  1e18 */\n      0x0de0b6b3a7640000\n        /* \"contracts/AutomatedVaultController.sol\":1675:1712  _privateVaults[_i].shareToValue(1e18) */\n      mload(0x40)\n      dup3\n      0xffffffff\n      and\n      0xe0\n      shl\n      dup2\n      mstore\n      0x04\n      add\n      tag_149\n      swap2\n        /* \"#utility.yul\":2669:2694   */\n      dup2\n      mstore\n        /* \"#utility.yul\":2657:2659   */\n      0x20\n        /* \"#utility.yul\":2642:2660   */\n      add\n      swap1\n        /* \"#utility.yul\":2523:2700   */\n      jump\n        /* \"contracts/AutomatedVaultController.sol\":1675:1712  _privateVaults[_i].shareToValue(1e18) */\n    tag_149:\n      0x20\n      mload(0x40)\n      dup1\n      dup4\n      sub\n      dup2\n      dup7\n      gas\n      staticcall\n      iszero\n      dup1\n      iszero\n      tag_151\n      jumpi\n      returndatasize\n      0x00\n      dup1\n      returndatacopy\n      revert(0x00, returndatasize)\n    tag_151:\n      pop\n      pop\n      pop\n      pop\n      mload(0x40)\n      returndatasize\n      not(0x1f)\n      0x1f\n      dup3\n      add\n      and\n      dup3\n      add\n      dup1\n      0x40\n      mstore\n      pop\n      dup2\n      add\n      swap1\n      tag_152\n      swap2\n      swap1\n      tag_106\n      jump\t// in\n    tag_152:\n      pop\n        /* \"contracts/AutomatedVaultController.sol\":1660:1664  _i++ */\n      dup1\n      tag_153\n      dup2\n      tag_143\n      jump\t// in\n    tag_153:\n      swap2\n      pop\n      pop\n        /* \"contracts/AutomatedVaultController.sol\":1615:1720  for (uint8 _i = 0; _i < _privateVaultLength; _i++) {... */\n      jump(tag_144)\n    tag_145:\n      pop\n        /* \"contracts/AutomatedVaultController.sol\":1743:1778  OwnableUpgradeable.__Ownable_init() */\n      tag_154\n        /* \"contracts/AutomatedVaultController.sol\":1743:1776  OwnableUpgradeable.__Ownable_init */\n      tag_155\n        /* \"contracts/AutomatedVaultController.sol\":1743:1778  OwnableUpgradeable.__Ownable_init() */\n      jump\t// in\n    tag_154:\n        /* \"contracts/AutomatedVaultController.sol\":1785:1807  creditors = _creditors */\n      dup5\n      mload\n      tag_156\n      swap1\n        /* \"contracts/AutomatedVaultController.sol\":1785:1794  creditors */\n      0x65\n      swap1\n        /* \"contracts/AutomatedVaultController.sol\":1785:1807  creditors = _creditors */\n      0x20\n      dup9\n      add\n      swap1\n      tag_108\n      jump\t// in\n    tag_156:\n      pop\n        /* \"contracts/AutomatedVaultController.sol\":1814:1844  privateVaults = _privateVaults */\n      dup4\n      mload\n      tag_158\n      swap1\n        /* \"contracts/AutomatedVaultController.sol\":1814:1827  privateVaults */\n      0x66\n      swap1\n        /* \"contracts/AutomatedVaultController.sol\":1814:1844  privateVaults = _privateVaults */\n      0x20\n      dup8\n      add\n      swap1\n      tag_108\n      jump\t// in\n    tag_158:\n      pop\n        /* \"contracts/AutomatedVaultController.sol\":1367:1850  {... */\n      pop\n      pop\n        /* \"@openzeppelin/contracts-upgradeable/proxy/utils/Initializable.sol\":3257:3271  isTopLevelCall */\n      dup1\n        /* \"@openzeppelin/contracts-upgradeable/proxy/utils/Initializable.sol\":3253:3352  if (isTopLevelCall) {... */\n      iszero\n      tag_159\n      jumpi\n        /* \"@openzeppelin/contracts-upgradeable/proxy/utils/Initializable.sol\":3303:3308  false */\n      0x00\n        /* \"@openzeppelin/contracts-upgradeable/proxy/utils/Initializable.sol\":3287:3308  _initializing = false */\n      dup1\n      sload\n      not(0xff00)\n      and\n      swap1\n      sstore\n        /* \"@openzeppelin/contracts-upgradeable/proxy/utils/Initializable.sol\":3327:3341  Initialized(1) */\n      mload(0x40)\n      0x01\n        /* \"#utility.yul\":8084:8120   */\n      dup2\n      mstore\n        /* \"@openzeppelin/contracts-upgradeable/proxy/utils/Initializable.sol\":3327:3341  Initialized(1) */\n      0x7f26b83ff96e1f2b6a682f133852f6798a09c465da95921460cefb3847402498\n      swap1\n        /* \"#utility.yul\":8072:8074   */\n      0x20\n        /* \"#utility.yul\":8057:8075   */\n      add\n        /* \"@openzeppelin/contracts-upgradeable/proxy/utils/Initializable.sol\":3327:3341  Initialized(1) */\n      mload(0x40)\n      dup1\n      swap2\n      sub\n      swap1\n      log1\n        /* \"@openzeppelin/contracts-upgradeable/proxy/utils/Initializable.sol\":3253:3352  if (isTopLevelCall) {... */\n    tag_159:\n        /* \"@openzeppelin/contracts-upgradeable/proxy/utils/Initializable.sol\":3101:3358  {... */\n      pop\n        /* \"contracts/AutomatedVaultController.sol\":1251:1850  function initialize(ICreditor[] memory _creditors, IDeltaNeutralVault[] memory _privateVaults) external initializer {... */\n      pop\n      pop\n      jump\t// out\n        /* \"contracts/AutomatedVaultController.sol\":2538:3002  function usedCredit(address _user) public view returns (uint256) {... */\n    tag_49:\n        /* \"contracts/AutomatedVaultController.sol\":2661:2674  privateVaults */\n      0x66\n        /* \"contracts/AutomatedVaultController.sol\":2661:2681  privateVaults.length */\n      sload\n        /* \"contracts/AutomatedVaultController.sol\":2594:2601  uint256 */\n      0x00\n      swap1\n      dup2\n      swap1\n      dup2\n        /* \"contracts/AutomatedVaultController.sol\":2688:2975  for (uint8 _i = 0; _i < _privateVaultLength; ) {... */\n    tag_163:\n        /* \"contracts/AutomatedVaultController.sol\":2712:2731  _privateVaultLength */\n      dup2\n        /* \"contracts/AutomatedVaultController.sol\":2707:2709  _i */\n      dup2\n        /* \"contracts/AutomatedVaultController.sol\":2707:2731  _i < _privateVaultLength */\n      0xff\n      and\n      lt\n        /* \"contracts/AutomatedVaultController.sol\":2688:2975  for (uint8 _i = 0; _i < _privateVaultLength; ) {... */\n      iszero\n      tag_164\n      jumpi\n      sub(shl(0xa0, 0x01), 0x01)\n        /* \"contracts/AutomatedVaultController.sol\":2761:2783  userVaultShares[_user] */\n      dup6\n      and\n        /* \"contracts/AutomatedVaultController.sol\":2744:2758  uint256 _share */\n      0x00\n        /* \"contracts/AutomatedVaultController.sol\":2761:2783  userVaultShares[_user] */\n      swap1\n      dup2\n      mstore\n        /* \"contracts/AutomatedVaultController.sol\":2761:2776  userVaultShares */\n      0x67\n        /* \"contracts/AutomatedVaultController.sol\":2761:2783  userVaultShares[_user] */\n      0x20\n      mstore\n      0x40\n      dup2\n      keccak256\n        /* \"contracts/AutomatedVaultController.sol\":2792:2805  privateVaults */\n      0x66\n        /* \"contracts/AutomatedVaultController.sol\":2792:2809  privateVaults[_i] */\n      dup1\n      sload\n        /* \"contracts/AutomatedVaultController.sol\":2744:2758  uint256 _share */\n      dup4\n      swap2\n        /* \"contracts/AutomatedVaultController.sol\":2792:2805  privateVaults */\n      swap1\n        /* \"contracts/AutomatedVaultController.sol\":2792:2809  privateVaults[_i] */\n      0xff\n      dup7\n      and\n      swap1\n      dup2\n      lt\n      tag_167\n      jumpi\n      tag_167\n      tag_100\n      jump\t// in\n    tag_167:\n      0x00\n      swap2\n      dup3\n      mstore\n      0x20\n      dup1\n      dup4\n      keccak256\n      swap1\n      swap2\n      add\n      sload\n      sub(shl(0xa0, 0x01), 0x01)\n      and\n        /* \"contracts/AutomatedVaultController.sol\":2761:2811  userVaultShares[_user][address(privateVaults[_i])] */\n      dup4\n      mstore\n      dup3\n      add\n      swap3\n      swap1\n      swap3\n      mstore\n      0x40\n      add\n      swap1\n      keccak256\n      sload\n      swap1\n      pop\n        /* \"contracts/AutomatedVaultController.sol\":2824:2835  _share != 0 */\n      dup1\n      iszero\n        /* \"contracts/AutomatedVaultController.sol\":2820:2885  if (_share != 0) _total += privateVaults[_i].shareToValue(_share) */\n      tag_169\n      jumpi\n        /* \"contracts/AutomatedVaultController.sol\":2847:2860  privateVaults */\n      0x66\n        /* \"contracts/AutomatedVaultController.sol\":2861:2863  _i */\n      dup3\n        /* \"contracts/AutomatedVaultController.sol\":2847:2864  privateVaults[_i] */\n      0xff\n      and\n      dup2\n      sload\n      dup2\n      lt\n      tag_171\n      jumpi\n      tag_171\n      tag_100\n      jump\t// in\n    tag_171:\n      0x00\n      swap2\n      dup3\n      mstore\n      0x20\n      swap1\n      swap2\n      keccak256\n      add\n      sload\n        /* \"contracts/AutomatedVaultController.sol\":2847:2885  privateVaults[_i].shareToValue(_share) */\n      mload(0x40)\n      shl(0xe0, 0x441130d5)\n      dup2\n      mstore\n      0x04\n      dup2\n      add\n        /* \"#utility.yul\":2669:2694   */\n      dup4\n      swap1\n      mstore\n      sub(shl(0xa0, 0x01), 0x01)\n        /* \"contracts/AutomatedVaultController.sol\":2847:2864  privateVaults[_i] */\n      swap1\n      swap2\n      and\n      swap1\n        /* \"contracts/AutomatedVaultController.sol\":2847:2877  privateVaults[_i].shareToValue */\n      0x441130d5\n      swap1\n        /* \"#utility.yul\":2642:2660   */\n      0x24\n      add\n        /* \"contracts/AutomatedVaultController.sol\":2847:2885  privateVaults[_i].shareToValue(_share) */\n      0x20\n      mload(0x40)\n      dup1\n      dup4\n      sub\n      dup2\n      dup7\n      gas\n      staticcall\n      iszero\n      dup1\n      iszero\n      tag_175\n      jumpi\n      returndatasize\n      0x00\n      dup1\n      returndatacopy\n      revert(0x00, returndatasize)\n    tag_175:\n      pop\n      pop\n      pop\n      pop\n      mload(0x40)\n      returndatasize\n      not(0x1f)\n      0x1f\n      dup3\n      add\n      and\n      dup3\n      add\n      dup1\n      0x40\n      mstore\n      pop\n      dup2\n      add\n      swap1\n      tag_176\n      swap2\n      swap1\n      tag_106\n      jump\t// in\n    tag_176:\n        /* \"contracts/AutomatedVaultController.sol\":2837:2885  _total += privateVaults[_i].shareToValue(_share) */\n      tag_177\n      swap1\n      dup6\n      tag_86\n      jump\t// in\n    tag_177:\n      swap4\n      pop\n        /* \"contracts/AutomatedVaultController.sol\":2820:2885  if (_share != 0) _total += privateVaults[_i].shareToValue(_share) */\n    tag_169:\n      pop\n        /* \"contracts/AutomatedVaultController.sol\":2954:2958  _i++ */\n      0x01\n      add\n        /* \"contracts/AutomatedVaultController.sol\":2688:2975  for (uint8 _i = 0; _i < _privateVaultLength; ) {... */\n      jump(tag_163)\n    tag_164:\n      pop\n        /* \"contracts/AutomatedVaultController.sol\":2990:2996  _total */\n      swap1\n      swap4\n        /* \"contracts/AutomatedVaultController.sol\":2538:3002  function usedCredit(address _user) public view returns (uint256) {... */\n      swap3\n      pop\n      pop\n      pop\n      jump\t// out\n        /* \"contracts/AutomatedVaultController.sol\":931:972  IDeltaNeutralVault[] public privateVaults */\n    tag_53:\n      0x66\n      dup2\n      dup2\n      sload\n      dup2\n      lt\n      tag_126\n      jumpi\n      0x00\n      dup1\n      revert\n        /* \"contracts/AutomatedVaultController.sol\":5049:5285  function onWithdraw(address _user, uint256 _shareAmount) external {... */\n    tag_71:\n      sub(shl(0xa0, 0x01), 0x01)\n        /* \"contracts/AutomatedVaultController.sol\":5159:5181  userVaultShares[_user] */\n      dup3\n      and\n      0x00\n      swap1\n      dup2\n      mstore\n        /* \"contracts/AutomatedVaultController.sol\":5159:5174  userVaultShares */\n      0x67\n        /* \"contracts/AutomatedVaultController.sol\":5159:5181  userVaultShares[_user] */\n      0x20\n      swap1\n      dup2\n      mstore\n      0x40\n      dup1\n      dup4\n      keccak256\n        /* \"contracts/AutomatedVaultController.sol\":5182:5192  msg.sender */\n      caller\n        /* \"contracts/AutomatedVaultController.sol\":5159:5193  userVaultShares[_user][msg.sender] */\n      dup5\n      mstore\n      swap1\n      swap2\n      mstore\n      swap1\n      keccak256\n      sload\n        /* \"contracts/AutomatedVaultController.sol\":5159:5209  userVaultShares[_user][msg.sender] <= _shareAmount */\n      dup2\n      lt\n      iszero\n        /* \"contracts/AutomatedVaultController.sol\":5159:5279  userVaultShares[_user][msg.sender] <= _shareAmount... */\n      tag_183\n      jumpi\n      sub(shl(0xa0, 0x01), 0x01)\n        /* \"contracts/AutomatedVaultController.sol\":5230:5252  userVaultShares[_user] */\n      dup3\n      and\n      0x00\n      swap1\n      dup2\n      mstore\n        /* \"contracts/AutomatedVaultController.sol\":5230:5245  userVaultShares */\n      0x67\n        /* \"contracts/AutomatedVaultController.sol\":5230:5252  userVaultShares[_user] */\n      0x20\n      swap1\n      dup2\n      mstore\n      0x40\n      dup1\n      dup4\n      keccak256\n        /* \"contracts/AutomatedVaultController.sol\":5253:5263  msg.sender */\n      caller\n        /* \"contracts/AutomatedVaultController.sol\":5230:5264  userVaultShares[_user][msg.sender] */\n      dup5\n      mstore\n      swap1\n      swap2\n      mstore\n      swap1\n      keccak256\n      sload\n        /* \"contracts/AutomatedVaultController.sol\":5230:5279  userVaultShares[_user][msg.sender] - _shareAmount */\n      tag_184\n      swap1\n        /* \"contracts/AutomatedVaultController.sol\":5267:5279  _shareAmount */\n      dup3\n      swap1\n        /* \"contracts/AutomatedVaultController.sol\":5230:5279  userVaultShares[_user][msg.sender] - _shareAmount */\n      tag_117\n      jump\t// in\n    tag_184:\n        /* \"contracts/AutomatedVaultController.sol\":5159:5279  userVaultShares[_user][msg.sender] <= _shareAmount... */\n      jump(tag_185)\n    tag_183:\n        /* \"contracts/AutomatedVaultController.sol\":5219:5220  0 */\n      0x00\n        /* \"contracts/AutomatedVaultController.sol\":5159:5279  userVaultShares[_user][msg.sender] <= _shareAmount... */\n    tag_185:\n      sub(shl(0xa0, 0x01), 0x01)\n        /* \"contracts/AutomatedVaultController.sol\":5122:5144  userVaultShares[_user] */\n      swap1\n      swap3\n      and\n      0x00\n      swap1\n      dup2\n      mstore\n        /* \"contracts/AutomatedVaultController.sol\":5122:5137  userVaultShares */\n      0x67\n        /* \"contracts/AutomatedVaultController.sol\":5122:5144  userVaultShares[_user] */\n      0x20\n      swap1\n      dup2\n      mstore\n      0x40\n      dup1\n      dup4\n      keccak256\n        /* \"contracts/AutomatedVaultController.sol\":5145:5155  msg.sender */\n      caller\n        /* \"contracts/AutomatedVaultController.sol\":5122:5156  userVaultShares[_user][msg.sender] */\n      dup5\n      mstore\n      swap1\n      swap2\n      mstore\n      swap1\n      keccak256\n        /* \"contracts/AutomatedVaultController.sol\":5122:5279  userVaultShares[_user][msg.sender] = userVaultShares[_user][msg.sender] <= _shareAmount... */\n      swap2\n      swap1\n      swap2\n      sstore\n      pop\n        /* \"contracts/AutomatedVaultController.sol\":5049:5285  function onWithdraw(address _user, uint256 _shareAmount) external {... */\n      jump\t// out\n        /* \"contracts/AutomatedVaultController.sol\":4075:4532  function setCreditors(ICreditor[] memory _newCreditors) external onlyOwner {... */\n    tag_75:\n        /* \"@openzeppelin/contracts-upgradeable/access/OwnableUpgradeable.sol\":1348:1354  _owner */\n      and(sub(shl(0xa0, 0x01), 0x01), sload(0x33))\n        /* \"@openzeppelin/contracts-upgradeable/utils/ContextUpgradeable.sol\":929:939  msg.sender */\n      caller\n        /* \"@openzeppelin/contracts-upgradeable/access/OwnableUpgradeable.sol\":1488:1511  owner() == _msgSender() */\n      eq\n        /* \"@openzeppelin/contracts-upgradeable/access/OwnableUpgradeable.sol\":1480:1548  require(owner() == _msgSender(), \"Ownable: caller is not the owner\") */\n      tag_189\n      jumpi\n      mload(0x40)\n      shl(0xe5, 0x461bcd)\n      dup2\n      mstore\n      0x04\n      add\n      tag_92\n      swap1\n      tag_93\n      jump\t// in\n    tag_189:\n        /* \"contracts/AutomatedVaultController.sol\":4207:4227  _newCreditors.length */\n      dup1\n      mload\n        /* \"contracts/AutomatedVaultController.sol\":4178:4204  uint256 _newCreditorLength */\n      0x00\n        /* \"contracts/AutomatedVaultController.sol\":4234:4422  for (uint8 _i = 0; _i < _newCreditorLength; ) {... */\n    tag_192:\n        /* \"contracts/AutomatedVaultController.sol\":4258:4276  _newCreditorLength */\n      dup2\n        /* \"contracts/AutomatedVaultController.sol\":4253:4255  _i */\n      dup2\n        /* \"contracts/AutomatedVaultController.sol\":4253:4276  _i < _newCreditorLength */\n      0xff\n      and\n      lt\n        /* \"contracts/AutomatedVaultController.sol\":4234:4422  for (uint8 _i = 0; _i < _newCreditorLength; ) {... */\n      iszero\n      tag_193\n      jumpi\n        /* \"contracts/AutomatedVaultController.sol\":4289:4302  _newCreditors */\n      dup3\n        /* \"contracts/AutomatedVaultController.sol\":4303:4305  _i */\n      dup2\n        /* \"contracts/AutomatedVaultController.sol\":4289:4306  _newCreditors[_i] */\n      0xff\n      and\n      dup2\n      mload\n      dup2\n      lt\n      tag_196\n      jumpi\n      tag_196\n      tag_100\n      jump\t// in\n    tag_196:\n      0x20\n      swap1\n      dup2\n      mul\n      swap2\n      swap1\n      swap2\n      add\n      add\n      mload\n        /* \"contracts/AutomatedVaultController.sol\":4289:4332  _newCreditors[_i].getUserCredit(address(0)) */\n      mload(0x40)\n      shl(0xe2, 0x36b5bc37)\n      dup2\n      mstore\n        /* \"contracts/AutomatedVaultController.sol\":4329:4330  0 */\n      0x00\n        /* \"contracts/AutomatedVaultController.sol\":4289:4332  _newCreditors[_i].getUserCredit(address(0)) */\n      0x04\n      dup3\n      add\n        /* \"#utility.yul\":3053:3104   */\n      mstore\n      sub(shl(0xa0, 0x01), 0x01)\n        /* \"contracts/AutomatedVaultController.sol\":4289:4320  _newCreditors[_i].getUserCredit */\n      swap1\n      swap2\n      and\n      swap1\n      0xdad6f0dc\n      swap1\n        /* \"#utility.yul\":3026:3044   */\n      0x24\n      add\n        /* \"contracts/AutomatedVaultController.sol\":4289:4332  _newCreditors[_i].getUserCredit(address(0)) */\n      0x20\n      mload(0x40)\n      dup1\n      dup4\n      sub\n      dup2\n      dup7\n      gas\n      staticcall\n      iszero\n      dup1\n      iszero\n      tag_199\n      jumpi\n      returndatasize\n      0x00\n      dup1\n      returndatacopy\n      revert(0x00, returndatasize)\n    tag_199:\n      pop\n      pop\n      pop\n      pop\n      mload(0x40)\n      returndatasize\n      not(0x1f)\n      0x1f\n      dup3\n      add\n      and\n      dup3\n      add\n      dup1\n      0x40\n      mstore\n      pop\n      dup2\n      add\n      swap1\n      tag_200\n      swap2\n      swap1\n      tag_106\n      jump\t// in\n    tag_200:\n      pop\n        /* \"contracts/AutomatedVaultController.sol\":4401:4405  _i++ */\n      0x01\n      add\n        /* \"contracts/AutomatedVaultController.sol\":4234:4422  for (uint8 _i = 0; _i < _newCreditorLength; ) {... */\n      jump(tag_192)\n    tag_193:\n      pop\n        /* \"contracts/AutomatedVaultController.sol\":4445:4470  creditors = _newCreditors */\n      dup2\n      mload\n      tag_201\n      swap1\n        /* \"contracts/AutomatedVaultController.sol\":4445:4454  creditors */\n      0x65\n      swap1\n        /* \"contracts/AutomatedVaultController.sol\":4445:4470  creditors = _newCreditors */\n      0x20\n      dup6\n      add\n      swap1\n      tag_108\n      jump\t// in\n    tag_201:\n      pop\n        /* \"contracts/AutomatedVaultController.sol\":4500:4510  msg.sender */\n      caller\n      sub(shl(0xa0, 0x01), 0x01)\n        /* \"contracts/AutomatedVaultController.sol\":4484:4526  LogSetCreditors(msg.sender, _newCreditors) */\n      and\n      0xe1c8f0c34d1ebb59573a7f5d542c350a1762869a702dd1ecea79c1dc6b44d865\n        /* \"contracts/AutomatedVaultController.sol\":4512:4525  _newCreditors */\n      dup4\n        /* \"contracts/AutomatedVaultController.sol\":4484:4526  LogSetCreditors(msg.sender, _newCreditors) */\n      mload(0x40)\n      tag_109\n      swap2\n      swap1\n      tag_110\n      jump\t// in\n        /* \"contracts/AutomatedVaultController.sol\":1988:2350  function totalCredit(address _user) public view returns (uint256) {... */\n    tag_78:\n        /* \"contracts/AutomatedVaultController.sol\":2108:2117  creditors */\n      0x65\n        /* \"contracts/AutomatedVaultController.sol\":2108:2124  creditors.length */\n      sload\n        /* \"contracts/AutomatedVaultController.sol\":2045:2052  uint256 */\n      0x00\n      swap1\n      dup2\n      swap1\n      dup2\n        /* \"contracts/AutomatedVaultController.sol\":2131:2325  for (uint8 _i = 0; _i < _creditorLength; ) {... */\n    tag_205:\n        /* \"contracts/AutomatedVaultController.sol\":2155:2170  _creditorLength */\n      dup2\n        /* \"contracts/AutomatedVaultController.sol\":2150:2152  _i */\n      dup2\n        /* \"contracts/AutomatedVaultController.sol\":2150:2170  _i < _creditorLength */\n      0xff\n      and\n      lt\n        /* \"contracts/AutomatedVaultController.sol\":2131:2325  for (uint8 _i = 0; _i < _creditorLength; ) {... */\n      iszero\n      tag_164\n      jumpi\n        /* \"contracts/AutomatedVaultController.sol\":2201:2210  creditors */\n      0x65\n        /* \"contracts/AutomatedVaultController.sol\":2211:2213  _i */\n      dup2\n        /* \"contracts/AutomatedVaultController.sol\":2201:2214  creditors[_i] */\n      0xff\n      and\n      dup2\n      sload\n      dup2\n      lt\n      tag_209\n      jumpi\n      tag_209\n      tag_100\n      jump\t// in\n    tag_209:\n      0x00\n      swap2\n      dup3\n      mstore\n      0x20\n      swap1\n      swap2\n      keccak256\n      add\n      sload\n        /* \"contracts/AutomatedVaultController.sol\":2201:2235  creditors[_i].getUserCredit(_user) */\n      mload(0x40)\n      shl(0xe2, 0x36b5bc37)\n      dup2\n      mstore\n      sub(shl(0xa0, 0x01), 0x01)\n        /* \"#utility.yul\":3071:3103   */\n      dup8\n      dup2\n      and\n        /* \"contracts/AutomatedVaultController.sol\":2201:2235  creditors[_i].getUserCredit(_user) */\n      0x04\n      dup4\n      add\n        /* \"#utility.yul\":3053:3104   */\n      mstore\n        /* \"contracts/AutomatedVaultController.sol\":2201:2214  creditors[_i] */\n      swap1\n      swap2\n      and\n      swap1\n        /* \"contracts/AutomatedVaultController.sol\":2201:2228  creditors[_i].getUserCredit */\n      0xdad6f0dc\n      swap1\n        /* \"#utility.yul\":3026:3044   */\n      0x24\n      add\n        /* \"contracts/AutomatedVaultController.sol\":2201:2235  creditors[_i].getUserCredit(_user) */\n      0x20\n      mload(0x40)\n      dup1\n      dup4\n      sub\n      dup2\n      dup7\n      gas\n      staticcall\n      iszero\n      dup1\n      iszero\n      tag_213\n      jumpi\n      returndatasize\n      0x00\n      dup1\n      returndatacopy\n      revert(0x00, returndatasize)\n    tag_213:\n      pop\n      pop\n      pop\n      pop\n      mload(0x40)\n      returndatasize\n      not(0x1f)\n      0x1f\n      dup3\n      add\n      and\n      dup3\n      add\n      dup1\n      0x40\n      mstore\n      pop\n      dup2\n      add\n      swap1\n      tag_214\n      swap2\n      swap1\n      tag_106\n      jump\t// in\n    tag_214:\n        /* \"contracts/AutomatedVaultController.sol\":2192:2235  _total + creditors[_i].getUserCredit(_user) */\n      tag_215\n      swap1\n        /* \"contracts/AutomatedVaultController.sol\":2192:2198  _total */\n      dup5\n        /* \"contracts/AutomatedVaultController.sol\":2192:2235  _total + creditors[_i].getUserCredit(_user) */\n      tag_86\n      jump\t// in\n    tag_215:\n        /* \"contracts/AutomatedVaultController.sol\":2183:2235  _total = _total + creditors[_i].getUserCredit(_user) */\n      swap3\n      pop\n        /* \"contracts/AutomatedVaultController.sol\":2304:2308  _i++ */\n      0x01\n      add\n        /* \"contracts/AutomatedVaultController.sol\":2131:2325  for (uint8 _i = 0; _i < _creditorLength; ) {... */\n      jump(tag_205)\n        /* \"@openzeppelin/contracts-upgradeable/access/OwnableUpgradeable.sol\":2158:2356  function transferOwnership(address newOwner) public virtual onlyOwner {... */\n    tag_82:\n        /* \"@openzeppelin/contracts-upgradeable/access/OwnableUpgradeable.sol\":1348:1354  _owner */\n      and(sub(shl(0xa0, 0x01), 0x01), sload(0x33))\n        /* \"@openzeppelin/contracts-upgradeable/utils/ContextUpgradeable.sol\":929:939  msg.sender */\n      caller\n        /* \"@openzeppelin/contracts-upgradeable/access/OwnableUpgradeable.sol\":1488:1511  owner() == _msgSender() */\n      eq\n        /* \"@openzeppelin/contracts-upgradeable/access/OwnableUpgradeable.sol\":1480:1548  require(owner() == _msgSender(), \"Ownable: caller is not the owner\") */\n      tag_219\n      jumpi\n      mload(0x40)\n      shl(0xe5, 0x461bcd)\n      dup2\n      mstore\n      0x04\n      add\n      tag_92\n      swap1\n      tag_93\n      jump\t// in\n    tag_219:\n      sub(shl(0xa0, 0x01), 0x01)\n        /* \"@openzeppelin/contracts-upgradeable/access/OwnableUpgradeable.sol\":2246:2268  newOwner != address(0) */\n      dup2\n      and\n        /* \"@openzeppelin/contracts-upgradeable/access/OwnableUpgradeable.sol\":2238:2311  require(newOwner != address(0), \"Ownable: new owner is the zero address\") */\n      tag_222\n      jumpi\n      mload(0x40)\n      shl(0xe5, 0x461bcd)\n      dup2\n      mstore\n        /* \"#utility.yul\":9013:9015   */\n      0x20\n        /* \"@openzeppelin/contracts-upgradeable/access/OwnableUpgradeable.sol\":2238:2311  require(newOwner != address(0), \"Ownable: new owner is the zero address\") */\n      0x04\n      dup3\n      add\n        /* \"#utility.yul\":8995:9016   */\n      mstore\n        /* \"#utility.yul\":9052:9054   */\n      0x26\n        /* \"#utility.yul\":9032:9050   */\n      0x24\n      dup3\n      add\n        /* \"#utility.yul\":9025:9055   */\n      mstore\n        /* \"#utility.yul\":9091:9125   */\n      0x4f776e61626c653a206e6577206f776e657220697320746865207a65726f2061\n        /* \"#utility.yul\":9071:9089   */\n      0x44\n      dup3\n      add\n        /* \"#utility.yul\":9064:9126   */\n      mstore\n      shl(0xd0, 0x646472657373)\n        /* \"#utility.yul\":9142:9160   */\n      0x64\n      dup3\n      add\n        /* \"#utility.yul\":9135:9171   */\n      mstore\n        /* \"#utility.yul\":9188:9207   */\n      0x84\n      add\n        /* \"@openzeppelin/contracts-upgradeable/access/OwnableUpgradeable.sol\":2238:2311  require(newOwner != address(0), \"Ownable: new owner is the zero address\") */\n      tag_92\n        /* \"#utility.yul\":8811:9213   */\n      jump\n        /* \"@openzeppelin/contracts-upgradeable/access/OwnableUpgradeable.sol\":2238:2311  require(newOwner != address(0), \"Ownable: new owner is the zero address\") */\n    tag_222:\n        /* \"@openzeppelin/contracts-upgradeable/access/OwnableUpgradeable.sol\":2321:2349  _transferOwnership(newOwner) */\n      tag_225\n        /* \"@openzeppelin/contracts-upgradeable/access/OwnableUpgradeable.sol\":2340:2348  newOwner */\n      dup2\n        /* \"@openzeppelin/contracts-upgradeable/access/OwnableUpgradeable.sol\":2321:2339  _transferOwnership */\n      tag_125\n        /* \"@openzeppelin/contracts-upgradeable/access/OwnableUpgradeable.sol\":2321:2349  _transferOwnership(newOwner) */\n      jump\t// in\n    tag_225:\n        /* \"@openzeppelin/contracts-upgradeable/access/OwnableUpgradeable.sol\":2158:2356  function transferOwnership(address newOwner) public virtual onlyOwner {... */\n      pop\n      jump\t// out\n        /* \"@openzeppelin/contracts-upgradeable/utils/AddressUpgradeable.sol\":1186:1506  function isContract(address account) internal view returns (bool) {... */\n    tag_83:\n      sub(shl(0xa0, 0x01), 0x01)\n        /* \"@openzeppelin/contracts-upgradeable/utils/AddressUpgradeable.sol\":1476:1495  account.code.length */\n      and\n      extcodesize\n        /* \"@openzeppelin/contracts-upgradeable/utils/AddressUpgradeable.sol\":1476:1499  account.code.length > 0 */\n      iszero\n      iszero\n      swap1\n        /* \"@openzeppelin/contracts-upgradeable/utils/AddressUpgradeable.sol\":1186:1506  function isContract(address account) internal view returns (bool) {... */\n      jump\t// out\n        /* \"@openzeppelin/contracts-upgradeable/access/OwnableUpgradeable.sol\":2510:2697  function _transferOwnership(address newOwner) internal virtual {... */\n    tag_125:\n        /* \"@openzeppelin/contracts-upgradeable/access/OwnableUpgradeable.sol\":2602:2608  _owner */\n      0x33\n      dup1\n      sload\n      sub(shl(0xa0, 0x01), 0x01)\n        /* \"@openzeppelin/contracts-upgradeable/access/OwnableUpgradeable.sol\":2618:2635  _owner = newOwner */\n      dup4\n      dup2\n      and\n      not(sub(shl(0xa0, 0x01), 0x01))\n      dup4\n      and\n      dup2\n      or\n      swap1\n      swap4\n      sstore\n        /* \"@openzeppelin/contracts-upgradeable/access/OwnableUpgradeable.sol\":2650:2690  OwnershipTransferred(oldOwner, newOwner) */\n      mload(0x40)\n        /* \"@openzeppelin/contracts-upgradeable/access/OwnableUpgradeable.sol\":2602:2608  _owner */\n      swap2\n      and\n      swap2\n        /* \"@openzeppelin/contracts-upgradeable/access/OwnableUpgradeable.sol\":2618:2635  _owner = newOwner */\n      swap1\n        /* \"@openzeppelin/contracts-upgradeable/access/OwnableUpgradeable.sol\":2602:2608  _owner */\n      dup3\n      swap1\n        /* \"@openzeppelin/contracts-upgradeable/access/OwnableUpgradeable.sol\":2650:2690  OwnershipTransferred(oldOwner, newOwner) */\n      0x8be0079c531659141344cd1fd0a4f28419497f9722a3daafe3b4186f6b6457e0\n      swap1\n        /* \"@openzeppelin/contracts-upgradeable/access/OwnableUpgradeable.sol\":2583:2599  address oldOwner */\n      0x00\n      swap1\n        /* \"@openzeppelin/contracts-upgradeable/access/OwnableUpgradeable.sol\":2650:2690  OwnershipTransferred(oldOwner, newOwner) */\n      log3\n        /* \"@openzeppelin/contracts-upgradeable/access/OwnableUpgradeable.sol\":2573:2697  {... */\n      pop\n        /* \"@openzeppelin/contracts-upgradeable/access/OwnableUpgradeable.sol\":2510:2697  function _transferOwnership(address newOwner) internal virtual {... */\n      pop\n      jump\t// out\n        /* \"@openzeppelin/contracts-upgradeable/proxy/utils/Initializable.sol\":5287:6095  function _setInitializedVersion(uint8 version) private returns (bool) {... */\n    tag_130:\n        /* \"@openzeppelin/contracts-upgradeable/proxy/utils/Initializable.sol\":5351:5355  bool */\n      0x00\n        /* \"@openzeppelin/contracts-upgradeable/proxy/utils/Initializable.sol\":5684:5697  _initializing */\n      dup1\n      sload\n      0x0100\n      swap1\n      div\n      0xff\n      and\n        /* \"@openzeppelin/contracts-upgradeable/proxy/utils/Initializable.sol\":5680:6089  if (_initializing) {... */\n      iszero\n      tag_230\n      jumpi\n        /* \"@openzeppelin/contracts-upgradeable/proxy/utils/Initializable.sol\":5738:5745  version */\n      dup2\n        /* \"@openzeppelin/contracts-upgradeable/proxy/utils/Initializable.sol\":5738:5750  version == 1 */\n      0xff\n      and\n        /* \"@openzeppelin/contracts-upgradeable/proxy/utils/Initializable.sol\":5749:5750  1 */\n      0x01\n        /* \"@openzeppelin/contracts-upgradeable/proxy/utils/Initializable.sol\":5738:5750  version == 1 */\n      eq\n        /* \"@openzeppelin/contracts-upgradeable/proxy/utils/Initializable.sol\":5738:5799  version == 1 && !AddressUpgradeable.isContract(address(this)) */\n      dup1\n      iszero\n      tag_231\n      jumpi\n      pop\n        /* \"@openzeppelin/contracts-upgradeable/proxy/utils/Initializable.sol\":5793:5797  this */\n      address\n        /* \"@openzeppelin/contracts-upgradeable/utils/AddressUpgradeable.sol\":1476:1495  account.code.length */\n      extcodesize\n        /* \"@openzeppelin/contracts-upgradeable/utils/AddressUpgradeable.sol\":1476:1499  account.code.length > 0 */\n      iszero\n        /* \"@openzeppelin/contracts-upgradeable/proxy/utils/Initializable.sol\":5738:5799  version == 1 && !AddressUpgradeable.isContract(address(this)) */\n    tag_231:\n        /* \"@openzeppelin/contracts-upgradeable/proxy/utils/Initializable.sol\":5713:5879  require(... */\n      tag_233\n      jumpi\n      mload(0x40)\n      shl(0xe5, 0x461bcd)\n      dup2\n      mstore\n      0x04\n      add\n      tag_92\n      swap1\n      tag_235\n      jump\t// in\n    tag_233:\n      pop\n        /* \"@openzeppelin/contracts-upgradeable/proxy/utils/Initializable.sol\":5900:5905  false */\n      0x00\n      swap2\n        /* \"@openzeppelin/contracts-upgradeable/proxy/utils/Initializable.sol\":5287:6095  function _setInitializedVersion(uint8 version) private returns (bool) {... */\n      swap1\n      pop\n      jump\t// out\n        /* \"@openzeppelin/contracts-upgradeable/proxy/utils/Initializable.sol\":5680:6089  if (_initializing) {... */\n    tag_230:\n        /* \"@openzeppelin/contracts-upgradeable/proxy/utils/Initializable.sol\":5944:5956  _initialized */\n      sload(0x00)\n        /* \"@openzeppelin/contracts-upgradeable/proxy/utils/Initializable.sol\":5944:5966  _initialized < version */\n      0xff\n      dup1\n      dup5\n      and\n        /* \"@openzeppelin/contracts-upgradeable/proxy/utils/Initializable.sol\":5944:5956  _initialized */\n      swap2\n      and\n        /* \"@openzeppelin/contracts-upgradeable/proxy/utils/Initializable.sol\":5944:5966  _initialized < version */\n      lt\n        /* \"@openzeppelin/contracts-upgradeable/proxy/utils/Initializable.sol\":5936:6017  require(_initialized < version, \"Initializable: contract is already initialized\") */\n      tag_237\n      jumpi\n      mload(0x40)\n      shl(0xe5, 0x461bcd)\n      dup2\n      mstore\n      0x04\n      add\n      tag_92\n      swap1\n      tag_235\n      jump\t// in\n    tag_237:\n      pop\n        /* \"@openzeppelin/contracts-upgradeable/proxy/utils/Initializable.sol\":6031:6043  _initialized */\n      0x00\n        /* \"@openzeppelin/contracts-upgradeable/proxy/utils/Initializable.sol\":6031:6053  _initialized = version */\n      dup1\n      sload\n      not(0xff)\n      and\n      0xff\n      swap3\n      swap1\n      swap3\n      and\n      swap2\n      swap1\n      swap2\n      or\n      swap1\n      sstore\n      0x01\n      swap1\n        /* \"@openzeppelin/contracts-upgradeable/proxy/utils/Initializable.sol\":5287:6095  function _setInitializedVersion(uint8 version) private returns (bool) {... */\n      jump\t// out\n        /* \"@openzeppelin/contracts-upgradeable/access/OwnableUpgradeable.sol\":988:1083  function __Ownable_init() internal onlyInitializing {... */\n    tag_155:\n        /* \"@openzeppelin/contracts-upgradeable/proxy/utils/Initializable.sol\":4698:4711  _initializing */\n      sload(0x00)\n      0x0100\n      swap1\n      div\n      0xff\n      and\n        /* \"@openzeppelin/contracts-upgradeable/proxy/utils/Initializable.sol\":4690:4759  require(_initializing, \"Initializable: contract is not initializing\") */\n      tag_240\n      jumpi\n      mload(0x40)\n      shl(0xe5, 0x461bcd)\n      dup2\n      mstore\n      0x04\n      add\n      tag_92\n      swap1\n      tag_242\n      jump\t// in\n    tag_240:\n        /* \"@openzeppelin/contracts-upgradeable/access/OwnableUpgradeable.sol\":1050:1076  __Ownable_init_unchained() */\n      tag_124\n        /* \"@openzeppelin/contracts-upgradeable/proxy/utils/Initializable.sol\":4698:4711  _initializing */\n      sload(0x00)\n      0x0100\n      swap1\n      div\n      0xff\n      and\n        /* \"@openzeppelin/contracts-upgradeable/proxy/utils/Initializable.sol\":4690:4759  require(_initializing, \"Initializable: contract is not initializing\") */\n      tag_247\n      jumpi\n      mload(0x40)\n      shl(0xe5, 0x461bcd)\n      dup2\n      mstore\n      0x04\n      add\n      tag_92\n      swap1\n      tag_242\n      jump\t// in\n    tag_247:\n        /* \"@openzeppelin/contracts-upgradeable/access/OwnableUpgradeable.sol\":1161:1193  _transferOwnership(_msgSender()) */\n      tag_124\n        /* \"@openzeppelin/contracts-upgradeable/utils/ContextUpgradeable.sol\":929:939  msg.sender */\n      caller\n        /* \"@openzeppelin/contracts-upgradeable/access/OwnableUpgradeable.sol\":1161:1179  _transferOwnership */\n      tag_125\n        /* \"@openzeppelin/contracts-upgradeable/access/OwnableUpgradeable.sol\":1161:1193  _transferOwnership(_msgSender()) */\n      jump\t// in\n    tag_108:\n      dup3\n      dup1\n      sload\n      dup3\n      dup3\n      sstore\n      swap1\n      0x00\n      mstore\n      keccak256(0x00, 0x20)\n      swap1\n      dup2\n      add\n      swap3\n      dup3\n      iszero\n      tag_254\n      jumpi\n      swap2\n      0x20\n      mul\n      dup3\n      add\n    tag_253:\n      dup3\n      dup2\n      gt\n      iszero\n      tag_254\n      jumpi\n      dup3\n      mload\n      dup3\n      sload\n      not(sub(shl(0xa0, 0x01), 0x01))\n      and\n      sub(shl(0xa0, 0x01), 0x01)\n      swap1\n      swap2\n      and\n      or\n      dup3\n      sstore\n      0x20\n      swap1\n      swap3\n      add\n      swap2\n      0x01\n      swap1\n      swap2\n      add\n      swap1\n      jump(tag_253)\n    tag_254:\n      pop\n      tag_255\n      swap3\n      swap2\n      pop\n      tag_256\n      jump\t// in\n    tag_255:\n      pop\n      swap1\n      jump\t// out\n    tag_256:\n    tag_261:\n      dup1\n      dup3\n      gt\n      iszero\n      tag_255\n      jumpi\n      0x00\n      dup2\n      sstore\n      0x01\n      add\n      jump(tag_261)\n        /* \"#utility.yul\":14:145   */\n    tag_263:\n      sub(shl(0xa0, 0x01), 0x01)\n        /* \"#utility.yul\":89:120   */\n      dup2\n      and\n        /* \"#utility.yul\":79:121   */\n      dup2\n      eq\n        /* \"#utility.yul\":69:139   */\n      tag_225\n      jumpi\n        /* \"#utility.yul\":135:136   */\n      0x00\n        /* \"#utility.yul\":132:133   */\n      dup1\n        /* \"#utility.yul\":125:137   */\n      revert\n        /* \"#utility.yul\":150:465   */\n    tag_23:\n        /* \"#utility.yul\":218:224   */\n      0x00\n        /* \"#utility.yul\":226:232   */\n      dup1\n        /* \"#utility.yul\":279:281   */\n      0x40\n        /* \"#utility.yul\":267:276   */\n      dup4\n        /* \"#utility.yul\":258:265   */\n      dup6\n        /* \"#utility.yul\":254:277   */\n      sub\n        /* \"#utility.yul\":250:282   */\n      slt\n        /* \"#utility.yul\":247:299   */\n      iszero\n      tag_274\n      jumpi\n        /* \"#utility.yul\":295:296   */\n      0x00\n        /* \"#utility.yul\":292:293   */\n      dup1\n        /* \"#utility.yul\":285:297   */\n      revert\n        /* \"#utility.yul\":247:299   */\n    tag_274:\n        /* \"#utility.yul\":334:343   */\n      dup3\n        /* \"#utility.yul\":321:344   */\n      calldataload\n        /* \"#utility.yul\":353:384   */\n      tag_275\n        /* \"#utility.yul\":378:383   */\n      dup2\n        /* \"#utility.yul\":353:384   */\n      tag_263\n      jump\t// in\n    tag_275:\n        /* \"#utility.yul\":403:408   */\n      swap5\n        /* \"#utility.yul\":455:457   */\n      0x20\n        /* \"#utility.yul\":440:458   */\n      swap4\n      swap1\n      swap4\n      add\n        /* \"#utility.yul\":427:459   */\n      calldataload\n      swap4\n      pop\n      pop\n      pop\n        /* \"#utility.yul\":150:465   */\n      jump\t// out\n        /* \"#utility.yul\":470:597   */\n    tag_264:\n        /* \"#utility.yul\":531:541   */\n      0x4e487b71\n        /* \"#utility.yul\":526:529   */\n      0xe0\n        /* \"#utility.yul\":522:542   */\n      shl\n        /* \"#utility.yul\":519:520   */\n      0x00\n        /* \"#utility.yul\":512:543   */\n      mstore\n        /* \"#utility.yul\":562:566   */\n      0x41\n        /* \"#utility.yul\":559:560   */\n      0x04\n        /* \"#utility.yul\":552:567   */\n      mstore\n        /* \"#utility.yul\":586:590   */\n      0x24\n        /* \"#utility.yul\":583:584   */\n      0x00\n        /* \"#utility.yul\":576:591   */\n      revert\n        /* \"#utility.yul\":602:877   */\n    tag_265:\n        /* \"#utility.yul\":673:675   */\n      0x40\n        /* \"#utility.yul\":667:676   */\n      mload\n        /* \"#utility.yul\":738:740   */\n      0x1f\n        /* \"#utility.yul\":719:732   */\n      dup3\n      add\n      not(0x1f)\n        /* \"#utility.yul\":715:742   */\n      and\n        /* \"#utility.yul\":703:743   */\n      dup2\n      add\n        /* \"#utility.yul\":773:791   */\n      0xffffffffffffffff\n        /* \"#utility.yul\":758:792   */\n      dup2\n      gt\n        /* \"#utility.yul\":794:816   */\n      dup3\n      dup3\n      lt\n        /* \"#utility.yul\":755:817   */\n      or\n        /* \"#utility.yul\":752:840   */\n      iszero\n      tag_279\n      jumpi\n        /* \"#utility.yul\":820:838   */\n      tag_279\n      tag_264\n      jump\t// in\n    tag_279:\n        /* \"#utility.yul\":856:858   */\n      0x40\n        /* \"#utility.yul\":849:871   */\n      mstore\n        /* \"#utility.yul\":602:877   */\n      swap2\n      swap1\n      pop\n      jump\t// out\n        /* \"#utility.yul\":882:1085   */\n    tag_266:\n        /* \"#utility.yul\":962:966   */\n      0x00\n        /* \"#utility.yul\":995:1013   */\n      0xffffffffffffffff\n        /* \"#utility.yul\":987:993   */\n      dup3\n        /* \"#utility.yul\":984:1014   */\n      gt\n        /* \"#utility.yul\":981:1037   */\n      iszero\n      tag_282\n      jumpi\n        /* \"#utility.yul\":1017:1035   */\n      tag_282\n      tag_264\n      jump\t// in\n    tag_282:\n      pop\n        /* \"#utility.yul\":1062:1063   */\n      0x05\n        /* \"#utility.yul\":1058:1072   */\n      shl\n        /* \"#utility.yul\":1074:1078   */\n      0x20\n        /* \"#utility.yul\":1054:1079   */\n      add\n      swap1\n        /* \"#utility.yul\":882:1085   */\n      jump\t// out\n        /* \"#utility.yul\":1090:1867   */\n    tag_267:\n        /* \"#utility.yul\":1164:1169   */\n      0x00\n        /* \"#utility.yul\":1217:1220   */\n      dup3\n        /* \"#utility.yul\":1210:1214   */\n      0x1f\n        /* \"#utility.yul\":1202:1208   */\n      dup4\n        /* \"#utility.yul\":1198:1215   */\n      add\n        /* \"#utility.yul\":1194:1221   */\n      slt\n        /* \"#utility.yul\":1184:1239   */\n      tag_284\n      jumpi\n        /* \"#utility.yul\":1235:1236   */\n      0x00\n        /* \"#utility.yul\":1232:1233   */\n      dup1\n        /* \"#utility.yul\":1225:1237   */\n      revert\n        /* \"#utility.yul\":1184:1239   */\n    tag_284:\n        /* \"#utility.yul\":1271:1277   */\n      dup2\n        /* \"#utility.yul\":1258:1278   */\n      calldataload\n        /* \"#utility.yul\":1297:1301   */\n      0x20\n        /* \"#utility.yul\":1321:1401   */\n      tag_285\n        /* \"#utility.yul\":1337:1400   */\n      tag_286\n        /* \"#utility.yul\":1397:1399   */\n      dup4\n        /* \"#utility.yul\":1337:1400   */\n      tag_266\n      jump\t// in\n    tag_286:\n        /* \"#utility.yul\":1321:1401   */\n      tag_265\n      jump\t// in\n    tag_285:\n        /* \"#utility.yul\":1435:1450   */\n      dup3\n      dup2\n      mstore\n        /* \"#utility.yul\":1521:1522   */\n      0x05\n        /* \"#utility.yul\":1517:1527   */\n      swap3\n      swap1\n      swap3\n      shl\n        /* \"#utility.yul\":1505:1528   */\n      dup5\n      add\n        /* \"#utility.yul\":1501:1533   */\n      dup2\n      add\n      swap2\n        /* \"#utility.yul\":1466:1478   */\n      dup2\n      dup2\n      add\n      swap1\n        /* \"#utility.yul\":1545:1560   */\n      dup7\n      dup5\n      gt\n        /* \"#utility.yul\":1542:1577   */\n      iszero\n      tag_287\n      jumpi\n        /* \"#utility.yul\":1573:1574   */\n      0x00\n        /* \"#utility.yul\":1570:1571   */\n      dup1\n        /* \"#utility.yul\":1563:1575   */\n      revert\n        /* \"#utility.yul\":1542:1577   */\n    tag_287:\n        /* \"#utility.yul\":1609:1611   */\n      dup3\n        /* \"#utility.yul\":1601:1607   */\n      dup7\n        /* \"#utility.yul\":1597:1612   */\n      add\n        /* \"#utility.yul\":1621:1838   */\n    tag_288:\n        /* \"#utility.yul\":1637:1643   */\n      dup5\n        /* \"#utility.yul\":1632:1635   */\n      dup2\n        /* \"#utility.yul\":1629:1644   */\n      lt\n        /* \"#utility.yul\":1621:1838   */\n      iszero\n      tag_290\n      jumpi\n        /* \"#utility.yul\":1717:1720   */\n      dup1\n        /* \"#utility.yul\":1704:1721   */\n      calldataload\n        /* \"#utility.yul\":1734:1765   */\n      tag_291\n        /* \"#utility.yul\":1759:1764   */\n      dup2\n        /* \"#utility.yul\":1734:1765   */\n      tag_263\n      jump\t// in\n    tag_291:\n        /* \"#utility.yul\":1778:1796   */\n      dup4\n      mstore\n        /* \"#utility.yul\":1816:1828   */\n      swap2\n      dup4\n      add\n      swap2\n        /* \"#utility.yul\":1654:1666   */\n      dup4\n      add\n        /* \"#utility.yul\":1621:1838   */\n      jump(tag_288)\n    tag_290:\n      pop\n        /* \"#utility.yul\":1856:1861   */\n      swap7\n        /* \"#utility.yul\":1090:1867   */\n      swap6\n      pop\n      pop\n      pop\n      pop\n      pop\n      pop\n      jump\t// out\n        /* \"#utility.yul\":1872:2266   */\n    tag_27:\n        /* \"#utility.yul\":1982:1988   */\n      0x00\n        /* \"#utility.yul\":2035:2037   */\n      0x20\n        /* \"#utility.yul\":2023:2032   */\n      dup3\n        /* \"#utility.yul\":2014:2021   */\n      dup5\n        /* \"#utility.yul\":2010:2033   */\n      sub\n        /* \"#utility.yul\":2006:2038   */\n      slt\n        /* \"#utility.yul\":2003:2055   */\n      iszero\n      tag_293\n      jumpi\n        /* \"#utility.yul\":2051:2052   */\n      0x00\n        /* \"#utility.yul\":2048:2049   */\n      dup1\n        /* \"#utility.yul\":2041:2053   */\n      revert\n        /* \"#utility.yul\":2003:2055   */\n    tag_293:\n        /* \"#utility.yul\":2091:2100   */\n      dup2\n        /* \"#utility.yul\":2078:2101   */\n      calldataload\n        /* \"#utility.yul\":2124:2142   */\n      0xffffffffffffffff\n        /* \"#utility.yul\":2116:2122   */\n      dup2\n        /* \"#utility.yul\":2113:2143   */\n      gt\n        /* \"#utility.yul\":2110:2160   */\n      iszero\n      tag_294\n      jumpi\n        /* \"#utility.yul\":2156:2157   */\n      0x00\n        /* \"#utility.yul\":2153:2154   */\n      dup1\n        /* \"#utility.yul\":2146:2158   */\n      revert\n        /* \"#utility.yul\":2110:2160   */\n    tag_294:\n        /* \"#utility.yul\":2179:2260   */\n      tag_116\n        /* \"#utility.yul\":2252:2259   */\n      dup5\n        /* \"#utility.yul\":2243:2249   */\n      dup3\n        /* \"#utility.yul\":2232:2241   */\n      dup6\n        /* \"#utility.yul\":2228:2250   */\n      add\n        /* \"#utility.yul\":2179:2260   */\n      tag_267\n      jump\t// in\n        /* \"#utility.yul\":2271:2518   */\n    tag_31:\n        /* \"#utility.yul\":2330:2336   */\n      0x00\n        /* \"#utility.yul\":2383:2385   */\n      0x20\n        /* \"#utility.yul\":2371:2380   */\n      dup3\n        /* \"#utility.yul\":2362:2369   */\n      dup5\n        /* \"#utility.yul\":2358:2381   */\n      sub\n        /* \"#utility.yul\":2354:2386   */\n      slt\n        /* \"#utility.yul\":2351:2403   */\n      iszero\n      tag_297\n      jumpi\n        /* \"#utility.yul\":2399:2400   */\n      0x00\n        /* \"#utility.yul\":2396:2397   */\n      dup1\n        /* \"#utility.yul\":2389:2401   */\n      revert\n        /* \"#utility.yul\":2351:2403   */\n    tag_297:\n        /* \"#utility.yul\":2438:2447   */\n      dup2\n        /* \"#utility.yul\":2425:2448   */\n      calldataload\n        /* \"#utility.yul\":2457:2488   */\n      tag_298\n        /* \"#utility.yul\":2482:2487   */\n      dup2\n        /* \"#utility.yul\":2457:2488   */\n      tag_263\n      jump\t// in\n    tag_298:\n        /* \"#utility.yul\":2507:2512   */\n      swap4\n        /* \"#utility.yul\":2271:2518   */\n      swap3\n      pop\n      pop\n      pop\n      jump\t// out\n        /* \"#utility.yul\":2705:2885   */\n    tag_39:\n        /* \"#utility.yul\":2764:2770   */\n      0x00\n        /* \"#utility.yul\":2817:2819   */\n      0x20\n        /* \"#utility.yul\":2805:2814   */\n      dup3\n        /* \"#utility.yul\":2796:2803   */\n      dup5\n        /* \"#utility.yul\":2792:2815   */\n      sub\n        /* \"#utility.yul\":2788:2820   */\n      slt\n        /* \"#utility.yul\":2785:2837   */\n      iszero\n      tag_301\n      jumpi\n        /* \"#utility.yul\":2833:2834   */\n      0x00\n        /* \"#utility.yul\":2830:2831   */\n      dup1\n        /* \"#utility.yul\":2823:2835   */\n      revert\n        /* \"#utility.yul\":2785:2837   */\n    tag_301:\n      pop\n        /* \"#utility.yul\":2856:2879   */\n      calldataload\n      swap2\n        /* \"#utility.yul\":2705:2885   */\n      swap1\n      pop\n      jump\t// out\n        /* \"#utility.yul\":3115:3883   */\n    tag_268:\n        /* \"#utility.yul\":3180:3185   */\n      0x00\n        /* \"#utility.yul\":3233:3236   */\n      dup3\n        /* \"#utility.yul\":3226:3230   */\n      0x1f\n        /* \"#utility.yul\":3218:3224   */\n      dup4\n        /* \"#utility.yul\":3214:3231   */\n      add\n        /* \"#utility.yul\":3210:3237   */\n      slt\n        /* \"#utility.yul\":3200:3255   */\n      tag_304\n      jumpi\n        /* \"#utility.yul\":3251:3252   */\n      0x00\n        /* \"#utility.yul\":3248:3249   */\n      dup1\n        /* \"#utility.yul\":3241:3253   */\n      revert\n        /* \"#utility.yul\":3200:3255   */\n    tag_304:\n        /* \"#utility.yul\":3287:3293   */\n      dup2\n        /* \"#utility.yul\":3274:3294   */\n      calldataload\n        /* \"#utility.yul\":3313:3317   */\n      0x20\n        /* \"#utility.yul\":3337:3417   */\n      tag_305\n        /* \"#utility.yul\":3353:3416   */\n      tag_286\n        /* \"#utility.yul\":3413:3415   */\n      dup4\n        /* \"#utility.yul\":3353:3416   */\n      tag_266\n      jump\t// in\n        /* \"#utility.yul\":3337:3417   */\n    tag_305:\n        /* \"#utility.yul\":3451:3466   */\n      dup3\n      dup2\n      mstore\n        /* \"#utility.yul\":3537:3538   */\n      0x05\n        /* \"#utility.yul\":3533:3543   */\n      swap3\n      swap1\n      swap3\n      shl\n        /* \"#utility.yul\":3521:3544   */\n      dup5\n      add\n        /* \"#utility.yul\":3517:3549   */\n      dup2\n      add\n      swap2\n        /* \"#utility.yul\":3482:3494   */\n      dup2\n      dup2\n      add\n      swap1\n        /* \"#utility.yul\":3561:3576   */\n      dup7\n      dup5\n      gt\n        /* \"#utility.yul\":3558:3593   */\n      iszero\n      tag_307\n      jumpi\n        /* \"#utility.yul\":3589:3590   */\n      0x00\n        /* \"#utility.yul\":3586:3587   */\n      dup1\n        /* \"#utility.yul\":3579:3591   */\n      revert\n        /* \"#utility.yul\":3558:3593   */\n    tag_307:\n        /* \"#utility.yul\":3625:3627   */\n      dup3\n        /* \"#utility.yul\":3617:3623   */\n      dup7\n        /* \"#utility.yul\":3613:3628   */\n      add\n        /* \"#utility.yul\":3637:3854   */\n    tag_308:\n        /* \"#utility.yul\":3653:3659   */\n      dup5\n        /* \"#utility.yul\":3648:3651   */\n      dup2\n        /* \"#utility.yul\":3645:3660   */\n      lt\n        /* \"#utility.yul\":3637:3854   */\n      iszero\n      tag_290\n      jumpi\n        /* \"#utility.yul\":3733:3736   */\n      dup1\n        /* \"#utility.yul\":3720:3737   */\n      calldataload\n        /* \"#utility.yul\":3750:3781   */\n      tag_311\n        /* \"#utility.yul\":3775:3780   */\n      dup2\n        /* \"#utility.yul\":3750:3781   */\n      tag_263\n      jump\t// in\n    tag_311:\n        /* \"#utility.yul\":3794:3812   */\n      dup4\n      mstore\n        /* \"#utility.yul\":3832:3844   */\n      swap2\n      dup4\n      add\n      swap2\n        /* \"#utility.yul\":3670:3682   */\n      dup4\n      add\n        /* \"#utility.yul\":3637:3854   */\n      jump(tag_308)\n        /* \"#utility.yul\":3888:4557   */\n    tag_45:\n        /* \"#utility.yul\":4049:4055   */\n      0x00\n        /* \"#utility.yul\":4057:4063   */\n      dup1\n        /* \"#utility.yul\":4110:4112   */\n      0x40\n        /* \"#utility.yul\":4098:4107   */\n      dup4\n        /* \"#utility.yul\":4089:4096   */\n      dup6\n        /* \"#utility.yul\":4085:4108   */\n      sub\n        /* \"#utility.yul\":4081:4113   */\n      slt\n        /* \"#utility.yul\":4078:4130   */\n      iszero\n      tag_313\n      jumpi\n        /* \"#utility.yul\":4126:4127   */\n      0x00\n        /* \"#utility.yul\":4123:4124   */\n      dup1\n        /* \"#utility.yul\":4116:4128   */\n      revert\n        /* \"#utility.yul\":4078:4130   */\n    tag_313:\n        /* \"#utility.yul\":4166:4175   */\n      dup3\n        /* \"#utility.yul\":4153:4176   */\n      calldataload\n        /* \"#utility.yul\":4195:4213   */\n      0xffffffffffffffff\n        /* \"#utility.yul\":4236:4238   */\n      dup1\n        /* \"#utility.yul\":4228:4234   */\n      dup3\n        /* \"#utility.yul\":4225:4239   */\n      gt\n        /* \"#utility.yul\":4222:4256   */\n      iszero\n      tag_314\n      jumpi\n        /* \"#utility.yul\":4252:4253   */\n      0x00\n        /* \"#utility.yul\":4249:4250   */\n      dup1\n        /* \"#utility.yul\":4242:4254   */\n      revert\n        /* \"#utility.yul\":4222:4256   */\n    tag_314:\n        /* \"#utility.yul\":4275:4347   */\n      tag_315\n        /* \"#utility.yul\":4339:4346   */\n      dup7\n        /* \"#utility.yul\":4330:4336   */\n      dup4\n        /* \"#utility.yul\":4319:4328   */\n      dup8\n        /* \"#utility.yul\":4315:4337   */\n      add\n        /* \"#utility.yul\":4275:4347   */\n      tag_268\n      jump\t// in\n    tag_315:\n        /* \"#utility.yul\":4265:4347   */\n      swap4\n      pop\n        /* \"#utility.yul\":4400:4402   */\n      0x20\n        /* \"#utility.yul\":4389:4398   */\n      dup6\n        /* \"#utility.yul\":4385:4403   */\n      add\n        /* \"#utility.yul\":4372:4404   */\n      calldataload\n        /* \"#utility.yul\":4356:4404   */\n      swap2\n      pop\n        /* \"#utility.yul\":4429:4431   */\n      dup1\n        /* \"#utility.yul\":4419:4427   */\n      dup3\n        /* \"#utility.yul\":4416:4432   */\n      gt\n        /* \"#utility.yul\":4413:4449   */\n      iszero\n      tag_316\n      jumpi\n        /* \"#utility.yul\":4445:4446   */\n      0x00\n        /* \"#utility.yul\":4442:4443   */\n      dup1\n        /* \"#utility.yul\":4435:4447   */\n      revert\n        /* \"#utility.yul\":4413:4449   */\n    tag_316:\n      pop\n        /* \"#utility.yul\":4468:4551   */\n      tag_317\n        /* \"#utility.yul\":4543:4550   */\n      dup6\n        /* \"#utility.yul\":4532:4540   */\n      dup3\n        /* \"#utility.yul\":4521:4530   */\n      dup7\n        /* \"#utility.yul\":4517:4541   */\n      add\n        /* \"#utility.yul\":4468:4551   */\n      tag_267\n      jump\t// in\n    tag_317:\n        /* \"#utility.yul\":4458:4551   */\n      swap2\n      pop\n      pop\n        /* \"#utility.yul\":3888:4557   */\n      swap3\n      pop\n      swap3\n      swap1\n      pop\n      jump\t// out\n        /* \"#utility.yul\":5004:5392   */\n    tag_62:\n        /* \"#utility.yul\":5072:5078   */\n      0x00\n        /* \"#utility.yul\":5080:5086   */\n      dup1\n        /* \"#utility.yul\":5133:5135   */\n      0x40\n        /* \"#utility.yul\":5121:5130   */\n      dup4\n        /* \"#utility.yul\":5112:5119   */\n      dup6\n        /* \"#utility.yul\":5108:5131   */\n      sub\n        /* \"#utility.yul\":5104:5136   */\n      slt\n        /* \"#utility.yul\":5101:5153   */\n      iszero\n      tag_321\n      jumpi\n        /* \"#utility.yul\":5149:5150   */\n      0x00\n        /* \"#utility.yul\":5146:5147   */\n      dup1\n        /* \"#utility.yul\":5139:5151   */\n      revert\n        /* \"#utility.yul\":5101:5153   */\n    tag_321:\n        /* \"#utility.yul\":5188:5197   */\n      dup3\n        /* \"#utility.yul\":5175:5198   */\n      calldataload\n        /* \"#utility.yul\":5207:5238   */\n      tag_322\n        /* \"#utility.yul\":5232:5237   */\n      dup2\n        /* \"#utility.yul\":5207:5238   */\n      tag_263\n      jump\t// in\n    tag_322:\n        /* \"#utility.yul\":5257:5262   */\n      swap2\n      pop\n        /* \"#utility.yul\":5314:5316   */\n      0x20\n        /* \"#utility.yul\":5299:5317   */\n      dup4\n      add\n        /* \"#utility.yul\":5286:5318   */\n      calldataload\n        /* \"#utility.yul\":5327:5360   */\n      tag_323\n        /* \"#utility.yul\":5286:5318   */\n      dup2\n        /* \"#utility.yul\":5327:5360   */\n      tag_263\n      jump\t// in\n    tag_323:\n        /* \"#utility.yul\":5379:5386   */\n      dup1\n        /* \"#utility.yul\":5369:5386   */\n      swap2\n      pop\n      pop\n        /* \"#utility.yul\":5004:5392   */\n      swap3\n      pop\n      swap3\n      swap1\n      pop\n      jump\t// out\n        /* \"#utility.yul\":5397:5773   */\n    tag_74:\n        /* \"#utility.yul\":5498:5504   */\n      0x00\n        /* \"#utility.yul\":5551:5553   */\n      0x20\n        /* \"#utility.yul\":5539:5548   */\n      dup3\n        /* \"#utility.yul\":5530:5537   */\n      dup5\n        /* \"#utility.yul\":5526:5549   */\n      sub\n        /* \"#utility.yul\":5522:5554   */\n      slt\n        /* \"#utility.yul\":5519:5571   */\n      iszero\n      tag_325\n      jumpi\n        /* \"#utility.yul\":5567:5568   */\n      0x00\n        /* \"#utility.yul\":5564:5565   */\n      dup1\n        /* \"#utility.yul\":5557:5569   */\n      revert\n        /* \"#utility.yul\":5519:5571   */\n    tag_325:\n        /* \"#utility.yul\":5607:5616   */\n      dup2\n        /* \"#utility.yul\":5594:5617   */\n      calldataload\n        /* \"#utility.yul\":5640:5658   */\n      0xffffffffffffffff\n        /* \"#utility.yul\":5632:5638   */\n      dup2\n        /* \"#utility.yul\":5629:5659   */\n      gt\n        /* \"#utility.yul\":5626:5676   */\n      iszero\n      tag_326\n      jumpi\n        /* \"#utility.yul\":5672:5673   */\n      0x00\n        /* \"#utility.yul\":5669:5670   */\n      dup1\n        /* \"#utility.yul\":5662:5674   */\n      revert\n        /* \"#utility.yul\":5626:5676   */\n    tag_326:\n        /* \"#utility.yul\":5695:5767   */\n      tag_116\n        /* \"#utility.yul\":5759:5766   */\n      dup5\n        /* \"#utility.yul\":5750:5756   */\n      dup3\n        /* \"#utility.yul\":5739:5748   */\n      dup6\n        /* \"#utility.yul\":5735:5757   */\n      add\n        /* \"#utility.yul\":5695:5767   */\n      tag_268\n      jump\t// in\n        /* \"#utility.yul\":5778:5905   */\n    tag_269:\n        /* \"#utility.yul\":5839:5849   */\n      0x4e487b71\n        /* \"#utility.yul\":5834:5837   */\n      0xe0\n        /* \"#utility.yul\":5830:5850   */\n      shl\n        /* \"#utility.yul\":5827:5828   */\n      0x00\n        /* \"#utility.yul\":5820:5851   */\n      mstore\n        /* \"#utility.yul\":5870:5874   */\n      0x11\n        /* \"#utility.yul\":5867:5868   */\n      0x04\n        /* \"#utility.yul\":5860:5875   */\n      mstore\n        /* \"#utility.yul\":5894:5898   */\n      0x24\n        /* \"#utility.yul\":5891:5892   */\n      0x00\n        /* \"#utility.yul\":5884:5899   */\n      revert\n        /* \"#utility.yul\":5910:6038   */\n    tag_86:\n        /* \"#utility.yul\":5950:5953   */\n      0x00\n        /* \"#utility.yul\":5981:5982   */\n      dup3\n        /* \"#utility.yul\":5977:5983   */\n      not\n        /* \"#utility.yul\":5974:5975   */\n      dup3\n        /* \"#utility.yul\":5971:5984   */\n      gt\n        /* \"#utility.yul\":5968:6007   */\n      iszero\n      tag_331\n      jumpi\n        /* \"#utility.yul\":5987:6005   */\n      tag_331\n      tag_269\n      jump\t// in\n    tag_331:\n      pop\n        /* \"#utility.yul\":6023:6032   */\n      add\n      swap1\n        /* \"#utility.yul\":5910:6038   */\n      jump\t// out\n        /* \"#utility.yul\":6043:6399   */\n    tag_93:\n        /* \"#utility.yul\":6245:6247   */\n      0x20\n        /* \"#utility.yul\":6227:6248   */\n      dup1\n      dup3\n      mstore\n        /* \"#utility.yul\":6264:6282   */\n      dup2\n      dup2\n      add\n        /* \"#utility.yul\":6257:6287   */\n      mstore\n        /* \"#utility.yul\":6323:6357   */\n      0x4f776e61626c653a2063616c6c6572206973206e6f7420746865206f776e6572\n        /* \"#utility.yul\":6318:6320   */\n      0x40\n        /* \"#utility.yul\":6303:6321   */\n      dup3\n      add\n        /* \"#utility.yul\":6296:6358   */\n      mstore\n        /* \"#utility.yul\":6390:6392   */\n      0x60\n        /* \"#utility.yul\":6375:6393   */\n      add\n      swap1\n        /* \"#utility.yul\":6043:6399   */\n      jump\t// out\n        /* \"#utility.yul\":6404:6531   */\n    tag_100:\n        /* \"#utility.yul\":6465:6475   */\n      0x4e487b71\n        /* \"#utility.yul\":6460:6463   */\n      0xe0\n        /* \"#utility.yul\":6456:6476   */\n      shl\n        /* \"#utility.yul\":6453:6454   */\n      0x00\n        /* \"#utility.yul\":6446:6477   */\n      mstore\n        /* \"#utility.yul\":6496:6500   */\n      0x32\n        /* \"#utility.yul\":6493:6494   */\n      0x04\n        /* \"#utility.yul\":6486:6501   */\n      mstore\n        /* \"#utility.yul\":6520:6524   */\n      0x24\n        /* \"#utility.yul\":6517:6518   */\n      0x00\n        /* \"#utility.yul\":6510:6525   */\n      revert\n        /* \"#utility.yul\":6744:6928   */\n    tag_106:\n        /* \"#utility.yul\":6814:6820   */\n      0x00\n        /* \"#utility.yul\":6867:6869   */\n      0x20\n        /* \"#utility.yul\":6855:6864   */\n      dup3\n        /* \"#utility.yul\":6846:6853   */\n      dup5\n        /* \"#utility.yul\":6842:6865   */\n      sub\n        /* \"#utility.yul\":6838:6870   */\n      slt\n        /* \"#utility.yul\":6835:6887   */\n      iszero\n      tag_336\n      jumpi\n        /* \"#utility.yul\":6883:6884   */\n      0x00\n        /* \"#utility.yul\":6880:6881   */\n      dup1\n        /* \"#utility.yul\":6873:6885   */\n      revert\n        /* \"#utility.yul\":6835:6887   */\n    tag_336:\n      pop\n        /* \"#utility.yul\":6906:6922   */\n      mload\n      swap2\n        /* \"#utility.yul\":6744:6928   */\n      swap1\n      pop\n      jump\t// out\n        /* \"#utility.yul\":6933:7617   */\n    tag_110:\n        /* \"#utility.yul\":7130:7132   */\n      0x20\n        /* \"#utility.yul\":7182:7203   */\n      dup1\n      dup3\n      mstore\n        /* \"#utility.yul\":7252:7265   */\n      dup3\n      mload\n        /* \"#utility.yul\":7155:7173   */\n      dup3\n      dup3\n      add\n        /* \"#utility.yul\":7274:7296   */\n      dup2\n      swap1\n      mstore\n        /* \"#utility.yul\":7101:7105   */\n      0x00\n      swap2\n        /* \"#utility.yul\":7130:7132   */\n      swap1\n        /* \"#utility.yul\":7353:7368   */\n      dup5\n      dup3\n      add\n      swap1\n        /* \"#utility.yul\":7327:7329   */\n      0x40\n        /* \"#utility.yul\":7312:7330   */\n      dup6\n      add\n      swap1\n        /* \"#utility.yul\":7101:7105   */\n      dup5\n        /* \"#utility.yul\":7396:7591   */\n    tag_338:\n        /* \"#utility.yul\":7410:7416   */\n      dup2\n        /* \"#utility.yul\":7407:7408   */\n      dup2\n        /* \"#utility.yul\":7404:7417   */\n      lt\n        /* \"#utility.yul\":7396:7591   */\n      iszero\n      tag_340\n      jumpi\n        /* \"#utility.yul\":7475:7488   */\n      dup4\n      mload\n      sub(shl(0xa0, 0x01), 0x01)\n        /* \"#utility.yul\":7471:7510   */\n      and\n        /* \"#utility.yul\":7459:7511   */\n      dup4\n      mstore\n        /* \"#utility.yul\":7566:7581   */\n      swap3\n      dup5\n      add\n      swap3\n        /* \"#utility.yul\":7531:7543   */\n      swap2\n      dup5\n      add\n      swap2\n        /* \"#utility.yul\":7507:7508   */\n      0x01\n        /* \"#utility.yul\":7425:7434   */\n      add\n        /* \"#utility.yul\":7396:7591   */\n      jump(tag_338)\n    tag_340:\n      pop\n        /* \"#utility.yul\":7608:7611   */\n      swap1\n      swap7\n        /* \"#utility.yul\":6933:7617   */\n      swap6\n      pop\n      pop\n      pop\n      pop\n      pop\n      pop\n      jump\t// out\n        /* \"#utility.yul\":7622:7747   */\n    tag_117:\n        /* \"#utility.yul\":7662:7666   */\n      0x00\n        /* \"#utility.yul\":7690:7691   */\n      dup3\n        /* \"#utility.yul\":7687:7688   */\n      dup3\n        /* \"#utility.yul\":7684:7692   */\n      lt\n        /* \"#utility.yul\":7681:7715   */\n      iszero\n      tag_343\n      jumpi\n        /* \"#utility.yul\":7695:7713   */\n      tag_343\n      tag_269\n      jump\t// in\n    tag_343:\n      pop\n        /* \"#utility.yul\":7732:7741   */\n      sub\n      swap1\n        /* \"#utility.yul\":7622:7747   */\n      jump\t// out\n        /* \"#utility.yul\":7752:7927   */\n    tag_143:\n        /* \"#utility.yul\":7789:7792   */\n      0x00\n        /* \"#utility.yul\":7833:7837   */\n      0xff\n        /* \"#utility.yul\":7826:7831   */\n      dup3\n        /* \"#utility.yul\":7822:7838   */\n      and\n        /* \"#utility.yul\":7862:7866   */\n      0xff\n        /* \"#utility.yul\":7853:7860   */\n      dup2\n        /* \"#utility.yul\":7850:7867   */\n      sub\n        /* \"#utility.yul\":7847:7890   */\n      tag_346\n      jumpi\n        /* \"#utility.yul\":7870:7888   */\n      tag_346\n      tag_269\n      jump\t// in\n    tag_346:\n        /* \"#utility.yul\":7919:7920   */\n      0x01\n        /* \"#utility.yul\":7906:7921   */\n      add\n      swap3\n        /* \"#utility.yul\":7752:7927   */\n      swap2\n      pop\n      pop\n      jump\t// out\n        /* \"#utility.yul\":9218:9628   */\n    tag_235:\n        /* \"#utility.yul\":9420:9422   */\n      0x20\n        /* \"#utility.yul\":9402:9423   */\n      dup1\n      dup3\n      mstore\n        /* \"#utility.yul\":9459:9461   */\n      0x2e\n        /* \"#utility.yul\":9439:9457   */\n      swap1\n      dup3\n      add\n        /* \"#utility.yul\":9432:9462   */\n      mstore\n        /* \"#utility.yul\":9498:9532   */\n      0x496e697469616c697a61626c653a20636f6e747261637420697320616c726561\n        /* \"#utility.yul\":9493:9495   */\n      0x40\n        /* \"#utility.yul\":9478:9496   */\n      dup3\n      add\n        /* \"#utility.yul\":9471:9533   */\n      mstore\n      shl(0x92, 0x191e481a5b9a5d1a585b1a5e9959)\n        /* \"#utility.yul\":9564:9566   */\n      0x60\n        /* \"#utility.yul\":9549:9567   */\n      dup3\n      add\n        /* \"#utility.yul\":9542:9586   */\n      mstore\n        /* \"#utility.yul\":9618:9621   */\n      0x80\n        /* \"#utility.yul\":9603:9622   */\n      add\n      swap1\n        /* \"#utility.yul\":9218:9628   */\n      jump\t// out\n        /* \"#utility.yul\":9633:10040   */\n    tag_242:\n        /* \"#utility.yul\":9835:9837   */\n      0x20\n        /* \"#utility.yul\":9817:9838   */\n      dup1\n      dup3\n      mstore\n        /* \"#utility.yul\":9874:9876   */\n      0x2b\n        /* \"#utility.yul\":9854:9872   */\n      swap1\n      dup3\n      add\n        /* \"#utility.yul\":9847:9877   */\n      mstore\n        /* \"#utility.yul\":9913:9947   */\n      0x496e697469616c697a61626c653a20636f6e7472616374206973206e6f742069\n        /* \"#utility.yul\":9908:9910   */\n      0x40\n        /* \"#utility.yul\":9893:9911   */\n      dup3\n      add\n        /* \"#utility.yul\":9886:9948   */\n      mstore\n      shl(0xa8, 0x6e697469616c697a696e67)\n        /* \"#utility.yul\":9979:9981   */\n      0x60\n        /* \"#utility.yul\":9964:9982   */\n      dup3\n      add\n        /* \"#utility.yul\":9957:9998   */\n      mstore\n        /* \"#utility.yul\":10030:10033   */\n      0x80\n        /* \"#utility.yul\":10015:10034   */\n      add\n      swap1\n        /* \"#utility.yul\":9633:10040   */\n      jump\t// out\n\n    auxdata: 0xa2646970667358221220a292f02ecdfa76c83fa0c218cec2aba5c1d199d7dc603af1e56d13848d21ec3264736f6c634300080d0033\n}\n",
				"bytecode": {
					"linkReferences": {},
					"object": "60806040523480156200001157600080fd5b50600062000020600162000087565b9050801562000039576000805461ff0019166101001790555b801562000080576000805461ff0019169055604051600181527f7f26b83ff96e1f2b6a682f133852f6798a09c465da95921460cefb38474024989060200160405180910390a15b50620001a8565b60008054610100900460ff161562000120578160ff166001148015620000c05750620000be306200019960201b62000ab31760201c565b155b620001185760405162461bcd60e51b815260206004820152602e6024820152600080516020620012d483398151915260448201526d191e481a5b9a5d1a585b1a5e995960921b60648201526084015b60405180910390fd5b506000919050565b60005460ff8084169116106200017f5760405162461bcd60e51b815260206004820152602e6024820152600080516020620012d483398151915260448201526d191e481a5b9a5d1a585b1a5e995960921b60648201526084016200010f565b506000805460ff191660ff92909216919091179055600190565b6001600160a01b03163b151590565b61111c80620001b86000396000f3fe608060405234801561001057600080fd5b50600436106100f55760003560e01c806387f049e411610097578063ccad973d11610066578063ccad973d14610229578063e7d325a11461023c578063f220d16c1461024f578063f2fde38b1461026257600080fd5b806387f049e4146101a15780638da5cb5b146101b45780639f7b7ead146101c5578063c5c66d4d146101f057600080fd5b8063715018a6116100d3578063715018a61461014857806371bc16b51461015057806373cf25f81461017b5780637bf962de1461018e57600080fd5b80632bf9518c146100fa5780634fe018231461010f5780635886216f14610122575b600080fd5b61010d610108366004610c85565b610275565b005b61010d61011d366004610d90565b6102b1565b610135610130366004610dc5565b6103ea565b6040519081526020015b60405180910390f35b61010d610425565b61016361015e366004610de9565b61045b565b6040516001600160a01b03909116815260200161013f565b61010d610189366004610e66565b610485565b61013561019c366004610dc5565b61068b565b6101636101af366004610de9565b6107aa565b6033546001600160a01b0316610163565b6101356101d3366004610eca565b606760209081526000928352604080842090915290825290205481565b6101356101fe366004610eca565b6001600160a01b03918216600090815260676020908152604080832093909416825291909152205490565b61010d610237366004610c85565b6107ba565b61010d61024a366004610f03565b610847565b61013561025d366004610dc5565b610962565b61010d610270366004610dc5565b610a18565b6001600160a01b0382166000908152606760209081526040808320338452909152812080548392906102a8908490610f4e565b90915550505050565b6033546001600160a01b031633146102e45760405162461bcd60e51b81526004016102db90610f66565b60405180910390fd5b805160005b818160ff16101561039057828160ff168151811061030957610309610f9b565b60200260200101516001600160a01b031663441130d5670de0b6b3a76400006040518263ffffffff1660e01b815260040161034691815260200190565b602060405180830381865afa158015610363573d6000803e3d6000fd5b505050506040513d601f19601f820116820180604052508101906103879190610fb1565b506001016102e9565b5081516103a4906066906020850190610bf6565b50336001600160a01b03167f2abc0e25ec4d3cb00cd094f0bca86e790d0f6455cf9064345274fc97586b31c5836040516103de9190610fca565b60405180910390a25050565b6000806103f683610962565b905060006104038461068b565b905080821161041357600061041d565b61041d8183611017565b949350505050565b6033546001600160a01b0316331461044f5760405162461bcd60e51b81526004016102db90610f66565b6104596000610ac2565b565b6065818154811061046b57600080fd5b6000918252602090912001546001600160a01b0316905081565b60006104916001610b14565b905080156104a9576000805461ff0019166101001790555b825160005b818160ff16101561055657848160ff16815181106104ce576104ce610f9b565b60209081029190910101516040516336b5bc3760e21b8152600060048201526001600160a01b039091169063dad6f0dc90602401602060405180830381865afa15801561051f573d6000803e3d6000fd5b505050506040513d601f19601f820116820180604052508101906105439190610fb1565b508061054e8161102e565b9150506104ae565b50825160005b818160ff16101561060d57848160ff168151811061057c5761057c610f9b565b60200260200101516001600160a01b031663441130d5670de0b6b3a76400006040518263ffffffff1660e01b81526004016105b991815260200190565b602060405180830381865afa1580156105d6573d6000803e3d6000fd5b505050506040513d601f19601f820116820180604052508101906105fa9190610fb1565b50806106058161102e565b91505061055c565b50610616610b9c565b8451610629906065906020880190610bf6565b50835161063d906066906020870190610bf6565b5050508015610686576000805461ff0019169055604051600181527f7f26b83ff96e1f2b6a682f133852f6798a09c465da95921460cefb38474024989060200160405180910390a15b505050565b6066546000908190815b818160ff1610156107a1576001600160a01b03851660009081526067602052604081206066805483919060ff86169081106106d2576106d2610f9b565b60009182526020808320909101546001600160a01b03168352820192909252604001902054905080156107985760668260ff168154811061071557610715610f9b565b60009182526020909120015460405163441130d560e01b8152600481018390526001600160a01b039091169063441130d590602401602060405180830381865afa158015610767573d6000803e3d6000fd5b505050506040513d601f19601f8201168201806040525081019061078b9190610fb1565b6107959085610f4e565b93505b50600101610695565b50909392505050565b6066818154811061046b57600080fd5b6001600160a01b0382166000908152606760209081526040808320338452909152902054811015610819576001600160a01b0382166000908152606760209081526040808320338452909152902054610814908290611017565b61081c565b60005b6001600160a01b03909216600090815260676020908152604080832033845290915290209190915550565b6033546001600160a01b031633146108715760405162461bcd60e51b81526004016102db90610f66565b805160005b818160ff16101561091457828160ff168151811061089657610896610f9b565b60209081029190910101516040516336b5bc3760e21b8152600060048201526001600160a01b039091169063dad6f0dc90602401602060405180830381865afa1580156108e7573d6000803e3d6000fd5b505050506040513d601f19601f8201168201806040525081019061090b9190610fb1565b50600101610876565b508151610928906065906020850190610bf6565b50336001600160a01b03167fe1c8f0c34d1ebb59573a7f5d542c350a1762869a702dd1ecea79c1dc6b44d865836040516103de9190610fca565b6065546000908190815b818160ff1610156107a15760658160ff168154811061098d5761098d610f9b565b6000918252602090912001546040516336b5bc3760e21b81526001600160a01b0387811660048301529091169063dad6f0dc90602401602060405180830381865afa1580156109e0573d6000803e3d6000fd5b505050506040513d601f19601f82011682018060405250810190610a049190610fb1565b610a0e9084610f4e565b925060010161096c565b6033546001600160a01b03163314610a425760405162461bcd60e51b81526004016102db90610f66565b6001600160a01b038116610aa75760405162461bcd60e51b815260206004820152602660248201527f4f776e61626c653a206e6577206f776e657220697320746865207a65726f206160448201526564647265737360d01b60648201526084016102db565b610ab081610ac2565b50565b6001600160a01b03163b151590565b603380546001600160a01b038381166001600160a01b0319831681179093556040519116919082907f8be0079c531659141344cd1fd0a4f28419497f9722a3daafe3b4186f6b6457e090600090a35050565b60008054610100900460ff1615610b5b578160ff166001148015610b375750303b155b610b535760405162461bcd60e51b81526004016102db9061104d565b506000919050565b60005460ff808416911610610b825760405162461bcd60e51b81526004016102db9061104d565b506000805460ff191660ff92909216919091179055600190565b600054610100900460ff16610bc35760405162461bcd60e51b81526004016102db9061109b565b610459600054610100900460ff16610bed5760405162461bcd60e51b81526004016102db9061109b565b61045933610ac2565b828054828255906000526020600020908101928215610c4b579160200282015b82811115610c4b57825182546001600160a01b0319166001600160a01b03909116178255602090920191600190910190610c16565b50610c57929150610c5b565b5090565b5b80821115610c575760008155600101610c5c565b6001600160a01b0381168114610ab057600080fd5b60008060408385031215610c9857600080fd5b8235610ca381610c70565b946020939093013593505050565b634e487b7160e01b600052604160045260246000fd5b604051601f8201601f1916810167ffffffffffffffff81118282101715610cf057610cf0610cb1565b604052919050565b600067ffffffffffffffff821115610d1257610d12610cb1565b5060051b60200190565b600082601f830112610d2d57600080fd5b81356020610d42610d3d83610cf8565b610cc7565b82815260059290921b84018101918181019086841115610d6157600080fd5b8286015b84811015610d85578035610d7881610c70565b8352918301918301610d65565b509695505050505050565b600060208284031215610da257600080fd5b813567ffffffffffffffff811115610db957600080fd5b61041d84828501610d1c565b600060208284031215610dd757600080fd5b8135610de281610c70565b9392505050565b600060208284031215610dfb57600080fd5b5035919050565b600082601f830112610e1357600080fd5b81356020610e23610d3d83610cf8565b82815260059290921b84018101918181019086841115610e4257600080fd5b8286015b84811015610d85578035610e5981610c70565b8352918301918301610e46565b60008060408385031215610e7957600080fd5b823567ffffffffffffffff80821115610e9157600080fd5b610e9d86838701610e02565b93506020850135915080821115610eb357600080fd5b50610ec085828601610d1c565b9150509250929050565b60008060408385031215610edd57600080fd5b8235610ee881610c70565b91506020830135610ef881610c70565b809150509250929050565b600060208284031215610f1557600080fd5b813567ffffffffffffffff811115610f2c57600080fd5b61041d84828501610e02565b634e487b7160e01b600052601160045260246000fd5b60008219821115610f6157610f61610f38565b500190565b6020808252818101527f4f776e61626c653a2063616c6c6572206973206e6f7420746865206f776e6572604082015260600190565b634e487b7160e01b600052603260045260246000fd5b600060208284031215610fc357600080fd5b5051919050565b6020808252825182820181905260009190848201906040850190845b8181101561100b5783516001600160a01b031683529284019291840191600101610fe6565b50909695505050505050565b60008282101561102957611029610f38565b500390565b600060ff821660ff810361104457611044610f38565b60010192915050565b6020808252602e908201527f496e697469616c697a61626c653a20636f6e747261637420697320616c72656160408201526d191e481a5b9a5d1a585b1a5e995960921b606082015260800190565b6020808252602b908201527f496e697469616c697a61626c653a20636f6e7472616374206973206e6f74206960408201526a6e697469616c697a696e6760a81b60608201526080019056fea2646970667358221220a292f02ecdfa76c83fa0c218cec2aba5c1d199d7dc603af1e56d13848d21ec3264736f6c634300080d0033496e697469616c697a61626c653a20636f6e747261637420697320616c726561",
					"opcodes": "PUSH1 0x80 PUSH1 0x40 MSTORE CALLVALUE DUP1 ISZERO PUSH3 0x11 JUMPI PUSH1 0x0 DUP1 REVERT JUMPDEST POP PUSH1 0x0 PUSH3 0x20 PUSH1 0x1 PUSH3 0x87 JUMP JUMPDEST SWAP1 POP DUP1 ISZERO PUSH3 0x39 JUMPI PUSH1 0x0 DUP1 SLOAD PUSH2 0xFF00 NOT AND PUSH2 0x100 OR SWAP1 SSTORE JUMPDEST DUP1 ISZERO PUSH3 0x80 JUMPI PUSH1 0x0 DUP1 SLOAD PUSH2 0xFF00 NOT AND SWAP1 SSTORE PUSH1 0x40 MLOAD PUSH1 0x1 DUP2 MSTORE PUSH32 0x7F26B83FF96E1F2B6A682F133852F6798A09C465DA95921460CEFB3847402498 SWAP1 PUSH1 0x20 ADD PUSH1 0x40 MLOAD DUP1 SWAP2 SUB SWAP1 LOG1 JUMPDEST POP PUSH3 0x1A8 JUMP JUMPDEST PUSH1 0x0 DUP1 SLOAD PUSH2 0x100 SWAP1 DIV PUSH1 0xFF AND ISZERO PUSH3 0x120 JUMPI DUP2 PUSH1 0xFF AND PUSH1 0x1 EQ DUP1 ISZERO PUSH3 0xC0 JUMPI POP PUSH3 0xBE ADDRESS PUSH3 0x199 PUSH1 0x20 SHL PUSH3 0xAB3 OR PUSH1 0x20 SHR JUMP JUMPDEST ISZERO JUMPDEST PUSH3 0x118 JUMPI PUSH1 0x40 MLOAD PUSH3 0x461BCD PUSH1 0xE5 SHL DUP2 MSTORE PUSH1 0x20 PUSH1 0x4 DUP3 ADD MSTORE PUSH1 0x2E PUSH1 0x24 DUP3 ADD MSTORE PUSH1 0x0 DUP1 MLOAD PUSH1 0x20 PUSH3 0x12D4 DUP4 CODECOPY DUP2 MLOAD SWAP2 MSTORE PUSH1 0x44 DUP3 ADD MSTORE PUSH14 0x191E481A5B9A5D1A585B1A5E9959 PUSH1 0x92 SHL PUSH1 0x64 DUP3 ADD MSTORE PUSH1 0x84 ADD JUMPDEST PUSH1 0x40 MLOAD DUP1 SWAP2 SUB SWAP1 REVERT JUMPDEST POP PUSH1 0x0 SWAP2 SWAP1 POP JUMP JUMPDEST PUSH1 0x0 SLOAD PUSH1 0xFF DUP1 DUP5 AND SWAP2 AND LT PUSH3 0x17F JUMPI PUSH1 0x40 MLOAD PUSH3 0x461BCD PUSH1 0xE5 SHL DUP2 MSTORE PUSH1 0x20 PUSH1 0x4 DUP3 ADD MSTORE PUSH1 0x2E PUSH1 0x24 DUP3 ADD MSTORE PUSH1 0x0 DUP1 MLOAD PUSH1 0x20 PUSH3 0x12D4 DUP4 CODECOPY DUP2 MLOAD SWAP2 MSTORE PUSH1 0x44 DUP3 ADD MSTORE PUSH14 0x191E481A5B9A5D1A585B1A5E9959 PUSH1 0x92 SHL PUSH1 0x64 DUP3 ADD MSTORE PUSH1 0x84 ADD PUSH3 0x10F JUMP JUMPDEST POP PUSH1 0x0 DUP1 SLOAD PUSH1 0xFF NOT AND PUSH1 0xFF SWAP3 SWAP1 SWAP3 AND SWAP2 SWAP1 SWAP2 OR SWAP1 SSTORE PUSH1 0x1 SWAP1 JUMP JUMPDEST PUSH1 0x1 PUSH1 0x1 PUSH1 0xA0 SHL SUB AND EXTCODESIZE ISZERO ISZERO SWAP1 JUMP JUMPDEST PUSH2 0x111C DUP1 PUSH3 0x1B8 PUSH1 0x0 CODECOPY PUSH1 0x0 RETURN INVALID PUSH1 0x80 PUSH1 0x40 MSTORE CALLVALUE DUP1 ISZERO PUSH2 0x10 JUMPI PUSH1 0x0 DUP1 REVERT JUMPDEST POP PUSH1 0x4 CALLDATASIZE LT PUSH2 0xF5 JUMPI PUSH1 0x0 CALLDATALOAD PUSH1 0xE0 SHR DUP1 PUSH4 0x87F049E4 GT PUSH2 0x97 JUMPI DUP1 PUSH4 0xCCAD973D GT PUSH2 0x66 JUMPI DUP1 PUSH4 0xCCAD973D EQ PUSH2 0x229 JUMPI DUP1 PUSH4 0xE7D325A1 EQ PUSH2 0x23C JUMPI DUP1 PUSH4 0xF220D16C EQ PUSH2 0x24F JUMPI DUP1 PUSH4 0xF2FDE38B EQ PUSH2 0x262 JUMPI PUSH1 0x0 DUP1 REVERT JUMPDEST DUP1 PUSH4 0x87F049E4 EQ PUSH2 0x1A1 JUMPI DUP1 PUSH4 0x8DA5CB5B EQ PUSH2 0x1B4 JUMPI DUP1 PUSH4 0x9F7B7EAD EQ PUSH2 0x1C5 JUMPI DUP1 PUSH4 0xC5C66D4D EQ PUSH2 0x1F0 JUMPI PUSH1 0x0 DUP1 REVERT JUMPDEST DUP1 PUSH4 0x715018A6 GT PUSH2 0xD3 JUMPI DUP1 PUSH4 0x715018A6 EQ PUSH2 0x148 JUMPI DUP1 PUSH4 0x71BC16B5 EQ PUSH2 0x150 JUMPI DUP1 PUSH4 0x73CF25F8 EQ PUSH2 0x17B JUMPI DUP1 PUSH4 0x7BF962DE EQ PUSH2 0x18E JUMPI PUSH1 0x0 DUP1 REVERT JUMPDEST DUP1 PUSH4 0x2BF9518C EQ PUSH2 0xFA JUMPI DUP1 PUSH4 0x4FE01823 EQ PUSH2 0x10F JUMPI DUP1 PUSH4 0x5886216F EQ PUSH2 0x122 JUMPI JUMPDEST PUSH1 0x0 DUP1 REVERT JUMPDEST PUSH2 0x10D PUSH2 0x108 CALLDATASIZE PUSH1 0x4 PUSH2 0xC85 JUMP JUMPDEST PUSH2 0x275 JUMP JUMPDEST STOP JUMPDEST PUSH2 0x10D PUSH2 0x11D CALLDATASIZE PUSH1 0x4 PUSH2 0xD90 JUMP JUMPDEST PUSH2 0x2B1 JUMP JUMPDEST PUSH2 0x135 PUSH2 0x130 CALLDATASIZE PUSH1 0x4 PUSH2 0xDC5 JUMP JUMPDEST PUSH2 0x3EA JUMP JUMPDEST PUSH1 0x40 MLOAD SWAP1 DUP2 MSTORE PUSH1 0x20 ADD JUMPDEST PUSH1 0x40 MLOAD DUP1 SWAP2 SUB SWAP1 RETURN JUMPDEST PUSH2 0x10D PUSH2 0x425 JUMP JUMPDEST PUSH2 0x163 PUSH2 0x15E CALLDATASIZE PUSH1 0x4 PUSH2 0xDE9 JUMP JUMPDEST PUSH2 0x45B JUMP JUMPDEST PUSH1 0x40 MLOAD PUSH1 0x1 PUSH1 0x1 PUSH1 0xA0 SHL SUB SWAP1 SWAP2 AND DUP2 MSTORE PUSH1 0x20 ADD PUSH2 0x13F JUMP JUMPDEST PUSH2 0x10D PUSH2 0x189 CALLDATASIZE PUSH1 0x4 PUSH2 0xE66 JUMP JUMPDEST PUSH2 0x485 JUMP JUMPDEST PUSH2 0x135 PUSH2 0x19C CALLDATASIZE PUSH1 0x4 PUSH2 0xDC5 JUMP JUMPDEST PUSH2 0x68B JUMP JUMPDEST PUSH2 0x163 PUSH2 0x1AF CALLDATASIZE PUSH1 0x4 PUSH2 0xDE9 JUMP JUMPDEST PUSH2 0x7AA JUMP JUMPDEST PUSH1 0x33 SLOAD PUSH1 0x1 PUSH1 0x1 PUSH1 0xA0 SHL SUB AND PUSH2 0x163 JUMP JUMPDEST PUSH2 0x135 PUSH2 0x1D3 CALLDATASIZE PUSH1 0x4 PUSH2 0xECA JUMP JUMPDEST PUSH1 0x67 PUSH1 0x20 SWAP1 DUP2 MSTORE PUSH1 0x0 SWAP3 DUP4 MSTORE PUSH1 0x40 DUP1 DUP5 KECCAK256 SWAP1 SWAP2 MSTORE SWAP1 DUP3 MSTORE SWAP1 KECCAK256 SLOAD DUP2 JUMP JUMPDEST PUSH2 0x135 PUSH2 0x1FE CALLDATASIZE PUSH1 0x4 PUSH2 0xECA JUMP JUMPDEST PUSH1 0x1 PUSH1 0x1 PUSH1 0xA0 SHL SUB SWAP2 DUP3 AND PUSH1 0x0 SWAP1 DUP2 MSTORE PUSH1 0x67 PUSH1 0x20 SWAP1 DUP2 MSTORE PUSH1 0x40 DUP1 DUP4 KECCAK256 SWAP4 SWAP1 SWAP5 AND DUP3 MSTORE SWAP2 SWAP1 SWAP2 MSTORE KECCAK256 SLOAD SWAP1 JUMP JUMPDEST PUSH2 0x10D PUSH2 0x237 CALLDATASIZE PUSH1 0x4 PUSH2 0xC85 JUMP JUMPDEST PUSH2 0x7BA JUMP JUMPDEST PUSH2 0x10D PUSH2 0x24A CALLDATASIZE PUSH1 0x4 PUSH2 0xF03 JUMP JUMPDEST PUSH2 0x847 JUMP JUMPDEST PUSH2 0x135 PUSH2 0x25D CALLDATASIZE PUSH1 0x4 PUSH2 0xDC5 JUMP JUMPDEST PUSH2 0x962 JUMP JUMPDEST PUSH2 0x10D PUSH2 0x270 CALLDATASIZE PUSH1 0x4 PUSH2 0xDC5 JUMP JUMPDEST PUSH2 0xA18 JUMP JUMPDEST PUSH1 0x1 PUSH1 0x1 PUSH1 0xA0 SHL SUB DUP3 AND PUSH1 0x0 SWAP1 DUP2 MSTORE PUSH1 0x67 PUSH1 0x20 SWAP1 DUP2 MSTORE PUSH1 0x40 DUP1 DUP4 KECCAK256 CALLER DUP5 MSTORE SWAP1 SWAP2 MSTORE DUP2 KECCAK256 DUP1 SLOAD DUP4 SWAP3 SWAP1 PUSH2 0x2A8 SWAP1 DUP5 SWAP1 PUSH2 0xF4E JUMP JUMPDEST SWAP1 SWAP2 SSTORE POP POP POP POP JUMP JUMPDEST PUSH1 0x33 SLOAD PUSH1 0x1 PUSH1 0x1 PUSH1 0xA0 SHL SUB AND CALLER EQ PUSH2 0x2E4 JUMPI PUSH1 0x40 MLOAD PUSH3 0x461BCD PUSH1 0xE5 SHL DUP2 MSTORE PUSH1 0x4 ADD PUSH2 0x2DB SWAP1 PUSH2 0xF66 JUMP JUMPDEST PUSH1 0x40 MLOAD DUP1 SWAP2 SUB SWAP1 REVERT JUMPDEST DUP1 MLOAD PUSH1 0x0 JUMPDEST DUP2 DUP2 PUSH1 0xFF AND LT ISZERO PUSH2 0x390 JUMPI DUP3 DUP2 PUSH1 0xFF AND DUP2 MLOAD DUP2 LT PUSH2 0x309 JUMPI PUSH2 0x309 PUSH2 0xF9B JUMP JUMPDEST PUSH1 0x20 MUL PUSH1 0x20 ADD ADD MLOAD PUSH1 0x1 PUSH1 0x1 PUSH1 0xA0 SHL SUB AND PUSH4 0x441130D5 PUSH8 0xDE0B6B3A7640000 PUSH1 0x40 MLOAD DUP3 PUSH4 0xFFFFFFFF AND PUSH1 0xE0 SHL DUP2 MSTORE PUSH1 0x4 ADD PUSH2 0x346 SWAP2 DUP2 MSTORE PUSH1 0x20 ADD SWAP1 JUMP JUMPDEST PUSH1 0x20 PUSH1 0x40 MLOAD DUP1 DUP4 SUB DUP2 DUP7 GAS STATICCALL ISZERO DUP1 ISZERO PUSH2 0x363 JUMPI RETURNDATASIZE PUSH1 0x0 DUP1 RETURNDATACOPY RETURNDATASIZE PUSH1 0x0 REVERT JUMPDEST POP POP POP POP PUSH1 0x40 MLOAD RETURNDATASIZE PUSH1 0x1F NOT PUSH1 0x1F DUP3 ADD AND DUP3 ADD DUP1 PUSH1 0x40 MSTORE POP DUP2 ADD SWAP1 PUSH2 0x387 SWAP2 SWAP1 PUSH2 0xFB1 JUMP JUMPDEST POP PUSH1 0x1 ADD PUSH2 0x2E9 JUMP JUMPDEST POP DUP2 MLOAD PUSH2 0x3A4 SWAP1 PUSH1 0x66 SWAP1 PUSH1 0x20 DUP6 ADD SWAP1 PUSH2 0xBF6 JUMP JUMPDEST POP CALLER PUSH1 0x1 PUSH1 0x1 PUSH1 0xA0 SHL SUB AND PUSH32 0x2ABC0E25EC4D3CB00CD094F0BCA86E790D0F6455CF9064345274FC97586B31C5 DUP4 PUSH1 0x40 MLOAD PUSH2 0x3DE SWAP2 SWAP1 PUSH2 0xFCA JUMP JUMPDEST PUSH1 0x40 MLOAD DUP1 SWAP2 SUB SWAP1 LOG2 POP POP JUMP JUMPDEST PUSH1 0x0 DUP1 PUSH2 0x3F6 DUP4 PUSH2 0x962 JUMP JUMPDEST SWAP1 POP PUSH1 0x0 PUSH2 0x403 DUP5 PUSH2 0x68B JUMP JUMPDEST SWAP1 POP DUP1 DUP3 GT PUSH2 0x413 JUMPI PUSH1 0x0 PUSH2 0x41D JUMP JUMPDEST PUSH2 0x41D DUP2 DUP4 PUSH2 0x1017 JUMP JUMPDEST SWAP5 SWAP4 POP POP POP POP JUMP JUMPDEST PUSH1 0x33 SLOAD PUSH1 0x1 PUSH1 0x1 PUSH1 0xA0 SHL SUB AND CALLER EQ PUSH2 0x44F JUMPI PUSH1 0x40 MLOAD PUSH3 0x461BCD PUSH1 0xE5 SHL DUP2 MSTORE PUSH1 0x4 ADD PUSH2 0x2DB SWAP1 PUSH2 0xF66 JUMP JUMPDEST PUSH2 0x459 PUSH1 0x0 PUSH2 0xAC2 JUMP JUMPDEST JUMP JUMPDEST PUSH1 0x65 DUP2 DUP2 SLOAD DUP2 LT PUSH2 0x46B JUMPI PUSH1 0x0 DUP1 REVERT JUMPDEST PUSH1 0x0 SWAP2 DUP3 MSTORE PUSH1 0x20 SWAP1 SWAP2 KECCAK256 ADD SLOAD PUSH1 0x1 PUSH1 0x1 PUSH1 0xA0 SHL SUB AND SWAP1 POP DUP2 JUMP JUMPDEST PUSH1 0x0 PUSH2 0x491 PUSH1 0x1 PUSH2 0xB14 JUMP JUMPDEST SWAP1 POP DUP1 ISZERO PUSH2 0x4A9 JUMPI PUSH1 0x0 DUP1 SLOAD PUSH2 0xFF00 NOT AND PUSH2 0x100 OR SWAP1 SSTORE JUMPDEST DUP3 MLOAD PUSH1 0x0 JUMPDEST DUP2 DUP2 PUSH1 0xFF AND LT ISZERO PUSH2 0x556 JUMPI DUP5 DUP2 PUSH1 0xFF AND DUP2 MLOAD DUP2 LT PUSH2 0x4CE JUMPI PUSH2 0x4CE PUSH2 0xF9B JUMP JUMPDEST PUSH1 0x20 SWAP1 DUP2 MUL SWAP2 SWAP1 SWAP2 ADD ADD MLOAD PUSH1 0x40 MLOAD PUSH4 0x36B5BC37 PUSH1 0xE2 SHL DUP2 MSTORE PUSH1 0x0 PUSH1 0x4 DUP3 ADD MSTORE PUSH1 0x1 PUSH1 0x1 PUSH1 0xA0 SHL SUB SWAP1 SWAP2 AND SWAP1 PUSH4 0xDAD6F0DC SWAP1 PUSH1 0x24 ADD PUSH1 0x20 PUSH1 0x40 MLOAD DUP1 DUP4 SUB DUP2 DUP7 GAS STATICCALL ISZERO DUP1 ISZERO PUSH2 0x51F JUMPI RETURNDATASIZE PUSH1 0x0 DUP1 RETURNDATACOPY RETURNDATASIZE PUSH1 0x0 REVERT JUMPDEST POP POP POP POP PUSH1 0x40 MLOAD RETURNDATASIZE PUSH1 0x1F NOT PUSH1 0x1F DUP3 ADD AND DUP3 ADD DUP1 PUSH1 0x40 MSTORE POP DUP2 ADD SWAP1 PUSH2 0x543 SWAP2 SWAP1 PUSH2 0xFB1 JUMP JUMPDEST POP DUP1 PUSH2 0x54E DUP2 PUSH2 0x102E JUMP JUMPDEST SWAP2 POP POP PUSH2 0x4AE JUMP JUMPDEST POP DUP3 MLOAD PUSH1 0x0 JUMPDEST DUP2 DUP2 PUSH1 0xFF AND LT ISZERO PUSH2 0x60D JUMPI DUP5 DUP2 PUSH1 0xFF AND DUP2 MLOAD DUP2 LT PUSH2 0x57C JUMPI PUSH2 0x57C PUSH2 0xF9B JUMP JUMPDEST PUSH1 0x20 MUL PUSH1 0x20 ADD ADD MLOAD PUSH1 0x1 PUSH1 0x1 PUSH1 0xA0 SHL SUB AND PUSH4 0x441130D5 PUSH8 0xDE0B6B3A7640000 PUSH1 0x40 MLOAD DUP3 PUSH4 0xFFFFFFFF AND PUSH1 0xE0 SHL DUP2 MSTORE PUSH1 0x4 ADD PUSH2 0x5B9 SWAP2 DUP2 MSTORE PUSH1 0x20 ADD SWAP1 JUMP JUMPDEST PUSH1 0x20 PUSH1 0x40 MLOAD DUP1 DUP4 SUB DUP2 DUP7 GAS STATICCALL ISZERO DUP1 ISZERO PUSH2 0x5D6 JUMPI RETURNDATASIZE PUSH1 0x0 DUP1 RETURNDATACOPY RETURNDATASIZE PUSH1 0x0 REVERT JUMPDEST POP POP POP POP PUSH1 0x40 MLOAD RETURNDATASIZE PUSH1 0x1F NOT PUSH1 0x1F DUP3 ADD AND DUP3 ADD DUP1 PUSH1 0x40 MSTORE POP DUP2 ADD SWAP1 PUSH2 0x5FA SWAP2 SWAP1 PUSH2 0xFB1 JUMP JUMPDEST POP DUP1 PUSH2 0x605 DUP2 PUSH2 0x102E JUMP JUMPDEST SWAP2 POP POP PUSH2 0x55C JUMP JUMPDEST POP PUSH2 0x616 PUSH2 0xB9C JUMP JUMPDEST DUP5 MLOAD PUSH2 0x629 SWAP1 PUSH1 0x65 SWAP1 PUSH1 0x20 DUP9 ADD SWAP1 PUSH2 0xBF6 JUMP JUMPDEST POP DUP4 MLOAD PUSH2 0x63D SWAP1 PUSH1 0x66 SWAP1 PUSH1 0x20 DUP8 ADD SWAP1 PUSH2 0xBF6 JUMP JUMPDEST POP POP POP DUP1 ISZERO PUSH2 0x686 JUMPI PUSH1 0x0 DUP1 SLOAD PUSH2 0xFF00 NOT AND SWAP1 SSTORE PUSH1 0x40 MLOAD PUSH1 0x1 DUP2 MSTORE PUSH32 0x7F26B83FF96E1F2B6A682F133852F6798A09C465DA95921460CEFB3847402498 SWAP1 PUSH1 0x20 ADD PUSH1 0x40 MLOAD DUP1 SWAP2 SUB SWAP1 LOG1 JUMPDEST POP POP POP JUMP JUMPDEST PUSH1 0x66 SLOAD PUSH1 0x0 SWAP1 DUP2 SWAP1 DUP2 JUMPDEST DUP2 DUP2 PUSH1 0xFF AND LT ISZERO PUSH2 0x7A1 JUMPI PUSH1 0x1 PUSH1 0x1 PUSH1 0xA0 SHL SUB DUP6 AND PUSH1 0x0 SWAP1 DUP2 MSTORE PUSH1 0x67 PUSH1 0x20 MSTORE PUSH1 0x40 DUP2 KECCAK256 PUSH1 0x66 DUP1 SLOAD DUP4 SWAP2 SWAP1 PUSH1 0xFF DUP7 AND SWAP1 DUP2 LT PUSH2 0x6D2 JUMPI PUSH2 0x6D2 PUSH2 0xF9B JUMP JUMPDEST PUSH1 0x0 SWAP2 DUP3 MSTORE PUSH1 0x20 DUP1 DUP4 KECCAK256 SWAP1 SWAP2 ADD SLOAD PUSH1 0x1 PUSH1 0x1 PUSH1 0xA0 SHL SUB AND DUP4 MSTORE DUP3 ADD SWAP3 SWAP1 SWAP3 MSTORE PUSH1 0x40 ADD SWAP1 KECCAK256 SLOAD SWAP1 POP DUP1 ISZERO PUSH2 0x798 JUMPI PUSH1 0x66 DUP3 PUSH1 0xFF AND DUP2 SLOAD DUP2 LT PUSH2 0x715 JUMPI PUSH2 0x715 PUSH2 0xF9B JUMP JUMPDEST PUSH1 0x0 SWAP2 DUP3 MSTORE PUSH1 0x20 SWAP1 SWAP2 KECCAK256 ADD SLOAD PUSH1 0x40 MLOAD PUSH4 0x441130D5 PUSH1 0xE0 SHL DUP2 MSTORE PUSH1 0x4 DUP2 ADD DUP4 SWAP1 MSTORE PUSH1 0x1 PUSH1 0x1 PUSH1 0xA0 SHL SUB SWAP1 SWAP2 AND SWAP1 PUSH4 0x441130D5 SWAP1 PUSH1 0x24 ADD PUSH1 0x20 PUSH1 0x40 MLOAD DUP1 DUP4 SUB DUP2 DUP7 GAS STATICCALL ISZERO DUP1 ISZERO PUSH2 0x767 JUMPI RETURNDATASIZE PUSH1 0x0 DUP1 RETURNDATACOPY RETURNDATASIZE PUSH1 0x0 REVERT JUMPDEST POP POP POP POP PUSH1 0x40 MLOAD RETURNDATASIZE PUSH1 0x1F NOT PUSH1 0x1F DUP3 ADD AND DUP3 ADD DUP1 PUSH1 0x40 MSTORE POP DUP2 ADD SWAP1 PUSH2 0x78B SWAP2 SWAP1 PUSH2 0xFB1 JUMP JUMPDEST PUSH2 0x795 SWAP1 DUP6 PUSH2 0xF4E JUMP JUMPDEST SWAP4 POP JUMPDEST POP PUSH1 0x1 ADD PUSH2 0x695 JUMP JUMPDEST POP SWAP1 SWAP4 SWAP3 POP POP POP JUMP JUMPDEST PUSH1 0x66 DUP2 DUP2 SLOAD DUP2 LT PUSH2 0x46B JUMPI PUSH1 0x0 DUP1 REVERT JUMPDEST PUSH1 0x1 PUSH1 0x1 PUSH1 0xA0 SHL SUB DUP3 AND PUSH1 0x0 SWAP1 DUP2 MSTORE PUSH1 0x67 PUSH1 0x20 SWAP1 DUP2 MSTORE PUSH1 0x40 DUP1 DUP4 KECCAK256 CALLER DUP5 MSTORE SWAP1 SWAP2 MSTORE SWAP1 KECCAK256 SLOAD DUP2 LT ISZERO PUSH2 0x819 JUMPI PUSH1 0x1 PUSH1 0x1 PUSH1 0xA0 SHL SUB DUP3 AND PUSH1 0x0 SWAP1 DUP2 MSTORE PUSH1 0x67 PUSH1 0x20 SWAP1 DUP2 MSTORE PUSH1 0x40 DUP1 DUP4 KECCAK256 CALLER DUP5 MSTORE SWAP1 SWAP2 MSTORE SWAP1 KECCAK256 SLOAD PUSH2 0x814 SWAP1 DUP3 SWAP1 PUSH2 0x1017 JUMP JUMPDEST PUSH2 0x81C JUMP JUMPDEST PUSH1 0x0 JUMPDEST PUSH1 0x1 PUSH1 0x1 PUSH1 0xA0 SHL SUB SWAP1 SWAP3 AND PUSH1 0x0 SWAP1 DUP2 MSTORE PUSH1 0x67 PUSH1 0x20 SWAP1 DUP2 MSTORE PUSH1 0x40 DUP1 DUP4 KECCAK256 CALLER DUP5 MSTORE SWAP1 SWAP2 MSTORE SWAP1 KECCAK256 SWAP2 SWAP1 SWAP2 SSTORE POP JUMP JUMPDEST PUSH1 0x33 SLOAD PUSH1 0x1 PUSH1 0x1 PUSH1 0xA0 SHL SUB AND CALLER EQ PUSH2 0x871 JUMPI PUSH1 0x40 MLOAD PUSH3 0x461BCD PUSH1 0xE5 SHL DUP2 MSTORE PUSH1 0x4 ADD PUSH2 0x2DB SWAP1 PUSH2 0xF66 JUMP JUMPDEST DUP1 MLOAD PUSH1 0x0 JUMPDEST DUP2 DUP2 PUSH1 0xFF AND LT ISZERO PUSH2 0x914 JUMPI DUP3 DUP2 PUSH1 0xFF AND DUP2 MLOAD DUP2 LT PUSH2 0x896 JUMPI PUSH2 0x896 PUSH2 0xF9B JUMP JUMPDEST PUSH1 0x20 SWAP1 DUP2 MUL SWAP2 SWAP1 SWAP2 ADD ADD MLOAD PUSH1 0x40 MLOAD PUSH4 0x36B5BC37 PUSH1 0xE2 SHL DUP2 MSTORE PUSH1 0x0 PUSH1 0x4 DUP3 ADD MSTORE PUSH1 0x1 PUSH1 0x1 PUSH1 0xA0 SHL SUB SWAP1 SWAP2 AND SWAP1 PUSH4 0xDAD6F0DC SWAP1 PUSH1 0x24 ADD PUSH1 0x20 PUSH1 0x40 MLOAD DUP1 DUP4 SUB DUP2 DUP7 GAS STATICCALL ISZERO DUP1 ISZERO PUSH2 0x8E7 JUMPI RETURNDATASIZE PUSH1 0x0 DUP1 RETURNDATACOPY RETURNDATASIZE PUSH1 0x0 REVERT JUMPDEST POP POP POP POP PUSH1 0x40 MLOAD RETURNDATASIZE PUSH1 0x1F NOT PUSH1 0x1F DUP3 ADD AND DUP3 ADD DUP1 PUSH1 0x40 MSTORE POP DUP2 ADD SWAP1 PUSH2 0x90B SWAP2 SWAP1 PUSH2 0xFB1 JUMP JUMPDEST POP PUSH1 0x1 ADD PUSH2 0x876 JUMP JUMPDEST POP DUP2 MLOAD PUSH2 0x928 SWAP1 PUSH1 0x65 SWAP1 PUSH1 0x20 DUP6 ADD SWAP1 PUSH2 0xBF6 JUMP JUMPDEST POP CALLER PUSH1 0x1 PUSH1 0x1 PUSH1 0xA0 SHL SUB AND PUSH32 0xE1C8F0C34D1EBB59573A7F5D542C350A1762869A702DD1ECEA79C1DC6B44D865 DUP4 PUSH1 0x40 MLOAD PUSH2 0x3DE SWAP2 SWAP1 PUSH2 0xFCA JUMP JUMPDEST PUSH1 0x65 SLOAD PUSH1 0x0 SWAP1 DUP2 SWAP1 DUP2 JUMPDEST DUP2 DUP2 PUSH1 0xFF AND LT ISZERO PUSH2 0x7A1 JUMPI PUSH1 0x65 DUP2 PUSH1 0xFF AND DUP2 SLOAD DUP2 LT PUSH2 0x98D JUMPI PUSH2 0x98D PUSH2 0xF9B JUMP JUMPDEST PUSH1 0x0 SWAP2 DUP3 MSTORE PUSH1 0x20 SWAP1 SWAP2 KECCAK256 ADD SLOAD PUSH1 0x40 MLOAD PUSH4 0x36B5BC37 PUSH1 0xE2 SHL DUP2 MSTORE PUSH1 0x1 PUSH1 0x1 PUSH1 0xA0 SHL SUB DUP8 DUP2 AND PUSH1 0x4 DUP4 ADD MSTORE SWAP1 SWAP2 AND SWAP1 PUSH4 0xDAD6F0DC SWAP1 PUSH1 0x24 ADD PUSH1 0x20 PUSH1 0x40 MLOAD DUP1 DUP4 SUB DUP2 DUP7 GAS STATICCALL ISZERO DUP1 ISZERO PUSH2 0x9E0 JUMPI RETURNDATASIZE PUSH1 0x0 DUP1 RETURNDATACOPY RETURNDATASIZE PUSH1 0x0 REVERT JUMPDEST POP POP POP POP PUSH1 0x40 MLOAD RETURNDATASIZE PUSH1 0x1F NOT PUSH1 0x1F DUP3 ADD AND DUP3 ADD DUP1 PUSH1 0x40 MSTORE POP DUP2 ADD SWAP1 PUSH2 0xA04 SWAP2 SWAP1 PUSH2 0xFB1 JUMP JUMPDEST PUSH2 0xA0E SWAP1 DUP5 PUSH2 0xF4E JUMP JUMPDEST SWAP3 POP PUSH1 0x1 ADD PUSH2 0x96C JUMP JUMPDEST PUSH1 0x33 SLOAD PUSH1 0x1 PUSH1 0x1 PUSH1 0xA0 SHL SUB AND CALLER EQ PUSH2 0xA42 JUMPI PUSH1 0x40 MLOAD PUSH3 0x461BCD PUSH1 0xE5 SHL DUP2 MSTORE PUSH1 0x4 ADD PUSH2 0x2DB SWAP1 PUSH2 0xF66 JUMP JUMPDEST PUSH1 0x1 PUSH1 0x1 PUSH1 0xA0 SHL SUB DUP2 AND PUSH2 0xAA7 JUMPI PUSH1 0x40 MLOAD PUSH3 0x461BCD PUSH1 0xE5 SHL DUP2 MSTORE PUSH1 0x20 PUSH1 0x4 DUP3 ADD MSTORE PUSH1 0x26 PUSH1 0x24 DUP3 ADD MSTORE PUSH32 0x4F776E61626C653A206E6577206F776E657220697320746865207A65726F2061 PUSH1 0x44 DUP3 ADD MSTORE PUSH6 0x646472657373 PUSH1 0xD0 SHL PUSH1 0x64 DUP3 ADD MSTORE PUSH1 0x84 ADD PUSH2 0x2DB JUMP JUMPDEST PUSH2 0xAB0 DUP2 PUSH2 0xAC2 JUMP JUMPDEST POP JUMP JUMPDEST PUSH1 0x1 PUSH1 0x1 PUSH1 0xA0 SHL SUB AND EXTCODESIZE ISZERO ISZERO SWAP1 JUMP JUMPDEST PUSH1 0x33 DUP1 SLOAD PUSH1 0x1 PUSH1 0x1 PUSH1 0xA0 SHL SUB DUP4 DUP2 AND PUSH1 0x1 PUSH1 0x1 PUSH1 0xA0 SHL SUB NOT DUP4 AND DUP2 OR SWAP1 SWAP4 SSTORE PUSH1 0x40 MLOAD SWAP2 AND SWAP2 SWAP1 DUP3 SWAP1 PUSH32 0x8BE0079C531659141344CD1FD0A4F28419497F9722A3DAAFE3B4186F6B6457E0 SWAP1 PUSH1 0x0 SWAP1 LOG3 POP POP JUMP JUMPDEST PUSH1 0x0 DUP1 SLOAD PUSH2 0x100 SWAP1 DIV PUSH1 0xFF AND ISZERO PUSH2 0xB5B JUMPI DUP2 PUSH1 0xFF AND PUSH1 0x1 EQ DUP1 ISZERO PUSH2 0xB37 JUMPI POP ADDRESS EXTCODESIZE ISZERO JUMPDEST PUSH2 0xB53 JUMPI PUSH1 0x40 MLOAD PUSH3 0x461BCD PUSH1 0xE5 SHL DUP2 MSTORE PUSH1 0x4 ADD PUSH2 0x2DB SWAP1 PUSH2 0x104D JUMP JUMPDEST POP PUSH1 0x0 SWAP2 SWAP1 POP JUMP JUMPDEST PUSH1 0x0 SLOAD PUSH1 0xFF DUP1 DUP5 AND SWAP2 AND LT PUSH2 0xB82 JUMPI PUSH1 0x40 MLOAD PUSH3 0x461BCD PUSH1 0xE5 SHL DUP2 MSTORE PUSH1 0x4 ADD PUSH2 0x2DB SWAP1 PUSH2 0x104D JUMP JUMPDEST POP PUSH1 0x0 DUP1 SLOAD PUSH1 0xFF NOT AND PUSH1 0xFF SWAP3 SWAP1 SWAP3 AND SWAP2 SWAP1 SWAP2 OR SWAP1 SSTORE PUSH1 0x1 SWAP1 JUMP JUMPDEST PUSH1 0x0 SLOAD PUSH2 0x100 SWAP1 DIV PUSH1 0xFF AND PUSH2 0xBC3 JUMPI PUSH1 0x40 MLOAD PUSH3 0x461BCD PUSH1 0xE5 SHL DUP2 MSTORE PUSH1 0x4 ADD PUSH2 0x2DB SWAP1 PUSH2 0x109B JUMP JUMPDEST PUSH2 0x459 PUSH1 0x0 SLOAD PUSH2 0x100 SWAP1 DIV PUSH1 0xFF AND PUSH2 0xBED JUMPI PUSH1 0x40 MLOAD PUSH3 0x461BCD PUSH1 0xE5 SHL DUP2 MSTORE PUSH1 0x4 ADD PUSH2 0x2DB SWAP1 PUSH2 0x109B JUMP JUMPDEST PUSH2 0x459 CALLER PUSH2 0xAC2 JUMP JUMPDEST DUP3 DUP1 SLOAD DUP3 DUP3 SSTORE SWAP1 PUSH1 0x0 MSTORE PUSH1 0x20 PUSH1 0x0 KECCAK256 SWAP1 DUP2 ADD SWAP3 DUP3 ISZERO PUSH2 0xC4B JUMPI SWAP2 PUSH1 0x20 MUL DUP3 ADD JUMPDEST DUP3 DUP2 GT ISZERO PUSH2 0xC4B JUMPI DUP3 MLOAD DUP3 SLOAD PUSH1 0x1 PUSH1 0x1 PUSH1 0xA0 SHL SUB NOT AND PUSH1 0x1 PUSH1 0x1 PUSH1 0xA0 SHL SUB SWAP1 SWAP2 AND OR DUP3 SSTORE PUSH1 0x20 SWAP1 SWAP3 ADD SWAP2 PUSH1 0x1 SWAP1 SWAP2 ADD SWAP1 PUSH2 0xC16 JUMP JUMPDEST POP PUSH2 0xC57 SWAP3 SWAP2 POP PUSH2 0xC5B JUMP JUMPDEST POP SWAP1 JUMP JUMPDEST JUMPDEST DUP1 DUP3 GT ISZERO PUSH2 0xC57 JUMPI PUSH1 0x0 DUP2 SSTORE PUSH1 0x1 ADD PUSH2 0xC5C JUMP JUMPDEST PUSH1 0x1 PUSH1 0x1 PUSH1 0xA0 SHL SUB DUP2 AND DUP2 EQ PUSH2 0xAB0 JUMPI PUSH1 0x0 DUP1 REVERT JUMPDEST PUSH1 0x0 DUP1 PUSH1 0x40 DUP4 DUP6 SUB SLT ISZERO PUSH2 0xC98 JUMPI PUSH1 0x0 DUP1 REVERT JUMPDEST DUP3 CALLDATALOAD PUSH2 0xCA3 DUP2 PUSH2 0xC70 JUMP JUMPDEST SWAP5 PUSH1 0x20 SWAP4 SWAP1 SWAP4 ADD CALLDATALOAD SWAP4 POP POP POP JUMP JUMPDEST PUSH4 0x4E487B71 PUSH1 0xE0 SHL PUSH1 0x0 MSTORE PUSH1 0x41 PUSH1 0x4 MSTORE PUSH1 0x24 PUSH1 0x0 REVERT JUMPDEST PUSH1 0x40 MLOAD PUSH1 0x1F DUP3 ADD PUSH1 0x1F NOT AND DUP2 ADD PUSH8 0xFFFFFFFFFFFFFFFF DUP2 GT DUP3 DUP3 LT OR ISZERO PUSH2 0xCF0 JUMPI PUSH2 0xCF0 PUSH2 0xCB1 JUMP JUMPDEST PUSH1 0x40 MSTORE SWAP2 SWAP1 POP JUMP JUMPDEST PUSH1 0x0 PUSH8 0xFFFFFFFFFFFFFFFF DUP3 GT ISZERO PUSH2 0xD12 JUMPI PUSH2 0xD12 PUSH2 0xCB1 JUMP JUMPDEST POP PUSH1 0x5 SHL PUSH1 0x20 ADD SWAP1 JUMP JUMPDEST PUSH1 0x0 DUP3 PUSH1 0x1F DUP4 ADD SLT PUSH2 0xD2D JUMPI PUSH1 0x0 DUP1 REVERT JUMPDEST DUP2 CALLDATALOAD PUSH1 0x20 PUSH2 0xD42 PUSH2 0xD3D DUP4 PUSH2 0xCF8 JUMP JUMPDEST PUSH2 0xCC7 JUMP JUMPDEST DUP3 DUP2 MSTORE PUSH1 0x5 SWAP3 SWAP1 SWAP3 SHL DUP5 ADD DUP2 ADD SWAP2 DUP2 DUP2 ADD SWAP1 DUP7 DUP5 GT ISZERO PUSH2 0xD61 JUMPI PUSH1 0x0 DUP1 REVERT JUMPDEST DUP3 DUP7 ADD JUMPDEST DUP5 DUP2 LT ISZERO PUSH2 0xD85 JUMPI DUP1 CALLDATALOAD PUSH2 0xD78 DUP2 PUSH2 0xC70 JUMP JUMPDEST DUP4 MSTORE SWAP2 DUP4 ADD SWAP2 DUP4 ADD PUSH2 0xD65 JUMP JUMPDEST POP SWAP7 SWAP6 POP POP POP POP POP POP JUMP JUMPDEST PUSH1 0x0 PUSH1 0x20 DUP3 DUP5 SUB SLT ISZERO PUSH2 0xDA2 JUMPI PUSH1 0x0 DUP1 REVERT JUMPDEST DUP2 CALLDATALOAD PUSH8 0xFFFFFFFFFFFFFFFF DUP2 GT ISZERO PUSH2 0xDB9 JUMPI PUSH1 0x0 DUP1 REVERT JUMPDEST PUSH2 0x41D DUP5 DUP3 DUP6 ADD PUSH2 0xD1C JUMP JUMPDEST PUSH1 0x0 PUSH1 0x20 DUP3 DUP5 SUB SLT ISZERO PUSH2 0xDD7 JUMPI PUSH1 0x0 DUP1 REVERT JUMPDEST DUP2 CALLDATALOAD PUSH2 0xDE2 DUP2 PUSH2 0xC70 JUMP JUMPDEST SWAP4 SWAP3 POP POP POP JUMP JUMPDEST PUSH1 0x0 PUSH1 0x20 DUP3 DUP5 SUB SLT ISZERO PUSH2 0xDFB JUMPI PUSH1 0x0 DUP1 REVERT JUMPDEST POP CALLDATALOAD SWAP2 SWAP1 POP JUMP JUMPDEST PUSH1 0x0 DUP3 PUSH1 0x1F DUP4 ADD SLT PUSH2 0xE13 JUMPI PUSH1 0x0 DUP1 REVERT JUMPDEST DUP2 CALLDATALOAD PUSH1 0x20 PUSH2 0xE23 PUSH2 0xD3D DUP4 PUSH2 0xCF8 JUMP JUMPDEST DUP3 DUP2 MSTORE PUSH1 0x5 SWAP3 SWAP1 SWAP3 SHL DUP5 ADD DUP2 ADD SWAP2 DUP2 DUP2 ADD SWAP1 DUP7 DUP5 GT ISZERO PUSH2 0xE42 JUMPI PUSH1 0x0 DUP1 REVERT JUMPDEST DUP3 DUP7 ADD JUMPDEST DUP5 DUP2 LT ISZERO PUSH2 0xD85 JUMPI DUP1 CALLDATALOAD PUSH2 0xE59 DUP2 PUSH2 0xC70 JUMP JUMPDEST DUP4 MSTORE SWAP2 DUP4 ADD SWAP2 DUP4 ADD PUSH2 0xE46 JUMP JUMPDEST PUSH1 0x0 DUP1 PUSH1 0x40 DUP4 DUP6 SUB SLT ISZERO PUSH2 0xE79 JUMPI PUSH1 0x0 DUP1 REVERT JUMPDEST DUP3 CALLDATALOAD PUSH8 0xFFFFFFFFFFFFFFFF DUP1 DUP3 GT ISZERO PUSH2 0xE91 JUMPI PUSH1 0x0 DUP1 REVERT JUMPDEST PUSH2 0xE9D DUP7 DUP4 DUP8 ADD PUSH2 0xE02 JUMP JUMPDEST SWAP4 POP PUSH1 0x20 DUP6 ADD CALLDATALOAD SWAP2 POP DUP1 DUP3 GT ISZERO PUSH2 0xEB3 JUMPI PUSH1 0x0 DUP1 REVERT JUMPDEST POP PUSH2 0xEC0 DUP6 DUP3 DUP7 ADD PUSH2 0xD1C JUMP JUMPDEST SWAP2 POP POP SWAP3 POP SWAP3 SWAP1 POP JUMP JUMPDEST PUSH1 0x0 DUP1 PUSH1 0x40 DUP4 DUP6 SUB SLT ISZERO PUSH2 0xEDD JUMPI PUSH1 0x0 DUP1 REVERT JUMPDEST DUP3 CALLDATALOAD PUSH2 0xEE8 DUP2 PUSH2 0xC70 JUMP JUMPDEST SWAP2 POP PUSH1 0x20 DUP4 ADD CALLDATALOAD PUSH2 0xEF8 DUP2 PUSH2 0xC70 JUMP JUMPDEST DUP1 SWAP2 POP POP SWAP3 POP SWAP3 SWAP1 POP JUMP JUMPDEST PUSH1 0x0 PUSH1 0x20 DUP3 DUP5 SUB SLT ISZERO PUSH2 0xF15 JUMPI PUSH1 0x0 DUP1 REVERT JUMPDEST DUP2 CALLDATALOAD PUSH8 0xFFFFFFFFFFFFFFFF DUP2 GT ISZERO PUSH2 0xF2C JUMPI PUSH1 0x0 DUP1 REVERT JUMPDEST PUSH2 0x41D DUP5 DUP3 DUP6 ADD PUSH2 0xE02 JUMP JUMPDEST PUSH4 0x4E487B71 PUSH1 0xE0 SHL PUSH1 0x0 MSTORE PUSH1 0x11 PUSH1 0x4 MSTORE PUSH1 0x24 PUSH1 0x0 REVERT JUMPDEST PUSH1 0x0 DUP3 NOT DUP3 GT ISZERO PUSH2 0xF61 JUMPI PUSH2 0xF61 PUSH2 0xF38 JUMP JUMPDEST POP ADD SWAP1 JUMP JUMPDEST PUSH1 0x20 DUP1 DUP3 MSTORE DUP2 DUP2 ADD MSTORE PUSH32 0x4F776E61626C653A2063616C6C6572206973206E6F7420746865206F776E6572 PUSH1 0x40 DUP3 ADD MSTORE PUSH1 0x60 ADD SWAP1 JUMP JUMPDEST PUSH4 0x4E487B71 PUSH1 0xE0 SHL PUSH1 0x0 MSTORE PUSH1 0x32 PUSH1 0x4 MSTORE PUSH1 0x24 PUSH1 0x0 REVERT JUMPDEST PUSH1 0x0 PUSH1 0x20 DUP3 DUP5 SUB SLT ISZERO PUSH2 0xFC3 JUMPI PUSH1 0x0 DUP1 REVERT JUMPDEST POP MLOAD SWAP2 SWAP1 POP JUMP JUMPDEST PUSH1 0x20 DUP1 DUP3 MSTORE DUP3 MLOAD DUP3 DUP3 ADD DUP2 SWAP1 MSTORE PUSH1 0x0 SWAP2 SWAP1 DUP5 DUP3 ADD SWAP1 PUSH1 0x40 DUP6 ADD SWAP1 DUP5 JUMPDEST DUP2 DUP2 LT ISZERO PUSH2 0x100B JUMPI DUP4 MLOAD PUSH1 0x1 PUSH1 0x1 PUSH1 0xA0 SHL SUB AND DUP4 MSTORE SWAP3 DUP5 ADD SWAP3 SWAP2 DUP5 ADD SWAP2 PUSH1 0x1 ADD PUSH2 0xFE6 JUMP JUMPDEST POP SWAP1 SWAP7 SWAP6 POP POP POP POP POP POP JUMP JUMPDEST PUSH1 0x0 DUP3 DUP3 LT ISZERO PUSH2 0x1029 JUMPI PUSH2 0x1029 PUSH2 0xF38 JUMP JUMPDEST POP SUB SWAP1 JUMP JUMPDEST PUSH1 0x0 PUSH1 0xFF DUP3 AND PUSH1 0xFF DUP2 SUB PUSH2 0x1044 JUMPI PUSH2 0x1044 PUSH2 0xF38 JUMP JUMPDEST PUSH1 0x1 ADD SWAP3 SWAP2 POP POP JUMP JUMPDEST PUSH1 0x20 DUP1 DUP3 MSTORE PUSH1 0x2E SWAP1 DUP3 ADD MSTORE PUSH32 0x496E697469616C697A61626C653A20636F6E747261637420697320616C726561 PUSH1 0x40 DUP3 ADD MSTORE PUSH14 0x191E481A5B9A5D1A585B1A5E9959 PUSH1 0x92 SHL PUSH1 0x60 DUP3 ADD MSTORE PUSH1 0x80 ADD SWAP1 JUMP JUMPDEST PUSH1 0x20 DUP1 DUP3 MSTORE PUSH1 0x2B SWAP1 DUP3 ADD MSTORE PUSH32 0x496E697469616C697A61626C653A20636F6E7472616374206973206E6F742069 PUSH1 0x40 DUP3 ADD MSTORE PUSH11 0x6E697469616C697A696E67 PUSH1 0xA8 SHL PUSH1 0x60 DUP3 ADD MSTORE PUSH1 0x80 ADD SWAP1 JUMP INVALID LOG2 PUSH5 0x6970667358 0x22 SLT KECCAK256 LOG2 SWAP3 CREATE 0x2E 0xCD STATICCALL PUSH23 0xC83FA0C218CEC2ABA5C1D199D7DC603AF1E56D13848D21 0xEC ORIGIN PUSH5 0x736F6C6343 STOP ADDMOD 0xD STOP CALLER 0x49 PUSH15 0x697469616C697A61626C653A20636F PUSH15 0x747261637420697320616C72656100 "
				},
				"gasEstimates": {
					"creation": {
						"codeDepositCost": "876000",
						"executionCost": "infinite",
						"totalCost": "infinite"
					},
					"external": {
						"availableCredit(address)": "infinite",
						"creditors(uint256)": "4659",
						"getUserVaultShares(address,address)": "infinite",
						"initialize(address[],address[])": "infinite",
						"onDeposit(address,uint256)": "24801",
						"onWithdraw(address,uint256)": "27240",
						"owner()": "2376",
						"privateVaults(uint256)": "4637",
						"renounceOwnership()": "28140",
						"setCreditors(address[])": "infinite",
						"setPrivateVaults(address[])": "infinite",
						"totalCredit(address)": "infinite",
						"transferOwnership(address)": "infinite",
						"usedCredit(address)": "infinite",
						"userVaultShares(address,address)": "infinite"
					}
				},
				"methodIdentifiers": {
					"availableCredit(address)": "5886216f",
					"creditors(uint256)": "71bc16b5",
					"getUserVaultShares(address,address)": "c5c66d4d",
					"initialize(address[],address[])": "73cf25f8",
					"onDeposit(address,uint256)": "2bf9518c",
					"onWithdraw(address,uint256)": "ccad973d",
					"owner()": "8da5cb5b",
					"privateVaults(uint256)": "87f049e4",
					"renounceOwnership()": "715018a6",
					"setCreditors(address[])": "e7d325a1",
					"setPrivateVaults(address[])": "4fe01823",
					"totalCredit(address)": "f220d16c",
					"transferOwnership(address)": "f2fde38b",
					"usedCredit(address)": "7bf962de",
					"userVaultShares(address,address)": "9f7b7ead"
				}
			},
			"storageLayout": {
				"storage": [
					{
						"astId": 130,
						"contract": "contracts/AutomatedVaultController.sol:AutomatedVaultController",
						"label": "_initialized",
						"offset": 0,
						"slot": "0",
						"type": "t_uint8"
					},
					{
						"astId": 133,
						"contract": "contracts/AutomatedVaultController.sol:AutomatedVaultController",
						"label": "_initializing",
						"offset": 1,
						"slot": "0",
						"type": "t_bool"
					},
					{
						"astId": 549,
						"contract": "contracts/AutomatedVaultController.sol:AutomatedVaultController",
						"label": "__gap",
						"offset": 0,
						"slot": "1",
						"type": "t_array(t_uint256)50_storage"
					},
					{
						"astId": 10,
						"contract": "contracts/AutomatedVaultController.sol:AutomatedVaultController",
						"label": "_owner",
						"offset": 0,
						"slot": "51",
						"type": "t_address"
					},
					{
						"astId": 122,
						"contract": "contracts/AutomatedVaultController.sol:AutomatedVaultController",
						"label": "__gap",
						"offset": 0,
						"slot": "52",
						"type": "t_array(t_uint256)49_storage"
					},
					{
						"astId": 581,
						"contract": "contracts/AutomatedVaultController.sol:AutomatedVaultController",
						"label": "creditors",
						"offset": 0,
						"slot": "101",
						"type": "t_array(t_contract(ICreditor)983)dyn_storage"
					},
					{
						"astId": 585,
						"contract": "contracts/AutomatedVaultController.sol:AutomatedVaultController",
						"label": "privateVaults",
						"offset": 0,
						"slot": "102",
						"type": "t_array(t_contract(IDeltaNeutralVault)993)dyn_storage"
					},
					{
						"astId": 591,
						"contract": "contracts/AutomatedVaultController.sol:AutomatedVaultController",
						"label": "userVaultShares",
						"offset": 0,
						"slot": "103",
						"type": "t_mapping(t_address,t_mapping(t_address,t_uint256))"
					}
				],
				"types": {
					"t_address": {
						"encoding": "inplace",
						"label": "address",
						"numberOfBytes": "20"
					},
					"t_array(t_contract(ICreditor)983)dyn_storage": {
						"base": "t_contract(ICreditor)983",
						"encoding": "dynamic_array",
						"label": "contract ICreditor[]",
						"numberOfBytes": "32"
					},
					"t_array(t_contract(IDeltaNeutralVault)993)dyn_storage": {
						"base": "t_contract(IDeltaNeutralVault)993",
						"encoding": "dynamic_array",
						"label": "contract IDeltaNeutralVault[]",
						"numberOfBytes": "32"
					},
					"t_array(t_uint256)49_storage": {
						"base": "t_uint256",
						"encoding": "inplace",
						"label": "uint256[49]",
						"numberOfBytes": "1568"
					},
					"t_array(t_uint256)50_storage": {
						"base": "t_uint256",
						"encoding": "inplace",
						"label": "uint256[50]",
						"numberOfBytes": "1600"
					},
					"t_bool": {
						"encoding": "inplace",
						"label": "bool",
						"numberOfBytes": "1"
					},
					"t_contract(ICreditor)983": {
						"encoding": "inplace",
						"label": "contract ICreditor",
						"numberOfBytes": "20"
					},
					"t_contract(IDeltaNeutralVault)993": {
						"encoding": "inplace",
						"label": "contract IDeltaNeutralVault",
						"numberOfBytes": "20"
					},
					"t_mapping(t_address,t_mapping(t_address,t_uint256))": {
						"encoding": "mapping",
						"key": "t_address",
						"label": "mapping(address => mapping(address => uint256))",
						"numberOfBytes": "32",
						"value": "t_mapping(t_address,t_uint256)"
					},
					"t_mapping(t_address,t_uint256)": {
						"encoding": "mapping",
						"key": "t_address",
						"label": "mapping(address => uint256)",
						"numberOfBytes": "32",
						"value": "t_uint256"
					},
					"t_uint256": {
						"encoding": "inplace",
						"label": "uint256",
						"numberOfBytes": "32"
					},
					"t_uint8": {
						"encoding": "inplace",
						"label": "uint8",
						"numberOfBytes": "1"
					}
				}
			},
			"userdoc": {
				"kind": "user",
				"methods": {
					"availableCredit(address)": {
						"notice": "Get availableCredit credit for this user"
					},
					"getUserVaultShares(address,address)": {
						"notice": "Return share of user of given vault"
					},
					"initialize(address[],address[])": {
						"notice": "Initialize Automated Vault Controller"
					},
					"onDeposit(address,uint256)": {
						"notice": "record user's automated vault's share from deposit"
					},
					"onWithdraw(address,uint256)": {
						"notice": "update user's automated vault's share from withdrawal"
					},
					"setCreditors(address[])": {
						"notice": "set private automated vaults"
					},
					"setPrivateVaults(address[])": {
						"notice": "set private automated vaults"
					},
					"totalCredit(address)": {
						"notice": "Get total credit for this user"
					},
					"usedCredit(address)": {
						"notice": "Get used credit for this user"
					}
				},
				"version": 1
			}
		}
	}
}