{
	"data": {
		"bytecode": {
			"linkReferences": {},
			"object": "608060405234801561001057600080fd5b50611f08806100206000396000f3fe608060405234801561001057600080fd5b506004361061038e5760003560e01c806379d37981116101de578063d1783fa81161010f578063ef3bac5e116100ad578063f77c47911161007c578063f77c4791146107a4578063f9bfd907146107b7578063fe865db9146107c0578063ffc97ce9146107d357600080fd5b8063ef3bac5e14610760578063f2fde38b14610773578063f52c676414610786578063f679eda11461078f57600080fd5b8063debfda30116100e9578063debfda3014610708578063e592c5fa1461071b578063e6abb8bd1461073a578063eea997871461074d57600080fd5b8063d1783fa8146106cf578063d4f3949a146106e2578063d77ab72d146106f557600080fd5b80639e1b8fa21161017c578063b192362a11610156578063b192362a14610688578063b8e0926014610691578063b9059d73146106a4578063bed65bae146106b757600080fd5b80639e1b8fa214610659578063a361f4041461066c578063ab8798271461067f57600080fd5b80638ed5bb92116101b85780638ed5bb921461061757806391ba87d81461062a57806392eefe9b1461063d578063956c9da01461065057600080fd5b806379d37981146105e05780638c8a4b58146105f35780638da5cb5b1461060657600080fd5b80634f40e368116102c35780636155501b11610261578063698d92cb11610230578063698d92cb1461059f5780636a5bf606146105b2578063715018a6146105c5578063725c9c49146105cd57600080fd5b80636155501b14610567578063629694671461057a57806364c657051461058357806364facdd51461059657600080fd5b806358d4c4ea1161029d57806358d4c4ea1461051b578063595d4ece1461052e5780635c23aed61461054157806360bdf9e51461055457600080fd5b80634f40e368146104e657806354cf2aeb1461050957806356fc97a01461051257600080fd5b80632ce2a21811610330578063412736571161030a57806341273657146104a4578063429e0971146104b757806345b61b00146104c057806349b2045c146104d357600080fd5b80632ce2a2181461045b578063358240611461046e5780633924f2331461048157600080fd5b806312440ccb1161036c57806312440ccb146103ef5780631bb8c61d146104225780631c425a4514610435578063235ec73d1461044857600080fd5b806304336bb3146103935780630573f19c146103af5780631218cf18146103da575b600080fd5b61039c606f5481565b6040519081526020015b60405180910390f35b6086546103c2906001600160a01b031681565b6040516001600160a01b0390911681526020016103a6565b6103ed6103e8366004611987565b6107f6565b005b6104126103fd3660046119b1565b60786020526000908152604090205460ff1681565b60405190151581526020016103a6565b6103ed610430366004611a1f565b6108b2565b6081546103c2906001600160a01b031681565b607f546103c2906001600160a01b031681565b6103ed610469366004611a1f565b6109c8565b61041261047c366004611a7b565b610ad8565b61041261048f3660046119b1565b60776020526000908152604090205460ff1681565b6103ed6104b23660046119b1565b610af4565b61039c60835481565b6070546103c2906001600160a01b031681565b6084546103c2906001600160a01b031681565b6104126104f43660046119b1565b60766020526000908152604090205460ff1681565b61039c60825481565b61039c60685481565b607e546103c2906001600160a01b031681565b6079546103c2906001600160a01b031681565b6067546103c2906001600160a01b031681565b6103ed610562366004611a7b565b610b9c565b6103ed610575366004611a94565b610bfd565b61039c60695481565b6103ed610591366004611ad6565b610cef565b61039c606b5481565b606e546103c2906001600160a01b031681565b6103ed6105c0366004611b7b565b610dab565b6103ed610e17565b6073546103c2906001600160a01b031681565b6085546103c2906001600160a01b031681565b6103ed610601366004611b9d565b610e4d565b6033546001600160a01b03166103c2565b6103c2610625366004611a7b565b610f25565b6103ed610638366004611a1f565b610f4f565b6103ed61064b3660046119b1565b61105f565b61039c607a5481565b6103ed610667366004611a1f565b611143565b607b546103c2906001600160a01b031681565b61039c606d5481565b61039c60715481565b6103ed61069f366004611bfc565b611253565b6103ed6106b2366004611987565b611318565b6072546103c29061010090046001600160a01b031681565b6066546103c2906001600160a01b031681565b6103ed6106f0366004611c50565b6113c3565b6080546103c2906001600160a01b031681565b6104126107163660046119b1565b611473565b6072546107289060ff1681565b60405160ff90911681526020016103a6565b6103ed610748366004611c93565b6114d5565b606c546103c2906001600160a01b031681565b6065546103c2906001600160a01b031681565b6103ed6107813660046119b1565b61162a565b61039c607c5481565b6107976116c5565b6040516103a69190611cf2565b607d546103c2906001600160a01b031681565b61039c606a5481565b6103ed6107ce366004611d3f565b611727565b6104126107e13660046119b1565b60756020526000908152604090205460ff1681565b6033546001600160a01b031633146108295760405162461bcd60e51b815260040161082090611d62565b60405180910390fd5b6109c481111561084f57604051632b14f14760e11b815260048101829052602401610820565b607980546001600160a01b0319166001600160a01b038416908117909155607a829055604080519182526020820183905233917f07a990b3304df1347b430697979619a7a4c80cb4bd939e73ced1f7ca6101d6f691015b60405180910390a25050565b6033546001600160a01b031633146108dc5760405162461bcd60e51b815260040161082090611d62565b60005b828110156109c25781607560008686858181106108fe576108fe611d97565b905060200201602081019061091391906119b1565b6001600160a01b031681526020810191909152604001600020805460ff191691151591909117905583838281811061094d5761094d611d97565b905060200201602081019061096291906119b1565b6001600160a01b0316336001600160a01b03167f6954b3b4020bd8480cd160fffd549537b617f20a8074ce45b2dee80cab6ef8e2846040516109a8911515815260200190565b60405180910390a3806109ba81611dad565b9150506108df565b50505050565b6033546001600160a01b031633146109f25760405162461bcd60e51b815260040161082090611d62565b60005b828110156109c2578160776000868685818110610a1457610a14611d97565b9050602002016020810190610a2991906119b1565b6001600160a01b031681526020810191909152604001600020805460ff1916911515919091179055838382818110610a6357610a63611d97565b9050602002016020810190610a7891906119b1565b6001600160a01b0316336001600160a01b03167fafed47930189ea124b8d808450ba0e6c685037de026cb6e56907751f1eef52dc84604051610abe911515815260200190565b60405180910390a380610ad081611dad565b9150506109f5565b6000606854821115610aec57506000919050565b506001919050565b6033546001600160a01b03163314610b1e5760405162461bcd60e51b815260040161082090611d62565b6001600160a01b038116610b4557604051634cd6613760e11b815260040160405180910390fd5b607380546001600160a01b0319166001600160a01b03831690811790915560405190815233907f05647eff4880e5135952763bda009997b9c8669cac9292ef87f28badca4f32a6906020015b60405180910390a250565b6033546001600160a01b03163314610bc65760405162461bcd60e51b815260040161082090611d62565b606881905560405181815233907fa604cbdca7ee706aafea3c555e0385946d7b121453a1b0ac8b3cd58c63014f0790602001610b91565b6033546001600160a01b03163314610c275760405162461bcd60e51b815260040161082090611d62565b6002811015610c4957604051639be12e7760e01b815260040160405180910390fd5b60725461010090046001600160a01b03168282600081610c6b57610c6b611d97565b9050602002016020810190610c8091906119b1565b6001600160a01b031614610ca757604051630c3e3d8560e31b815260040160405180910390fd5b610cb3607483836118f8565b50336001600160a01b03167fb67c241a52658f85ec5362073fc9a0909e07aad7e75f92291c35f910c57f808683836040516108a6929190611dd4565b6000610cfb60016117ba565b90508015610d13576000805461ff0019166101001790555b610d1b611847565b60728054610100600160a81b0319166101006001600160a01b03851602179055610d4a856000858188816114d5565b610d588b8b8b8b8b8b610e4d565b8015610d9e576000805461ff0019169055604051600181527f7f26b83ff96e1f2b6a682f133852f6798a09c465da95921460cefb38474024989060200160405180910390a15b5050505050505050505050565b6033546001600160a01b03163314610dd55760405162461bcd60e51b815260040161082090611d62565b60828290556083819055604080518381526020810183905233917f377241d1cd344fbe941f17d99a8ea4b7c81990ec2da5f6d7ccfe19b9b1676f8f91016108a6565b6033546001600160a01b03163314610e415760405162461bcd60e51b815260040161082090611d62565b610e4b6000611876565b565b6033546001600160a01b03163314610e775760405162461bcd60e51b815260040161082090611d62565b606580546001600160a01b038881166001600160a01b03199283168117909355606680548983169084168117909155606780549289169290931682179092556069869055606a859055606b84905560408051938452602084019290925290820152606081018490526080810183905260a0810182905233907fd4ca73c532248c12fc93b1dd748b3954751548cac9a9565697a3849bf7dd3b4c9060c0015b60405180910390a2505050505050565b60748181548110610f3557600080fd5b6000918252602090912001546001600160a01b0316905081565b6033546001600160a01b03163314610f795760405162461bcd60e51b815260040161082090611d62565b60005b828110156109c2578160786000868685818110610f9b57610f9b611d97565b9050602002016020810190610fb091906119b1565b6001600160a01b031681526020810191909152604001600020805460ff1916911515919091179055838382818110610fea57610fea611d97565b9050602002016020810190610fff91906119b1565b6001600160a01b0316336001600160a01b03167f9e48685292272e85fa3be83f07779af7794d29a6efb26b5f834bfb48e220d37084604051611045911515815260200190565b60405180910390a38061105781611dad565b915050610f7c565b6033546001600160a01b031633146110895760405162461bcd60e51b815260040161082090611d62565b604051633c88345b60e21b8152600060048201526001600160a01b0382169063f220d16c90602401602060405180830381865afa1580156110ce573d6000803e3d6000fd5b505050506040513d601f19601f820116820180604052508101906110f29190611e20565b50607d80546001600160a01b0319166001600160a01b03831690811790915560405190815233907f1d38dced3210495ad7eff4825fd4dd5cc0e44c11c98519840691e5391c78cd1590602001610b91565b6033546001600160a01b0316331461116d5760405162461bcd60e51b815260040161082090611d62565b60005b828110156109c257816076600086868581811061118f5761118f611d97565b90506020020160208101906111a491906119b1565b6001600160a01b031681526020810191909152604001600020805460ff19169115159190911790558383828181106111de576111de611d97565b90506020020160208101906111f391906119b1565b6001600160a01b0316336001600160a01b03167fa36d60ecff7c14072a077a9b05c8c98cfdfbf7b5f8e354a071764c27e533085584604051611239911515815260200190565b60405180910390a38061124b81611dad565b915050611170565b6033546001600160a01b0316331461127d5760405162461bcd60e51b815260040161082090611d62565b607e80546001600160a01b038681166001600160a01b03199283168117909355607f8054878316908416811790915560808054878416908516811782556081805494881694909516841790945560408051958652602086019290925290840192909252606083015233917f11cbce6c87791f09a7c2108a3abea2993ab3de5c9ed89a0bd108618ece832b23910160405180910390a250505050565b6033546001600160a01b031633146113425760405162461bcd60e51b815260040161082090611d62565b61177081111561136857604051632b14f14760e11b815260048101829052602401610820565b607b80546001600160a01b0319166001600160a01b038416908117909155607c829055604080519182526020820183905233917f49d9e0ca3aa68af12938170e0cd7267d832389603122e97b1cc70333942b8d2191016108a6565b6033546001600160a01b031633146113ed5760405162461bcd60e51b815260040161082090611d62565b608480546001600160a01b038581166001600160a01b03199283168117909355608580548683169084168117909155608680549286169290931682179092556040805193845260208401929092529082015233907f4aaf8791c546d8d1000b9d104834f06eea9b95c08f81c36f7eee152623edf4ae9060600160405180910390a2505050565b607e546000906001600160a01b038381169116148061149f5750607f546001600160a01b038381169116145b806114b757506080546001600160a01b038381169116145b806114cf57506081546001600160a01b038381169116145b92915050565b6033546001600160a01b031633146114ff5760405162461bcd60e51b815260040161082090611d62565b6103e885118061151057506103e883115b8061151e575063bd014d7e81115b1561154d57604051634b873b2960e11b8152600481018690526024810184905260448101829052606401610820565b606c80546001600160a01b038881166001600160a01b031992831617909255606d879055606e8054878416908316179055606f85905560708054928516929091169190911790556071819055604080518681526020810185905290810182905233907fc4d5650477cd4354e9a07e898df55abe6fecec3e415531e27a8499597b462be29060600160405180910390a2604080516001600160a01b038881168252868116602083015284169181019190915233907f6ebcbf01234512b5d15e025b0aa6bd7514d7f7690b4ff5b260bea6b9aac29e0f90606001610f15565b6033546001600160a01b031633146116545760405162461bcd60e51b815260040161082090611d62565b6001600160a01b0381166116b95760405162461bcd60e51b815260206004820152602660248201527f4f776e61626c653a206e6577206f776e657220697320746865207a65726f206160448201526564647265737360d01b6064820152608401610820565b6116c281611876565b50565b6060607480548060200260200160405190810160405280929190818152602001828054801561171d57602002820191906000526020600020905b81546001600160a01b031681526001909101906020018083116116ff575b5050505050905090565b6033546001600160a01b031633146117515760405162461bcd60e51b815260040161082090611d62565b600360ff821610156117765760405163279a13c360e11b815260040160405180910390fd5b6072805460ff191660ff831690811790915560405190815233907f0162496fc30aed361442504cdd534d5911e2997e66eb97f7455486c9476c8bfb90602001610b91565b60008054610100900460ff1615611801578160ff1660011480156117dd5750303b155b6117f95760405162461bcd60e51b815260040161082090611e39565b506000919050565b60005460ff8084169116106118285760405162461bcd60e51b815260040161082090611e39565b506000805460ff191660ff92909216919091179055600190565b919050565b600054610100900460ff1661186e5760405162461bcd60e51b815260040161082090611e87565b610e4b6118c8565b603380546001600160a01b038381166001600160a01b0319831681179093556040519116919082907f8be0079c531659141344cd1fd0a4f28419497f9722a3daafe3b4186f6b6457e090600090a35050565b600054610100900460ff166118ef5760405162461bcd60e51b815260040161082090611e87565b610e4b33611876565b82805482825590600052602060002090810192821561194b579160200282015b8281111561194b5781546001600160a01b0319166001600160a01b03843516178255602090920191600190910190611918565b5061195792915061195b565b5090565b5b80821115611957576000815560010161195c565b80356001600160a01b038116811461184257600080fd5b6000806040838503121561199a57600080fd5b6119a383611970565b946020939093013593505050565b6000602082840312156119c357600080fd5b6119cc82611970565b9392505050565b60008083601f8401126119e557600080fd5b50813567ffffffffffffffff8111156119fd57600080fd5b6020830191508360208260051b8501011115611a1857600080fd5b9250929050565b600080600060408486031215611a3457600080fd5b833567ffffffffffffffff811115611a4b57600080fd5b611a57868287016119d3565b90945092505060208401358015158114611a7057600080fd5b809150509250925092565b600060208284031215611a8d57600080fd5b5035919050565b60008060208385031215611aa757600080fd5b823567ffffffffffffffff811115611abe57600080fd5b611aca858286016119d3565b90969095509350505050565b6000806000806000806000806000806101408b8d031215611af657600080fd5b611aff8b611970565b9950611b0d60208c01611970565b9850611b1b60408c01611970565b975060608b0135965060808b0135955060a08b01359450611b3e60c08c01611970565b9350611b4c60e08c01611970565b9250611b5b6101008c01611970565b9150611b6a6101208c01611970565b90509295989b9194979a5092959850565b60008060408385031215611b8e57600080fd5b50508035926020909101359150565b60008060008060008060c08789031215611bb657600080fd5b611bbf87611970565b9550611bcd60208801611970565b9450611bdb60408801611970565b9350606087013592506080870135915060a087013590509295509295509295565b60008060008060808587031215611c1257600080fd5b611c1b85611970565b9350611c2960208601611970565b9250611c3760408601611970565b9150611c4560608601611970565b905092959194509250565b600080600060608486031215611c6557600080fd5b611c6e84611970565b9250611c7c60208501611970565b9150611c8a60408501611970565b90509250925092565b60008060008060008060c08789031215611cac57600080fd5b611cb587611970565b955060208701359450611cca60408801611970565b935060608701359250611cdf60808801611970565b915060a087013590509295509295509295565b6020808252825182820181905260009190848201906040850190845b81811015611d335783516001600160a01b031683529284019291840191600101611d0e565b50909695505050505050565b600060208284031215611d5157600080fd5b813560ff811681146119cc57600080fd5b6020808252818101527f4f776e61626c653a2063616c6c6572206973206e6f7420746865206f776e6572604082015260600190565b634e487b7160e01b600052603260045260246000fd5b600060018201611dcd57634e487b7160e01b600052601160045260246000fd5b5060010190565b60208082528181018390526000908460408401835b86811015611e15576001600160a01b03611e0284611970565b1682529183019190830190600101611de9565b509695505050505050565b600060208284031215611e3257600080fd5b5051919050565b6020808252602e908201527f496e697469616c697a61626c653a20636f6e747261637420697320616c72656160408201526d191e481a5b9a5d1a585b1a5e995960921b606082015260800190565b6020808252602b908201527f496e697469616c697a61626c653a20636f6e7472616374206973206e6f74206960408201526a6e697469616c697a696e6760a81b60608201526080019056fea26469706673582212209ca8dd7cae10fd0ceea443a3032f42612cc08c36bba6cf5a0ef69c690ca0ea7b64736f6c634300080d0033",
			"opcodes": "PUSH1 0x80 PUSH1 0x40 MSTORE CALLVALUE DUP1 ISZERO PUSH2 0x10 JUMPI PUSH1 0x0 DUP1 REVERT JUMPDEST POP PUSH2 0x1F08 DUP1 PUSH2 0x20 PUSH1 0x0 CODECOPY PUSH1 0x0 RETURN INVALID PUSH1 0x80 PUSH1 0x40 MSTORE CALLVALUE DUP1 ISZERO PUSH2 0x10 JUMPI PUSH1 0x0 DUP1 REVERT JUMPDEST POP PUSH1 0x4 CALLDATASIZE LT PUSH2 0x38E JUMPI PUSH1 0x0 CALLDATALOAD PUSH1 0xE0 SHR DUP1 PUSH4 0x79D37981 GT PUSH2 0x1DE JUMPI DUP1 PUSH4 0xD1783FA8 GT PUSH2 0x10F JUMPI DUP1 PUSH4 0xEF3BAC5E GT PUSH2 0xAD JUMPI DUP1 PUSH4 0xF77C4791 GT PUSH2 0x7C JUMPI DUP1 PUSH4 0xF77C4791 EQ PUSH2 0x7A4 JUMPI DUP1 PUSH4 0xF9BFD907 EQ PUSH2 0x7B7 JUMPI DUP1 PUSH4 0xFE865DB9 EQ PUSH2 0x7C0 JUMPI DUP1 PUSH4 0xFFC97CE9 EQ PUSH2 0x7D3 JUMPI PUSH1 0x0 DUP1 REVERT JUMPDEST DUP1 PUSH4 0xEF3BAC5E EQ PUSH2 0x760 JUMPI DUP1 PUSH4 0xF2FDE38B EQ PUSH2 0x773 JUMPI DUP1 PUSH4 0xF52C6764 EQ PUSH2 0x786 JUMPI DUP1 PUSH4 0xF679EDA1 EQ PUSH2 0x78F JUMPI PUSH1 0x0 DUP1 REVERT JUMPDEST DUP1 PUSH4 0xDEBFDA30 GT PUSH2 0xE9 JUMPI DUP1 PUSH4 0xDEBFDA30 EQ PUSH2 0x708 JUMPI DUP1 PUSH4 0xE592C5FA EQ PUSH2 0x71B JUMPI DUP1 PUSH4 0xE6ABB8BD EQ PUSH2 0x73A JUMPI DUP1 PUSH4 0xEEA99787 EQ PUSH2 0x74D JUMPI PUSH1 0x0 DUP1 REVERT JUMPDEST DUP1 PUSH4 0xD1783FA8 EQ PUSH2 0x6CF JUMPI DUP1 PUSH4 0xD4F3949A EQ PUSH2 0x6E2 JUMPI DUP1 PUSH4 0xD77AB72D EQ PUSH2 0x6F5 JUMPI PUSH1 0x0 DUP1 REVERT JUMPDEST DUP1 PUSH4 0x9E1B8FA2 GT PUSH2 0x17C JUMPI DUP1 PUSH4 0xB192362A GT PUSH2 0x156 JUMPI DUP1 PUSH4 0xB192362A EQ PUSH2 0x688 JUMPI DUP1 PUSH4 0xB8E09260 EQ PUSH2 0x691 JUMPI DUP1 PUSH4 0xB9059D73 EQ PUSH2 0x6A4 JUMPI DUP1 PUSH4 0xBED65BAE EQ PUSH2 0x6B7 JUMPI PUSH1 0x0 DUP1 REVERT JUMPDEST DUP1 PUSH4 0x9E1B8FA2 EQ PUSH2 0x659 JUMPI DUP1 PUSH4 0xA361F404 EQ PUSH2 0x66C JUMPI DUP1 PUSH4 0xAB879827 EQ PUSH2 0x67F JUMPI PUSH1 0x0 DUP1 REVERT JUMPDEST DUP1 PUSH4 0x8ED5BB92 GT PUSH2 0x1B8 JUMPI DUP1 PUSH4 0x8ED5BB92 EQ PUSH2 0x617 JUMPI DUP1 PUSH4 0x91BA87D8 EQ PUSH2 0x62A JUMPI DUP1 PUSH4 0x92EEFE9B EQ PUSH2 0x63D JUMPI DUP1 PUSH4 0x956C9DA0 EQ PUSH2 0x650 JUMPI PUSH1 0x0 DUP1 REVERT JUMPDEST DUP1 PUSH4 0x79D37981 EQ PUSH2 0x5E0 JUMPI DUP1 PUSH4 0x8C8A4B58 EQ PUSH2 0x5F3 JUMPI DUP1 PUSH4 0x8DA5CB5B EQ PUSH2 0x606 JUMPI PUSH1 0x0 DUP1 REVERT JUMPDEST DUP1 PUSH4 0x4F40E368 GT PUSH2 0x2C3 JUMPI DUP1 PUSH4 0x6155501B GT PUSH2 0x261 JUMPI DUP1 PUSH4 0x698D92CB GT PUSH2 0x230 JUMPI DUP1 PUSH4 0x698D92CB EQ PUSH2 0x59F JUMPI DUP1 PUSH4 0x6A5BF606 EQ PUSH2 0x5B2 JUMPI DUP1 PUSH4 0x715018A6 EQ PUSH2 0x5C5 JUMPI DUP1 PUSH4 0x725C9C49 EQ PUSH2 0x5CD JUMPI PUSH1 0x0 DUP1 REVERT JUMPDEST DUP1 PUSH4 0x6155501B EQ PUSH2 0x567 JUMPI DUP1 PUSH4 0x62969467 EQ PUSH2 0x57A JUMPI DUP1 PUSH4 0x64C65705 EQ PUSH2 0x583 JUMPI DUP1 PUSH4 0x64FACDD5 EQ PUSH2 0x596 JUMPI PUSH1 0x0 DUP1 REVERT JUMPDEST DUP1 PUSH4 0x58D4C4EA GT PUSH2 0x29D JUMPI DUP1 PUSH4 0x58D4C4EA EQ PUSH2 0x51B JUMPI DUP1 PUSH4 0x595D4ECE EQ PUSH2 0x52E JUMPI DUP1 PUSH4 0x5C23AED6 EQ PUSH2 0x541 JUMPI DUP1 PUSH4 0x60BDF9E5 EQ PUSH2 0x554 JUMPI PUSH1 0x0 DUP1 REVERT JUMPDEST DUP1 PUSH4 0x4F40E368 EQ PUSH2 0x4E6 JUMPI DUP1 PUSH4 0x54CF2AEB EQ PUSH2 0x509 JUMPI DUP1 PUSH4 0x56FC97A0 EQ PUSH2 0x512 JUMPI PUSH1 0x0 DUP1 REVERT JUMPDEST DUP1 PUSH4 0x2CE2A218 GT PUSH2 0x330 JUMPI DUP1 PUSH4 0x41273657 GT PUSH2 0x30A JUMPI DUP1 PUSH4 0x41273657 EQ PUSH2 0x4A4 JUMPI DUP1 PUSH4 0x429E0971 EQ PUSH2 0x4B7 JUMPI DUP1 PUSH4 0x45B61B00 EQ PUSH2 0x4C0 JUMPI DUP1 PUSH4 0x49B2045C EQ PUSH2 0x4D3 JUMPI PUSH1 0x0 DUP1 REVERT JUMPDEST DUP1 PUSH4 0x2CE2A218 EQ PUSH2 0x45B JUMPI DUP1 PUSH4 0x35824061 EQ PUSH2 0x46E JUMPI DUP1 PUSH4 0x3924F233 EQ PUSH2 0x481 JUMPI PUSH1 0x0 DUP1 REVERT JUMPDEST DUP1 PUSH4 0x12440CCB GT PUSH2 0x36C JUMPI DUP1 PUSH4 0x12440CCB EQ PUSH2 0x3EF JUMPI DUP1 PUSH4 0x1BB8C61D EQ PUSH2 0x422 JUMPI DUP1 PUSH4 0x1C425A45 EQ PUSH2 0x435 JUMPI DUP1 PUSH4 0x235EC73D EQ PUSH2 0x448 JUMPI PUSH1 0x0 DUP1 REVERT JUMPDEST DUP1 PUSH4 0x4336BB3 EQ PUSH2 0x393 JUMPI DUP1 PUSH4 0x573F19C EQ PUSH2 0x3AF JUMPI DUP1 PUSH4 0x1218CF18 EQ PUSH2 0x3DA JUMPI JUMPDEST PUSH1 0x0 DUP1 REVERT JUMPDEST PUSH2 0x39C PUSH1 0x6F SLOAD DUP2 JUMP JUMPDEST PUSH1 0x40 MLOAD SWAP1 DUP2 MSTORE PUSH1 0x20 ADD JUMPDEST PUSH1 0x40 MLOAD DUP1 SWAP2 SUB SWAP1 RETURN JUMPDEST PUSH1 0x86 SLOAD PUSH2 0x3C2 SWAP1 PUSH1 0x1 PUSH1 0x1 PUSH1 0xA0 SHL SUB AND DUP2 JUMP JUMPDEST PUSH1 0x40 MLOAD PUSH1 0x1 PUSH1 0x1 PUSH1 0xA0 SHL SUB SWAP1 SWAP2 AND DUP2 MSTORE PUSH1 0x20 ADD PUSH2 0x3A6 JUMP JUMPDEST PUSH2 0x3ED PUSH2 0x3E8 CALLDATASIZE PUSH1 0x4 PUSH2 0x1987 JUMP JUMPDEST PUSH2 0x7F6 JUMP JUMPDEST STOP JUMPDEST PUSH2 0x412 PUSH2 0x3FD CALLDATASIZE PUSH1 0x4 PUSH2 0x19B1 JUMP JUMPDEST PUSH1 0x78 PUSH1 0x20 MSTORE PUSH1 0x0 SWAP1 DUP2 MSTORE PUSH1 0x40 SWAP1 KECCAK256 SLOAD PUSH1 0xFF AND DUP2 JUMP JUMPDEST PUSH1 0x40 MLOAD SWAP1 ISZERO ISZERO DUP2 MSTORE PUSH1 0x20 ADD PUSH2 0x3A6 JUMP JUMPDEST PUSH2 0x3ED PUSH2 0x430 CALLDATASIZE PUSH1 0x4 PUSH2 0x1A1F JUMP JUMPDEST PUSH2 0x8B2 JUMP JUMPDEST PUSH1 0x81 SLOAD PUSH2 0x3C2 SWAP1 PUSH1 0x1 PUSH1 0x1 PUSH1 0xA0 SHL SUB AND DUP2 JUMP JUMPDEST PUSH1 0x7F SLOAD PUSH2 0x3C2 SWAP1 PUSH1 0x1 PUSH1 0x1 PUSH1 0xA0 SHL SUB AND DUP2 JUMP JUMPDEST PUSH2 0x3ED PUSH2 0x469 CALLDATASIZE PUSH1 0x4 PUSH2 0x1A1F JUMP JUMPDEST PUSH2 0x9C8 JUMP JUMPDEST PUSH2 0x412 PUSH2 0x47C CALLDATASIZE PUSH1 0x4 PUSH2 0x1A7B JUMP JUMPDEST PUSH2 0xAD8 JUMP JUMPDEST PUSH2 0x412 PUSH2 0x48F CALLDATASIZE PUSH1 0x4 PUSH2 0x19B1 JUMP JUMPDEST PUSH1 0x77 PUSH1 0x20 MSTORE PUSH1 0x0 SWAP1 DUP2 MSTORE PUSH1 0x40 SWAP1 KECCAK256 SLOAD PUSH1 0xFF AND DUP2 JUMP JUMPDEST PUSH2 0x3ED PUSH2 0x4B2 CALLDATASIZE PUSH1 0x4 PUSH2 0x19B1 JUMP JUMPDEST PUSH2 0xAF4 JUMP JUMPDEST PUSH2 0x39C PUSH1 0x83 SLOAD DUP2 JUMP JUMPDEST PUSH1 0x70 SLOAD PUSH2 0x3C2 SWAP1 PUSH1 0x1 PUSH1 0x1 PUSH1 0xA0 SHL SUB AND DUP2 JUMP JUMPDEST PUSH1 0x84 SLOAD PUSH2 0x3C2 SWAP1 PUSH1 0x1 PUSH1 0x1 PUSH1 0xA0 SHL SUB AND DUP2 JUMP JUMPDEST PUSH2 0x412 PUSH2 0x4F4 CALLDATASIZE PUSH1 0x4 PUSH2 0x19B1 JUMP JUMPDEST PUSH1 0x76 PUSH1 0x20 MSTORE PUSH1 0x0 SWAP1 DUP2 MSTORE PUSH1 0x40 SWAP1 KECCAK256 SLOAD PUSH1 0xFF AND DUP2 JUMP JUMPDEST PUSH2 0x39C PUSH1 0x82 SLOAD DUP2 JUMP JUMPDEST PUSH2 0x39C PUSH1 0x68 SLOAD DUP2 JUMP JUMPDEST PUSH1 0x7E SLOAD PUSH2 0x3C2 SWAP1 PUSH1 0x1 PUSH1 0x1 PUSH1 0xA0 SHL SUB AND DUP2 JUMP JUMPDEST PUSH1 0x79 SLOAD PUSH2 0x3C2 SWAP1 PUSH1 0x1 PUSH1 0x1 PUSH1 0xA0 SHL SUB AND DUP2 JUMP JUMPDEST PUSH1 0x67 SLOAD PUSH2 0x3C2 SWAP1 PUSH1 0x1 PUSH1 0x1 PUSH1 0xA0 SHL SUB AND DUP2 JUMP JUMPDEST PUSH2 0x3ED PUSH2 0x562 CALLDATASIZE PUSH1 0x4 PUSH2 0x1A7B JUMP JUMPDEST PUSH2 0xB9C JUMP JUMPDEST PUSH2 0x3ED PUSH2 0x575 CALLDATASIZE PUSH1 0x4 PUSH2 0x1A94 JUMP JUMPDEST PUSH2 0xBFD JUMP JUMPDEST PUSH2 0x39C PUSH1 0x69 SLOAD DUP2 JUMP JUMPDEST PUSH2 0x3ED PUSH2 0x591 CALLDATASIZE PUSH1 0x4 PUSH2 0x1AD6 JUMP JUMPDEST PUSH2 0xCEF JUMP JUMPDEST PUSH2 0x39C PUSH1 0x6B SLOAD DUP2 JUMP JUMPDEST PUSH1 0x6E SLOAD PUSH2 0x3C2 SWAP1 PUSH1 0x1 PUSH1 0x1 PUSH1 0xA0 SHL SUB AND DUP2 JUMP JUMPDEST PUSH2 0x3ED PUSH2 0x5C0 CALLDATASIZE PUSH1 0x4 PUSH2 0x1B7B JUMP JUMPDEST PUSH2 0xDAB JUMP JUMPDEST PUSH2 0x3ED PUSH2 0xE17 JUMP JUMPDEST PUSH1 0x73 SLOAD PUSH2 0x3C2 SWAP1 PUSH1 0x1 PUSH1 0x1 PUSH1 0xA0 SHL SUB AND DUP2 JUMP JUMPDEST PUSH1 0x85 SLOAD PUSH2 0x3C2 SWAP1 PUSH1 0x1 PUSH1 0x1 PUSH1 0xA0 SHL SUB AND DUP2 JUMP JUMPDEST PUSH2 0x3ED PUSH2 0x601 CALLDATASIZE PUSH1 0x4 PUSH2 0x1B9D JUMP JUMPDEST PUSH2 0xE4D JUMP JUMPDEST PUSH1 0x33 SLOAD PUSH1 0x1 PUSH1 0x1 PUSH1 0xA0 SHL SUB AND PUSH2 0x3C2 JUMP JUMPDEST PUSH2 0x3C2 PUSH2 0x625 CALLDATASIZE PUSH1 0x4 PUSH2 0x1A7B JUMP JUMPDEST PUSH2 0xF25 JUMP JUMPDEST PUSH2 0x3ED PUSH2 0x638 CALLDATASIZE PUSH1 0x4 PUSH2 0x1A1F JUMP JUMPDEST PUSH2 0xF4F JUMP JUMPDEST PUSH2 0x3ED PUSH2 0x64B CALLDATASIZE PUSH1 0x4 PUSH2 0x19B1 JUMP JUMPDEST PUSH2 0x105F JUMP JUMPDEST PUSH2 0x39C PUSH1 0x7A SLOAD DUP2 JUMP JUMPDEST PUSH2 0x3ED PUSH2 0x667 CALLDATASIZE PUSH1 0x4 PUSH2 0x1A1F JUMP JUMPDEST PUSH2 0x1143 JUMP JUMPDEST PUSH1 0x7B SLOAD PUSH2 0x3C2 SWAP1 PUSH1 0x1 PUSH1 0x1 PUSH1 0xA0 SHL SUB AND DUP2 JUMP JUMPDEST PUSH2 0x39C PUSH1 0x6D SLOAD DUP2 JUMP JUMPDEST PUSH2 0x39C PUSH1 0x71 SLOAD DUP2 JUMP JUMPDEST PUSH2 0x3ED PUSH2 0x69F CALLDATASIZE PUSH1 0x4 PUSH2 0x1BFC JUMP JUMPDEST PUSH2 0x1253 JUMP JUMPDEST PUSH2 0x3ED PUSH2 0x6B2 CALLDATASIZE PUSH1 0x4 PUSH2 0x1987 JUMP JUMPDEST PUSH2 0x1318 JUMP JUMPDEST PUSH1 0x72 SLOAD PUSH2 0x3C2 SWAP1 PUSH2 0x100 SWAP1 DIV PUSH1 0x1 PUSH1 0x1 PUSH1 0xA0 SHL SUB AND DUP2 JUMP JUMPDEST PUSH1 0x66 SLOAD PUSH2 0x3C2 SWAP1 PUSH1 0x1 PUSH1 0x1 PUSH1 0xA0 SHL SUB AND DUP2 JUMP JUMPDEST PUSH2 0x3ED PUSH2 0x6F0 CALLDATASIZE PUSH1 0x4 PUSH2 0x1C50 JUMP JUMPDEST PUSH2 0x13C3 JUMP JUMPDEST PUSH1 0x80 SLOAD PUSH2 0x3C2 SWAP1 PUSH1 0x1 PUSH1 0x1 PUSH1 0xA0 SHL SUB AND DUP2 JUMP JUMPDEST PUSH2 0x412 PUSH2 0x716 CALLDATASIZE PUSH1 0x4 PUSH2 0x19B1 JUMP JUMPDEST PUSH2 0x1473 JUMP JUMPDEST PUSH1 0x72 SLOAD PUSH2 0x728 SWAP1 PUSH1 0xFF AND DUP2 JUMP JUMPDEST PUSH1 0x40 MLOAD PUSH1 0xFF SWAP1 SWAP2 AND DUP2 MSTORE PUSH1 0x20 ADD PUSH2 0x3A6 JUMP JUMPDEST PUSH2 0x3ED PUSH2 0x748 CALLDATASIZE PUSH1 0x4 PUSH2 0x1C93 JUMP JUMPDEST PUSH2 0x14D5 JUMP JUMPDEST PUSH1 0x6C SLOAD PUSH2 0x3C2 SWAP1 PUSH1 0x1 PUSH1 0x1 PUSH1 0xA0 SHL SUB AND DUP2 JUMP JUMPDEST PUSH1 0x65 SLOAD PUSH2 0x3C2 SWAP1 PUSH1 0x1 PUSH1 0x1 PUSH1 0xA0 SHL SUB AND DUP2 JUMP JUMPDEST PUSH2 0x3ED PUSH2 0x781 CALLDATASIZE PUSH1 0x4 PUSH2 0x19B1 JUMP JUMPDEST PUSH2 0x162A JUMP JUMPDEST PUSH2 0x39C PUSH1 0x7C SLOAD DUP2 JUMP JUMPDEST PUSH2 0x797 PUSH2 0x16C5 JUMP JUMPDEST PUSH1 0x40 MLOAD PUSH2 0x3A6 SWAP2 SWAP1 PUSH2 0x1CF2 JUMP JUMPDEST PUSH1 0x7D SLOAD PUSH2 0x3C2 SWAP1 PUSH1 0x1 PUSH1 0x1 PUSH1 0xA0 SHL SUB AND DUP2 JUMP JUMPDEST PUSH2 0x39C PUSH1 0x6A SLOAD DUP2 JUMP JUMPDEST PUSH2 0x3ED PUSH2 0x7CE CALLDATASIZE PUSH1 0x4 PUSH2 0x1D3F JUMP JUMPDEST PUSH2 0x1727 JUMP JUMPDEST PUSH2 0x412 PUSH2 0x7E1 CALLDATASIZE PUSH1 0x4 PUSH2 0x19B1 JUMP JUMPDEST PUSH1 0x75 PUSH1 0x20 MSTORE PUSH1 0x0 SWAP1 DUP2 MSTORE PUSH1 0x40 SWAP1 KECCAK256 SLOAD PUSH1 0xFF AND DUP2 JUMP JUMPDEST PUSH1 0x33 SLOAD PUSH1 0x1 PUSH1 0x1 PUSH1 0xA0 SHL SUB AND CALLER EQ PUSH2 0x829 JUMPI PUSH1 0x40 MLOAD PUSH3 0x461BCD PUSH1 0xE5 SHL DUP2 MSTORE PUSH1 0x4 ADD PUSH2 0x820 SWAP1 PUSH2 0x1D62 JUMP JUMPDEST PUSH1 0x40 MLOAD DUP1 SWAP2 SUB SWAP1 REVERT JUMPDEST PUSH2 0x9C4 DUP2 GT ISZERO PUSH2 0x84F JUMPI PUSH1 0x40 MLOAD PUSH4 0x2B14F147 PUSH1 0xE1 SHL DUP2 MSTORE PUSH1 0x4 DUP2 ADD DUP3 SWAP1 MSTORE PUSH1 0x24 ADD PUSH2 0x820 JUMP JUMPDEST PUSH1 0x79 DUP1 SLOAD PUSH1 0x1 PUSH1 0x1 PUSH1 0xA0 SHL SUB NOT AND PUSH1 0x1 PUSH1 0x1 PUSH1 0xA0 SHL SUB DUP5 AND SWAP1 DUP2 OR SWAP1 SWAP2 SSTORE PUSH1 0x7A DUP3 SWAP1 SSTORE PUSH1 0x40 DUP1 MLOAD SWAP2 DUP3 MSTORE PUSH1 0x20 DUP3 ADD DUP4 SWAP1 MSTORE CALLER SWAP2 PUSH32 0x7A990B3304DF1347B430697979619A7A4C80CB4BD939E73CED1F7CA6101D6F6 SWAP2 ADD JUMPDEST PUSH1 0x40 MLOAD DUP1 SWAP2 SUB SWAP1 LOG2 POP POP JUMP JUMPDEST PUSH1 0x33 SLOAD PUSH1 0x1 PUSH1 0x1 PUSH1 0xA0 SHL SUB AND CALLER EQ PUSH2 0x8DC JUMPI PUSH1 0x40 MLOAD PUSH3 0x461BCD PUSH1 0xE5 SHL DUP2 MSTORE PUSH1 0x4 ADD PUSH2 0x820 SWAP1 PUSH2 0x1D62 JUMP JUMPDEST PUSH1 0x0 JUMPDEST DUP3 DUP2 LT ISZERO PUSH2 0x9C2 JUMPI DUP2 PUSH1 0x75 PUSH1 0x0 DUP7 DUP7 DUP6 DUP2 DUP2 LT PUSH2 0x8FE JUMPI PUSH2 0x8FE PUSH2 0x1D97 JUMP JUMPDEST SWAP1 POP PUSH1 0x20 MUL ADD PUSH1 0x20 DUP2 ADD SWAP1 PUSH2 0x913 SWAP2 SWAP1 PUSH2 0x19B1 JUMP JUMPDEST PUSH1 0x1 PUSH1 0x1 PUSH1 0xA0 SHL SUB AND DUP2 MSTORE PUSH1 0x20 DUP2 ADD SWAP2 SWAP1 SWAP2 MSTORE PUSH1 0x40 ADD PUSH1 0x0 KECCAK256 DUP1 SLOAD PUSH1 0xFF NOT AND SWAP2 ISZERO ISZERO SWAP2 SWAP1 SWAP2 OR SWAP1 SSTORE DUP4 DUP4 DUP3 DUP2 DUP2 LT PUSH2 0x94D JUMPI PUSH2 0x94D PUSH2 0x1D97 JUMP JUMPDEST SWAP1 POP PUSH1 0x20 MUL ADD PUSH1 0x20 DUP2 ADD SWAP1 PUSH2 0x962 SWAP2 SWAP1 PUSH2 0x19B1 JUMP JUMPDEST PUSH1 0x1 PUSH1 0x1 PUSH1 0xA0 SHL SUB AND CALLER PUSH1 0x1 PUSH1 0x1 PUSH1 0xA0 SHL SUB AND PUSH32 0x6954B3B4020BD8480CD160FFFD549537B617F20A8074CE45B2DEE80CAB6EF8E2 DUP5 PUSH1 0x40 MLOAD PUSH2 0x9A8 SWAP2 ISZERO ISZERO DUP2 MSTORE PUSH1 0x20 ADD SWAP1 JUMP JUMPDEST PUSH1 0x40 MLOAD DUP1 SWAP2 SUB SWAP1 LOG3 DUP1 PUSH2 0x9BA DUP2 PUSH2 0x1DAD JUMP JUMPDEST SWAP2 POP POP PUSH2 0x8DF JUMP JUMPDEST POP POP POP POP JUMP JUMPDEST PUSH1 0x33 SLOAD PUSH1 0x1 PUSH1 0x1 PUSH1 0xA0 SHL SUB AND CALLER EQ PUSH2 0x9F2 JUMPI PUSH1 0x40 MLOAD PUSH3 0x461BCD PUSH1 0xE5 SHL DUP2 MSTORE PUSH1 0x4 ADD PUSH2 0x820 SWAP1 PUSH2 0x1D62 JUMP JUMPDEST PUSH1 0x0 JUMPDEST DUP3 DUP2 LT ISZERO PUSH2 0x9C2 JUMPI DUP2 PUSH1 0x77 PUSH1 0x0 DUP7 DUP7 DUP6 DUP2 DUP2 LT PUSH2 0xA14 JUMPI PUSH2 0xA14 PUSH2 0x1D97 JUMP JUMPDEST SWAP1 POP PUSH1 0x20 MUL ADD PUSH1 0x20 DUP2 ADD SWAP1 PUSH2 0xA29 SWAP2 SWAP1 PUSH2 0x19B1 JUMP JUMPDEST PUSH1 0x1 PUSH1 0x1 PUSH1 0xA0 SHL SUB AND DUP2 MSTORE PUSH1 0x20 DUP2 ADD SWAP2 SWAP1 SWAP2 MSTORE PUSH1 0x40 ADD PUSH1 0x0 KECCAK256 DUP1 SLOAD PUSH1 0xFF NOT AND SWAP2 ISZERO ISZERO SWAP2 SWAP1 SWAP2 OR SWAP1 SSTORE DUP4 DUP4 DUP3 DUP2 DUP2 LT PUSH2 0xA63 JUMPI PUSH2 0xA63 PUSH2 0x1D97 JUMP JUMPDEST SWAP1 POP PUSH1 0x20 MUL ADD PUSH1 0x20 DUP2 ADD SWAP1 PUSH2 0xA78 SWAP2 SWAP1 PUSH2 0x19B1 JUMP JUMPDEST PUSH1 0x1 PUSH1 0x1 PUSH1 0xA0 SHL SUB AND CALLER PUSH1 0x1 PUSH1 0x1 PUSH1 0xA0 SHL SUB AND PUSH32 0xAFED47930189EA124B8D808450BA0E6C685037DE026CB6E56907751F1EEF52DC DUP5 PUSH1 0x40 MLOAD PUSH2 0xABE SWAP2 ISZERO ISZERO DUP2 MSTORE PUSH1 0x20 ADD SWAP1 JUMP JUMPDEST PUSH1 0x40 MLOAD DUP1 SWAP2 SUB SWAP1 LOG3 DUP1 PUSH2 0xAD0 DUP2 PUSH2 0x1DAD JUMP JUMPDEST SWAP2 POP POP PUSH2 0x9F5 JUMP JUMPDEST PUSH1 0x0 PUSH1 0x68 SLOAD DUP3 GT ISZERO PUSH2 0xAEC JUMPI POP PUSH1 0x0 SWAP2 SWAP1 POP JUMP JUMPDEST POP PUSH1 0x1 SWAP2 SWAP1 POP JUMP JUMPDEST PUSH1 0x33 SLOAD PUSH1 0x1 PUSH1 0x1 PUSH1 0xA0 SHL SUB AND CALLER EQ PUSH2 0xB1E JUMPI PUSH1 0x40 MLOAD PUSH3 0x461BCD PUSH1 0xE5 SHL DUP2 MSTORE PUSH1 0x4 ADD PUSH2 0x820 SWAP1 PUSH2 0x1D62 JUMP JUMPDEST PUSH1 0x1 PUSH1 0x1 PUSH1 0xA0 SHL SUB DUP2 AND PUSH2 0xB45 JUMPI PUSH1 0x40 MLOAD PUSH4 0x4CD66137 PUSH1 0xE1 SHL DUP2 MSTORE PUSH1 0x4 ADD PUSH1 0x40 MLOAD DUP1 SWAP2 SUB SWAP1 REVERT JUMPDEST PUSH1 0x73 DUP1 SLOAD PUSH1 0x1 PUSH1 0x1 PUSH1 0xA0 SHL SUB NOT AND PUSH1 0x1 PUSH1 0x1 PUSH1 0xA0 SHL SUB DUP4 AND SWAP1 DUP2 OR SWAP1 SWAP2 SSTORE PUSH1 0x40 MLOAD SWAP1 DUP2 MSTORE CALLER SWAP1 PUSH32 0x5647EFF4880E5135952763BDA009997B9C8669CAC9292EF87F28BADCA4F32A6 SWAP1 PUSH1 0x20 ADD JUMPDEST PUSH1 0x40 MLOAD DUP1 SWAP2 SUB SWAP1 LOG2 POP JUMP JUMPDEST PUSH1 0x33 SLOAD PUSH1 0x1 PUSH1 0x1 PUSH1 0xA0 SHL SUB AND CALLER EQ PUSH2 0xBC6 JUMPI PUSH1 0x40 MLOAD PUSH3 0x461BCD PUSH1 0xE5 SHL DUP2 MSTORE PUSH1 0x4 ADD PUSH2 0x820 SWAP1 PUSH2 0x1D62 JUMP JUMPDEST PUSH1 0x68 DUP2 SWAP1 SSTORE PUSH1 0x40 MLOAD DUP2 DUP2 MSTORE CALLER SWAP1 PUSH32 0xA604CBDCA7EE706AAFEA3C555E0385946D7B121453A1B0AC8B3CD58C63014F07 SWAP1 PUSH1 0x20 ADD PUSH2 0xB91 JUMP JUMPDEST PUSH1 0x33 SLOAD PUSH1 0x1 PUSH1 0x1 PUSH1 0xA0 SHL SUB AND CALLER EQ PUSH2 0xC27 JUMPI PUSH1 0x40 MLOAD PUSH3 0x461BCD PUSH1 0xE5 SHL DUP2 MSTORE PUSH1 0x4 ADD PUSH2 0x820 SWAP1 PUSH2 0x1D62 JUMP JUMPDEST PUSH1 0x2 DUP2 LT ISZERO PUSH2 0xC49 JUMPI PUSH1 0x40 MLOAD PUSH4 0x9BE12E77 PUSH1 0xE0 SHL DUP2 MSTORE PUSH1 0x4 ADD PUSH1 0x40 MLOAD DUP1 SWAP2 SUB SWAP1 REVERT JUMPDEST PUSH1 0x72 SLOAD PUSH2 0x100 SWAP1 DIV PUSH1 0x1 PUSH1 0x1 PUSH1 0xA0 SHL SUB AND DUP3 DUP3 PUSH1 0x0 DUP2 PUSH2 0xC6B JUMPI PUSH2 0xC6B PUSH2 0x1D97 JUMP JUMPDEST SWAP1 POP PUSH1 0x20 MUL ADD PUSH1 0x20 DUP2 ADD SWAP1 PUSH2 0xC80 SWAP2 SWAP1 PUSH2 0x19B1 JUMP JUMPDEST PUSH1 0x1 PUSH1 0x1 PUSH1 0xA0 SHL SUB AND EQ PUSH2 0xCA7 JUMPI PUSH1 0x40 MLOAD PUSH4 0xC3E3D85 PUSH1 0xE3 SHL DUP2 MSTORE PUSH1 0x4 ADD PUSH1 0x40 MLOAD DUP1 SWAP2 SUB SWAP1 REVERT JUMPDEST PUSH2 0xCB3 PUSH1 0x74 DUP4 DUP4 PUSH2 0x18F8 JUMP JUMPDEST POP CALLER PUSH1 0x1 PUSH1 0x1 PUSH1 0xA0 SHL SUB AND PUSH32 0xB67C241A52658F85EC5362073FC9A0909E07AAD7E75F92291C35F910C57F8086 DUP4 DUP4 PUSH1 0x40 MLOAD PUSH2 0x8A6 SWAP3 SWAP2 SWAP1 PUSH2 0x1DD4 JUMP JUMPDEST PUSH1 0x0 PUSH2 0xCFB PUSH1 0x1 PUSH2 0x17BA JUMP JUMPDEST SWAP1 POP DUP1 ISZERO PUSH2 0xD13 JUMPI PUSH1 0x0 DUP1 SLOAD PUSH2 0xFF00 NOT AND PUSH2 0x100 OR SWAP1 SSTORE JUMPDEST PUSH2 0xD1B PUSH2 0x1847 JUMP JUMPDEST PUSH1 0x72 DUP1 SLOAD PUSH2 0x100 PUSH1 0x1 PUSH1 0xA8 SHL SUB NOT AND PUSH2 0x100 PUSH1 0x1 PUSH1 0x1 PUSH1 0xA0 SHL SUB DUP6 AND MUL OR SWAP1 SSTORE PUSH2 0xD4A DUP6 PUSH1 0x0 DUP6 DUP2 DUP9 DUP2 PUSH2 0x14D5 JUMP JUMPDEST PUSH2 0xD58 DUP12 DUP12 DUP12 DUP12 DUP12 DUP12 PUSH2 0xE4D JUMP JUMPDEST DUP1 ISZERO PUSH2 0xD9E JUMPI PUSH1 0x0 DUP1 SLOAD PUSH2 0xFF00 NOT AND SWAP1 SSTORE PUSH1 0x40 MLOAD PUSH1 0x1 DUP2 MSTORE PUSH32 0x7F26B83FF96E1F2B6A682F133852F6798A09C465DA95921460CEFB3847402498 SWAP1 PUSH1 0x20 ADD PUSH1 0x40 MLOAD DUP1 SWAP2 SUB SWAP1 LOG1 JUMPDEST POP POP POP POP POP POP POP POP POP POP POP JUMP JUMPDEST PUSH1 0x33 SLOAD PUSH1 0x1 PUSH1 0x1 PUSH1 0xA0 SHL SUB AND CALLER EQ PUSH2 0xDD5 JUMPI PUSH1 0x40 MLOAD PUSH3 0x461BCD PUSH1 0xE5 SHL DUP2 MSTORE PUSH1 0x4 ADD PUSH2 0x820 SWAP1 PUSH2 0x1D62 JUMP JUMPDEST PUSH1 0x82 DUP3 SWAP1 SSTORE PUSH1 0x83 DUP2 SWAP1 SSTORE PUSH1 0x40 DUP1 MLOAD DUP4 DUP2 MSTORE PUSH1 0x20 DUP2 ADD DUP4 SWAP1 MSTORE CALLER SWAP2 PUSH32 0x377241D1CD344FBE941F17D99A8EA4B7C81990EC2DA5F6D7CCFE19B9B1676F8F SWAP2 ADD PUSH2 0x8A6 JUMP JUMPDEST PUSH1 0x33 SLOAD PUSH1 0x1 PUSH1 0x1 PUSH1 0xA0 SHL SUB AND CALLER EQ PUSH2 0xE41 JUMPI PUSH1 0x40 MLOAD PUSH3 0x461BCD PUSH1 0xE5 SHL DUP2 MSTORE PUSH1 0x4 ADD PUSH2 0x820 SWAP1 PUSH2 0x1D62 JUMP JUMPDEST PUSH2 0xE4B PUSH1 0x0 PUSH2 0x1876 JUMP JUMPDEST JUMP JUMPDEST PUSH1 0x33 SLOAD PUSH1 0x1 PUSH1 0x1 PUSH1 0xA0 SHL SUB AND CALLER EQ PUSH2 0xE77 JUMPI PUSH1 0x40 MLOAD PUSH3 0x461BCD PUSH1 0xE5 SHL DUP2 MSTORE PUSH1 0x4 ADD PUSH2 0x820 SWAP1 PUSH2 0x1D62 JUMP JUMPDEST PUSH1 0x65 DUP1 SLOAD PUSH1 0x1 PUSH1 0x1 PUSH1 0xA0 SHL SUB DUP9 DUP2 AND PUSH1 0x1 PUSH1 0x1 PUSH1 0xA0 SHL SUB NOT SWAP3 DUP4 AND DUP2 OR SWAP1 SWAP4 SSTORE PUSH1 0x66 DUP1 SLOAD DUP10 DUP4 AND SWAP1 DUP5 AND DUP2 OR SWAP1 SWAP2 SSTORE PUSH1 0x67 DUP1 SLOAD SWAP3 DUP10 AND SWAP3 SWAP1 SWAP4 AND DUP3 OR SWAP1 SWAP3 SSTORE PUSH1 0x69 DUP7 SWAP1 SSTORE PUSH1 0x6A DUP6 SWAP1 SSTORE PUSH1 0x6B DUP5 SWAP1 SSTORE PUSH1 0x40 DUP1 MLOAD SWAP4 DUP5 MSTORE PUSH1 0x20 DUP5 ADD SWAP3 SWAP1 SWAP3 MSTORE SWAP1 DUP3 ADD MSTORE PUSH1 0x60 DUP2 ADD DUP5 SWAP1 MSTORE PUSH1 0x80 DUP2 ADD DUP4 SWAP1 MSTORE PUSH1 0xA0 DUP2 ADD DUP3 SWAP1 MSTORE CALLER SWAP1 PUSH32 0xD4CA73C532248C12FC93B1DD748B3954751548CAC9A9565697A3849BF7DD3B4C SWAP1 PUSH1 0xC0 ADD JUMPDEST PUSH1 0x40 MLOAD DUP1 SWAP2 SUB SWAP1 LOG2 POP POP POP POP POP POP JUMP JUMPDEST PUSH1 0x74 DUP2 DUP2 SLOAD DUP2 LT PUSH2 0xF35 JUMPI PUSH1 0x0 DUP1 REVERT JUMPDEST PUSH1 0x0 SWAP2 DUP3 MSTORE PUSH1 0x20 SWAP1 SWAP2 KECCAK256 ADD SLOAD PUSH1 0x1 PUSH1 0x1 PUSH1 0xA0 SHL SUB AND SWAP1 POP DUP2 JUMP JUMPDEST PUSH1 0x33 SLOAD PUSH1 0x1 PUSH1 0x1 PUSH1 0xA0 SHL SUB AND CALLER EQ PUSH2 0xF79 JUMPI PUSH1 0x40 MLOAD PUSH3 0x461BCD PUSH1 0xE5 SHL DUP2 MSTORE PUSH1 0x4 ADD PUSH2 0x820 SWAP1 PUSH2 0x1D62 JUMP JUMPDEST PUSH1 0x0 JUMPDEST DUP3 DUP2 LT ISZERO PUSH2 0x9C2 JUMPI DUP2 PUSH1 0x78 PUSH1 0x0 DUP7 DUP7 DUP6 DUP2 DUP2 LT PUSH2 0xF9B JUMPI PUSH2 0xF9B PUSH2 0x1D97 JUMP JUMPDEST SWAP1 POP PUSH1 0x20 MUL ADD PUSH1 0x20 DUP2 ADD SWAP1 PUSH2 0xFB0 SWAP2 SWAP1 PUSH2 0x19B1 JUMP JUMPDEST PUSH1 0x1 PUSH1 0x1 PUSH1 0xA0 SHL SUB AND DUP2 MSTORE PUSH1 0x20 DUP2 ADD SWAP2 SWAP1 SWAP2 MSTORE PUSH1 0x40 ADD PUSH1 0x0 KECCAK256 DUP1 SLOAD PUSH1 0xFF NOT AND SWAP2 ISZERO ISZERO SWAP2 SWAP1 SWAP2 OR SWAP1 SSTORE DUP4 DUP4 DUP3 DUP2 DUP2 LT PUSH2 0xFEA JUMPI PUSH2 0xFEA PUSH2 0x1D97 JUMP JUMPDEST SWAP1 POP PUSH1 0x20 MUL ADD PUSH1 0x20 DUP2 ADD SWAP1 PUSH2 0xFFF SWAP2 SWAP1 PUSH2 0x19B1 JUMP JUMPDEST PUSH1 0x1 PUSH1 0x1 PUSH1 0xA0 SHL SUB AND CALLER PUSH1 0x1 PUSH1 0x1 PUSH1 0xA0 SHL SUB AND PUSH32 0x9E48685292272E85FA3BE83F07779AF7794D29A6EFB26B5F834BFB48E220D370 DUP5 PUSH1 0x40 MLOAD PUSH2 0x1045 SWAP2 ISZERO ISZERO DUP2 MSTORE PUSH1 0x20 ADD SWAP1 JUMP JUMPDEST PUSH1 0x40 MLOAD DUP1 SWAP2 SUB SWAP1 LOG3 DUP1 PUSH2 0x1057 DUP2 PUSH2 0x1DAD JUMP JUMPDEST SWAP2 POP POP PUSH2 0xF7C JUMP JUMPDEST PUSH1 0x33 SLOAD PUSH1 0x1 PUSH1 0x1 PUSH1 0xA0 SHL SUB AND CALLER EQ PUSH2 0x1089 JUMPI PUSH1 0x40 MLOAD PUSH3 0x461BCD PUSH1 0xE5 SHL DUP2 MSTORE PUSH1 0x4 ADD PUSH2 0x820 SWAP1 PUSH2 0x1D62 JUMP JUMPDEST PUSH1 0x40 MLOAD PUSH4 0x3C88345B PUSH1 0xE2 SHL DUP2 MSTORE PUSH1 0x0 PUSH1 0x4 DUP3 ADD MSTORE PUSH1 0x1 PUSH1 0x1 PUSH1 0xA0 SHL SUB DUP3 AND SWAP1 PUSH4 0xF220D16C SWAP1 PUSH1 0x24 ADD PUSH1 0x20 PUSH1 0x40 MLOAD DUP1 DUP4 SUB DUP2 DUP7 GAS STATICCALL ISZERO DUP1 ISZERO PUSH2 0x10CE JUMPI RETURNDATASIZE PUSH1 0x0 DUP1 RETURNDATACOPY RETURNDATASIZE PUSH1 0x0 REVERT JUMPDEST POP POP POP POP PUSH1 0x40 MLOAD RETURNDATASIZE PUSH1 0x1F NOT PUSH1 0x1F DUP3 ADD AND DUP3 ADD DUP1 PUSH1 0x40 MSTORE POP DUP2 ADD SWAP1 PUSH2 0x10F2 SWAP2 SWAP1 PUSH2 0x1E20 JUMP JUMPDEST POP PUSH1 0x7D DUP1 SLOAD PUSH1 0x1 PUSH1 0x1 PUSH1 0xA0 SHL SUB NOT AND PUSH1 0x1 PUSH1 0x1 PUSH1 0xA0 SHL SUB DUP4 AND SWAP1 DUP2 OR SWAP1 SWAP2 SSTORE PUSH1 0x40 MLOAD SWAP1 DUP2 MSTORE CALLER SWAP1 PUSH32 0x1D38DCED3210495AD7EFF4825FD4DD5CC0E44C11C98519840691E5391C78CD15 SWAP1 PUSH1 0x20 ADD PUSH2 0xB91 JUMP JUMPDEST PUSH1 0x33 SLOAD PUSH1 0x1 PUSH1 0x1 PUSH1 0xA0 SHL SUB AND CALLER EQ PUSH2 0x116D JUMPI PUSH1 0x40 MLOAD PUSH3 0x461BCD PUSH1 0xE5 SHL DUP2 MSTORE PUSH1 0x4 ADD PUSH2 0x820 SWAP1 PUSH2 0x1D62 JUMP JUMPDEST PUSH1 0x0 JUMPDEST DUP3 DUP2 LT ISZERO PUSH2 0x9C2 JUMPI DUP2 PUSH1 0x76 PUSH1 0x0 DUP7 DUP7 DUP6 DUP2 DUP2 LT PUSH2 0x118F JUMPI PUSH2 0x118F PUSH2 0x1D97 JUMP JUMPDEST SWAP1 POP PUSH1 0x20 MUL ADD PUSH1 0x20 DUP2 ADD SWAP1 PUSH2 0x11A4 SWAP2 SWAP1 PUSH2 0x19B1 JUMP JUMPDEST PUSH1 0x1 PUSH1 0x1 PUSH1 0xA0 SHL SUB AND DUP2 MSTORE PUSH1 0x20 DUP2 ADD SWAP2 SWAP1 SWAP2 MSTORE PUSH1 0x40 ADD PUSH1 0x0 KECCAK256 DUP1 SLOAD PUSH1 0xFF NOT AND SWAP2 ISZERO ISZERO SWAP2 SWAP1 SWAP2 OR SWAP1 SSTORE DUP4 DUP4 DUP3 DUP2 DUP2 LT PUSH2 0x11DE JUMPI PUSH2 0x11DE PUSH2 0x1D97 JUMP JUMPDEST SWAP1 POP PUSH1 0x20 MUL ADD PUSH1 0x20 DUP2 ADD SWAP1 PUSH2 0x11F3 SWAP2 SWAP1 PUSH2 0x19B1 JUMP JUMPDEST PUSH1 0x1 PUSH1 0x1 PUSH1 0xA0 SHL SUB AND CALLER PUSH1 0x1 PUSH1 0x1 PUSH1 0xA0 SHL SUB AND PUSH32 0xA36D60ECFF7C14072A077A9B05C8C98CFDFBF7B5F8E354A071764C27E5330855 DUP5 PUSH1 0x40 MLOAD PUSH2 0x1239 SWAP2 ISZERO ISZERO DUP2 MSTORE PUSH1 0x20 ADD SWAP1 JUMP JUMPDEST PUSH1 0x40 MLOAD DUP1 SWAP2 SUB SWAP1 LOG3 DUP1 PUSH2 0x124B DUP2 PUSH2 0x1DAD JUMP JUMPDEST SWAP2 POP POP PUSH2 0x1170 JUMP JUMPDEST PUSH1 0x33 SLOAD PUSH1 0x1 PUSH1 0x1 PUSH1 0xA0 SHL SUB AND CALLER EQ PUSH2 0x127D JUMPI PUSH1 0x40 MLOAD PUSH3 0x461BCD PUSH1 0xE5 SHL DUP2 MSTORE PUSH1 0x4 ADD PUSH2 0x820 SWAP1 PUSH2 0x1D62 JUMP JUMPDEST PUSH1 0x7E DUP1 SLOAD PUSH1 0x1 PUSH1 0x1 PUSH1 0xA0 SHL SUB DUP7 DUP2 AND PUSH1 0x1 PUSH1 0x1 PUSH1 0xA0 SHL SUB NOT SWAP3 DUP4 AND DUP2 OR SWAP1 SWAP4 SSTORE PUSH1 0x7F DUP1 SLOAD DUP8 DUP4 AND SWAP1 DUP5 AND DUP2 OR SWAP1 SWAP2 SSTORE PUSH1 0x80 DUP1 SLOAD DUP8 DUP5 AND SWAP1 DUP6 AND DUP2 OR DUP3 SSTORE PUSH1 0x81 DUP1 SLOAD SWAP5 DUP9 AND SWAP5 SWAP1 SWAP6 AND DUP5 OR SWAP1 SWAP5 SSTORE PUSH1 0x40 DUP1 MLOAD SWAP6 DUP7 MSTORE PUSH1 0x20 DUP7 ADD SWAP3 SWAP1 SWAP3 MSTORE SWAP1 DUP5 ADD SWAP3 SWAP1 SWAP3 MSTORE PUSH1 0x60 DUP4 ADD MSTORE CALLER SWAP2 PUSH32 0x11CBCE6C87791F09A7C2108A3ABEA2993AB3DE5C9ED89A0BD108618ECE832B23 SWAP2 ADD PUSH1 0x40 MLOAD DUP1 SWAP2 SUB SWAP1 LOG2 POP POP POP POP JUMP JUMPDEST PUSH1 0x33 SLOAD PUSH1 0x1 PUSH1 0x1 PUSH1 0xA0 SHL SUB AND CALLER EQ PUSH2 0x1342 JUMPI PUSH1 0x40 MLOAD PUSH3 0x461BCD PUSH1 0xE5 SHL DUP2 MSTORE PUSH1 0x4 ADD PUSH2 0x820 SWAP1 PUSH2 0x1D62 JUMP JUMPDEST PUSH2 0x1770 DUP2 GT ISZERO PUSH2 0x1368 JUMPI PUSH1 0x40 MLOAD PUSH4 0x2B14F147 PUSH1 0xE1 SHL DUP2 MSTORE PUSH1 0x4 DUP2 ADD DUP3 SWAP1 MSTORE PUSH1 0x24 ADD PUSH2 0x820 JUMP JUMPDEST PUSH1 0x7B DUP1 SLOAD PUSH1 0x1 PUSH1 0x1 PUSH1 0xA0 SHL SUB NOT AND PUSH1 0x1 PUSH1 0x1 PUSH1 0xA0 SHL SUB DUP5 AND SWAP1 DUP2 OR SWAP1 SWAP2 SSTORE PUSH1 0x7C DUP3 SWAP1 SSTORE PUSH1 0x40 DUP1 MLOAD SWAP2 DUP3 MSTORE PUSH1 0x20 DUP3 ADD DUP4 SWAP1 MSTORE CALLER SWAP2 PUSH32 0x49D9E0CA3AA68AF12938170E0CD7267D832389603122E97B1CC70333942B8D21 SWAP2 ADD PUSH2 0x8A6 JUMP JUMPDEST PUSH1 0x33 SLOAD PUSH1 0x1 PUSH1 0x1 PUSH1 0xA0 SHL SUB AND CALLER EQ PUSH2 0x13ED JUMPI PUSH1 0x40 MLOAD PUSH3 0x461BCD PUSH1 0xE5 SHL DUP2 MSTORE PUSH1 0x4 ADD PUSH2 0x820 SWAP1 PUSH2 0x1D62 JUMP JUMPDEST PUSH1 0x84 DUP1 SLOAD PUSH1 0x1 PUSH1 0x1 PUSH1 0xA0 SHL SUB DUP6 DUP2 AND PUSH1 0x1 PUSH1 0x1 PUSH1 0xA0 SHL SUB NOT SWAP3 DUP4 AND DUP2 OR SWAP1 SWAP4 SSTORE PUSH1 0x85 DUP1 SLOAD DUP7 DUP4 AND SWAP1 DUP5 AND DUP2 OR SWAP1 SWAP2 SSTORE PUSH1 0x86 DUP1 SLOAD SWAP3 DUP7 AND SWAP3 SWAP1 SWAP4 AND DUP3 OR SWAP1 SWAP3 SSTORE PUSH1 0x40 DUP1 MLOAD SWAP4 DUP5 MSTORE PUSH1 0x20 DUP5 ADD SWAP3 SWAP1 SWAP3 MSTORE SWAP1 DUP3 ADD MSTORE CALLER SWAP1 PUSH32 0x4AAF8791C546D8D1000B9D104834F06EEA9B95C08F81C36F7EEE152623EDF4AE SWAP1 PUSH1 0x60 ADD PUSH1 0x40 MLOAD DUP1 SWAP2 SUB SWAP1 LOG2 POP POP POP JUMP JUMPDEST PUSH1 0x7E SLOAD PUSH1 0x0 SWAP1 PUSH1 0x1 PUSH1 0x1 PUSH1 0xA0 SHL SUB DUP4 DUP2 AND SWAP2 AND EQ DUP1 PUSH2 0x149F JUMPI POP PUSH1 0x7F SLOAD PUSH1 0x1 PUSH1 0x1 PUSH1 0xA0 SHL SUB DUP4 DUP2 AND SWAP2 AND EQ JUMPDEST DUP1 PUSH2 0x14B7 JUMPI POP PUSH1 0x80 SLOAD PUSH1 0x1 PUSH1 0x1 PUSH1 0xA0 SHL SUB DUP4 DUP2 AND SWAP2 AND EQ JUMPDEST DUP1 PUSH2 0x14CF JUMPI POP PUSH1 0x81 SLOAD PUSH1 0x1 PUSH1 0x1 PUSH1 0xA0 SHL SUB DUP4 DUP2 AND SWAP2 AND EQ JUMPDEST SWAP3 SWAP2 POP POP JUMP JUMPDEST PUSH1 0x33 SLOAD PUSH1 0x1 PUSH1 0x1 PUSH1 0xA0 SHL SUB AND CALLER EQ PUSH2 0x14FF JUMPI PUSH1 0x40 MLOAD PUSH3 0x461BCD PUSH1 0xE5 SHL DUP2 MSTORE PUSH1 0x4 ADD PUSH2 0x820 SWAP1 PUSH2 0x1D62 JUMP JUMPDEST PUSH2 0x3E8 DUP6 GT DUP1 PUSH2 0x1510 JUMPI POP PUSH2 0x3E8 DUP4 GT JUMPDEST DUP1 PUSH2 0x151E JUMPI POP PUSH4 0xBD014D7E DUP2 GT JUMPDEST ISZERO PUSH2 0x154D JUMPI PUSH1 0x40 MLOAD PUSH4 0x4B873B29 PUSH1 0xE1 SHL DUP2 MSTORE PUSH1 0x4 DUP2 ADD DUP7 SWAP1 MSTORE PUSH1 0x24 DUP2 ADD DUP5 SWAP1 MSTORE PUSH1 0x44 DUP2 ADD DUP3 SWAP1 MSTORE PUSH1 0x64 ADD PUSH2 0x820 JUMP JUMPDEST PUSH1 0x6C DUP1 SLOAD PUSH1 0x1 PUSH1 0x1 PUSH1 0xA0 SHL SUB DUP9 DUP2 AND PUSH1 0x1 PUSH1 0x1 PUSH1 0xA0 SHL SUB NOT SWAP3 DUP4 AND OR SWAP1 SWAP3 SSTORE PUSH1 0x6D DUP8 SWAP1 SSTORE PUSH1 0x6E DUP1 SLOAD DUP8 DUP5 AND SWAP1 DUP4 AND OR SWAP1 SSTORE PUSH1 0x6F DUP6 SWAP1 SSTORE PUSH1 0x70 DUP1 SLOAD SWAP3 DUP6 AND SWAP3 SWAP1 SWAP2 AND SWAP2 SWAP1 SWAP2 OR SWAP1 SSTORE PUSH1 0x71 DUP2 SWAP1 SSTORE PUSH1 0x40 DUP1 MLOAD DUP7 DUP2 MSTORE PUSH1 0x20 DUP2 ADD DUP6 SWAP1 MSTORE SWAP1 DUP2 ADD DUP3 SWAP1 MSTORE CALLER SWAP1 PUSH32 0xC4D5650477CD4354E9A07E898DF55ABE6FECEC3E415531E27A8499597B462BE2 SWAP1 PUSH1 0x60 ADD PUSH1 0x40 MLOAD DUP1 SWAP2 SUB SWAP1 LOG2 PUSH1 0x40 DUP1 MLOAD PUSH1 0x1 PUSH1 0x1 PUSH1 0xA0 SHL SUB DUP9 DUP2 AND DUP3 MSTORE DUP7 DUP2 AND PUSH1 0x20 DUP4 ADD MSTORE DUP5 AND SWAP2 DUP2 ADD SWAP2 SWAP1 SWAP2 MSTORE CALLER SWAP1 PUSH32 0x6EBCBF01234512B5D15E025B0AA6BD7514D7F7690B4FF5B260BEA6B9AAC29E0F SWAP1 PUSH1 0x60 ADD PUSH2 0xF15 JUMP JUMPDEST PUSH1 0x33 SLOAD PUSH1 0x1 PUSH1 0x1 PUSH1 0xA0 SHL SUB AND CALLER EQ PUSH2 0x1654 JUMPI PUSH1 0x40 MLOAD PUSH3 0x461BCD PUSH1 0xE5 SHL DUP2 MSTORE PUSH1 0x4 ADD PUSH2 0x820 SWAP1 PUSH2 0x1D62 JUMP JUMPDEST PUSH1 0x1 PUSH1 0x1 PUSH1 0xA0 SHL SUB DUP2 AND PUSH2 0x16B9 JUMPI PUSH1 0x40 MLOAD PUSH3 0x461BCD PUSH1 0xE5 SHL DUP2 MSTORE PUSH1 0x20 PUSH1 0x4 DUP3 ADD MSTORE PUSH1 0x26 PUSH1 0x24 DUP3 ADD MSTORE PUSH32 0x4F776E61626C653A206E6577206F776E657220697320746865207A65726F2061 PUSH1 0x44 DUP3 ADD MSTORE PUSH6 0x646472657373 PUSH1 0xD0 SHL PUSH1 0x64 DUP3 ADD MSTORE PUSH1 0x84 ADD PUSH2 0x820 JUMP JUMPDEST PUSH2 0x16C2 DUP2 PUSH2 0x1876 JUMP JUMPDEST POP JUMP JUMPDEST PUSH1 0x60 PUSH1 0x74 DUP1 SLOAD DUP1 PUSH1 0x20 MUL PUSH1 0x20 ADD PUSH1 0x40 MLOAD SWAP1 DUP2 ADD PUSH1 0x40 MSTORE DUP1 SWAP3 SWAP2 SWAP1 DUP2 DUP2 MSTORE PUSH1 0x20 ADD DUP3 DUP1 SLOAD DUP1 ISZERO PUSH2 0x171D JUMPI PUSH1 0x20 MUL DUP3 ADD SWAP2 SWAP1 PUSH1 0x0 MSTORE PUSH1 0x20 PUSH1 0x0 KECCAK256 SWAP1 JUMPDEST DUP2 SLOAD PUSH1 0x1 PUSH1 0x1 PUSH1 0xA0 SHL SUB AND DUP2 MSTORE PUSH1 0x1 SWAP1 SWAP2 ADD SWAP1 PUSH1 0x20 ADD DUP1 DUP4 GT PUSH2 0x16FF JUMPI JUMPDEST POP POP POP POP POP SWAP1 POP SWAP1 JUMP JUMPDEST PUSH1 0x33 SLOAD PUSH1 0x1 PUSH1 0x1 PUSH1 0xA0 SHL SUB AND CALLER EQ PUSH2 0x1751 JUMPI PUSH1 0x40 MLOAD PUSH3 0x461BCD PUSH1 0xE5 SHL DUP2 MSTORE PUSH1 0x4 ADD PUSH2 0x820 SWAP1 PUSH2 0x1D62 JUMP JUMPDEST PUSH1 0x3 PUSH1 0xFF DUP3 AND LT ISZERO PUSH2 0x1776 JUMPI PUSH1 0x40 MLOAD PUSH4 0x279A13C3 PUSH1 0xE1 SHL DUP2 MSTORE PUSH1 0x4 ADD PUSH1 0x40 MLOAD DUP1 SWAP2 SUB SWAP1 REVERT JUMPDEST PUSH1 0x72 DUP1 SLOAD PUSH1 0xFF NOT AND PUSH1 0xFF DUP4 AND SWAP1 DUP2 OR SWAP1 SWAP2 SSTORE PUSH1 0x40 MLOAD SWAP1 DUP2 MSTORE CALLER SWAP1 PUSH32 0x162496FC30AED361442504CDD534D5911E2997E66EB97F7455486C9476C8BFB SWAP1 PUSH1 0x20 ADD PUSH2 0xB91 JUMP JUMPDEST PUSH1 0x0 DUP1 SLOAD PUSH2 0x100 SWAP1 DIV PUSH1 0xFF AND ISZERO PUSH2 0x1801 JUMPI DUP2 PUSH1 0xFF AND PUSH1 0x1 EQ DUP1 ISZERO PUSH2 0x17DD JUMPI POP ADDRESS EXTCODESIZE ISZERO JUMPDEST PUSH2 0x17F9 JUMPI PUSH1 0x40 MLOAD PUSH3 0x461BCD PUSH1 0xE5 SHL DUP2 MSTORE PUSH1 0x4 ADD PUSH2 0x820 SWAP1 PUSH2 0x1E39 JUMP JUMPDEST POP PUSH1 0x0 SWAP2 SWAP1 POP JUMP JUMPDEST PUSH1 0x0 SLOAD PUSH1 0xFF DUP1 DUP5 AND SWAP2 AND LT PUSH2 0x1828 JUMPI PUSH1 0x40 MLOAD PUSH3 0x461BCD PUSH1 0xE5 SHL DUP2 MSTORE PUSH1 0x4 ADD PUSH2 0x820 SWAP1 PUSH2 0x1E39 JUMP JUMPDEST POP PUSH1 0x0 DUP1 SLOAD PUSH1 0xFF NOT AND PUSH1 0xFF SWAP3 SWAP1 SWAP3 AND SWAP2 SWAP1 SWAP2 OR SWAP1 SSTORE PUSH1 0x1 SWAP1 JUMP JUMPDEST SWAP2 SWAP1 POP JUMP JUMPDEST PUSH1 0x0 SLOAD PUSH2 0x100 SWAP1 DIV PUSH1 0xFF AND PUSH2 0x186E JUMPI PUSH1 0x40 MLOAD PUSH3 0x461BCD PUSH1 0xE5 SHL DUP2 MSTORE PUSH1 0x4 ADD PUSH2 0x820 SWAP1 PUSH2 0x1E87 JUMP JUMPDEST PUSH2 0xE4B PUSH2 0x18C8 JUMP JUMPDEST PUSH1 0x33 DUP1 SLOAD PUSH1 0x1 PUSH1 0x1 PUSH1 0xA0 SHL SUB DUP4 DUP2 AND PUSH1 0x1 PUSH1 0x1 PUSH1 0xA0 SHL SUB NOT DUP4 AND DUP2 OR SWAP1 SWAP4 SSTORE PUSH1 0x40 MLOAD SWAP2 AND SWAP2 SWAP1 DUP3 SWAP1 PUSH32 0x8BE0079C531659141344CD1FD0A4F28419497F9722A3DAAFE3B4186F6B6457E0 SWAP1 PUSH1 0x0 SWAP1 LOG3 POP POP JUMP JUMPDEST PUSH1 0x0 SLOAD PUSH2 0x100 SWAP1 DIV PUSH1 0xFF AND PUSH2 0x18EF JUMPI PUSH1 0x40 MLOAD PUSH3 0x461BCD PUSH1 0xE5 SHL DUP2 MSTORE PUSH1 0x4 ADD PUSH2 0x820 SWAP1 PUSH2 0x1E87 JUMP JUMPDEST PUSH2 0xE4B CALLER PUSH2 0x1876 JUMP JUMPDEST DUP3 DUP1 SLOAD DUP3 DUP3 SSTORE SWAP1 PUSH1 0x0 MSTORE PUSH1 0x20 PUSH1 0x0 KECCAK256 SWAP1 DUP2 ADD SWAP3 DUP3 ISZERO PUSH2 0x194B JUMPI SWAP2 PUSH1 0x20 MUL DUP3 ADD JUMPDEST DUP3 DUP2 GT ISZERO PUSH2 0x194B JUMPI DUP2 SLOAD PUSH1 0x1 PUSH1 0x1 PUSH1 0xA0 SHL SUB NOT AND PUSH1 0x1 PUSH1 0x1 PUSH1 0xA0 SHL SUB DUP5 CALLDATALOAD AND OR DUP3 SSTORE PUSH1 0x20 SWAP1 SWAP3 ADD SWAP2 PUSH1 0x1 SWAP1 SWAP2 ADD SWAP1 PUSH2 0x1918 JUMP JUMPDEST POP PUSH2 0x1957 SWAP3 SWAP2 POP PUSH2 0x195B JUMP JUMPDEST POP SWAP1 JUMP JUMPDEST JUMPDEST DUP1 DUP3 GT ISZERO PUSH2 0x1957 JUMPI PUSH1 0x0 DUP2 SSTORE PUSH1 0x1 ADD PUSH2 0x195C JUMP JUMPDEST DUP1 CALLDATALOAD PUSH1 0x1 PUSH1 0x1 PUSH1 0xA0 SHL SUB DUP2 AND DUP2 EQ PUSH2 0x1842 JUMPI PUSH1 0x0 DUP1 REVERT JUMPDEST PUSH1 0x0 DUP1 PUSH1 0x40 DUP4 DUP6 SUB SLT ISZERO PUSH2 0x199A JUMPI PUSH1 0x0 DUP1 REVERT JUMPDEST PUSH2 0x19A3 DUP4 PUSH2 0x1970 JUMP JUMPDEST SWAP5 PUSH1 0x20 SWAP4 SWAP1 SWAP4 ADD CALLDATALOAD SWAP4 POP POP POP JUMP JUMPDEST PUSH1 0x0 PUSH1 0x20 DUP3 DUP5 SUB SLT ISZERO PUSH2 0x19C3 JUMPI PUSH1 0x0 DUP1 REVERT JUMPDEST PUSH2 0x19CC DUP3 PUSH2 0x1970 JUMP JUMPDEST SWAP4 SWAP3 POP POP POP JUMP JUMPDEST PUSH1 0x0 DUP1 DUP4 PUSH1 0x1F DUP5 ADD SLT PUSH2 0x19E5 JUMPI PUSH1 0x0 DUP1 REVERT JUMPDEST POP DUP2 CALLDATALOAD PUSH8 0xFFFFFFFFFFFFFFFF DUP2 GT ISZERO PUSH2 0x19FD JUMPI PUSH1 0x0 DUP1 REVERT JUMPDEST PUSH1 0x20 DUP4 ADD SWAP2 POP DUP4 PUSH1 0x20 DUP3 PUSH1 0x5 SHL DUP6 ADD ADD GT ISZERO PUSH2 0x1A18 JUMPI PUSH1 0x0 DUP1 REVERT JUMPDEST SWAP3 POP SWAP3 SWAP1 POP JUMP JUMPDEST PUSH1 0x0 DUP1 PUSH1 0x0 PUSH1 0x40 DUP5 DUP7 SUB SLT ISZERO PUSH2 0x1A34 JUMPI PUSH1 0x0 DUP1 REVERT JUMPDEST DUP4 CALLDATALOAD PUSH8 0xFFFFFFFFFFFFFFFF DUP2 GT ISZERO PUSH2 0x1A4B JUMPI PUSH1 0x0 DUP1 REVERT JUMPDEST PUSH2 0x1A57 DUP7 DUP3 DUP8 ADD PUSH2 0x19D3 JUMP JUMPDEST SWAP1 SWAP5 POP SWAP3 POP POP PUSH1 0x20 DUP5 ADD CALLDATALOAD DUP1 ISZERO ISZERO DUP2 EQ PUSH2 0x1A70 JUMPI PUSH1 0x0 DUP1 REVERT JUMPDEST DUP1 SWAP2 POP POP SWAP3 POP SWAP3 POP SWAP3 JUMP JUMPDEST PUSH1 0x0 PUSH1 0x20 DUP3 DUP5 SUB SLT ISZERO PUSH2 0x1A8D JUMPI PUSH1 0x0 DUP1 REVERT JUMPDEST POP CALLDATALOAD SWAP2 SWAP1 POP JUMP JUMPDEST PUSH1 0x0 DUP1 PUSH1 0x20 DUP4 DUP6 SUB SLT ISZERO PUSH2 0x1AA7 JUMPI PUSH1 0x0 DUP1 REVERT JUMPDEST DUP3 CALLDATALOAD PUSH8 0xFFFFFFFFFFFFFFFF DUP2 GT ISZERO PUSH2 0x1ABE JUMPI PUSH1 0x0 DUP1 REVERT JUMPDEST PUSH2 0x1ACA DUP6 DUP3 DUP7 ADD PUSH2 0x19D3 JUMP JUMPDEST SWAP1 SWAP7 SWAP1 SWAP6 POP SWAP4 POP POP POP POP JUMP JUMPDEST PUSH1 0x0 DUP1 PUSH1 0x0 DUP1 PUSH1 0x0 DUP1 PUSH1 0x0 DUP1 PUSH1 0x0 DUP1 PUSH2 0x140 DUP12 DUP14 SUB SLT ISZERO PUSH2 0x1AF6 JUMPI PUSH1 0x0 DUP1 REVERT JUMPDEST PUSH2 0x1AFF DUP12 PUSH2 0x1970 JUMP JUMPDEST SWAP10 POP PUSH2 0x1B0D PUSH1 0x20 DUP13 ADD PUSH2 0x1970 JUMP JUMPDEST SWAP9 POP PUSH2 0x1B1B PUSH1 0x40 DUP13 ADD PUSH2 0x1970 JUMP JUMPDEST SWAP8 POP PUSH1 0x60 DUP12 ADD CALLDATALOAD SWAP7 POP PUSH1 0x80 DUP12 ADD CALLDATALOAD SWAP6 POP PUSH1 0xA0 DUP12 ADD CALLDATALOAD SWAP5 POP PUSH2 0x1B3E PUSH1 0xC0 DUP13 ADD PUSH2 0x1970 JUMP JUMPDEST SWAP4 POP PUSH2 0x1B4C PUSH1 0xE0 DUP13 ADD PUSH2 0x1970 JUMP JUMPDEST SWAP3 POP PUSH2 0x1B5B PUSH2 0x100 DUP13 ADD PUSH2 0x1970 JUMP JUMPDEST SWAP2 POP PUSH2 0x1B6A PUSH2 0x120 DUP13 ADD PUSH2 0x1970 JUMP JUMPDEST SWAP1 POP SWAP3 SWAP6 SWAP9 SWAP12 SWAP2 SWAP5 SWAP8 SWAP11 POP SWAP3 SWAP6 SWAP9 POP JUMP JUMPDEST PUSH1 0x0 DUP1 PUSH1 0x40 DUP4 DUP6 SUB SLT ISZERO PUSH2 0x1B8E JUMPI PUSH1 0x0 DUP1 REVERT JUMPDEST POP POP DUP1 CALLDATALOAD SWAP3 PUSH1 0x20 SWAP1 SWAP2 ADD CALLDATALOAD SWAP2 POP JUMP JUMPDEST PUSH1 0x0 DUP1 PUSH1 0x0 DUP1 PUSH1 0x0 DUP1 PUSH1 0xC0 DUP8 DUP10 SUB SLT ISZERO PUSH2 0x1BB6 JUMPI PUSH1 0x0 DUP1 REVERT JUMPDEST PUSH2 0x1BBF DUP8 PUSH2 0x1970 JUMP JUMPDEST SWAP6 POP PUSH2 0x1BCD PUSH1 0x20 DUP9 ADD PUSH2 0x1970 JUMP JUMPDEST SWAP5 POP PUSH2 0x1BDB PUSH1 0x40 DUP9 ADD PUSH2 0x1970 JUMP JUMPDEST SWAP4 POP PUSH1 0x60 DUP8 ADD CALLDATALOAD SWAP3 POP PUSH1 0x80 DUP8 ADD CALLDATALOAD SWAP2 POP PUSH1 0xA0 DUP8 ADD CALLDATALOAD SWAP1 POP SWAP3 SWAP6 POP SWAP3 SWAP6 POP SWAP3 SWAP6 JUMP JUMPDEST PUSH1 0x0 DUP1 PUSH1 0x0 DUP1 PUSH1 0x80 DUP6 DUP8 SUB SLT ISZERO PUSH2 0x1C12 JUMPI PUSH1 0x0 DUP1 REVERT JUMPDEST PUSH2 0x1C1B DUP6 PUSH2 0x1970 JUMP JUMPDEST SWAP4 POP PUSH2 0x1C29 PUSH1 0x20 DUP7 ADD PUSH2 0x1970 JUMP JUMPDEST SWAP3 POP PUSH2 0x1C37 PUSH1 0x40 DUP7 ADD PUSH2 0x1970 JUMP JUMPDEST SWAP2 POP PUSH2 0x1C45 PUSH1 0x60 DUP7 ADD PUSH2 0x1970 JUMP JUMPDEST SWAP1 POP SWAP3 SWAP6 SWAP2 SWAP5 POP SWAP3 POP JUMP JUMPDEST PUSH1 0x0 DUP1 PUSH1 0x0 PUSH1 0x60 DUP5 DUP7 SUB SLT ISZERO PUSH2 0x1C65 JUMPI PUSH1 0x0 DUP1 REVERT JUMPDEST PUSH2 0x1C6E DUP5 PUSH2 0x1970 JUMP JUMPDEST SWAP3 POP PUSH2 0x1C7C PUSH1 0x20 DUP6 ADD PUSH2 0x1970 JUMP JUMPDEST SWAP2 POP PUSH2 0x1C8A PUSH1 0x40 DUP6 ADD PUSH2 0x1970 JUMP JUMPDEST SWAP1 POP SWAP3 POP SWAP3 POP SWAP3 JUMP JUMPDEST PUSH1 0x0 DUP1 PUSH1 0x0 DUP1 PUSH1 0x0 DUP1 PUSH1 0xC0 DUP8 DUP10 SUB SLT ISZERO PUSH2 0x1CAC JUMPI PUSH1 0x0 DUP1 REVERT JUMPDEST PUSH2 0x1CB5 DUP8 PUSH2 0x1970 JUMP JUMPDEST SWAP6 POP PUSH1 0x20 DUP8 ADD CALLDATALOAD SWAP5 POP PUSH2 0x1CCA PUSH1 0x40 DUP9 ADD PUSH2 0x1970 JUMP JUMPDEST SWAP4 POP PUSH1 0x60 DUP8 ADD CALLDATALOAD SWAP3 POP PUSH2 0x1CDF PUSH1 0x80 DUP9 ADD PUSH2 0x1970 JUMP JUMPDEST SWAP2 POP PUSH1 0xA0 DUP8 ADD CALLDATALOAD SWAP1 POP SWAP3 SWAP6 POP SWAP3 SWAP6 POP SWAP3 SWAP6 JUMP JUMPDEST PUSH1 0x20 DUP1 DUP3 MSTORE DUP3 MLOAD DUP3 DUP3 ADD DUP2 SWAP1 MSTORE PUSH1 0x0 SWAP2 SWAP1 DUP5 DUP3 ADD SWAP1 PUSH1 0x40 DUP6 ADD SWAP1 DUP5 JUMPDEST DUP2 DUP2 LT ISZERO PUSH2 0x1D33 JUMPI DUP4 MLOAD PUSH1 0x1 PUSH1 0x1 PUSH1 0xA0 SHL SUB AND DUP4 MSTORE SWAP3 DUP5 ADD SWAP3 SWAP2 DUP5 ADD SWAP2 PUSH1 0x1 ADD PUSH2 0x1D0E JUMP JUMPDEST POP SWAP1 SWAP7 SWAP6 POP POP POP POP POP POP JUMP JUMPDEST PUSH1 0x0 PUSH1 0x20 DUP3 DUP5 SUB SLT ISZERO PUSH2 0x1D51 JUMPI PUSH1 0x0 DUP1 REVERT JUMPDEST DUP2 CALLDATALOAD PUSH1 0xFF DUP2 AND DUP2 EQ PUSH2 0x19CC JUMPI PUSH1 0x0 DUP1 REVERT JUMPDEST PUSH1 0x20 DUP1 DUP3 MSTORE DUP2 DUP2 ADD MSTORE PUSH32 0x4F776E61626C653A2063616C6C6572206973206E6F7420746865206F776E6572 PUSH1 0x40 DUP3 ADD MSTORE PUSH1 0x60 ADD SWAP1 JUMP JUMPDEST PUSH4 0x4E487B71 PUSH1 0xE0 SHL PUSH1 0x0 MSTORE PUSH1 0x32 PUSH1 0x4 MSTORE PUSH1 0x24 PUSH1 0x0 REVERT JUMPDEST PUSH1 0x0 PUSH1 0x1 DUP3 ADD PUSH2 0x1DCD JUMPI PUSH4 0x4E487B71 PUSH1 0xE0 SHL PUSH1 0x0 MSTORE PUSH1 0x11 PUSH1 0x4 MSTORE PUSH1 0x24 PUSH1 0x0 REVERT JUMPDEST POP PUSH1 0x1 ADD SWAP1 JUMP JUMPDEST PUSH1 0x20 DUP1 DUP3 MSTORE DUP2 DUP2 ADD DUP4 SWAP1 MSTORE PUSH1 0x0 SWAP1 DUP5 PUSH1 0x40 DUP5 ADD DUP4 JUMPDEST DUP7 DUP2 LT ISZERO PUSH2 0x1E15 JUMPI PUSH1 0x1 PUSH1 0x1 PUSH1 0xA0 SHL SUB PUSH2 0x1E02 DUP5 PUSH2 0x1970 JUMP JUMPDEST AND DUP3 MSTORE SWAP2 DUP4 ADD SWAP2 SWAP1 DUP4 ADD SWAP1 PUSH1 0x1 ADD PUSH2 0x1DE9 JUMP JUMPDEST POP SWAP7 SWAP6 POP POP POP POP POP POP JUMP JUMPDEST PUSH1 0x0 PUSH1 0x20 DUP3 DUP5 SUB SLT ISZERO PUSH2 0x1E32 JUMPI PUSH1 0x0 DUP1 REVERT JUMPDEST POP MLOAD SWAP2 SWAP1 POP JUMP JUMPDEST PUSH1 0x20 DUP1 DUP3 MSTORE PUSH1 0x2E SWAP1 DUP3 ADD MSTORE PUSH32 0x496E697469616C697A61626C653A20636F6E747261637420697320616C726561 PUSH1 0x40 DUP3 ADD MSTORE PUSH14 0x191E481A5B9A5D1A585B1A5E9959 PUSH1 0x92 SHL PUSH1 0x60 DUP3 ADD MSTORE PUSH1 0x80 ADD SWAP1 JUMP JUMPDEST PUSH1 0x20 DUP1 DUP3 MSTORE PUSH1 0x2B SWAP1 DUP3 ADD MSTORE PUSH32 0x496E697469616C697A61626C653A20636F6E7472616374206973206E6F742069 PUSH1 0x40 DUP3 ADD MSTORE PUSH11 0x6E697469616C697A696E67 PUSH1 0xA8 SHL PUSH1 0x60 DUP3 ADD MSTORE PUSH1 0x80 ADD SWAP1 JUMP INVALID LOG2 PUSH5 0x6970667358 0x22 SLT KECCAK256 SWAP13 0xA8 0xDD PUSH29 0xAE10FD0CEEA443A3032F42612CC08C36BBA6CF5A0EF69C690CA0EA7B64 PUSH20 0x6F6C634300080D00330000000000000000000000 "
		},
		"gasEstimates": {
			"creation": {
				"codeDepositCost": "1588800",
				"executionCost": "1666",
				"totalCost": "1590466"
			},
			"external": {
				"alpacaBeneficiary()": "2427",
				"alpacaBeneficiaryBps()": "2395",
				"alpacaBountyBps()": "2418",
				"alpacaReinvestFeeTreasury()": "2427",
				"alpacaToken()": "2481",
				"assetAddTwoSideStrategy()": "2429",
				"controller()": "2403",
				"debtRatioTolerance()": "2418",
				"depositExecutor()": "2405",
				"depositFeeBps()": "2396",
				"depositFeeTreasury()": "2470",
				"fairLaunchAddr()": "2449",
				"feeExemptedCallers(address)": "2644",
				"getReinvestPath()": "infinite",
				"getSwapRouter()": "2470",
				"getWNativeRelayer()": "2405",
				"getWrappedNativeAddr()": "2404",
				"initialize(address,address,address,uint256,uint256,uint256,address,address,address,address)": "infinite",
				"isExecutor(address)": "9049",
				"isVaultSizeAcceptable(uint256)": "2517",
				"leverageLevel()": "2402",
				"managementFeePerSec()": "2351",
				"managementFeeTreasury()": "2449",
				"maxVaultPositionValue()": "2397",
				"owner()": "2444",
				"partialCloseMinimizeStrategy()": "2471",
				"positionValueTolerance()": "2372",
				"rebalanceExecutor()": "2449",
				"rebalanceFactor()": "2374",
				"reinvestExecutor()": "2450",
				"reinvestPath(uint256)": "4682",
				"renounceOwnership()": "28228",
				"setAlpacaBeneficiaryConfig(address,uint256)": "50702",
				"setAlpacaBountyConfig(address,uint256)": "50694",
				"setController(address)": "infinite",
				"setExecutor(address,address,address,address)": "infinite",
				"setFeeExemptedCallers(address[],bool)": "infinite",
				"setFees(address,uint256,address,uint256,address,uint256)": "infinite",
				"setLeverageLevel(uint8)": "28227",
				"setParams(address,address,address,uint256,uint256,uint256)": "infinite",
				"setReinvestPath(address[])": "infinite",
				"setStrategies(address,address,address)": "infinite",
				"setSwapConfig(uint256,uint256)": "48421",
				"setSwapRouter(address)": "28248",
				"setValueLimit(uint256)": "26055",
				"setWhitelistedCallers(address[],bool)": "infinite",
				"setWhitelistedRebalancer(address[],bool)": "infinite",
				"setwhitelistedReinvestors(address[],bool)": "infinite",
				"stableAddTwoSideStrategy()": "2406",
				"swapFee()": "2375",
				"swapFeeDenom()": "2374",
				"transferOwnership(address)": "28401",
				"whitelistedCallers(address)": "2663",
				"whitelistedRebalancers(address)": "2600",
				"whitelistedReinvestors(address)": "2600",
				"withdrawExecutor()": "2472",
				"withdrawalFeeBps()": "2354",
				"withdrawalFeeTreasury()": "2404"
			}
		},
		"methodIdentifiers": {
			"alpacaBeneficiary()": "a361f404",
			"alpacaBeneficiaryBps()": "f52c6764",
			"alpacaBountyBps()": "956c9da0",
			"alpacaReinvestFeeTreasury()": "595d4ece",
			"alpacaToken()": "bed65bae",
			"assetAddTwoSideStrategy()": "0573f19c",
			"controller()": "f77c4791",
			"debtRatioTolerance()": "64facdd5",
			"depositExecutor()": "58d4c4ea",
			"depositFeeBps()": "ab879827",
			"depositFeeTreasury()": "eea99787",
			"fairLaunchAddr()": "5c23aed6",
			"feeExemptedCallers(address)": "3924f233",
			"getReinvestPath()": "f679eda1",
			"getSwapRouter()": "725c9c49",
			"getWNativeRelayer()": "d1783fa8",
			"getWrappedNativeAddr()": "ef3bac5e",
			"initialize(address,address,address,uint256,uint256,uint256,address,address,address,address)": "64c65705",
			"isExecutor(address)": "debfda30",
			"isVaultSizeAcceptable(uint256)": "35824061",
			"leverageLevel()": "e592c5fa",
			"managementFeePerSec()": "b192362a",
			"managementFeeTreasury()": "45b61b00",
			"maxVaultPositionValue()": "56fc97a0",
			"owner()": "8da5cb5b",
			"partialCloseMinimizeStrategy()": "49b2045c",
			"positionValueTolerance()": "f9bfd907",
			"rebalanceExecutor()": "d77ab72d",
			"rebalanceFactor()": "62969467",
			"reinvestExecutor()": "1c425a45",
			"reinvestPath(uint256)": "8ed5bb92",
			"renounceOwnership()": "715018a6",
			"setAlpacaBeneficiaryConfig(address,uint256)": "b9059d73",
			"setAlpacaBountyConfig(address,uint256)": "1218cf18",
			"setController(address)": "92eefe9b",
			"setExecutor(address,address,address,address)": "b8e09260",
			"setFeeExemptedCallers(address[],bool)": "2ce2a218",
			"setFees(address,uint256,address,uint256,address,uint256)": "e6abb8bd",
			"setLeverageLevel(uint8)": "fe865db9",
			"setParams(address,address,address,uint256,uint256,uint256)": "8c8a4b58",
			"setReinvestPath(address[])": "6155501b",
			"setStrategies(address,address,address)": "d4f3949a",
			"setSwapConfig(uint256,uint256)": "6a5bf606",
			"setSwapRouter(address)": "41273657",
			"setValueLimit(uint256)": "60bdf9e5",
			"setWhitelistedCallers(address[],bool)": "1bb8c61d",
			"setWhitelistedRebalancer(address[],bool)": "9e1b8fa2",
			"setwhitelistedReinvestors(address[],bool)": "91ba87d8",
			"stableAddTwoSideStrategy()": "79d37981",
			"swapFee()": "54cf2aeb",
			"swapFeeDenom()": "429e0971",
			"transferOwnership(address)": "f2fde38b",
			"whitelistedCallers(address)": "ffc97ce9",
			"whitelistedRebalancers(address)": "4f40e368",
			"whitelistedReinvestors(address)": "12440ccb",
			"withdrawExecutor()": "235ec73d",
			"withdrawalFeeBps()": "04336bb3",
			"withdrawalFeeTreasury()": "698d92cb"
		}
	},
	"abi": [
		{
			"inputs": [],
			"name": "DeltaNeutralVaultConfig_InvalidReinvestPath",
			"type": "error"
		},
		{
			"inputs": [],
			"name": "DeltaNeutralVaultConfig_InvalidReinvestPathLength",
			"type": "error"
		},
		{
			"inputs": [],
			"name": "DeltaNeutralVaultConfig_InvalidSwapRouter",
			"type": "error"
		},
		{
			"inputs": [],
			"name": "DeltaNeutralVaultConfig_LeverageLevelTooLow",
			"type": "error"
		},
		{
			"inputs": [
				{
					"internalType": "uint256",
					"name": "_bounty",
					"type": "uint256"
				}
			],
			"name": "DeltaNeutralVaultConfig_TooMuchBounty",
			"type": "error"
		},
		{
			"inputs": [
				{
					"internalType": "uint256",
					"name": "_depositFeeBps",
					"type": "uint256"
				},
				{
					"internalType": "uint256",
					"name": "_withdrawalFeeBps",
					"type": "uint256"
				},
				{
					"internalType": "uint256",
					"name": "_mangementFeeBps",
					"type": "uint256"
				}
			],
			"name": "DeltaNeutralVaultConfig_TooMuchFee",
			"type": "error"
		},
		{
			"anonymous": false,
			"inputs": [
				{
					"indexed": false,
					"internalType": "uint8",
					"name": "version",
					"type": "uint8"
				}
			],
			"name": "Initialized",
			"type": "event"
		},
		{
			"anonymous": false,
			"inputs": [
				{
					"indexed": true,
					"internalType": "address",
					"name": "_caller",
					"type": "address"
				},
				{
					"indexed": false,
					"internalType": "address",
					"name": "_alpacaBeneficiary",
					"type": "address"
				},
				{
					"indexed": false,
					"internalType": "uint256",
					"name": "_alpacaBeneficiaryBps",
					"type": "uint256"
				}
			],
			"name": "LogSetAlpacaBeneficiaryConfig",
			"type": "event"
		},
		{
			"anonymous": false,
			"inputs": [
				{
					"indexed": true,
					"internalType": "address",
					"name": "_caller",
					"type": "address"
				},
				{
					"indexed": false,
					"internalType": "address",
					"name": "_alpacaReinvestTreasury",
					"type": "address"
				},
				{
					"indexed": false,
					"internalType": "uint256",
					"name": "_alpacaBountyBps",
					"type": "uint256"
				}
			],
			"name": "LogSetAlpacaBountyConfig",
			"type": "event"
		},
		{
			"anonymous": false,
			"inputs": [
				{
					"indexed": true,
					"internalType": "address",
					"name": "_caller",
					"type": "address"
				},
				{
					"indexed": false,
					"internalType": "address",
					"name": "_controller",
					"type": "address"
				}
			],
			"name": "LogSetController",
			"type": "event"
		},
		{
			"anonymous": false,
			"inputs": [
				{
					"indexed": true,
					"internalType": "address",
					"name": "_caller",
					"type": "address"
				},
				{
					"indexed": false,
					"internalType": "address",
					"name": "_depositExecutor",
					"type": "address"
				},
				{
					"indexed": false,
					"internalType": "address",
					"name": "_withdrawExecutor",
					"type": "address"
				},
				{
					"indexed": false,
					"internalType": "address",
					"name": "_rebalanceExecutor",
					"type": "address"
				},
				{
					"indexed": false,
					"internalType": "address",
					"name": "_reinvestExecutor",
					"type": "address"
				}
			],
			"name": "LogSetExecutor",
			"type": "event"
		},
		{
			"anonymous": false,
			"inputs": [
				{
					"indexed": true,
					"internalType": "address",
					"name": "_caller",
					"type": "address"
				},
				{
					"indexed": true,
					"internalType": "address",
					"name": "_address",
					"type": "address"
				},
				{
					"indexed": false,
					"internalType": "bool",
					"name": "_ok",
					"type": "bool"
				}
			],
			"name": "LogSetFeeExemptedCallers",
			"type": "event"
		},
		{
			"anonymous": false,
			"inputs": [
				{
					"indexed": true,
					"internalType": "address",
					"name": "_caller",
					"type": "address"
				},
				{
					"indexed": false,
					"internalType": "address",
					"name": "_depositFeeTreasury",
					"type": "address"
				},
				{
					"indexed": false,
					"internalType": "address",
					"name": "_withdrawFeeTreasury",
					"type": "address"
				},
				{
					"indexed": false,
					"internalType": "address",
					"name": "_managementFeeTreasury",
					"type": "address"
				}
			],
			"name": "LogSetFeeTreasury",
			"type": "event"
		},
		{
			"anonymous": false,
			"inputs": [
				{
					"indexed": true,
					"internalType": "address",
					"name": "_caller",
					"type": "address"
				},
				{
					"indexed": false,
					"internalType": "uint256",
					"name": "_depositFeeBps",
					"type": "uint256"
				},
				{
					"indexed": false,
					"internalType": "uint256",
					"name": "_withdrawalFeeBps",
					"type": "uint256"
				},
				{
					"indexed": false,
					"internalType": "uint256",
					"name": "_managementFeePerSec",
					"type": "uint256"
				}
			],
			"name": "LogSetFees",
			"type": "event"
		},
		{
			"anonymous": false,
			"inputs": [
				{
					"indexed": true,
					"internalType": "address",
					"name": "_caller",
					"type": "address"
				},
				{
					"indexed": false,
					"internalType": "uint8",
					"name": "_newLeverageLevel",
					"type": "uint8"
				}
			],
			"name": "LogSetLeverageLevel",
			"type": "event"
		},
		{
			"anonymous": false,
			"inputs": [
				{
					"indexed": true,
					"internalType": "address",
					"name": "_caller",
					"type": "address"
				},
				{
					"indexed": false,
					"internalType": "address",
					"name": "_getWrappedNativeAddr",
					"type": "address"
				},
				{
					"indexed": false,
					"internalType": "address",
					"name": "_getWNativeRelayer",
					"type": "address"
				},
				{
					"indexed": false,
					"internalType": "address",
					"name": "_fairLaunchAddr",
					"type": "address"
				},
				{
					"indexed": false,
					"internalType": "uint256",
					"name": "_rebalanceFactor",
					"type": "uint256"
				},
				{
					"indexed": false,
					"internalType": "uint256",
					"name": "_positionValueTolerance",
					"type": "uint256"
				},
				{
					"indexed": false,
					"internalType": "uint256",
					"name": "_debtRatioTolerance",
					"type": "uint256"
				}
			],
			"name": "LogSetParams",
			"type": "event"
		},
		{
			"anonymous": false,
			"inputs": [
				{
					"indexed": true,
					"internalType": "address",
					"name": "_caller",
					"type": "address"
				},
				{
					"indexed": false,
					"internalType": "address[]",
					"name": "_reinvestPath",
					"type": "address[]"
				}
			],
			"name": "LogSetReinvestPath",
			"type": "event"
		},
		{
			"anonymous": false,
			"inputs": [
				{
					"indexed": true,
					"internalType": "address",
					"name": "_caller",
					"type": "address"
				},
				{
					"indexed": false,
					"internalType": "address",
					"name": "partialCloseMinimizeStrategy",
					"type": "address"
				},
				{
					"indexed": false,
					"internalType": "address",
					"name": "stableAddTwoSideStrategy",
					"type": "address"
				},
				{
					"indexed": false,
					"internalType": "address",
					"name": "assetAddTwoSideStrategy",
					"type": "address"
				}
			],
			"name": "LogSetStrategies",
			"type": "event"
		},
		{
			"anonymous": false,
			"inputs": [
				{
					"indexed": true,
					"internalType": "address",
					"name": "_caller",
					"type": "address"
				},
				{
					"indexed": false,
					"internalType": "uint256",
					"name": "swapFee",
					"type": "uint256"
				},
				{
					"indexed": false,
					"internalType": "uint256",
					"name": "swapFeeDenom",
					"type": "uint256"
				}
			],
			"name": "LogSetSwapConfig",
			"type": "event"
		},
		{
			"anonymous": false,
			"inputs": [
				{
					"indexed": true,
					"internalType": "address",
					"name": "_caller",
					"type": "address"
				},
				{
					"indexed": true,
					"internalType": "address",
					"name": "_swapRouter",
					"type": "address"
				},
				{
					"indexed": false,
					"internalType": "address",
					"name": "source",
					"type": "address"
				},
				{
					"indexed": false,
					"internalType": "address",
					"name": "destination",
					"type": "address"
				}
			],
			"name": "LogSetSwapRoute",
			"type": "event"
		},
		{
			"anonymous": false,
			"inputs": [
				{
					"indexed": true,
					"internalType": "address",
					"name": "_caller",
					"type": "address"
				},
				{
					"indexed": false,
					"internalType": "address",
					"name": "_swapRouter",
					"type": "address"
				}
			],
			"name": "LogSetSwapRouter",
			"type": "event"
		},
		{
			"anonymous": false,
			"inputs": [
				{
					"indexed": true,
					"internalType": "address",
					"name": "_caller",
					"type": "address"
				},
				{
					"indexed": false,
					"internalType": "uint256",
					"name": "_maxVaultPositionValue",
					"type": "uint256"
				}
			],
			"name": "LogSetValueLimit",
			"type": "event"
		},
		{
			"anonymous": false,
			"inputs": [
				{
					"indexed": true,
					"internalType": "address",
					"name": "_caller",
					"type": "address"
				},
				{
					"indexed": true,
					"internalType": "address",
					"name": "_address",
					"type": "address"
				},
				{
					"indexed": false,
					"internalType": "bool",
					"name": "_ok",
					"type": "bool"
				}
			],
			"name": "LogSetWhitelistedCallers",
			"type": "event"
		},
		{
			"anonymous": false,
			"inputs": [
				{
					"indexed": true,
					"internalType": "address",
					"name": "_caller",
					"type": "address"
				},
				{
					"indexed": true,
					"internalType": "address",
					"name": "_address",
					"type": "address"
				},
				{
					"indexed": false,
					"internalType": "bool",
					"name": "_ok",
					"type": "bool"
				}
			],
			"name": "LogSetWhitelistedRebalancers",
			"type": "event"
		},
		{
			"anonymous": false,
			"inputs": [
				{
					"indexed": true,
					"internalType": "address",
					"name": "_caller",
					"type": "address"
				},
				{
					"indexed": true,
					"internalType": "address",
					"name": "_address",
					"type": "address"
				},
				{
					"indexed": false,
					"internalType": "bool",
					"name": "_ok",
					"type": "bool"
				}
			],
			"name": "LogSetWhitelistedReinvestors",
			"type": "event"
		},
		{
			"anonymous": false,
			"inputs": [
				{
					"indexed": true,
					"internalType": "address",
					"name": "previousOwner",
					"type": "address"
				},
				{
					"indexed": true,
					"internalType": "address",
					"name": "newOwner",
					"type": "address"
				}
			],
			"name": "OwnershipTransferred",
			"type": "event"
		},
		{
			"inputs": [],
			"name": "alpacaBeneficiary",
			"outputs": [
				{
					"internalType": "address",
					"name": "",
					"type": "address"
				}
			],
			"stateMutability": "view",
			"type": "function"
		},
		{
			"inputs": [],
			"name": "alpacaBeneficiaryBps",
			"outputs": [
				{
					"internalType": "uint256",
					"name": "",
					"type": "uint256"
				}
			],
			"stateMutability": "view",
			"type": "function"
		},
		{
			"inputs": [],
			"name": "alpacaBountyBps",
			"outputs": [
				{
					"internalType": "uint256",
					"name": "",
					"type": "uint256"
				}
			],
			"stateMutability": "view",
			"type": "function"
		},
		{
			"inputs": [],
			"name": "alpacaReinvestFeeTreasury",
			"outputs": [
				{
					"internalType": "address",
					"name": "",
					"type": "address"
				}
			],
			"stateMutability": "view",
			"type": "function"
		},
		{
			"inputs": [],
			"name": "alpacaToken",
			"outputs": [
				{
					"internalType": "address",
					"name": "",
					"type": "address"
				}
			],
			"stateMutability": "view",
			"type": "function"
		},
		{
			"inputs": [],
			"name": "assetAddTwoSideStrategy",
			"outputs": [
				{
					"internalType": "address",
					"name": "",
					"type": "address"
				}
			],
			"stateMutability": "view",
			"type": "function"
		},
		{
			"inputs": [],
			"name": "controller",
			"outputs": [
				{
					"internalType": "address",
					"name": "",
					"type": "address"
				}
			],
			"stateMutability": "view",
			"type": "function"
		},
		{
			"inputs": [],
			"name": "debtRatioTolerance",
			"outputs": [
				{
					"internalType": "uint256",
					"name": "",
					"type": "uint256"
				}
			],
			"stateMutability": "view",
			"type": "function"
		},
		{
			"inputs": [],
			"name": "depositExecutor",
			"outputs": [
				{
					"internalType": "address",
					"name": "",
					"type": "address"
				}
			],
			"stateMutability": "view",
			"type": "function"
		},
		{
			"inputs": [],
			"name": "depositFeeBps",
			"outputs": [
				{
					"internalType": "uint256",
					"name": "",
					"type": "uint256"
				}
			],
			"stateMutability": "view",
			"type": "function"
		},
		{
			"inputs": [],
			"name": "depositFeeTreasury",
			"outputs": [
				{
					"internalType": "address",
					"name": "",
					"type": "address"
				}
			],
			"stateMutability": "view",
			"type": "function"
		},
		{
			"inputs": [],
			"name": "fairLaunchAddr",
			"outputs": [
				{
					"internalType": "address",
					"name": "",
					"type": "address"
				}
			],
			"stateMutability": "view",
			"type": "function"
		},
		{
			"inputs": [
				{
					"internalType": "address",
					"name": "",
					"type": "address"
				}
			],
			"name": "feeExemptedCallers",
			"outputs": [
				{
					"internalType": "bool",
					"name": "",
					"type": "bool"
				}
			],
			"stateMutability": "view",
			"type": "function"
		},
		{
			"inputs": [],
			"name": "getReinvestPath",
			"outputs": [
				{
					"internalType": "address[]",
					"name": "",
					"type": "address[]"
				}
			],
			"stateMutability": "view",
			"type": "function"
		},
		{
			"inputs": [],
			"name": "getSwapRouter",
			"outputs": [
				{
					"internalType": "address",
					"name": "",
					"type": "address"
				}
			],
			"stateMutability": "view",
			"type": "function"
		},
		{
			"inputs": [],
			"name": "getWNativeRelayer",
			"outputs": [
				{
					"internalType": "address",
					"name": "",
					"type": "address"
				}
			],
			"stateMutability": "view",
			"type": "function"
		},
		{
			"inputs": [],
			"name": "getWrappedNativeAddr",
			"outputs": [
				{
					"internalType": "address",
					"name": "",
					"type": "address"
				}
			],
			"stateMutability": "view",
			"type": "function"
		},
		{
			"inputs": [
				{
					"internalType": "address",
					"name": "_getWrappedNativeAddr",
					"type": "address"
				},
				{
					"internalType": "address",
					"name": "_getWNativeRelayer",
					"type": "address"
				},
				{
					"internalType": "address",
					"name": "_fairLaunchAddr",
					"type": "address"
				},
				{
					"internalType": "uint256",
					"name": "_rebalanceFactor",
					"type": "uint256"
				},
				{
					"internalType": "uint256",
					"name": "_positionValueTolerance",
					"type": "uint256"
				},
				{
					"internalType": "uint256",
					"name": "_debtRatioTolerance",
					"type": "uint256"
				},
				{
					"internalType": "address",
					"name": "_depositFeeTreasury",
					"type": "address"
				},
				{
					"internalType": "address",
					"name": "_managementFeeTreasury",
					"type": "address"
				},
				{
					"internalType": "address",
					"name": "_withdrawFeeTreasury",
					"type": "address"
				},
				{
					"internalType": "address",
					"name": "_alpacaToken",
					"type": "address"
				}
			],
			"name": "initialize",
			"outputs": [],
			"stateMutability": "nonpayable",
			"type": "function"
		},
		{
			"inputs": [
				{
					"internalType": "address",
					"name": "_caller",
					"type": "address"
				}
			],
			"name": "isExecutor",
			"outputs": [
				{
					"internalType": "bool",
					"name": "",
					"type": "bool"
				}
			],
			"stateMutability": "view",
			"type": "function"
		},
		{
			"inputs": [
				{
					"internalType": "uint256",
					"name": "_totalPositionValue",
					"type": "uint256"
				}
			],
			"name": "isVaultSizeAcceptable",
			"outputs": [
				{
					"internalType": "bool",
					"name": "",
					"type": "bool"
				}
			],
			"stateMutability": "view",
			"type": "function"
		},
		{
			"inputs": [],
			"name": "leverageLevel",
			"outputs": [
				{
					"internalType": "uint8",
					"name": "",
					"type": "uint8"
				}
			],
			"stateMutability": "view",
			"type": "function"
		},
		{
			"inputs": [],
			"name": "managementFeePerSec",
			"outputs": [
				{
					"internalType": "uint256",
					"name": "",
					"type": "uint256"
				}
			],
			"stateMutability": "view",
			"type": "function"
		},
		{
			"inputs": [],
			"name": "managementFeeTreasury",
			"outputs": [
				{
					"internalType": "address",
					"name": "",
					"type": "address"
				}
			],
			"stateMutability": "view",
			"type": "function"
		},
		{
			"inputs": [],
			"name": "maxVaultPositionValue",
			"outputs": [
				{
					"internalType": "uint256",
					"name": "",
					"type": "uint256"
				}
			],
			"stateMutability": "view",
			"type": "function"
		},
		{
			"inputs": [],
			"name": "owner",
			"outputs": [
				{
					"internalType": "address",
					"name": "",
					"type": "address"
				}
			],
			"stateMutability": "view",
			"type": "function"
		},
		{
			"inputs": [],
			"name": "partialCloseMinimizeStrategy",
			"outputs": [
				{
					"internalType": "address",
					"name": "",
					"type": "address"
				}
			],
			"stateMutability": "view",
			"type": "function"
		},
		{
			"inputs": [],
			"name": "positionValueTolerance",
			"outputs": [
				{
					"internalType": "uint256",
					"name": "",
					"type": "uint256"
				}
			],
			"stateMutability": "view",
			"type": "function"
		},
		{
			"inputs": [],
			"name": "rebalanceExecutor",
			"outputs": [
				{
					"internalType": "address",
					"name": "",
					"type": "address"
				}
			],
			"stateMutability": "view",
			"type": "function"
		},
		{
			"inputs": [],
			"name": "rebalanceFactor",
			"outputs": [
				{
					"internalType": "uint256",
					"name": "",
					"type": "uint256"
				}
			],
			"stateMutability": "view",
			"type": "function"
		},
		{
			"inputs": [],
			"name": "reinvestExecutor",
			"outputs": [
				{
					"internalType": "address",
					"name": "",
					"type": "address"
				}
			],
			"stateMutability": "view",
			"type": "function"
		},
		{
			"inputs": [
				{
					"internalType": "uint256",
					"name": "",
					"type": "uint256"
				}
			],
			"name": "reinvestPath",
			"outputs": [
				{
					"internalType": "address",
					"name": "",
					"type": "address"
				}
			],
			"stateMutability": "view",
			"type": "function"
		},
		{
			"inputs": [],
			"name": "renounceOwnership",
			"outputs": [],
			"stateMutability": "nonpayable",
			"type": "function"
		},
		{
			"inputs": [
				{
					"internalType": "address",
					"name": "_newAlpacaBeneficiary",
					"type": "address"
				},
				{
					"internalType": "uint256",
					"name": "_newAlpacaBeneficiaryBps",
					"type": "uint256"
				}
			],
			"name": "setAlpacaBeneficiaryConfig",
			"outputs": [],
			"stateMutability": "nonpayable",
			"type": "function"
		},
		{
			"inputs": [
				{
					"internalType": "address",
					"name": "_newAlpacaReinvestFeeTreasury",
					"type": "address"
				},
				{
					"internalType": "uint256",
					"name": "_newAlpacaBountyBps",
					"type": "uint256"
				}
			],
			"name": "setAlpacaBountyConfig",
			"outputs": [],
			"stateMutability": "nonpayable",
			"type": "function"
		},
		{
			"inputs": [
				{
					"internalType": "address",
					"name": "_controller",
					"type": "address"
				}
			],
			"name": "setController",
			"outputs": [],
			"stateMutability": "nonpayable",
			"type": "function"
		},
		{
			"inputs": [
				{
					"internalType": "address",
					"name": "_depositExecutor",
					"type": "address"
				},
				{
					"internalType": "address",
					"name": "_withdrawExecutor",
					"type": "address"
				},
				{
					"internalType": "address",
					"name": "_rebalanceExecutor",
					"type": "address"
				},
				{
					"internalType": "address",
					"name": "_reinvestExecutor",
					"type": "address"
				}
			],
			"name": "setExecutor",
			"outputs": [],
			"stateMutability": "nonpayable",
			"type": "function"
		},
		{
			"inputs": [
				{
					"internalType": "address[]",
					"name": "_callers",
					"type": "address[]"
				},
				{
					"internalType": "bool",
					"name": "_ok",
					"type": "bool"
				}
			],
			"name": "setFeeExemptedCallers",
			"outputs": [],
			"stateMutability": "nonpayable",
			"type": "function"
		},
		{
			"inputs": [
				{
					"internalType": "address",
					"name": "_newDepositFeeTreasury",
					"type": "address"
				},
				{
					"internalType": "uint256",
					"name": "_newDepositFeeBps",
					"type": "uint256"
				},
				{
					"internalType": "address",
					"name": "_newWithdrawalFeeTreasury",
					"type": "address"
				},
				{
					"internalType": "uint256",
					"name": "_newWithdrawalFeeBps",
					"type": "uint256"
				},
				{
					"internalType": "address",
					"name": "_newManagementFeeTreasury",
					"type": "address"
				},
				{
					"internalType": "uint256",
					"name": "_newManagementFeePerSec",
					"type": "uint256"
				}
			],
			"name": "setFees",
			"outputs": [],
			"stateMutability": "nonpayable",
			"type": "function"
		},
		{
			"inputs": [
				{
					"internalType": "uint8",
					"name": "_newLeverageLevel",
					"type": "uint8"
				}
			],
			"name": "setLeverageLevel",
			"outputs": [],
			"stateMutability": "nonpayable",
			"type": "function"
		},
		{
			"inputs": [
				{
					"internalType": "address",
					"name": "_getWrappedNativeAddr",
					"type": "address"
				},
				{
					"internalType": "address",
					"name": "_getWNativeRelayer",
					"type": "address"
				},
				{
					"internalType": "address",
					"name": "_fairLaunchAddr",
					"type": "address"
				},
				{
					"internalType": "uint256",
					"name": "_rebalanceFactor",
					"type": "uint256"
				},
				{
					"internalType": "uint256",
					"name": "_positionValueTolerance",
					"type": "uint256"
				},
				{
					"internalType": "uint256",
					"name": "_debtRatioTolerance",
					"type": "uint256"
				}
			],
			"name": "setParams",
			"outputs": [],
			"stateMutability": "nonpayable",
			"type": "function"
		},
		{
			"inputs": [
				{
					"internalType": "address[]",
					"name": "_reinvestPath",
					"type": "address[]"
				}
			],
			"name": "setReinvestPath",
			"outputs": [],
			"stateMutability": "nonpayable",
			"type": "function"
		},
		{
			"inputs": [
				{
					"internalType": "address",
					"name": "_partialCloseMinimizeStrategy",
					"type": "address"
				},
				{
					"internalType": "address",
					"name": "_stableAddTwoSideStrategy",
					"type": "address"
				},
				{
					"internalType": "address",
					"name": "_assetAddTwoSideStrategy",
					"type": "address"
				}
			],
			"name": "setStrategies",
			"outputs": [],
			"stateMutability": "nonpayable",
			"type": "function"
		},
		{
			"inputs": [
				{
					"internalType": "uint256",
					"name": "_swapFee",
					"type": "uint256"
				},
				{
					"internalType": "uint256",
					"name": "_swapFeeDenom",
					"type": "uint256"
				}
			],
			"name": "setSwapConfig",
			"outputs": [],
			"stateMutability": "nonpayable",
			"type": "function"
		},
		{
			"inputs": [
				{
					"internalType": "address",
					"name": "_swapRouter",
					"type": "address"
				}
			],
			"name": "setSwapRouter",
			"outputs": [],
			"stateMutability": "nonpayable",
			"type": "function"
		},
		{
			"inputs": [
				{
					"internalType": "uint256",
					"name": "_maxVaultPositionValue",
					"type": "uint256"
				}
			],
			"name": "setValueLimit",
			"outputs": [],
			"stateMutability": "nonpayable",
			"type": "function"
		},
		{
			"inputs": [
				{
					"internalType": "address[]",
					"name": "_callers",
					"type": "address[]"
				},
				{
					"internalType": "bool",
					"name": "_ok",
					"type": "bool"
				}
			],
			"name": "setWhitelistedCallers",
			"outputs": [],
			"stateMutability": "nonpayable",
			"type": "function"
		},
		{
			"inputs": [
				{
					"internalType": "address[]",
					"name": "_callers",
					"type": "address[]"
				},
				{
					"internalType": "bool",
					"name": "_ok",
					"type": "bool"
				}
			],
			"name": "setWhitelistedRebalancer",
			"outputs": [],
			"stateMutability": "nonpayable",
			"type": "function"
		},
		{
			"inputs": [
				{
					"internalType": "address[]",
					"name": "_callers",
					"type": "address[]"
				},
				{
					"internalType": "bool",
					"name": "_ok",
					"type": "bool"
				}
			],
			"name": "setwhitelistedReinvestors",
			"outputs": [],
			"stateMutability": "nonpayable",
			"type": "function"
		},
		{
			"inputs": [],
			"name": "stableAddTwoSideStrategy",
			"outputs": [
				{
					"internalType": "address",
					"name": "",
					"type": "address"
				}
			],
			"stateMutability": "view",
			"type": "function"
		},
		{
			"inputs": [],
			"name": "swapFee",
			"outputs": [
				{
					"internalType": "uint256",
					"name": "",
					"type": "uint256"
				}
			],
			"stateMutability": "view",
			"type": "function"
		},
		{
			"inputs": [],
			"name": "swapFeeDenom",
			"outputs": [
				{
					"internalType": "uint256",
					"name": "",
					"type": "uint256"
				}
			],
			"stateMutability": "view",
			"type": "function"
		},
		{
			"inputs": [
				{
					"internalType": "address",
					"name": "newOwner",
					"type": "address"
				}
			],
			"name": "transferOwnership",
			"outputs": [],
			"stateMutability": "nonpayable",
			"type": "function"
		},
		{
			"inputs": [
				{
					"internalType": "address",
					"name": "",
					"type": "address"
				}
			],
			"name": "whitelistedCallers",
			"outputs": [
				{
					"internalType": "bool",
					"name": "",
					"type": "bool"
				}
			],
			"stateMutability": "view",
			"type": "function"
		},
		{
			"inputs": [
				{
					"internalType": "address",
					"name": "",
					"type": "address"
				}
			],
			"name": "whitelistedRebalancers",
			"outputs": [
				{
					"internalType": "bool",
					"name": "",
					"type": "bool"
				}
			],
			"stateMutability": "view",
			"type": "function"
		},
		{
			"inputs": [
				{
					"internalType": "address",
					"name": "",
					"type": "address"
				}
			],
			"name": "whitelistedReinvestors",
			"outputs": [
				{
					"internalType": "bool",
					"name": "",
					"type": "bool"
				}
			],
			"stateMutability": "view",
			"type": "function"
		},
		{
			"inputs": [],
			"name": "withdrawExecutor",
			"outputs": [
				{
					"internalType": "address",
					"name": "",
					"type": "address"
				}
			],
			"stateMutability": "view",
			"type": "function"
		},
		{
			"inputs": [],
			"name": "withdrawalFeeBps",
			"outputs": [
				{
					"internalType": "uint256",
					"name": "",
					"type": "uint256"
				}
			],
			"stateMutability": "view",
			"type": "function"
		},
		{
			"inputs": [],
			"name": "withdrawalFeeTreasury",
			"outputs": [
				{
					"internalType": "address",
					"name": "",
					"type": "address"
				}
			],
			"stateMutability": "view",
			"type": "function"
		}
	]
}