{
	"data": {
		"bytecode": {
			"linkReferences": {},
			"object": "60806040523480156200001157600080fd5b50600062000020600162000087565b9050801562000039576000805461ff0019166101001790555b801562000080576000805461ff0019169055604051600181527f7f26b83ff96e1f2b6a682f133852f6798a09c465da95921460cefb38474024989060200160405180910390a15b50620001a8565b60008054610100900460ff161562000120578160ff166001148015620000c05750620000be306200019960201b620026851760201c565b155b620001185760405162461bcd60e51b815260206004820152602e602482015260008051602062005cb083398151915260448201526d191e481a5b9a5d1a585b1a5e995960921b60648201526084015b60405180910390fd5b506000919050565b60005460ff8084169116106200017f5760405162461bcd60e51b815260206004820152602e602482015260008051602062005cb083398151915260448201526d191e481a5b9a5d1a585b1a5e995960921b60648201526084016200010f565b506000805460ff191660ff92909216919091179055600190565b6001600160a01b03163b151590565b615af880620001b86000396000f3fe60806040526004361061024a5760003560e01c80637a5948cf11610139578063a9d75b2b116100b6578063f2fde38b1161007a578063f2fde38b146106d0578063f61ebc36146106f0578063f76bdceb14610710578063f97b718614610730578063f9e7e7a914610750578063fe55892d1461076357600080fd5b8063a9d75b2b1461063a578063bed65bae1461065a578063d3890ee61461067a578063dd62ed3e1461069a578063eea7929f146106ba57600080fd5b806395d89b41116100fd57806395d89b41146105b05780639a9a5b52146105c55780639adca65c146105e5578063a457c2d7146105fa578063a9059cbb1461061a57600080fd5b80637a5948cf146104e65780637b05fe62146104fc578063818d81491461055d57806388bf176e146105725780638da5cb5b1461059257600080fd5b806334cf3b21116101c75780636f42f9c71161018b5780636f42f9c71461044557806370a0823114610465578063715018a61461049b578063750290da146104b057806379502c55146104c657600080fd5b806334cf3b21146103bc57806339509351146103cf578063441130d5146103ef5780634aa187be1461040f5780634b64fcd11461042557600080fd5b806318160ddd1161020e57806318160ddd1461032b57806323b872dd1461034a5780632630c12f1461036a5780632dcdbd041461038a578063313ce567146103a057600080fd5b8063039181a41461025657806306fdde031461027857806308660289146102a3578063095ea7b3146102db5780631083f7611461030b57600080fd5b3661025157005b600080fd5b34801561026257600080fd5b50610276610271366004614f98565b610783565b005b34801561028457600080fd5b5061028d610f8a565b60405161029a919061507f565b60405180910390f35b3480156102af57600080fd5b5060ce546102c3906001600160a01b031681565b6040516001600160a01b03909116815260200161029a565b3480156102e757600080fd5b506102fb6102f63660046150b2565b61101c565b604051901515815260200161029a565b34801561031757600080fd5b5060d1546102c3906001600160a01b031681565b34801561033757600080fd5b506035545b60405190815260200161029a565b34801561035657600080fd5b506102fb6103653660046150de565b611036565b34801561037657600080fd5b5060d6546102c3906001600160a01b031681565b34801561039657600080fd5b5061033c60d35481565b3480156103ac57600080fd5b506040516012815260200161029a565b61033c6103ca366004615167565b61105c565b3480156103db57600080fd5b506102fb6103ea3660046150b2565b6111f6565b3480156103fb57600080fd5b5061033c61040a3660046151d9565b611218565b34801561041b57600080fd5b5061033c60c95481565b34801561043157600080fd5b5061033c6104403660046151d9565b611253565b34801561045157600080fd5b5060cc546102c3906001600160a01b031681565b34801561047157600080fd5b5061033c6104803660046151f2565b6001600160a01b031660009081526033602052604090205490565b3480156104a757600080fd5b50610276611266565b3480156104bc57600080fd5b5061033c60d55481565b3480156104d257600080fd5b5060d7546102c3906001600160a01b031681565b3480156104f257600080fd5b5061033c60ca5481565b34801561050857600080fd5b5061051161129c565b60405161029a9190600060c082019050825182526020830151602083015260408301516040830152606083015160608301526080830151608083015260a083015160a083015292915050565b34801561056957600080fd5b5061033c611486565b34801561057e57600080fd5b5061027661058d3660046151f2565b611541565b34801561059e57600080fd5b506097546001600160a01b03166102c3565b3480156105bc57600080fd5b5061028d611625565b3480156105d157600080fd5b506102766105e036600461520f565b611634565b3480156105f157600080fd5b5061033c611a8f565b34801561060657600080fd5b506102fb6106153660046150b2565b611c00565b34801561062657600080fd5b506102fb6106353660046150b2565b611c86565b34801561064657600080fd5b5060d0546102c3906001600160a01b031681565b34801561066657600080fd5b5060d2546102c3906001600160a01b031681565b34801561068657600080fd5b5060cf546102c3906001600160a01b031681565b3480156106a657600080fd5b5061033c6106b5366004615308565b611c94565b3480156106c657600080fd5b5061033c60d45481565b3480156106dc57600080fd5b506102766106eb3660046151f2565b611cbf565b3480156106fc57600080fd5b5060cd546102c3906001600160a01b031681565b34801561071c57600080fd5b5061027661072b3660046151f2565b611d5a565b34801561073c57600080fd5b5061027661074b366004615341565b611ec0565b61027661075e3660046153c8565b61219c565b34801561076f57600080fd5b5061033c61077e3660046153c8565b612354565b60d7546040516312440ccb60e01b81523360048201526001600160a01b03909116906312440ccb90602401602060405180830381865afa1580156107cb573d6000803e3d6000fd5b505050506040513d601f19601f820116820180604052508101906107ef9190615428565b61081357604051639522ebb960e01b81523360048201526024015b60405180910390fd5b60d7546040805163f679eda160e01b815290516000926001600160a01b03169163f679eda191600480830192869291908290030181865afa15801561085c573d6000803e3d6000fd5b505050506040513d6000823e601f3d908101601f19168201604052610884919081019061544a565b9050600060d760009054906101000a90046001600160a01b03166001600160a01b031663956c9da06040518163ffffffff1660e01b8152600401602060405180830381865afa1580156108db573d6000803e3d6000fd5b505050506040513d601f19601f820116820180604052508101906108ff91906154d8565b9050600060d760009054906101000a90046001600160a01b03166001600160a01b031663f52c67646040518163ffffffff1660e01b8152600401602060405180830381865afa158015610956573d6000803e3d6000fd5b505050506040513d601f19601f8201168201806040525081019061097a91906154d8565b9050825160000361099e57604051630311631360e41b815260040160405180910390fd5b60006109a8611a8f565b9050600060d760009054906101000a90046001600160a01b03166001600160a01b0316635c23aed66040518163ffffffff1660e01b8152600401602060405180830381865afa1580156109ff573d6000803e3d6000fd5b505050506040513d601f19601f82011682018060405250810190610a2391906154f1565b9050806001600160a01b031663ddc6326260cc60009054906101000a90046001600160a01b03166001600160a01b03166381a47ba96040518163ffffffff1660e01b8152600401602060405180830381865afa158015610a87573d6000803e3d6000fd5b505050506040513d601f19601f82011682018060405250810190610aab91906154d8565b6040518263ffffffff1660e01b8152600401610ac991815260200190565b600060405180830381600087803b158015610ae357600080fd5b505af1158015610af7573d6000803e3d6000fd5b50505050806001600160a01b031663ddc6326260cd60009054906101000a90046001600160a01b03166001600160a01b03166381a47ba96040518163ffffffff1660e01b8152600401602060405180830381865afa158015610b5d573d6000803e3d6000fd5b505050506040513d601f19601f82011682018060405250810190610b8191906154d8565b6040518263ffffffff1660e01b8152600401610b9f91815260200190565b600060405180830381600087803b158015610bb957600080fd5b505af1158015610bcd573d6000803e3d6000fd5b505060d2546040516370a0823160e01b8152306004820152600093506001600160a01b0390911691506370a0823190602401602060405180830381865afa158015610c1c573d6000803e3d6000fd5b505050506040513d601f19601f82011682018060405250810190610c4091906154d8565b90506000612710610c518388615524565b610c5b9190615543565b90506000612710610c6c8784615524565b610c769190615543565b90508015610d005760d754604080516328d87d0160e21b81529051610d00926001600160a01b03169163a361f4049160048083019260209291908290030181865afa158015610cc9573d6000803e3d6000fd5b505050506040513d601f19601f82011682018060405250810190610ced91906154f1565b60d2546001600160a01b03169083612694565b60d75460408051632caea76760e11b81529051610d8c926001600160a01b03169163595d4ece9160048083019260209291908290030181865afa158015610d4b573d6000803e3d6000fd5b505050506040513d601f19601f82011682018060405250810190610d6f91906154f1565b610d798385615565565b60d2546001600160a01b03169190612694565b6000610d988385615565565b9050600060d760009054906101000a90046001600160a01b03166001600160a01b031663725c9c496040518163ffffffff1660e01b8152600401602060405180830381865afa158015610def573d6000803e3d6000fd5b505050506040513d601f19601f82011682018060405250810190610e1391906154f1565b60d25460405163095ea7b360e01b81526001600160a01b0380841660048301526024820186905292935091169063095ea7b3906044016020604051808303816000875af1158015610e68573d6000803e3d6000fd5b505050506040513d601f19601f82011682018060405250810190610e8c9190615428565b506040516338ed173960e01b81526001600160a01b038216906338ed173990610ec19085908f908f903090429060040161557c565b6000604051808303816000875af1158015610ee0573d6000803e3d6000fd5b505050506040513d6000823e601f3d908101601f19168201604052610f0891908101906155ed565b50610f148e8e8e6126fc565b6000610f1e611a8f565b9050878111610f405760405163bfe2242360e01b815260040160405180910390fd5b60408051898152602081018390527fe6bb7c24aa843f59d79d6b94019e6ecc020b0f84209c95cfbda2bc22d629db91910160405180910390a1505050505050505050505050505050565b606060368054610f9990615672565b80601f0160208091040260200160405190810160405280929190818152602001828054610fc590615672565b80156110125780601f10610fe757610100808354040283529160200191611012565b820191906000526020600020905b815481529060010190602001808311610ff557829003601f168201915b5050505050905090565b60003361102a818585612890565b60019150505b92915050565b6000336110448582856129b4565b61104f858585612a28565b60019150505b9392505050565b60003332148015906110da575060d75460405160016236831760e01b031981523360048201526001600160a01b039091169063ffc97ce990602401602060405180830381865afa1580156110b4573d6000803e3d6000fd5b505050506040513d601f19601f820116820180604052508101906110d89190615428565b155b156110fa57604051639522ebb960e01b815233600482015260240161080a565b611102612bf6565b6002606554036111545760405162461bcd60e51b815260206004820152601f60248201527f5265656e7472616e637947756172643a207265656e7472616e742063616c6c00604482015260640161080a565b6002606555600061116361129c565b9050600061116f612c72565b90503481604001516111819190615565565b604082015260d05461119c906001600160a01b03168a612d8e565b60d1546111b2906001600160a01b031689612d8e565b600080806111c287890189615341565b9250925092506111d38383836126fc565b5050506111e4898989898686612eae565b60016065559998505050505050505050565b60003361102a8185856112098383611c94565b61121391906156ac565b612890565b600080611223611486565b60355461123091906156ac565b905080600003611241575090919050565b6110558361124d611a8f565b83613114565b600061103082611261611a8f565b6131c2565b6097546001600160a01b031633146112905760405162461bcd60e51b815260040161080a906156c4565b61129a6000613200565b565b6112d56040518060c001604052806000815260200160008152602001600081526020016000815260200160008152602001600081525090565b60ce5460408051636846c1ef60e01b815290516000926001600160a01b031691636846c1ef9160048083019260209291908290030181865afa15801561131f573d6000803e3d6000fd5b505050506040513d601f19601f8201168201806040525081019061134391906154d8565b9050600060cf60009054906101000a90046001600160a01b03166001600160a01b0316636846c1ef6040518163ffffffff1660e01b8152600401602060405180830381865afa15801561139a573d6000803e3d6000fd5b505050506040513d601f19601f820116820180604052508101906113be91906154d8565b905060006113cb83613252565b905060006113d883613252565b60cc5460d35460c9549293506000926113fb926001600160a01b03169190613309565b60cd5460d45460ca5492935060009261141e926001600160a01b03169190613309565b90506040518060c00160405280838611611439576000611443565b6114438487615565565b815260200183815260200187815260200182851161146257600061146c565b61146c8386615565565b815260200182815260200186815250965050505050505090565b60008060d554426114979190615565565b9050670de0b6b3a76400008160d760009054906101000a90046001600160a01b03166001600160a01b031663b192362a6040518163ffffffff1660e01b8152600401602060405180830381865afa1580156114f6573d6000803e3d6000fd5b505050506040513d601f19601f8201168201806040525081019061151a91906154d8565b6035546115279190615524565b6115319190615524565b61153b9190615543565b91505090565b6097546001600160a01b0316331461156b5760405162461bcd60e51b815260040161080a906156c4565b806001600160a01b031663f9bfd9076040518163ffffffff1660e01b8152600401602060405180830381865afa1580156115a9573d6000803e3d6000fd5b505050506040513d601f19601f820116820180604052508101906115cd91906154d8565b5060d780546001600160a01b0319166001600160a01b03831690811790915560405190815233907f4c4e26f7e535fa16e67156cd4fd4745854600b1d1a79a7cdf63f771cbc24a933906020015b60405180910390a250565b606060378054610f9990615672565b60006116406001613581565b90508015611658576000805461ff0019166101001790555b61166061360e565b61166861363d565b6116ec8d8d8080601f016020809104026020016040519081016040528093929190818152602001838380828437600081840152601f19601f820116905080830192505050505050508c8c8080601f01602080910402602001604051908101604052809392919081815260200183838082843760009201919091525061366c92505050565b60cc80546001600160a01b03808c166001600160a01b0319928316811790935560cd8054918c169190921617905560408051637e062a3560e11b8152905163fc0c546a916004808201926020929091908290030181865afa158015611755573d6000803e3d6000fd5b505050506040513d601f19601f8201168201806040525081019061177991906154f1565b60d060006101000a8154816001600160a01b0302191690836001600160a01b03160217905550876001600160a01b031663fc0c546a6040518163ffffffff1660e01b8152600401602060405180830381865afa1580156117dd573d6000803e3d6000fd5b505050506040513d601f19601f8201168201806040525081019061180191906154f1565b60d180546001600160a01b03199081166001600160a01b039384161790915560d28054821687841617905560ce805482168a841617905560cf8054821689841617905560cb8054821688841617905560d68054821686841617905560d7805490911684831617905560d054611876911661369d565b60c95560d15461188e906001600160a01b031661369d565b60ca5560cf5460408051635fcbd28560e01b815290516001600160a01b0390921691635fcbd285916004808201926020929091908290030181865afa1580156118db573d6000803e3d6000fd5b505050506040513d601f19601f820116820180604052508101906118ff91906154f1565b60cb546001600160a01b0390811691161415806119a1575060ce60009054906101000a90046001600160a01b03166001600160a01b0316635fcbd2856040518163ffffffff1660e01b8152600401602060405180830381865afa15801561196a573d6000803e3d6000fd5b505050506040513d601f19601f8201168201806040525081019061198e91906154f1565b60cb546001600160a01b03908116911614155b156119bf57604051631d56588360e01b815260040160405180910390fd5b60d2546001600160a01b03166119e857604051633112618760e21b815260040160405180910390fd5b60d6546001600160a01b0316611a1157604051633112618760e21b815260040160405180910390fd5b60d7546001600160a01b0316611a3a57604051633112618760e21b815260040160405180910390fd5b8015611a80576000805461ff0019169055604051600181527f7f26b83ff96e1f2b6a682f133852f6798a09c465da95921460cefb38474024989060200160405180910390a15b50505050505050505050505050565b600080611b9260cf60009054906101000a90046001600160a01b03166001600160a01b0316636846c1ef6040518163ffffffff1660e01b8152600401602060405180830381865afa158015611ae8573d6000803e3d6000fd5b505050506040513d601f19601f82011682018060405250810190611b0c91906154d8565b60ce60009054906101000a90046001600160a01b03166001600160a01b0316636846c1ef6040518163ffffffff1660e01b8152600401602060405180830381865afa158015611b5f573d6000803e3d6000fd5b505050506040513d601f19601f82011682018060405250810190611b8391906154d8565b611b8d91906156ac565b613252565b60cd5460d45460ca54929350600092611bb5926001600160a01b03169190613309565b60cc5460d35460c954611bd2926001600160a01b03169190613309565b611bdc91906156ac565b905080821015611bef5760009250505090565b611bf98183615565565b9250505090565b60003381611c0e8286611c94565b905083811015611c6e5760405162461bcd60e51b815260206004820152602560248201527f45524332303a2064656372656173656420616c6c6f77616e63652062656c6f77604482015264207a65726f60d81b606482015260840161080a565b611c7b8286868403612890565b506001949350505050565b60003361102a818585612a28565b6001600160a01b03918216600090815260346020908152604080832093909416825291909152205490565b6097546001600160a01b03163314611ce95760405162461bcd60e51b815260040161080a906156c4565b6001600160a01b038116611d4e5760405162461bcd60e51b815260206004820152602660248201527f4f776e61626c653a206e6577206f776e657220697320746865207a65726f206160448201526564647265737360d01b606482015260840161080a565b611d5781613200565b50565b6097546001600160a01b03163314611d845760405162461bcd60e51b815260040161080a906156c4565b60d054604051630681320d60e51b81526001600160a01b0391821660048201529082169063d02641a0906024016040805180830381865afa158015611dcd573d6000803e3d6000fd5b505050506040513d601f19601f82011682018060405250810190611df191906156f9565b505060cb5460405163125d417960e11b8152670de0b6b3a764000060048201526001600160a01b039182166024820152908216906324ba82f2906044016040805180830381865afa158015611e4a573d6000803e3d6000fd5b505050506040513d601f19601f82011682018060405250810190611e6e91906156f9565b505060d680546001600160a01b0319166001600160a01b03831690811790915560405190815233907f13027f79696db4396ef144413ce4dcfeb9a142e11b5035a756171cf0a87102cd9060200161161a565b60d7546040516309e81c6d60e31b81523360048201526001600160a01b0390911690634f40e36890602401602060405180830381865afa158015611f08573d6000803e3d6000fd5b505050506040513d601f19601f82011682018060405250810190611f2c9190615428565b611f4b57604051639522ebb960e01b815233600482015260240161080a565b611f53612bf6565b6000611f5d61129c565b90506000611f69612c72565b9050600082602001518360000151611f8191906156ac565b9050600083608001518460600151611f9991906156ac565b9050600084606001518560000151611fb191906156ac565b9050600060d760009054906101000a90046001600160a01b03166001600160a01b031663629694676040518163ffffffff1660e01b8152600401602060405180830381865afa158015612008573d6000803e3d6000fd5b505050506040513d601f19601f8201168201806040525081019061202c91906154d8565b60208701519091506120419061271090615524565b61204b8286615524565b10158015612073575060808601516120669061271090615524565b6120708285615524565b10155b15612091576040516352a729d560e01b815260040160405180910390fd5b61209c8989896126fc565b60006120a6611a8f565b9050612129818460d760009054906101000a90046001600160a01b03166001600160a01b031663f9bfd9076040518163ffffffff1660e01b8152600401602060405180830381865afa158015612100573d6000803e3d6000fd5b505050506040513d601f19601f8201168201806040525081019061212491906154d8565b613755565b6121465760405163ed73742f60e01b815260040160405180910390fd5b61215786612152612c72565b613799565b60408051848152602081018390527fedfa59b02a4232c93ca4d57fcbbd75be9747bfa821007cfcd8f36528365ec4ce910160405180910390a150505050505050505050565b6097546001600160a01b031633146121c65760405162461bcd60e51b815260040161080a906156c4565b60d3541515806121d7575060d45415155b156121f557604051632a5911df60e01b815260040160405180910390fd5b60d7805460ff60a01b1916600160a01b17905560cc5460408051631c82490560e01b815290516001600160a01b0390921691631c824905916004808201926020929091908290030181865afa158015612252573d6000803e3d6000fd5b505050506040513d601f19601f8201168201806040525081019061227691906154d8565b60d35560cd5460408051631c82490560e01b815290516001600160a01b0390921691631c824905916004808201926020929091908290030181865afa1580156122c3573d6000803e3d6000fd5b505050506040513d601f19601f820116820180604052508101906122e791906154d8565b60d4556122f885853386868661105c565b5060d7805460ff60a01b1916905560d35460d45460405133927fe2d052c98bda8dadf8c77273d35910976d1eaac81fdbf05b38b5ee4cf8742b229261234592918252602082015260400190565b60405180910390a25050505050565b60003332148015906123d2575060d75460405160016236831760e01b031981523360048201526001600160a01b039091169063ffc97ce990602401602060405180830381865afa1580156123ac573d6000803e3d6000fd5b505050506040513d601f19601f820116820180604052508101906123d09190615428565b155b156123f257604051639522ebb960e01b815233600482015260240161080a565b6123fa612bf6565b60026065540361244c5760405162461bcd60e51b815260206004820152601f60248201527f5265656e7472616e637947756172643a207265656e7472616e742063616c6c00604482015260640161080a565b6002606555600086900361247357604051630fd5e85760e11b815260040160405180910390fd5b600061247d61129c565b90506000612489612c72565b60d754604051633924f23360e01b81523360048201529192506000916001600160a01b0390911690633924f233906024016020604051808303816000875af11580156124d9573d6000803e3d6000fd5b505050506040513d601f19601f820116820180604052508101906124fd9190615428565b61257f5760d760009054906101000a90046001600160a01b03166001600160a01b03166304336bb36040518163ffffffff1660e01b81526004016020604051808303816000875af1158015612556573d6000803e3d6000fd5b505050506040513d601f19601f8201168201806040525081019061257a91906154d8565b612582565b60005b905060006127108a6125948483615565565b61259e9190615524565b6125a89190615543565b905060006125b582611218565b90506125c1338c613849565b60d7546040805163698d92cb60e01b8152905161263f926001600160a01b03169163698d92cb9160048083019260209291908290030181865afa15801561260c573d6000803e3d6000fd5b505050506040513d601f19601f8201168201806040525081019061263091906154f1565b61263a848e615565565b613997565b6000808061264f8a8c018c615341565b9250925092506126608383836126fc565b5050506126718b8b8b848989613a76565b60016065559b9a5050505050505050505050565b6001600160a01b03163b151590565b6040516001600160a01b0383166024820152604481018290526126f790849063a9059cbb60e01b906064015b60408051601f198184030181529190526020810180516001600160e01b03166001600160e01b031990931692909217909152613e10565b505050565b8151835114158061270f57508051835114155b1561272d576040516306e2a74f60e31b815260040160405180910390fd5b60005b835181101561288a57600084828151811061274d5761274d61571d565b60200260200101519050600160ff168160ff16036127875761278783838151811061277a5761277a61571d565b6020026020010151613ee2565b60011960ff8216016128775760d760009054906101000a90046001600160a01b03166001600160a01b031663ef3bac5e6040518163ffffffff1660e01b8152600401602060405180830381865afa1580156127e6573d6000803e3d6000fd5b505050506040513d601f19601f8201168201806040525081019061280a91906154f1565b6001600160a01b031663d0e30db085848151811061282a5761282a61571d565b60200260200101516040518263ffffffff1660e01b81526004016000604051808303818588803b15801561285d57600080fd5b505af1158015612871573d6000803e3d6000fd5b50505050505b508061288281615733565b915050612730565b50505050565b6001600160a01b0383166128f25760405162461bcd60e51b8152602060048201526024808201527f45524332303a20617070726f76652066726f6d20746865207a65726f206164646044820152637265737360e01b606482015260840161080a565b6001600160a01b0382166129535760405162461bcd60e51b815260206004820152602260248201527f45524332303a20617070726f766520746f20746865207a65726f206164647265604482015261737360f01b606482015260840161080a565b6001600160a01b0383811660008181526034602090815260408083209487168084529482529182902085905590518481527f8c5be1e5ebec7d5bd14f71427d1e84f3dd0314c0f7b2291e5b200ac8c7c3b925910160405180910390a3505050565b60006129c08484611c94565b9050600019811461288a5781811015612a1b5760405162461bcd60e51b815260206004820152601d60248201527f45524332303a20696e73756666696369656e7420616c6c6f77616e6365000000604482015260640161080a565b61288a8484848403612890565b6001600160a01b038316612a8c5760405162461bcd60e51b815260206004820152602560248201527f45524332303a207472616e736665722066726f6d20746865207a65726f206164604482015264647265737360d81b606482015260840161080a565b6001600160a01b038216612aee5760405162461bcd60e51b815260206004820152602360248201527f45524332303a207472616e7366657220746f20746865207a65726f206164647260448201526265737360e81b606482015260840161080a565b6001600160a01b03831660009081526033602052604090205481811015612b665760405162461bcd60e51b815260206004820152602660248201527f45524332303a207472616e7366657220616d6f756e7420657863656564732062604482015265616c616e636560d01b606482015260840161080a565b6001600160a01b03808516600090815260336020526040808220858503905591851681529081208054849290612b9d9084906156ac565b92505081905550826001600160a01b0316846001600160a01b03167fddf252ad1be2c89b69c2b068fc378daa952ba7f163c4a11628f55a4df523b3ef84604051612be991815260200190565b60405180910390a361288a565b60d754604080516245b61b60e81b81529051612c6c926001600160a01b0316916345b61b009160048083019260209291908290030181865afa158015612c40573d6000803e3d6000fd5b505050506040513d601f19601f82011682018060405250810190612c6491906154f1565b61263a611486565b4260d555565b612c9660405180606001604052806000815260200160008152602001600081525090565b60408051606081019182905260d0546370a0823160e01b9092523060648201529081906001600160a01b03166370a0823160848301602060405180830381865afa158015612ce8573d6000803e3d6000fd5b505050506040513d601f19601f82011682018060405250810190612d0c91906154d8565b815260d1546040516370a0823160e01b81523060048201526020909201916001600160a01b03909116906370a0823190602401602060405180830381865afa158015612d5c573d6000803e3d6000fd5b505050506040513d601f19601f82011682018060405250810190612d8091906154d8565b815260200147815250905090565b60d760009054906101000a90046001600160a01b03166001600160a01b031663ef3bac5e6040518163ffffffff1660e01b8152600401602060405180830381865afa158015612de1573d6000803e3d6000fd5b505050506040513d601f19601f82011682018060405250810190612e0591906154f1565b6001600160a01b0316826001600160a01b031603612e9557803414612e3d57604051631741454360e31b815260040160405180910390fd5b816001600160a01b031663d0e30db0826040518263ffffffff1660e01b81526004016000604051808303818588803b158015612e7857600080fd5b505af1158015612e8c573d6000803e3d6000fd5b50505050505050565b612eaa6001600160a01b0383163330846140a3565b5050565b600080612eb961129c565b90506000612ec782866140db565b9050600060d760009054906101000a90046001600160a01b03166001600160a01b031663f77c47916040518163ffffffff1660e01b8152600401602060405180830381865afa158015612f1e573d6000803e3d6000fd5b505050506040513d601f19601f82011682018060405250810190612f4291906154f1565b90506001600160a01b03811615801590612fc25750604051635886216f60e01b81523360048201526001600160a01b03821690635886216f90602401602060405180830381865afa158015612f9b573d6000803e3d6000fd5b505050506040513d601f19601f82011682018060405250810190612fbf91906154d8565b82115b15612fe057604051637f84ae1560e01b815260040160405180910390fd5b6000612ffa838860600151896000015161126191906156ac565b90508781101561302757604051630968dbbb60e31b8152600481018990526024810182905260440161080a565b6130318982613997565b61303c838886614165565b61304886612152612c72565b6001600160a01b038216156130b857604051630afe546360e21b8152336004820152602481018290526001600160a01b03831690632bf9518c90604401600060405180830381600087803b15801561309f57600080fd5b505af11580156130b3573d6000803e3d6000fd5b505050505b60408051828152602081018d90529081018b90526001600160a01b038a169033907fab14747d46633612ff5c029a3117f98ffb6506ebf31bab40972f911b7dd188919060600160405180910390a39a9950505050505050505050565b600080806000198587098587029250828110838203039150508060000361314d576000841161314257600080fd5b508290049050611055565b80841161315957600080fd5b60008486880960026001871981018816978890046003810283188082028403028082028403028082028403028082028403028082028403029081029092039091026000889003889004909101858311909403939093029303949094049190911702949350505050565b6000806131cd611486565b6035546131da91906156ac565b9050806000036131ed5783915050611030565b6131f8848285613114565b949350505050565b609780546001600160a01b038381166001600160a01b0319831681179093556040519116919082907f8be0079c531659141344cd1fd0a4f28419497f9722a3daafe3b4186f6b6457e090600090a35050565b60d65460cb5460405163125d417960e11b8152600481018490526001600160a01b039182166024820152600092839283929116906324ba82f2906044015b6040805180830381865afa1580156132ac573d6000803e3d6000fd5b505050506040513d601f19601f820116820180604052508101906132d091906156f9565b9092509050620151806132e38242615565565b111561330257604051634efe81e560e01b815260040160405180910390fd5b5092915050565b60405163133f757160e31b81526004810183905260009081906001600160a01b038616906399fbab8890602401606060405180830381865afa158015613353573d6000803e3d6000fd5b505050506040513d601f19601f82011682018060405250810190613377919061574c565b925050506000856001600160a01b031663fc0c546a6040518163ffffffff1660e01b8152600401602060405180830381865afa1580156133bb573d6000803e3d6000fd5b505050506040513d601f19601f820116820180604052508101906133df91906154f1565b90506000866001600160a01b03166376c46b7b6040518163ffffffff1660e01b8152600401602060405180830381865afa158015613421573d6000803e3d6000fd5b505050506040513d601f19601f8201168201806040525081019061344591906154d8565b9050806000036134755761346b61345b836144c2565b6134658786615524565b906144fb565b9350505050611055565b604051632fc11c0f60e01b8152600060048201819052906001600160a01b03891690632fc11c0f90602401602060405180830381865afa1580156134bd573d6000803e3d6000fd5b505050506040513d601f19601f820116820180604052508101906134e191906154d8565b886001600160a01b0316630a355d7d6040518163ffffffff1660e01b8152600401602060405180830381865afa15801561351f573d6000803e3d6000fd5b505050506040513d601f19601f8201168201806040525081019061354391906154d8565b61354d91906156ac565b9050600061355c858385613114565b905061357461356a856144c2565b6134658984615524565b9998505050505050505050565b60008054610100900460ff16156135c8578160ff1660011480156135a45750303b155b6135c05760405162461bcd60e51b815260040161080a9061578f565b506000919050565b60005460ff8084169116106135ef5760405162461bcd60e51b815260040161080a9061578f565b506000805460ff191660ff92909216919091179055600190565b919050565b600054610100900460ff166136355760405162461bcd60e51b815260040161080a906157dd565b61129a614510565b600054610100900460ff166136645760405162461bcd60e51b815260040161080a906157dd565b61129a614540565b600054610100900460ff166136935760405162461bcd60e51b815260040161080a906157dd565b612eaa828261456e565b600080826001600160a01b031663313ce5676040518163ffffffff1660e01b8152600401602060405180830381865afa1580156136de573d6000803e3d6000fd5b505050506040513d601f19601f820116820180604052508101906137029190615828565b60ff169050601281111561372c576040516305a2eafd60e51b81526004810182905260240161080a565b8060120361373d5750600192915050565b600061374a826012615565565b6131f890600a615929565b60008061376285856145bc565b905061376e8184615524565b61377886866145d3565b6137829083615565565b61378e90612710615524565b111595945050505050565b8151815110156137cf5760d054825182516040516337258c1960e01b815261080a936001600160a01b0316929190600401615935565b8160200151816020015110156138115760d154602080840151908301516040516337258c1960e01b815261080a936001600160a01b0316929190600401615935565b816040015181604001511015612eaa576000826040015182604001516040516337258c1960e01b815260040161080a93929190615935565b6001600160a01b0382166138a95760405162461bcd60e51b815260206004820152602160248201527f45524332303a206275726e2066726f6d20746865207a65726f206164647265736044820152607360f81b606482015260840161080a565b6001600160a01b0382166000908152603360205260409020548181101561391d5760405162461bcd60e51b815260206004820152602260248201527f45524332303a206275726e20616d6f756e7420657863656564732062616c616e604482015261636560f01b606482015260840161080a565b6001600160a01b038316600090815260336020526040812083830390556035805484929061394c908490615565565b90915550506040518281526000906001600160a01b038516907fddf252ad1be2c89b69c2b068fc378daa952ba7f163c4a11628f55a4df523b3ef9060200160405180910390a3505050565b6001600160a01b0382166139ed5760405162461bcd60e51b815260206004820152601f60248201527f45524332303a206d696e7420746f20746865207a65726f206164647265737300604482015260640161080a565b80603560008282546139ff91906156ac565b90915550506001600160a01b03821660009081526033602052604081208054839290613a2c9084906156ac565b90915550506040518181526001600160a01b038316906000907fddf252ad1be2c89b69c2b068fc378daa952ba7f163c4a11628f55a4df523b3ef9060200160405180910390a35050565b600080613a8161129c565b90506000613a8d612c72565b9050600060d760009054906101000a90046001600160a01b03166001600160a01b031663ef3bac5e6040518163ffffffff1660e01b8152600401602060405180830381865afa158015613ae4573d6000803e3d6000fd5b505050506040513d601f19601f82011682018060405250810190613b0891906154f1565b60d0546001600160a01b03908116911614613b305784518251613b2b9190615565565b613b44565b84604001518260400151613b449190615565565b9050600060d760009054906101000a90046001600160a01b03166001600160a01b031663ef3bac5e6040518163ffffffff1660e01b8152600401602060405180830381865afa158015613b9b573d6000803e3d6000fd5b505050506040513d601f19601f82011682018060405250810190613bbf91906154f1565b60d1546001600160a01b03908116911614613bed5785602001518360200151613be89190615565565b613c01565b85604001518360400151613c019190615565565b905089821015613c355760d054604051637e318ff960e11b815261080a916001600160a01b0316908c908590600401615935565b88811015613c675760d154604051637e318ff960e11b815261080a916001600160a01b0316908b908490600401615935565b6000613c7388866140db565b905080891015613ca0576040516389454dc160e01b815260048101829052602481018a905260440161080a565b613cab8989876145e2565b613cb58785613799565b60d054613ccd9033906001600160a01b0316856148c9565b60d154613ce59033906001600160a01b0316846148c9565b60d7546040805163f77c479160e01b815290516000926001600160a01b03169163f77c47919160048083019260209291908290030181865afa158015613d2f573d6000803e3d6000fd5b505050506040513d601f19601f82011682018060405250810190613d5391906154f1565b90506001600160a01b03811615613dc55760405163ccad973d60e01b8152326004820152602481018e90526001600160a01b0382169063ccad973d90604401600060405180830381600087803b158015613dac57600080fd5b505af1158015613dc0573d6000803e3d6000fd5b505050505b604080518581526020810185905233917fda9a10d7b992511ddadbfc7ff712c1424ce2058bbcdac8c9876d6f8de590d43f910160405180910390a2509b9a5050505050505050505050565b6000613e65826040518060400160405280602081526020017f5361666545524332303a206c6f772d6c6576656c2063616c6c206661696c6564815250856001600160a01b03166149769092919063ffffffff16565b8051909150156126f75780806020019051810190613e839190615428565b6126f75760405162461bcd60e51b815260206004820152602a60248201527f5361666545524332303a204552433230206f7065726174696f6e20646964206e6044820152691bdd081cdd58d8d9595960b21b606482015260840161080a565b60d3541580613ef1575060d454155b15613f0f57604051633f8ef80760e01b815260040160405180910390fd5b600080600080600080600087806020019051810190613f2e9190615956565b965096509650965096509650965060d760149054906101000a900460ff1660ff16600114158015613f9e575060cc546001600160a01b038881169116148015613f78575060d35486145b80613f9c575060cd546001600160a01b038881169116148015613f9c575060d45486145b155b15613fce576040516325c502df60e01b81526001600160a01b03881660048201526024810187905260440161080a565b60d054613fe7906001600160a01b031688600019614985565b60d154614000906001600160a01b031688600019614985565b60405163d72ef77160e01b81526001600160a01b0388169063d72ef7719061403690899089908990899089908990600401615a1d565b600060405180830381600087803b15801561405057600080fd5b505af1158015614064573d6000803e3d6000fd5b505060d05461408192506001600160a01b03169050886000614985565b60d154614099906001600160a01b0316886000614985565b5050505050505050565b6040516001600160a01b038085166024830152831660448201526064810182905261288a9085906323b872dd60e01b906084016126c0565b6000808260a0015183604001516140f291906156ac565b8460a00151856040015161410691906156ac565b6141109190615565565b905060008360800151846020015161412891906156ac565b8560800151866020015161413c91906156ac565b6141469190615565565b90508061415283613252565b61415c9190615565565b95945050505050565b60d7546040805163f9bfd90760e01b815290516000926001600160a01b03169163f9bfd9079160048083019260209291908290030181865afa1580156141af573d6000803e3d6000fd5b505050506040513d601f19601f820116820180604052508101906141d391906154d8565b9050600060d760009054906101000a90046001600160a01b03166001600160a01b031663e592c5fa6040518163ffffffff1660e01b8152600401602060405180830381865afa15801561422a573d6000803e3d6000fd5b505050506040513d601f19601f8201168201806040525081019061424e9190615828565b90506000836080015184606001518560200151866000015161427091906156ac565b61427a91906156ac565b61428491906156ac565b60d754604051633582406160e01b8152600481018390529192506001600160a01b031690633582406190602401602060405180830381865afa1580156142ce573d6000803e3d6000fd5b505050506040513d601f19601f820116820180604052508101906142f29190615428565b61430f576040516308b2d32960e11b815260040160405180910390fd5b6000600261431d8482615a62565b6143279190615a83565b60ff16614335600285615a83565b6143429060ff1689615524565b61434c9190615543565b90506000600261435c8582615a62565b6143669190615a83565b60ff168460ff16896143789190615524565b6143829190615543565b905060008760200151876020015161439a9190615565565b90506000886080015188608001516143b29190615565565b90506000826143ce8b604001518b60400151611b8d9190615565565b6143d89190615565565b90506000826143f48c60a001518c60a00151611b8d9190615565565b6143fe9190615565565b905061440b82878b613755565b158061441f575061441d81868b613755565b155b1561443d5760405163bfe2242360e01b815260040160405180910390fd5b600061444a60018a615a83565b6144579060ff1688615524565b9050600061446660018b615a83565b6144739060ff1688615524565b905061448086838d613755565b1580614494575061449285828d613755565b155b156144b257604051638cc3aa7d60e01b815260040160405180910390fd5b5050505050505050505050505050565b60d654604051630681320d60e51b81526001600160a01b038381166004830152600092839283929091169063d02641a090602401613290565b60006110558383670de0b6b3a7640000614a9a565b600054610100900460ff166145375760405162461bcd60e51b815260040161080a906157dd565b61129a33613200565b600054610100900460ff166145675760405162461bcd60e51b815260040161080a906157dd565b6001606555565b600054610100900460ff166145955760405162461bcd60e51b815260040161080a906157dd565b81516145a8906036906020850190614cd3565b5080516126f7906037906020840190614cd3565b6000818310156145cc5781611055565b5090919050565b60008183106145cc5781611055565b60d7546040805163f9bfd90760e01b815290516000926001600160a01b03169163f9bfd9079160048083019260209291908290030181865afa15801561462c573d6000803e3d6000fd5b505050506040513d601f19601f8201168201806040525081019061465091906154d8565b9050600060d760009054906101000a90046001600160a01b03166001600160a01b03166364facdd56040518163ffffffff1660e01b8152600401602060405180830381865afa1580156146a7573d6000803e3d6000fd5b505050506040513d601f19601f820116820180604052508101906146cb91906154d8565b90506000846060015185600001516146e391906156ac565b905060006146fe85604001518760400151611b8d9190615565565b905061473e82866020015188602001516147189190615565565b6147229084615565565b61472c9190615524565b8751614738908a615524565b86613755565b61475b5760405163ed73742f60e01b815260040160405180910390fd5b60006147748660a001518860a00151611b8d9190615565565b90506147b7838760800151896080015161478e9190615565565b6147989084615565565b6147a29190615524565b60608901516147b1908b615524565b87613755565b6147d45760405163ed73742f60e01b815260040160405180910390fd5b602087015187516000916147e7916156ac565b90506000876020015188600001516147ff91906156ac565b90506148298860200151836148149190615524565b60208b01516148239084615524565b88613755565b6148465760405163b025d75560e01b815260040160405180910390fd5b600089608001518a6060015161485c91906156ac565b9050600089608001518a6060015161487491906156ac565b905061489e8a60800151836148899190615524565b60808d01516148989084615524565b8a613755565b6148bb5760405163b025d75560e01b815260040160405180910390fd5b505050505050505050505050565b60d760009054906101000a90046001600160a01b03166001600160a01b031663ef3bac5e6040518163ffffffff1660e01b8152600401602060405180830381865afa15801561491c573d6000803e3d6000fd5b505050506040513d601f19601f8201168201806040525081019061494091906154f1565b6001600160a01b0316826001600160a01b031603614962576126f78382614ab9565b6126f76001600160a01b0383168483612694565b60606131f88484600085614b69565b8015806149ff5750604051636eb1769f60e11b81523060048201526001600160a01b03838116602483015284169063dd62ed3e90604401602060405180830381865afa1580156149d9573d6000803e3d6000fd5b505050506040513d601f19601f820116820180604052508101906149fd91906154d8565b155b614a6a5760405162461bcd60e51b815260206004820152603660248201527f5361666545524332303a20617070726f76652066726f6d206e6f6e2d7a65726f60448201527520746f206e6f6e2d7a65726f20616c6c6f77616e636560501b606482015260840161080a565b6040516001600160a01b0383166024820152604481018290526126f790849063095ea7b360e01b906064016126c0565b828202811515841585830485141716614ab257600080fd5b0492915050565b604080516000808252602082019092526001600160a01b038416908390604051614ae39190615aa6565b60006040518083038185875af1925050503d8060008114614b20576040519150601f19603f3d011682016040523d82523d6000602084013e614b25565b606091505b50509050806126f75760405162461bcd60e51b815260206004820152601060248201526f042e6c2cccaa8e4c2dce6cccae48aa8960831b604482015260640161080a565b606082471015614bca5760405162461bcd60e51b815260206004820152602660248201527f416464726573733a20696e73756666696369656e742062616c616e636520666f6044820152651c8818d85b1b60d21b606482015260840161080a565b6001600160a01b0385163b614c215760405162461bcd60e51b815260206004820152601d60248201527f416464726573733a2063616c6c20746f206e6f6e2d636f6e7472616374000000604482015260640161080a565b600080866001600160a01b03168587604051614c3d9190615aa6565b60006040518083038185875af1925050503d8060008114614c7a576040519150601f19603f3d011682016040523d82523d6000602084013e614c7f565b606091505b5091509150614c8f828286614c9a565b979650505050505050565b60608315614ca9575081611055565b825115614cb95782518084602001fd5b8160405162461bcd60e51b815260040161080a919061507f565b828054614cdf90615672565b90600052602060002090601f016020900481019282614d015760008555614d47565b82601f10614d1a57805160ff1916838001178555614d47565b82800160010185558215614d47579182015b82811115614d47578251825591602001919060010190614d2c565b50614d53929150614d57565b5090565b5b80821115614d535760008155600101614d58565b634e487b7160e01b600052604160045260246000fd5b604051601f8201601f191681016001600160401b0381118282101715614daa57614daa614d6c565b604052919050565b60006001600160401b03821115614dcb57614dcb614d6c565b5060051b60200190565b60ff81168114611d5757600080fd5b600082601f830112614df557600080fd5b81356020614e0a614e0583614db2565b614d82565b82815260059290921b84018101918181019086841115614e2957600080fd5b8286015b84811015614e4d578035614e4081614dd5565b8352918301918301614e2d565b509695505050505050565b600082601f830112614e6957600080fd5b81356020614e79614e0583614db2565b82815260059290921b84018101918181019086841115614e9857600080fd5b8286015b84811015614e4d5780358352918301918301614e9c565b60006001600160401b03821115614ecc57614ecc614d6c565b50601f01601f191660200190565b600082601f830112614eeb57600080fd5b81356020614efb614e0583614db2565b82815260059290921b84018101918181019086841115614f1a57600080fd5b8286015b84811015614e4d5780356001600160401b03811115614f3d5760008081fd5b8701603f81018913614f4f5760008081fd5b848101356040614f61614e0583614eb3565b8281528b82848601011115614f765760008081fd5b8282850189830137600092810188019290925250845250918301918301614f1e565b60008060008060808587031215614fae57600080fd5b84356001600160401b0380821115614fc557600080fd5b614fd188838901614de4565b95506020870135915080821115614fe757600080fd5b614ff388838901614e58565b9450604087013591508082111561500957600080fd5b5061501687828801614eda565b949793965093946060013593505050565b60005b8381101561504257818101518382015260200161502a565b8381111561288a5750506000910152565b6000815180845261506b816020860160208601615027565b601f01601f19169290920160200192915050565b6020815260006110556020830184615053565b6001600160a01b0381168114611d5757600080fd5b803561360981615092565b600080604083850312156150c557600080fd5b82356150d081615092565b946020939093013593505050565b6000806000606084860312156150f357600080fd5b83356150fe81615092565b9250602084013561510e81615092565b929592945050506040919091013590565b60008083601f84011261513157600080fd5b5081356001600160401b0381111561514857600080fd5b60208301915083602082850101111561516057600080fd5b9250929050565b60008060008060008060a0878903121561518057600080fd5b8635955060208701359450604087013561519981615092565b93506060870135925060808701356001600160401b038111156151bb57600080fd5b6151c789828a0161511f565b979a9699509497509295939492505050565b6000602082840312156151eb57600080fd5b5035919050565b60006020828403121561520457600080fd5b813561105581615092565b6000806000806000806000806000806000806101408d8f03121561523257600080fd5b6001600160401b038d35111561524757600080fd5b6152548e8e358f0161511f565b909c509a506001600160401b0360208e0135111561527157600080fd5b6152818e60208f01358f0161511f565b909a50985061529260408e016150a7565b97506152a060608e016150a7565b96506152ae60808e016150a7565b95506152bc60a08e016150a7565b94506152ca60c08e016150a7565b93506152d860e08e016150a7565b92506152e76101008e016150a7565b91506152f66101208e016150a7565b90509295989b509295989b509295989b565b6000806040838503121561531b57600080fd5b823561532681615092565b9150602083013561533681615092565b809150509250929050565b60008060006060848603121561535657600080fd5b83356001600160401b038082111561536d57600080fd5b61537987838801614de4565b9450602086013591508082111561538f57600080fd5b61539b87838801614e58565b935060408601359150808211156153b157600080fd5b506153be86828701614eda565b9150509250925092565b6000806000806000608086880312156153e057600080fd5b85359450602086013593506040860135925060608601356001600160401b0381111561540b57600080fd5b6154178882890161511f565b969995985093965092949392505050565b60006020828403121561543a57600080fd5b8151801515811461105557600080fd5b6000602080838503121561545d57600080fd5b82516001600160401b0381111561547357600080fd5b8301601f8101851361548457600080fd5b8051615492614e0582614db2565b81815260059190911b820183019083810190878311156154b157600080fd5b928401925b82841015614c8f5783516154c981615092565b825292840192908401906154b6565b6000602082840312156154ea57600080fd5b5051919050565b60006020828403121561550357600080fd5b815161105581615092565b634e487b7160e01b600052601160045260246000fd5b600081600019048311821515161561553e5761553e61550e565b500290565b60008261556057634e487b7160e01b600052601260045260246000fd5b500490565b6000828210156155775761557761550e565b500390565b600060a082018783526020878185015260a0604085015281875180845260c086019150828901935060005b818110156155cc5784516001600160a01b0316835293830193918301916001016155a7565b50506001600160a01b03969096166060850152505050608001529392505050565b6000602080838503121561560057600080fd5b82516001600160401b0381111561561657600080fd5b8301601f8101851361562757600080fd5b8051615635614e0582614db2565b81815260059190911b8201830190838101908783111561565457600080fd5b928401925b82841015614c8f57835182529284019290840190615659565b600181811c9082168061568657607f821691505b6020821081036156a657634e487b7160e01b600052602260045260246000fd5b50919050565b600082198211156156bf576156bf61550e565b500190565b6020808252818101527f4f776e61626c653a2063616c6c6572206973206e6f7420746865206f776e6572604082015260600190565b6000806040838503121561570c57600080fd5b505080516020909101519092909150565b634e487b7160e01b600052603260045260246000fd5b6000600182016157455761574561550e565b5060010190565b60008060006060848603121561576157600080fd5b835161576c81615092565b602085015190935061577d81615092565b80925050604084015190509250925092565b6020808252602e908201527f496e697469616c697a61626c653a20636f6e747261637420697320616c72656160408201526d191e481a5b9a5d1a585b1a5e995960921b606082015260800190565b6020808252602b908201527f496e697469616c697a61626c653a20636f6e7472616374206973206e6f74206960408201526a6e697469616c697a696e6760a81b606082015260800190565b60006020828403121561583a57600080fd5b815161105581614dd5565b600181815b808511156158805781600019048211156158665761586661550e565b8085161561587357918102915b93841c939080029061584a565b509250929050565b60008261589757506001611030565b816158a457506000611030565b81600181146158ba57600281146158c4576158e0565b6001915050611030565b60ff8411156158d5576158d561550e565b50506001821b611030565b5060208310610133831016604e8410600b8410161715615903575081810a611030565b61590d8383615845565b80600019048211156159215761592161550e565b029392505050565b60006110558383615888565b6001600160a01b039390931683526020830191909152604082015260600190565b600080600080600080600060e0888a03121561597157600080fd5b875161597c81615092565b602089015160408a0151919850965061599481615092565b80955050606088015193506080880151925060a0880151915060c08801516001600160401b038111156159c657600080fd5b8801601f81018a136159d757600080fd5b80516159e5614e0582614eb3565b8181528b60208385010111156159fa57600080fd5b615a0b826020830160208601615027565b80935050505092959891949750929550565b86815260018060a01b038616602082015284604082015283606082015282608082015260c060a08201526000615a5660c0830184615053565b98975050505050505050565b600060ff821660ff84168160ff04811182151516156159215761592161550e565b600060ff821660ff841680821015615a9d57615a9d61550e565b90039392505050565b60008251615ab8818460208701615027565b919091019291505056fea2646970667358221220ea1539e535ef60f36ab00c65201238eb6da9512884ad4bd7295cffe6be826d5964736f6c634300080d0033496e697469616c697a61626c653a20636f6e747261637420697320616c726561",
			"opcodes": "PUSH1 0x80 PUSH1 0x40 MSTORE CALLVALUE DUP1 ISZERO PUSH3 0x11 JUMPI PUSH1 0x0 DUP1 REVERT JUMPDEST POP PUSH1 0x0 PUSH3 0x20 PUSH1 0x1 PUSH3 0x87 JUMP JUMPDEST SWAP1 POP DUP1 ISZERO PUSH3 0x39 JUMPI PUSH1 0x0 DUP1 SLOAD PUSH2 0xFF00 NOT AND PUSH2 0x100 OR SWAP1 SSTORE JUMPDEST DUP1 ISZERO PUSH3 0x80 JUMPI PUSH1 0x0 DUP1 SLOAD PUSH2 0xFF00 NOT AND SWAP1 SSTORE PUSH1 0x40 MLOAD PUSH1 0x1 DUP2 MSTORE PUSH32 0x7F26B83FF96E1F2B6A682F133852F6798A09C465DA95921460CEFB3847402498 SWAP1 PUSH1 0x20 ADD PUSH1 0x40 MLOAD DUP1 SWAP2 SUB SWAP1 LOG1 JUMPDEST POP PUSH3 0x1A8 JUMP JUMPDEST PUSH1 0x0 DUP1 SLOAD PUSH2 0x100 SWAP1 DIV PUSH1 0xFF AND ISZERO PUSH3 0x120 JUMPI DUP2 PUSH1 0xFF AND PUSH1 0x1 EQ DUP1 ISZERO PUSH3 0xC0 JUMPI POP PUSH3 0xBE ADDRESS PUSH3 0x199 PUSH1 0x20 SHL PUSH3 0x2685 OR PUSH1 0x20 SHR JUMP JUMPDEST ISZERO JUMPDEST PUSH3 0x118 JUMPI PUSH1 0x40 MLOAD PUSH3 0x461BCD PUSH1 0xE5 SHL DUP2 MSTORE PUSH1 0x20 PUSH1 0x4 DUP3 ADD MSTORE PUSH1 0x2E PUSH1 0x24 DUP3 ADD MSTORE PUSH1 0x0 DUP1 MLOAD PUSH1 0x20 PUSH3 0x5CB0 DUP4 CODECOPY DUP2 MLOAD SWAP2 MSTORE PUSH1 0x44 DUP3 ADD MSTORE PUSH14 0x191E481A5B9A5D1A585B1A5E9959 PUSH1 0x92 SHL PUSH1 0x64 DUP3 ADD MSTORE PUSH1 0x84 ADD JUMPDEST PUSH1 0x40 MLOAD DUP1 SWAP2 SUB SWAP1 REVERT JUMPDEST POP PUSH1 0x0 SWAP2 SWAP1 POP JUMP JUMPDEST PUSH1 0x0 SLOAD PUSH1 0xFF DUP1 DUP5 AND SWAP2 AND LT PUSH3 0x17F JUMPI PUSH1 0x40 MLOAD PUSH3 0x461BCD PUSH1 0xE5 SHL DUP2 MSTORE PUSH1 0x20 PUSH1 0x4 DUP3 ADD MSTORE PUSH1 0x2E PUSH1 0x24 DUP3 ADD MSTORE PUSH1 0x0 DUP1 MLOAD PUSH1 0x20 PUSH3 0x5CB0 DUP4 CODECOPY DUP2 MLOAD SWAP2 MSTORE PUSH1 0x44 DUP3 ADD MSTORE PUSH14 0x191E481A5B9A5D1A585B1A5E9959 PUSH1 0x92 SHL PUSH1 0x64 DUP3 ADD MSTORE PUSH1 0x84 ADD PUSH3 0x10F JUMP JUMPDEST POP PUSH1 0x0 DUP1 SLOAD PUSH1 0xFF NOT AND PUSH1 0xFF SWAP3 SWAP1 SWAP3 AND SWAP2 SWAP1 SWAP2 OR SWAP1 SSTORE PUSH1 0x1 SWAP1 JUMP JUMPDEST PUSH1 0x1 PUSH1 0x1 PUSH1 0xA0 SHL SUB AND EXTCODESIZE ISZERO ISZERO SWAP1 JUMP JUMPDEST PUSH2 0x5AF8 DUP1 PUSH3 0x1B8 PUSH1 0x0 CODECOPY PUSH1 0x0 RETURN INVALID PUSH1 0x80 PUSH1 0x40 MSTORE PUSH1 0x4 CALLDATASIZE LT PUSH2 0x24A JUMPI PUSH1 0x0 CALLDATALOAD PUSH1 0xE0 SHR DUP1 PUSH4 0x7A5948CF GT PUSH2 0x139 JUMPI DUP1 PUSH4 0xA9D75B2B GT PUSH2 0xB6 JUMPI DUP1 PUSH4 0xF2FDE38B GT PUSH2 0x7A JUMPI DUP1 PUSH4 0xF2FDE38B EQ PUSH2 0x6D0 JUMPI DUP1 PUSH4 0xF61EBC36 EQ PUSH2 0x6F0 JUMPI DUP1 PUSH4 0xF76BDCEB EQ PUSH2 0x710 JUMPI DUP1 PUSH4 0xF97B7186 EQ PUSH2 0x730 JUMPI DUP1 PUSH4 0xF9E7E7A9 EQ PUSH2 0x750 JUMPI DUP1 PUSH4 0xFE55892D EQ PUSH2 0x763 JUMPI PUSH1 0x0 DUP1 REVERT JUMPDEST DUP1 PUSH4 0xA9D75B2B EQ PUSH2 0x63A JUMPI DUP1 PUSH4 0xBED65BAE EQ PUSH2 0x65A JUMPI DUP1 PUSH4 0xD3890EE6 EQ PUSH2 0x67A JUMPI DUP1 PUSH4 0xDD62ED3E EQ PUSH2 0x69A JUMPI DUP1 PUSH4 0xEEA7929F EQ PUSH2 0x6BA JUMPI PUSH1 0x0 DUP1 REVERT JUMPDEST DUP1 PUSH4 0x95D89B41 GT PUSH2 0xFD JUMPI DUP1 PUSH4 0x95D89B41 EQ PUSH2 0x5B0 JUMPI DUP1 PUSH4 0x9A9A5B52 EQ PUSH2 0x5C5 JUMPI DUP1 PUSH4 0x9ADCA65C EQ PUSH2 0x5E5 JUMPI DUP1 PUSH4 0xA457C2D7 EQ PUSH2 0x5FA JUMPI DUP1 PUSH4 0xA9059CBB EQ PUSH2 0x61A JUMPI PUSH1 0x0 DUP1 REVERT JUMPDEST DUP1 PUSH4 0x7A5948CF EQ PUSH2 0x4E6 JUMPI DUP1 PUSH4 0x7B05FE62 EQ PUSH2 0x4FC JUMPI DUP1 PUSH4 0x818D8149 EQ PUSH2 0x55D JUMPI DUP1 PUSH4 0x88BF176E EQ PUSH2 0x572 JUMPI DUP1 PUSH4 0x8DA5CB5B EQ PUSH2 0x592 JUMPI PUSH1 0x0 DUP1 REVERT JUMPDEST DUP1 PUSH4 0x34CF3B21 GT PUSH2 0x1C7 JUMPI DUP1 PUSH4 0x6F42F9C7 GT PUSH2 0x18B JUMPI DUP1 PUSH4 0x6F42F9C7 EQ PUSH2 0x445 JUMPI DUP1 PUSH4 0x70A08231 EQ PUSH2 0x465 JUMPI DUP1 PUSH4 0x715018A6 EQ PUSH2 0x49B JUMPI DUP1 PUSH4 0x750290DA EQ PUSH2 0x4B0 JUMPI DUP1 PUSH4 0x79502C55 EQ PUSH2 0x4C6 JUMPI PUSH1 0x0 DUP1 REVERT JUMPDEST DUP1 PUSH4 0x34CF3B21 EQ PUSH2 0x3BC JUMPI DUP1 PUSH4 0x39509351 EQ PUSH2 0x3CF JUMPI DUP1 PUSH4 0x441130D5 EQ PUSH2 0x3EF JUMPI DUP1 PUSH4 0x4AA187BE EQ PUSH2 0x40F JUMPI DUP1 PUSH4 0x4B64FCD1 EQ PUSH2 0x425 JUMPI PUSH1 0x0 DUP1 REVERT JUMPDEST DUP1 PUSH4 0x18160DDD GT PUSH2 0x20E JUMPI DUP1 PUSH4 0x18160DDD EQ PUSH2 0x32B JUMPI DUP1 PUSH4 0x23B872DD EQ PUSH2 0x34A JUMPI DUP1 PUSH4 0x2630C12F EQ PUSH2 0x36A JUMPI DUP1 PUSH4 0x2DCDBD04 EQ PUSH2 0x38A JUMPI DUP1 PUSH4 0x313CE567 EQ PUSH2 0x3A0 JUMPI PUSH1 0x0 DUP1 REVERT JUMPDEST DUP1 PUSH4 0x39181A4 EQ PUSH2 0x256 JUMPI DUP1 PUSH4 0x6FDDE03 EQ PUSH2 0x278 JUMPI DUP1 PUSH4 0x8660289 EQ PUSH2 0x2A3 JUMPI DUP1 PUSH4 0x95EA7B3 EQ PUSH2 0x2DB JUMPI DUP1 PUSH4 0x1083F761 EQ PUSH2 0x30B JUMPI PUSH1 0x0 DUP1 REVERT JUMPDEST CALLDATASIZE PUSH2 0x251 JUMPI STOP JUMPDEST PUSH1 0x0 DUP1 REVERT JUMPDEST CALLVALUE DUP1 ISZERO PUSH2 0x262 JUMPI PUSH1 0x0 DUP1 REVERT JUMPDEST POP PUSH2 0x276 PUSH2 0x271 CALLDATASIZE PUSH1 0x4 PUSH2 0x4F98 JUMP JUMPDEST PUSH2 0x783 JUMP JUMPDEST STOP JUMPDEST CALLVALUE DUP1 ISZERO PUSH2 0x284 JUMPI PUSH1 0x0 DUP1 REVERT JUMPDEST POP PUSH2 0x28D PUSH2 0xF8A JUMP JUMPDEST PUSH1 0x40 MLOAD PUSH2 0x29A SWAP2 SWAP1 PUSH2 0x507F JUMP JUMPDEST PUSH1 0x40 MLOAD DUP1 SWAP2 SUB SWAP1 RETURN JUMPDEST CALLVALUE DUP1 ISZERO PUSH2 0x2AF JUMPI PUSH1 0x0 DUP1 REVERT JUMPDEST POP PUSH1 0xCE SLOAD PUSH2 0x2C3 SWAP1 PUSH1 0x1 PUSH1 0x1 PUSH1 0xA0 SHL SUB AND DUP2 JUMP JUMPDEST PUSH1 0x40 MLOAD PUSH1 0x1 PUSH1 0x1 PUSH1 0xA0 SHL SUB SWAP1 SWAP2 AND DUP2 MSTORE PUSH1 0x20 ADD PUSH2 0x29A JUMP JUMPDEST CALLVALUE DUP1 ISZERO PUSH2 0x2E7 JUMPI PUSH1 0x0 DUP1 REVERT JUMPDEST POP PUSH2 0x2FB PUSH2 0x2F6 CALLDATASIZE PUSH1 0x4 PUSH2 0x50B2 JUMP JUMPDEST PUSH2 0x101C JUMP JUMPDEST PUSH1 0x40 MLOAD SWAP1 ISZERO ISZERO DUP2 MSTORE PUSH1 0x20 ADD PUSH2 0x29A JUMP JUMPDEST CALLVALUE DUP1 ISZERO PUSH2 0x317 JUMPI PUSH1 0x0 DUP1 REVERT JUMPDEST POP PUSH1 0xD1 SLOAD PUSH2 0x2C3 SWAP1 PUSH1 0x1 PUSH1 0x1 PUSH1 0xA0 SHL SUB AND DUP2 JUMP JUMPDEST CALLVALUE DUP1 ISZERO PUSH2 0x337 JUMPI PUSH1 0x0 DUP1 REVERT JUMPDEST POP PUSH1 0x35 SLOAD JUMPDEST PUSH1 0x40 MLOAD SWAP1 DUP2 MSTORE PUSH1 0x20 ADD PUSH2 0x29A JUMP JUMPDEST CALLVALUE DUP1 ISZERO PUSH2 0x356 JUMPI PUSH1 0x0 DUP1 REVERT JUMPDEST POP PUSH2 0x2FB PUSH2 0x365 CALLDATASIZE PUSH1 0x4 PUSH2 0x50DE JUMP JUMPDEST PUSH2 0x1036 JUMP JUMPDEST CALLVALUE DUP1 ISZERO PUSH2 0x376 JUMPI PUSH1 0x0 DUP1 REVERT JUMPDEST POP PUSH1 0xD6 SLOAD PUSH2 0x2C3 SWAP1 PUSH1 0x1 PUSH1 0x1 PUSH1 0xA0 SHL SUB AND DUP2 JUMP JUMPDEST CALLVALUE DUP1 ISZERO PUSH2 0x396 JUMPI PUSH1 0x0 DUP1 REVERT JUMPDEST POP PUSH2 0x33C PUSH1 0xD3 SLOAD DUP2 JUMP JUMPDEST CALLVALUE DUP1 ISZERO PUSH2 0x3AC JUMPI PUSH1 0x0 DUP1 REVERT JUMPDEST POP PUSH1 0x40 MLOAD PUSH1 0x12 DUP2 MSTORE PUSH1 0x20 ADD PUSH2 0x29A JUMP JUMPDEST PUSH2 0x33C PUSH2 0x3CA CALLDATASIZE PUSH1 0x4 PUSH2 0x5167 JUMP JUMPDEST PUSH2 0x105C JUMP JUMPDEST CALLVALUE DUP1 ISZERO PUSH2 0x3DB JUMPI PUSH1 0x0 DUP1 REVERT JUMPDEST POP PUSH2 0x2FB PUSH2 0x3EA CALLDATASIZE PUSH1 0x4 PUSH2 0x50B2 JUMP JUMPDEST PUSH2 0x11F6 JUMP JUMPDEST CALLVALUE DUP1 ISZERO PUSH2 0x3FB JUMPI PUSH1 0x0 DUP1 REVERT JUMPDEST POP PUSH2 0x33C PUSH2 0x40A CALLDATASIZE PUSH1 0x4 PUSH2 0x51D9 JUMP JUMPDEST PUSH2 0x1218 JUMP JUMPDEST CALLVALUE DUP1 ISZERO PUSH2 0x41B JUMPI PUSH1 0x0 DUP1 REVERT JUMPDEST POP PUSH2 0x33C PUSH1 0xC9 SLOAD DUP2 JUMP JUMPDEST CALLVALUE DUP1 ISZERO PUSH2 0x431 JUMPI PUSH1 0x0 DUP1 REVERT JUMPDEST POP PUSH2 0x33C PUSH2 0x440 CALLDATASIZE PUSH1 0x4 PUSH2 0x51D9 JUMP JUMPDEST PUSH2 0x1253 JUMP JUMPDEST CALLVALUE DUP1 ISZERO PUSH2 0x451 JUMPI PUSH1 0x0 DUP1 REVERT JUMPDEST POP PUSH1 0xCC SLOAD PUSH2 0x2C3 SWAP1 PUSH1 0x1 PUSH1 0x1 PUSH1 0xA0 SHL SUB AND DUP2 JUMP JUMPDEST CALLVALUE DUP1 ISZERO PUSH2 0x471 JUMPI PUSH1 0x0 DUP1 REVERT JUMPDEST POP PUSH2 0x33C PUSH2 0x480 CALLDATASIZE PUSH1 0x4 PUSH2 0x51F2 JUMP JUMPDEST PUSH1 0x1 PUSH1 0x1 PUSH1 0xA0 SHL SUB AND PUSH1 0x0 SWAP1 DUP2 MSTORE PUSH1 0x33 PUSH1 0x20 MSTORE PUSH1 0x40 SWAP1 KECCAK256 SLOAD SWAP1 JUMP JUMPDEST CALLVALUE DUP1 ISZERO PUSH2 0x4A7 JUMPI PUSH1 0x0 DUP1 REVERT JUMPDEST POP PUSH2 0x276 PUSH2 0x1266 JUMP JUMPDEST CALLVALUE DUP1 ISZERO PUSH2 0x4BC JUMPI PUSH1 0x0 DUP1 REVERT JUMPDEST POP PUSH2 0x33C PUSH1 0xD5 SLOAD DUP2 JUMP JUMPDEST CALLVALUE DUP1 ISZERO PUSH2 0x4D2 JUMPI PUSH1 0x0 DUP1 REVERT JUMPDEST POP PUSH1 0xD7 SLOAD PUSH2 0x2C3 SWAP1 PUSH1 0x1 PUSH1 0x1 PUSH1 0xA0 SHL SUB AND DUP2 JUMP JUMPDEST CALLVALUE DUP1 ISZERO PUSH2 0x4F2 JUMPI PUSH1 0x0 DUP1 REVERT JUMPDEST POP PUSH2 0x33C PUSH1 0xCA SLOAD DUP2 JUMP JUMPDEST CALLVALUE DUP1 ISZERO PUSH2 0x508 JUMPI PUSH1 0x0 DUP1 REVERT JUMPDEST POP PUSH2 0x511 PUSH2 0x129C JUMP JUMPDEST PUSH1 0x40 MLOAD PUSH2 0x29A SWAP2 SWAP1 PUSH1 0x0 PUSH1 0xC0 DUP3 ADD SWAP1 POP DUP3 MLOAD DUP3 MSTORE PUSH1 0x20 DUP4 ADD MLOAD PUSH1 0x20 DUP4 ADD MSTORE PUSH1 0x40 DUP4 ADD MLOAD PUSH1 0x40 DUP4 ADD MSTORE PUSH1 0x60 DUP4 ADD MLOAD PUSH1 0x60 DUP4 ADD MSTORE PUSH1 0x80 DUP4 ADD MLOAD PUSH1 0x80 DUP4 ADD MSTORE PUSH1 0xA0 DUP4 ADD MLOAD PUSH1 0xA0 DUP4 ADD MSTORE SWAP3 SWAP2 POP POP JUMP JUMPDEST CALLVALUE DUP1 ISZERO PUSH2 0x569 JUMPI PUSH1 0x0 DUP1 REVERT JUMPDEST POP PUSH2 0x33C PUSH2 0x1486 JUMP JUMPDEST CALLVALUE DUP1 ISZERO PUSH2 0x57E JUMPI PUSH1 0x0 DUP1 REVERT JUMPDEST POP PUSH2 0x276 PUSH2 0x58D CALLDATASIZE PUSH1 0x4 PUSH2 0x51F2 JUMP JUMPDEST PUSH2 0x1541 JUMP JUMPDEST CALLVALUE DUP1 ISZERO PUSH2 0x59E JUMPI PUSH1 0x0 DUP1 REVERT JUMPDEST POP PUSH1 0x97 SLOAD PUSH1 0x1 PUSH1 0x1 PUSH1 0xA0 SHL SUB AND PUSH2 0x2C3 JUMP JUMPDEST CALLVALUE DUP1 ISZERO PUSH2 0x5BC JUMPI PUSH1 0x0 DUP1 REVERT JUMPDEST POP PUSH2 0x28D PUSH2 0x1625 JUMP JUMPDEST CALLVALUE DUP1 ISZERO PUSH2 0x5D1 JUMPI PUSH1 0x0 DUP1 REVERT JUMPDEST POP PUSH2 0x276 PUSH2 0x5E0 CALLDATASIZE PUSH1 0x4 PUSH2 0x520F JUMP JUMPDEST PUSH2 0x1634 JUMP JUMPDEST CALLVALUE DUP1 ISZERO PUSH2 0x5F1 JUMPI PUSH1 0x0 DUP1 REVERT JUMPDEST POP PUSH2 0x33C PUSH2 0x1A8F JUMP JUMPDEST CALLVALUE DUP1 ISZERO PUSH2 0x606 JUMPI PUSH1 0x0 DUP1 REVERT JUMPDEST POP PUSH2 0x2FB PUSH2 0x615 CALLDATASIZE PUSH1 0x4 PUSH2 0x50B2 JUMP JUMPDEST PUSH2 0x1C00 JUMP JUMPDEST CALLVALUE DUP1 ISZERO PUSH2 0x626 JUMPI PUSH1 0x0 DUP1 REVERT JUMPDEST POP PUSH2 0x2FB PUSH2 0x635 CALLDATASIZE PUSH1 0x4 PUSH2 0x50B2 JUMP JUMPDEST PUSH2 0x1C86 JUMP JUMPDEST CALLVALUE DUP1 ISZERO PUSH2 0x646 JUMPI PUSH1 0x0 DUP1 REVERT JUMPDEST POP PUSH1 0xD0 SLOAD PUSH2 0x2C3 SWAP1 PUSH1 0x1 PUSH1 0x1 PUSH1 0xA0 SHL SUB AND DUP2 JUMP JUMPDEST CALLVALUE DUP1 ISZERO PUSH2 0x666 JUMPI PUSH1 0x0 DUP1 REVERT JUMPDEST POP PUSH1 0xD2 SLOAD PUSH2 0x2C3 SWAP1 PUSH1 0x1 PUSH1 0x1 PUSH1 0xA0 SHL SUB AND DUP2 JUMP JUMPDEST CALLVALUE DUP1 ISZERO PUSH2 0x686 JUMPI PUSH1 0x0 DUP1 REVERT JUMPDEST POP PUSH1 0xCF SLOAD PUSH2 0x2C3 SWAP1 PUSH1 0x1 PUSH1 0x1 PUSH1 0xA0 SHL SUB AND DUP2 JUMP JUMPDEST CALLVALUE DUP1 ISZERO PUSH2 0x6A6 JUMPI PUSH1 0x0 DUP1 REVERT JUMPDEST POP PUSH2 0x33C PUSH2 0x6B5 CALLDATASIZE PUSH1 0x4 PUSH2 0x5308 JUMP JUMPDEST PUSH2 0x1C94 JUMP JUMPDEST CALLVALUE DUP1 ISZERO PUSH2 0x6C6 JUMPI PUSH1 0x0 DUP1 REVERT JUMPDEST POP PUSH2 0x33C PUSH1 0xD4 SLOAD DUP2 JUMP JUMPDEST CALLVALUE DUP1 ISZERO PUSH2 0x6DC JUMPI PUSH1 0x0 DUP1 REVERT JUMPDEST POP PUSH2 0x276 PUSH2 0x6EB CALLDATASIZE PUSH1 0x4 PUSH2 0x51F2 JUMP JUMPDEST PUSH2 0x1CBF JUMP JUMPDEST CALLVALUE DUP1 ISZERO PUSH2 0x6FC JUMPI PUSH1 0x0 DUP1 REVERT JUMPDEST POP PUSH1 0xCD SLOAD PUSH2 0x2C3 SWAP1 PUSH1 0x1 PUSH1 0x1 PUSH1 0xA0 SHL SUB AND DUP2 JUMP JUMPDEST CALLVALUE DUP1 ISZERO PUSH2 0x71C JUMPI PUSH1 0x0 DUP1 REVERT JUMPDEST POP PUSH2 0x276 PUSH2 0x72B CALLDATASIZE PUSH1 0x4 PUSH2 0x51F2 JUMP JUMPDEST PUSH2 0x1D5A JUMP JUMPDEST CALLVALUE DUP1 ISZERO PUSH2 0x73C JUMPI PUSH1 0x0 DUP1 REVERT JUMPDEST POP PUSH2 0x276 PUSH2 0x74B CALLDATASIZE PUSH1 0x4 PUSH2 0x5341 JUMP JUMPDEST PUSH2 0x1EC0 JUMP JUMPDEST PUSH2 0x276 PUSH2 0x75E CALLDATASIZE PUSH1 0x4 PUSH2 0x53C8 JUMP JUMPDEST PUSH2 0x219C JUMP JUMPDEST CALLVALUE DUP1 ISZERO PUSH2 0x76F JUMPI PUSH1 0x0 DUP1 REVERT JUMPDEST POP PUSH2 0x33C PUSH2 0x77E CALLDATASIZE PUSH1 0x4 PUSH2 0x53C8 JUMP JUMPDEST PUSH2 0x2354 JUMP JUMPDEST PUSH1 0xD7 SLOAD PUSH1 0x40 MLOAD PUSH4 0x12440CCB PUSH1 0xE0 SHL DUP2 MSTORE CALLER PUSH1 0x4 DUP3 ADD MSTORE PUSH1 0x1 PUSH1 0x1 PUSH1 0xA0 SHL SUB SWAP1 SWAP2 AND SWAP1 PUSH4 0x12440CCB SWAP1 PUSH1 0x24 ADD PUSH1 0x20 PUSH1 0x40 MLOAD DUP1 DUP4 SUB DUP2 DUP7 GAS STATICCALL ISZERO DUP1 ISZERO PUSH2 0x7CB JUMPI RETURNDATASIZE PUSH1 0x0 DUP1 RETURNDATACOPY RETURNDATASIZE PUSH1 0x0 REVERT JUMPDEST POP POP POP POP PUSH1 0x40 MLOAD RETURNDATASIZE PUSH1 0x1F NOT PUSH1 0x1F DUP3 ADD AND DUP3 ADD DUP1 PUSH1 0x40 MSTORE POP DUP2 ADD SWAP1 PUSH2 0x7EF SWAP2 SWAP1 PUSH2 0x5428 JUMP JUMPDEST PUSH2 0x813 JUMPI PUSH1 0x40 MLOAD PUSH4 0x9522EBB9 PUSH1 0xE0 SHL DUP2 MSTORE CALLER PUSH1 0x4 DUP3 ADD MSTORE PUSH1 0x24 ADD JUMPDEST PUSH1 0x40 MLOAD DUP1 SWAP2 SUB SWAP1 REVERT JUMPDEST PUSH1 0xD7 SLOAD PUSH1 0x40 DUP1 MLOAD PUSH4 0xF679EDA1 PUSH1 0xE0 SHL DUP2 MSTORE SWAP1 MLOAD PUSH1 0x0 SWAP3 PUSH1 0x1 PUSH1 0x1 PUSH1 0xA0 SHL SUB AND SWAP2 PUSH4 0xF679EDA1 SWAP2 PUSH1 0x4 DUP1 DUP4 ADD SWAP3 DUP7 SWAP3 SWAP2 SWAP1 DUP3 SWAP1 SUB ADD DUP2 DUP7 GAS STATICCALL ISZERO DUP1 ISZERO PUSH2 0x85C JUMPI RETURNDATASIZE PUSH1 0x0 DUP1 RETURNDATACOPY RETURNDATASIZE PUSH1 0x0 REVERT JUMPDEST POP POP POP POP PUSH1 0x40 MLOAD RETURNDATASIZE PUSH1 0x0 DUP3 RETURNDATACOPY PUSH1 0x1F RETURNDATASIZE SWAP1 DUP2 ADD PUSH1 0x1F NOT AND DUP3 ADD PUSH1 0x40 MSTORE PUSH2 0x884 SWAP2 SWAP1 DUP2 ADD SWAP1 PUSH2 0x544A JUMP JUMPDEST SWAP1 POP PUSH1 0x0 PUSH1 0xD7 PUSH1 0x0 SWAP1 SLOAD SWAP1 PUSH2 0x100 EXP SWAP1 DIV PUSH1 0x1 PUSH1 0x1 PUSH1 0xA0 SHL SUB AND PUSH1 0x1 PUSH1 0x1 PUSH1 0xA0 SHL SUB AND PUSH4 0x956C9DA0 PUSH1 0x40 MLOAD DUP2 PUSH4 0xFFFFFFFF AND PUSH1 0xE0 SHL DUP2 MSTORE PUSH1 0x4 ADD PUSH1 0x20 PUSH1 0x40 MLOAD DUP1 DUP4 SUB DUP2 DUP7 GAS STATICCALL ISZERO DUP1 ISZERO PUSH2 0x8DB JUMPI RETURNDATASIZE PUSH1 0x0 DUP1 RETURNDATACOPY RETURNDATASIZE PUSH1 0x0 REVERT JUMPDEST POP POP POP POP PUSH1 0x40 MLOAD RETURNDATASIZE PUSH1 0x1F NOT PUSH1 0x1F DUP3 ADD AND DUP3 ADD DUP1 PUSH1 0x40 MSTORE POP DUP2 ADD SWAP1 PUSH2 0x8FF SWAP2 SWAP1 PUSH2 0x54D8 JUMP JUMPDEST SWAP1 POP PUSH1 0x0 PUSH1 0xD7 PUSH1 0x0 SWAP1 SLOAD SWAP1 PUSH2 0x100 EXP SWAP1 DIV PUSH1 0x1 PUSH1 0x1 PUSH1 0xA0 SHL SUB AND PUSH1 0x1 PUSH1 0x1 PUSH1 0xA0 SHL SUB AND PUSH4 0xF52C6764 PUSH1 0x40 MLOAD DUP2 PUSH4 0xFFFFFFFF AND PUSH1 0xE0 SHL DUP2 MSTORE PUSH1 0x4 ADD PUSH1 0x20 PUSH1 0x40 MLOAD DUP1 DUP4 SUB DUP2 DUP7 GAS STATICCALL ISZERO DUP1 ISZERO PUSH2 0x956 JUMPI RETURNDATASIZE PUSH1 0x0 DUP1 RETURNDATACOPY RETURNDATASIZE PUSH1 0x0 REVERT JUMPDEST POP POP POP POP PUSH1 0x40 MLOAD RETURNDATASIZE PUSH1 0x1F NOT PUSH1 0x1F DUP3 ADD AND DUP3 ADD DUP1 PUSH1 0x40 MSTORE POP DUP2 ADD SWAP1 PUSH2 0x97A SWAP2 SWAP1 PUSH2 0x54D8 JUMP JUMPDEST SWAP1 POP DUP3 MLOAD PUSH1 0x0 SUB PUSH2 0x99E JUMPI PUSH1 0x40 MLOAD PUSH4 0x3116313 PUSH1 0xE4 SHL DUP2 MSTORE PUSH1 0x4 ADD PUSH1 0x40 MLOAD DUP1 SWAP2 SUB SWAP1 REVERT JUMPDEST PUSH1 0x0 PUSH2 0x9A8 PUSH2 0x1A8F JUMP JUMPDEST SWAP1 POP PUSH1 0x0 PUSH1 0xD7 PUSH1 0x0 SWAP1 SLOAD SWAP1 PUSH2 0x100 EXP SWAP1 DIV PUSH1 0x1 PUSH1 0x1 PUSH1 0xA0 SHL SUB AND PUSH1 0x1 PUSH1 0x1 PUSH1 0xA0 SHL SUB AND PUSH4 0x5C23AED6 PUSH1 0x40 MLOAD DUP2 PUSH4 0xFFFFFFFF AND PUSH1 0xE0 SHL DUP2 MSTORE PUSH1 0x4 ADD PUSH1 0x20 PUSH1 0x40 MLOAD DUP1 DUP4 SUB DUP2 DUP7 GAS STATICCALL ISZERO DUP1 ISZERO PUSH2 0x9FF JUMPI RETURNDATASIZE PUSH1 0x0 DUP1 RETURNDATACOPY RETURNDATASIZE PUSH1 0x0 REVERT JUMPDEST POP POP POP POP PUSH1 0x40 MLOAD RETURNDATASIZE PUSH1 0x1F NOT PUSH1 0x1F DUP3 ADD AND DUP3 ADD DUP1 PUSH1 0x40 MSTORE POP DUP2 ADD SWAP1 PUSH2 0xA23 SWAP2 SWAP1 PUSH2 0x54F1 JUMP JUMPDEST SWAP1 POP DUP1 PUSH1 0x1 PUSH1 0x1 PUSH1 0xA0 SHL SUB AND PUSH4 0xDDC63262 PUSH1 0xCC PUSH1 0x0 SWAP1 SLOAD SWAP1 PUSH2 0x100 EXP SWAP1 DIV PUSH1 0x1 PUSH1 0x1 PUSH1 0xA0 SHL SUB AND PUSH1 0x1 PUSH1 0x1 PUSH1 0xA0 SHL SUB AND PUSH4 0x81A47BA9 PUSH1 0x40 MLOAD DUP2 PUSH4 0xFFFFFFFF AND PUSH1 0xE0 SHL DUP2 MSTORE PUSH1 0x4 ADD PUSH1 0x20 PUSH1 0x40 MLOAD DUP1 DUP4 SUB DUP2 DUP7 GAS STATICCALL ISZERO DUP1 ISZERO PUSH2 0xA87 JUMPI RETURNDATASIZE PUSH1 0x0 DUP1 RETURNDATACOPY RETURNDATASIZE PUSH1 0x0 REVERT JUMPDEST POP POP POP POP PUSH1 0x40 MLOAD RETURNDATASIZE PUSH1 0x1F NOT PUSH1 0x1F DUP3 ADD AND DUP3 ADD DUP1 PUSH1 0x40 MSTORE POP DUP2 ADD SWAP1 PUSH2 0xAAB SWAP2 SWAP1 PUSH2 0x54D8 JUMP JUMPDEST PUSH1 0x40 MLOAD DUP3 PUSH4 0xFFFFFFFF AND PUSH1 0xE0 SHL DUP2 MSTORE PUSH1 0x4 ADD PUSH2 0xAC9 SWAP2 DUP2 MSTORE PUSH1 0x20 ADD SWAP1 JUMP JUMPDEST PUSH1 0x0 PUSH1 0x40 MLOAD DUP1 DUP4 SUB DUP2 PUSH1 0x0 DUP8 DUP1 EXTCODESIZE ISZERO DUP1 ISZERO PUSH2 0xAE3 JUMPI PUSH1 0x0 DUP1 REVERT JUMPDEST POP GAS CALL ISZERO DUP1 ISZERO PUSH2 0xAF7 JUMPI RETURNDATASIZE PUSH1 0x0 DUP1 RETURNDATACOPY RETURNDATASIZE PUSH1 0x0 REVERT JUMPDEST POP POP POP POP DUP1 PUSH1 0x1 PUSH1 0x1 PUSH1 0xA0 SHL SUB AND PUSH4 0xDDC63262 PUSH1 0xCD PUSH1 0x0 SWAP1 SLOAD SWAP1 PUSH2 0x100 EXP SWAP1 DIV PUSH1 0x1 PUSH1 0x1 PUSH1 0xA0 SHL SUB AND PUSH1 0x1 PUSH1 0x1 PUSH1 0xA0 SHL SUB AND PUSH4 0x81A47BA9 PUSH1 0x40 MLOAD DUP2 PUSH4 0xFFFFFFFF AND PUSH1 0xE0 SHL DUP2 MSTORE PUSH1 0x4 ADD PUSH1 0x20 PUSH1 0x40 MLOAD DUP1 DUP4 SUB DUP2 DUP7 GAS STATICCALL ISZERO DUP1 ISZERO PUSH2 0xB5D JUMPI RETURNDATASIZE PUSH1 0x0 DUP1 RETURNDATACOPY RETURNDATASIZE PUSH1 0x0 REVERT JUMPDEST POP POP POP POP PUSH1 0x40 MLOAD RETURNDATASIZE PUSH1 0x1F NOT PUSH1 0x1F DUP3 ADD AND DUP3 ADD DUP1 PUSH1 0x40 MSTORE POP DUP2 ADD SWAP1 PUSH2 0xB81 SWAP2 SWAP1 PUSH2 0x54D8 JUMP JUMPDEST PUSH1 0x40 MLOAD DUP3 PUSH4 0xFFFFFFFF AND PUSH1 0xE0 SHL DUP2 MSTORE PUSH1 0x4 ADD PUSH2 0xB9F SWAP2 DUP2 MSTORE PUSH1 0x20 ADD SWAP1 JUMP JUMPDEST PUSH1 0x0 PUSH1 0x40 MLOAD DUP1 DUP4 SUB DUP2 PUSH1 0x0 DUP8 DUP1 EXTCODESIZE ISZERO DUP1 ISZERO PUSH2 0xBB9 JUMPI PUSH1 0x0 DUP1 REVERT JUMPDEST POP GAS CALL ISZERO DUP1 ISZERO PUSH2 0xBCD JUMPI RETURNDATASIZE PUSH1 0x0 DUP1 RETURNDATACOPY RETURNDATASIZE PUSH1 0x0 REVERT JUMPDEST POP POP PUSH1 0xD2 SLOAD PUSH1 0x40 MLOAD PUSH4 0x70A08231 PUSH1 0xE0 SHL DUP2 MSTORE ADDRESS PUSH1 0x4 DUP3 ADD MSTORE PUSH1 0x0 SWAP4 POP PUSH1 0x1 PUSH1 0x1 PUSH1 0xA0 SHL SUB SWAP1 SWAP2 AND SWAP2 POP PUSH4 0x70A08231 SWAP1 PUSH1 0x24 ADD PUSH1 0x20 PUSH1 0x40 MLOAD DUP1 DUP4 SUB DUP2 DUP7 GAS STATICCALL ISZERO DUP1 ISZERO PUSH2 0xC1C JUMPI RETURNDATASIZE PUSH1 0x0 DUP1 RETURNDATACOPY RETURNDATASIZE PUSH1 0x0 REVERT JUMPDEST POP POP POP POP PUSH1 0x40 MLOAD RETURNDATASIZE PUSH1 0x1F NOT PUSH1 0x1F DUP3 ADD AND DUP3 ADD DUP1 PUSH1 0x40 MSTORE POP DUP2 ADD SWAP1 PUSH2 0xC40 SWAP2 SWAP1 PUSH2 0x54D8 JUMP JUMPDEST SWAP1 POP PUSH1 0x0 PUSH2 0x2710 PUSH2 0xC51 DUP4 DUP9 PUSH2 0x5524 JUMP JUMPDEST PUSH2 0xC5B SWAP2 SWAP1 PUSH2 0x5543 JUMP JUMPDEST SWAP1 POP PUSH1 0x0 PUSH2 0x2710 PUSH2 0xC6C DUP8 DUP5 PUSH2 0x5524 JUMP JUMPDEST PUSH2 0xC76 SWAP2 SWAP1 PUSH2 0x5543 JUMP JUMPDEST SWAP1 POP DUP1 ISZERO PUSH2 0xD00 JUMPI PUSH1 0xD7 SLOAD PUSH1 0x40 DUP1 MLOAD PUSH4 0x28D87D01 PUSH1 0xE2 SHL DUP2 MSTORE SWAP1 MLOAD PUSH2 0xD00 SWAP3 PUSH1 0x1 PUSH1 0x1 PUSH1 0xA0 SHL SUB AND SWAP2 PUSH4 0xA361F404 SWAP2 PUSH1 0x4 DUP1 DUP4 ADD SWAP3 PUSH1 0x20 SWAP3 SWAP2 SWAP1 DUP3 SWAP1 SUB ADD DUP2 DUP7 GAS STATICCALL ISZERO DUP1 ISZERO PUSH2 0xCC9 JUMPI RETURNDATASIZE PUSH1 0x0 DUP1 RETURNDATACOPY RETURNDATASIZE PUSH1 0x0 REVERT JUMPDEST POP POP POP POP PUSH1 0x40 MLOAD RETURNDATASIZE PUSH1 0x1F NOT PUSH1 0x1F DUP3 ADD AND DUP3 ADD DUP1 PUSH1 0x40 MSTORE POP DUP2 ADD SWAP1 PUSH2 0xCED SWAP2 SWAP1 PUSH2 0x54F1 JUMP JUMPDEST PUSH1 0xD2 SLOAD PUSH1 0x1 PUSH1 0x1 PUSH1 0xA0 SHL SUB AND SWAP1 DUP4 PUSH2 0x2694 JUMP JUMPDEST PUSH1 0xD7 SLOAD PUSH1 0x40 DUP1 MLOAD PUSH4 0x2CAEA767 PUSH1 0xE1 SHL DUP2 MSTORE SWAP1 MLOAD PUSH2 0xD8C SWAP3 PUSH1 0x1 PUSH1 0x1 PUSH1 0xA0 SHL SUB AND SWAP2 PUSH4 0x595D4ECE SWAP2 PUSH1 0x4 DUP1 DUP4 ADD SWAP3 PUSH1 0x20 SWAP3 SWAP2 SWAP1 DUP3 SWAP1 SUB ADD DUP2 DUP7 GAS STATICCALL ISZERO DUP1 ISZERO PUSH2 0xD4B JUMPI RETURNDATASIZE PUSH1 0x0 DUP1 RETURNDATACOPY RETURNDATASIZE PUSH1 0x0 REVERT JUMPDEST POP POP POP POP PUSH1 0x40 MLOAD RETURNDATASIZE PUSH1 0x1F NOT PUSH1 0x1F DUP3 ADD AND DUP3 ADD DUP1 PUSH1 0x40 MSTORE POP DUP2 ADD SWAP1 PUSH2 0xD6F SWAP2 SWAP1 PUSH2 0x54F1 JUMP JUMPDEST PUSH2 0xD79 DUP4 DUP6 PUSH2 0x5565 JUMP JUMPDEST PUSH1 0xD2 SLOAD PUSH1 0x1 PUSH1 0x1 PUSH1 0xA0 SHL SUB AND SWAP2 SWAP1 PUSH2 0x2694 JUMP JUMPDEST PUSH1 0x0 PUSH2 0xD98 DUP4 DUP6 PUSH2 0x5565 JUMP JUMPDEST SWAP1 POP PUSH1 0x0 PUSH1 0xD7 PUSH1 0x0 SWAP1 SLOAD SWAP1 PUSH2 0x100 EXP SWAP1 DIV PUSH1 0x1 PUSH1 0x1 PUSH1 0xA0 SHL SUB AND PUSH1 0x1 PUSH1 0x1 PUSH1 0xA0 SHL SUB AND PUSH4 0x725C9C49 PUSH1 0x40 MLOAD DUP2 PUSH4 0xFFFFFFFF AND PUSH1 0xE0 SHL DUP2 MSTORE PUSH1 0x4 ADD PUSH1 0x20 PUSH1 0x40 MLOAD DUP1 DUP4 SUB DUP2 DUP7 GAS STATICCALL ISZERO DUP1 ISZERO PUSH2 0xDEF JUMPI RETURNDATASIZE PUSH1 0x0 DUP1 RETURNDATACOPY RETURNDATASIZE PUSH1 0x0 REVERT JUMPDEST POP POP POP POP PUSH1 0x40 MLOAD RETURNDATASIZE PUSH1 0x1F NOT PUSH1 0x1F DUP3 ADD AND DUP3 ADD DUP1 PUSH1 0x40 MSTORE POP DUP2 ADD SWAP1 PUSH2 0xE13 SWAP2 SWAP1 PUSH2 0x54F1 JUMP JUMPDEST PUSH1 0xD2 SLOAD PUSH1 0x40 MLOAD PUSH4 0x95EA7B3 PUSH1 0xE0 SHL DUP2 MSTORE PUSH1 0x1 PUSH1 0x1 PUSH1 0xA0 SHL SUB DUP1 DUP5 AND PUSH1 0x4 DUP4 ADD MSTORE PUSH1 0x24 DUP3 ADD DUP7 SWAP1 MSTORE SWAP3 SWAP4 POP SWAP2 AND SWAP1 PUSH4 0x95EA7B3 SWAP1 PUSH1 0x44 ADD PUSH1 0x20 PUSH1 0x40 MLOAD DUP1 DUP4 SUB DUP2 PUSH1 0x0 DUP8 GAS CALL ISZERO DUP1 ISZERO PUSH2 0xE68 JUMPI RETURNDATASIZE PUSH1 0x0 DUP1 RETURNDATACOPY RETURNDATASIZE PUSH1 0x0 REVERT JUMPDEST POP POP POP POP PUSH1 0x40 MLOAD RETURNDATASIZE PUSH1 0x1F NOT PUSH1 0x1F DUP3 ADD AND DUP3 ADD DUP1 PUSH1 0x40 MSTORE POP DUP2 ADD SWAP1 PUSH2 0xE8C SWAP2 SWAP1 PUSH2 0x5428 JUMP JUMPDEST POP PUSH1 0x40 MLOAD PUSH4 0x38ED1739 PUSH1 0xE0 SHL DUP2 MSTORE PUSH1 0x1 PUSH1 0x1 PUSH1 0xA0 SHL SUB DUP3 AND SWAP1 PUSH4 0x38ED1739 SWAP1 PUSH2 0xEC1 SWAP1 DUP6 SWAP1 DUP16 SWAP1 DUP16 SWAP1 ADDRESS SWAP1 TIMESTAMP SWAP1 PUSH1 0x4 ADD PUSH2 0x557C JUMP JUMPDEST PUSH1 0x0 PUSH1 0x40 MLOAD DUP1 DUP4 SUB DUP2 PUSH1 0x0 DUP8 GAS CALL ISZERO DUP1 ISZERO PUSH2 0xEE0 JUMPI RETURNDATASIZE PUSH1 0x0 DUP1 RETURNDATACOPY RETURNDATASIZE PUSH1 0x0 REVERT JUMPDEST POP POP POP POP PUSH1 0x40 MLOAD RETURNDATASIZE PUSH1 0x0 DUP3 RETURNDATACOPY PUSH1 0x1F RETURNDATASIZE SWAP1 DUP2 ADD PUSH1 0x1F NOT AND DUP3 ADD PUSH1 0x40 MSTORE PUSH2 0xF08 SWAP2 SWAP1 DUP2 ADD SWAP1 PUSH2 0x55ED JUMP JUMPDEST POP PUSH2 0xF14 DUP15 DUP15 DUP15 PUSH2 0x26FC JUMP JUMPDEST PUSH1 0x0 PUSH2 0xF1E PUSH2 0x1A8F JUMP JUMPDEST SWAP1 POP DUP8 DUP2 GT PUSH2 0xF40 JUMPI PUSH1 0x40 MLOAD PUSH4 0xBFE22423 PUSH1 0xE0 SHL DUP2 MSTORE PUSH1 0x4 ADD PUSH1 0x40 MLOAD DUP1 SWAP2 SUB SWAP1 REVERT JUMPDEST PUSH1 0x40 DUP1 MLOAD DUP10 DUP2 MSTORE PUSH1 0x20 DUP2 ADD DUP4 SWAP1 MSTORE PUSH32 0xE6BB7C24AA843F59D79D6B94019E6ECC020B0F84209C95CFBDA2BC22D629DB91 SWAP2 ADD PUSH1 0x40 MLOAD DUP1 SWAP2 SUB SWAP1 LOG1 POP POP POP POP POP POP POP POP POP POP POP POP POP POP POP JUMP JUMPDEST PUSH1 0x60 PUSH1 0x36 DUP1 SLOAD PUSH2 0xF99 SWAP1 PUSH2 0x5672 JUMP JUMPDEST DUP1 PUSH1 0x1F ADD PUSH1 0x20 DUP1 SWAP2 DIV MUL PUSH1 0x20 ADD PUSH1 0x40 MLOAD SWAP1 DUP2 ADD PUSH1 0x40 MSTORE DUP1 SWAP3 SWAP2 SWAP1 DUP2 DUP2 MSTORE PUSH1 0x20 ADD DUP3 DUP1 SLOAD PUSH2 0xFC5 SWAP1 PUSH2 0x5672 JUMP JUMPDEST DUP1 ISZERO PUSH2 0x1012 JUMPI DUP1 PUSH1 0x1F LT PUSH2 0xFE7 JUMPI PUSH2 0x100 DUP1 DUP4 SLOAD DIV MUL DUP4 MSTORE SWAP2 PUSH1 0x20 ADD SWAP2 PUSH2 0x1012 JUMP JUMPDEST DUP3 ADD SWAP2 SWAP1 PUSH1 0x0 MSTORE PUSH1 0x20 PUSH1 0x0 KECCAK256 SWAP1 JUMPDEST DUP2 SLOAD DUP2 MSTORE SWAP1 PUSH1 0x1 ADD SWAP1 PUSH1 0x20 ADD DUP1 DUP4 GT PUSH2 0xFF5 JUMPI DUP3 SWAP1 SUB PUSH1 0x1F AND DUP3 ADD SWAP2 JUMPDEST POP POP POP POP POP SWAP1 POP SWAP1 JUMP JUMPDEST PUSH1 0x0 CALLER PUSH2 0x102A DUP2 DUP6 DUP6 PUSH2 0x2890 JUMP JUMPDEST PUSH1 0x1 SWAP2 POP POP JUMPDEST SWAP3 SWAP2 POP POP JUMP JUMPDEST PUSH1 0x0 CALLER PUSH2 0x1044 DUP6 DUP3 DUP6 PUSH2 0x29B4 JUMP JUMPDEST PUSH2 0x104F DUP6 DUP6 DUP6 PUSH2 0x2A28 JUMP JUMPDEST PUSH1 0x1 SWAP2 POP POP JUMPDEST SWAP4 SWAP3 POP POP POP JUMP JUMPDEST PUSH1 0x0 CALLER ORIGIN EQ DUP1 ISZERO SWAP1 PUSH2 0x10DA JUMPI POP PUSH1 0xD7 SLOAD PUSH1 0x40 MLOAD PUSH1 0x1 PUSH3 0x368317 PUSH1 0xE0 SHL SUB NOT DUP2 MSTORE CALLER PUSH1 0x4 DUP3 ADD MSTORE PUSH1 0x1 PUSH1 0x1 PUSH1 0xA0 SHL SUB SWAP1 SWAP2 AND SWAP1 PUSH4 0xFFC97CE9 SWAP1 PUSH1 0x24 ADD PUSH1 0x20 PUSH1 0x40 MLOAD DUP1 DUP4 SUB DUP2 DUP7 GAS STATICCALL ISZERO DUP1 ISZERO PUSH2 0x10B4 JUMPI RETURNDATASIZE PUSH1 0x0 DUP1 RETURNDATACOPY RETURNDATASIZE PUSH1 0x0 REVERT JUMPDEST POP POP POP POP PUSH1 0x40 MLOAD RETURNDATASIZE PUSH1 0x1F NOT PUSH1 0x1F DUP3 ADD AND DUP3 ADD DUP1 PUSH1 0x40 MSTORE POP DUP2 ADD SWAP1 PUSH2 0x10D8 SWAP2 SWAP1 PUSH2 0x5428 JUMP JUMPDEST ISZERO JUMPDEST ISZERO PUSH2 0x10FA JUMPI PUSH1 0x40 MLOAD PUSH4 0x9522EBB9 PUSH1 0xE0 SHL DUP2 MSTORE CALLER PUSH1 0x4 DUP3 ADD MSTORE PUSH1 0x24 ADD PUSH2 0x80A JUMP JUMPDEST PUSH2 0x1102 PUSH2 0x2BF6 JUMP JUMPDEST PUSH1 0x2 PUSH1 0x65 SLOAD SUB PUSH2 0x1154 JUMPI PUSH1 0x40 MLOAD PUSH3 0x461BCD PUSH1 0xE5 SHL DUP2 MSTORE PUSH1 0x20 PUSH1 0x4 DUP3 ADD MSTORE PUSH1 0x1F PUSH1 0x24 DUP3 ADD MSTORE PUSH32 0x5265656E7472616E637947756172643A207265656E7472616E742063616C6C00 PUSH1 0x44 DUP3 ADD MSTORE PUSH1 0x64 ADD PUSH2 0x80A JUMP JUMPDEST PUSH1 0x2 PUSH1 0x65 SSTORE PUSH1 0x0 PUSH2 0x1163 PUSH2 0x129C JUMP JUMPDEST SWAP1 POP PUSH1 0x0 PUSH2 0x116F PUSH2 0x2C72 JUMP JUMPDEST SWAP1 POP CALLVALUE DUP2 PUSH1 0x40 ADD MLOAD PUSH2 0x1181 SWAP2 SWAP1 PUSH2 0x5565 JUMP JUMPDEST PUSH1 0x40 DUP3 ADD MSTORE PUSH1 0xD0 SLOAD PUSH2 0x119C SWAP1 PUSH1 0x1 PUSH1 0x1 PUSH1 0xA0 SHL SUB AND DUP11 PUSH2 0x2D8E JUMP JUMPDEST PUSH1 0xD1 SLOAD PUSH2 0x11B2 SWAP1 PUSH1 0x1 PUSH1 0x1 PUSH1 0xA0 SHL SUB AND DUP10 PUSH2 0x2D8E JUMP JUMPDEST PUSH1 0x0 DUP1 DUP1 PUSH2 0x11C2 DUP8 DUP10 ADD DUP10 PUSH2 0x5341 JUMP JUMPDEST SWAP3 POP SWAP3 POP SWAP3 POP PUSH2 0x11D3 DUP4 DUP4 DUP4 PUSH2 0x26FC JUMP JUMPDEST POP POP POP PUSH2 0x11E4 DUP10 DUP10 DUP10 DUP10 DUP7 DUP7 PUSH2 0x2EAE JUMP JUMPDEST PUSH1 0x1 PUSH1 0x65 SSTORE SWAP10 SWAP9 POP POP POP POP POP POP POP POP POP JUMP JUMPDEST PUSH1 0x0 CALLER PUSH2 0x102A DUP2 DUP6 DUP6 PUSH2 0x1209 DUP4 DUP4 PUSH2 0x1C94 JUMP JUMPDEST PUSH2 0x1213 SWAP2 SWAP1 PUSH2 0x56AC JUMP JUMPDEST PUSH2 0x2890 JUMP JUMPDEST PUSH1 0x0 DUP1 PUSH2 0x1223 PUSH2 0x1486 JUMP JUMPDEST PUSH1 0x35 SLOAD PUSH2 0x1230 SWAP2 SWAP1 PUSH2 0x56AC JUMP JUMPDEST SWAP1 POP DUP1 PUSH1 0x0 SUB PUSH2 0x1241 JUMPI POP SWAP1 SWAP2 SWAP1 POP JUMP JUMPDEST PUSH2 0x1055 DUP4 PUSH2 0x124D PUSH2 0x1A8F JUMP JUMPDEST DUP4 PUSH2 0x3114 JUMP JUMPDEST PUSH1 0x0 PUSH2 0x1030 DUP3 PUSH2 0x1261 PUSH2 0x1A8F JUMP JUMPDEST PUSH2 0x31C2 JUMP JUMPDEST PUSH1 0x97 SLOAD PUSH1 0x1 PUSH1 0x1 PUSH1 0xA0 SHL SUB AND CALLER EQ PUSH2 0x1290 JUMPI PUSH1 0x40 MLOAD PUSH3 0x461BCD PUSH1 0xE5 SHL DUP2 MSTORE PUSH1 0x4 ADD PUSH2 0x80A SWAP1 PUSH2 0x56C4 JUMP JUMPDEST PUSH2 0x129A PUSH1 0x0 PUSH2 0x3200 JUMP JUMPDEST JUMP JUMPDEST PUSH2 0x12D5 PUSH1 0x40 MLOAD DUP1 PUSH1 0xC0 ADD PUSH1 0x40 MSTORE DUP1 PUSH1 0x0 DUP2 MSTORE PUSH1 0x20 ADD PUSH1 0x0 DUP2 MSTORE PUSH1 0x20 ADD PUSH1 0x0 DUP2 MSTORE PUSH1 0x20 ADD PUSH1 0x0 DUP2 MSTORE PUSH1 0x20 ADD PUSH1 0x0 DUP2 MSTORE PUSH1 0x20 ADD PUSH1 0x0 DUP2 MSTORE POP SWAP1 JUMP JUMPDEST PUSH1 0xCE SLOAD PUSH1 0x40 DUP1 MLOAD PUSH4 0x6846C1EF PUSH1 0xE0 SHL DUP2 MSTORE SWAP1 MLOAD PUSH1 0x0 SWAP3 PUSH1 0x1 PUSH1 0x1 PUSH1 0xA0 SHL SUB AND SWAP2 PUSH4 0x6846C1EF SWAP2 PUSH1 0x4 DUP1 DUP4 ADD SWAP3 PUSH1 0x20 SWAP3 SWAP2 SWAP1 DUP3 SWAP1 SUB ADD DUP2 DUP7 GAS STATICCALL ISZERO DUP1 ISZERO PUSH2 0x131F JUMPI RETURNDATASIZE PUSH1 0x0 DUP1 RETURNDATACOPY RETURNDATASIZE PUSH1 0x0 REVERT JUMPDEST POP POP POP POP PUSH1 0x40 MLOAD RETURNDATASIZE PUSH1 0x1F NOT PUSH1 0x1F DUP3 ADD AND DUP3 ADD DUP1 PUSH1 0x40 MSTORE POP DUP2 ADD SWAP1 PUSH2 0x1343 SWAP2 SWAP1 PUSH2 0x54D8 JUMP JUMPDEST SWAP1 POP PUSH1 0x0 PUSH1 0xCF PUSH1 0x0 SWAP1 SLOAD SWAP1 PUSH2 0x100 EXP SWAP1 DIV PUSH1 0x1 PUSH1 0x1 PUSH1 0xA0 SHL SUB AND PUSH1 0x1 PUSH1 0x1 PUSH1 0xA0 SHL SUB AND PUSH4 0x6846C1EF PUSH1 0x40 MLOAD DUP2 PUSH4 0xFFFFFFFF AND PUSH1 0xE0 SHL DUP2 MSTORE PUSH1 0x4 ADD PUSH1 0x20 PUSH1 0x40 MLOAD DUP1 DUP4 SUB DUP2 DUP7 GAS STATICCALL ISZERO DUP1 ISZERO PUSH2 0x139A JUMPI RETURNDATASIZE PUSH1 0x0 DUP1 RETURNDATACOPY RETURNDATASIZE PUSH1 0x0 REVERT JUMPDEST POP POP POP POP PUSH1 0x40 MLOAD RETURNDATASIZE PUSH1 0x1F NOT PUSH1 0x1F DUP3 ADD AND DUP3 ADD DUP1 PUSH1 0x40 MSTORE POP DUP2 ADD SWAP1 PUSH2 0x13BE SWAP2 SWAP1 PUSH2 0x54D8 JUMP JUMPDEST SWAP1 POP PUSH1 0x0 PUSH2 0x13CB DUP4 PUSH2 0x3252 JUMP JUMPDEST SWAP1 POP PUSH1 0x0 PUSH2 0x13D8 DUP4 PUSH2 0x3252 JUMP JUMPDEST PUSH1 0xCC SLOAD PUSH1 0xD3 SLOAD PUSH1 0xC9 SLOAD SWAP3 SWAP4 POP PUSH1 0x0 SWAP3 PUSH2 0x13FB SWAP3 PUSH1 0x1 PUSH1 0x1 PUSH1 0xA0 SHL SUB AND SWAP2 SWAP1 PUSH2 0x3309 JUMP JUMPDEST PUSH1 0xCD SLOAD PUSH1 0xD4 SLOAD PUSH1 0xCA SLOAD SWAP3 SWAP4 POP PUSH1 0x0 SWAP3 PUSH2 0x141E SWAP3 PUSH1 0x1 PUSH1 0x1 PUSH1 0xA0 SHL SUB AND SWAP2 SWAP1 PUSH2 0x3309 JUMP JUMPDEST SWAP1 POP PUSH1 0x40 MLOAD DUP1 PUSH1 0xC0 ADD PUSH1 0x40 MSTORE DUP1 DUP4 DUP7 GT PUSH2 0x1439 JUMPI PUSH1 0x0 PUSH2 0x1443 JUMP JUMPDEST PUSH2 0x1443 DUP5 DUP8 PUSH2 0x5565 JUMP JUMPDEST DUP2 MSTORE PUSH1 0x20 ADD DUP4 DUP2 MSTORE PUSH1 0x20 ADD DUP8 DUP2 MSTORE PUSH1 0x20 ADD DUP3 DUP6 GT PUSH2 0x1462 JUMPI PUSH1 0x0 PUSH2 0x146C JUMP JUMPDEST PUSH2 0x146C DUP4 DUP7 PUSH2 0x5565 JUMP JUMPDEST DUP2 MSTORE PUSH1 0x20 ADD DUP3 DUP2 MSTORE PUSH1 0x20 ADD DUP7 DUP2 MSTORE POP SWAP7 POP POP POP POP POP POP POP SWAP1 JUMP JUMPDEST PUSH1 0x0 DUP1 PUSH1 0xD5 SLOAD TIMESTAMP PUSH2 0x1497 SWAP2 SWAP1 PUSH2 0x5565 JUMP JUMPDEST SWAP1 POP PUSH8 0xDE0B6B3A7640000 DUP2 PUSH1 0xD7 PUSH1 0x0 SWAP1 SLOAD SWAP1 PUSH2 0x100 EXP SWAP1 DIV PUSH1 0x1 PUSH1 0x1 PUSH1 0xA0 SHL SUB AND PUSH1 0x1 PUSH1 0x1 PUSH1 0xA0 SHL SUB AND PUSH4 0xB192362A PUSH1 0x40 MLOAD DUP2 PUSH4 0xFFFFFFFF AND PUSH1 0xE0 SHL DUP2 MSTORE PUSH1 0x4 ADD PUSH1 0x20 PUSH1 0x40 MLOAD DUP1 DUP4 SUB DUP2 DUP7 GAS STATICCALL ISZERO DUP1 ISZERO PUSH2 0x14F6 JUMPI RETURNDATASIZE PUSH1 0x0 DUP1 RETURNDATACOPY RETURNDATASIZE PUSH1 0x0 REVERT JUMPDEST POP POP POP POP PUSH1 0x40 MLOAD RETURNDATASIZE PUSH1 0x1F NOT PUSH1 0x1F DUP3 ADD AND DUP3 ADD DUP1 PUSH1 0x40 MSTORE POP DUP2 ADD SWAP1 PUSH2 0x151A SWAP2 SWAP1 PUSH2 0x54D8 JUMP JUMPDEST PUSH1 0x35 SLOAD PUSH2 0x1527 SWAP2 SWAP1 PUSH2 0x5524 JUMP JUMPDEST PUSH2 0x1531 SWAP2 SWAP1 PUSH2 0x5524 JUMP JUMPDEST PUSH2 0x153B SWAP2 SWAP1 PUSH2 0x5543 JUMP JUMPDEST SWAP2 POP POP SWAP1 JUMP JUMPDEST PUSH1 0x97 SLOAD PUSH1 0x1 PUSH1 0x1 PUSH1 0xA0 SHL SUB AND CALLER EQ PUSH2 0x156B JUMPI PUSH1 0x40 MLOAD PUSH3 0x461BCD PUSH1 0xE5 SHL DUP2 MSTORE PUSH1 0x4 ADD PUSH2 0x80A SWAP1 PUSH2 0x56C4 JUMP JUMPDEST DUP1 PUSH1 0x1 PUSH1 0x1 PUSH1 0xA0 SHL SUB AND PUSH4 0xF9BFD907 PUSH1 0x40 MLOAD DUP2 PUSH4 0xFFFFFFFF AND PUSH1 0xE0 SHL DUP2 MSTORE PUSH1 0x4 ADD PUSH1 0x20 PUSH1 0x40 MLOAD DUP1 DUP4 SUB DUP2 DUP7 GAS STATICCALL ISZERO DUP1 ISZERO PUSH2 0x15A9 JUMPI RETURNDATASIZE PUSH1 0x0 DUP1 RETURNDATACOPY RETURNDATASIZE PUSH1 0x0 REVERT JUMPDEST POP POP POP POP PUSH1 0x40 MLOAD RETURNDATASIZE PUSH1 0x1F NOT PUSH1 0x1F DUP3 ADD AND DUP3 ADD DUP1 PUSH1 0x40 MSTORE POP DUP2 ADD SWAP1 PUSH2 0x15CD SWAP2 SWAP1 PUSH2 0x54D8 JUMP JUMPDEST POP PUSH1 0xD7 DUP1 SLOAD PUSH1 0x1 PUSH1 0x1 PUSH1 0xA0 SHL SUB NOT AND PUSH1 0x1 PUSH1 0x1 PUSH1 0xA0 SHL SUB DUP4 AND SWAP1 DUP2 OR SWAP1 SWAP2 SSTORE PUSH1 0x40 MLOAD SWAP1 DUP2 MSTORE CALLER SWAP1 PUSH32 0x4C4E26F7E535FA16E67156CD4FD4745854600B1D1A79A7CDF63F771CBC24A933 SWAP1 PUSH1 0x20 ADD JUMPDEST PUSH1 0x40 MLOAD DUP1 SWAP2 SUB SWAP1 LOG2 POP JUMP JUMPDEST PUSH1 0x60 PUSH1 0x37 DUP1 SLOAD PUSH2 0xF99 SWAP1 PUSH2 0x5672 JUMP JUMPDEST PUSH1 0x0 PUSH2 0x1640 PUSH1 0x1 PUSH2 0x3581 JUMP JUMPDEST SWAP1 POP DUP1 ISZERO PUSH2 0x1658 JUMPI PUSH1 0x0 DUP1 SLOAD PUSH2 0xFF00 NOT AND PUSH2 0x100 OR SWAP1 SSTORE JUMPDEST PUSH2 0x1660 PUSH2 0x360E JUMP JUMPDEST PUSH2 0x1668 PUSH2 0x363D JUMP JUMPDEST PUSH2 0x16EC DUP14 DUP14 DUP1 DUP1 PUSH1 0x1F ADD PUSH1 0x20 DUP1 SWAP2 DIV MUL PUSH1 0x20 ADD PUSH1 0x40 MLOAD SWAP1 DUP2 ADD PUSH1 0x40 MSTORE DUP1 SWAP4 SWAP3 SWAP2 SWAP1 DUP2 DUP2 MSTORE PUSH1 0x20 ADD DUP4 DUP4 DUP1 DUP3 DUP5 CALLDATACOPY PUSH1 0x0 DUP2 DUP5 ADD MSTORE PUSH1 0x1F NOT PUSH1 0x1F DUP3 ADD AND SWAP1 POP DUP1 DUP4 ADD SWAP3 POP POP POP POP POP POP POP DUP13 DUP13 DUP1 DUP1 PUSH1 0x1F ADD PUSH1 0x20 DUP1 SWAP2 DIV MUL PUSH1 0x20 ADD PUSH1 0x40 MLOAD SWAP1 DUP2 ADD PUSH1 0x40 MSTORE DUP1 SWAP4 SWAP3 SWAP2 SWAP1 DUP2 DUP2 MSTORE PUSH1 0x20 ADD DUP4 DUP4 DUP1 DUP3 DUP5 CALLDATACOPY PUSH1 0x0 SWAP3 ADD SWAP2 SWAP1 SWAP2 MSTORE POP PUSH2 0x366C SWAP3 POP POP POP JUMP JUMPDEST PUSH1 0xCC DUP1 SLOAD PUSH1 0x1 PUSH1 0x1 PUSH1 0xA0 SHL SUB DUP1 DUP13 AND PUSH1 0x1 PUSH1 0x1 PUSH1 0xA0 SHL SUB NOT SWAP3 DUP4 AND DUP2 OR SWAP1 SWAP4 SSTORE PUSH1 0xCD DUP1 SLOAD SWAP2 DUP13 AND SWAP2 SWAP1 SWAP3 AND OR SWAP1 SSTORE PUSH1 0x40 DUP1 MLOAD PUSH4 0x7E062A35 PUSH1 0xE1 SHL DUP2 MSTORE SWAP1 MLOAD PUSH4 0xFC0C546A SWAP2 PUSH1 0x4 DUP1 DUP3 ADD SWAP3 PUSH1 0x20 SWAP3 SWAP1 SWAP2 SWAP1 DUP3 SWAP1 SUB ADD DUP2 DUP7 GAS STATICCALL ISZERO DUP1 ISZERO PUSH2 0x1755 JUMPI RETURNDATASIZE PUSH1 0x0 DUP1 RETURNDATACOPY RETURNDATASIZE PUSH1 0x0 REVERT JUMPDEST POP POP POP POP PUSH1 0x40 MLOAD RETURNDATASIZE PUSH1 0x1F NOT PUSH1 0x1F DUP3 ADD AND DUP3 ADD DUP1 PUSH1 0x40 MSTORE POP DUP2 ADD SWAP1 PUSH2 0x1779 SWAP2 SWAP1 PUSH2 0x54F1 JUMP JUMPDEST PUSH1 0xD0 PUSH1 0x0 PUSH2 0x100 EXP DUP2 SLOAD DUP2 PUSH1 0x1 PUSH1 0x1 PUSH1 0xA0 SHL SUB MUL NOT AND SWAP1 DUP4 PUSH1 0x1 PUSH1 0x1 PUSH1 0xA0 SHL SUB AND MUL OR SWAP1 SSTORE POP DUP8 PUSH1 0x1 PUSH1 0x1 PUSH1 0xA0 SHL SUB AND PUSH4 0xFC0C546A PUSH1 0x40 MLOAD DUP2 PUSH4 0xFFFFFFFF AND PUSH1 0xE0 SHL DUP2 MSTORE PUSH1 0x4 ADD PUSH1 0x20 PUSH1 0x40 MLOAD DUP1 DUP4 SUB DUP2 DUP7 GAS STATICCALL ISZERO DUP1 ISZERO PUSH2 0x17DD JUMPI RETURNDATASIZE PUSH1 0x0 DUP1 RETURNDATACOPY RETURNDATASIZE PUSH1 0x0 REVERT JUMPDEST POP POP POP POP PUSH1 0x40 MLOAD RETURNDATASIZE PUSH1 0x1F NOT PUSH1 0x1F DUP3 ADD AND DUP3 ADD DUP1 PUSH1 0x40 MSTORE POP DUP2 ADD SWAP1 PUSH2 0x1801 SWAP2 SWAP1 PUSH2 0x54F1 JUMP JUMPDEST PUSH1 0xD1 DUP1 SLOAD PUSH1 0x1 PUSH1 0x1 PUSH1 0xA0 SHL SUB NOT SWAP1 DUP2 AND PUSH1 0x1 PUSH1 0x1 PUSH1 0xA0 SHL SUB SWAP4 DUP5 AND OR SWAP1 SWAP2 SSTORE PUSH1 0xD2 DUP1 SLOAD DUP3 AND DUP8 DUP5 AND OR SWAP1 SSTORE PUSH1 0xCE DUP1 SLOAD DUP3 AND DUP11 DUP5 AND OR SWAP1 SSTORE PUSH1 0xCF DUP1 SLOAD DUP3 AND DUP10 DUP5 AND OR SWAP1 SSTORE PUSH1 0xCB DUP1 SLOAD DUP3 AND DUP9 DUP5 AND OR SWAP1 SSTORE PUSH1 0xD6 DUP1 SLOAD DUP3 AND DUP7 DUP5 AND OR SWAP1 SSTORE PUSH1 0xD7 DUP1 SLOAD SWAP1 SWAP2 AND DUP5 DUP4 AND OR SWAP1 SSTORE PUSH1 0xD0 SLOAD PUSH2 0x1876 SWAP2 AND PUSH2 0x369D JUMP JUMPDEST PUSH1 0xC9 SSTORE PUSH1 0xD1 SLOAD PUSH2 0x188E SWAP1 PUSH1 0x1 PUSH1 0x1 PUSH1 0xA0 SHL SUB AND PUSH2 0x369D JUMP JUMPDEST PUSH1 0xCA SSTORE PUSH1 0xCF SLOAD PUSH1 0x40 DUP1 MLOAD PUSH4 0x5FCBD285 PUSH1 0xE0 SHL DUP2 MSTORE SWAP1 MLOAD PUSH1 0x1 PUSH1 0x1 PUSH1 0xA0 SHL SUB SWAP1 SWAP3 AND SWAP2 PUSH4 0x5FCBD285 SWAP2 PUSH1 0x4 DUP1 DUP3 ADD SWAP3 PUSH1 0x20 SWAP3 SWAP1 SWAP2 SWAP1 DUP3 SWAP1 SUB ADD DUP2 DUP7 GAS STATICCALL ISZERO DUP1 ISZERO PUSH2 0x18DB JUMPI RETURNDATASIZE PUSH1 0x0 DUP1 RETURNDATACOPY RETURNDATASIZE PUSH1 0x0 REVERT JUMPDEST POP POP POP POP PUSH1 0x40 MLOAD RETURNDATASIZE PUSH1 0x1F NOT PUSH1 0x1F DUP3 ADD AND DUP3 ADD DUP1 PUSH1 0x40 MSTORE POP DUP2 ADD SWAP1 PUSH2 0x18FF SWAP2 SWAP1 PUSH2 0x54F1 JUMP JUMPDEST PUSH1 0xCB SLOAD PUSH1 0x1 PUSH1 0x1 PUSH1 0xA0 SHL SUB SWAP1 DUP2 AND SWAP2 AND EQ ISZERO DUP1 PUSH2 0x19A1 JUMPI POP PUSH1 0xCE PUSH1 0x0 SWAP1 SLOAD SWAP1 PUSH2 0x100 EXP SWAP1 DIV PUSH1 0x1 PUSH1 0x1 PUSH1 0xA0 SHL SUB AND PUSH1 0x1 PUSH1 0x1 PUSH1 0xA0 SHL SUB AND PUSH4 0x5FCBD285 PUSH1 0x40 MLOAD DUP2 PUSH4 0xFFFFFFFF AND PUSH1 0xE0 SHL DUP2 MSTORE PUSH1 0x4 ADD PUSH1 0x20 PUSH1 0x40 MLOAD DUP1 DUP4 SUB DUP2 DUP7 GAS STATICCALL ISZERO DUP1 ISZERO PUSH2 0x196A JUMPI RETURNDATASIZE PUSH1 0x0 DUP1 RETURNDATACOPY RETURNDATASIZE PUSH1 0x0 REVERT JUMPDEST POP POP POP POP PUSH1 0x40 MLOAD RETURNDATASIZE PUSH1 0x1F NOT PUSH1 0x1F DUP3 ADD AND DUP3 ADD DUP1 PUSH1 0x40 MSTORE POP DUP2 ADD SWAP1 PUSH2 0x198E SWAP2 SWAP1 PUSH2 0x54F1 JUMP JUMPDEST PUSH1 0xCB SLOAD PUSH1 0x1 PUSH1 0x1 PUSH1 0xA0 SHL SUB SWAP1 DUP2 AND SWAP2 AND EQ ISZERO JUMPDEST ISZERO PUSH2 0x19BF JUMPI PUSH1 0x40 MLOAD PUSH4 0x1D565883 PUSH1 0xE0 SHL DUP2 MSTORE PUSH1 0x4 ADD PUSH1 0x40 MLOAD DUP1 SWAP2 SUB SWAP1 REVERT JUMPDEST PUSH1 0xD2 SLOAD PUSH1 0x1 PUSH1 0x1 PUSH1 0xA0 SHL SUB AND PUSH2 0x19E8 JUMPI PUSH1 0x40 MLOAD PUSH4 0x31126187 PUSH1 0xE2 SHL DUP2 MSTORE PUSH1 0x4 ADD PUSH1 0x40 MLOAD DUP1 SWAP2 SUB SWAP1 REVERT JUMPDEST PUSH1 0xD6 SLOAD PUSH1 0x1 PUSH1 0x1 PUSH1 0xA0 SHL SUB AND PUSH2 0x1A11 JUMPI PUSH1 0x40 MLOAD PUSH4 0x31126187 PUSH1 0xE2 SHL DUP2 MSTORE PUSH1 0x4 ADD PUSH1 0x40 MLOAD DUP1 SWAP2 SUB SWAP1 REVERT JUMPDEST PUSH1 0xD7 SLOAD PUSH1 0x1 PUSH1 0x1 PUSH1 0xA0 SHL SUB AND PUSH2 0x1A3A JUMPI PUSH1 0x40 MLOAD PUSH4 0x31126187 PUSH1 0xE2 SHL DUP2 MSTORE PUSH1 0x4 ADD PUSH1 0x40 MLOAD DUP1 SWAP2 SUB SWAP1 REVERT JUMPDEST DUP1 ISZERO PUSH2 0x1A80 JUMPI PUSH1 0x0 DUP1 SLOAD PUSH2 0xFF00 NOT AND SWAP1 SSTORE PUSH1 0x40 MLOAD PUSH1 0x1 DUP2 MSTORE PUSH32 0x7F26B83FF96E1F2B6A682F133852F6798A09C465DA95921460CEFB3847402498 SWAP1 PUSH1 0x20 ADD PUSH1 0x40 MLOAD DUP1 SWAP2 SUB SWAP1 LOG1 JUMPDEST POP POP POP POP POP POP POP POP POP POP POP POP POP JUMP JUMPDEST PUSH1 0x0 DUP1 PUSH2 0x1B92 PUSH1 0xCF PUSH1 0x0 SWAP1 SLOAD SWAP1 PUSH2 0x100 EXP SWAP1 DIV PUSH1 0x1 PUSH1 0x1 PUSH1 0xA0 SHL SUB AND PUSH1 0x1 PUSH1 0x1 PUSH1 0xA0 SHL SUB AND PUSH4 0x6846C1EF PUSH1 0x40 MLOAD DUP2 PUSH4 0xFFFFFFFF AND PUSH1 0xE0 SHL DUP2 MSTORE PUSH1 0x4 ADD PUSH1 0x20 PUSH1 0x40 MLOAD DUP1 DUP4 SUB DUP2 DUP7 GAS STATICCALL ISZERO DUP1 ISZERO PUSH2 0x1AE8 JUMPI RETURNDATASIZE PUSH1 0x0 DUP1 RETURNDATACOPY RETURNDATASIZE PUSH1 0x0 REVERT JUMPDEST POP POP POP POP PUSH1 0x40 MLOAD RETURNDATASIZE PUSH1 0x1F NOT PUSH1 0x1F DUP3 ADD AND DUP3 ADD DUP1 PUSH1 0x40 MSTORE POP DUP2 ADD SWAP1 PUSH2 0x1B0C SWAP2 SWAP1 PUSH2 0x54D8 JUMP JUMPDEST PUSH1 0xCE PUSH1 0x0 SWAP1 SLOAD SWAP1 PUSH2 0x100 EXP SWAP1 DIV PUSH1 0x1 PUSH1 0x1 PUSH1 0xA0 SHL SUB AND PUSH1 0x1 PUSH1 0x1 PUSH1 0xA0 SHL SUB AND PUSH4 0x6846C1EF PUSH1 0x40 MLOAD DUP2 PUSH4 0xFFFFFFFF AND PUSH1 0xE0 SHL DUP2 MSTORE PUSH1 0x4 ADD PUSH1 0x20 PUSH1 0x40 MLOAD DUP1 DUP4 SUB DUP2 DUP7 GAS STATICCALL ISZERO DUP1 ISZERO PUSH2 0x1B5F JUMPI RETURNDATASIZE PUSH1 0x0 DUP1 RETURNDATACOPY RETURNDATASIZE PUSH1 0x0 REVERT JUMPDEST POP POP POP POP PUSH1 0x40 MLOAD RETURNDATASIZE PUSH1 0x1F NOT PUSH1 0x1F DUP3 ADD AND DUP3 ADD DUP1 PUSH1 0x40 MSTORE POP DUP2 ADD SWAP1 PUSH2 0x1B83 SWAP2 SWAP1 PUSH2 0x54D8 JUMP JUMPDEST PUSH2 0x1B8D SWAP2 SWAP1 PUSH2 0x56AC JUMP JUMPDEST PUSH2 0x3252 JUMP JUMPDEST PUSH1 0xCD SLOAD PUSH1 0xD4 SLOAD PUSH1 0xCA SLOAD SWAP3 SWAP4 POP PUSH1 0x0 SWAP3 PUSH2 0x1BB5 SWAP3 PUSH1 0x1 PUSH1 0x1 PUSH1 0xA0 SHL SUB AND SWAP2 SWAP1 PUSH2 0x3309 JUMP JUMPDEST PUSH1 0xCC SLOAD PUSH1 0xD3 SLOAD PUSH1 0xC9 SLOAD PUSH2 0x1BD2 SWAP3 PUSH1 0x1 PUSH1 0x1 PUSH1 0xA0 SHL SUB AND SWAP2 SWAP1 PUSH2 0x3309 JUMP JUMPDEST PUSH2 0x1BDC SWAP2 SWAP1 PUSH2 0x56AC JUMP JUMPDEST SWAP1 POP DUP1 DUP3 LT ISZERO PUSH2 0x1BEF JUMPI PUSH1 0x0 SWAP3 POP POP POP SWAP1 JUMP JUMPDEST PUSH2 0x1BF9 DUP2 DUP4 PUSH2 0x5565 JUMP JUMPDEST SWAP3 POP POP POP SWAP1 JUMP JUMPDEST PUSH1 0x0 CALLER DUP2 PUSH2 0x1C0E DUP3 DUP7 PUSH2 0x1C94 JUMP JUMPDEST SWAP1 POP DUP4 DUP2 LT ISZERO PUSH2 0x1C6E JUMPI PUSH1 0x40 MLOAD PUSH3 0x461BCD PUSH1 0xE5 SHL DUP2 MSTORE PUSH1 0x20 PUSH1 0x4 DUP3 ADD MSTORE PUSH1 0x25 PUSH1 0x24 DUP3 ADD MSTORE PUSH32 0x45524332303A2064656372656173656420616C6C6F77616E63652062656C6F77 PUSH1 0x44 DUP3 ADD MSTORE PUSH5 0x207A65726F PUSH1 0xD8 SHL PUSH1 0x64 DUP3 ADD MSTORE PUSH1 0x84 ADD PUSH2 0x80A JUMP JUMPDEST PUSH2 0x1C7B DUP3 DUP7 DUP7 DUP5 SUB PUSH2 0x2890 JUMP JUMPDEST POP PUSH1 0x1 SWAP5 SWAP4 POP POP POP POP JUMP JUMPDEST PUSH1 0x0 CALLER PUSH2 0x102A DUP2 DUP6 DUP6 PUSH2 0x2A28 JUMP JUMPDEST PUSH1 0x1 PUSH1 0x1 PUSH1 0xA0 SHL SUB SWAP2 DUP3 AND PUSH1 0x0 SWAP1 DUP2 MSTORE PUSH1 0x34 PUSH1 0x20 SWAP1 DUP2 MSTORE PUSH1 0x40 DUP1 DUP4 KECCAK256 SWAP4 SWAP1 SWAP5 AND DUP3 MSTORE SWAP2 SWAP1 SWAP2 MSTORE KECCAK256 SLOAD SWAP1 JUMP JUMPDEST PUSH1 0x97 SLOAD PUSH1 0x1 PUSH1 0x1 PUSH1 0xA0 SHL SUB AND CALLER EQ PUSH2 0x1CE9 JUMPI PUSH1 0x40 MLOAD PUSH3 0x461BCD PUSH1 0xE5 SHL DUP2 MSTORE PUSH1 0x4 ADD PUSH2 0x80A SWAP1 PUSH2 0x56C4 JUMP JUMPDEST PUSH1 0x1 PUSH1 0x1 PUSH1 0xA0 SHL SUB DUP2 AND PUSH2 0x1D4E JUMPI PUSH1 0x40 MLOAD PUSH3 0x461BCD PUSH1 0xE5 SHL DUP2 MSTORE PUSH1 0x20 PUSH1 0x4 DUP3 ADD MSTORE PUSH1 0x26 PUSH1 0x24 DUP3 ADD MSTORE PUSH32 0x4F776E61626C653A206E6577206F776E657220697320746865207A65726F2061 PUSH1 0x44 DUP3 ADD MSTORE PUSH6 0x646472657373 PUSH1 0xD0 SHL PUSH1 0x64 DUP3 ADD MSTORE PUSH1 0x84 ADD PUSH2 0x80A JUMP JUMPDEST PUSH2 0x1D57 DUP2 PUSH2 0x3200 JUMP JUMPDEST POP JUMP JUMPDEST PUSH1 0x97 SLOAD PUSH1 0x1 PUSH1 0x1 PUSH1 0xA0 SHL SUB AND CALLER EQ PUSH2 0x1D84 JUMPI PUSH1 0x40 MLOAD PUSH3 0x461BCD PUSH1 0xE5 SHL DUP2 MSTORE PUSH1 0x4 ADD PUSH2 0x80A SWAP1 PUSH2 0x56C4 JUMP JUMPDEST PUSH1 0xD0 SLOAD PUSH1 0x40 MLOAD PUSH4 0x681320D PUSH1 0xE5 SHL DUP2 MSTORE PUSH1 0x1 PUSH1 0x1 PUSH1 0xA0 SHL SUB SWAP2 DUP3 AND PUSH1 0x4 DUP3 ADD MSTORE SWAP1 DUP3 AND SWAP1 PUSH4 0xD02641A0 SWAP1 PUSH1 0x24 ADD PUSH1 0x40 DUP1 MLOAD DUP1 DUP4 SUB DUP2 DUP7 GAS STATICCALL ISZERO DUP1 ISZERO PUSH2 0x1DCD JUMPI RETURNDATASIZE PUSH1 0x0 DUP1 RETURNDATACOPY RETURNDATASIZE PUSH1 0x0 REVERT JUMPDEST POP POP POP POP PUSH1 0x40 MLOAD RETURNDATASIZE PUSH1 0x1F NOT PUSH1 0x1F DUP3 ADD AND DUP3 ADD DUP1 PUSH1 0x40 MSTORE POP DUP2 ADD SWAP1 PUSH2 0x1DF1 SWAP2 SWAP1 PUSH2 0x56F9 JUMP JUMPDEST POP POP PUSH1 0xCB SLOAD PUSH1 0x40 MLOAD PUSH4 0x125D4179 PUSH1 0xE1 SHL DUP2 MSTORE PUSH8 0xDE0B6B3A7640000 PUSH1 0x4 DUP3 ADD MSTORE PUSH1 0x1 PUSH1 0x1 PUSH1 0xA0 SHL SUB SWAP2 DUP3 AND PUSH1 0x24 DUP3 ADD MSTORE SWAP1 DUP3 AND SWAP1 PUSH4 0x24BA82F2 SWAP1 PUSH1 0x44 ADD PUSH1 0x40 DUP1 MLOAD DUP1 DUP4 SUB DUP2 DUP7 GAS STATICCALL ISZERO DUP1 ISZERO PUSH2 0x1E4A JUMPI RETURNDATASIZE PUSH1 0x0 DUP1 RETURNDATACOPY RETURNDATASIZE PUSH1 0x0 REVERT JUMPDEST POP POP POP POP PUSH1 0x40 MLOAD RETURNDATASIZE PUSH1 0x1F NOT PUSH1 0x1F DUP3 ADD AND DUP3 ADD DUP1 PUSH1 0x40 MSTORE POP DUP2 ADD SWAP1 PUSH2 0x1E6E SWAP2 SWAP1 PUSH2 0x56F9 JUMP JUMPDEST POP POP PUSH1 0xD6 DUP1 SLOAD PUSH1 0x1 PUSH1 0x1 PUSH1 0xA0 SHL SUB NOT AND PUSH1 0x1 PUSH1 0x1 PUSH1 0xA0 SHL SUB DUP4 AND SWAP1 DUP2 OR SWAP1 SWAP2 SSTORE PUSH1 0x40 MLOAD SWAP1 DUP2 MSTORE CALLER SWAP1 PUSH32 0x13027F79696DB4396EF144413CE4DCFEB9A142E11B5035A756171CF0A87102CD SWAP1 PUSH1 0x20 ADD PUSH2 0x161A JUMP JUMPDEST PUSH1 0xD7 SLOAD PUSH1 0x40 MLOAD PUSH4 0x9E81C6D PUSH1 0xE3 SHL DUP2 MSTORE CALLER PUSH1 0x4 DUP3 ADD MSTORE PUSH1 0x1 PUSH1 0x1 PUSH1 0xA0 SHL SUB SWAP1 SWAP2 AND SWAP1 PUSH4 0x4F40E368 SWAP1 PUSH1 0x24 ADD PUSH1 0x20 PUSH1 0x40 MLOAD DUP1 DUP4 SUB DUP2 DUP7 GAS STATICCALL ISZERO DUP1 ISZERO PUSH2 0x1F08 JUMPI RETURNDATASIZE PUSH1 0x0 DUP1 RETURNDATACOPY RETURNDATASIZE PUSH1 0x0 REVERT JUMPDEST POP POP POP POP PUSH1 0x40 MLOAD RETURNDATASIZE PUSH1 0x1F NOT PUSH1 0x1F DUP3 ADD AND DUP3 ADD DUP1 PUSH1 0x40 MSTORE POP DUP2 ADD SWAP1 PUSH2 0x1F2C SWAP2 SWAP1 PUSH2 0x5428 JUMP JUMPDEST PUSH2 0x1F4B JUMPI PUSH1 0x40 MLOAD PUSH4 0x9522EBB9 PUSH1 0xE0 SHL DUP2 MSTORE CALLER PUSH1 0x4 DUP3 ADD MSTORE PUSH1 0x24 ADD PUSH2 0x80A JUMP JUMPDEST PUSH2 0x1F53 PUSH2 0x2BF6 JUMP JUMPDEST PUSH1 0x0 PUSH2 0x1F5D PUSH2 0x129C JUMP JUMPDEST SWAP1 POP PUSH1 0x0 PUSH2 0x1F69 PUSH2 0x2C72 JUMP JUMPDEST SWAP1 POP PUSH1 0x0 DUP3 PUSH1 0x20 ADD MLOAD DUP4 PUSH1 0x0 ADD MLOAD PUSH2 0x1F81 SWAP2 SWAP1 PUSH2 0x56AC JUMP JUMPDEST SWAP1 POP PUSH1 0x0 DUP4 PUSH1 0x80 ADD MLOAD DUP5 PUSH1 0x60 ADD MLOAD PUSH2 0x1F99 SWAP2 SWAP1 PUSH2 0x56AC JUMP JUMPDEST SWAP1 POP PUSH1 0x0 DUP5 PUSH1 0x60 ADD MLOAD DUP6 PUSH1 0x0 ADD MLOAD PUSH2 0x1FB1 SWAP2 SWAP1 PUSH2 0x56AC JUMP JUMPDEST SWAP1 POP PUSH1 0x0 PUSH1 0xD7 PUSH1 0x0 SWAP1 SLOAD SWAP1 PUSH2 0x100 EXP SWAP1 DIV PUSH1 0x1 PUSH1 0x1 PUSH1 0xA0 SHL SUB AND PUSH1 0x1 PUSH1 0x1 PUSH1 0xA0 SHL SUB AND PUSH4 0x62969467 PUSH1 0x40 MLOAD DUP2 PUSH4 0xFFFFFFFF AND PUSH1 0xE0 SHL DUP2 MSTORE PUSH1 0x4 ADD PUSH1 0x20 PUSH1 0x40 MLOAD DUP1 DUP4 SUB DUP2 DUP7 GAS STATICCALL ISZERO DUP1 ISZERO PUSH2 0x2008 JUMPI RETURNDATASIZE PUSH1 0x0 DUP1 RETURNDATACOPY RETURNDATASIZE PUSH1 0x0 REVERT JUMPDEST POP POP POP POP PUSH1 0x40 MLOAD RETURNDATASIZE PUSH1 0x1F NOT PUSH1 0x1F DUP3 ADD AND DUP3 ADD DUP1 PUSH1 0x40 MSTORE POP DUP2 ADD SWAP1 PUSH2 0x202C SWAP2 SWAP1 PUSH2 0x54D8 JUMP JUMPDEST PUSH1 0x20 DUP8 ADD MLOAD SWAP1 SWAP2 POP PUSH2 0x2041 SWAP1 PUSH2 0x2710 SWAP1 PUSH2 0x5524 JUMP JUMPDEST PUSH2 0x204B DUP3 DUP7 PUSH2 0x5524 JUMP JUMPDEST LT ISZERO DUP1 ISZERO PUSH2 0x2073 JUMPI POP PUSH1 0x80 DUP7 ADD MLOAD PUSH2 0x2066 SWAP1 PUSH2 0x2710 SWAP1 PUSH2 0x5524 JUMP JUMPDEST PUSH2 0x2070 DUP3 DUP6 PUSH2 0x5524 JUMP JUMPDEST LT ISZERO JUMPDEST ISZERO PUSH2 0x2091 JUMPI PUSH1 0x40 MLOAD PUSH4 0x52A729D5 PUSH1 0xE0 SHL DUP2 MSTORE PUSH1 0x4 ADD PUSH1 0x40 MLOAD DUP1 SWAP2 SUB SWAP1 REVERT JUMPDEST PUSH2 0x209C DUP10 DUP10 DUP10 PUSH2 0x26FC JUMP JUMPDEST PUSH1 0x0 PUSH2 0x20A6 PUSH2 0x1A8F JUMP JUMPDEST SWAP1 POP PUSH2 0x2129 DUP2 DUP5 PUSH1 0xD7 PUSH1 0x0 SWAP1 SLOAD SWAP1 PUSH2 0x100 EXP SWAP1 DIV PUSH1 0x1 PUSH1 0x1 PUSH1 0xA0 SHL SUB AND PUSH1 0x1 PUSH1 0x1 PUSH1 0xA0 SHL SUB AND PUSH4 0xF9BFD907 PUSH1 0x40 MLOAD DUP2 PUSH4 0xFFFFFFFF AND PUSH1 0xE0 SHL DUP2 MSTORE PUSH1 0x4 ADD PUSH1 0x20 PUSH1 0x40 MLOAD DUP1 DUP4 SUB DUP2 DUP7 GAS STATICCALL ISZERO DUP1 ISZERO PUSH2 0x2100 JUMPI RETURNDATASIZE PUSH1 0x0 DUP1 RETURNDATACOPY RETURNDATASIZE PUSH1 0x0 REVERT JUMPDEST POP POP POP POP PUSH1 0x40 MLOAD RETURNDATASIZE PUSH1 0x1F NOT PUSH1 0x1F DUP3 ADD AND DUP3 ADD DUP1 PUSH1 0x40 MSTORE POP DUP2 ADD SWAP1 PUSH2 0x2124 SWAP2 SWAP1 PUSH2 0x54D8 JUMP JUMPDEST PUSH2 0x3755 JUMP JUMPDEST PUSH2 0x2146 JUMPI PUSH1 0x40 MLOAD PUSH4 0xED73742F PUSH1 0xE0 SHL DUP2 MSTORE PUSH1 0x4 ADD PUSH1 0x40 MLOAD DUP1 SWAP2 SUB SWAP1 REVERT JUMPDEST PUSH2 0x2157 DUP7 PUSH2 0x2152 PUSH2 0x2C72 JUMP JUMPDEST PUSH2 0x3799 JUMP JUMPDEST PUSH1 0x40 DUP1 MLOAD DUP5 DUP2 MSTORE PUSH1 0x20 DUP2 ADD DUP4 SWAP1 MSTORE PUSH32 0xEDFA59B02A4232C93CA4D57FCBBD75BE9747BFA821007CFCD8F36528365EC4CE SWAP2 ADD PUSH1 0x40 MLOAD DUP1 SWAP2 SUB SWAP1 LOG1 POP POP POP POP POP POP POP POP POP POP JUMP JUMPDEST PUSH1 0x97 SLOAD PUSH1 0x1 PUSH1 0x1 PUSH1 0xA0 SHL SUB AND CALLER EQ PUSH2 0x21C6 JUMPI PUSH1 0x40 MLOAD PUSH3 0x461BCD PUSH1 0xE5 SHL DUP2 MSTORE PUSH1 0x4 ADD PUSH2 0x80A SWAP1 PUSH2 0x56C4 JUMP JUMPDEST PUSH1 0xD3 SLOAD ISZERO ISZERO DUP1 PUSH2 0x21D7 JUMPI POP PUSH1 0xD4 SLOAD ISZERO ISZERO JUMPDEST ISZERO PUSH2 0x21F5 JUMPI PUSH1 0x40 MLOAD PUSH4 0x2A5911DF PUSH1 0xE0 SHL DUP2 MSTORE PUSH1 0x4 ADD PUSH1 0x40 MLOAD DUP1 SWAP2 SUB SWAP1 REVERT JUMPDEST PUSH1 0xD7 DUP1 SLOAD PUSH1 0xFF PUSH1 0xA0 SHL NOT AND PUSH1 0x1 PUSH1 0xA0 SHL OR SWAP1 SSTORE PUSH1 0xCC SLOAD PUSH1 0x40 DUP1 MLOAD PUSH4 0x1C824905 PUSH1 0xE0 SHL DUP2 MSTORE SWAP1 MLOAD PUSH1 0x1 PUSH1 0x1 PUSH1 0xA0 SHL SUB SWAP1 SWAP3 AND SWAP2 PUSH4 0x1C824905 SWAP2 PUSH1 0x4 DUP1 DUP3 ADD SWAP3 PUSH1 0x20 SWAP3 SWAP1 SWAP2 SWAP1 DUP3 SWAP1 SUB ADD DUP2 DUP7 GAS STATICCALL ISZERO DUP1 ISZERO PUSH2 0x2252 JUMPI RETURNDATASIZE PUSH1 0x0 DUP1 RETURNDATACOPY RETURNDATASIZE PUSH1 0x0 REVERT JUMPDEST POP POP POP POP PUSH1 0x40 MLOAD RETURNDATASIZE PUSH1 0x1F NOT PUSH1 0x1F DUP3 ADD AND DUP3 ADD DUP1 PUSH1 0x40 MSTORE POP DUP2 ADD SWAP1 PUSH2 0x2276 SWAP2 SWAP1 PUSH2 0x54D8 JUMP JUMPDEST PUSH1 0xD3 SSTORE PUSH1 0xCD SLOAD PUSH1 0x40 DUP1 MLOAD PUSH4 0x1C824905 PUSH1 0xE0 SHL DUP2 MSTORE SWAP1 MLOAD PUSH1 0x1 PUSH1 0x1 PUSH1 0xA0 SHL SUB SWAP1 SWAP3 AND SWAP2 PUSH4 0x1C824905 SWAP2 PUSH1 0x4 DUP1 DUP3 ADD SWAP3 PUSH1 0x20 SWAP3 SWAP1 SWAP2 SWAP1 DUP3 SWAP1 SUB ADD DUP2 DUP7 GAS STATICCALL ISZERO DUP1 ISZERO PUSH2 0x22C3 JUMPI RETURNDATASIZE PUSH1 0x0 DUP1 RETURNDATACOPY RETURNDATASIZE PUSH1 0x0 REVERT JUMPDEST POP POP POP POP PUSH1 0x40 MLOAD RETURNDATASIZE PUSH1 0x1F NOT PUSH1 0x1F DUP3 ADD AND DUP3 ADD DUP1 PUSH1 0x40 MSTORE POP DUP2 ADD SWAP1 PUSH2 0x22E7 SWAP2 SWAP1 PUSH2 0x54D8 JUMP JUMPDEST PUSH1 0xD4 SSTORE PUSH2 0x22F8 DUP6 DUP6 CALLER DUP7 DUP7 DUP7 PUSH2 0x105C JUMP JUMPDEST POP PUSH1 0xD7 DUP1 SLOAD PUSH1 0xFF PUSH1 0xA0 SHL NOT AND SWAP1 SSTORE PUSH1 0xD3 SLOAD PUSH1 0xD4 SLOAD PUSH1 0x40 MLOAD CALLER SWAP3 PUSH32 0xE2D052C98BDA8DADF8C77273D35910976D1EAAC81FDBF05B38B5EE4CF8742B22 SWAP3 PUSH2 0x2345 SWAP3 SWAP2 DUP3 MSTORE PUSH1 0x20 DUP3 ADD MSTORE PUSH1 0x40 ADD SWAP1 JUMP JUMPDEST PUSH1 0x40 MLOAD DUP1 SWAP2 SUB SWAP1 LOG2 POP POP POP POP POP JUMP JUMPDEST PUSH1 0x0 CALLER ORIGIN EQ DUP1 ISZERO SWAP1 PUSH2 0x23D2 JUMPI POP PUSH1 0xD7 SLOAD PUSH1 0x40 MLOAD PUSH1 0x1 PUSH3 0x368317 PUSH1 0xE0 SHL SUB NOT DUP2 MSTORE CALLER PUSH1 0x4 DUP3 ADD MSTORE PUSH1 0x1 PUSH1 0x1 PUSH1 0xA0 SHL SUB SWAP1 SWAP2 AND SWAP1 PUSH4 0xFFC97CE9 SWAP1 PUSH1 0x24 ADD PUSH1 0x20 PUSH1 0x40 MLOAD DUP1 DUP4 SUB DUP2 DUP7 GAS STATICCALL ISZERO DUP1 ISZERO PUSH2 0x23AC JUMPI RETURNDATASIZE PUSH1 0x0 DUP1 RETURNDATACOPY RETURNDATASIZE PUSH1 0x0 REVERT JUMPDEST POP POP POP POP PUSH1 0x40 MLOAD RETURNDATASIZE PUSH1 0x1F NOT PUSH1 0x1F DUP3 ADD AND DUP3 ADD DUP1 PUSH1 0x40 MSTORE POP DUP2 ADD SWAP1 PUSH2 0x23D0 SWAP2 SWAP1 PUSH2 0x5428 JUMP JUMPDEST ISZERO JUMPDEST ISZERO PUSH2 0x23F2 JUMPI PUSH1 0x40 MLOAD PUSH4 0x9522EBB9 PUSH1 0xE0 SHL DUP2 MSTORE CALLER PUSH1 0x4 DUP3 ADD MSTORE PUSH1 0x24 ADD PUSH2 0x80A JUMP JUMPDEST PUSH2 0x23FA PUSH2 0x2BF6 JUMP JUMPDEST PUSH1 0x2 PUSH1 0x65 SLOAD SUB PUSH2 0x244C JUMPI PUSH1 0x40 MLOAD PUSH3 0x461BCD PUSH1 0xE5 SHL DUP2 MSTORE PUSH1 0x20 PUSH1 0x4 DUP3 ADD MSTORE PUSH1 0x1F PUSH1 0x24 DUP3 ADD MSTORE PUSH32 0x5265656E7472616E637947756172643A207265656E7472616E742063616C6C00 PUSH1 0x44 DUP3 ADD MSTORE PUSH1 0x64 ADD PUSH2 0x80A JUMP JUMPDEST PUSH1 0x2 PUSH1 0x65 SSTORE PUSH1 0x0 DUP7 SWAP1 SUB PUSH2 0x2473 JUMPI PUSH1 0x40 MLOAD PUSH4 0xFD5E857 PUSH1 0xE1 SHL DUP2 MSTORE PUSH1 0x4 ADD PUSH1 0x40 MLOAD DUP1 SWAP2 SUB SWAP1 REVERT JUMPDEST PUSH1 0x0 PUSH2 0x247D PUSH2 0x129C JUMP JUMPDEST SWAP1 POP PUSH1 0x0 PUSH2 0x2489 PUSH2 0x2C72 JUMP JUMPDEST PUSH1 0xD7 SLOAD PUSH1 0x40 MLOAD PUSH4 0x3924F233 PUSH1 0xE0 SHL DUP2 MSTORE CALLER PUSH1 0x4 DUP3 ADD MSTORE SWAP2 SWAP3 POP PUSH1 0x0 SWAP2 PUSH1 0x1 PUSH1 0x1 PUSH1 0xA0 SHL SUB SWAP1 SWAP2 AND SWAP1 PUSH4 0x3924F233 SWAP1 PUSH1 0x24 ADD PUSH1 0x20 PUSH1 0x40 MLOAD DUP1 DUP4 SUB DUP2 PUSH1 0x0 DUP8 GAS CALL ISZERO DUP1 ISZERO PUSH2 0x24D9 JUMPI RETURNDATASIZE PUSH1 0x0 DUP1 RETURNDATACOPY RETURNDATASIZE PUSH1 0x0 REVERT JUMPDEST POP POP POP POP PUSH1 0x40 MLOAD RETURNDATASIZE PUSH1 0x1F NOT PUSH1 0x1F DUP3 ADD AND DUP3 ADD DUP1 PUSH1 0x40 MSTORE POP DUP2 ADD SWAP1 PUSH2 0x24FD SWAP2 SWAP1 PUSH2 0x5428 JUMP JUMPDEST PUSH2 0x257F JUMPI PUSH1 0xD7 PUSH1 0x0 SWAP1 SLOAD SWAP1 PUSH2 0x100 EXP SWAP1 DIV PUSH1 0x1 PUSH1 0x1 PUSH1 0xA0 SHL SUB AND PUSH1 0x1 PUSH1 0x1 PUSH1 0xA0 SHL SUB AND PUSH4 0x4336BB3 PUSH1 0x40 MLOAD DUP2 PUSH4 0xFFFFFFFF AND PUSH1 0xE0 SHL DUP2 MSTORE PUSH1 0x4 ADD PUSH1 0x20 PUSH1 0x40 MLOAD DUP1 DUP4 SUB DUP2 PUSH1 0x0 DUP8 GAS CALL ISZERO DUP1 ISZERO PUSH2 0x2556 JUMPI RETURNDATASIZE PUSH1 0x0 DUP1 RETURNDATACOPY RETURNDATASIZE PUSH1 0x0 REVERT JUMPDEST POP POP POP POP PUSH1 0x40 MLOAD RETURNDATASIZE PUSH1 0x1F NOT PUSH1 0x1F DUP3 ADD AND DUP3 ADD DUP1 PUSH1 0x40 MSTORE POP DUP2 ADD SWAP1 PUSH2 0x257A SWAP2 SWAP1 PUSH2 0x54D8 JUMP JUMPDEST PUSH2 0x2582 JUMP JUMPDEST PUSH1 0x0 JUMPDEST SWAP1 POP PUSH1 0x0 PUSH2 0x2710 DUP11 PUSH2 0x2594 DUP5 DUP4 PUSH2 0x5565 JUMP JUMPDEST PUSH2 0x259E SWAP2 SWAP1 PUSH2 0x5524 JUMP JUMPDEST PUSH2 0x25A8 SWAP2 SWAP1 PUSH2 0x5543 JUMP JUMPDEST SWAP1 POP PUSH1 0x0 PUSH2 0x25B5 DUP3 PUSH2 0x1218 JUMP JUMPDEST SWAP1 POP PUSH2 0x25C1 CALLER DUP13 PUSH2 0x3849 JUMP JUMPDEST PUSH1 0xD7 SLOAD PUSH1 0x40 DUP1 MLOAD PUSH4 0x698D92CB PUSH1 0xE0 SHL DUP2 MSTORE SWAP1 MLOAD PUSH2 0x263F SWAP3 PUSH1 0x1 PUSH1 0x1 PUSH1 0xA0 SHL SUB AND SWAP2 PUSH4 0x698D92CB SWAP2 PUSH1 0x4 DUP1 DUP4 ADD SWAP3 PUSH1 0x20 SWAP3 SWAP2 SWAP1 DUP3 SWAP1 SUB ADD DUP2 DUP7 GAS STATICCALL ISZERO DUP1 ISZERO PUSH2 0x260C JUMPI RETURNDATASIZE PUSH1 0x0 DUP1 RETURNDATACOPY RETURNDATASIZE PUSH1 0x0 REVERT JUMPDEST POP POP POP POP PUSH1 0x40 MLOAD RETURNDATASIZE PUSH1 0x1F NOT PUSH1 0x1F DUP3 ADD AND DUP3 ADD DUP1 PUSH1 0x40 MSTORE POP DUP2 ADD SWAP1 PUSH2 0x2630 SWAP2 SWAP1 PUSH2 0x54F1 JUMP JUMPDEST PUSH2 0x263A DUP5 DUP15 PUSH2 0x5565 JUMP JUMPDEST PUSH2 0x3997 JUMP JUMPDEST PUSH1 0x0 DUP1 DUP1 PUSH2 0x264F DUP11 DUP13 ADD DUP13 PUSH2 0x5341 JUMP JUMPDEST SWAP3 POP SWAP3 POP SWAP3 POP PUSH2 0x2660 DUP4 DUP4 DUP4 PUSH2 0x26FC JUMP JUMPDEST POP POP POP PUSH2 0x2671 DUP12 DUP12 DUP12 DUP5 DUP10 DUP10 PUSH2 0x3A76 JUMP JUMPDEST PUSH1 0x1 PUSH1 0x65 SSTORE SWAP12 SWAP11 POP POP POP POP POP POP POP POP POP POP POP JUMP JUMPDEST PUSH1 0x1 PUSH1 0x1 PUSH1 0xA0 SHL SUB AND EXTCODESIZE ISZERO ISZERO SWAP1 JUMP JUMPDEST PUSH1 0x40 MLOAD PUSH1 0x1 PUSH1 0x1 PUSH1 0xA0 SHL SUB DUP4 AND PUSH1 0x24 DUP3 ADD MSTORE PUSH1 0x44 DUP2 ADD DUP3 SWAP1 MSTORE PUSH2 0x26F7 SWAP1 DUP5 SWAP1 PUSH4 0xA9059CBB PUSH1 0xE0 SHL SWAP1 PUSH1 0x64 ADD JUMPDEST PUSH1 0x40 DUP1 MLOAD PUSH1 0x1F NOT DUP2 DUP5 SUB ADD DUP2 MSTORE SWAP2 SWAP1 MSTORE PUSH1 0x20 DUP2 ADD DUP1 MLOAD PUSH1 0x1 PUSH1 0x1 PUSH1 0xE0 SHL SUB AND PUSH1 0x1 PUSH1 0x1 PUSH1 0xE0 SHL SUB NOT SWAP1 SWAP4 AND SWAP3 SWAP1 SWAP3 OR SWAP1 SWAP2 MSTORE PUSH2 0x3E10 JUMP JUMPDEST POP POP POP JUMP JUMPDEST DUP2 MLOAD DUP4 MLOAD EQ ISZERO DUP1 PUSH2 0x270F JUMPI POP DUP1 MLOAD DUP4 MLOAD EQ ISZERO JUMPDEST ISZERO PUSH2 0x272D JUMPI PUSH1 0x40 MLOAD PUSH4 0x6E2A74F PUSH1 0xE3 SHL DUP2 MSTORE PUSH1 0x4 ADD PUSH1 0x40 MLOAD DUP1 SWAP2 SUB SWAP1 REVERT JUMPDEST PUSH1 0x0 JUMPDEST DUP4 MLOAD DUP2 LT ISZERO PUSH2 0x288A JUMPI PUSH1 0x0 DUP5 DUP3 DUP2 MLOAD DUP2 LT PUSH2 0x274D JUMPI PUSH2 0x274D PUSH2 0x571D JUMP JUMPDEST PUSH1 0x20 MUL PUSH1 0x20 ADD ADD MLOAD SWAP1 POP PUSH1 0x1 PUSH1 0xFF AND DUP2 PUSH1 0xFF AND SUB PUSH2 0x2787 JUMPI PUSH2 0x2787 DUP4 DUP4 DUP2 MLOAD DUP2 LT PUSH2 0x277A JUMPI PUSH2 0x277A PUSH2 0x571D JUMP JUMPDEST PUSH1 0x20 MUL PUSH1 0x20 ADD ADD MLOAD PUSH2 0x3EE2 JUMP JUMPDEST PUSH1 0x1 NOT PUSH1 0xFF DUP3 AND ADD PUSH2 0x2877 JUMPI PUSH1 0xD7 PUSH1 0x0 SWAP1 SLOAD SWAP1 PUSH2 0x100 EXP SWAP1 DIV PUSH1 0x1 PUSH1 0x1 PUSH1 0xA0 SHL SUB AND PUSH1 0x1 PUSH1 0x1 PUSH1 0xA0 SHL SUB AND PUSH4 0xEF3BAC5E PUSH1 0x40 MLOAD DUP2 PUSH4 0xFFFFFFFF AND PUSH1 0xE0 SHL DUP2 MSTORE PUSH1 0x4 ADD PUSH1 0x20 PUSH1 0x40 MLOAD DUP1 DUP4 SUB DUP2 DUP7 GAS STATICCALL ISZERO DUP1 ISZERO PUSH2 0x27E6 JUMPI RETURNDATASIZE PUSH1 0x0 DUP1 RETURNDATACOPY RETURNDATASIZE PUSH1 0x0 REVERT JUMPDEST POP POP POP POP PUSH1 0x40 MLOAD RETURNDATASIZE PUSH1 0x1F NOT PUSH1 0x1F DUP3 ADD AND DUP3 ADD DUP1 PUSH1 0x40 MSTORE POP DUP2 ADD SWAP1 PUSH2 0x280A SWAP2 SWAP1 PUSH2 0x54F1 JUMP JUMPDEST PUSH1 0x1 PUSH1 0x1 PUSH1 0xA0 SHL SUB AND PUSH4 0xD0E30DB0 DUP6 DUP5 DUP2 MLOAD DUP2 LT PUSH2 0x282A JUMPI PUSH2 0x282A PUSH2 0x571D JUMP JUMPDEST PUSH1 0x20 MUL PUSH1 0x20 ADD ADD MLOAD PUSH1 0x40 MLOAD DUP3 PUSH4 0xFFFFFFFF AND PUSH1 0xE0 SHL DUP2 MSTORE PUSH1 0x4 ADD PUSH1 0x0 PUSH1 0x40 MLOAD DUP1 DUP4 SUB DUP2 DUP6 DUP9 DUP1 EXTCODESIZE ISZERO DUP1 ISZERO PUSH2 0x285D JUMPI PUSH1 0x0 DUP1 REVERT JUMPDEST POP GAS CALL ISZERO DUP1 ISZERO PUSH2 0x2871 JUMPI RETURNDATASIZE PUSH1 0x0 DUP1 RETURNDATACOPY RETURNDATASIZE PUSH1 0x0 REVERT JUMPDEST POP POP POP POP POP JUMPDEST POP DUP1 PUSH2 0x2882 DUP2 PUSH2 0x5733 JUMP JUMPDEST SWAP2 POP POP PUSH2 0x2730 JUMP JUMPDEST POP POP POP POP JUMP JUMPDEST PUSH1 0x1 PUSH1 0x1 PUSH1 0xA0 SHL SUB DUP4 AND PUSH2 0x28F2 JUMPI PUSH1 0x40 MLOAD PUSH3 0x461BCD PUSH1 0xE5 SHL DUP2 MSTORE PUSH1 0x20 PUSH1 0x4 DUP3 ADD MSTORE PUSH1 0x24 DUP1 DUP3 ADD MSTORE PUSH32 0x45524332303A20617070726F76652066726F6D20746865207A65726F20616464 PUSH1 0x44 DUP3 ADD MSTORE PUSH4 0x72657373 PUSH1 0xE0 SHL PUSH1 0x64 DUP3 ADD MSTORE PUSH1 0x84 ADD PUSH2 0x80A JUMP JUMPDEST PUSH1 0x1 PUSH1 0x1 PUSH1 0xA0 SHL SUB DUP3 AND PUSH2 0x2953 JUMPI PUSH1 0x40 MLOAD PUSH3 0x461BCD PUSH1 0xE5 SHL DUP2 MSTORE PUSH1 0x20 PUSH1 0x4 DUP3 ADD MSTORE PUSH1 0x22 PUSH1 0x24 DUP3 ADD MSTORE PUSH32 0x45524332303A20617070726F766520746F20746865207A65726F206164647265 PUSH1 0x44 DUP3 ADD MSTORE PUSH2 0x7373 PUSH1 0xF0 SHL PUSH1 0x64 DUP3 ADD MSTORE PUSH1 0x84 ADD PUSH2 0x80A JUMP JUMPDEST PUSH1 0x1 PUSH1 0x1 PUSH1 0xA0 SHL SUB DUP4 DUP2 AND PUSH1 0x0 DUP2 DUP2 MSTORE PUSH1 0x34 PUSH1 0x20 SWAP1 DUP2 MSTORE PUSH1 0x40 DUP1 DUP4 KECCAK256 SWAP5 DUP8 AND DUP1 DUP5 MSTORE SWAP5 DUP3 MSTORE SWAP2 DUP3 SWAP1 KECCAK256 DUP6 SWAP1 SSTORE SWAP1 MLOAD DUP5 DUP2 MSTORE PUSH32 0x8C5BE1E5EBEC7D5BD14F71427D1E84F3DD0314C0F7B2291E5B200AC8C7C3B925 SWAP2 ADD PUSH1 0x40 MLOAD DUP1 SWAP2 SUB SWAP1 LOG3 POP POP POP JUMP JUMPDEST PUSH1 0x0 PUSH2 0x29C0 DUP5 DUP5 PUSH2 0x1C94 JUMP JUMPDEST SWAP1 POP PUSH1 0x0 NOT DUP2 EQ PUSH2 0x288A JUMPI DUP2 DUP2 LT ISZERO PUSH2 0x2A1B JUMPI PUSH1 0x40 MLOAD PUSH3 0x461BCD PUSH1 0xE5 SHL DUP2 MSTORE PUSH1 0x20 PUSH1 0x4 DUP3 ADD MSTORE PUSH1 0x1D PUSH1 0x24 DUP3 ADD MSTORE PUSH32 0x45524332303A20696E73756666696369656E7420616C6C6F77616E6365000000 PUSH1 0x44 DUP3 ADD MSTORE PUSH1 0x64 ADD PUSH2 0x80A JUMP JUMPDEST PUSH2 0x288A DUP5 DUP5 DUP5 DUP5 SUB PUSH2 0x2890 JUMP JUMPDEST PUSH1 0x1 PUSH1 0x1 PUSH1 0xA0 SHL SUB DUP4 AND PUSH2 0x2A8C JUMPI PUSH1 0x40 MLOAD PUSH3 0x461BCD PUSH1 0xE5 SHL DUP2 MSTORE PUSH1 0x20 PUSH1 0x4 DUP3 ADD MSTORE PUSH1 0x25 PUSH1 0x24 DUP3 ADD MSTORE PUSH32 0x45524332303A207472616E736665722066726F6D20746865207A65726F206164 PUSH1 0x44 DUP3 ADD MSTORE PUSH5 0x6472657373 PUSH1 0xD8 SHL PUSH1 0x64 DUP3 ADD MSTORE PUSH1 0x84 ADD PUSH2 0x80A JUMP JUMPDEST PUSH1 0x1 PUSH1 0x1 PUSH1 0xA0 SHL SUB DUP3 AND PUSH2 0x2AEE JUMPI PUSH1 0x40 MLOAD PUSH3 0x461BCD PUSH1 0xE5 SHL DUP2 MSTORE PUSH1 0x20 PUSH1 0x4 DUP3 ADD MSTORE PUSH1 0x23 PUSH1 0x24 DUP3 ADD MSTORE PUSH32 0x45524332303A207472616E7366657220746F20746865207A65726F2061646472 PUSH1 0x44 DUP3 ADD MSTORE PUSH3 0x657373 PUSH1 0xE8 SHL PUSH1 0x64 DUP3 ADD MSTORE PUSH1 0x84 ADD PUSH2 0x80A JUMP JUMPDEST PUSH1 0x1 PUSH1 0x1 PUSH1 0xA0 SHL SUB DUP4 AND PUSH1 0x0 SWAP1 DUP2 MSTORE PUSH1 0x33 PUSH1 0x20 MSTORE PUSH1 0x40 SWAP1 KECCAK256 SLOAD DUP2 DUP2 LT ISZERO PUSH2 0x2B66 JUMPI PUSH1 0x40 MLOAD PUSH3 0x461BCD PUSH1 0xE5 SHL DUP2 MSTORE PUSH1 0x20 PUSH1 0x4 DUP3 ADD MSTORE PUSH1 0x26 PUSH1 0x24 DUP3 ADD MSTORE PUSH32 0x45524332303A207472616E7366657220616D6F756E7420657863656564732062 PUSH1 0x44 DUP3 ADD MSTORE PUSH6 0x616C616E6365 PUSH1 0xD0 SHL PUSH1 0x64 DUP3 ADD MSTORE PUSH1 0x84 ADD PUSH2 0x80A JUMP JUMPDEST PUSH1 0x1 PUSH1 0x1 PUSH1 0xA0 SHL SUB DUP1 DUP6 AND PUSH1 0x0 SWAP1 DUP2 MSTORE PUSH1 0x33 PUSH1 0x20 MSTORE PUSH1 0x40 DUP1 DUP3 KECCAK256 DUP6 DUP6 SUB SWAP1 SSTORE SWAP2 DUP6 AND DUP2 MSTORE SWAP1 DUP2 KECCAK256 DUP1 SLOAD DUP5 SWAP3 SWAP1 PUSH2 0x2B9D SWAP1 DUP5 SWAP1 PUSH2 0x56AC JUMP JUMPDEST SWAP3 POP POP DUP2 SWAP1 SSTORE POP DUP3 PUSH1 0x1 PUSH1 0x1 PUSH1 0xA0 SHL SUB AND DUP5 PUSH1 0x1 PUSH1 0x1 PUSH1 0xA0 SHL SUB AND PUSH32 0xDDF252AD1BE2C89B69C2B068FC378DAA952BA7F163C4A11628F55A4DF523B3EF DUP5 PUSH1 0x40 MLOAD PUSH2 0x2BE9 SWAP2 DUP2 MSTORE PUSH1 0x20 ADD SWAP1 JUMP JUMPDEST PUSH1 0x40 MLOAD DUP1 SWAP2 SUB SWAP1 LOG3 PUSH2 0x288A JUMP JUMPDEST PUSH1 0xD7 SLOAD PUSH1 0x40 DUP1 MLOAD PUSH3 0x45B61B PUSH1 0xE8 SHL DUP2 MSTORE SWAP1 MLOAD PUSH2 0x2C6C SWAP3 PUSH1 0x1 PUSH1 0x1 PUSH1 0xA0 SHL SUB AND SWAP2 PUSH4 0x45B61B00 SWAP2 PUSH1 0x4 DUP1 DUP4 ADD SWAP3 PUSH1 0x20 SWAP3 SWAP2 SWAP1 DUP3 SWAP1 SUB ADD DUP2 DUP7 GAS STATICCALL ISZERO DUP1 ISZERO PUSH2 0x2C40 JUMPI RETURNDATASIZE PUSH1 0x0 DUP1 RETURNDATACOPY RETURNDATASIZE PUSH1 0x0 REVERT JUMPDEST POP POP POP POP PUSH1 0x40 MLOAD RETURNDATASIZE PUSH1 0x1F NOT PUSH1 0x1F DUP3 ADD AND DUP3 ADD DUP1 PUSH1 0x40 MSTORE POP DUP2 ADD SWAP1 PUSH2 0x2C64 SWAP2 SWAP1 PUSH2 0x54F1 JUMP JUMPDEST PUSH2 0x263A PUSH2 0x1486 JUMP JUMPDEST TIMESTAMP PUSH1 0xD5 SSTORE JUMP JUMPDEST PUSH2 0x2C96 PUSH1 0x40 MLOAD DUP1 PUSH1 0x60 ADD PUSH1 0x40 MSTORE DUP1 PUSH1 0x0 DUP2 MSTORE PUSH1 0x20 ADD PUSH1 0x0 DUP2 MSTORE PUSH1 0x20 ADD PUSH1 0x0 DUP2 MSTORE POP SWAP1 JUMP JUMPDEST PUSH1 0x40 DUP1 MLOAD PUSH1 0x60 DUP2 ADD SWAP2 DUP3 SWAP1 MSTORE PUSH1 0xD0 SLOAD PUSH4 0x70A08231 PUSH1 0xE0 SHL SWAP1 SWAP3 MSTORE ADDRESS PUSH1 0x64 DUP3 ADD MSTORE SWAP1 DUP2 SWAP1 PUSH1 0x1 PUSH1 0x1 PUSH1 0xA0 SHL SUB AND PUSH4 0x70A08231 PUSH1 0x84 DUP4 ADD PUSH1 0x20 PUSH1 0x40 MLOAD DUP1 DUP4 SUB DUP2 DUP7 GAS STATICCALL ISZERO DUP1 ISZERO PUSH2 0x2CE8 JUMPI RETURNDATASIZE PUSH1 0x0 DUP1 RETURNDATACOPY RETURNDATASIZE PUSH1 0x0 REVERT JUMPDEST POP POP POP POP PUSH1 0x40 MLOAD RETURNDATASIZE PUSH1 0x1F NOT PUSH1 0x1F DUP3 ADD AND DUP3 ADD DUP1 PUSH1 0x40 MSTORE POP DUP2 ADD SWAP1 PUSH2 0x2D0C SWAP2 SWAP1 PUSH2 0x54D8 JUMP JUMPDEST DUP2 MSTORE PUSH1 0xD1 SLOAD PUSH1 0x40 MLOAD PUSH4 0x70A08231 PUSH1 0xE0 SHL DUP2 MSTORE ADDRESS PUSH1 0x4 DUP3 ADD MSTORE PUSH1 0x20 SWAP1 SWAP3 ADD SWAP2 PUSH1 0x1 PUSH1 0x1 PUSH1 0xA0 SHL SUB SWAP1 SWAP2 AND SWAP1 PUSH4 0x70A08231 SWAP1 PUSH1 0x24 ADD PUSH1 0x20 PUSH1 0x40 MLOAD DUP1 DUP4 SUB DUP2 DUP7 GAS STATICCALL ISZERO DUP1 ISZERO PUSH2 0x2D5C JUMPI RETURNDATASIZE PUSH1 0x0 DUP1 RETURNDATACOPY RETURNDATASIZE PUSH1 0x0 REVERT JUMPDEST POP POP POP POP PUSH1 0x40 MLOAD RETURNDATASIZE PUSH1 0x1F NOT PUSH1 0x1F DUP3 ADD AND DUP3 ADD DUP1 PUSH1 0x40 MSTORE POP DUP2 ADD SWAP1 PUSH2 0x2D80 SWAP2 SWAP1 PUSH2 0x54D8 JUMP JUMPDEST DUP2 MSTORE PUSH1 0x20 ADD SELFBALANCE DUP2 MSTORE POP SWAP1 POP SWAP1 JUMP JUMPDEST PUSH1 0xD7 PUSH1 0x0 SWAP1 SLOAD SWAP1 PUSH2 0x100 EXP SWAP1 DIV PUSH1 0x1 PUSH1 0x1 PUSH1 0xA0 SHL SUB AND PUSH1 0x1 PUSH1 0x1 PUSH1 0xA0 SHL SUB AND PUSH4 0xEF3BAC5E PUSH1 0x40 MLOAD DUP2 PUSH4 0xFFFFFFFF AND PUSH1 0xE0 SHL DUP2 MSTORE PUSH1 0x4 ADD PUSH1 0x20 PUSH1 0x40 MLOAD DUP1 DUP4 SUB DUP2 DUP7 GAS STATICCALL ISZERO DUP1 ISZERO PUSH2 0x2DE1 JUMPI RETURNDATASIZE PUSH1 0x0 DUP1 RETURNDATACOPY RETURNDATASIZE PUSH1 0x0 REVERT JUMPDEST POP POP POP POP PUSH1 0x40 MLOAD RETURNDATASIZE PUSH1 0x1F NOT PUSH1 0x1F DUP3 ADD AND DUP3 ADD DUP1 PUSH1 0x40 MSTORE POP DUP2 ADD SWAP1 PUSH2 0x2E05 SWAP2 SWAP1 PUSH2 0x54F1 JUMP JUMPDEST PUSH1 0x1 PUSH1 0x1 PUSH1 0xA0 SHL SUB AND DUP3 PUSH1 0x1 PUSH1 0x1 PUSH1 0xA0 SHL SUB AND SUB PUSH2 0x2E95 JUMPI DUP1 CALLVALUE EQ PUSH2 0x2E3D JUMPI PUSH1 0x40 MLOAD PUSH4 0x17414543 PUSH1 0xE3 SHL DUP2 MSTORE PUSH1 0x4 ADD PUSH1 0x40 MLOAD DUP1 SWAP2 SUB SWAP1 REVERT JUMPDEST DUP2 PUSH1 0x1 PUSH1 0x1 PUSH1 0xA0 SHL SUB AND PUSH4 0xD0E30DB0 DUP3 PUSH1 0x40 MLOAD DUP3 PUSH4 0xFFFFFFFF AND PUSH1 0xE0 SHL DUP2 MSTORE PUSH1 0x4 ADD PUSH1 0x0 PUSH1 0x40 MLOAD DUP1 DUP4 SUB DUP2 DUP6 DUP9 DUP1 EXTCODESIZE ISZERO DUP1 ISZERO PUSH2 0x2E78 JUMPI PUSH1 0x0 DUP1 REVERT JUMPDEST POP GAS CALL ISZERO DUP1 ISZERO PUSH2 0x2E8C JUMPI RETURNDATASIZE PUSH1 0x0 DUP1 RETURNDATACOPY RETURNDATASIZE PUSH1 0x0 REVERT JUMPDEST POP POP POP POP POP POP POP JUMP JUMPDEST PUSH2 0x2EAA PUSH1 0x1 PUSH1 0x1 PUSH1 0xA0 SHL SUB DUP4 AND CALLER ADDRESS DUP5 PUSH2 0x40A3 JUMP JUMPDEST POP POP JUMP JUMPDEST PUSH1 0x0 DUP1 PUSH2 0x2EB9 PUSH2 0x129C JUMP JUMPDEST SWAP1 POP PUSH1 0x0 PUSH2 0x2EC7 DUP3 DUP7 PUSH2 0x40DB JUMP JUMPDEST SWAP1 POP PUSH1 0x0 PUSH1 0xD7 PUSH1 0x0 SWAP1 SLOAD SWAP1 PUSH2 0x100 EXP SWAP1 DIV PUSH1 0x1 PUSH1 0x1 PUSH1 0xA0 SHL SUB AND PUSH1 0x1 PUSH1 0x1 PUSH1 0xA0 SHL SUB AND PUSH4 0xF77C4791 PUSH1 0x40 MLOAD DUP2 PUSH4 0xFFFFFFFF AND PUSH1 0xE0 SHL DUP2 MSTORE PUSH1 0x4 ADD PUSH1 0x20 PUSH1 0x40 MLOAD DUP1 DUP4 SUB DUP2 DUP7 GAS STATICCALL ISZERO DUP1 ISZERO PUSH2 0x2F1E JUMPI RETURNDATASIZE PUSH1 0x0 DUP1 RETURNDATACOPY RETURNDATASIZE PUSH1 0x0 REVERT JUMPDEST POP POP POP POP PUSH1 0x40 MLOAD RETURNDATASIZE PUSH1 0x1F NOT PUSH1 0x1F DUP3 ADD AND DUP3 ADD DUP1 PUSH1 0x40 MSTORE POP DUP2 ADD SWAP1 PUSH2 0x2F42 SWAP2 SWAP1 PUSH2 0x54F1 JUMP JUMPDEST SWAP1 POP PUSH1 0x1 PUSH1 0x1 PUSH1 0xA0 SHL SUB DUP2 AND ISZERO DUP1 ISZERO SWAP1 PUSH2 0x2FC2 JUMPI POP PUSH1 0x40 MLOAD PUSH4 0x5886216F PUSH1 0xE0 SHL DUP2 MSTORE CALLER PUSH1 0x4 DUP3 ADD MSTORE PUSH1 0x1 PUSH1 0x1 PUSH1 0xA0 SHL SUB DUP3 AND SWAP1 PUSH4 0x5886216F SWAP1 PUSH1 0x24 ADD PUSH1 0x20 PUSH1 0x40 MLOAD DUP1 DUP4 SUB DUP2 DUP7 GAS STATICCALL ISZERO DUP1 ISZERO PUSH2 0x2F9B JUMPI RETURNDATASIZE PUSH1 0x0 DUP1 RETURNDATACOPY RETURNDATASIZE PUSH1 0x0 REVERT JUMPDEST POP POP POP POP PUSH1 0x40 MLOAD RETURNDATASIZE PUSH1 0x1F NOT PUSH1 0x1F DUP3 ADD AND DUP3 ADD DUP1 PUSH1 0x40 MSTORE POP DUP2 ADD SWAP1 PUSH2 0x2FBF SWAP2 SWAP1 PUSH2 0x54D8 JUMP JUMPDEST DUP3 GT JUMPDEST ISZERO PUSH2 0x2FE0 JUMPI PUSH1 0x40 MLOAD PUSH4 0x7F84AE15 PUSH1 0xE0 SHL DUP2 MSTORE PUSH1 0x4 ADD PUSH1 0x40 MLOAD DUP1 SWAP2 SUB SWAP1 REVERT JUMPDEST PUSH1 0x0 PUSH2 0x2FFA DUP4 DUP9 PUSH1 0x60 ADD MLOAD DUP10 PUSH1 0x0 ADD MLOAD PUSH2 0x1261 SWAP2 SWAP1 PUSH2 0x56AC JUMP JUMPDEST SWAP1 POP DUP8 DUP2 LT ISZERO PUSH2 0x3027 JUMPI PUSH1 0x40 MLOAD PUSH4 0x968DBBB PUSH1 0xE3 SHL DUP2 MSTORE PUSH1 0x4 DUP2 ADD DUP10 SWAP1 MSTORE PUSH1 0x24 DUP2 ADD DUP3 SWAP1 MSTORE PUSH1 0x44 ADD PUSH2 0x80A JUMP JUMPDEST PUSH2 0x3031 DUP10 DUP3 PUSH2 0x3997 JUMP JUMPDEST PUSH2 0x303C DUP4 DUP9 DUP7 PUSH2 0x4165 JUMP JUMPDEST PUSH2 0x3048 DUP7 PUSH2 0x2152 PUSH2 0x2C72 JUMP JUMPDEST PUSH1 0x1 PUSH1 0x1 PUSH1 0xA0 SHL SUB DUP3 AND ISZERO PUSH2 0x30B8 JUMPI PUSH1 0x40 MLOAD PUSH4 0xAFE5463 PUSH1 0xE2 SHL DUP2 MSTORE CALLER PUSH1 0x4 DUP3 ADD MSTORE PUSH1 0x24 DUP2 ADD DUP3 SWAP1 MSTORE PUSH1 0x1 PUSH1 0x1 PUSH1 0xA0 SHL SUB DUP4 AND SWAP1 PUSH4 0x2BF9518C SWAP1 PUSH1 0x44 ADD PUSH1 0x0 PUSH1 0x40 MLOAD DUP1 DUP4 SUB DUP2 PUSH1 0x0 DUP8 DUP1 EXTCODESIZE ISZERO DUP1 ISZERO PUSH2 0x309F JUMPI PUSH1 0x0 DUP1 REVERT JUMPDEST POP GAS CALL ISZERO DUP1 ISZERO PUSH2 0x30B3 JUMPI RETURNDATASIZE PUSH1 0x0 DUP1 RETURNDATACOPY RETURNDATASIZE PUSH1 0x0 REVERT JUMPDEST POP POP POP POP JUMPDEST PUSH1 0x40 DUP1 MLOAD DUP3 DUP2 MSTORE PUSH1 0x20 DUP2 ADD DUP14 SWAP1 MSTORE SWAP1 DUP2 ADD DUP12 SWAP1 MSTORE PUSH1 0x1 PUSH1 0x1 PUSH1 0xA0 SHL SUB DUP11 AND SWAP1 CALLER SWAP1 PUSH32 0xAB14747D46633612FF5C029A3117F98FFB6506EBF31BAB40972F911B7DD18891 SWAP1 PUSH1 0x60 ADD PUSH1 0x40 MLOAD DUP1 SWAP2 SUB SWAP1 LOG3 SWAP11 SWAP10 POP POP POP POP POP POP POP POP POP POP JUMP JUMPDEST PUSH1 0x0 DUP1 DUP1 PUSH1 0x0 NOT DUP6 DUP8 MULMOD DUP6 DUP8 MUL SWAP3 POP DUP3 DUP2 LT DUP4 DUP3 SUB SUB SWAP2 POP POP DUP1 PUSH1 0x0 SUB PUSH2 0x314D JUMPI PUSH1 0x0 DUP5 GT PUSH2 0x3142 JUMPI PUSH1 0x0 DUP1 REVERT JUMPDEST POP DUP3 SWAP1 DIV SWAP1 POP PUSH2 0x1055 JUMP JUMPDEST DUP1 DUP5 GT PUSH2 0x3159 JUMPI PUSH1 0x0 DUP1 REVERT JUMPDEST PUSH1 0x0 DUP5 DUP7 DUP9 MULMOD PUSH1 0x2 PUSH1 0x1 DUP8 NOT DUP2 ADD DUP9 AND SWAP8 DUP9 SWAP1 DIV PUSH1 0x3 DUP2 MUL DUP4 XOR DUP1 DUP3 MUL DUP5 SUB MUL DUP1 DUP3 MUL DUP5 SUB MUL DUP1 DUP3 MUL DUP5 SUB MUL DUP1 DUP3 MUL DUP5 SUB MUL DUP1 DUP3 MUL DUP5 SUB MUL SWAP1 DUP2 MUL SWAP1 SWAP3 SUB SWAP1 SWAP2 MUL PUSH1 0x0 DUP9 SWAP1 SUB DUP9 SWAP1 DIV SWAP1 SWAP2 ADD DUP6 DUP4 GT SWAP1 SWAP5 SUB SWAP4 SWAP1 SWAP4 MUL SWAP4 SUB SWAP5 SWAP1 SWAP5 DIV SWAP2 SWAP1 SWAP2 OR MUL SWAP5 SWAP4 POP POP POP POP JUMP JUMPDEST PUSH1 0x0 DUP1 PUSH2 0x31CD PUSH2 0x1486 JUMP JUMPDEST PUSH1 0x35 SLOAD PUSH2 0x31DA SWAP2 SWAP1 PUSH2 0x56AC JUMP JUMPDEST SWAP1 POP DUP1 PUSH1 0x0 SUB PUSH2 0x31ED JUMPI DUP4 SWAP2 POP POP PUSH2 0x1030 JUMP JUMPDEST PUSH2 0x31F8 DUP5 DUP3 DUP6 PUSH2 0x3114 JUMP JUMPDEST SWAP5 SWAP4 POP POP POP POP JUMP JUMPDEST PUSH1 0x97 DUP1 SLOAD PUSH1 0x1 PUSH1 0x1 PUSH1 0xA0 SHL SUB DUP4 DUP2 AND PUSH1 0x1 PUSH1 0x1 PUSH1 0xA0 SHL SUB NOT DUP4 AND DUP2 OR SWAP1 SWAP4 SSTORE PUSH1 0x40 MLOAD SWAP2 AND SWAP2 SWAP1 DUP3 SWAP1 PUSH32 0x8BE0079C531659141344CD1FD0A4F28419497F9722A3DAAFE3B4186F6B6457E0 SWAP1 PUSH1 0x0 SWAP1 LOG3 POP POP JUMP JUMPDEST PUSH1 0xD6 SLOAD PUSH1 0xCB SLOAD PUSH1 0x40 MLOAD PUSH4 0x125D4179 PUSH1 0xE1 SHL DUP2 MSTORE PUSH1 0x4 DUP2 ADD DUP5 SWAP1 MSTORE PUSH1 0x1 PUSH1 0x1 PUSH1 0xA0 SHL SUB SWAP2 DUP3 AND PUSH1 0x24 DUP3 ADD MSTORE PUSH1 0x0 SWAP3 DUP4 SWAP3 DUP4 SWAP3 SWAP2 AND SWAP1 PUSH4 0x24BA82F2 SWAP1 PUSH1 0x44 ADD JUMPDEST PUSH1 0x40 DUP1 MLOAD DUP1 DUP4 SUB DUP2 DUP7 GAS STATICCALL ISZERO DUP1 ISZERO PUSH2 0x32AC JUMPI RETURNDATASIZE PUSH1 0x0 DUP1 RETURNDATACOPY RETURNDATASIZE PUSH1 0x0 REVERT JUMPDEST POP POP POP POP PUSH1 0x40 MLOAD RETURNDATASIZE PUSH1 0x1F NOT PUSH1 0x1F DUP3 ADD AND DUP3 ADD DUP1 PUSH1 0x40 MSTORE POP DUP2 ADD SWAP1 PUSH2 0x32D0 SWAP2 SWAP1 PUSH2 0x56F9 JUMP JUMPDEST SWAP1 SWAP3 POP SWAP1 POP PUSH3 0x15180 PUSH2 0x32E3 DUP3 TIMESTAMP PUSH2 0x5565 JUMP JUMPDEST GT ISZERO PUSH2 0x3302 JUMPI PUSH1 0x40 MLOAD PUSH4 0x4EFE81E5 PUSH1 0xE0 SHL DUP2 MSTORE PUSH1 0x4 ADD PUSH1 0x40 MLOAD DUP1 SWAP2 SUB SWAP1 REVERT JUMPDEST POP SWAP3 SWAP2 POP POP JUMP JUMPDEST PUSH1 0x40 MLOAD PUSH4 0x133F7571 PUSH1 0xE3 SHL DUP2 MSTORE PUSH1 0x4 DUP2 ADD DUP4 SWAP1 MSTORE PUSH1 0x0 SWAP1 DUP2 SWAP1 PUSH1 0x1 PUSH1 0x1 PUSH1 0xA0 SHL SUB DUP7 AND SWAP1 PUSH4 0x99FBAB88 SWAP1 PUSH1 0x24 ADD PUSH1 0x60 PUSH1 0x40 MLOAD DUP1 DUP4 SUB DUP2 DUP7 GAS STATICCALL ISZERO DUP1 ISZERO PUSH2 0x3353 JUMPI RETURNDATASIZE PUSH1 0x0 DUP1 RETURNDATACOPY RETURNDATASIZE PUSH1 0x0 REVERT JUMPDEST POP POP POP POP PUSH1 0x40 MLOAD RETURNDATASIZE PUSH1 0x1F NOT PUSH1 0x1F DUP3 ADD AND DUP3 ADD DUP1 PUSH1 0x40 MSTORE POP DUP2 ADD SWAP1 PUSH2 0x3377 SWAP2 SWAP1 PUSH2 0x574C JUMP JUMPDEST SWAP3 POP POP POP PUSH1 0x0 DUP6 PUSH1 0x1 PUSH1 0x1 PUSH1 0xA0 SHL SUB AND PUSH4 0xFC0C546A PUSH1 0x40 MLOAD DUP2 PUSH4 0xFFFFFFFF AND PUSH1 0xE0 SHL DUP2 MSTORE PUSH1 0x4 ADD PUSH1 0x20 PUSH1 0x40 MLOAD DUP1 DUP4 SUB DUP2 DUP7 GAS STATICCALL ISZERO DUP1 ISZERO PUSH2 0x33BB JUMPI RETURNDATASIZE PUSH1 0x0 DUP1 RETURNDATACOPY RETURNDATASIZE PUSH1 0x0 REVERT JUMPDEST POP POP POP POP PUSH1 0x40 MLOAD RETURNDATASIZE PUSH1 0x1F NOT PUSH1 0x1F DUP3 ADD AND DUP3 ADD DUP1 PUSH1 0x40 MSTORE POP DUP2 ADD SWAP1 PUSH2 0x33DF SWAP2 SWAP1 PUSH2 0x54F1 JUMP JUMPDEST SWAP1 POP PUSH1 0x0 DUP7 PUSH1 0x1 PUSH1 0x1 PUSH1 0xA0 SHL SUB AND PUSH4 0x76C46B7B PUSH1 0x40 MLOAD DUP2 PUSH4 0xFFFFFFFF AND PUSH1 0xE0 SHL DUP2 MSTORE PUSH1 0x4 ADD PUSH1 0x20 PUSH1 0x40 MLOAD DUP1 DUP4 SUB DUP2 DUP7 GAS STATICCALL ISZERO DUP1 ISZERO PUSH2 0x3421 JUMPI RETURNDATASIZE PUSH1 0x0 DUP1 RETURNDATACOPY RETURNDATASIZE PUSH1 0x0 REVERT JUMPDEST POP POP POP POP PUSH1 0x40 MLOAD RETURNDATASIZE PUSH1 0x1F NOT PUSH1 0x1F DUP3 ADD AND DUP3 ADD DUP1 PUSH1 0x40 MSTORE POP DUP2 ADD SWAP1 PUSH2 0x3445 SWAP2 SWAP1 PUSH2 0x54D8 JUMP JUMPDEST SWAP1 POP DUP1 PUSH1 0x0 SUB PUSH2 0x3475 JUMPI PUSH2 0x346B PUSH2 0x345B DUP4 PUSH2 0x44C2 JUMP JUMPDEST PUSH2 0x3465 DUP8 DUP7 PUSH2 0x5524 JUMP JUMPDEST SWAP1 PUSH2 0x44FB JUMP JUMPDEST SWAP4 POP POP POP POP PUSH2 0x1055 JUMP JUMPDEST PUSH1 0x40 MLOAD PUSH4 0x2FC11C0F PUSH1 0xE0 SHL DUP2 MSTORE PUSH1 0x0 PUSH1 0x4 DUP3 ADD DUP2 SWAP1 MSTORE SWAP1 PUSH1 0x1 PUSH1 0x1 PUSH1 0xA0 SHL SUB DUP10 AND SWAP1 PUSH4 0x2FC11C0F SWAP1 PUSH1 0x24 ADD PUSH1 0x20 PUSH1 0x40 MLOAD DUP1 DUP4 SUB DUP2 DUP7 GAS STATICCALL ISZERO DUP1 ISZERO PUSH2 0x34BD JUMPI RETURNDATASIZE PUSH1 0x0 DUP1 RETURNDATACOPY RETURNDATASIZE PUSH1 0x0 REVERT JUMPDEST POP POP POP POP PUSH1 0x40 MLOAD RETURNDATASIZE PUSH1 0x1F NOT PUSH1 0x1F DUP3 ADD AND DUP3 ADD DUP1 PUSH1 0x40 MSTORE POP DUP2 ADD SWAP1 PUSH2 0x34E1 SWAP2 SWAP1 PUSH2 0x54D8 JUMP JUMPDEST DUP9 PUSH1 0x1 PUSH1 0x1 PUSH1 0xA0 SHL SUB AND PUSH4 0xA355D7D PUSH1 0x40 MLOAD DUP2 PUSH4 0xFFFFFFFF AND PUSH1 0xE0 SHL DUP2 MSTORE PUSH1 0x4 ADD PUSH1 0x20 PUSH1 0x40 MLOAD DUP1 DUP4 SUB DUP2 DUP7 GAS STATICCALL ISZERO DUP1 ISZERO PUSH2 0x351F JUMPI RETURNDATASIZE PUSH1 0x0 DUP1 RETURNDATACOPY RETURNDATASIZE PUSH1 0x0 REVERT JUMPDEST POP POP POP POP PUSH1 0x40 MLOAD RETURNDATASIZE PUSH1 0x1F NOT PUSH1 0x1F DUP3 ADD AND DUP3 ADD DUP1 PUSH1 0x40 MSTORE POP DUP2 ADD SWAP1 PUSH2 0x3543 SWAP2 SWAP1 PUSH2 0x54D8 JUMP JUMPDEST PUSH2 0x354D SWAP2 SWAP1 PUSH2 0x56AC JUMP JUMPDEST SWAP1 POP PUSH1 0x0 PUSH2 0x355C DUP6 DUP4 DUP6 PUSH2 0x3114 JUMP JUMPDEST SWAP1 POP PUSH2 0x3574 PUSH2 0x356A DUP6 PUSH2 0x44C2 JUMP JUMPDEST PUSH2 0x3465 DUP10 DUP5 PUSH2 0x5524 JUMP JUMPDEST SWAP10 SWAP9 POP POP POP POP POP POP POP POP POP JUMP JUMPDEST PUSH1 0x0 DUP1 SLOAD PUSH2 0x100 SWAP1 DIV PUSH1 0xFF AND ISZERO PUSH2 0x35C8 JUMPI DUP2 PUSH1 0xFF AND PUSH1 0x1 EQ DUP1 ISZERO PUSH2 0x35A4 JUMPI POP ADDRESS EXTCODESIZE ISZERO JUMPDEST PUSH2 0x35C0 JUMPI PUSH1 0x40 MLOAD PUSH3 0x461BCD PUSH1 0xE5 SHL DUP2 MSTORE PUSH1 0x4 ADD PUSH2 0x80A SWAP1 PUSH2 0x578F JUMP JUMPDEST POP PUSH1 0x0 SWAP2 SWAP1 POP JUMP JUMPDEST PUSH1 0x0 SLOAD PUSH1 0xFF DUP1 DUP5 AND SWAP2 AND LT PUSH2 0x35EF JUMPI PUSH1 0x40 MLOAD PUSH3 0x461BCD PUSH1 0xE5 SHL DUP2 MSTORE PUSH1 0x4 ADD PUSH2 0x80A SWAP1 PUSH2 0x578F JUMP JUMPDEST POP PUSH1 0x0 DUP1 SLOAD PUSH1 0xFF NOT AND PUSH1 0xFF SWAP3 SWAP1 SWAP3 AND SWAP2 SWAP1 SWAP2 OR SWAP1 SSTORE PUSH1 0x1 SWAP1 JUMP JUMPDEST SWAP2 SWAP1 POP JUMP JUMPDEST PUSH1 0x0 SLOAD PUSH2 0x100 SWAP1 DIV PUSH1 0xFF AND PUSH2 0x3635 JUMPI PUSH1 0x40 MLOAD PUSH3 0x461BCD PUSH1 0xE5 SHL DUP2 MSTORE PUSH1 0x4 ADD PUSH2 0x80A SWAP1 PUSH2 0x57DD JUMP JUMPDEST PUSH2 0x129A PUSH2 0x4510 JUMP JUMPDEST PUSH1 0x0 SLOAD PUSH2 0x100 SWAP1 DIV PUSH1 0xFF AND PUSH2 0x3664 JUMPI PUSH1 0x40 MLOAD PUSH3 0x461BCD PUSH1 0xE5 SHL DUP2 MSTORE PUSH1 0x4 ADD PUSH2 0x80A SWAP1 PUSH2 0x57DD JUMP JUMPDEST PUSH2 0x129A PUSH2 0x4540 JUMP JUMPDEST PUSH1 0x0 SLOAD PUSH2 0x100 SWAP1 DIV PUSH1 0xFF AND PUSH2 0x3693 JUMPI PUSH1 0x40 MLOAD PUSH3 0x461BCD PUSH1 0xE5 SHL DUP2 MSTORE PUSH1 0x4 ADD PUSH2 0x80A SWAP1 PUSH2 0x57DD JUMP JUMPDEST PUSH2 0x2EAA DUP3 DUP3 PUSH2 0x456E JUMP JUMPDEST PUSH1 0x0 DUP1 DUP3 PUSH1 0x1 PUSH1 0x1 PUSH1 0xA0 SHL SUB AND PUSH4 0x313CE567 PUSH1 0x40 MLOAD DUP2 PUSH4 0xFFFFFFFF AND PUSH1 0xE0 SHL DUP2 MSTORE PUSH1 0x4 ADD PUSH1 0x20 PUSH1 0x40 MLOAD DUP1 DUP4 SUB DUP2 DUP7 GAS STATICCALL ISZERO DUP1 ISZERO PUSH2 0x36DE JUMPI RETURNDATASIZE PUSH1 0x0 DUP1 RETURNDATACOPY RETURNDATASIZE PUSH1 0x0 REVERT JUMPDEST POP POP POP POP PUSH1 0x40 MLOAD RETURNDATASIZE PUSH1 0x1F NOT PUSH1 0x1F DUP3 ADD AND DUP3 ADD DUP1 PUSH1 0x40 MSTORE POP DUP2 ADD SWAP1 PUSH2 0x3702 SWAP2 SWAP1 PUSH2 0x5828 JUMP JUMPDEST PUSH1 0xFF AND SWAP1 POP PUSH1 0x12 DUP2 GT ISZERO PUSH2 0x372C JUMPI PUSH1 0x40 MLOAD PUSH4 0x5A2EAFD PUSH1 0xE5 SHL DUP2 MSTORE PUSH1 0x4 DUP2 ADD DUP3 SWAP1 MSTORE PUSH1 0x24 ADD PUSH2 0x80A JUMP JUMPDEST DUP1 PUSH1 0x12 SUB PUSH2 0x373D JUMPI POP PUSH1 0x1 SWAP3 SWAP2 POP POP JUMP JUMPDEST PUSH1 0x0 PUSH2 0x374A DUP3 PUSH1 0x12 PUSH2 0x5565 JUMP JUMPDEST PUSH2 0x31F8 SWAP1 PUSH1 0xA PUSH2 0x5929 JUMP JUMPDEST PUSH1 0x0 DUP1 PUSH2 0x3762 DUP6 DUP6 PUSH2 0x45BC JUMP JUMPDEST SWAP1 POP PUSH2 0x376E DUP2 DUP5 PUSH2 0x5524 JUMP JUMPDEST PUSH2 0x3778 DUP7 DUP7 PUSH2 0x45D3 JUMP JUMPDEST PUSH2 0x3782 SWAP1 DUP4 PUSH2 0x5565 JUMP JUMPDEST PUSH2 0x378E SWAP1 PUSH2 0x2710 PUSH2 0x5524 JUMP JUMPDEST GT ISZERO SWAP6 SWAP5 POP POP POP POP POP JUMP JUMPDEST DUP2 MLOAD DUP2 MLOAD LT ISZERO PUSH2 0x37CF JUMPI PUSH1 0xD0 SLOAD DUP3 MLOAD DUP3 MLOAD PUSH1 0x40 MLOAD PUSH4 0x37258C19 PUSH1 0xE0 SHL DUP2 MSTORE PUSH2 0x80A SWAP4 PUSH1 0x1 PUSH1 0x1 PUSH1 0xA0 SHL SUB AND SWAP3 SWAP2 SWAP1 PUSH1 0x4 ADD PUSH2 0x5935 JUMP JUMPDEST DUP2 PUSH1 0x20 ADD MLOAD DUP2 PUSH1 0x20 ADD MLOAD LT ISZERO PUSH2 0x3811 JUMPI PUSH1 0xD1 SLOAD PUSH1 0x20 DUP1 DUP5 ADD MLOAD SWAP1 DUP4 ADD MLOAD PUSH1 0x40 MLOAD PUSH4 0x37258C19 PUSH1 0xE0 SHL DUP2 MSTORE PUSH2 0x80A SWAP4 PUSH1 0x1 PUSH1 0x1 PUSH1 0xA0 SHL SUB AND SWAP3 SWAP2 SWAP1 PUSH1 0x4 ADD PUSH2 0x5935 JUMP JUMPDEST DUP2 PUSH1 0x40 ADD MLOAD DUP2 PUSH1 0x40 ADD MLOAD LT ISZERO PUSH2 0x2EAA JUMPI PUSH1 0x0 DUP3 PUSH1 0x40 ADD MLOAD DUP3 PUSH1 0x40 ADD MLOAD PUSH1 0x40 MLOAD PUSH4 0x37258C19 PUSH1 0xE0 SHL DUP2 MSTORE PUSH1 0x4 ADD PUSH2 0x80A SWAP4 SWAP3 SWAP2 SWAP1 PUSH2 0x5935 JUMP JUMPDEST PUSH1 0x1 PUSH1 0x1 PUSH1 0xA0 SHL SUB DUP3 AND PUSH2 0x38A9 JUMPI PUSH1 0x40 MLOAD PUSH3 0x461BCD PUSH1 0xE5 SHL DUP2 MSTORE PUSH1 0x20 PUSH1 0x4 DUP3 ADD MSTORE PUSH1 0x21 PUSH1 0x24 DUP3 ADD MSTORE PUSH32 0x45524332303A206275726E2066726F6D20746865207A65726F20616464726573 PUSH1 0x44 DUP3 ADD MSTORE PUSH1 0x73 PUSH1 0xF8 SHL PUSH1 0x64 DUP3 ADD MSTORE PUSH1 0x84 ADD PUSH2 0x80A JUMP JUMPDEST PUSH1 0x1 PUSH1 0x1 PUSH1 0xA0 SHL SUB DUP3 AND PUSH1 0x0 SWAP1 DUP2 MSTORE PUSH1 0x33 PUSH1 0x20 MSTORE PUSH1 0x40 SWAP1 KECCAK256 SLOAD DUP2 DUP2 LT ISZERO PUSH2 0x391D JUMPI PUSH1 0x40 MLOAD PUSH3 0x461BCD PUSH1 0xE5 SHL DUP2 MSTORE PUSH1 0x20 PUSH1 0x4 DUP3 ADD MSTORE PUSH1 0x22 PUSH1 0x24 DUP3 ADD MSTORE PUSH32 0x45524332303A206275726E20616D6F756E7420657863656564732062616C616E PUSH1 0x44 DUP3 ADD MSTORE PUSH2 0x6365 PUSH1 0xF0 SHL PUSH1 0x64 DUP3 ADD MSTORE PUSH1 0x84 ADD PUSH2 0x80A JUMP JUMPDEST PUSH1 0x1 PUSH1 0x1 PUSH1 0xA0 SHL SUB DUP4 AND PUSH1 0x0 SWAP1 DUP2 MSTORE PUSH1 0x33 PUSH1 0x20 MSTORE PUSH1 0x40 DUP2 KECCAK256 DUP4 DUP4 SUB SWAP1 SSTORE PUSH1 0x35 DUP1 SLOAD DUP5 SWAP3 SWAP1 PUSH2 0x394C SWAP1 DUP5 SWAP1 PUSH2 0x5565 JUMP JUMPDEST SWAP1 SWAP2 SSTORE POP POP PUSH1 0x40 MLOAD DUP3 DUP2 MSTORE PUSH1 0x0 SWAP1 PUSH1 0x1 PUSH1 0x1 PUSH1 0xA0 SHL SUB DUP6 AND SWAP1 PUSH32 0xDDF252AD1BE2C89B69C2B068FC378DAA952BA7F163C4A11628F55A4DF523B3EF SWAP1 PUSH1 0x20 ADD PUSH1 0x40 MLOAD DUP1 SWAP2 SUB SWAP1 LOG3 POP POP POP JUMP JUMPDEST PUSH1 0x1 PUSH1 0x1 PUSH1 0xA0 SHL SUB DUP3 AND PUSH2 0x39ED JUMPI PUSH1 0x40 MLOAD PUSH3 0x461BCD PUSH1 0xE5 SHL DUP2 MSTORE PUSH1 0x20 PUSH1 0x4 DUP3 ADD MSTORE PUSH1 0x1F PUSH1 0x24 DUP3 ADD MSTORE PUSH32 0x45524332303A206D696E7420746F20746865207A65726F206164647265737300 PUSH1 0x44 DUP3 ADD MSTORE PUSH1 0x64 ADD PUSH2 0x80A JUMP JUMPDEST DUP1 PUSH1 0x35 PUSH1 0x0 DUP3 DUP3 SLOAD PUSH2 0x39FF SWAP2 SWAP1 PUSH2 0x56AC JUMP JUMPDEST SWAP1 SWAP2 SSTORE POP POP PUSH1 0x1 PUSH1 0x1 PUSH1 0xA0 SHL SUB DUP3 AND PUSH1 0x0 SWAP1 DUP2 MSTORE PUSH1 0x33 PUSH1 0x20 MSTORE PUSH1 0x40 DUP2 KECCAK256 DUP1 SLOAD DUP4 SWAP3 SWAP1 PUSH2 0x3A2C SWAP1 DUP5 SWAP1 PUSH2 0x56AC JUMP JUMPDEST SWAP1 SWAP2 SSTORE POP POP PUSH1 0x40 MLOAD DUP2 DUP2 MSTORE PUSH1 0x1 PUSH1 0x1 PUSH1 0xA0 SHL SUB DUP4 AND SWAP1 PUSH1 0x0 SWAP1 PUSH32 0xDDF252AD1BE2C89B69C2B068FC378DAA952BA7F163C4A11628F55A4DF523B3EF SWAP1 PUSH1 0x20 ADD PUSH1 0x40 MLOAD DUP1 SWAP2 SUB SWAP1 LOG3 POP POP JUMP JUMPDEST PUSH1 0x0 DUP1 PUSH2 0x3A81 PUSH2 0x129C JUMP JUMPDEST SWAP1 POP PUSH1 0x0 PUSH2 0x3A8D PUSH2 0x2C72 JUMP JUMPDEST SWAP1 POP PUSH1 0x0 PUSH1 0xD7 PUSH1 0x0 SWAP1 SLOAD SWAP1 PUSH2 0x100 EXP SWAP1 DIV PUSH1 0x1 PUSH1 0x1 PUSH1 0xA0 SHL SUB AND PUSH1 0x1 PUSH1 0x1 PUSH1 0xA0 SHL SUB AND PUSH4 0xEF3BAC5E PUSH1 0x40 MLOAD DUP2 PUSH4 0xFFFFFFFF AND PUSH1 0xE0 SHL DUP2 MSTORE PUSH1 0x4 ADD PUSH1 0x20 PUSH1 0x40 MLOAD DUP1 DUP4 SUB DUP2 DUP7 GAS STATICCALL ISZERO DUP1 ISZERO PUSH2 0x3AE4 JUMPI RETURNDATASIZE PUSH1 0x0 DUP1 RETURNDATACOPY RETURNDATASIZE PUSH1 0x0 REVERT JUMPDEST POP POP POP POP PUSH1 0x40 MLOAD RETURNDATASIZE PUSH1 0x1F NOT PUSH1 0x1F DUP3 ADD AND DUP3 ADD DUP1 PUSH1 0x40 MSTORE POP DUP2 ADD SWAP1 PUSH2 0x3B08 SWAP2 SWAP1 PUSH2 0x54F1 JUMP JUMPDEST PUSH1 0xD0 SLOAD PUSH1 0x1 PUSH1 0x1 PUSH1 0xA0 SHL SUB SWAP1 DUP2 AND SWAP2 AND EQ PUSH2 0x3B30 JUMPI DUP5 MLOAD DUP3 MLOAD PUSH2 0x3B2B SWAP2 SWAP1 PUSH2 0x5565 JUMP JUMPDEST PUSH2 0x3B44 JUMP JUMPDEST DUP5 PUSH1 0x40 ADD MLOAD DUP3 PUSH1 0x40 ADD MLOAD PUSH2 0x3B44 SWAP2 SWAP1 PUSH2 0x5565 JUMP JUMPDEST SWAP1 POP PUSH1 0x0 PUSH1 0xD7 PUSH1 0x0 SWAP1 SLOAD SWAP1 PUSH2 0x100 EXP SWAP1 DIV PUSH1 0x1 PUSH1 0x1 PUSH1 0xA0 SHL SUB AND PUSH1 0x1 PUSH1 0x1 PUSH1 0xA0 SHL SUB AND PUSH4 0xEF3BAC5E PUSH1 0x40 MLOAD DUP2 PUSH4 0xFFFFFFFF AND PUSH1 0xE0 SHL DUP2 MSTORE PUSH1 0x4 ADD PUSH1 0x20 PUSH1 0x40 MLOAD DUP1 DUP4 SUB DUP2 DUP7 GAS STATICCALL ISZERO DUP1 ISZERO PUSH2 0x3B9B JUMPI RETURNDATASIZE PUSH1 0x0 DUP1 RETURNDATACOPY RETURNDATASIZE PUSH1 0x0 REVERT JUMPDEST POP POP POP POP PUSH1 0x40 MLOAD RETURNDATASIZE PUSH1 0x1F NOT PUSH1 0x1F DUP3 ADD AND DUP3 ADD DUP1 PUSH1 0x40 MSTORE POP DUP2 ADD SWAP1 PUSH2 0x3BBF SWAP2 SWAP1 PUSH2 0x54F1 JUMP JUMPDEST PUSH1 0xD1 SLOAD PUSH1 0x1 PUSH1 0x1 PUSH1 0xA0 SHL SUB SWAP1 DUP2 AND SWAP2 AND EQ PUSH2 0x3BED JUMPI DUP6 PUSH1 0x20 ADD MLOAD DUP4 PUSH1 0x20 ADD MLOAD PUSH2 0x3BE8 SWAP2 SWAP1 PUSH2 0x5565 JUMP JUMPDEST PUSH2 0x3C01 JUMP JUMPDEST DUP6 PUSH1 0x40 ADD MLOAD DUP4 PUSH1 0x40 ADD MLOAD PUSH2 0x3C01 SWAP2 SWAP1 PUSH2 0x5565 JUMP JUMPDEST SWAP1 POP DUP10 DUP3 LT ISZERO PUSH2 0x3C35 JUMPI PUSH1 0xD0 SLOAD PUSH1 0x40 MLOAD PUSH4 0x7E318FF9 PUSH1 0xE1 SHL DUP2 MSTORE PUSH2 0x80A SWAP2 PUSH1 0x1 PUSH1 0x1 PUSH1 0xA0 SHL SUB AND SWAP1 DUP13 SWAP1 DUP6 SWAP1 PUSH1 0x4 ADD PUSH2 0x5935 JUMP JUMPDEST DUP9 DUP2 LT ISZERO PUSH2 0x3C67 JUMPI PUSH1 0xD1 SLOAD PUSH1 0x40 MLOAD PUSH4 0x7E318FF9 PUSH1 0xE1 SHL DUP2 MSTORE PUSH2 0x80A SWAP2 PUSH1 0x1 PUSH1 0x1 PUSH1 0xA0 SHL SUB AND SWAP1 DUP12 SWAP1 DUP5 SWAP1 PUSH1 0x4 ADD PUSH2 0x5935 JUMP JUMPDEST PUSH1 0x0 PUSH2 0x3C73 DUP9 DUP7 PUSH2 0x40DB JUMP JUMPDEST SWAP1 POP DUP1 DUP10 LT ISZERO PUSH2 0x3CA0 JUMPI PUSH1 0x40 MLOAD PUSH4 0x89454DC1 PUSH1 0xE0 SHL DUP2 MSTORE PUSH1 0x4 DUP2 ADD DUP3 SWAP1 MSTORE PUSH1 0x24 DUP2 ADD DUP11 SWAP1 MSTORE PUSH1 0x44 ADD PUSH2 0x80A JUMP JUMPDEST PUSH2 0x3CAB DUP10 DUP10 DUP8 PUSH2 0x45E2 JUMP JUMPDEST PUSH2 0x3CB5 DUP8 DUP6 PUSH2 0x3799 JUMP JUMPDEST PUSH1 0xD0 SLOAD PUSH2 0x3CCD SWAP1 CALLER SWAP1 PUSH1 0x1 PUSH1 0x1 PUSH1 0xA0 SHL SUB AND DUP6 PUSH2 0x48C9 JUMP JUMPDEST PUSH1 0xD1 SLOAD PUSH2 0x3CE5 SWAP1 CALLER SWAP1 PUSH1 0x1 PUSH1 0x1 PUSH1 0xA0 SHL SUB AND DUP5 PUSH2 0x48C9 JUMP JUMPDEST PUSH1 0xD7 SLOAD PUSH1 0x40 DUP1 MLOAD PUSH4 0xF77C4791 PUSH1 0xE0 SHL DUP2 MSTORE SWAP1 MLOAD PUSH1 0x0 SWAP3 PUSH1 0x1 PUSH1 0x1 PUSH1 0xA0 SHL SUB AND SWAP2 PUSH4 0xF77C4791 SWAP2 PUSH1 0x4 DUP1 DUP4 ADD SWAP3 PUSH1 0x20 SWAP3 SWAP2 SWAP1 DUP3 SWAP1 SUB ADD DUP2 DUP7 GAS STATICCALL ISZERO DUP1 ISZERO PUSH2 0x3D2F JUMPI RETURNDATASIZE PUSH1 0x0 DUP1 RETURNDATACOPY RETURNDATASIZE PUSH1 0x0 REVERT JUMPDEST POP POP POP POP PUSH1 0x40 MLOAD RETURNDATASIZE PUSH1 0x1F NOT PUSH1 0x1F DUP3 ADD AND DUP3 ADD DUP1 PUSH1 0x40 MSTORE POP DUP2 ADD SWAP1 PUSH2 0x3D53 SWAP2 SWAP1 PUSH2 0x54F1 JUMP JUMPDEST SWAP1 POP PUSH1 0x1 PUSH1 0x1 PUSH1 0xA0 SHL SUB DUP2 AND ISZERO PUSH2 0x3DC5 JUMPI PUSH1 0x40 MLOAD PUSH4 0xCCAD973D PUSH1 0xE0 SHL DUP2 MSTORE ORIGIN PUSH1 0x4 DUP3 ADD MSTORE PUSH1 0x24 DUP2 ADD DUP15 SWAP1 MSTORE PUSH1 0x1 PUSH1 0x1 PUSH1 0xA0 SHL SUB DUP3 AND SWAP1 PUSH4 0xCCAD973D SWAP1 PUSH1 0x44 ADD PUSH1 0x0 PUSH1 0x40 MLOAD DUP1 DUP4 SUB DUP2 PUSH1 0x0 DUP8 DUP1 EXTCODESIZE ISZERO DUP1 ISZERO PUSH2 0x3DAC JUMPI PUSH1 0x0 DUP1 REVERT JUMPDEST POP GAS CALL ISZERO DUP1 ISZERO PUSH2 0x3DC0 JUMPI RETURNDATASIZE PUSH1 0x0 DUP1 RETURNDATACOPY RETURNDATASIZE PUSH1 0x0 REVERT JUMPDEST POP POP POP POP JUMPDEST PUSH1 0x40 DUP1 MLOAD DUP6 DUP2 MSTORE PUSH1 0x20 DUP2 ADD DUP6 SWAP1 MSTORE CALLER SWAP2 PUSH32 0xDA9A10D7B992511DDADBFC7FF712C1424CE2058BBCDAC8C9876D6F8DE590D43F SWAP2 ADD PUSH1 0x40 MLOAD DUP1 SWAP2 SUB SWAP1 LOG2 POP SWAP12 SWAP11 POP POP POP POP POP POP POP POP POP POP POP JUMP JUMPDEST PUSH1 0x0 PUSH2 0x3E65 DUP3 PUSH1 0x40 MLOAD DUP1 PUSH1 0x40 ADD PUSH1 0x40 MSTORE DUP1 PUSH1 0x20 DUP2 MSTORE PUSH1 0x20 ADD PUSH32 0x5361666545524332303A206C6F772D6C6576656C2063616C6C206661696C6564 DUP2 MSTORE POP DUP6 PUSH1 0x1 PUSH1 0x1 PUSH1 0xA0 SHL SUB AND PUSH2 0x4976 SWAP1 SWAP3 SWAP2 SWAP1 PUSH4 0xFFFFFFFF AND JUMP JUMPDEST DUP1 MLOAD SWAP1 SWAP2 POP ISZERO PUSH2 0x26F7 JUMPI DUP1 DUP1 PUSH1 0x20 ADD SWAP1 MLOAD DUP2 ADD SWAP1 PUSH2 0x3E83 SWAP2 SWAP1 PUSH2 0x5428 JUMP JUMPDEST PUSH2 0x26F7 JUMPI PUSH1 0x40 MLOAD PUSH3 0x461BCD PUSH1 0xE5 SHL DUP2 MSTORE PUSH1 0x20 PUSH1 0x4 DUP3 ADD MSTORE PUSH1 0x2A PUSH1 0x24 DUP3 ADD MSTORE PUSH32 0x5361666545524332303A204552433230206F7065726174696F6E20646964206E PUSH1 0x44 DUP3 ADD MSTORE PUSH10 0x1BDD081CDD58D8D95959 PUSH1 0xB2 SHL PUSH1 0x64 DUP3 ADD MSTORE PUSH1 0x84 ADD PUSH2 0x80A JUMP JUMPDEST PUSH1 0xD3 SLOAD ISZERO DUP1 PUSH2 0x3EF1 JUMPI POP PUSH1 0xD4 SLOAD ISZERO JUMPDEST ISZERO PUSH2 0x3F0F JUMPI PUSH1 0x40 MLOAD PUSH4 0x3F8EF807 PUSH1 0xE0 SHL DUP2 MSTORE PUSH1 0x4 ADD PUSH1 0x40 MLOAD DUP1 SWAP2 SUB SWAP1 REVERT JUMPDEST PUSH1 0x0 DUP1 PUSH1 0x0 DUP1 PUSH1 0x0 DUP1 PUSH1 0x0 DUP8 DUP1 PUSH1 0x20 ADD SWAP1 MLOAD DUP2 ADD SWAP1 PUSH2 0x3F2E SWAP2 SWAP1 PUSH2 0x5956 JUMP JUMPDEST SWAP7 POP SWAP7 POP SWAP7 POP SWAP7 POP SWAP7 POP SWAP7 POP SWAP7 POP PUSH1 0xD7 PUSH1 0x14 SWAP1 SLOAD SWAP1 PUSH2 0x100 EXP SWAP1 DIV PUSH1 0xFF AND PUSH1 0xFF AND PUSH1 0x1 EQ ISZERO DUP1 ISZERO PUSH2 0x3F9E JUMPI POP PUSH1 0xCC SLOAD PUSH1 0x1 PUSH1 0x1 PUSH1 0xA0 SHL SUB DUP9 DUP2 AND SWAP2 AND EQ DUP1 ISZERO PUSH2 0x3F78 JUMPI POP PUSH1 0xD3 SLOAD DUP7 EQ JUMPDEST DUP1 PUSH2 0x3F9C JUMPI POP PUSH1 0xCD SLOAD PUSH1 0x1 PUSH1 0x1 PUSH1 0xA0 SHL SUB DUP9 DUP2 AND SWAP2 AND EQ DUP1 ISZERO PUSH2 0x3F9C JUMPI POP PUSH1 0xD4 SLOAD DUP7 EQ JUMPDEST ISZERO JUMPDEST ISZERO PUSH2 0x3FCE JUMPI PUSH1 0x40 MLOAD PUSH4 0x25C502DF PUSH1 0xE0 SHL DUP2 MSTORE PUSH1 0x1 PUSH1 0x1 PUSH1 0xA0 SHL SUB DUP9 AND PUSH1 0x4 DUP3 ADD MSTORE PUSH1 0x24 DUP2 ADD DUP8 SWAP1 MSTORE PUSH1 0x44 ADD PUSH2 0x80A JUMP JUMPDEST PUSH1 0xD0 SLOAD PUSH2 0x3FE7 SWAP1 PUSH1 0x1 PUSH1 0x1 PUSH1 0xA0 SHL SUB AND DUP9 PUSH1 0x0 NOT PUSH2 0x4985 JUMP JUMPDEST PUSH1 0xD1 SLOAD PUSH2 0x4000 SWAP1 PUSH1 0x1 PUSH1 0x1 PUSH1 0xA0 SHL SUB AND DUP9 PUSH1 0x0 NOT PUSH2 0x4985 JUMP JUMPDEST PUSH1 0x40 MLOAD PUSH4 0xD72EF771 PUSH1 0xE0 SHL DUP2 MSTORE PUSH1 0x1 PUSH1 0x1 PUSH1 0xA0 SHL SUB DUP9 AND SWAP1 PUSH4 0xD72EF771 SWAP1 PUSH2 0x4036 SWAP1 DUP10 SWAP1 DUP10 SWAP1 DUP10 SWAP1 DUP10 SWAP1 DUP10 SWAP1 DUP10 SWAP1 PUSH1 0x4 ADD PUSH2 0x5A1D JUMP JUMPDEST PUSH1 0x0 PUSH1 0x40 MLOAD DUP1 DUP4 SUB DUP2 PUSH1 0x0 DUP8 DUP1 EXTCODESIZE ISZERO DUP1 ISZERO PUSH2 0x4050 JUMPI PUSH1 0x0 DUP1 REVERT JUMPDEST POP GAS CALL ISZERO DUP1 ISZERO PUSH2 0x4064 JUMPI RETURNDATASIZE PUSH1 0x0 DUP1 RETURNDATACOPY RETURNDATASIZE PUSH1 0x0 REVERT JUMPDEST POP POP PUSH1 0xD0 SLOAD PUSH2 0x4081 SWAP3 POP PUSH1 0x1 PUSH1 0x1 PUSH1 0xA0 SHL SUB AND SWAP1 POP DUP9 PUSH1 0x0 PUSH2 0x4985 JUMP JUMPDEST PUSH1 0xD1 SLOAD PUSH2 0x4099 SWAP1 PUSH1 0x1 PUSH1 0x1 PUSH1 0xA0 SHL SUB AND DUP9 PUSH1 0x0 PUSH2 0x4985 JUMP JUMPDEST POP POP POP POP POP POP POP POP JUMP JUMPDEST PUSH1 0x40 MLOAD PUSH1 0x1 PUSH1 0x1 PUSH1 0xA0 SHL SUB DUP1 DUP6 AND PUSH1 0x24 DUP4 ADD MSTORE DUP4 AND PUSH1 0x44 DUP3 ADD MSTORE PUSH1 0x64 DUP2 ADD DUP3 SWAP1 MSTORE PUSH2 0x288A SWAP1 DUP6 SWAP1 PUSH4 0x23B872DD PUSH1 0xE0 SHL SWAP1 PUSH1 0x84 ADD PUSH2 0x26C0 JUMP JUMPDEST PUSH1 0x0 DUP1 DUP3 PUSH1 0xA0 ADD MLOAD DUP4 PUSH1 0x40 ADD MLOAD PUSH2 0x40F2 SWAP2 SWAP1 PUSH2 0x56AC JUMP JUMPDEST DUP5 PUSH1 0xA0 ADD MLOAD DUP6 PUSH1 0x40 ADD MLOAD PUSH2 0x4106 SWAP2 SWAP1 PUSH2 0x56AC JUMP JUMPDEST PUSH2 0x4110 SWAP2 SWAP1 PUSH2 0x5565 JUMP JUMPDEST SWAP1 POP PUSH1 0x0 DUP4 PUSH1 0x80 ADD MLOAD DUP5 PUSH1 0x20 ADD MLOAD PUSH2 0x4128 SWAP2 SWAP1 PUSH2 0x56AC JUMP JUMPDEST DUP6 PUSH1 0x80 ADD MLOAD DUP7 PUSH1 0x20 ADD MLOAD PUSH2 0x413C SWAP2 SWAP1 PUSH2 0x56AC JUMP JUMPDEST PUSH2 0x4146 SWAP2 SWAP1 PUSH2 0x5565 JUMP JUMPDEST SWAP1 POP DUP1 PUSH2 0x4152 DUP4 PUSH2 0x3252 JUMP JUMPDEST PUSH2 0x415C SWAP2 SWAP1 PUSH2 0x5565 JUMP JUMPDEST SWAP6 SWAP5 POP POP POP POP POP JUMP JUMPDEST PUSH1 0xD7 SLOAD PUSH1 0x40 DUP1 MLOAD PUSH4 0xF9BFD907 PUSH1 0xE0 SHL DUP2 MSTORE SWAP1 MLOAD PUSH1 0x0 SWAP3 PUSH1 0x1 PUSH1 0x1 PUSH1 0xA0 SHL SUB AND SWAP2 PUSH4 0xF9BFD907 SWAP2 PUSH1 0x4 DUP1 DUP4 ADD SWAP3 PUSH1 0x20 SWAP3 SWAP2 SWAP1 DUP3 SWAP1 SUB ADD DUP2 DUP7 GAS STATICCALL ISZERO DUP1 ISZERO PUSH2 0x41AF JUMPI RETURNDATASIZE PUSH1 0x0 DUP1 RETURNDATACOPY RETURNDATASIZE PUSH1 0x0 REVERT JUMPDEST POP POP POP POP PUSH1 0x40 MLOAD RETURNDATASIZE PUSH1 0x1F NOT PUSH1 0x1F DUP3 ADD AND DUP3 ADD DUP1 PUSH1 0x40 MSTORE POP DUP2 ADD SWAP1 PUSH2 0x41D3 SWAP2 SWAP1 PUSH2 0x54D8 JUMP JUMPDEST SWAP1 POP PUSH1 0x0 PUSH1 0xD7 PUSH1 0x0 SWAP1 SLOAD SWAP1 PUSH2 0x100 EXP SWAP1 DIV PUSH1 0x1 PUSH1 0x1 PUSH1 0xA0 SHL SUB AND PUSH1 0x1 PUSH1 0x1 PUSH1 0xA0 SHL SUB AND PUSH4 0xE592C5FA PUSH1 0x40 MLOAD DUP2 PUSH4 0xFFFFFFFF AND PUSH1 0xE0 SHL DUP2 MSTORE PUSH1 0x4 ADD PUSH1 0x20 PUSH1 0x40 MLOAD DUP1 DUP4 SUB DUP2 DUP7 GAS STATICCALL ISZERO DUP1 ISZERO PUSH2 0x422A JUMPI RETURNDATASIZE PUSH1 0x0 DUP1 RETURNDATACOPY RETURNDATASIZE PUSH1 0x0 REVERT JUMPDEST POP POP POP POP PUSH1 0x40 MLOAD RETURNDATASIZE PUSH1 0x1F NOT PUSH1 0x1F DUP3 ADD AND DUP3 ADD DUP1 PUSH1 0x40 MSTORE POP DUP2 ADD SWAP1 PUSH2 0x424E SWAP2 SWAP1 PUSH2 0x5828 JUMP JUMPDEST SWAP1 POP PUSH1 0x0 DUP4 PUSH1 0x80 ADD MLOAD DUP5 PUSH1 0x60 ADD MLOAD DUP6 PUSH1 0x20 ADD MLOAD DUP7 PUSH1 0x0 ADD MLOAD PUSH2 0x4270 SWAP2 SWAP1 PUSH2 0x56AC JUMP JUMPDEST PUSH2 0x427A SWAP2 SWAP1 PUSH2 0x56AC JUMP JUMPDEST PUSH2 0x4284 SWAP2 SWAP1 PUSH2 0x56AC JUMP JUMPDEST PUSH1 0xD7 SLOAD PUSH1 0x40 MLOAD PUSH4 0x35824061 PUSH1 0xE0 SHL DUP2 MSTORE PUSH1 0x4 DUP2 ADD DUP4 SWAP1 MSTORE SWAP2 SWAP3 POP PUSH1 0x1 PUSH1 0x1 PUSH1 0xA0 SHL SUB AND SWAP1 PUSH4 0x35824061 SWAP1 PUSH1 0x24 ADD PUSH1 0x20 PUSH1 0x40 MLOAD DUP1 DUP4 SUB DUP2 DUP7 GAS STATICCALL ISZERO DUP1 ISZERO PUSH2 0x42CE JUMPI RETURNDATASIZE PUSH1 0x0 DUP1 RETURNDATACOPY RETURNDATASIZE PUSH1 0x0 REVERT JUMPDEST POP POP POP POP PUSH1 0x40 MLOAD RETURNDATASIZE PUSH1 0x1F NOT PUSH1 0x1F DUP3 ADD AND DUP3 ADD DUP1 PUSH1 0x40 MSTORE POP DUP2 ADD SWAP1 PUSH2 0x42F2 SWAP2 SWAP1 PUSH2 0x5428 JUMP JUMPDEST PUSH2 0x430F JUMPI PUSH1 0x40 MLOAD PUSH4 0x8B2D329 PUSH1 0xE1 SHL DUP2 MSTORE PUSH1 0x4 ADD PUSH1 0x40 MLOAD DUP1 SWAP2 SUB SWAP1 REVERT JUMPDEST PUSH1 0x0 PUSH1 0x2 PUSH2 0x431D DUP5 DUP3 PUSH2 0x5A62 JUMP JUMPDEST PUSH2 0x4327 SWAP2 SWAP1 PUSH2 0x5A83 JUMP JUMPDEST PUSH1 0xFF AND PUSH2 0x4335 PUSH1 0x2 DUP6 PUSH2 0x5A83 JUMP JUMPDEST PUSH2 0x4342 SWAP1 PUSH1 0xFF AND DUP10 PUSH2 0x5524 JUMP JUMPDEST PUSH2 0x434C SWAP2 SWAP1 PUSH2 0x5543 JUMP JUMPDEST SWAP1 POP PUSH1 0x0 PUSH1 0x2 PUSH2 0x435C DUP6 DUP3 PUSH2 0x5A62 JUMP JUMPDEST PUSH2 0x4366 SWAP2 SWAP1 PUSH2 0x5A83 JUMP JUMPDEST PUSH1 0xFF AND DUP5 PUSH1 0xFF AND DUP10 PUSH2 0x4378 SWAP2 SWAP1 PUSH2 0x5524 JUMP JUMPDEST PUSH2 0x4382 SWAP2 SWAP1 PUSH2 0x5543 JUMP JUMPDEST SWAP1 POP PUSH1 0x0 DUP8 PUSH1 0x20 ADD MLOAD DUP8 PUSH1 0x20 ADD MLOAD PUSH2 0x439A SWAP2 SWAP1 PUSH2 0x5565 JUMP JUMPDEST SWAP1 POP PUSH1 0x0 DUP9 PUSH1 0x80 ADD MLOAD DUP9 PUSH1 0x80 ADD MLOAD PUSH2 0x43B2 SWAP2 SWAP1 PUSH2 0x5565 JUMP JUMPDEST SWAP1 POP PUSH1 0x0 DUP3 PUSH2 0x43CE DUP12 PUSH1 0x40 ADD MLOAD DUP12 PUSH1 0x40 ADD MLOAD PUSH2 0x1B8D SWAP2 SWAP1 PUSH2 0x5565 JUMP JUMPDEST PUSH2 0x43D8 SWAP2 SWAP1 PUSH2 0x5565 JUMP JUMPDEST SWAP1 POP PUSH1 0x0 DUP3 PUSH2 0x43F4 DUP13 PUSH1 0xA0 ADD MLOAD DUP13 PUSH1 0xA0 ADD MLOAD PUSH2 0x1B8D SWAP2 SWAP1 PUSH2 0x5565 JUMP JUMPDEST PUSH2 0x43FE SWAP2 SWAP1 PUSH2 0x5565 JUMP JUMPDEST SWAP1 POP PUSH2 0x440B DUP3 DUP8 DUP12 PUSH2 0x3755 JUMP JUMPDEST ISZERO DUP1 PUSH2 0x441F JUMPI POP PUSH2 0x441D DUP2 DUP7 DUP12 PUSH2 0x3755 JUMP JUMPDEST ISZERO JUMPDEST ISZERO PUSH2 0x443D JUMPI PUSH1 0x40 MLOAD PUSH4 0xBFE22423 PUSH1 0xE0 SHL DUP2 MSTORE PUSH1 0x4 ADD PUSH1 0x40 MLOAD DUP1 SWAP2 SUB SWAP1 REVERT JUMPDEST PUSH1 0x0 PUSH2 0x444A PUSH1 0x1 DUP11 PUSH2 0x5A83 JUMP JUMPDEST PUSH2 0x4457 SWAP1 PUSH1 0xFF AND DUP9 PUSH2 0x5524 JUMP JUMPDEST SWAP1 POP PUSH1 0x0 PUSH2 0x4466 PUSH1 0x1 DUP12 PUSH2 0x5A83 JUMP JUMPDEST PUSH2 0x4473 SWAP1 PUSH1 0xFF AND DUP9 PUSH2 0x5524 JUMP JUMPDEST SWAP1 POP PUSH2 0x4480 DUP7 DUP4 DUP14 PUSH2 0x3755 JUMP JUMPDEST ISZERO DUP1 PUSH2 0x4494 JUMPI POP PUSH2 0x4492 DUP6 DUP3 DUP14 PUSH2 0x3755 JUMP JUMPDEST ISZERO JUMPDEST ISZERO PUSH2 0x44B2 JUMPI PUSH1 0x40 MLOAD PUSH4 0x8CC3AA7D PUSH1 0xE0 SHL DUP2 MSTORE PUSH1 0x4 ADD PUSH1 0x40 MLOAD DUP1 SWAP2 SUB SWAP1 REVERT JUMPDEST POP POP POP POP POP POP POP POP POP POP POP POP POP POP JUMP JUMPDEST PUSH1 0xD6 SLOAD PUSH1 0x40 MLOAD PUSH4 0x681320D PUSH1 0xE5 SHL DUP2 MSTORE PUSH1 0x1 PUSH1 0x1 PUSH1 0xA0 SHL SUB DUP4 DUP2 AND PUSH1 0x4 DUP4 ADD MSTORE PUSH1 0x0 SWAP3 DUP4 SWAP3 DUP4 SWAP3 SWAP1 SWAP2 AND SWAP1 PUSH4 0xD02641A0 SWAP1 PUSH1 0x24 ADD PUSH2 0x3290 JUMP JUMPDEST PUSH1 0x0 PUSH2 0x1055 DUP4 DUP4 PUSH8 0xDE0B6B3A7640000 PUSH2 0x4A9A JUMP JUMPDEST PUSH1 0x0 SLOAD PUSH2 0x100 SWAP1 DIV PUSH1 0xFF AND PUSH2 0x4537 JUMPI PUSH1 0x40 MLOAD PUSH3 0x461BCD PUSH1 0xE5 SHL DUP2 MSTORE PUSH1 0x4 ADD PUSH2 0x80A SWAP1 PUSH2 0x57DD JUMP JUMPDEST PUSH2 0x129A CALLER PUSH2 0x3200 JUMP JUMPDEST PUSH1 0x0 SLOAD PUSH2 0x100 SWAP1 DIV PUSH1 0xFF AND PUSH2 0x4567 JUMPI PUSH1 0x40 MLOAD PUSH3 0x461BCD PUSH1 0xE5 SHL DUP2 MSTORE PUSH1 0x4 ADD PUSH2 0x80A SWAP1 PUSH2 0x57DD JUMP JUMPDEST PUSH1 0x1 PUSH1 0x65 SSTORE JUMP JUMPDEST PUSH1 0x0 SLOAD PUSH2 0x100 SWAP1 DIV PUSH1 0xFF AND PUSH2 0x4595 JUMPI PUSH1 0x40 MLOAD PUSH3 0x461BCD PUSH1 0xE5 SHL DUP2 MSTORE PUSH1 0x4 ADD PUSH2 0x80A SWAP1 PUSH2 0x57DD JUMP JUMPDEST DUP2 MLOAD PUSH2 0x45A8 SWAP1 PUSH1 0x36 SWAP1 PUSH1 0x20 DUP6 ADD SWAP1 PUSH2 0x4CD3 JUMP JUMPDEST POP DUP1 MLOAD PUSH2 0x26F7 SWAP1 PUSH1 0x37 SWAP1 PUSH1 0x20 DUP5 ADD SWAP1 PUSH2 0x4CD3 JUMP JUMPDEST PUSH1 0x0 DUP2 DUP4 LT ISZERO PUSH2 0x45CC JUMPI DUP2 PUSH2 0x1055 JUMP JUMPDEST POP SWAP1 SWAP2 SWAP1 POP JUMP JUMPDEST PUSH1 0x0 DUP2 DUP4 LT PUSH2 0x45CC JUMPI DUP2 PUSH2 0x1055 JUMP JUMPDEST PUSH1 0xD7 SLOAD PUSH1 0x40 DUP1 MLOAD PUSH4 0xF9BFD907 PUSH1 0xE0 SHL DUP2 MSTORE SWAP1 MLOAD PUSH1 0x0 SWAP3 PUSH1 0x1 PUSH1 0x1 PUSH1 0xA0 SHL SUB AND SWAP2 PUSH4 0xF9BFD907 SWAP2 PUSH1 0x4 DUP1 DUP4 ADD SWAP3 PUSH1 0x20 SWAP3 SWAP2 SWAP1 DUP3 SWAP1 SUB ADD DUP2 DUP7 GAS STATICCALL ISZERO DUP1 ISZERO PUSH2 0x462C JUMPI RETURNDATASIZE PUSH1 0x0 DUP1 RETURNDATACOPY RETURNDATASIZE PUSH1 0x0 REVERT JUMPDEST POP POP POP POP PUSH1 0x40 MLOAD RETURNDATASIZE PUSH1 0x1F NOT PUSH1 0x1F DUP3 ADD AND DUP3 ADD DUP1 PUSH1 0x40 MSTORE POP DUP2 ADD SWAP1 PUSH2 0x4650 SWAP2 SWAP1 PUSH2 0x54D8 JUMP JUMPDEST SWAP1 POP PUSH1 0x0 PUSH1 0xD7 PUSH1 0x0 SWAP1 SLOAD SWAP1 PUSH2 0x100 EXP SWAP1 DIV PUSH1 0x1 PUSH1 0x1 PUSH1 0xA0 SHL SUB AND PUSH1 0x1 PUSH1 0x1 PUSH1 0xA0 SHL SUB AND PUSH4 0x64FACDD5 PUSH1 0x40 MLOAD DUP2 PUSH4 0xFFFFFFFF AND PUSH1 0xE0 SHL DUP2 MSTORE PUSH1 0x4 ADD PUSH1 0x20 PUSH1 0x40 MLOAD DUP1 DUP4 SUB DUP2 DUP7 GAS STATICCALL ISZERO DUP1 ISZERO PUSH2 0x46A7 JUMPI RETURNDATASIZE PUSH1 0x0 DUP1 RETURNDATACOPY RETURNDATASIZE PUSH1 0x0 REVERT JUMPDEST POP POP POP POP PUSH1 0x40 MLOAD RETURNDATASIZE PUSH1 0x1F NOT PUSH1 0x1F DUP3 ADD AND DUP3 ADD DUP1 PUSH1 0x40 MSTORE POP DUP2 ADD SWAP1 PUSH2 0x46CB SWAP2 SWAP1 PUSH2 0x54D8 JUMP JUMPDEST SWAP1 POP PUSH1 0x0 DUP5 PUSH1 0x60 ADD MLOAD DUP6 PUSH1 0x0 ADD MLOAD PUSH2 0x46E3 SWAP2 SWAP1 PUSH2 0x56AC JUMP JUMPDEST SWAP1 POP PUSH1 0x0 PUSH2 0x46FE DUP6 PUSH1 0x40 ADD MLOAD DUP8 PUSH1 0x40 ADD MLOAD PUSH2 0x1B8D SWAP2 SWAP1 PUSH2 0x5565 JUMP JUMPDEST SWAP1 POP PUSH2 0x473E DUP3 DUP7 PUSH1 0x20 ADD MLOAD DUP9 PUSH1 0x20 ADD MLOAD PUSH2 0x4718 SWAP2 SWAP1 PUSH2 0x5565 JUMP JUMPDEST PUSH2 0x4722 SWAP1 DUP5 PUSH2 0x5565 JUMP JUMPDEST PUSH2 0x472C SWAP2 SWAP1 PUSH2 0x5524 JUMP JUMPDEST DUP8 MLOAD PUSH2 0x4738 SWAP1 DUP11 PUSH2 0x5524 JUMP JUMPDEST DUP7 PUSH2 0x3755 JUMP JUMPDEST PUSH2 0x475B JUMPI PUSH1 0x40 MLOAD PUSH4 0xED73742F PUSH1 0xE0 SHL DUP2 MSTORE PUSH1 0x4 ADD PUSH1 0x40 MLOAD DUP1 SWAP2 SUB SWAP1 REVERT JUMPDEST PUSH1 0x0 PUSH2 0x4774 DUP7 PUSH1 0xA0 ADD MLOAD DUP9 PUSH1 0xA0 ADD MLOAD PUSH2 0x1B8D SWAP2 SWAP1 PUSH2 0x5565 JUMP JUMPDEST SWAP1 POP PUSH2 0x47B7 DUP4 DUP8 PUSH1 0x80 ADD MLOAD DUP10 PUSH1 0x80 ADD MLOAD PUSH2 0x478E SWAP2 SWAP1 PUSH2 0x5565 JUMP JUMPDEST PUSH2 0x4798 SWAP1 DUP5 PUSH2 0x5565 JUMP JUMPDEST PUSH2 0x47A2 SWAP2 SWAP1 PUSH2 0x5524 JUMP JUMPDEST PUSH1 0x60 DUP10 ADD MLOAD PUSH2 0x47B1 SWAP1 DUP12 PUSH2 0x5524 JUMP JUMPDEST DUP8 PUSH2 0x3755 JUMP JUMPDEST PUSH2 0x47D4 JUMPI PUSH1 0x40 MLOAD PUSH4 0xED73742F PUSH1 0xE0 SHL DUP2 MSTORE PUSH1 0x4 ADD PUSH1 0x40 MLOAD DUP1 SWAP2 SUB SWAP1 REVERT JUMPDEST PUSH1 0x20 DUP8 ADD MLOAD DUP8 MLOAD PUSH1 0x0 SWAP2 PUSH2 0x47E7 SWAP2 PUSH2 0x56AC JUMP JUMPDEST SWAP1 POP PUSH1 0x0 DUP8 PUSH1 0x20 ADD MLOAD DUP9 PUSH1 0x0 ADD MLOAD PUSH2 0x47FF SWAP2 SWAP1 PUSH2 0x56AC JUMP JUMPDEST SWAP1 POP PUSH2 0x4829 DUP9 PUSH1 0x20 ADD MLOAD DUP4 PUSH2 0x4814 SWAP2 SWAP1 PUSH2 0x5524 JUMP JUMPDEST PUSH1 0x20 DUP12 ADD MLOAD PUSH2 0x4823 SWAP1 DUP5 PUSH2 0x5524 JUMP JUMPDEST DUP9 PUSH2 0x3755 JUMP JUMPDEST PUSH2 0x4846 JUMPI PUSH1 0x40 MLOAD PUSH4 0xB025D755 PUSH1 0xE0 SHL DUP2 MSTORE PUSH1 0x4 ADD PUSH1 0x40 MLOAD DUP1 SWAP2 SUB SWAP1 REVERT JUMPDEST PUSH1 0x0 DUP10 PUSH1 0x80 ADD MLOAD DUP11 PUSH1 0x60 ADD MLOAD PUSH2 0x485C SWAP2 SWAP1 PUSH2 0x56AC JUMP JUMPDEST SWAP1 POP PUSH1 0x0 DUP10 PUSH1 0x80 ADD MLOAD DUP11 PUSH1 0x60 ADD MLOAD PUSH2 0x4874 SWAP2 SWAP1 PUSH2 0x56AC JUMP JUMPDEST SWAP1 POP PUSH2 0x489E DUP11 PUSH1 0x80 ADD MLOAD DUP4 PUSH2 0x4889 SWAP2 SWAP1 PUSH2 0x5524 JUMP JUMPDEST PUSH1 0x80 DUP14 ADD MLOAD PUSH2 0x4898 SWAP1 DUP5 PUSH2 0x5524 JUMP JUMPDEST DUP11 PUSH2 0x3755 JUMP JUMPDEST PUSH2 0x48BB JUMPI PUSH1 0x40 MLOAD PUSH4 0xB025D755 PUSH1 0xE0 SHL DUP2 MSTORE PUSH1 0x4 ADD PUSH1 0x40 MLOAD DUP1 SWAP2 SUB SWAP1 REVERT JUMPDEST POP POP POP POP POP POP POP POP POP POP POP POP JUMP JUMPDEST PUSH1 0xD7 PUSH1 0x0 SWAP1 SLOAD SWAP1 PUSH2 0x100 EXP SWAP1 DIV PUSH1 0x1 PUSH1 0x1 PUSH1 0xA0 SHL SUB AND PUSH1 0x1 PUSH1 0x1 PUSH1 0xA0 SHL SUB AND PUSH4 0xEF3BAC5E PUSH1 0x40 MLOAD DUP2 PUSH4 0xFFFFFFFF AND PUSH1 0xE0 SHL DUP2 MSTORE PUSH1 0x4 ADD PUSH1 0x20 PUSH1 0x40 MLOAD DUP1 DUP4 SUB DUP2 DUP7 GAS STATICCALL ISZERO DUP1 ISZERO PUSH2 0x491C JUMPI RETURNDATASIZE PUSH1 0x0 DUP1 RETURNDATACOPY RETURNDATASIZE PUSH1 0x0 REVERT JUMPDEST POP POP POP POP PUSH1 0x40 MLOAD RETURNDATASIZE PUSH1 0x1F NOT PUSH1 0x1F DUP3 ADD AND DUP3 ADD DUP1 PUSH1 0x40 MSTORE POP DUP2 ADD SWAP1 PUSH2 0x4940 SWAP2 SWAP1 PUSH2 0x54F1 JUMP JUMPDEST PUSH1 0x1 PUSH1 0x1 PUSH1 0xA0 SHL SUB AND DUP3 PUSH1 0x1 PUSH1 0x1 PUSH1 0xA0 SHL SUB AND SUB PUSH2 0x4962 JUMPI PUSH2 0x26F7 DUP4 DUP3 PUSH2 0x4AB9 JUMP JUMPDEST PUSH2 0x26F7 PUSH1 0x1 PUSH1 0x1 PUSH1 0xA0 SHL SUB DUP4 AND DUP5 DUP4 PUSH2 0x2694 JUMP JUMPDEST PUSH1 0x60 PUSH2 0x31F8 DUP5 DUP5 PUSH1 0x0 DUP6 PUSH2 0x4B69 JUMP JUMPDEST DUP1 ISZERO DUP1 PUSH2 0x49FF JUMPI POP PUSH1 0x40 MLOAD PUSH4 0x6EB1769F PUSH1 0xE1 SHL DUP2 MSTORE ADDRESS PUSH1 0x4 DUP3 ADD MSTORE PUSH1 0x1 PUSH1 0x1 PUSH1 0xA0 SHL SUB DUP4 DUP2 AND PUSH1 0x24 DUP4 ADD MSTORE DUP5 AND SWAP1 PUSH4 0xDD62ED3E SWAP1 PUSH1 0x44 ADD PUSH1 0x20 PUSH1 0x40 MLOAD DUP1 DUP4 SUB DUP2 DUP7 GAS STATICCALL ISZERO DUP1 ISZERO PUSH2 0x49D9 JUMPI RETURNDATASIZE PUSH1 0x0 DUP1 RETURNDATACOPY RETURNDATASIZE PUSH1 0x0 REVERT JUMPDEST POP POP POP POP PUSH1 0x40 MLOAD RETURNDATASIZE PUSH1 0x1F NOT PUSH1 0x1F DUP3 ADD AND DUP3 ADD DUP1 PUSH1 0x40 MSTORE POP DUP2 ADD SWAP1 PUSH2 0x49FD SWAP2 SWAP1 PUSH2 0x54D8 JUMP JUMPDEST ISZERO JUMPDEST PUSH2 0x4A6A JUMPI PUSH1 0x40 MLOAD PUSH3 0x461BCD PUSH1 0xE5 SHL DUP2 MSTORE PUSH1 0x20 PUSH1 0x4 DUP3 ADD MSTORE PUSH1 0x36 PUSH1 0x24 DUP3 ADD MSTORE PUSH32 0x5361666545524332303A20617070726F76652066726F6D206E6F6E2D7A65726F PUSH1 0x44 DUP3 ADD MSTORE PUSH22 0x20746F206E6F6E2D7A65726F20616C6C6F77616E6365 PUSH1 0x50 SHL PUSH1 0x64 DUP3 ADD MSTORE PUSH1 0x84 ADD PUSH2 0x80A JUMP JUMPDEST PUSH1 0x40 MLOAD PUSH1 0x1 PUSH1 0x1 PUSH1 0xA0 SHL SUB DUP4 AND PUSH1 0x24 DUP3 ADD MSTORE PUSH1 0x44 DUP2 ADD DUP3 SWAP1 MSTORE PUSH2 0x26F7 SWAP1 DUP5 SWAP1 PUSH4 0x95EA7B3 PUSH1 0xE0 SHL SWAP1 PUSH1 0x64 ADD PUSH2 0x26C0 JUMP JUMPDEST DUP3 DUP3 MUL DUP2 ISZERO ISZERO DUP5 ISZERO DUP6 DUP4 DIV DUP6 EQ OR AND PUSH2 0x4AB2 JUMPI PUSH1 0x0 DUP1 REVERT JUMPDEST DIV SWAP3 SWAP2 POP POP JUMP JUMPDEST PUSH1 0x40 DUP1 MLOAD PUSH1 0x0 DUP1 DUP3 MSTORE PUSH1 0x20 DUP3 ADD SWAP1 SWAP3 MSTORE PUSH1 0x1 PUSH1 0x1 PUSH1 0xA0 SHL SUB DUP5 AND SWAP1 DUP4 SWAP1 PUSH1 0x40 MLOAD PUSH2 0x4AE3 SWAP2 SWAP1 PUSH2 0x5AA6 JUMP JUMPDEST PUSH1 0x0 PUSH1 0x40 MLOAD DUP1 DUP4 SUB DUP2 DUP6 DUP8 GAS CALL SWAP3 POP POP POP RETURNDATASIZE DUP1 PUSH1 0x0 DUP2 EQ PUSH2 0x4B20 JUMPI PUSH1 0x40 MLOAD SWAP2 POP PUSH1 0x1F NOT PUSH1 0x3F RETURNDATASIZE ADD AND DUP3 ADD PUSH1 0x40 MSTORE RETURNDATASIZE DUP3 MSTORE RETURNDATASIZE PUSH1 0x0 PUSH1 0x20 DUP5 ADD RETURNDATACOPY PUSH2 0x4B25 JUMP JUMPDEST PUSH1 0x60 SWAP2 POP JUMPDEST POP POP SWAP1 POP DUP1 PUSH2 0x26F7 JUMPI PUSH1 0x40 MLOAD PUSH3 0x461BCD PUSH1 0xE5 SHL DUP2 MSTORE PUSH1 0x20 PUSH1 0x4 DUP3 ADD MSTORE PUSH1 0x10 PUSH1 0x24 DUP3 ADD MSTORE PUSH16 0x42E6C2CCCAA8E4C2DCE6CCCAE48AA89 PUSH1 0x83 SHL PUSH1 0x44 DUP3 ADD MSTORE PUSH1 0x64 ADD PUSH2 0x80A JUMP JUMPDEST PUSH1 0x60 DUP3 SELFBALANCE LT ISZERO PUSH2 0x4BCA JUMPI PUSH1 0x40 MLOAD PUSH3 0x461BCD PUSH1 0xE5 SHL DUP2 MSTORE PUSH1 0x20 PUSH1 0x4 DUP3 ADD MSTORE PUSH1 0x26 PUSH1 0x24 DUP3 ADD MSTORE PUSH32 0x416464726573733A20696E73756666696369656E742062616C616E636520666F PUSH1 0x44 DUP3 ADD MSTORE PUSH6 0x1C8818D85B1B PUSH1 0xD2 SHL PUSH1 0x64 DUP3 ADD MSTORE PUSH1 0x84 ADD PUSH2 0x80A JUMP JUMPDEST PUSH1 0x1 PUSH1 0x1 PUSH1 0xA0 SHL SUB DUP6 AND EXTCODESIZE PUSH2 0x4C21 JUMPI PUSH1 0x40 MLOAD PUSH3 0x461BCD PUSH1 0xE5 SHL DUP2 MSTORE PUSH1 0x20 PUSH1 0x4 DUP3 ADD MSTORE PUSH1 0x1D PUSH1 0x24 DUP3 ADD MSTORE PUSH32 0x416464726573733A2063616C6C20746F206E6F6E2D636F6E7472616374000000 PUSH1 0x44 DUP3 ADD MSTORE PUSH1 0x64 ADD PUSH2 0x80A JUMP JUMPDEST PUSH1 0x0 DUP1 DUP7 PUSH1 0x1 PUSH1 0x1 PUSH1 0xA0 SHL SUB AND DUP6 DUP8 PUSH1 0x40 MLOAD PUSH2 0x4C3D SWAP2 SWAP1 PUSH2 0x5AA6 JUMP JUMPDEST PUSH1 0x0 PUSH1 0x40 MLOAD DUP1 DUP4 SUB DUP2 DUP6 DUP8 GAS CALL SWAP3 POP POP POP RETURNDATASIZE DUP1 PUSH1 0x0 DUP2 EQ PUSH2 0x4C7A JUMPI PUSH1 0x40 MLOAD SWAP2 POP PUSH1 0x1F NOT PUSH1 0x3F RETURNDATASIZE ADD AND DUP3 ADD PUSH1 0x40 MSTORE RETURNDATASIZE DUP3 MSTORE RETURNDATASIZE PUSH1 0x0 PUSH1 0x20 DUP5 ADD RETURNDATACOPY PUSH2 0x4C7F JUMP JUMPDEST PUSH1 0x60 SWAP2 POP JUMPDEST POP SWAP2 POP SWAP2 POP PUSH2 0x4C8F DUP3 DUP3 DUP7 PUSH2 0x4C9A JUMP JUMPDEST SWAP8 SWAP7 POP POP POP POP POP POP POP JUMP JUMPDEST PUSH1 0x60 DUP4 ISZERO PUSH2 0x4CA9 JUMPI POP DUP2 PUSH2 0x1055 JUMP JUMPDEST DUP3 MLOAD ISZERO PUSH2 0x4CB9 JUMPI DUP3 MLOAD DUP1 DUP5 PUSH1 0x20 ADD REVERT JUMPDEST DUP2 PUSH1 0x40 MLOAD PUSH3 0x461BCD PUSH1 0xE5 SHL DUP2 MSTORE PUSH1 0x4 ADD PUSH2 0x80A SWAP2 SWAP1 PUSH2 0x507F JUMP JUMPDEST DUP3 DUP1 SLOAD PUSH2 0x4CDF SWAP1 PUSH2 0x5672 JUMP JUMPDEST SWAP1 PUSH1 0x0 MSTORE PUSH1 0x20 PUSH1 0x0 KECCAK256 SWAP1 PUSH1 0x1F ADD PUSH1 0x20 SWAP1 DIV DUP2 ADD SWAP3 DUP3 PUSH2 0x4D01 JUMPI PUSH1 0x0 DUP6 SSTORE PUSH2 0x4D47 JUMP JUMPDEST DUP3 PUSH1 0x1F LT PUSH2 0x4D1A JUMPI DUP1 MLOAD PUSH1 0xFF NOT AND DUP4 DUP1 ADD OR DUP6 SSTORE PUSH2 0x4D47 JUMP JUMPDEST DUP3 DUP1 ADD PUSH1 0x1 ADD DUP6 SSTORE DUP3 ISZERO PUSH2 0x4D47 JUMPI SWAP2 DUP3 ADD JUMPDEST DUP3 DUP2 GT ISZERO PUSH2 0x4D47 JUMPI DUP3 MLOAD DUP3 SSTORE SWAP2 PUSH1 0x20 ADD SWAP2 SWAP1 PUSH1 0x1 ADD SWAP1 PUSH2 0x4D2C JUMP JUMPDEST POP PUSH2 0x4D53 SWAP3 SWAP2 POP PUSH2 0x4D57 JUMP JUMPDEST POP SWAP1 JUMP JUMPDEST JUMPDEST DUP1 DUP3 GT ISZERO PUSH2 0x4D53 JUMPI PUSH1 0x0 DUP2 SSTORE PUSH1 0x1 ADD PUSH2 0x4D58 JUMP JUMPDEST PUSH4 0x4E487B71 PUSH1 0xE0 SHL PUSH1 0x0 MSTORE PUSH1 0x41 PUSH1 0x4 MSTORE PUSH1 0x24 PUSH1 0x0 REVERT JUMPDEST PUSH1 0x40 MLOAD PUSH1 0x1F DUP3 ADD PUSH1 0x1F NOT AND DUP2 ADD PUSH1 0x1 PUSH1 0x1 PUSH1 0x40 SHL SUB DUP2 GT DUP3 DUP3 LT OR ISZERO PUSH2 0x4DAA JUMPI PUSH2 0x4DAA PUSH2 0x4D6C JUMP JUMPDEST PUSH1 0x40 MSTORE SWAP2 SWAP1 POP JUMP JUMPDEST PUSH1 0x0 PUSH1 0x1 PUSH1 0x1 PUSH1 0x40 SHL SUB DUP3 GT ISZERO PUSH2 0x4DCB JUMPI PUSH2 0x4DCB PUSH2 0x4D6C JUMP JUMPDEST POP PUSH1 0x5 SHL PUSH1 0x20 ADD SWAP1 JUMP JUMPDEST PUSH1 0xFF DUP2 AND DUP2 EQ PUSH2 0x1D57 JUMPI PUSH1 0x0 DUP1 REVERT JUMPDEST PUSH1 0x0 DUP3 PUSH1 0x1F DUP4 ADD SLT PUSH2 0x4DF5 JUMPI PUSH1 0x0 DUP1 REVERT JUMPDEST DUP2 CALLDATALOAD PUSH1 0x20 PUSH2 0x4E0A PUSH2 0x4E05 DUP4 PUSH2 0x4DB2 JUMP JUMPDEST PUSH2 0x4D82 JUMP JUMPDEST DUP3 DUP2 MSTORE PUSH1 0x5 SWAP3 SWAP1 SWAP3 SHL DUP5 ADD DUP2 ADD SWAP2 DUP2 DUP2 ADD SWAP1 DUP7 DUP5 GT ISZERO PUSH2 0x4E29 JUMPI PUSH1 0x0 DUP1 REVERT JUMPDEST DUP3 DUP7 ADD JUMPDEST DUP5 DUP2 LT ISZERO PUSH2 0x4E4D JUMPI DUP1 CALLDATALOAD PUSH2 0x4E40 DUP2 PUSH2 0x4DD5 JUMP JUMPDEST DUP4 MSTORE SWAP2 DUP4 ADD SWAP2 DUP4 ADD PUSH2 0x4E2D JUMP JUMPDEST POP SWAP7 SWAP6 POP POP POP POP POP POP JUMP JUMPDEST PUSH1 0x0 DUP3 PUSH1 0x1F DUP4 ADD SLT PUSH2 0x4E69 JUMPI PUSH1 0x0 DUP1 REVERT JUMPDEST DUP2 CALLDATALOAD PUSH1 0x20 PUSH2 0x4E79 PUSH2 0x4E05 DUP4 PUSH2 0x4DB2 JUMP JUMPDEST DUP3 DUP2 MSTORE PUSH1 0x5 SWAP3 SWAP1 SWAP3 SHL DUP5 ADD DUP2 ADD SWAP2 DUP2 DUP2 ADD SWAP1 DUP7 DUP5 GT ISZERO PUSH2 0x4E98 JUMPI PUSH1 0x0 DUP1 REVERT JUMPDEST DUP3 DUP7 ADD JUMPDEST DUP5 DUP2 LT ISZERO PUSH2 0x4E4D JUMPI DUP1 CALLDATALOAD DUP4 MSTORE SWAP2 DUP4 ADD SWAP2 DUP4 ADD PUSH2 0x4E9C JUMP JUMPDEST PUSH1 0x0 PUSH1 0x1 PUSH1 0x1 PUSH1 0x40 SHL SUB DUP3 GT ISZERO PUSH2 0x4ECC JUMPI PUSH2 0x4ECC PUSH2 0x4D6C JUMP JUMPDEST POP PUSH1 0x1F ADD PUSH1 0x1F NOT AND PUSH1 0x20 ADD SWAP1 JUMP JUMPDEST PUSH1 0x0 DUP3 PUSH1 0x1F DUP4 ADD SLT PUSH2 0x4EEB JUMPI PUSH1 0x0 DUP1 REVERT JUMPDEST DUP2 CALLDATALOAD PUSH1 0x20 PUSH2 0x4EFB PUSH2 0x4E05 DUP4 PUSH2 0x4DB2 JUMP JUMPDEST DUP3 DUP2 MSTORE PUSH1 0x5 SWAP3 SWAP1 SWAP3 SHL DUP5 ADD DUP2 ADD SWAP2 DUP2 DUP2 ADD SWAP1 DUP7 DUP5 GT ISZERO PUSH2 0x4F1A JUMPI PUSH1 0x0 DUP1 REVERT JUMPDEST DUP3 DUP7 ADD JUMPDEST DUP5 DUP2 LT ISZERO PUSH2 0x4E4D JUMPI DUP1 CALLDATALOAD PUSH1 0x1 PUSH1 0x1 PUSH1 0x40 SHL SUB DUP2 GT ISZERO PUSH2 0x4F3D JUMPI PUSH1 0x0 DUP1 DUP2 REVERT JUMPDEST DUP8 ADD PUSH1 0x3F DUP2 ADD DUP10 SGT PUSH2 0x4F4F JUMPI PUSH1 0x0 DUP1 DUP2 REVERT JUMPDEST DUP5 DUP2 ADD CALLDATALOAD PUSH1 0x40 PUSH2 0x4F61 PUSH2 0x4E05 DUP4 PUSH2 0x4EB3 JUMP JUMPDEST DUP3 DUP2 MSTORE DUP12 DUP3 DUP5 DUP7 ADD ADD GT ISZERO PUSH2 0x4F76 JUMPI PUSH1 0x0 DUP1 DUP2 REVERT JUMPDEST DUP3 DUP3 DUP6 ADD DUP10 DUP4 ADD CALLDATACOPY PUSH1 0x0 SWAP3 DUP2 ADD DUP9 ADD SWAP3 SWAP1 SWAP3 MSTORE POP DUP5 MSTORE POP SWAP2 DUP4 ADD SWAP2 DUP4 ADD PUSH2 0x4F1E JUMP JUMPDEST PUSH1 0x0 DUP1 PUSH1 0x0 DUP1 PUSH1 0x80 DUP6 DUP8 SUB SLT ISZERO PUSH2 0x4FAE JUMPI PUSH1 0x0 DUP1 REVERT JUMPDEST DUP5 CALLDATALOAD PUSH1 0x1 PUSH1 0x1 PUSH1 0x40 SHL SUB DUP1 DUP3 GT ISZERO PUSH2 0x4FC5 JUMPI PUSH1 0x0 DUP1 REVERT JUMPDEST PUSH2 0x4FD1 DUP9 DUP4 DUP10 ADD PUSH2 0x4DE4 JUMP JUMPDEST SWAP6 POP PUSH1 0x20 DUP8 ADD CALLDATALOAD SWAP2 POP DUP1 DUP3 GT ISZERO PUSH2 0x4FE7 JUMPI PUSH1 0x0 DUP1 REVERT JUMPDEST PUSH2 0x4FF3 DUP9 DUP4 DUP10 ADD PUSH2 0x4E58 JUMP JUMPDEST SWAP5 POP PUSH1 0x40 DUP8 ADD CALLDATALOAD SWAP2 POP DUP1 DUP3 GT ISZERO PUSH2 0x5009 JUMPI PUSH1 0x0 DUP1 REVERT JUMPDEST POP PUSH2 0x5016 DUP8 DUP3 DUP9 ADD PUSH2 0x4EDA JUMP JUMPDEST SWAP5 SWAP8 SWAP4 SWAP7 POP SWAP4 SWAP5 PUSH1 0x60 ADD CALLDATALOAD SWAP4 POP POP POP JUMP JUMPDEST PUSH1 0x0 JUMPDEST DUP4 DUP2 LT ISZERO PUSH2 0x5042 JUMPI DUP2 DUP2 ADD MLOAD DUP4 DUP3 ADD MSTORE PUSH1 0x20 ADD PUSH2 0x502A JUMP JUMPDEST DUP4 DUP2 GT ISZERO PUSH2 0x288A JUMPI POP POP PUSH1 0x0 SWAP2 ADD MSTORE JUMP JUMPDEST PUSH1 0x0 DUP2 MLOAD DUP1 DUP5 MSTORE PUSH2 0x506B DUP2 PUSH1 0x20 DUP7 ADD PUSH1 0x20 DUP7 ADD PUSH2 0x5027 JUMP JUMPDEST PUSH1 0x1F ADD PUSH1 0x1F NOT AND SWAP3 SWAP1 SWAP3 ADD PUSH1 0x20 ADD SWAP3 SWAP2 POP POP JUMP JUMPDEST PUSH1 0x20 DUP2 MSTORE PUSH1 0x0 PUSH2 0x1055 PUSH1 0x20 DUP4 ADD DUP5 PUSH2 0x5053 JUMP JUMPDEST PUSH1 0x1 PUSH1 0x1 PUSH1 0xA0 SHL SUB DUP2 AND DUP2 EQ PUSH2 0x1D57 JUMPI PUSH1 0x0 DUP1 REVERT JUMPDEST DUP1 CALLDATALOAD PUSH2 0x3609 DUP2 PUSH2 0x5092 JUMP JUMPDEST PUSH1 0x0 DUP1 PUSH1 0x40 DUP4 DUP6 SUB SLT ISZERO PUSH2 0x50C5 JUMPI PUSH1 0x0 DUP1 REVERT JUMPDEST DUP3 CALLDATALOAD PUSH2 0x50D0 DUP2 PUSH2 0x5092 JUMP JUMPDEST SWAP5 PUSH1 0x20 SWAP4 SWAP1 SWAP4 ADD CALLDATALOAD SWAP4 POP POP POP JUMP JUMPDEST PUSH1 0x0 DUP1 PUSH1 0x0 PUSH1 0x60 DUP5 DUP7 SUB SLT ISZERO PUSH2 0x50F3 JUMPI PUSH1 0x0 DUP1 REVERT JUMPDEST DUP4 CALLDATALOAD PUSH2 0x50FE DUP2 PUSH2 0x5092 JUMP JUMPDEST SWAP3 POP PUSH1 0x20 DUP5 ADD CALLDATALOAD PUSH2 0x510E DUP2 PUSH2 0x5092 JUMP JUMPDEST SWAP3 SWAP6 SWAP3 SWAP5 POP POP POP PUSH1 0x40 SWAP2 SWAP1 SWAP2 ADD CALLDATALOAD SWAP1 JUMP JUMPDEST PUSH1 0x0 DUP1 DUP4 PUSH1 0x1F DUP5 ADD SLT PUSH2 0x5131 JUMPI PUSH1 0x0 DUP1 REVERT JUMPDEST POP DUP2 CALLDATALOAD PUSH1 0x1 PUSH1 0x1 PUSH1 0x40 SHL SUB DUP2 GT ISZERO PUSH2 0x5148 JUMPI PUSH1 0x0 DUP1 REVERT JUMPDEST PUSH1 0x20 DUP4 ADD SWAP2 POP DUP4 PUSH1 0x20 DUP3 DUP6 ADD ADD GT ISZERO PUSH2 0x5160 JUMPI PUSH1 0x0 DUP1 REVERT JUMPDEST SWAP3 POP SWAP3 SWAP1 POP JUMP JUMPDEST PUSH1 0x0 DUP1 PUSH1 0x0 DUP1 PUSH1 0x0 DUP1 PUSH1 0xA0 DUP8 DUP10 SUB SLT ISZERO PUSH2 0x5180 JUMPI PUSH1 0x0 DUP1 REVERT JUMPDEST DUP7 CALLDATALOAD SWAP6 POP PUSH1 0x20 DUP8 ADD CALLDATALOAD SWAP5 POP PUSH1 0x40 DUP8 ADD CALLDATALOAD PUSH2 0x5199 DUP2 PUSH2 0x5092 JUMP JUMPDEST SWAP4 POP PUSH1 0x60 DUP8 ADD CALLDATALOAD SWAP3 POP PUSH1 0x80 DUP8 ADD CALLDATALOAD PUSH1 0x1 PUSH1 0x1 PUSH1 0x40 SHL SUB DUP2 GT ISZERO PUSH2 0x51BB JUMPI PUSH1 0x0 DUP1 REVERT JUMPDEST PUSH2 0x51C7 DUP10 DUP3 DUP11 ADD PUSH2 0x511F JUMP JUMPDEST SWAP8 SWAP11 SWAP7 SWAP10 POP SWAP5 SWAP8 POP SWAP3 SWAP6 SWAP4 SWAP5 SWAP3 POP POP POP JUMP JUMPDEST PUSH1 0x0 PUSH1 0x20 DUP3 DUP5 SUB SLT ISZERO PUSH2 0x51EB JUMPI PUSH1 0x0 DUP1 REVERT JUMPDEST POP CALLDATALOAD SWAP2 SWAP1 POP JUMP JUMPDEST PUSH1 0x0 PUSH1 0x20 DUP3 DUP5 SUB SLT ISZERO PUSH2 0x5204 JUMPI PUSH1 0x0 DUP1 REVERT JUMPDEST DUP2 CALLDATALOAD PUSH2 0x1055 DUP2 PUSH2 0x5092 JUMP JUMPDEST PUSH1 0x0 DUP1 PUSH1 0x0 DUP1 PUSH1 0x0 DUP1 PUSH1 0x0 DUP1 PUSH1 0x0 DUP1 PUSH1 0x0 DUP1 PUSH2 0x140 DUP14 DUP16 SUB SLT ISZERO PUSH2 0x5232 JUMPI PUSH1 0x0 DUP1 REVERT JUMPDEST PUSH1 0x1 PUSH1 0x1 PUSH1 0x40 SHL SUB DUP14 CALLDATALOAD GT ISZERO PUSH2 0x5247 JUMPI PUSH1 0x0 DUP1 REVERT JUMPDEST PUSH2 0x5254 DUP15 DUP15 CALLDATALOAD DUP16 ADD PUSH2 0x511F JUMP JUMPDEST SWAP1 SWAP13 POP SWAP11 POP PUSH1 0x1 PUSH1 0x1 PUSH1 0x40 SHL SUB PUSH1 0x20 DUP15 ADD CALLDATALOAD GT ISZERO PUSH2 0x5271 JUMPI PUSH1 0x0 DUP1 REVERT JUMPDEST PUSH2 0x5281 DUP15 PUSH1 0x20 DUP16 ADD CALLDATALOAD DUP16 ADD PUSH2 0x511F JUMP JUMPDEST SWAP1 SWAP11 POP SWAP9 POP PUSH2 0x5292 PUSH1 0x40 DUP15 ADD PUSH2 0x50A7 JUMP JUMPDEST SWAP8 POP PUSH2 0x52A0 PUSH1 0x60 DUP15 ADD PUSH2 0x50A7 JUMP JUMPDEST SWAP7 POP PUSH2 0x52AE PUSH1 0x80 DUP15 ADD PUSH2 0x50A7 JUMP JUMPDEST SWAP6 POP PUSH2 0x52BC PUSH1 0xA0 DUP15 ADD PUSH2 0x50A7 JUMP JUMPDEST SWAP5 POP PUSH2 0x52CA PUSH1 0xC0 DUP15 ADD PUSH2 0x50A7 JUMP JUMPDEST SWAP4 POP PUSH2 0x52D8 PUSH1 0xE0 DUP15 ADD PUSH2 0x50A7 JUMP JUMPDEST SWAP3 POP PUSH2 0x52E7 PUSH2 0x100 DUP15 ADD PUSH2 0x50A7 JUMP JUMPDEST SWAP2 POP PUSH2 0x52F6 PUSH2 0x120 DUP15 ADD PUSH2 0x50A7 JUMP JUMPDEST SWAP1 POP SWAP3 SWAP6 SWAP9 SWAP12 POP SWAP3 SWAP6 SWAP9 SWAP12 POP SWAP3 SWAP6 SWAP9 SWAP12 JUMP JUMPDEST PUSH1 0x0 DUP1 PUSH1 0x40 DUP4 DUP6 SUB SLT ISZERO PUSH2 0x531B JUMPI PUSH1 0x0 DUP1 REVERT JUMPDEST DUP3 CALLDATALOAD PUSH2 0x5326 DUP2 PUSH2 0x5092 JUMP JUMPDEST SWAP2 POP PUSH1 0x20 DUP4 ADD CALLDATALOAD PUSH2 0x5336 DUP2 PUSH2 0x5092 JUMP JUMPDEST DUP1 SWAP2 POP POP SWAP3 POP SWAP3 SWAP1 POP JUMP JUMPDEST PUSH1 0x0 DUP1 PUSH1 0x0 PUSH1 0x60 DUP5 DUP7 SUB SLT ISZERO PUSH2 0x5356 JUMPI PUSH1 0x0 DUP1 REVERT JUMPDEST DUP4 CALLDATALOAD PUSH1 0x1 PUSH1 0x1 PUSH1 0x40 SHL SUB DUP1 DUP3 GT ISZERO PUSH2 0x536D JUMPI PUSH1 0x0 DUP1 REVERT JUMPDEST PUSH2 0x5379 DUP8 DUP4 DUP9 ADD PUSH2 0x4DE4 JUMP JUMPDEST SWAP5 POP PUSH1 0x20 DUP7 ADD CALLDATALOAD SWAP2 POP DUP1 DUP3 GT ISZERO PUSH2 0x538F JUMPI PUSH1 0x0 DUP1 REVERT JUMPDEST PUSH2 0x539B DUP8 DUP4 DUP9 ADD PUSH2 0x4E58 JUMP JUMPDEST SWAP4 POP PUSH1 0x40 DUP7 ADD CALLDATALOAD SWAP2 POP DUP1 DUP3 GT ISZERO PUSH2 0x53B1 JUMPI PUSH1 0x0 DUP1 REVERT JUMPDEST POP PUSH2 0x53BE DUP7 DUP3 DUP8 ADD PUSH2 0x4EDA JUMP JUMPDEST SWAP2 POP POP SWAP3 POP SWAP3 POP SWAP3 JUMP JUMPDEST PUSH1 0x0 DUP1 PUSH1 0x0 DUP1 PUSH1 0x0 PUSH1 0x80 DUP7 DUP9 SUB SLT ISZERO PUSH2 0x53E0 JUMPI PUSH1 0x0 DUP1 REVERT JUMPDEST DUP6 CALLDATALOAD SWAP5 POP PUSH1 0x20 DUP7 ADD CALLDATALOAD SWAP4 POP PUSH1 0x40 DUP7 ADD CALLDATALOAD SWAP3 POP PUSH1 0x60 DUP7 ADD CALLDATALOAD PUSH1 0x1 PUSH1 0x1 PUSH1 0x40 SHL SUB DUP2 GT ISZERO PUSH2 0x540B JUMPI PUSH1 0x0 DUP1 REVERT JUMPDEST PUSH2 0x5417 DUP9 DUP3 DUP10 ADD PUSH2 0x511F JUMP JUMPDEST SWAP7 SWAP10 SWAP6 SWAP9 POP SWAP4 SWAP7 POP SWAP3 SWAP5 SWAP4 SWAP3 POP POP POP JUMP JUMPDEST PUSH1 0x0 PUSH1 0x20 DUP3 DUP5 SUB SLT ISZERO PUSH2 0x543A JUMPI PUSH1 0x0 DUP1 REVERT JUMPDEST DUP2 MLOAD DUP1 ISZERO ISZERO DUP2 EQ PUSH2 0x1055 JUMPI PUSH1 0x0 DUP1 REVERT JUMPDEST PUSH1 0x0 PUSH1 0x20 DUP1 DUP4 DUP6 SUB SLT ISZERO PUSH2 0x545D JUMPI PUSH1 0x0 DUP1 REVERT JUMPDEST DUP3 MLOAD PUSH1 0x1 PUSH1 0x1 PUSH1 0x40 SHL SUB DUP2 GT ISZERO PUSH2 0x5473 JUMPI PUSH1 0x0 DUP1 REVERT JUMPDEST DUP4 ADD PUSH1 0x1F DUP2 ADD DUP6 SGT PUSH2 0x5484 JUMPI PUSH1 0x0 DUP1 REVERT JUMPDEST DUP1 MLOAD PUSH2 0x5492 PUSH2 0x4E05 DUP3 PUSH2 0x4DB2 JUMP JUMPDEST DUP2 DUP2 MSTORE PUSH1 0x5 SWAP2 SWAP1 SWAP2 SHL DUP3 ADD DUP4 ADD SWAP1 DUP4 DUP2 ADD SWAP1 DUP8 DUP4 GT ISZERO PUSH2 0x54B1 JUMPI PUSH1 0x0 DUP1 REVERT JUMPDEST SWAP3 DUP5 ADD SWAP3 JUMPDEST DUP3 DUP5 LT ISZERO PUSH2 0x4C8F JUMPI DUP4 MLOAD PUSH2 0x54C9 DUP2 PUSH2 0x5092 JUMP JUMPDEST DUP3 MSTORE SWAP3 DUP5 ADD SWAP3 SWAP1 DUP5 ADD SWAP1 PUSH2 0x54B6 JUMP JUMPDEST PUSH1 0x0 PUSH1 0x20 DUP3 DUP5 SUB SLT ISZERO PUSH2 0x54EA JUMPI PUSH1 0x0 DUP1 REVERT JUMPDEST POP MLOAD SWAP2 SWAP1 POP JUMP JUMPDEST PUSH1 0x0 PUSH1 0x20 DUP3 DUP5 SUB SLT ISZERO PUSH2 0x5503 JUMPI PUSH1 0x0 DUP1 REVERT JUMPDEST DUP2 MLOAD PUSH2 0x1055 DUP2 PUSH2 0x5092 JUMP JUMPDEST PUSH4 0x4E487B71 PUSH1 0xE0 SHL PUSH1 0x0 MSTORE PUSH1 0x11 PUSH1 0x4 MSTORE PUSH1 0x24 PUSH1 0x0 REVERT JUMPDEST PUSH1 0x0 DUP2 PUSH1 0x0 NOT DIV DUP4 GT DUP3 ISZERO ISZERO AND ISZERO PUSH2 0x553E JUMPI PUSH2 0x553E PUSH2 0x550E JUMP JUMPDEST POP MUL SWAP1 JUMP JUMPDEST PUSH1 0x0 DUP3 PUSH2 0x5560 JUMPI PUSH4 0x4E487B71 PUSH1 0xE0 SHL PUSH1 0x0 MSTORE PUSH1 0x12 PUSH1 0x4 MSTORE PUSH1 0x24 PUSH1 0x0 REVERT JUMPDEST POP DIV SWAP1 JUMP JUMPDEST PUSH1 0x0 DUP3 DUP3 LT ISZERO PUSH2 0x5577 JUMPI PUSH2 0x5577 PUSH2 0x550E JUMP JUMPDEST POP SUB SWAP1 JUMP JUMPDEST PUSH1 0x0 PUSH1 0xA0 DUP3 ADD DUP8 DUP4 MSTORE PUSH1 0x20 DUP8 DUP2 DUP6 ADD MSTORE PUSH1 0xA0 PUSH1 0x40 DUP6 ADD MSTORE DUP2 DUP8 MLOAD DUP1 DUP5 MSTORE PUSH1 0xC0 DUP7 ADD SWAP2 POP DUP3 DUP10 ADD SWAP4 POP PUSH1 0x0 JUMPDEST DUP2 DUP2 LT ISZERO PUSH2 0x55CC JUMPI DUP5 MLOAD PUSH1 0x1 PUSH1 0x1 PUSH1 0xA0 SHL SUB AND DUP4 MSTORE SWAP4 DUP4 ADD SWAP4 SWAP2 DUP4 ADD SWAP2 PUSH1 0x1 ADD PUSH2 0x55A7 JUMP JUMPDEST POP POP PUSH1 0x1 PUSH1 0x1 PUSH1 0xA0 SHL SUB SWAP7 SWAP1 SWAP7 AND PUSH1 0x60 DUP6 ADD MSTORE POP POP POP PUSH1 0x80 ADD MSTORE SWAP4 SWAP3 POP POP POP JUMP JUMPDEST PUSH1 0x0 PUSH1 0x20 DUP1 DUP4 DUP6 SUB SLT ISZERO PUSH2 0x5600 JUMPI PUSH1 0x0 DUP1 REVERT JUMPDEST DUP3 MLOAD PUSH1 0x1 PUSH1 0x1 PUSH1 0x40 SHL SUB DUP2 GT ISZERO PUSH2 0x5616 JUMPI PUSH1 0x0 DUP1 REVERT JUMPDEST DUP4 ADD PUSH1 0x1F DUP2 ADD DUP6 SGT PUSH2 0x5627 JUMPI PUSH1 0x0 DUP1 REVERT JUMPDEST DUP1 MLOAD PUSH2 0x5635 PUSH2 0x4E05 DUP3 PUSH2 0x4DB2 JUMP JUMPDEST DUP2 DUP2 MSTORE PUSH1 0x5 SWAP2 SWAP1 SWAP2 SHL DUP3 ADD DUP4 ADD SWAP1 DUP4 DUP2 ADD SWAP1 DUP8 DUP4 GT ISZERO PUSH2 0x5654 JUMPI PUSH1 0x0 DUP1 REVERT JUMPDEST SWAP3 DUP5 ADD SWAP3 JUMPDEST DUP3 DUP5 LT ISZERO PUSH2 0x4C8F JUMPI DUP4 MLOAD DUP3 MSTORE SWAP3 DUP5 ADD SWAP3 SWAP1 DUP5 ADD SWAP1 PUSH2 0x5659 JUMP JUMPDEST PUSH1 0x1 DUP2 DUP2 SHR SWAP1 DUP3 AND DUP1 PUSH2 0x5686 JUMPI PUSH1 0x7F DUP3 AND SWAP2 POP JUMPDEST PUSH1 0x20 DUP3 LT DUP2 SUB PUSH2 0x56A6 JUMPI PUSH4 0x4E487B71 PUSH1 0xE0 SHL PUSH1 0x0 MSTORE PUSH1 0x22 PUSH1 0x4 MSTORE PUSH1 0x24 PUSH1 0x0 REVERT JUMPDEST POP SWAP2 SWAP1 POP JUMP JUMPDEST PUSH1 0x0 DUP3 NOT DUP3 GT ISZERO PUSH2 0x56BF JUMPI PUSH2 0x56BF PUSH2 0x550E JUMP JUMPDEST POP ADD SWAP1 JUMP JUMPDEST PUSH1 0x20 DUP1 DUP3 MSTORE DUP2 DUP2 ADD MSTORE PUSH32 0x4F776E61626C653A2063616C6C6572206973206E6F7420746865206F776E6572 PUSH1 0x40 DUP3 ADD MSTORE PUSH1 0x60 ADD SWAP1 JUMP JUMPDEST PUSH1 0x0 DUP1 PUSH1 0x40 DUP4 DUP6 SUB SLT ISZERO PUSH2 0x570C JUMPI PUSH1 0x0 DUP1 REVERT JUMPDEST POP POP DUP1 MLOAD PUSH1 0x20 SWAP1 SWAP2 ADD MLOAD SWAP1 SWAP3 SWAP1 SWAP2 POP JUMP JUMPDEST PUSH4 0x4E487B71 PUSH1 0xE0 SHL PUSH1 0x0 MSTORE PUSH1 0x32 PUSH1 0x4 MSTORE PUSH1 0x24 PUSH1 0x0 REVERT JUMPDEST PUSH1 0x0 PUSH1 0x1 DUP3 ADD PUSH2 0x5745 JUMPI PUSH2 0x5745 PUSH2 0x550E JUMP JUMPDEST POP PUSH1 0x1 ADD SWAP1 JUMP JUMPDEST PUSH1 0x0 DUP1 PUSH1 0x0 PUSH1 0x60 DUP5 DUP7 SUB SLT ISZERO PUSH2 0x5761 JUMPI PUSH1 0x0 DUP1 REVERT JUMPDEST DUP4 MLOAD PUSH2 0x576C DUP2 PUSH2 0x5092 JUMP JUMPDEST PUSH1 0x20 DUP6 ADD MLOAD SWAP1 SWAP4 POP PUSH2 0x577D DUP2 PUSH2 0x5092 JUMP JUMPDEST DUP1 SWAP3 POP POP PUSH1 0x40 DUP5 ADD MLOAD SWAP1 POP SWAP3 POP SWAP3 POP SWAP3 JUMP JUMPDEST PUSH1 0x20 DUP1 DUP3 MSTORE PUSH1 0x2E SWAP1 DUP3 ADD MSTORE PUSH32 0x496E697469616C697A61626C653A20636F6E747261637420697320616C726561 PUSH1 0x40 DUP3 ADD MSTORE PUSH14 0x191E481A5B9A5D1A585B1A5E9959 PUSH1 0x92 SHL PUSH1 0x60 DUP3 ADD MSTORE PUSH1 0x80 ADD SWAP1 JUMP JUMPDEST PUSH1 0x20 DUP1 DUP3 MSTORE PUSH1 0x2B SWAP1 DUP3 ADD MSTORE PUSH32 0x496E697469616C697A61626C653A20636F6E7472616374206973206E6F742069 PUSH1 0x40 DUP3 ADD MSTORE PUSH11 0x6E697469616C697A696E67 PUSH1 0xA8 SHL PUSH1 0x60 DUP3 ADD MSTORE PUSH1 0x80 ADD SWAP1 JUMP JUMPDEST PUSH1 0x0 PUSH1 0x20 DUP3 DUP5 SUB SLT ISZERO PUSH2 0x583A JUMPI PUSH1 0x0 DUP1 REVERT JUMPDEST DUP2 MLOAD PUSH2 0x1055 DUP2 PUSH2 0x4DD5 JUMP JUMPDEST PUSH1 0x1 DUP2 DUP2 JUMPDEST DUP1 DUP6 GT ISZERO PUSH2 0x5880 JUMPI DUP2 PUSH1 0x0 NOT DIV DUP3 GT ISZERO PUSH2 0x5866 JUMPI PUSH2 0x5866 PUSH2 0x550E JUMP JUMPDEST DUP1 DUP6 AND ISZERO PUSH2 0x5873 JUMPI SWAP2 DUP2 MUL SWAP2 JUMPDEST SWAP4 DUP5 SHR SWAP4 SWAP1 DUP1 MUL SWAP1 PUSH2 0x584A JUMP JUMPDEST POP SWAP3 POP SWAP3 SWAP1 POP JUMP JUMPDEST PUSH1 0x0 DUP3 PUSH2 0x5897 JUMPI POP PUSH1 0x1 PUSH2 0x1030 JUMP JUMPDEST DUP2 PUSH2 0x58A4 JUMPI POP PUSH1 0x0 PUSH2 0x1030 JUMP JUMPDEST DUP2 PUSH1 0x1 DUP2 EQ PUSH2 0x58BA JUMPI PUSH1 0x2 DUP2 EQ PUSH2 0x58C4 JUMPI PUSH2 0x58E0 JUMP JUMPDEST PUSH1 0x1 SWAP2 POP POP PUSH2 0x1030 JUMP JUMPDEST PUSH1 0xFF DUP5 GT ISZERO PUSH2 0x58D5 JUMPI PUSH2 0x58D5 PUSH2 0x550E JUMP JUMPDEST POP POP PUSH1 0x1 DUP3 SHL PUSH2 0x1030 JUMP JUMPDEST POP PUSH1 0x20 DUP4 LT PUSH2 0x133 DUP4 LT AND PUSH1 0x4E DUP5 LT PUSH1 0xB DUP5 LT AND OR ISZERO PUSH2 0x5903 JUMPI POP DUP2 DUP2 EXP PUSH2 0x1030 JUMP JUMPDEST PUSH2 0x590D DUP4 DUP4 PUSH2 0x5845 JUMP JUMPDEST DUP1 PUSH1 0x0 NOT DIV DUP3 GT ISZERO PUSH2 0x5921 JUMPI PUSH2 0x5921 PUSH2 0x550E JUMP JUMPDEST MUL SWAP4 SWAP3 POP POP POP JUMP JUMPDEST PUSH1 0x0 PUSH2 0x1055 DUP4 DUP4 PUSH2 0x5888 JUMP JUMPDEST PUSH1 0x1 PUSH1 0x1 PUSH1 0xA0 SHL SUB SWAP4 SWAP1 SWAP4 AND DUP4 MSTORE PUSH1 0x20 DUP4 ADD SWAP2 SWAP1 SWAP2 MSTORE PUSH1 0x40 DUP3 ADD MSTORE PUSH1 0x60 ADD SWAP1 JUMP JUMPDEST PUSH1 0x0 DUP1 PUSH1 0x0 DUP1 PUSH1 0x0 DUP1 PUSH1 0x0 PUSH1 0xE0 DUP9 DUP11 SUB SLT ISZERO PUSH2 0x5971 JUMPI PUSH1 0x0 DUP1 REVERT JUMPDEST DUP8 MLOAD PUSH2 0x597C DUP2 PUSH2 0x5092 JUMP JUMPDEST PUSH1 0x20 DUP10 ADD MLOAD PUSH1 0x40 DUP11 ADD MLOAD SWAP2 SWAP9 POP SWAP7 POP PUSH2 0x5994 DUP2 PUSH2 0x5092 JUMP JUMPDEST DUP1 SWAP6 POP POP PUSH1 0x60 DUP9 ADD MLOAD SWAP4 POP PUSH1 0x80 DUP9 ADD MLOAD SWAP3 POP PUSH1 0xA0 DUP9 ADD MLOAD SWAP2 POP PUSH1 0xC0 DUP9 ADD MLOAD PUSH1 0x1 PUSH1 0x1 PUSH1 0x40 SHL SUB DUP2 GT ISZERO PUSH2 0x59C6 JUMPI PUSH1 0x0 DUP1 REVERT JUMPDEST DUP9 ADD PUSH1 0x1F DUP2 ADD DUP11 SGT PUSH2 0x59D7 JUMPI PUSH1 0x0 DUP1 REVERT JUMPDEST DUP1 MLOAD PUSH2 0x59E5 PUSH2 0x4E05 DUP3 PUSH2 0x4EB3 JUMP JUMPDEST DUP2 DUP2 MSTORE DUP12 PUSH1 0x20 DUP4 DUP6 ADD ADD GT ISZERO PUSH2 0x59FA JUMPI PUSH1 0x0 DUP1 REVERT JUMPDEST PUSH2 0x5A0B DUP3 PUSH1 0x20 DUP4 ADD PUSH1 0x20 DUP7 ADD PUSH2 0x5027 JUMP JUMPDEST DUP1 SWAP4 POP POP POP POP SWAP3 SWAP6 SWAP9 SWAP2 SWAP5 SWAP8 POP SWAP3 SWAP6 POP JUMP JUMPDEST DUP7 DUP2 MSTORE PUSH1 0x1 DUP1 PUSH1 0xA0 SHL SUB DUP7 AND PUSH1 0x20 DUP3 ADD MSTORE DUP5 PUSH1 0x40 DUP3 ADD MSTORE DUP4 PUSH1 0x60 DUP3 ADD MSTORE DUP3 PUSH1 0x80 DUP3 ADD MSTORE PUSH1 0xC0 PUSH1 0xA0 DUP3 ADD MSTORE PUSH1 0x0 PUSH2 0x5A56 PUSH1 0xC0 DUP4 ADD DUP5 PUSH2 0x5053 JUMP JUMPDEST SWAP9 SWAP8 POP POP POP POP POP POP POP POP JUMP JUMPDEST PUSH1 0x0 PUSH1 0xFF DUP3 AND PUSH1 0xFF DUP5 AND DUP2 PUSH1 0xFF DIV DUP2 GT DUP3 ISZERO ISZERO AND ISZERO PUSH2 0x5921 JUMPI PUSH2 0x5921 PUSH2 0x550E JUMP JUMPDEST PUSH1 0x0 PUSH1 0xFF DUP3 AND PUSH1 0xFF DUP5 AND DUP1 DUP3 LT ISZERO PUSH2 0x5A9D JUMPI PUSH2 0x5A9D PUSH2 0x550E JUMP JUMPDEST SWAP1 SUB SWAP4 SWAP3 POP POP POP JUMP JUMPDEST PUSH1 0x0 DUP3 MLOAD PUSH2 0x5AB8 DUP2 DUP5 PUSH1 0x20 DUP8 ADD PUSH2 0x5027 JUMP JUMPDEST SWAP2 SWAP1 SWAP2 ADD SWAP3 SWAP2 POP POP JUMP INVALID LOG2 PUSH5 0x6970667358 0x22 SLT KECCAK256 0xEA ISZERO CODECOPY 0xE5 CALLDATALOAD 0xEF PUSH1 0xF3 PUSH11 0xB00C65201238EB6DA95128 DUP5 0xAD 0x4B 0xD7 0x29 0x5C SELFDESTRUCT 0xE6 0xBE DUP3 PUSH14 0x5964736F6C634300080D0033496E PUSH10 0x7469616C697A61626C65 GASPRICE KECCAK256 PUSH4 0x6F6E7472 PUSH2 0x6374 KECCAK256 PUSH10 0x7320616C726561000000 "
		},
		"gasEstimates": {
			"creation": {
				"codeDepositCost": "4657600",
				"executionCost": "infinite",
				"totalCost": "infinite"
			},
			"external": {
				"allowance(address,address)": "infinite",
				"alpacaToken()": "2404",
				"approve(address,uint256)": "24712",
				"assetTo18ConversionFactor()": "2341",
				"assetToken()": "2472",
				"assetVault()": "2403",
				"assetVaultPosId()": "2428",
				"assetVaultWorker()": "2426",
				"balanceOf(address)": "2598",
				"config()": "2470",
				"decimals()": "311",
				"decreaseAllowance(address,uint256)": "27055",
				"deposit(uint256,uint256,address,uint256,bytes)": "infinite",
				"increaseAllowance(address,uint256)": "27044",
				"initPositions(uint256,uint256,uint256,bytes)": "infinite",
				"initialize(string,string,address,address,address,address,address,address,address,address)": "infinite",
				"lastFeeCollected()": "2406",
				"name()": "infinite",
				"owner()": "2465",
				"pendingManagementFee()": "infinite",
				"positionInfo()": "infinite",
				"priceOracle()": "2427",
				"rebalance(uint8[],uint256[],bytes[])": "infinite",
				"reinvest(uint8[],uint256[],bytes[],uint256)": "infinite",
				"renounceOwnership()": "28206",
				"setDeltaNeutralOracle(address)": "infinite",
				"setDeltaNeutralVaultConfig(address)": "infinite",
				"shareToValue(uint256)": "infinite",
				"stableTo18ConversionFactor()": "2407",
				"stableToken()": "2382",
				"stableVault()": "2382",
				"stableVaultPosId()": "2407",
				"stableVaultWorker()": "2428",
				"symbol()": "infinite",
				"totalEquityValue()": "infinite",
				"totalSupply()": "2327",
				"transfer(address,uint256)": "51307",
				"transferFrom(address,address,uint256)": "infinite",
				"transferOwnership(address)": "infinite",
				"valueToShare(uint256)": "infinite",
				"withdraw(uint256,uint256,uint256,bytes)": "infinite"
			},
			"internal": {
				"_calculateEquityChange(struct DeltaNeutralVault02.PositionInfo memory,struct DeltaNeutralVault02.PositionInfo memory)": "infinite",
				"_checkAndMint(uint256,uint256,address,uint256,struct DeltaNeutralVault02.PositionInfo memory,struct DeltaNeutralVault02.Outstanding memory)": "infinite",
				"_checkAndTransfer(uint256,uint256,uint256,uint256,struct DeltaNeutralVault02.PositionInfo memory,struct DeltaNeutralVault02.Outstanding memory)": "infinite",
				"_depositHealthCheck(uint256,struct DeltaNeutralVault02.PositionInfo memory,struct DeltaNeutralVault02.PositionInfo memory)": "infinite",
				"_doWork(bytes memory)": "infinite",
				"_execute(uint8[] memory,uint256[] memory,bytes memory[] memory)": "infinite",
				"_getTokenPrice(address)": "infinite",
				"_lpToValue(uint256)": "infinite",
				"_mintFee()": "infinite",
				"_outstanding()": "infinite",
				"_outstandingCheck(struct DeltaNeutralVault02.Outstanding memory,struct DeltaNeutralVault02.Outstanding memory)": "infinite",
				"_positionDebtValue(address,uint256,uint256)": "infinite",
				"_to18ConversionFactor(address)": "infinite",
				"_transferTokenToShareOwner(address,address,uint256)": "infinite",
				"_transferTokenToVault(address,uint256)": "infinite",
				"_valueToShare(uint256,uint256)": "infinite",
				"_withdrawHealthCheck(uint256,struct DeltaNeutralVault02.PositionInfo memory,struct DeltaNeutralVault02.PositionInfo memory)": "infinite"
			}
		},
		"methodIdentifiers": {
			"allowance(address,address)": "dd62ed3e",
			"alpacaToken()": "bed65bae",
			"approve(address,uint256)": "095ea7b3",
			"assetTo18ConversionFactor()": "7a5948cf",
			"assetToken()": "1083f761",
			"assetVault()": "f61ebc36",
			"assetVaultPosId()": "eea7929f",
			"assetVaultWorker()": "d3890ee6",
			"balanceOf(address)": "70a08231",
			"config()": "79502c55",
			"decimals()": "313ce567",
			"decreaseAllowance(address,uint256)": "a457c2d7",
			"deposit(uint256,uint256,address,uint256,bytes)": "34cf3b21",
			"increaseAllowance(address,uint256)": "39509351",
			"initPositions(uint256,uint256,uint256,bytes)": "f9e7e7a9",
			"initialize(string,string,address,address,address,address,address,address,address,address)": "9a9a5b52",
			"lastFeeCollected()": "750290da",
			"name()": "06fdde03",
			"owner()": "8da5cb5b",
			"pendingManagementFee()": "818d8149",
			"positionInfo()": "7b05fe62",
			"priceOracle()": "2630c12f",
			"rebalance(uint8[],uint256[],bytes[])": "f97b7186",
			"reinvest(uint8[],uint256[],bytes[],uint256)": "039181a4",
			"renounceOwnership()": "715018a6",
			"setDeltaNeutralOracle(address)": "f76bdceb",
			"setDeltaNeutralVaultConfig(address)": "88bf176e",
			"shareToValue(uint256)": "441130d5",
			"stableTo18ConversionFactor()": "4aa187be",
			"stableToken()": "a9d75b2b",
			"stableVault()": "6f42f9c7",
			"stableVaultPosId()": "2dcdbd04",
			"stableVaultWorker()": "08660289",
			"symbol()": "95d89b41",
			"totalEquityValue()": "9adca65c",
			"totalSupply()": "18160ddd",
			"transfer(address,uint256)": "a9059cbb",
			"transferFrom(address,address,uint256)": "23b872dd",
			"transferOwnership(address)": "f2fde38b",
			"valueToShare(uint256)": "4b64fcd1",
			"withdraw(uint256,uint256,uint256,bytes)": "fe55892d"
		}
	},
	"abi": [
		{
			"inputs": [],
			"stateMutability": "nonpayable",
			"type": "constructor"
		},
		{
			"inputs": [],
			"name": "DeltaNeutralVault_BadActionSize",
			"type": "error"
		},
		{
			"inputs": [],
			"name": "DeltaNeutralVault_BadReinvestPath",
			"type": "error"
		},
		{
			"inputs": [],
			"name": "DeltaNeutralVault_ExceedCredit",
			"type": "error"
		},
		{
			"inputs": [],
			"name": "DeltaNeutralVault_IncorrectNativeAmountDeposit",
			"type": "error"
		},
		{
			"inputs": [
				{
					"internalType": "uint256",
					"name": "_requiredAmount",
					"type": "uint256"
				},
				{
					"internalType": "uint256",
					"name": "_receivedAmount",
					"type": "uint256"
				}
			],
			"name": "DeltaNeutralVault_InsufficientShareReceived",
			"type": "error"
		},
		{
			"inputs": [
				{
					"internalType": "address",
					"name": "_token",
					"type": "address"
				},
				{
					"internalType": "uint256",
					"name": "_requiredAmount",
					"type": "uint256"
				},
				{
					"internalType": "uint256",
					"name": "_receivedAmount",
					"type": "uint256"
				}
			],
			"name": "DeltaNeutralVault_InsufficientTokenReceived",
			"type": "error"
		},
		{
			"inputs": [],
			"name": "DeltaNeutralVault_InvalidInitializedAddress",
			"type": "error"
		},
		{
			"inputs": [],
			"name": "DeltaNeutralVault_InvalidLpToken",
			"type": "error"
		},
		{
			"inputs": [
				{
					"internalType": "address",
					"name": "_vault",
					"type": "address"
				},
				{
					"internalType": "uint256",
					"name": "_positionId",
					"type": "uint256"
				}
			],
			"name": "DeltaNeutralVault_InvalidPositions",
			"type": "error"
		},
		{
			"inputs": [],
			"name": "DeltaNeutralVault_InvalidShareAmount",
			"type": "error"
		},
		{
			"inputs": [],
			"name": "DeltaNeutralVault_PositionValueExceedLimit",
			"type": "error"
		},
		{
			"inputs": [],
			"name": "DeltaNeutralVault_PositionsAlreadyInitialized",
			"type": "error"
		},
		{
			"inputs": [],
			"name": "DeltaNeutralVault_PositionsIsHealthy",
			"type": "error"
		},
		{
			"inputs": [],
			"name": "DeltaNeutralVault_PositionsNotInitialized",
			"type": "error"
		},
		{
			"inputs": [],
			"name": "DeltaNeutralVault_UnTrustedPrice",
			"type": "error"
		},
		{
			"inputs": [
				{
					"internalType": "address",
					"name": "_caller",
					"type": "address"
				}
			],
			"name": "DeltaNeutralVault_Unauthorized",
			"type": "error"
		},
		{
			"inputs": [],
			"name": "DeltaNeutralVault_UnsafeDebtRatio",
			"type": "error"
		},
		{
			"inputs": [],
			"name": "DeltaNeutralVault_UnsafeDebtValue",
			"type": "error"
		},
		{
			"inputs": [
				{
					"internalType": "address",
					"name": "_token",
					"type": "address"
				},
				{
					"internalType": "uint256",
					"name": "_amountBefore",
					"type": "uint256"
				},
				{
					"internalType": "uint256",
					"name": "_amountAfter",
					"type": "uint256"
				}
			],
			"name": "DeltaNeutralVault_UnsafeOutstanding",
			"type": "error"
		},
		{
			"inputs": [],
			"name": "DeltaNeutralVault_UnsafePositionEquity",
			"type": "error"
		},
		{
			"inputs": [],
			"name": "DeltaNeutralVault_UnsafePositionValue",
			"type": "error"
		},
		{
			"inputs": [
				{
					"internalType": "uint256",
					"name": "_decimals",
					"type": "uint256"
				}
			],
			"name": "DeltaNeutralVault_UnsupportedDecimals",
			"type": "error"
		},
		{
			"inputs": [
				{
					"internalType": "uint256",
					"name": "_withdrawValue",
					"type": "uint256"
				},
				{
					"internalType": "uint256",
					"name": "_shareValue",
					"type": "uint256"
				}
			],
			"name": "DeltaNeutralVault_WithdrawValueExceedShareValue",
			"type": "error"
		},
		{
			"anonymous": false,
			"inputs": [
				{
					"indexed": true,
					"internalType": "address",
					"name": "owner",
					"type": "address"
				},
				{
					"indexed": true,
					"internalType": "address",
					"name": "spender",
					"type": "address"
				},
				{
					"indexed": false,
					"internalType": "uint256",
					"name": "value",
					"type": "uint256"
				}
			],
			"name": "Approval",
			"type": "event"
		},
		{
			"anonymous": false,
			"inputs": [
				{
					"indexed": false,
					"internalType": "uint8",
					"name": "version",
					"type": "uint8"
				}
			],
			"name": "Initialized",
			"type": "event"
		},
		{
			"anonymous": false,
			"inputs": [
				{
					"indexed": true,
					"internalType": "address",
					"name": "_from",
					"type": "address"
				},
				{
					"indexed": true,
					"internalType": "address",
					"name": "_shareReceiver",
					"type": "address"
				},
				{
					"indexed": false,
					"internalType": "uint256",
					"name": "_shares",
					"type": "uint256"
				},
				{
					"indexed": false,
					"internalType": "uint256",
					"name": "_stableTokenAmount",
					"type": "uint256"
				},
				{
					"indexed": false,
					"internalType": "uint256",
					"name": "_assetTokenAmount",
					"type": "uint256"
				}
			],
			"name": "LogDeposit",
			"type": "event"
		},
		{
			"anonymous": false,
			"inputs": [
				{
					"indexed": true,
					"internalType": "address",
					"name": "_from",
					"type": "address"
				},
				{
					"indexed": false,
					"internalType": "uint256",
					"name": "_stableVaultPosId",
					"type": "uint256"
				},
				{
					"indexed": false,
					"internalType": "uint256",
					"name": "_assetVaultPosId",
					"type": "uint256"
				}
			],
			"name": "LogInitializePositions",
			"type": "event"
		},
		{
			"anonymous": false,
			"inputs": [
				{
					"indexed": false,
					"internalType": "uint256",
					"name": "_equityBefore",
					"type": "uint256"
				},
				{
					"indexed": false,
					"internalType": "uint256",
					"name": "_equityAfter",
					"type": "uint256"
				}
			],
			"name": "LogRebalance",
			"type": "event"
		},
		{
			"anonymous": false,
			"inputs": [
				{
					"indexed": false,
					"internalType": "uint256",
					"name": "_equityBefore",
					"type": "uint256"
				},
				{
					"indexed": false,
					"internalType": "uint256",
					"name": "_equityAfter",
					"type": "uint256"
				}
			],
			"name": "LogReinvest",
			"type": "event"
		},
		{
			"anonymous": false,
			"inputs": [
				{
					"indexed": true,
					"internalType": "address",
					"name": "_caller",
					"type": "address"
				},
				{
					"indexed": false,
					"internalType": "address",
					"name": "_priceOracle",
					"type": "address"
				}
			],
			"name": "LogSetDeltaNeutralOracle",
			"type": "event"
		},
		{
			"anonymous": false,
			"inputs": [
				{
					"indexed": true,
					"internalType": "address",
					"name": "_caller",
					"type": "address"
				},
				{
					"indexed": false,
					"internalType": "address",
					"name": "_config",
					"type": "address"
				}
			],
			"name": "LogSetDeltaNeutralVaultConfig",
			"type": "event"
		},
		{
			"anonymous": false,
			"inputs": [
				{
					"indexed": true,
					"internalType": "address",
					"name": "_shareOwner",
					"type": "address"
				},
				{
					"indexed": false,
					"internalType": "uint256",
					"name": "_minStableTokenAmount",
					"type": "uint256"
				},
				{
					"indexed": false,
					"internalType": "uint256",
					"name": "_minAssetTokenAmount",
					"type": "uint256"
				}
			],
			"name": "LogWithdraw",
			"type": "event"
		},
		{
			"anonymous": false,
			"inputs": [
				{
					"indexed": true,
					"internalType": "address",
					"name": "previousOwner",
					"type": "address"
				},
				{
					"indexed": true,
					"internalType": "address",
					"name": "newOwner",
					"type": "address"
				}
			],
			"name": "OwnershipTransferred",
			"type": "event"
		},
		{
			"anonymous": false,
			"inputs": [
				{
					"indexed": true,
					"internalType": "address",
					"name": "from",
					"type": "address"
				},
				{
					"indexed": true,
					"internalType": "address",
					"name": "to",
					"type": "address"
				},
				{
					"indexed": false,
					"internalType": "uint256",
					"name": "value",
					"type": "uint256"
				}
			],
			"name": "Transfer",
			"type": "event"
		},
		{
			"inputs": [
				{
					"internalType": "address",
					"name": "owner",
					"type": "address"
				},
				{
					"internalType": "address",
					"name": "spender",
					"type": "address"
				}
			],
			"name": "allowance",
			"outputs": [
				{
					"internalType": "uint256",
					"name": "",
					"type": "uint256"
				}
			],
			"stateMutability": "view",
			"type": "function"
		},
		{
			"inputs": [],
			"name": "alpacaToken",
			"outputs": [
				{
					"internalType": "address",
					"name": "",
					"type": "address"
				}
			],
			"stateMutability": "view",
			"type": "function"
		},
		{
			"inputs": [
				{
					"internalType": "address",
					"name": "spender",
					"type": "address"
				},
				{
					"internalType": "uint256",
					"name": "amount",
					"type": "uint256"
				}
			],
			"name": "approve",
			"outputs": [
				{
					"internalType": "bool",
					"name": "",
					"type": "bool"
				}
			],
			"stateMutability": "nonpayable",
			"type": "function"
		},
		{
			"inputs": [],
			"name": "assetTo18ConversionFactor",
			"outputs": [
				{
					"internalType": "uint256",
					"name": "",
					"type": "uint256"
				}
			],
			"stateMutability": "view",
			"type": "function"
		},
		{
			"inputs": [],
			"name": "assetToken",
			"outputs": [
				{
					"internalType": "address",
					"name": "",
					"type": "address"
				}
			],
			"stateMutability": "view",
			"type": "function"
		},
		{
			"inputs": [],
			"name": "assetVault",
			"outputs": [
				{
					"internalType": "address",
					"name": "",
					"type": "address"
				}
			],
			"stateMutability": "view",
			"type": "function"
		},
		{
			"inputs": [],
			"name": "assetVaultPosId",
			"outputs": [
				{
					"internalType": "uint256",
					"name": "",
					"type": "uint256"
				}
			],
			"stateMutability": "view",
			"type": "function"
		},
		{
			"inputs": [],
			"name": "assetVaultWorker",
			"outputs": [
				{
					"internalType": "address",
					"name": "",
					"type": "address"
				}
			],
			"stateMutability": "view",
			"type": "function"
		},
		{
			"inputs": [
				{
					"internalType": "address",
					"name": "account",
					"type": "address"
				}
			],
			"name": "balanceOf",
			"outputs": [
				{
					"internalType": "uint256",
					"name": "",
					"type": "uint256"
				}
			],
			"stateMutability": "view",
			"type": "function"
		},
		{
			"inputs": [],
			"name": "config",
			"outputs": [
				{
					"internalType": "contract IDeltaNeutralVaultConfig02",
					"name": "",
					"type": "address"
				}
			],
			"stateMutability": "view",
			"type": "function"
		},
		{
			"inputs": [],
			"name": "decimals",
			"outputs": [
				{
					"internalType": "uint8",
					"name": "",
					"type": "uint8"
				}
			],
			"stateMutability": "view",
			"type": "function"
		},
		{
			"inputs": [
				{
					"internalType": "address",
					"name": "spender",
					"type": "address"
				},
				{
					"internalType": "uint256",
					"name": "subtractedValue",
					"type": "uint256"
				}
			],
			"name": "decreaseAllowance",
			"outputs": [
				{
					"internalType": "bool",
					"name": "",
					"type": "bool"
				}
			],
			"stateMutability": "nonpayable",
			"type": "function"
		},
		{
			"inputs": [
				{
					"internalType": "uint256",
					"name": "_stableTokenAmount",
					"type": "uint256"
				},
				{
					"internalType": "uint256",
					"name": "_assetTokenAmount",
					"type": "uint256"
				},
				{
					"internalType": "address",
					"name": "_shareReceiver",
					"type": "address"
				},
				{
					"internalType": "uint256",
					"name": "_minShareReceive",
					"type": "uint256"
				},
				{
					"internalType": "bytes",
					"name": "_data",
					"type": "bytes"
				}
			],
			"name": "deposit",
			"outputs": [
				{
					"internalType": "uint256",
					"name": "",
					"type": "uint256"
				}
			],
			"stateMutability": "payable",
			"type": "function"
		},
		{
			"inputs": [
				{
					"internalType": "address",
					"name": "spender",
					"type": "address"
				},
				{
					"internalType": "uint256",
					"name": "addedValue",
					"type": "uint256"
				}
			],
			"name": "increaseAllowance",
			"outputs": [
				{
					"internalType": "bool",
					"name": "",
					"type": "bool"
				}
			],
			"stateMutability": "nonpayable",
			"type": "function"
		},
		{
			"inputs": [
				{
					"internalType": "uint256",
					"name": "_stableTokenAmount",
					"type": "uint256"
				},
				{
					"internalType": "uint256",
					"name": "_assetTokenAmount",
					"type": "uint256"
				},
				{
					"internalType": "uint256",
					"name": "_minShareReceive",
					"type": "uint256"
				},
				{
					"internalType": "bytes",
					"name": "_data",
					"type": "bytes"
				}
			],
			"name": "initPositions",
			"outputs": [],
			"stateMutability": "payable",
			"type": "function"
		},
		{
			"inputs": [
				{
					"internalType": "string",
					"name": "_name",
					"type": "string"
				},
				{
					"internalType": "string",
					"name": "_symbol",
					"type": "string"
				},
				{
					"internalType": "address",
					"name": "_stableVault",
					"type": "address"
				},
				{
					"internalType": "address",
					"name": "_assetVault",
					"type": "address"
				},
				{
					"internalType": "address",
					"name": "_stableVaultWorker",
					"type": "address"
				},
				{
					"internalType": "address",
					"name": "_assetVaultWorker",
					"type": "address"
				},
				{
					"internalType": "address",
					"name": "_lpToken",
					"type": "address"
				},
				{
					"internalType": "address",
					"name": "_alpacaToken",
					"type": "address"
				},
				{
					"internalType": "contract IDeltaNeutralOracle",
					"name": "_priceOracle",
					"type": "address"
				},
				{
					"internalType": "contract IDeltaNeutralVaultConfig02",
					"name": "_config",
					"type": "address"
				}
			],
			"name": "initialize",
			"outputs": [],
			"stateMutability": "nonpayable",
			"type": "function"
		},
		{
			"inputs": [],
			"name": "lastFeeCollected",
			"outputs": [
				{
					"internalType": "uint256",
					"name": "",
					"type": "uint256"
				}
			],
			"stateMutability": "view",
			"type": "function"
		},
		{
			"inputs": [],
			"name": "name",
			"outputs": [
				{
					"internalType": "string",
					"name": "",
					"type": "string"
				}
			],
			"stateMutability": "view",
			"type": "function"
		},
		{
			"inputs": [],
			"name": "owner",
			"outputs": [
				{
					"internalType": "address",
					"name": "",
					"type": "address"
				}
			],
			"stateMutability": "view",
			"type": "function"
		},
		{
			"inputs": [],
			"name": "pendingManagementFee",
			"outputs": [
				{
					"internalType": "uint256",
					"name": "",
					"type": "uint256"
				}
			],
			"stateMutability": "view",
			"type": "function"
		},
		{
			"inputs": [],
			"name": "positionInfo",
			"outputs": [
				{
					"components": [
						{
							"internalType": "uint256",
							"name": "stablePositionEquity",
							"type": "uint256"
						},
						{
							"internalType": "uint256",
							"name": "stablePositionDebtValue",
							"type": "uint256"
						},
						{
							"internalType": "uint256",
							"name": "stableLpAmount",
							"type": "uint256"
						},
						{
							"internalType": "uint256",
							"name": "assetPositionEquity",
							"type": "uint256"
						},
						{
							"internalType": "uint256",
							"name": "assetPositionDebtValue",
							"type": "uint256"
						},
						{
							"internalType": "uint256",
							"name": "assetLpAmount",
							"type": "uint256"
						}
					],
					"internalType": "struct DeltaNeutralVault02.PositionInfo",
					"name": "",
					"type": "tuple"
				}
			],
			"stateMutability": "view",
			"type": "function"
		},
		{
			"inputs": [],
			"name": "priceOracle",
			"outputs": [
				{
					"internalType": "contract IDeltaNeutralOracle",
					"name": "",
					"type": "address"
				}
			],
			"stateMutability": "view",
			"type": "function"
		},
		{
			"inputs": [
				{
					"internalType": "uint8[]",
					"name": "_actions",
					"type": "uint8[]"
				},
				{
					"internalType": "uint256[]",
					"name": "_values",
					"type": "uint256[]"
				},
				{
					"internalType": "bytes[]",
					"name": "_datas",
					"type": "bytes[]"
				}
			],
			"name": "rebalance",
			"outputs": [],
			"stateMutability": "nonpayable",
			"type": "function"
		},
		{
			"inputs": [
				{
					"internalType": "uint8[]",
					"name": "_actions",
					"type": "uint8[]"
				},
				{
					"internalType": "uint256[]",
					"name": "_values",
					"type": "uint256[]"
				},
				{
					"internalType": "bytes[]",
					"name": "_datas",
					"type": "bytes[]"
				},
				{
					"internalType": "uint256",
					"name": "_minTokenReceive",
					"type": "uint256"
				}
			],
			"name": "reinvest",
			"outputs": [],
			"stateMutability": "nonpayable",
			"type": "function"
		},
		{
			"inputs": [],
			"name": "renounceOwnership",
			"outputs": [],
			"stateMutability": "nonpayable",
			"type": "function"
		},
		{
			"inputs": [
				{
					"internalType": "contract IDeltaNeutralOracle",
					"name": "_newPriceOracle",
					"type": "address"
				}
			],
			"name": "setDeltaNeutralOracle",
			"outputs": [],
			"stateMutability": "nonpayable",
			"type": "function"
		},
		{
			"inputs": [
				{
					"internalType": "contract IDeltaNeutralVaultConfig02",
					"name": "_newVaultConfig",
					"type": "address"
				}
			],
			"name": "setDeltaNeutralVaultConfig",
			"outputs": [],
			"stateMutability": "nonpayable",
			"type": "function"
		},
		{
			"inputs": [
				{
					"internalType": "uint256",
					"name": "_shareAmount",
					"type": "uint256"
				}
			],
			"name": "shareToValue",
			"outputs": [
				{
					"internalType": "uint256",
					"name": "",
					"type": "uint256"
				}
			],
			"stateMutability": "view",
			"type": "function"
		},
		{
			"inputs": [],
			"name": "stableTo18ConversionFactor",
			"outputs": [
				{
					"internalType": "uint256",
					"name": "",
					"type": "uint256"
				}
			],
			"stateMutability": "view",
			"type": "function"
		},
		{
			"inputs": [],
			"name": "stableToken",
			"outputs": [
				{
					"internalType": "address",
					"name": "",
					"type": "address"
				}
			],
			"stateMutability": "view",
			"type": "function"
		},
		{
			"inputs": [],
			"name": "stableVault",
			"outputs": [
				{
					"internalType": "address",
					"name": "",
					"type": "address"
				}
			],
			"stateMutability": "view",
			"type": "function"
		},
		{
			"inputs": [],
			"name": "stableVaultPosId",
			"outputs": [
				{
					"internalType": "uint256",
					"name": "",
					"type": "uint256"
				}
			],
			"stateMutability": "view",
			"type": "function"
		},
		{
			"inputs": [],
			"name": "stableVaultWorker",
			"outputs": [
				{
					"internalType": "address",
					"name": "",
					"type": "address"
				}
			],
			"stateMutability": "view",
			"type": "function"
		},
		{
			"inputs": [],
			"name": "symbol",
			"outputs": [
				{
					"internalType": "string",
					"name": "",
					"type": "string"
				}
			],
			"stateMutability": "view",
			"type": "function"
		},
		{
			"inputs": [],
			"name": "totalEquityValue",
			"outputs": [
				{
					"internalType": "uint256",
					"name": "",
					"type": "uint256"
				}
			],
			"stateMutability": "view",
			"type": "function"
		},
		{
			"inputs": [],
			"name": "totalSupply",
			"outputs": [
				{
					"internalType": "uint256",
					"name": "",
					"type": "uint256"
				}
			],
			"stateMutability": "view",
			"type": "function"
		},
		{
			"inputs": [
				{
					"internalType": "address",
					"name": "to",
					"type": "address"
				},
				{
					"internalType": "uint256",
					"name": "amount",
					"type": "uint256"
				}
			],
			"name": "transfer",
			"outputs": [
				{
					"internalType": "bool",
					"name": "",
					"type": "bool"
				}
			],
			"stateMutability": "nonpayable",
			"type": "function"
		},
		{
			"inputs": [
				{
					"internalType": "address",
					"name": "from",
					"type": "address"
				},
				{
					"internalType": "address",
					"name": "to",
					"type": "address"
				},
				{
					"internalType": "uint256",
					"name": "amount",
					"type": "uint256"
				}
			],
			"name": "transferFrom",
			"outputs": [
				{
					"internalType": "bool",
					"name": "",
					"type": "bool"
				}
			],
			"stateMutability": "nonpayable",
			"type": "function"
		},
		{
			"inputs": [
				{
					"internalType": "address",
					"name": "newOwner",
					"type": "address"
				}
			],
			"name": "transferOwnership",
			"outputs": [],
			"stateMutability": "nonpayable",
			"type": "function"
		},
		{
			"inputs": [
				{
					"internalType": "uint256",
					"name": "_value",
					"type": "uint256"
				}
			],
			"name": "valueToShare",
			"outputs": [
				{
					"internalType": "uint256",
					"name": "",
					"type": "uint256"
				}
			],
			"stateMutability": "view",
			"type": "function"
		},
		{
			"inputs": [
				{
					"internalType": "uint256",
					"name": "_shareAmount",
					"type": "uint256"
				},
				{
					"internalType": "uint256",
					"name": "_minStableTokenAmount",
					"type": "uint256"
				},
				{
					"internalType": "uint256",
					"name": "_minAssetTokenAmount",
					"type": "uint256"
				},
				{
					"internalType": "bytes",
					"name": "_data",
					"type": "bytes"
				}
			],
			"name": "withdraw",
			"outputs": [
				{
					"internalType": "uint256",
					"name": "",
					"type": "uint256"
				}
			],
			"stateMutability": "nonpayable",
			"type": "function"
		},
		{
			"stateMutability": "payable",
			"type": "receive"
		}
	]
}