{
	"data": {
		"bytecode": {
			"linkReferences": {},
			"object": "608060405234801561001057600080fd5b50610778806100206000396000f3fe608060405234801561001057600080fd5b506004361061009e5760003560e01c806394faab231161006657806394faab2314610113578063c0c53b8b14610126578063cab0d81614610139578063d0b373b31461014c578063f2fde38b1461015457600080fd5b80632c09bef7146100a357806334d29f05146100d257806363791e3c146100e5578063715018a6146100fa5780638da5cb5b14610102575b600080fd5b6068546100b6906001600160a01b031681565b6040516001600160a01b03909116815260200160405180910390f35b6065546100b6906001600160a01b031681565b6100f86100f33660046105ec565b610167565b005b6100f86101e6565b6033546001600160a01b03166100b6565b6067546100b6906001600160a01b031681565b6100f8610134366004610610565b61021c565b6066546100b6906001600160a01b031681565b6100f86102d1565b6100f86101623660046105ec565b610408565b6033546001600160a01b0316331461019a5760405162461bcd60e51b81526004016101919061065b565b60405180910390fd5b606880546001600160a01b0319166001600160a01b03831690811790915560405133907f73ac14f6c6f83ac21ceaedde9a348f537e8dcd3931f90b9cf101f14e534f735c90600090a350565b6033546001600160a01b031633146102105760405162461bcd60e51b81526004016101919061065b565b61021a60006104a3565b565b600061022860016104f5565b90508015610240576000805461ff0019166101001790555b61024861057d565b606580546001600160a01b038087166001600160a01b03199283161790925560668054868416908316179055606780549285169290911691909117905580156102cb576000805461ff0019169055604051600181527f7f26b83ff96e1f2b6a682f133852f6798a09c465da95921460cefb38474024989060200160405180910390a15b50505050565b6068546001600160a01b031633146102fc5760405163fe77f37f60e01b815260040160405180910390fd5b6066546067546040516341976e0960e01b81526001600160a01b03918216600482015260009291909116906341976e0990602401602060405180830381865afa15801561034d573d6000803e3d6000fd5b505050506040513d601f19601f820116820180604052508101906103719190610690565b6065546040516319b28d7560e31b8152600481018390529192506001600160a01b03169063cd946ba890602401600060405180830381600087803b1580156103b857600080fd5b505af11580156103cc573d6000803e3d6000fd5b50506040518381523392507f319b98be05fdbfe94f3cf2046d4cb3ab593056698700d2e808692638dc6ca4e6915060200160405180910390a250565b6033546001600160a01b031633146104325760405162461bcd60e51b81526004016101919061065b565b6001600160a01b0381166104975760405162461bcd60e51b815260206004820152602660248201527f4f776e61626c653a206e6577206f776e657220697320746865207a65726f206160448201526564647265737360d01b6064820152608401610191565b6104a0816104a3565b50565b603380546001600160a01b038381166001600160a01b0319831681179093556040519116919082907f8be0079c531659141344cd1fd0a4f28419497f9722a3daafe3b4186f6b6457e090600090a35050565b60008054610100900460ff161561053c578160ff1660011480156105185750303b155b6105345760405162461bcd60e51b8152600401610191906106a9565b506000919050565b60005460ff8084169116106105635760405162461bcd60e51b8152600401610191906106a9565b506000805460ff191660ff92909216919091179055600190565b600054610100900460ff166105a45760405162461bcd60e51b8152600401610191906106f7565b61021a600054610100900460ff166105ce5760405162461bcd60e51b8152600401610191906106f7565b61021a336104a3565b6001600160a01b03811681146104a057600080fd5b6000602082840312156105fe57600080fd5b8135610609816105d7565b9392505050565b60008060006060848603121561062557600080fd5b8335610630816105d7565b92506020840135610640816105d7565b91506040840135610650816105d7565b809150509250925092565b6020808252818101527f4f776e61626c653a2063616c6c6572206973206e6f7420746865206f776e6572604082015260600190565b6000602082840312156106a257600080fd5b5051919050565b6020808252602e908201527f496e697469616c697a61626c653a20636f6e747261637420697320616c72656160408201526d191e481a5b9a5d1a585b1a5e995960921b606082015260800190565b6020808252602b908201527f496e697469616c697a61626c653a20636f6e7472616374206973206e6f74206960408201526a6e697469616c697a696e6760a81b60608201526080019056fea2646970667358221220265a4a7fd4b99e159243b08e233817cae5eb549e35c63c850bd104f8c394a40664736f6c634300080d0033",
			"opcodes": "PUSH1 0x80 PUSH1 0x40 MSTORE CALLVALUE DUP1 ISZERO PUSH2 0x10 JUMPI PUSH1 0x0 DUP1 REVERT JUMPDEST POP PUSH2 0x778 DUP1 PUSH2 0x20 PUSH1 0x0 CODECOPY PUSH1 0x0 RETURN INVALID PUSH1 0x80 PUSH1 0x40 MSTORE CALLVALUE DUP1 ISZERO PUSH2 0x10 JUMPI PUSH1 0x0 DUP1 REVERT JUMPDEST POP PUSH1 0x4 CALLDATASIZE LT PUSH2 0x9E JUMPI PUSH1 0x0 CALLDATALOAD PUSH1 0xE0 SHR DUP1 PUSH4 0x94FAAB23 GT PUSH2 0x66 JUMPI DUP1 PUSH4 0x94FAAB23 EQ PUSH2 0x113 JUMPI DUP1 PUSH4 0xC0C53B8B EQ PUSH2 0x126 JUMPI DUP1 PUSH4 0xCAB0D816 EQ PUSH2 0x139 JUMPI DUP1 PUSH4 0xD0B373B3 EQ PUSH2 0x14C JUMPI DUP1 PUSH4 0xF2FDE38B EQ PUSH2 0x154 JUMPI PUSH1 0x0 DUP1 REVERT JUMPDEST DUP1 PUSH4 0x2C09BEF7 EQ PUSH2 0xA3 JUMPI DUP1 PUSH4 0x34D29F05 EQ PUSH2 0xD2 JUMPI DUP1 PUSH4 0x63791E3C EQ PUSH2 0xE5 JUMPI DUP1 PUSH4 0x715018A6 EQ PUSH2 0xFA JUMPI DUP1 PUSH4 0x8DA5CB5B EQ PUSH2 0x102 JUMPI JUMPDEST PUSH1 0x0 DUP1 REVERT JUMPDEST PUSH1 0x68 SLOAD PUSH2 0xB6 SWAP1 PUSH1 0x1 PUSH1 0x1 PUSH1 0xA0 SHL SUB AND DUP2 JUMP JUMPDEST PUSH1 0x40 MLOAD PUSH1 0x1 PUSH1 0x1 PUSH1 0xA0 SHL SUB SWAP1 SWAP2 AND DUP2 MSTORE PUSH1 0x20 ADD PUSH1 0x40 MLOAD DUP1 SWAP2 SUB SWAP1 RETURN JUMPDEST PUSH1 0x65 SLOAD PUSH2 0xB6 SWAP1 PUSH1 0x1 PUSH1 0x1 PUSH1 0xA0 SHL SUB AND DUP2 JUMP JUMPDEST PUSH2 0xF8 PUSH2 0xF3 CALLDATASIZE PUSH1 0x4 PUSH2 0x5EC JUMP JUMPDEST PUSH2 0x167 JUMP JUMPDEST STOP JUMPDEST PUSH2 0xF8 PUSH2 0x1E6 JUMP JUMPDEST PUSH1 0x33 SLOAD PUSH1 0x1 PUSH1 0x1 PUSH1 0xA0 SHL SUB AND PUSH2 0xB6 JUMP JUMPDEST PUSH1 0x67 SLOAD PUSH2 0xB6 SWAP1 PUSH1 0x1 PUSH1 0x1 PUSH1 0xA0 SHL SUB AND DUP2 JUMP JUMPDEST PUSH2 0xF8 PUSH2 0x134 CALLDATASIZE PUSH1 0x4 PUSH2 0x610 JUMP JUMPDEST PUSH2 0x21C JUMP JUMPDEST PUSH1 0x66 SLOAD PUSH2 0xB6 SWAP1 PUSH1 0x1 PUSH1 0x1 PUSH1 0xA0 SHL SUB AND DUP2 JUMP JUMPDEST PUSH2 0xF8 PUSH2 0x2D1 JUMP JUMPDEST PUSH2 0xF8 PUSH2 0x162 CALLDATASIZE PUSH1 0x4 PUSH2 0x5EC JUMP JUMPDEST PUSH2 0x408 JUMP JUMPDEST PUSH1 0x33 SLOAD PUSH1 0x1 PUSH1 0x1 PUSH1 0xA0 SHL SUB AND CALLER EQ PUSH2 0x19A JUMPI PUSH1 0x40 MLOAD PUSH3 0x461BCD PUSH1 0xE5 SHL DUP2 MSTORE PUSH1 0x4 ADD PUSH2 0x191 SWAP1 PUSH2 0x65B JUMP JUMPDEST PUSH1 0x40 MLOAD DUP1 SWAP2 SUB SWAP1 REVERT JUMPDEST PUSH1 0x68 DUP1 SLOAD PUSH1 0x1 PUSH1 0x1 PUSH1 0xA0 SHL SUB NOT AND PUSH1 0x1 PUSH1 0x1 PUSH1 0xA0 SHL SUB DUP4 AND SWAP1 DUP2 OR SWAP1 SWAP2 SSTORE PUSH1 0x40 MLOAD CALLER SWAP1 PUSH32 0x73AC14F6C6F83AC21CEAEDDE9A348F537E8DCD3931F90B9CF101F14E534F735C SWAP1 PUSH1 0x0 SWAP1 LOG3 POP JUMP JUMPDEST PUSH1 0x33 SLOAD PUSH1 0x1 PUSH1 0x1 PUSH1 0xA0 SHL SUB AND CALLER EQ PUSH2 0x210 JUMPI PUSH1 0x40 MLOAD PUSH3 0x461BCD PUSH1 0xE5 SHL DUP2 MSTORE PUSH1 0x4 ADD PUSH2 0x191 SWAP1 PUSH2 0x65B JUMP JUMPDEST PUSH2 0x21A PUSH1 0x0 PUSH2 0x4A3 JUMP JUMPDEST JUMP JUMPDEST PUSH1 0x0 PUSH2 0x228 PUSH1 0x1 PUSH2 0x4F5 JUMP JUMPDEST SWAP1 POP DUP1 ISZERO PUSH2 0x240 JUMPI PUSH1 0x0 DUP1 SLOAD PUSH2 0xFF00 NOT AND PUSH2 0x100 OR SWAP1 SSTORE JUMPDEST PUSH2 0x248 PUSH2 0x57D JUMP JUMPDEST PUSH1 0x65 DUP1 SLOAD PUSH1 0x1 PUSH1 0x1 PUSH1 0xA0 SHL SUB DUP1 DUP8 AND PUSH1 0x1 PUSH1 0x1 PUSH1 0xA0 SHL SUB NOT SWAP3 DUP4 AND OR SWAP1 SWAP3 SSTORE PUSH1 0x66 DUP1 SLOAD DUP7 DUP5 AND SWAP1 DUP4 AND OR SWAP1 SSTORE PUSH1 0x67 DUP1 SLOAD SWAP3 DUP6 AND SWAP3 SWAP1 SWAP2 AND SWAP2 SWAP1 SWAP2 OR SWAP1 SSTORE DUP1 ISZERO PUSH2 0x2CB JUMPI PUSH1 0x0 DUP1 SLOAD PUSH2 0xFF00 NOT AND SWAP1 SSTORE PUSH1 0x40 MLOAD PUSH1 0x1 DUP2 MSTORE PUSH32 0x7F26B83FF96E1F2B6A682F133852F6798A09C465DA95921460CEFB3847402498 SWAP1 PUSH1 0x20 ADD PUSH1 0x40 MLOAD DUP1 SWAP2 SUB SWAP1 LOG1 JUMPDEST POP POP POP POP JUMP JUMPDEST PUSH1 0x68 SLOAD PUSH1 0x1 PUSH1 0x1 PUSH1 0xA0 SHL SUB AND CALLER EQ PUSH2 0x2FC JUMPI PUSH1 0x40 MLOAD PUSH4 0xFE77F37F PUSH1 0xE0 SHL DUP2 MSTORE PUSH1 0x4 ADD PUSH1 0x40 MLOAD DUP1 SWAP2 SUB SWAP1 REVERT JUMPDEST PUSH1 0x66 SLOAD PUSH1 0x67 SLOAD PUSH1 0x40 MLOAD PUSH4 0x41976E09 PUSH1 0xE0 SHL DUP2 MSTORE PUSH1 0x1 PUSH1 0x1 PUSH1 0xA0 SHL SUB SWAP2 DUP3 AND PUSH1 0x4 DUP3 ADD MSTORE PUSH1 0x0 SWAP3 SWAP2 SWAP1 SWAP2 AND SWAP1 PUSH4 0x41976E09 SWAP1 PUSH1 0x24 ADD PUSH1 0x20 PUSH1 0x40 MLOAD DUP1 DUP4 SUB DUP2 DUP7 GAS STATICCALL ISZERO DUP1 ISZERO PUSH2 0x34D JUMPI RETURNDATASIZE PUSH1 0x0 DUP1 RETURNDATACOPY RETURNDATASIZE PUSH1 0x0 REVERT JUMPDEST POP POP POP POP PUSH1 0x40 MLOAD RETURNDATASIZE PUSH1 0x1F NOT PUSH1 0x1F DUP3 ADD AND DUP3 ADD DUP1 PUSH1 0x40 MSTORE POP DUP2 ADD SWAP1 PUSH2 0x371 SWAP2 SWAP1 PUSH2 0x690 JUMP JUMPDEST PUSH1 0x65 SLOAD PUSH1 0x40 MLOAD PUSH4 0x19B28D75 PUSH1 0xE3 SHL DUP2 MSTORE PUSH1 0x4 DUP2 ADD DUP4 SWAP1 MSTORE SWAP2 SWAP3 POP PUSH1 0x1 PUSH1 0x1 PUSH1 0xA0 SHL SUB AND SWAP1 PUSH4 0xCD946BA8 SWAP1 PUSH1 0x24 ADD PUSH1 0x0 PUSH1 0x40 MLOAD DUP1 DUP4 SUB DUP2 PUSH1 0x0 DUP8 DUP1 EXTCODESIZE ISZERO DUP1 ISZERO PUSH2 0x3B8 JUMPI PUSH1 0x0 DUP1 REVERT JUMPDEST POP GAS CALL ISZERO DUP1 ISZERO PUSH2 0x3CC JUMPI RETURNDATASIZE PUSH1 0x0 DUP1 RETURNDATACOPY RETURNDATASIZE PUSH1 0x0 REVERT JUMPDEST POP POP PUSH1 0x40 MLOAD DUP4 DUP2 MSTORE CALLER SWAP3 POP PUSH32 0x319B98BE05FDBFE94F3CF2046D4CB3AB593056698700D2E808692638DC6CA4E6 SWAP2 POP PUSH1 0x20 ADD PUSH1 0x40 MLOAD DUP1 SWAP2 SUB SWAP1 LOG2 POP JUMP JUMPDEST PUSH1 0x33 SLOAD PUSH1 0x1 PUSH1 0x1 PUSH1 0xA0 SHL SUB AND CALLER EQ PUSH2 0x432 JUMPI PUSH1 0x40 MLOAD PUSH3 0x461BCD PUSH1 0xE5 SHL DUP2 MSTORE PUSH1 0x4 ADD PUSH2 0x191 SWAP1 PUSH2 0x65B JUMP JUMPDEST PUSH1 0x1 PUSH1 0x1 PUSH1 0xA0 SHL SUB DUP2 AND PUSH2 0x497 JUMPI PUSH1 0x40 MLOAD PUSH3 0x461BCD PUSH1 0xE5 SHL DUP2 MSTORE PUSH1 0x20 PUSH1 0x4 DUP3 ADD MSTORE PUSH1 0x26 PUSH1 0x24 DUP3 ADD MSTORE PUSH32 0x4F776E61626C653A206E6577206F776E657220697320746865207A65726F2061 PUSH1 0x44 DUP3 ADD MSTORE PUSH6 0x646472657373 PUSH1 0xD0 SHL PUSH1 0x64 DUP3 ADD MSTORE PUSH1 0x84 ADD PUSH2 0x191 JUMP JUMPDEST PUSH2 0x4A0 DUP2 PUSH2 0x4A3 JUMP JUMPDEST POP JUMP JUMPDEST PUSH1 0x33 DUP1 SLOAD PUSH1 0x1 PUSH1 0x1 PUSH1 0xA0 SHL SUB DUP4 DUP2 AND PUSH1 0x1 PUSH1 0x1 PUSH1 0xA0 SHL SUB NOT DUP4 AND DUP2 OR SWAP1 SWAP4 SSTORE PUSH1 0x40 MLOAD SWAP2 AND SWAP2 SWAP1 DUP3 SWAP1 PUSH32 0x8BE0079C531659141344CD1FD0A4F28419497F9722A3DAAFE3B4186F6B6457E0 SWAP1 PUSH1 0x0 SWAP1 LOG3 POP POP JUMP JUMPDEST PUSH1 0x0 DUP1 SLOAD PUSH2 0x100 SWAP1 DIV PUSH1 0xFF AND ISZERO PUSH2 0x53C JUMPI DUP2 PUSH1 0xFF AND PUSH1 0x1 EQ DUP1 ISZERO PUSH2 0x518 JUMPI POP ADDRESS EXTCODESIZE ISZERO JUMPDEST PUSH2 0x534 JUMPI PUSH1 0x40 MLOAD PUSH3 0x461BCD PUSH1 0xE5 SHL DUP2 MSTORE PUSH1 0x4 ADD PUSH2 0x191 SWAP1 PUSH2 0x6A9 JUMP JUMPDEST POP PUSH1 0x0 SWAP2 SWAP1 POP JUMP JUMPDEST PUSH1 0x0 SLOAD PUSH1 0xFF DUP1 DUP5 AND SWAP2 AND LT PUSH2 0x563 JUMPI PUSH1 0x40 MLOAD PUSH3 0x461BCD PUSH1 0xE5 SHL DUP2 MSTORE PUSH1 0x4 ADD PUSH2 0x191 SWAP1 PUSH2 0x6A9 JUMP JUMPDEST POP PUSH1 0x0 DUP1 SLOAD PUSH1 0xFF NOT AND PUSH1 0xFF SWAP3 SWAP1 SWAP3 AND SWAP2 SWAP1 SWAP2 OR SWAP1 SSTORE PUSH1 0x1 SWAP1 JUMP JUMPDEST PUSH1 0x0 SLOAD PUSH2 0x100 SWAP1 DIV PUSH1 0xFF AND PUSH2 0x5A4 JUMPI PUSH1 0x40 MLOAD PUSH3 0x461BCD PUSH1 0xE5 SHL DUP2 MSTORE PUSH1 0x4 ADD PUSH2 0x191 SWAP1 PUSH2 0x6F7 JUMP JUMPDEST PUSH2 0x21A PUSH1 0x0 SLOAD PUSH2 0x100 SWAP1 DIV PUSH1 0xFF AND PUSH2 0x5CE JUMPI PUSH1 0x40 MLOAD PUSH3 0x461BCD PUSH1 0xE5 SHL DUP2 MSTORE PUSH1 0x4 ADD PUSH2 0x191 SWAP1 PUSH2 0x6F7 JUMP JUMPDEST PUSH2 0x21A CALLER PUSH2 0x4A3 JUMP JUMPDEST PUSH1 0x1 PUSH1 0x1 PUSH1 0xA0 SHL SUB DUP2 AND DUP2 EQ PUSH2 0x4A0 JUMPI PUSH1 0x0 DUP1 REVERT JUMPDEST PUSH1 0x0 PUSH1 0x20 DUP3 DUP5 SUB SLT ISZERO PUSH2 0x5FE JUMPI PUSH1 0x0 DUP1 REVERT JUMPDEST DUP2 CALLDATALOAD PUSH2 0x609 DUP2 PUSH2 0x5D7 JUMP JUMPDEST SWAP4 SWAP3 POP POP POP JUMP JUMPDEST PUSH1 0x0 DUP1 PUSH1 0x0 PUSH1 0x60 DUP5 DUP7 SUB SLT ISZERO PUSH2 0x625 JUMPI PUSH1 0x0 DUP1 REVERT JUMPDEST DUP4 CALLDATALOAD PUSH2 0x630 DUP2 PUSH2 0x5D7 JUMP JUMPDEST SWAP3 POP PUSH1 0x20 DUP5 ADD CALLDATALOAD PUSH2 0x640 DUP2 PUSH2 0x5D7 JUMP JUMPDEST SWAP2 POP PUSH1 0x40 DUP5 ADD CALLDATALOAD PUSH2 0x650 DUP2 PUSH2 0x5D7 JUMP JUMPDEST DUP1 SWAP2 POP POP SWAP3 POP SWAP3 POP SWAP3 JUMP JUMPDEST PUSH1 0x20 DUP1 DUP3 MSTORE DUP2 DUP2 ADD MSTORE PUSH32 0x4F776E61626C653A2063616C6C6572206973206E6F7420746865206F776E6572 PUSH1 0x40 DUP3 ADD MSTORE PUSH1 0x60 ADD SWAP1 JUMP JUMPDEST PUSH1 0x0 PUSH1 0x20 DUP3 DUP5 SUB SLT ISZERO PUSH2 0x6A2 JUMPI PUSH1 0x0 DUP1 REVERT JUMPDEST POP MLOAD SWAP2 SWAP1 POP JUMP JUMPDEST PUSH1 0x20 DUP1 DUP3 MSTORE PUSH1 0x2E SWAP1 DUP3 ADD MSTORE PUSH32 0x496E697469616C697A61626C653A20636F6E747261637420697320616C726561 PUSH1 0x40 DUP3 ADD MSTORE PUSH14 0x191E481A5B9A5D1A585B1A5E9959 PUSH1 0x92 SHL PUSH1 0x60 DUP3 ADD MSTORE PUSH1 0x80 ADD SWAP1 JUMP JUMPDEST PUSH1 0x20 DUP1 DUP3 MSTORE PUSH1 0x2B SWAP1 DUP3 ADD MSTORE PUSH32 0x496E697469616C697A61626C653A20636F6E7472616374206973206E6F742069 PUSH1 0x40 DUP3 ADD MSTORE PUSH11 0x6E697469616C697A696E67 PUSH1 0xA8 SHL PUSH1 0x60 DUP3 ADD MSTORE PUSH1 0x80 ADD SWAP1 JUMP INVALID LOG2 PUSH5 0x6970667358 0x22 SLT KECCAK256 0x26 GAS 0x4A PUSH32 0xD4B99E159243B08E233817CAE5EB549E35C63C850BD104F8C394A40664736F6C PUSH4 0x4300080D STOP CALLER "
		},
		"gasEstimates": {
			"creation": {
				"codeDepositCost": "382400",
				"executionCost": "418",
				"totalCost": "382818"
			},
			"external": {
				"TWAPOracle()": "2369",
				"alpaca()": "2325",
				"initialize(address,address,address)": "infinite",
				"owner()": "2408",
				"priceSetter()": "2326",
				"renounceOwnership()": "28184",
				"setPriceSetter(address)": "28269",
				"setValueFromTWAP()": "infinite",
				"transferOwnership(address)": "infinite",
				"xALPACACreditor()": "2348"
			}
		},
		"methodIdentifiers": {
			"TWAPOracle()": "cab0d816",
			"alpaca()": "94faab23",
			"initialize(address,address,address)": "c0c53b8b",
			"owner()": "8da5cb5b",
			"priceSetter()": "2c09bef7",
			"renounceOwnership()": "715018a6",
			"setPriceSetter(address)": "63791e3c",
			"setValueFromTWAP()": "d0b373b3",
			"transferOwnership(address)": "f2fde38b",
			"xALPACACreditor()": "34d29f05"
		}
	},
	"abi": [
		{
			"inputs": [],
			"name": "xALPACAPriceSetter_Unauthorize",
			"type": "error"
		},
		{
			"anonymous": false,
			"inputs": [
				{
					"indexed": false,
					"internalType": "uint8",
					"name": "version",
					"type": "uint8"
				}
			],
			"name": "Initialized",
			"type": "event"
		},
		{
			"anonymous": false,
			"inputs": [
				{
					"indexed": true,
					"internalType": "address",
					"name": "_caller",
					"type": "address"
				},
				{
					"indexed": true,
					"internalType": "address",
					"name": "_priceSetter",
					"type": "address"
				}
			],
			"name": "LogSetPriceSetter",
			"type": "event"
		},
		{
			"anonymous": false,
			"inputs": [
				{
					"indexed": true,
					"internalType": "address",
					"name": "_caller",
					"type": "address"
				},
				{
					"indexed": false,
					"internalType": "uint256",
					"name": "_xALPACAValue",
					"type": "uint256"
				}
			],
			"name": "LogSetValueFromTWAP",
			"type": "event"
		},
		{
			"anonymous": false,
			"inputs": [
				{
					"indexed": true,
					"internalType": "address",
					"name": "previousOwner",
					"type": "address"
				},
				{
					"indexed": true,
					"internalType": "address",
					"name": "newOwner",
					"type": "address"
				}
			],
			"name": "OwnershipTransferred",
			"type": "event"
		},
		{
			"inputs": [],
			"name": "TWAPOracle",
			"outputs": [
				{
					"internalType": "contract ITWAPOracle",
					"name": "",
					"type": "address"
				}
			],
			"stateMutability": "view",
			"type": "function"
		},
		{
			"inputs": [],
			"name": "alpaca",
			"outputs": [
				{
					"internalType": "address",
					"name": "",
					"type": "address"
				}
			],
			"stateMutability": "view",
			"type": "function"
		},
		{
			"inputs": [
				{
					"internalType": "contract IxALPACACreditor",
					"name": "_xALPACACreditor",
					"type": "address"
				},
				{
					"internalType": "contract ITWAPOracle",
					"name": "_TWAPOracle",
					"type": "address"
				},
				{
					"internalType": "address",
					"name": "_alpaca",
					"type": "address"
				}
			],
			"name": "initialize",
			"outputs": [],
			"stateMutability": "nonpayable",
			"type": "function"
		},
		{
			"inputs": [],
			"name": "owner",
			"outputs": [
				{
					"internalType": "address",
					"name": "",
					"type": "address"
				}
			],
			"stateMutability": "view",
			"type": "function"
		},
		{
			"inputs": [],
			"name": "priceSetter",
			"outputs": [
				{
					"internalType": "address",
					"name": "",
					"type": "address"
				}
			],
			"stateMutability": "view",
			"type": "function"
		},
		{
			"inputs": [],
			"name": "renounceOwnership",
			"outputs": [],
			"stateMutability": "nonpayable",
			"type": "function"
		},
		{
			"inputs": [
				{
					"internalType": "address",
					"name": "_priceSetter",
					"type": "address"
				}
			],
			"name": "setPriceSetter",
			"outputs": [],
			"stateMutability": "nonpayable",
			"type": "function"
		},
		{
			"inputs": [],
			"name": "setValueFromTWAP",
			"outputs": [],
			"stateMutability": "nonpayable",
			"type": "function"
		},
		{
			"inputs": [
				{
					"internalType": "address",
					"name": "newOwner",
					"type": "address"
				}
			],
			"name": "transferOwnership",
			"outputs": [],
			"stateMutability": "nonpayable",
			"type": "function"
		},
		{
			"inputs": [],
			"name": "xALPACACreditor",
			"outputs": [
				{
					"internalType": "contract IxALPACACreditor",
					"name": "",
					"type": "address"
				}
			],
			"stateMutability": "view",
			"type": "function"
		}
	]
}