{
  "address": "0x818f926Ee15aC6c1745C09B59BdB192212581A9F",
  "abi": [
    {
      "inputs": [],
      "stateMutability": "nonpayable",
      "type": "constructor"
    },
    {
      "anonymous": false,
      "inputs": [
        {
          "indexed": false,
          "internalType": "uint8",
          "name": "version",
          "type": "uint8"
        }
      ],
      "name": "Initialized",
      "type": "event"
    },
    {
      "anonymous": false,
      "inputs": [
        {
          "indexed": true,
          "internalType": "address",
          "name": "_caller",
          "type": "address"
        },
        {
          "indexed": false,
          "internalType": "contract ICreditor[]",
          "name": "_creditors",
          "type": "address[]"
        }
      ],
      "name": "LogSetCreditors",
      "type": "event"
    },
    {
      "anonymous": false,
      "inputs": [
        {
          "indexed": true,
          "internalType": "address",
          "name": "_caller",
          "type": "address"
        },
        {
          "indexed": false,
          "internalType": "contract IDeltaNeutralVault[]",
          "name": "_vaults",
          "type": "address[]"
        }
      ],
      "name": "LogSetPrivateVaults",
      "type": "event"
    },
    {
      "anonymous": false,
      "inputs": [
        {
          "indexed": true,
          "internalType": "address",
          "name": "previousOwner",
          "type": "address"
        },
        {
          "indexed": true,
          "internalType": "address",
          "name": "newOwner",
          "type": "address"
        }
      ],
      "name": "OwnershipTransferred",
      "type": "event"
    },
    {
      "inputs": [
        {
          "internalType": "address",
          "name": "_user",
          "type": "address"
        }
      ],
      "name": "availableCredit",
      "outputs": [
        {
          "internalType": "uint256",
          "name": "",
          "type": "uint256"
        }
      ],
      "stateMutability": "view",
      "type": "function"
    },
    {
      "inputs": [
        {
          "internalType": "uint256",
          "name": "",
          "type": "uint256"
        }
      ],
      "name": "creditors",
      "outputs": [
        {
          "internalType": "contract ICreditor",
          "name": "",
          "type": "address"
        }
      ],
      "stateMutability": "view",
      "type": "function"
    },
    {
      "inputs": [
        {
          "internalType": "address",
          "name": "_user",
          "type": "address"
        },
        {
          "internalType": "address",
          "name": "_vault",
          "type": "address"
        }
      ],
      "name": "getUserVaultShares",
      "outputs": [
        {
          "internalType": "uint256",
          "name": "",
          "type": "uint256"
        }
      ],
      "stateMutability": "view",
      "type": "function"
    },
    {
      "inputs": [
        {
          "internalType": "contract ICreditor[]",
          "name": "_creditors",
          "type": "address[]"
        },
        {
          "internalType": "contract IDeltaNeutralVault[]",
          "name": "_privateVaults",
          "type": "address[]"
        }
      ],
      "name": "initialize",
      "outputs": [],
      "stateMutability": "nonpayable",
      "type": "function"
    },
    {
      "inputs": [
        {
          "internalType": "address",
          "name": "_user",
          "type": "address"
        },
        {
          "internalType": "uint256",
          "name": "_shareAmount",
          "type": "uint256"
        }
      ],
      "name": "onDeposit",
      "outputs": [],
      "stateMutability": "nonpayable",
      "type": "function"
    },
    {
      "inputs": [
        {
          "internalType": "address",
          "name": "_user",
          "type": "address"
        },
        {
          "internalType": "uint256",
          "name": "_shareAmount",
          "type": "uint256"
        }
      ],
      "name": "onWithdraw",
      "outputs": [],
      "stateMutability": "nonpayable",
      "type": "function"
    },
    {
      "inputs": [],
      "name": "owner",
      "outputs": [
        {
          "internalType": "address",
          "name": "",
          "type": "address"
        }
      ],
      "stateMutability": "view",
      "type": "function"
    },
    {
      "inputs": [
        {
          "internalType": "uint256",
          "name": "",
          "type": "uint256"
        }
      ],
      "name": "privateVaults",
      "outputs": [
        {
          "internalType": "contract IDeltaNeutralVault",
          "name": "",
          "type": "address"
        }
      ],
      "stateMutability": "view",
      "type": "function"
    },
    {
      "inputs": [],
      "name": "renounceOwnership",
      "outputs": [],
      "stateMutability": "nonpayable",
      "type": "function"
    },
    {
      "inputs": [
        {
          "internalType": "contract ICreditor[]",
          "name": "_newCreditors",
          "type": "address[]"
        }
      ],
      "name": "setCreditors",
      "outputs": [],
      "stateMutability": "nonpayable",
      "type": "function"
    },
    {
      "inputs": [
        {
          "internalType": "contract IDeltaNeutralVault[]",
          "name": "_newPrivateVaults",
          "type": "address[]"
        }
      ],
      "name": "setPrivateVaults",
      "outputs": [],
      "stateMutability": "nonpayable",
      "type": "function"
    },
    {
      "inputs": [
        {
          "internalType": "address",
          "name": "_user",
          "type": "address"
        }
      ],
      "name": "totalCredit",
      "outputs": [
        {
          "internalType": "uint256",
          "name": "",
          "type": "uint256"
        }
      ],
      "stateMutability": "view",
      "type": "function"
    },
    {
      "inputs": [
        {
          "internalType": "address",
          "name": "newOwner",
          "type": "address"
        }
      ],
      "name": "transferOwnership",
      "outputs": [],
      "stateMutability": "nonpayable",
      "type": "function"
    },
    {
      "inputs": [
        {
          "internalType": "address",
          "name": "_user",
          "type": "address"
        }
      ],
      "name": "usedCredit",
      "outputs": [
        {
          "internalType": "uint256",
          "name": "",
          "type": "uint256"
        }
      ],
      "stateMutability": "view",
      "type": "function"
    },
    {
      "inputs": [
        {
          "internalType": "address",
          "name": "",
          "type": "address"
        },
        {
          "internalType": "address",
          "name": "",
          "type": "address"
        }
      ],
      "name": "userVaultShares",
      "outputs": [
        {
          "internalType": "uint256",
          "name": "",
          "type": "uint256"
        }
      ],
      "stateMutability": "view",
      "type": "function"
    }
  ],
  "transactionHash": "0x99d456c8fcdbc05a6d93cfe43c04c1d1867e54be1058a1c4b3787716c825719c",
  "args": [],
  "numDeployments": 1,
  "solcInputHash": "80c1d8b85362075366e47aa320ad0d03",
  "bytecode": "0x60806040523480156200001157600080fd5b50600062000020600162000087565b9050801562000039576000805461ff0019166101001790555b801562000080576000805461ff0019169055604051600181527f7f26b83ff96e1f2b6a682f133852f6798a09c465da95921460cefb38474024989060200160405180910390a15b50620001a8565b60008054610100900460ff161562000120578160ff166001148015620000c05750620000be306200019960201b62000b861760201c565b155b620001185760405162461bcd60e51b815260206004820152602e6024820152600080516020620013e083398151915260448201526d191e481a5b9a5d1a585b1a5e995960921b60648201526084015b60405180910390fd5b506000919050565b60005460ff8084169116106200017f5760405162461bcd60e51b815260206004820152602e6024820152600080516020620013e083398151915260448201526d191e481a5b9a5d1a585b1a5e995960921b60648201526084016200010f565b506000805460ff191660ff92909216919091179055600190565b6001600160a01b03163b151590565b61122880620001b86000396000f3fe608060405234801561001057600080fd5b50600436106100f55760003560e01c806387f049e411610097578063ccad973d11610066578063ccad973d14610229578063e7d325a11461023c578063f220d16c1461024f578063f2fde38b1461026257600080fd5b806387f049e4146101a15780638da5cb5b146101b45780639f7b7ead146101c5578063c5c66d4d146101f057600080fd5b8063715018a6116100d3578063715018a61461014857806371bc16b51461015057806373cf25f81461017b5780637bf962de1461018e57600080fd5b80632bf9518c146100fa5780634fe018231461010f5780635886216f14610122575b600080fd5b61010d610108366004610e88565b610275565b005b61010d61011d366004610f93565b6102b1565b610135610130366004610fc8565b610416565b6040519081526020015b60405180910390f35b61010d610451565b61016361015e366004610fec565b6104b7565b6040516001600160a01b03909116815260200161013f565b61010d610189366004611069565b6104e1565b61013561019c366004610fc8565b6106e7565b6101636101af366004610fec565b610806565b6033546001600160a01b0316610163565b6101356101d33660046110cd565b606760209081526000928352604080842090915290825290205481565b6101356101fe3660046110cd565b6001600160a01b03918216600090815260676020908152604080832093909416825291909152205490565b61010d610237366004610e88565b610816565b61010d61024a366004611106565b6108a3565b61013561025d366004610fc8565b6109ee565b61010d610270366004610fc8565b610aa4565b6001600160a01b0382166000908152606760209081526040808320338452909152812080548392906102a8908490611151565b90915550505050565b6033546001600160a01b031633146103105760405162461bcd60e51b815260206004820181905260248201527f4f776e61626c653a2063616c6c6572206973206e6f7420746865206f776e657260448201526064015b60405180910390fd5b805160005b818160ff1610156103bc57828160ff168151811061033557610335611169565b60200260200101516001600160a01b031663441130d5670de0b6b3a76400006040518263ffffffff1660e01b815260040161037291815260200190565b602060405180830381865afa15801561038f573d6000803e3d6000fd5b505050506040513d601f19601f820116820180604052508101906103b3919061117f565b50600101610315565b5081516103d0906066906020850190610dec565b50336001600160a01b03167f2abc0e25ec4d3cb00cd094f0bca86e790d0f6455cf9064345274fc97586b31c58360405161040a9190611198565b60405180910390a25050565b600080610422836109ee565b9050600061042f846106e7565b905080821161043f576000610449565b61044981836111e5565b949350505050565b6033546001600160a01b031633146104ab5760405162461bcd60e51b815260206004820181905260248201527f4f776e61626c653a2063616c6c6572206973206e6f7420746865206f776e65726044820152606401610307565b6104b56000610b95565b565b606581815481106104c757600080fd5b6000918252602090912001546001600160a01b0316905081565b60006104ed6001610bf4565b90508015610505576000805461ff0019166101001790555b825160005b818160ff1610156105b257848160ff168151811061052a5761052a611169565b60209081029190910101516040516336b5bc3760e21b8152600060048201526001600160a01b039091169063dad6f0dc90602401602060405180830381865afa15801561057b573d6000803e3d6000fd5b505050506040513d601f19601f8201168201806040525081019061059f919061117f565b50806105aa816111fc565b91505061050a565b50825160005b818160ff16101561066957848160ff16815181106105d8576105d8611169565b60200260200101516001600160a01b031663441130d5670de0b6b3a76400006040518263ffffffff1660e01b815260040161061591815260200190565b602060405180830381865afa158015610632573d6000803e3d6000fd5b505050506040513d601f19601f82011682018060405250810190610656919061117f565b5080610661816111fc565b9150506105b8565b50610672610d0a565b8451610685906065906020880190610dec565b508351610699906066906020870190610dec565b50505080156106e2576000805461ff0019169055604051600181527f7f26b83ff96e1f2b6a682f133852f6798a09c465da95921460cefb38474024989060200160405180910390a15b505050565b6066546000908190815b818160ff1610156107fd576001600160a01b03851660009081526067602052604081206066805483919060ff861690811061072e5761072e611169565b60009182526020808320909101546001600160a01b03168352820192909252604001902054905080156107f45760668260ff168154811061077157610771611169565b60009182526020909120015460405163441130d560e01b8152600481018390526001600160a01b039091169063441130d590602401602060405180830381865afa1580156107c3573d6000803e3d6000fd5b505050506040513d601f19601f820116820180604052508101906107e7919061117f565b6107f19085611151565b93505b506001016106f1565b50909392505050565b606681815481106104c757600080fd5b6001600160a01b0382166000908152606760209081526040808320338452909152902054811015610875576001600160a01b03821660009081526067602090815260408083203384529091529020546108709082906111e5565b610878565b60005b6001600160a01b03909216600090815260676020908152604080832033845290915290209190915550565b6033546001600160a01b031633146108fd5760405162461bcd60e51b815260206004820181905260248201527f4f776e61626c653a2063616c6c6572206973206e6f7420746865206f776e65726044820152606401610307565b805160005b818160ff1610156109a057828160ff168151811061092257610922611169565b60209081029190910101516040516336b5bc3760e21b8152600060048201526001600160a01b039091169063dad6f0dc90602401602060405180830381865afa158015610973573d6000803e3d6000fd5b505050506040513d601f19601f82011682018060405250810190610997919061117f565b50600101610902565b5081516109b4906065906020850190610dec565b50336001600160a01b03167fe1c8f0c34d1ebb59573a7f5d542c350a1762869a702dd1ecea79c1dc6b44d8658360405161040a9190611198565b6065546000908190815b818160ff1610156107fd5760658160ff1681548110610a1957610a19611169565b6000918252602090912001546040516336b5bc3760e21b81526001600160a01b0387811660048301529091169063dad6f0dc90602401602060405180830381865afa158015610a6c573d6000803e3d6000fd5b505050506040513d601f19601f82011682018060405250810190610a90919061117f565b610a9a9084611151565b92506001016109f8565b6033546001600160a01b03163314610afe5760405162461bcd60e51b815260206004820181905260248201527f4f776e61626c653a2063616c6c6572206973206e6f7420746865206f776e65726044820152606401610307565b6001600160a01b038116610b7a5760405162461bcd60e51b815260206004820152602660248201527f4f776e61626c653a206e6577206f776e657220697320746865207a65726f206160448201527f64647265737300000000000000000000000000000000000000000000000000006064820152608401610307565b610b8381610b95565b50565b6001600160a01b03163b151590565b603380546001600160a01b0383811673ffffffffffffffffffffffffffffffffffffffff19831681179093556040519116919082907f8be0079c531659141344cd1fd0a4f28419497f9722a3daafe3b4186f6b6457e090600090a35050565b60008054610100900460ff1615610c82578160ff166001148015610c175750303b155b610c7a5760405162461bcd60e51b815260206004820152602e60248201527f496e697469616c697a61626c653a20636f6e747261637420697320616c72656160448201526d191e481a5b9a5d1a585b1a5e995960921b6064820152608401610307565b506000919050565b60005460ff808416911610610cf05760405162461bcd60e51b815260206004820152602e60248201527f496e697469616c697a61626c653a20636f6e747261637420697320616c72656160448201526d191e481a5b9a5d1a585b1a5e995960921b6064820152608401610307565b506000805460ff191660ff92909216919091179055600190565b600054610100900460ff16610d755760405162461bcd60e51b815260206004820152602b60248201527f496e697469616c697a61626c653a20636f6e7472616374206973206e6f74206960448201526a6e697469616c697a696e6760a81b6064820152608401610307565b6104b5600054610100900460ff16610de35760405162461bcd60e51b815260206004820152602b60248201527f496e697469616c697a61626c653a20636f6e7472616374206973206e6f74206960448201526a6e697469616c697a696e6760a81b6064820152608401610307565b6104b533610b95565b828054828255906000526020600020908101928215610e4e579160200282015b82811115610e4e578251825473ffffffffffffffffffffffffffffffffffffffff19166001600160a01b03909116178255602090920191600190910190610e0c565b50610e5a929150610e5e565b5090565b5b80821115610e5a5760008155600101610e5f565b6001600160a01b0381168114610b8357600080fd5b60008060408385031215610e9b57600080fd5b8235610ea681610e73565b946020939093013593505050565b634e487b7160e01b600052604160045260246000fd5b604051601f8201601f1916810167ffffffffffffffff81118282101715610ef357610ef3610eb4565b604052919050565b600067ffffffffffffffff821115610f1557610f15610eb4565b5060051b60200190565b600082601f830112610f3057600080fd5b81356020610f45610f4083610efb565b610eca565b82815260059290921b84018101918181019086841115610f6457600080fd5b8286015b84811015610f88578035610f7b81610e73565b8352918301918301610f68565b509695505050505050565b600060208284031215610fa557600080fd5b813567ffffffffffffffff811115610fbc57600080fd5b61044984828501610f1f565b600060208284031215610fda57600080fd5b8135610fe581610e73565b9392505050565b600060208284031215610ffe57600080fd5b5035919050565b600082601f83011261101657600080fd5b81356020611026610f4083610efb565b82815260059290921b8401810191818101908684111561104557600080fd5b8286015b84811015610f8857803561105c81610e73565b8352918301918301611049565b6000806040838503121561107c57600080fd5b823567ffffffffffffffff8082111561109457600080fd5b6110a086838701611005565b935060208501359150808211156110b657600080fd5b506110c385828601610f1f565b9150509250929050565b600080604083850312156110e057600080fd5b82356110eb81610e73565b915060208301356110fb81610e73565b809150509250929050565b60006020828403121561111857600080fd5b813567ffffffffffffffff81111561112f57600080fd5b61044984828501611005565b634e487b7160e01b600052601160045260246000fd5b600082198211156111645761116461113b565b500190565b634e487b7160e01b600052603260045260246000fd5b60006020828403121561119157600080fd5b5051919050565b6020808252825182820181905260009190848201906040850190845b818110156111d95783516001600160a01b0316835292840192918401916001016111b4565b50909695505050505050565b6000828210156111f7576111f761113b565b500390565b600060ff821660ff81036112125761121261113b565b6001019291505056fea164736f6c634300080d000a496e697469616c697a61626c653a20636f6e747261637420697320616c726561",
  "devdoc": {
    "kind": "dev",
    "methods": {
      "availableCredit(address)": {
        "params": {
          "_user": "address of user."
        },
        "returns": {
          "_0": "_total remaining credit of this user"
        }
      },
      "getUserVaultShares(address,address)": {
        "params": {
          "_user": "share owner",
          "_vault": "delta vault"
        }
      },
      "initialize(address[],address[])": {
        "params": {
          "_creditors": "list of credit sources",
          "_privateVaults": "list of private automated vaults"
        }
      },
      "onDeposit(address,uint256)": {
        "params": {
          "_shareAmount": "amount of automated vault's share",
          "_user": "share owner"
        }
      },
      "onWithdraw(address,uint256)": {
        "params": {
          "_shareAmount": "amount of automated vault's share withdrawn",
          "_user": "share owner"
        }
      },
      "owner()": {
        "details": "Returns the address of the current owner."
      },
      "renounceOwnership()": {
        "details": "Leaves the contract without owner. It will not be possible to call `onlyOwner` functions anymore. Can only be called by the current owner. NOTE: Renouncing ownership will leave the contract without an owner, thereby removing any functionality that is only available to the owner."
      },
      "setCreditors(address[])": {
        "params": {
          "_newCreditors": "list of credit sources"
        }
      },
      "setPrivateVaults(address[])": {
        "params": {
          "_newPrivateVaults": "list of private automated vaults"
        }
      },
      "totalCredit(address)": {
        "params": {
          "_user": "address of user."
        },
        "returns": {
          "_0": "_total user's credit in USD value"
        }
      },
      "transferOwnership(address)": {
        "details": "Transfers ownership of the contract to a new account (`newOwner`). Can only be called by the current owner."
      },
      "usedCredit(address)": {
        "params": {
          "_user": "address of user."
        },
        "returns": {
          "_0": "_total user's used credit in USD value from depositing into private automated vaults"
        }
      }
    },
    "title": "AutomatedVaultController - Controller how much investor can invest in the private automated vault",
    "version": 1
  },
  "userdoc": {
    "kind": "user",
    "methods": {
      "availableCredit(address)": {
        "notice": "Get availableCredit credit for this user"
      },
      "getUserVaultShares(address,address)": {
        "notice": "Return share of user of given vault"
      },
      "initialize(address[],address[])": {
        "notice": "Initialize Automated Vault Controller"
      },
      "onDeposit(address,uint256)": {
        "notice": "record user's automated vault's share from deposit"
      },
      "onWithdraw(address,uint256)": {
        "notice": "update user's automated vault's share from withdrawal"
      },
      "setCreditors(address[])": {
        "notice": "set private automated vaults"
      },
      "setPrivateVaults(address[])": {
        "notice": "set private automated vaults"
      },
      "totalCredit(address)": {
        "notice": "Get total credit for this user"
      },
      "usedCredit(address)": {
        "notice": "Get used credit for this user"
      }
    },
    "version": 1
  },
  "storageLayout": {
    "storage": [
      {
        "astId": 130,
        "contract": "contracts/AutomatedVaultController.sol:AutomatedVaultController",
        "label": "_initialized",
        "offset": 0,
        "slot": "0",
        "type": "t_uint8"
      },
      {
        "astId": 133,
        "contract": "contracts/AutomatedVaultController.sol:AutomatedVaultController",
        "label": "_initializing",
        "offset": 1,
        "slot": "0",
        "type": "t_bool"
      },
      {
        "astId": 1546,
        "contract": "contracts/AutomatedVaultController.sol:AutomatedVaultController",
        "label": "__gap",
        "offset": 0,
        "slot": "1",
        "type": "t_array(t_uint256)50_storage"
      },
      {
        "astId": 10,
        "contract": "contracts/AutomatedVaultController.sol:AutomatedVaultController",
        "label": "_owner",
        "offset": 0,
        "slot": "51",
        "type": "t_address"
      },
      {
        "astId": 122,
        "contract": "contracts/AutomatedVaultController.sol:AutomatedVaultController",
        "label": "__gap",
        "offset": 0,
        "slot": "52",
        "type": "t_array(t_uint256)49_storage"
      },
      {
        "astId": 1578,
        "contract": "contracts/AutomatedVaultController.sol:AutomatedVaultController",
        "label": "creditors",
        "offset": 0,
        "slot": "101",
        "type": "t_array(t_contract(ICreditor)5699)dyn_storage"
      },
      {
        "astId": 1582,
        "contract": "contracts/AutomatedVaultController.sol:AutomatedVaultController",
        "label": "privateVaults",
        "offset": 0,
        "slot": "102",
        "type": "t_array(t_contract(IDeltaNeutralVault)5746)dyn_storage"
      },
      {
        "astId": 1588,
        "contract": "contracts/AutomatedVaultController.sol:AutomatedVaultController",
        "label": "userVaultShares",
        "offset": 0,
        "slot": "103",
        "type": "t_mapping(t_address,t_mapping(t_address,t_uint256))"
      }
    ],
    "types": {
      "t_address": {
        "encoding": "inplace",
        "label": "address",
        "numberOfBytes": "20"
      },
      "t_array(t_contract(ICreditor)5699)dyn_storage": {
        "base": "t_contract(ICreditor)5699",
        "encoding": "dynamic_array",
        "label": "contract ICreditor[]",
        "numberOfBytes": "32"
      },
      "t_array(t_contract(IDeltaNeutralVault)5746)dyn_storage": {
        "base": "t_contract(IDeltaNeutralVault)5746",
        "encoding": "dynamic_array",
        "label": "contract IDeltaNeutralVault[]",
        "numberOfBytes": "32"
      },
      "t_array(t_uint256)49_storage": {
        "base": "t_uint256",
        "encoding": "inplace",
        "label": "uint256[49]",
        "numberOfBytes": "1568"
      },
      "t_array(t_uint256)50_storage": {
        "base": "t_uint256",
        "encoding": "inplace",
        "label": "uint256[50]",
        "numberOfBytes": "1600"
      },
      "t_bool": {
        "encoding": "inplace",
        "label": "bool",
        "numberOfBytes": "1"
      },
      "t_contract(ICreditor)5699": {
        "encoding": "inplace",
        "label": "contract ICreditor",
        "numberOfBytes": "20"
      },
      "t_contract(IDeltaNeutralVault)5746": {
        "encoding": "inplace",
        "label": "contract IDeltaNeutralVault",
        "numberOfBytes": "20"
      },
      "t_mapping(t_address,t_mapping(t_address,t_uint256))": {
        "encoding": "mapping",
        "key": "t_address",
        "label": "mapping(address => mapping(address => uint256))",
        "numberOfBytes": "32",
        "value": "t_mapping(t_address,t_uint256)"
      },
      "t_mapping(t_address,t_uint256)": {
        "encoding": "mapping",
        "key": "t_address",
        "label": "mapping(address => uint256)",
        "numberOfBytes": "32",
        "value": "t_uint256"
      },
      "t_uint256": {
        "encoding": "inplace",
        "label": "uint256",
        "numberOfBytes": "32"
      },
      "t_uint8": {
        "encoding": "inplace",
        "label": "uint8",
        "numberOfBytes": "1"
      }
    }
  }
}