{
  "address": "0xe023C16A18079Dea963918D7a3e70fC4023373B1",
  "abi": [
    {
      "inputs": [],
      "stateMutability": "nonpayable",
      "type": "constructor"
    },
    {
      "inputs": [],
      "name": "DeltaNeutralVault_BadActionSize",
      "type": "error"
    },
    {
      "inputs": [],
      "name": "DeltaNeutralVault_BadReinvestPath",
      "type": "error"
    },
    {
      "inputs": [],
      "name": "DeltaNeutralVault_ExceedCredit",
      "type": "error"
    },
    {
      "inputs": [],
      "name": "DeltaNeutralVault_IncorrectNativeAmountDeposit",
      "type": "error"
    },
    {
      "inputs": [
        {
          "internalType": "uint256",
          "name": "_requiredAmount",
          "type": "uint256"
        },
        {
          "internalType": "uint256",
          "name": "_receivedAmount",
          "type": "uint256"
        }
      ],
      "name": "DeltaNeutralVault_InsufficientShareReceived",
      "type": "error"
    },
    {
      "inputs": [
        {
          "internalType": "address",
          "name": "_token",
          "type": "address"
        },
        {
          "internalType": "uint256",
          "name": "_requiredAmount",
          "type": "uint256"
        },
        {
          "internalType": "uint256",
          "name": "_receivedAmount",
          "type": "uint256"
        }
      ],
      "name": "DeltaNeutralVault_InsufficientTokenReceived",
      "type": "error"
    },
    {
      "inputs": [],
      "name": "DeltaNeutralVault_InvalidInitializedAddress",
      "type": "error"
    },
    {
      "inputs": [],
      "name": "DeltaNeutralVault_InvalidLpToken",
      "type": "error"
    },
    {
      "inputs": [
        {
          "internalType": "address",
          "name": "_vault",
          "type": "address"
        },
        {
          "internalType": "uint256",
          "name": "_positionId",
          "type": "uint256"
        }
      ],
      "name": "DeltaNeutralVault_InvalidPositions",
      "type": "error"
    },
    {
      "inputs": [],
      "name": "DeltaNeutralVault_InvalidShareAmount",
      "type": "error"
    },
    {
      "inputs": [],
      "name": "DeltaNeutralVault_PositionValueExceedLimit",
      "type": "error"
    },
    {
      "inputs": [],
      "name": "DeltaNeutralVault_PositionsAlreadyInitialized",
      "type": "error"
    },
    {
      "inputs": [],
      "name": "DeltaNeutralVault_PositionsIsHealthy",
      "type": "error"
    },
    {
      "inputs": [],
      "name": "DeltaNeutralVault_PositionsNotInitialized",
      "type": "error"
    },
    {
      "inputs": [],
      "name": "DeltaNeutralVault_UnTrustedPrice",
      "type": "error"
    },
    {
      "inputs": [
        {
          "internalType": "address",
          "name": "_caller",
          "type": "address"
        }
      ],
      "name": "DeltaNeutralVault_Unauthorized",
      "type": "error"
    },
    {
      "inputs": [],
      "name": "DeltaNeutralVault_UnsafeDebtRatio",
      "type": "error"
    },
    {
      "inputs": [],
      "name": "DeltaNeutralVault_UnsafeDebtValue",
      "type": "error"
    },
    {
      "inputs": [
        {
          "internalType": "address",
          "name": "_token",
          "type": "address"
        },
        {
          "internalType": "uint256",
          "name": "_amountBefore",
          "type": "uint256"
        },
        {
          "internalType": "uint256",
          "name": "_amountAfter",
          "type": "uint256"
        }
      ],
      "name": "DeltaNeutralVault_UnsafeOutstanding",
      "type": "error"
    },
    {
      "inputs": [],
      "name": "DeltaNeutralVault_UnsafePositionEquity",
      "type": "error"
    },
    {
      "inputs": [],
      "name": "DeltaNeutralVault_UnsafePositionValue",
      "type": "error"
    },
    {
      "inputs": [
        {
          "internalType": "uint256",
          "name": "_decimals",
          "type": "uint256"
        }
      ],
      "name": "DeltaNeutralVault_UnsupportedDecimals",
      "type": "error"
    },
    {
      "inputs": [
        {
          "internalType": "uint256",
          "name": "_withdrawValue",
          "type": "uint256"
        },
        {
          "internalType": "uint256",
          "name": "_shareValue",
          "type": "uint256"
        }
      ],
      "name": "DeltaNeutralVault_WithdrawValueExceedShareValue",
      "type": "error"
    },
    {
      "anonymous": false,
      "inputs": [
        {
          "indexed": true,
          "internalType": "address",
          "name": "owner",
          "type": "address"
        },
        {
          "indexed": true,
          "internalType": "address",
          "name": "spender",
          "type": "address"
        },
        {
          "indexed": false,
          "internalType": "uint256",
          "name": "value",
          "type": "uint256"
        }
      ],
      "name": "Approval",
      "type": "event"
    },
    {
      "anonymous": false,
      "inputs": [
        {
          "indexed": false,
          "internalType": "uint8",
          "name": "version",
          "type": "uint8"
        }
      ],
      "name": "Initialized",
      "type": "event"
    },
    {
      "anonymous": false,
      "inputs": [
        {
          "indexed": true,
          "internalType": "address",
          "name": "_from",
          "type": "address"
        },
        {
          "indexed": true,
          "internalType": "address",
          "name": "_shareReceiver",
          "type": "address"
        },
        {
          "indexed": false,
          "internalType": "uint256",
          "name": "_shares",
          "type": "uint256"
        },
        {
          "indexed": false,
          "internalType": "uint256",
          "name": "_stableTokenAmount",
          "type": "uint256"
        },
        {
          "indexed": false,
          "internalType": "uint256",
          "name": "_assetTokenAmount",
          "type": "uint256"
        }
      ],
      "name": "LogDeposit",
      "type": "event"
    },
    {
      "anonymous": false,
      "inputs": [
        {
          "indexed": true,
          "internalType": "address",
          "name": "_from",
          "type": "address"
        },
        {
          "indexed": false,
          "internalType": "uint256",
          "name": "_stableVaultPosId",
          "type": "uint256"
        },
        {
          "indexed": false,
          "internalType": "uint256",
          "name": "_assetVaultPosId",
          "type": "uint256"
        }
      ],
      "name": "LogInitializePositions",
      "type": "event"
    },
    {
      "anonymous": false,
      "inputs": [
        {
          "indexed": false,
          "internalType": "uint256",
          "name": "_equityBefore",
          "type": "uint256"
        },
        {
          "indexed": false,
          "internalType": "uint256",
          "name": "_equityAfter",
          "type": "uint256"
        }
      ],
      "name": "LogRebalance",
      "type": "event"
    },
    {
      "anonymous": false,
      "inputs": [
        {
          "indexed": false,
          "internalType": "uint256",
          "name": "_equityBefore",
          "type": "uint256"
        },
        {
          "indexed": false,
          "internalType": "uint256",
          "name": "_equityAfter",
          "type": "uint256"
        }
      ],
      "name": "LogReinvest",
      "type": "event"
    },
    {
      "anonymous": false,
      "inputs": [
        {
          "indexed": true,
          "internalType": "address",
          "name": "_caller",
          "type": "address"
        },
        {
          "indexed": false,
          "internalType": "address",
          "name": "_priceOracle",
          "type": "address"
        }
      ],
      "name": "LogSetDeltaNeutralOracle",
      "type": "event"
    },
    {
      "anonymous": false,
      "inputs": [
        {
          "indexed": true,
          "internalType": "address",
          "name": "_caller",
          "type": "address"
        },
        {
          "indexed": false,
          "internalType": "address",
          "name": "_config",
          "type": "address"
        }
      ],
      "name": "LogSetDeltaNeutralVaultConfig",
      "type": "event"
    },
    {
      "anonymous": false,
      "inputs": [
        {
          "indexed": true,
          "internalType": "address",
          "name": "_shareOwner",
          "type": "address"
        },
        {
          "indexed": false,
          "internalType": "uint256",
          "name": "_minStableTokenAmount",
          "type": "uint256"
        },
        {
          "indexed": false,
          "internalType": "uint256",
          "name": "_minAssetTokenAmount",
          "type": "uint256"
        }
      ],
      "name": "LogWithdraw",
      "type": "event"
    },
    {
      "anonymous": false,
      "inputs": [
        {
          "indexed": true,
          "internalType": "address",
          "name": "previousOwner",
          "type": "address"
        },
        {
          "indexed": true,
          "internalType": "address",
          "name": "newOwner",
          "type": "address"
        }
      ],
      "name": "OwnershipTransferred",
      "type": "event"
    },
    {
      "anonymous": false,
      "inputs": [
        {
          "indexed": true,
          "internalType": "address",
          "name": "from",
          "type": "address"
        },
        {
          "indexed": true,
          "internalType": "address",
          "name": "to",
          "type": "address"
        },
        {
          "indexed": false,
          "internalType": "uint256",
          "name": "value",
          "type": "uint256"
        }
      ],
      "name": "Transfer",
      "type": "event"
    },
    {
      "inputs": [
        {
          "internalType": "address",
          "name": "owner",
          "type": "address"
        },
        {
          "internalType": "address",
          "name": "spender",
          "type": "address"
        }
      ],
      "name": "allowance",
      "outputs": [
        {
          "internalType": "uint256",
          "name": "",
          "type": "uint256"
        }
      ],
      "stateMutability": "view",
      "type": "function"
    },
    {
      "inputs": [],
      "name": "alpacaToken",
      "outputs": [
        {
          "internalType": "address",
          "name": "",
          "type": "address"
        }
      ],
      "stateMutability": "view",
      "type": "function"
    },
    {
      "inputs": [
        {
          "internalType": "address",
          "name": "spender",
          "type": "address"
        },
        {
          "internalType": "uint256",
          "name": "amount",
          "type": "uint256"
        }
      ],
      "name": "approve",
      "outputs": [
        {
          "internalType": "bool",
          "name": "",
          "type": "bool"
        }
      ],
      "stateMutability": "nonpayable",
      "type": "function"
    },
    {
      "inputs": [],
      "name": "assetTo18ConversionFactor",
      "outputs": [
        {
          "internalType": "uint256",
          "name": "",
          "type": "uint256"
        }
      ],
      "stateMutability": "view",
      "type": "function"
    },
    {
      "inputs": [],
      "name": "assetToken",
      "outputs": [
        {
          "internalType": "address",
          "name": "",
          "type": "address"
        }
      ],
      "stateMutability": "view",
      "type": "function"
    },
    {
      "inputs": [],
      "name": "assetVault",
      "outputs": [
        {
          "internalType": "address",
          "name": "",
          "type": "address"
        }
      ],
      "stateMutability": "view",
      "type": "function"
    },
    {
      "inputs": [],
      "name": "assetVaultPosId",
      "outputs": [
        {
          "internalType": "uint256",
          "name": "",
          "type": "uint256"
        }
      ],
      "stateMutability": "view",
      "type": "function"
    },
    {
      "inputs": [],
      "name": "assetVaultWorker",
      "outputs": [
        {
          "internalType": "address",
          "name": "",
          "type": "address"
        }
      ],
      "stateMutability": "view",
      "type": "function"
    },
    {
      "inputs": [
        {
          "internalType": "address",
          "name": "account",
          "type": "address"
        }
      ],
      "name": "balanceOf",
      "outputs": [
        {
          "internalType": "uint256",
          "name": "",
          "type": "uint256"
        }
      ],
      "stateMutability": "view",
      "type": "function"
    },
    {
      "inputs": [],
      "name": "config",
      "outputs": [
        {
          "internalType": "contract IDeltaNeutralVaultConfig02",
          "name": "",
          "type": "address"
        }
      ],
      "stateMutability": "view",
      "type": "function"
    },
    {
      "inputs": [],
      "name": "decimals",
      "outputs": [
        {
          "internalType": "uint8",
          "name": "",
          "type": "uint8"
        }
      ],
      "stateMutability": "view",
      "type": "function"
    },
    {
      "inputs": [
        {
          "internalType": "address",
          "name": "spender",
          "type": "address"
        },
        {
          "internalType": "uint256",
          "name": "subtractedValue",
          "type": "uint256"
        }
      ],
      "name": "decreaseAllowance",
      "outputs": [
        {
          "internalType": "bool",
          "name": "",
          "type": "bool"
        }
      ],
      "stateMutability": "nonpayable",
      "type": "function"
    },
    {
      "inputs": [
        {
          "internalType": "uint256",
          "name": "_stableTokenAmount",
          "type": "uint256"
        },
        {
          "internalType": "uint256",
          "name": "_assetTokenAmount",
          "type": "uint256"
        },
        {
          "internalType": "address",
          "name": "_shareReceiver",
          "type": "address"
        },
        {
          "internalType": "uint256",
          "name": "_minShareReceive",
          "type": "uint256"
        },
        {
          "internalType": "bytes",
          "name": "_data",
          "type": "bytes"
        }
      ],
      "name": "deposit",
      "outputs": [
        {
          "internalType": "uint256",
          "name": "",
          "type": "uint256"
        }
      ],
      "stateMutability": "payable",
      "type": "function"
    },
    {
      "inputs": [
        {
          "internalType": "address",
          "name": "spender",
          "type": "address"
        },
        {
          "internalType": "uint256",
          "name": "addedValue",
          "type": "uint256"
        }
      ],
      "name": "increaseAllowance",
      "outputs": [
        {
          "internalType": "bool",
          "name": "",
          "type": "bool"
        }
      ],
      "stateMutability": "nonpayable",
      "type": "function"
    },
    {
      "inputs": [
        {
          "internalType": "uint256",
          "name": "_stableTokenAmount",
          "type": "uint256"
        },
        {
          "internalType": "uint256",
          "name": "_assetTokenAmount",
          "type": "uint256"
        },
        {
          "internalType": "uint256",
          "name": "_minShareReceive",
          "type": "uint256"
        },
        {
          "internalType": "bytes",
          "name": "_data",
          "type": "bytes"
        }
      ],
      "name": "initPositions",
      "outputs": [],
      "stateMutability": "payable",
      "type": "function"
    },
    {
      "inputs": [
        {
          "internalType": "string",
          "name": "_name",
          "type": "string"
        },
        {
          "internalType": "string",
          "name": "_symbol",
          "type": "string"
        },
        {
          "internalType": "address",
          "name": "_stableVault",
          "type": "address"
        },
        {
          "internalType": "address",
          "name": "_assetVault",
          "type": "address"
        },
        {
          "internalType": "address",
          "name": "_stableVaultWorker",
          "type": "address"
        },
        {
          "internalType": "address",
          "name": "_assetVaultWorker",
          "type": "address"
        },
        {
          "internalType": "address",
          "name": "_lpToken",
          "type": "address"
        },
        {
          "internalType": "address",
          "name": "_alpacaToken",
          "type": "address"
        },
        {
          "internalType": "contract IDeltaNeutralOracle",
          "name": "_priceOracle",
          "type": "address"
        },
        {
          "internalType": "contract IDeltaNeutralVaultConfig02",
          "name": "_config",
          "type": "address"
        }
      ],
      "name": "initialize",
      "outputs": [],
      "stateMutability": "nonpayable",
      "type": "function"
    },
    {
      "inputs": [],
      "name": "lastFeeCollected",
      "outputs": [
        {
          "internalType": "uint256",
          "name": "",
          "type": "uint256"
        }
      ],
      "stateMutability": "view",
      "type": "function"
    },
    {
      "inputs": [],
      "name": "name",
      "outputs": [
        {
          "internalType": "string",
          "name": "",
          "type": "string"
        }
      ],
      "stateMutability": "view",
      "type": "function"
    },
    {
      "inputs": [],
      "name": "owner",
      "outputs": [
        {
          "internalType": "address",
          "name": "",
          "type": "address"
        }
      ],
      "stateMutability": "view",
      "type": "function"
    },
    {
      "inputs": [],
      "name": "pendingManagementFee",
      "outputs": [
        {
          "internalType": "uint256",
          "name": "",
          "type": "uint256"
        }
      ],
      "stateMutability": "view",
      "type": "function"
    },
    {
      "inputs": [],
      "name": "positionInfo",
      "outputs": [
        {
          "components": [
            {
              "internalType": "uint256",
              "name": "stablePositionEquity",
              "type": "uint256"
            },
            {
              "internalType": "uint256",
              "name": "stablePositionDebtValue",
              "type": "uint256"
            },
            {
              "internalType": "uint256",
              "name": "stableLpAmount",
              "type": "uint256"
            },
            {
              "internalType": "uint256",
              "name": "assetPositionEquity",
              "type": "uint256"
            },
            {
              "internalType": "uint256",
              "name": "assetPositionDebtValue",
              "type": "uint256"
            },
            {
              "internalType": "uint256",
              "name": "assetLpAmount",
              "type": "uint256"
            }
          ],
          "internalType": "struct DeltaNeutralVault02.PositionInfo",
          "name": "",
          "type": "tuple"
        }
      ],
      "stateMutability": "view",
      "type": "function"
    },
    {
      "inputs": [],
      "name": "priceOracle",
      "outputs": [
        {
          "internalType": "contract IDeltaNeutralOracle",
          "name": "",
          "type": "address"
        }
      ],
      "stateMutability": "view",
      "type": "function"
    },
    {
      "inputs": [
        {
          "internalType": "uint8[]",
          "name": "_actions",
          "type": "uint8[]"
        },
        {
          "internalType": "uint256[]",
          "name": "_values",
          "type": "uint256[]"
        },
        {
          "internalType": "bytes[]",
          "name": "_datas",
          "type": "bytes[]"
        }
      ],
      "name": "rebalance",
      "outputs": [],
      "stateMutability": "nonpayable",
      "type": "function"
    },
    {
      "inputs": [
        {
          "internalType": "uint8[]",
          "name": "_actions",
          "type": "uint8[]"
        },
        {
          "internalType": "uint256[]",
          "name": "_values",
          "type": "uint256[]"
        },
        {
          "internalType": "bytes[]",
          "name": "_datas",
          "type": "bytes[]"
        },
        {
          "internalType": "uint256",
          "name": "_minTokenReceive",
          "type": "uint256"
        }
      ],
      "name": "reinvest",
      "outputs": [],
      "stateMutability": "nonpayable",
      "type": "function"
    },
    {
      "inputs": [],
      "name": "renounceOwnership",
      "outputs": [],
      "stateMutability": "nonpayable",
      "type": "function"
    },
    {
      "inputs": [
        {
          "internalType": "contract IDeltaNeutralOracle",
          "name": "_newPriceOracle",
          "type": "address"
        }
      ],
      "name": "setDeltaNeutralOracle",
      "outputs": [],
      "stateMutability": "nonpayable",
      "type": "function"
    },
    {
      "inputs": [
        {
          "internalType": "contract IDeltaNeutralVaultConfig02",
          "name": "_newVaultConfig",
          "type": "address"
        }
      ],
      "name": "setDeltaNeutralVaultConfig",
      "outputs": [],
      "stateMutability": "nonpayable",
      "type": "function"
    },
    {
      "inputs": [
        {
          "internalType": "uint256",
          "name": "_shareAmount",
          "type": "uint256"
        }
      ],
      "name": "shareToValue",
      "outputs": [
        {
          "internalType": "uint256",
          "name": "",
          "type": "uint256"
        }
      ],
      "stateMutability": "view",
      "type": "function"
    },
    {
      "inputs": [],
      "name": "stableTo18ConversionFactor",
      "outputs": [
        {
          "internalType": "uint256",
          "name": "",
          "type": "uint256"
        }
      ],
      "stateMutability": "view",
      "type": "function"
    },
    {
      "inputs": [],
      "name": "stableToken",
      "outputs": [
        {
          "internalType": "address",
          "name": "",
          "type": "address"
        }
      ],
      "stateMutability": "view",
      "type": "function"
    },
    {
      "inputs": [],
      "name": "stableVault",
      "outputs": [
        {
          "internalType": "address",
          "name": "",
          "type": "address"
        }
      ],
      "stateMutability": "view",
      "type": "function"
    },
    {
      "inputs": [],
      "name": "stableVaultPosId",
      "outputs": [
        {
          "internalType": "uint256",
          "name": "",
          "type": "uint256"
        }
      ],
      "stateMutability": "view",
      "type": "function"
    },
    {
      "inputs": [],
      "name": "stableVaultWorker",
      "outputs": [
        {
          "internalType": "address",
          "name": "",
          "type": "address"
        }
      ],
      "stateMutability": "view",
      "type": "function"
    },
    {
      "inputs": [],
      "name": "symbol",
      "outputs": [
        {
          "internalType": "string",
          "name": "",
          "type": "string"
        }
      ],
      "stateMutability": "view",
      "type": "function"
    },
    {
      "inputs": [],
      "name": "totalEquityValue",
      "outputs": [
        {
          "internalType": "uint256",
          "name": "",
          "type": "uint256"
        }
      ],
      "stateMutability": "view",
      "type": "function"
    },
    {
      "inputs": [],
      "name": "totalSupply",
      "outputs": [
        {
          "internalType": "uint256",
          "name": "",
          "type": "uint256"
        }
      ],
      "stateMutability": "view",
      "type": "function"
    },
    {
      "inputs": [
        {
          "internalType": "address",
          "name": "to",
          "type": "address"
        },
        {
          "internalType": "uint256",
          "name": "amount",
          "type": "uint256"
        }
      ],
      "name": "transfer",
      "outputs": [
        {
          "internalType": "bool",
          "name": "",
          "type": "bool"
        }
      ],
      "stateMutability": "nonpayable",
      "type": "function"
    },
    {
      "inputs": [
        {
          "internalType": "address",
          "name": "from",
          "type": "address"
        },
        {
          "internalType": "address",
          "name": "to",
          "type": "address"
        },
        {
          "internalType": "uint256",
          "name": "amount",
          "type": "uint256"
        }
      ],
      "name": "transferFrom",
      "outputs": [
        {
          "internalType": "bool",
          "name": "",
          "type": "bool"
        }
      ],
      "stateMutability": "nonpayable",
      "type": "function"
    },
    {
      "inputs": [
        {
          "internalType": "address",
          "name": "newOwner",
          "type": "address"
        }
      ],
      "name": "transferOwnership",
      "outputs": [],
      "stateMutability": "nonpayable",
      "type": "function"
    },
    {
      "inputs": [
        {
          "internalType": "uint256",
          "name": "_value",
          "type": "uint256"
        }
      ],
      "name": "valueToShare",
      "outputs": [
        {
          "internalType": "uint256",
          "name": "",
          "type": "uint256"
        }
      ],
      "stateMutability": "view",
      "type": "function"
    },
    {
      "inputs": [
        {
          "internalType": "uint256",
          "name": "_shareAmount",
          "type": "uint256"
        },
        {
          "internalType": "uint256",
          "name": "_minStableTokenAmount",
          "type": "uint256"
        },
        {
          "internalType": "uint256",
          "name": "_minAssetTokenAmount",
          "type": "uint256"
        },
        {
          "internalType": "bytes",
          "name": "_data",
          "type": "bytes"
        }
      ],
      "name": "withdraw",
      "outputs": [
        {
          "internalType": "uint256",
          "name": "",
          "type": "uint256"
        }
      ],
      "stateMutability": "nonpayable",
      "type": "function"
    },
    {
      "stateMutability": "payable",
      "type": "receive"
    }
  ],
  "transactionHash": "0xf44087b6b1cb014bf1c81c0db60ae84548c3c66fcddbaa53fb0b49319604c69c",
  "args": [],
  "numDeployments": 1,
  "solcInputHash": "80c1d8b85362075366e47aa320ad0d03",
  "bytecode": "0x60806040523480156200001157600080fd5b50600062000020600162000087565b9050801562000039576000805461ff0019166101001790555b801562000080576000805461ff0019169055604051600181527f7f26b83ff96e1f2b6a682f133852f6798a09c465da95921460cefb38474024989060200160405180910390a15b50620001a8565b60008054610100900460ff161562000120578160ff166001148015620000c05750620000be306200019960201b620028901760201c565b155b620001185760405162461bcd60e51b815260206004820152602e6024820152600080516020620060c983398151915260448201526d191e481a5b9a5d1a585b1a5e995960921b60648201526084015b60405180910390fd5b506000919050565b60005460ff8084169116106200017f5760405162461bcd60e51b815260206004820152602e6024820152600080516020620060c983398151915260448201526d191e481a5b9a5d1a585b1a5e995960921b60648201526084016200010f565b506000805460ff191660ff92909216919091179055600190565b6001600160a01b03163b151590565b615f1180620001b86000396000f3fe6080604052600436106102ca5760003560e01c80637a5948cf11610179578063a9d75b2b116100d6578063f2fde38b1161008a578063f97b718611610064578063f97b7186146107d6578063f9e7e7a9146107f6578063fe55892d1461080957600080fd5b8063f2fde38b14610776578063f61ebc3614610796578063f76bdceb146107b657600080fd5b8063d3890ee6116100bb578063d3890ee6146106fa578063dd62ed3e1461071a578063eea7929f1461076057600080fd5b8063a9d75b2b146106ba578063bed65bae146106da57600080fd5b806395d89b411161012d5780639adca65c116101125780639adca65c14610665578063a457c2d71461067a578063a9059cbb1461069a57600080fd5b806395d89b41146106305780639a9a5b521461064557600080fd5b8063818d81491161015e578063818d8149146105dd57806388bf176e146105f25780638da5cb5b1461061257600080fd5b80637a5948cf146105665780637b05fe621461057c57600080fd5b806334cf3b21116102275780636f42f9c7116101db578063715018a6116101c0578063715018a61461051b578063750290da1461053057806379502c551461054657600080fd5b80636f42f9c7146104c557806370a08231146104e557600080fd5b8063441130d51161020c578063441130d51461046f5780634aa187be1461048f5780634b64fcd1146104a557600080fd5b806334cf3b211461043c578063395093511461044f57600080fd5b806318160ddd1161027e5780632630c12f116102635780632630c12f146103ea5780632dcdbd041461040a578063313ce5671461042057600080fd5b806318160ddd146103ab57806323b872dd146103ca57600080fd5b806308660289116102af5780630866028914610323578063095ea7b31461035b5780631083f7611461038b57600080fd5b8063039181a4146102d657806306fdde03146102f857600080fd5b366102d157005b600080fd5b3480156102e257600080fd5b506102f66102f13660046154be565b610829565b005b34801561030457600080fd5b5061030d611030565b60405161031a91906155a6565b60405180910390f35b34801561032f57600080fd5b5060ce54610343906001600160a01b031681565b6040516001600160a01b03909116815260200161031a565b34801561036757600080fd5b5061037b6103763660046155d9565b6110c2565b604051901515815260200161031a565b34801561039757600080fd5b5060d154610343906001600160a01b031681565b3480156103b757600080fd5b506035545b60405190815260200161031a565b3480156103d657600080fd5b5061037b6103e5366004615605565b6110dc565b3480156103f657600080fd5b5060d654610343906001600160a01b031681565b34801561041657600080fd5b506103bc60d35481565b34801561042c57600080fd5b506040516012815260200161031a565b6103bc61044a36600461568f565b611102565b34801561045b57600080fd5b5061037b61046a3660046155d9565b6112b2565b34801561047b57600080fd5b506103bc61048a366004615702565b6112f1565b34801561049b57600080fd5b506103bc60c95481565b3480156104b157600080fd5b506103bc6104c0366004615702565b61132c565b3480156104d157600080fd5b5060cc54610343906001600160a01b031681565b3480156104f157600080fd5b506103bc61050036600461571b565b6001600160a01b031660009081526033602052604090205490565b34801561052757600080fd5b506102f661133f565b34801561053c57600080fd5b506103bc60d55481565b34801561055257600080fd5b5060d754610343906001600160a01b031681565b34801561057257600080fd5b506103bc60ca5481565b34801561058857600080fd5b506105916113a5565b60405161031a9190600060c082019050825182526020830151602083015260408301516040830152606083015160608301526080830151608083015260a083015160a083015292915050565b3480156105e957600080fd5b506103bc61158f565b3480156105fe57600080fd5b506102f661060d36600461571b565b61164a565b34801561061e57600080fd5b506097546001600160a01b0316610343565b34801561063c57600080fd5b5061030d61175e565b34801561065157600080fd5b506102f6610660366004615738565b61176d565b34801561067157600080fd5b506103bc611bc8565b34801561068657600080fd5b5061037b6106953660046155d9565b611d39565b3480156106a657600080fd5b5061037b6106b53660046155d9565b611dee565b3480156106c657600080fd5b5060d054610343906001600160a01b031681565b3480156106e657600080fd5b5060d254610343906001600160a01b031681565b34801561070657600080fd5b5060cf54610343906001600160a01b031681565b34801561072657600080fd5b506103bc610735366004615833565b6001600160a01b03918216600090815260346020908152604080832093909416825291909152205490565b34801561076c57600080fd5b506103bc60d45481565b34801561078257600080fd5b506102f661079136600461571b565b611dfc565b3480156107a257600080fd5b5060cd54610343906001600160a01b031681565b3480156107c257600080fd5b506102f66107d136600461571b565b611ede565b3480156107e257600080fd5b506102f66107f136600461586c565b612074565b6102f66108043660046158f4565b612350565b34801561081557600080fd5b506103bc6108243660046158f4565b612549565b60d7546040516312440ccb60e01b81523360048201526001600160a01b03909116906312440ccb90602401602060405180830381865afa158015610871573d6000803e3d6000fd5b505050506040513d601f19601f820116820180604052508101906108959190615955565b6108b957604051639522ebb960e01b81523360048201526024015b60405180910390fd5b60d7546040805163f679eda160e01b815290516000926001600160a01b03169163f679eda191600480830192869291908290030181865afa158015610902573d6000803e3d6000fd5b505050506040513d6000823e601f3d908101601f1916820160405261092a9190810190615977565b9050600060d760009054906101000a90046001600160a01b03166001600160a01b031663956c9da06040518163ffffffff1660e01b8152600401602060405180830381865afa158015610981573d6000803e3d6000fd5b505050506040513d601f19601f820116820180604052508101906109a59190615a06565b9050600060d760009054906101000a90046001600160a01b03166001600160a01b031663f52c67646040518163ffffffff1660e01b8152600401602060405180830381865afa1580156109fc573d6000803e3d6000fd5b505050506040513d601f19601f82011682018060405250810190610a209190615a06565b90508251600003610a4457604051630311631360e41b815260040160405180910390fd5b6000610a4e611bc8565b9050600060d760009054906101000a90046001600160a01b03166001600160a01b0316635c23aed66040518163ffffffff1660e01b8152600401602060405180830381865afa158015610aa5573d6000803e3d6000fd5b505050506040513d601f19601f82011682018060405250810190610ac99190615a1f565b9050806001600160a01b031663ddc6326260cc60009054906101000a90046001600160a01b03166001600160a01b03166381a47ba96040518163ffffffff1660e01b8152600401602060405180830381865afa158015610b2d573d6000803e3d6000fd5b505050506040513d601f19601f82011682018060405250810190610b519190615a06565b6040518263ffffffff1660e01b8152600401610b6f91815260200190565b600060405180830381600087803b158015610b8957600080fd5b505af1158015610b9d573d6000803e3d6000fd5b50505050806001600160a01b031663ddc6326260cd60009054906101000a90046001600160a01b03166001600160a01b03166381a47ba96040518163ffffffff1660e01b8152600401602060405180830381865afa158015610c03573d6000803e3d6000fd5b505050506040513d601f19601f82011682018060405250810190610c279190615a06565b6040518263ffffffff1660e01b8152600401610c4591815260200190565b600060405180830381600087803b158015610c5f57600080fd5b505af1158015610c73573d6000803e3d6000fd5b505060d2546040516370a0823160e01b8152306004820152600093506001600160a01b0390911691506370a0823190602401602060405180830381865afa158015610cc2573d6000803e3d6000fd5b505050506040513d601f19601f82011682018060405250810190610ce69190615a06565b90506000612710610cf78388615a52565b610d019190615a71565b90506000612710610d128784615a52565b610d1c9190615a71565b90508015610da65760d754604080516328d87d0160e21b81529051610da6926001600160a01b03169163a361f4049160048083019260209291908290030181865afa158015610d6f573d6000803e3d6000fd5b505050506040513d601f19601f82011682018060405250810190610d939190615a1f565b60d2546001600160a01b0316908361289f565b60d75460408051632caea76760e11b81529051610e32926001600160a01b03169163595d4ece9160048083019260209291908290030181865afa158015610df1573d6000803e3d6000fd5b505050506040513d601f19601f82011682018060405250810190610e159190615a1f565b610e1f8385615a93565b60d2546001600160a01b0316919061289f565b6000610e3e8385615a93565b9050600060d760009054906101000a90046001600160a01b03166001600160a01b031663725c9c496040518163ffffffff1660e01b8152600401602060405180830381865afa158015610e95573d6000803e3d6000fd5b505050506040513d601f19601f82011682018060405250810190610eb99190615a1f565b60d25460405163095ea7b360e01b81526001600160a01b0380841660048301526024820186905292935091169063095ea7b3906044016020604051808303816000875af1158015610f0e573d6000803e3d6000fd5b505050506040513d601f19601f82011682018060405250810190610f329190615955565b506040516338ed173960e01b81526001600160a01b038216906338ed173990610f679085908f908f9030904290600401615aaa565b6000604051808303816000875af1158015610f86573d6000803e3d6000fd5b505050506040513d6000823e601f3d908101601f19168201604052610fae9190810190615b1b565b50610fba8e8e8e612934565b6000610fc4611bc8565b9050878111610fe65760405163bfe2242360e01b815260040160405180910390fd5b60408051898152602081018390527fe6bb7c24aa843f59d79d6b94019e6ecc020b0f84209c95cfbda2bc22d629db91910160405180910390a1505050505050505050505050505050565b60606036805461103f90615ba1565b80601f016020809104026020016040519081016040528092919081815260200182805461106b90615ba1565b80156110b85780601f1061108d576101008083540402835291602001916110b8565b820191906000526020600020905b81548152906001019060200180831161109b57829003601f168201915b5050505050905090565b6000336110d0818585612ac8565b60019150505b92915050565b6000336110ea858285612bec565b6110f5858585612c78565b60019150505b9392505050565b6000333214801590611196575060d7546040517fffc97ce90000000000000000000000000000000000000000000000000000000081523360048201526001600160a01b039091169063ffc97ce990602401602060405180830381865afa158015611170573d6000803e3d6000fd5b505050506040513d601f19601f820116820180604052508101906111949190615955565b155b156111b657604051639522ebb960e01b81523360048201526024016108b0565b6111be612e75565b6002606554036112105760405162461bcd60e51b815260206004820152601f60248201527f5265656e7472616e637947756172643a207265656e7472616e742063616c6c0060448201526064016108b0565b6002606555600061121f6113a5565b9050600061122b612ef1565b905034816040015161123d9190615a93565b604082015260d054611258906001600160a01b03168a61300d565b60d15461126e906001600160a01b03168961300d565b6000808061127e8789018961586c565b92509250925061128f838383612934565b5050506112a089898989868661312d565b60016065559998505050505050505050565b3360008181526034602090815260408083206001600160a01b03871684529091528120549091906110d090829086906112ec908790615bdb565b612ac8565b6000806112fc61158f565b6035546113099190615bdb565b90508060000361131a575090919050565b6110fb83611326611bc8565b83613393565b60006110d68261133a611bc8565b613441565b6097546001600160a01b031633146113995760405162461bcd60e51b815260206004820181905260248201527f4f776e61626c653a2063616c6c6572206973206e6f7420746865206f776e657260448201526064016108b0565b6113a3600061347f565b565b6113de6040518060c001604052806000815260200160008152602001600081526020016000815260200160008152602001600081525090565b60ce5460408051636846c1ef60e01b815290516000926001600160a01b031691636846c1ef9160048083019260209291908290030181865afa158015611428573d6000803e3d6000fd5b505050506040513d601f19601f8201168201806040525081019061144c9190615a06565b9050600060cf60009054906101000a90046001600160a01b03166001600160a01b0316636846c1ef6040518163ffffffff1660e01b8152600401602060405180830381865afa1580156114a3573d6000803e3d6000fd5b505050506040513d601f19601f820116820180604052508101906114c79190615a06565b905060006114d4836134d1565b905060006114e1836134d1565b60cc5460d35460c954929350600092611504926001600160a01b03169190613588565b60cd5460d45460ca54929350600092611527926001600160a01b03169190613588565b90506040518060c0016040528083861161154257600061154c565b61154c8487615a93565b815260200183815260200187815260200182851161156b576000611575565b6115758386615a93565b815260200182815260200186815250965050505050505090565b60008060d554426115a09190615a93565b9050670de0b6b3a76400008160d760009054906101000a90046001600160a01b03166001600160a01b031663b192362a6040518163ffffffff1660e01b8152600401602060405180830381865afa1580156115ff573d6000803e3d6000fd5b505050506040513d601f19601f820116820180604052508101906116239190615a06565b6035546116309190615a52565b61163a9190615a52565b6116449190615a71565b91505090565b6097546001600160a01b031633146116a45760405162461bcd60e51b815260206004820181905260248201527f4f776e61626c653a2063616c6c6572206973206e6f7420746865206f776e657260448201526064016108b0565b806001600160a01b031663f9bfd9076040518163ffffffff1660e01b8152600401602060405180830381865afa1580156116e2573d6000803e3d6000fd5b505050506040513d601f19601f820116820180604052508101906117069190615a06565b5060d780546001600160a01b0319166001600160a01b03831690811790915560405190815233907f4c4e26f7e535fa16e67156cd4fd4745854600b1d1a79a7cdf63f771cbc24a933906020015b60405180910390a250565b60606037805461103f90615ba1565b60006117796001613800565b90508015611791576000805461ff0019166101001790555b61179961391b565b6117a161398e565b6118258d8d8080601f016020809104026020016040519081016040528093929190818152602001838380828437600081840152601f19601f820116905080830192505050505050508c8c8080601f016020809104026020016040519081016040528093929190818152602001838380828437600092019190915250613a0192505050565b60cc80546001600160a01b03808c166001600160a01b0319928316811790935560cd8054918c169190921617905560408051637e062a3560e11b8152905163fc0c546a916004808201926020929091908290030181865afa15801561188e573d6000803e3d6000fd5b505050506040513d601f19601f820116820180604052508101906118b29190615a1f565b60d060006101000a8154816001600160a01b0302191690836001600160a01b03160217905550876001600160a01b031663fc0c546a6040518163ffffffff1660e01b8152600401602060405180830381865afa158015611916573d6000803e3d6000fd5b505050506040513d601f19601f8201168201806040525081019061193a9190615a1f565b60d180546001600160a01b03199081166001600160a01b039384161790915560d28054821687841617905560ce805482168a841617905560cf8054821689841617905560cb8054821688841617905560d68054821686841617905560d7805490911684831617905560d0546119af9116613a76565b60c95560d1546119c7906001600160a01b0316613a76565b60ca5560cf5460408051635fcbd28560e01b815290516001600160a01b0390921691635fcbd285916004808201926020929091908290030181865afa158015611a14573d6000803e3d6000fd5b505050506040513d601f19601f82011682018060405250810190611a389190615a1f565b60cb546001600160a01b039081169116141580611ada575060ce60009054906101000a90046001600160a01b03166001600160a01b0316635fcbd2856040518163ffffffff1660e01b8152600401602060405180830381865afa158015611aa3573d6000803e3d6000fd5b505050506040513d601f19601f82011682018060405250810190611ac79190615a1f565b60cb546001600160a01b03908116911614155b15611af857604051631d56588360e01b815260040160405180910390fd5b60d2546001600160a01b0316611b2157604051633112618760e21b815260040160405180910390fd5b60d6546001600160a01b0316611b4a57604051633112618760e21b815260040160405180910390fd5b60d7546001600160a01b0316611b7357604051633112618760e21b815260040160405180910390fd5b8015611bb9576000805461ff0019169055604051600181527f7f26b83ff96e1f2b6a682f133852f6798a09c465da95921460cefb38474024989060200160405180910390a15b50505050505050505050505050565b600080611ccb60cf60009054906101000a90046001600160a01b03166001600160a01b0316636846c1ef6040518163ffffffff1660e01b8152600401602060405180830381865afa158015611c21573d6000803e3d6000fd5b505050506040513d601f19601f82011682018060405250810190611c459190615a06565b60ce60009054906101000a90046001600160a01b03166001600160a01b0316636846c1ef6040518163ffffffff1660e01b8152600401602060405180830381865afa158015611c98573d6000803e3d6000fd5b505050506040513d601f19601f82011682018060405250810190611cbc9190615a06565b611cc69190615bdb565b6134d1565b60cd5460d45460ca54929350600092611cee926001600160a01b03169190613588565b60cc5460d35460c954611d0b926001600160a01b03169190613588565b611d159190615bdb565b905080821015611d285760009250505090565b611d328183615a93565b9250505090565b3360008181526034602090815260408083206001600160a01b038716845290915281205490919083811015611dd65760405162461bcd60e51b815260206004820152602560248201527f45524332303a2064656372656173656420616c6c6f77616e63652062656c6f7760448201527f207a65726f00000000000000000000000000000000000000000000000000000060648201526084016108b0565b611de38286868403612ac8565b506001949350505050565b6000336110d0818585612c78565b6097546001600160a01b03163314611e565760405162461bcd60e51b815260206004820181905260248201527f4f776e61626c653a2063616c6c6572206973206e6f7420746865206f776e657260448201526064016108b0565b6001600160a01b038116611ed25760405162461bcd60e51b815260206004820152602660248201527f4f776e61626c653a206e6577206f776e657220697320746865207a65726f206160448201527f646472657373000000000000000000000000000000000000000000000000000060648201526084016108b0565b611edb8161347f565b50565b6097546001600160a01b03163314611f385760405162461bcd60e51b815260206004820181905260248201527f4f776e61626c653a2063616c6c6572206973206e6f7420746865206f776e657260448201526064016108b0565b60d054604051630681320d60e51b81526001600160a01b0391821660048201529082169063d02641a0906024016040805180830381865afa158015611f81573d6000803e3d6000fd5b505050506040513d601f19601f82011682018060405250810190611fa59190615bf3565b505060cb5460405163125d417960e11b8152670de0b6b3a764000060048201526001600160a01b039182166024820152908216906324ba82f2906044016040805180830381865afa158015611ffe573d6000803e3d6000fd5b505050506040513d601f19601f820116820180604052508101906120229190615bf3565b505060d680546001600160a01b0319166001600160a01b03831690811790915560405190815233907f13027f79696db4396ef144413ce4dcfeb9a142e11b5035a756171cf0a87102cd90602001611753565b60d7546040516309e81c6d60e31b81523360048201526001600160a01b0390911690634f40e36890602401602060405180830381865afa1580156120bc573d6000803e3d6000fd5b505050506040513d601f19601f820116820180604052508101906120e09190615955565b6120ff57604051639522ebb960e01b81523360048201526024016108b0565b612107612e75565b60006121116113a5565b9050600061211d612ef1565b90506000826020015183600001516121359190615bdb565b905060008360800151846060015161214d9190615bdb565b90506000846060015185600001516121659190615bdb565b9050600060d760009054906101000a90046001600160a01b03166001600160a01b031663629694676040518163ffffffff1660e01b8152600401602060405180830381865afa1580156121bc573d6000803e3d6000fd5b505050506040513d601f19601f820116820180604052508101906121e09190615a06565b60208701519091506121f59061271090615a52565b6121ff8286615a52565b101580156122275750608086015161221a9061271090615a52565b6122248285615a52565b10155b15612245576040516352a729d560e01b815260040160405180910390fd5b612250898989612934565b600061225a611bc8565b90506122dd818460d760009054906101000a90046001600160a01b03166001600160a01b031663f9bfd9076040518163ffffffff1660e01b8152600401602060405180830381865afa1580156122b4573d6000803e3d6000fd5b505050506040513d601f19601f820116820180604052508101906122d89190615a06565b613b2e565b6122fa5760405163ed73742f60e01b815260040160405180910390fd5b61230b86612306612ef1565b613b72565b60408051848152602081018390527fedfa59b02a4232c93ca4d57fcbbd75be9747bfa821007cfcd8f36528365ec4ce910160405180910390a150505050505050505050565b6097546001600160a01b031633146123aa5760405162461bcd60e51b815260206004820181905260248201527f4f776e61626c653a2063616c6c6572206973206e6f7420746865206f776e657260448201526064016108b0565b60d3541515806123bb575060d45415155b156123d957604051632a5911df60e01b815260040160405180910390fd5b60d7805460ff60a01b19167401000000000000000000000000000000000000000017905560cc5460408051631c82490560e01b815290516001600160a01b0390921691631c824905916004808201926020929091908290030181865afa158015612447573d6000803e3d6000fd5b505050506040513d601f19601f8201168201806040525081019061246b9190615a06565b60d35560cd5460408051631c82490560e01b815290516001600160a01b0390921691631c824905916004808201926020929091908290030181865afa1580156124b8573d6000803e3d6000fd5b505050506040513d601f19601f820116820180604052508101906124dc9190615a06565b60d4556124ed858533868686611102565b5060d7805460ff60a01b1916905560d35460d45460405133927fe2d052c98bda8dadf8c77273d35910976d1eaac81fdbf05b38b5ee4cf8742b229261253a92918252602082015260400190565b60405180910390a25050505050565b60003332148015906125dd575060d7546040517fffc97ce90000000000000000000000000000000000000000000000000000000081523360048201526001600160a01b039091169063ffc97ce990602401602060405180830381865afa1580156125b7573d6000803e3d6000fd5b505050506040513d601f19601f820116820180604052508101906125db9190615955565b155b156125fd57604051639522ebb960e01b81523360048201526024016108b0565b612605612e75565b6002606554036126575760405162461bcd60e51b815260206004820152601f60248201527f5265656e7472616e637947756172643a207265656e7472616e742063616c6c0060448201526064016108b0565b6002606555600086900361267e57604051630fd5e85760e11b815260040160405180910390fd5b60006126886113a5565b90506000612694612ef1565b60d754604051633924f23360e01b81523360048201529192506000916001600160a01b0390911690633924f233906024016020604051808303816000875af11580156126e4573d6000803e3d6000fd5b505050506040513d601f19601f820116820180604052508101906127089190615955565b61278a5760d760009054906101000a90046001600160a01b03166001600160a01b03166304336bb36040518163ffffffff1660e01b81526004016020604051808303816000875af1158015612761573d6000803e3d6000fd5b505050506040513d601f19601f820116820180604052508101906127859190615a06565b61278d565b60005b905060006127108a61279f8483615a93565b6127a99190615a52565b6127b39190615a71565b905060006127c0826112f1565b90506127cc338c613c49565b60d7546040805163698d92cb60e01b8152905161284a926001600160a01b03169163698d92cb9160048083019260209291908290030181865afa158015612817573d6000803e3d6000fd5b505050506040513d601f19601f8201168201806040525081019061283b9190615a1f565b612845848e615a93565b613d97565b6000808061285a8a8c018c61586c565b92509250925061286b838383612934565b50505061287c8b8b8b848989613e76565b60016065559b9a5050505050505050505050565b6001600160a01b03163b151590565b6040516001600160a01b03831660248201526044810182905261292f90849063a9059cbb60e01b906064015b60408051601f198184030181529190526020810180517bffffffffffffffffffffffffffffffffffffffffffffffffffffffff167fffffffff0000000000000000000000000000000000000000000000000000000090931692909217909152614228565b505050565b8151835114158061294757508051835114155b15612965576040516306e2a74f60e31b815260040160405180910390fd5b60005b8351811015612ac257600084828151811061298557612985615c17565b60200260200101519050600160ff168160ff16036129bf576129bf8383815181106129b2576129b2615c17565b602002602001015161430d565b60011960ff821601612aaf5760d760009054906101000a90046001600160a01b03166001600160a01b031663ef3bac5e6040518163ffffffff1660e01b8152600401602060405180830381865afa158015612a1e573d6000803e3d6000fd5b505050506040513d601f19601f82011682018060405250810190612a429190615a1f565b6001600160a01b031663d0e30db0858481518110612a6257612a62615c17565b60200260200101516040518263ffffffff1660e01b81526004016000604051808303818588803b158015612a9557600080fd5b505af1158015612aa9573d6000803e3d6000fd5b50505050505b5080612aba81615c2d565b915050612968565b50505050565b6001600160a01b038316612b2a5760405162461bcd60e51b8152602060048201526024808201527f45524332303a20617070726f76652066726f6d20746865207a65726f206164646044820152637265737360e01b60648201526084016108b0565b6001600160a01b038216612b8b5760405162461bcd60e51b815260206004820152602260248201527f45524332303a20617070726f766520746f20746865207a65726f206164647265604482015261737360f01b60648201526084016108b0565b6001600160a01b0383811660008181526034602090815260408083209487168084529482529182902085905590518481527f8c5be1e5ebec7d5bd14f71427d1e84f3dd0314c0f7b2291e5b200ac8c7c3b925910160405180910390a3505050565b6001600160a01b038381166000908152603460209081526040808320938616835292905220546000198114612ac25781811015612c6b5760405162461bcd60e51b815260206004820152601d60248201527f45524332303a20696e73756666696369656e7420616c6c6f77616e636500000060448201526064016108b0565b612ac28484848403612ac8565b6001600160a01b038316612cf45760405162461bcd60e51b815260206004820152602560248201527f45524332303a207472616e736665722066726f6d20746865207a65726f20616460448201527f647265737300000000000000000000000000000000000000000000000000000060648201526084016108b0565b6001600160a01b038216612d565760405162461bcd60e51b815260206004820152602360248201527f45524332303a207472616e7366657220746f20746865207a65726f206164647260448201526265737360e81b60648201526084016108b0565b6001600160a01b03831660009081526033602052604090205481811015612de55760405162461bcd60e51b815260206004820152602660248201527f45524332303a207472616e7366657220616d6f756e742065786365656473206260448201527f616c616e6365000000000000000000000000000000000000000000000000000060648201526084016108b0565b6001600160a01b03808516600090815260336020526040808220858503905591851681529081208054849290612e1c908490615bdb565b92505081905550826001600160a01b0316846001600160a01b03167fddf252ad1be2c89b69c2b068fc378daa952ba7f163c4a11628f55a4df523b3ef84604051612e6891815260200190565b60405180910390a3612ac2565b60d754604080516245b61b60e81b81529051612eeb926001600160a01b0316916345b61b009160048083019260209291908290030181865afa158015612ebf573d6000803e3d6000fd5b505050506040513d601f19601f82011682018060405250810190612ee39190615a1f565b61284561158f565b4260d555565b612f1560405180606001604052806000815260200160008152602001600081525090565b60408051606081019182905260d0546370a0823160e01b9092523060648201529081906001600160a01b03166370a0823160848301602060405180830381865afa158015612f67573d6000803e3d6000fd5b505050506040513d601f19601f82011682018060405250810190612f8b9190615a06565b815260d1546040516370a0823160e01b81523060048201526020909201916001600160a01b03909116906370a0823190602401602060405180830381865afa158015612fdb573d6000803e3d6000fd5b505050506040513d601f19601f82011682018060405250810190612fff9190615a06565b815260200147815250905090565b60d760009054906101000a90046001600160a01b03166001600160a01b031663ef3bac5e6040518163ffffffff1660e01b8152600401602060405180830381865afa158015613060573d6000803e3d6000fd5b505050506040513d601f19601f820116820180604052508101906130849190615a1f565b6001600160a01b0316826001600160a01b031603613114578034146130bc57604051631741454360e31b815260040160405180910390fd5b816001600160a01b031663d0e30db0826040518263ffffffff1660e01b81526004016000604051808303818588803b1580156130f757600080fd5b505af115801561310b573d6000803e3d6000fd5b50505050505050565b6131296001600160a01b0383163330846144ce565b5050565b6000806131386113a5565b905060006131468286614506565b9050600060d760009054906101000a90046001600160a01b03166001600160a01b031663f77c47916040518163ffffffff1660e01b8152600401602060405180830381865afa15801561319d573d6000803e3d6000fd5b505050506040513d601f19601f820116820180604052508101906131c19190615a1f565b90506001600160a01b038116158015906132415750604051635886216f60e01b81523360048201526001600160a01b03821690635886216f90602401602060405180830381865afa15801561321a573d6000803e3d6000fd5b505050506040513d601f19601f8201168201806040525081019061323e9190615a06565b82115b1561325f57604051637f84ae1560e01b815260040160405180910390fd5b6000613279838860600151896000015161133a9190615bdb565b9050878110156132a657604051630968dbbb60e31b815260048101899052602481018290526044016108b0565b6132b08982613d97565b6132bb838886614590565b6132c786612306612ef1565b6001600160a01b0382161561333757604051630afe546360e21b8152336004820152602481018290526001600160a01b03831690632bf9518c90604401600060405180830381600087803b15801561331e57600080fd5b505af1158015613332573d6000803e3d6000fd5b505050505b60408051828152602081018d90529081018b90526001600160a01b038a169033907fab14747d46633612ff5c029a3117f98ffb6506ebf31bab40972f911b7dd188919060600160405180910390a39a9950505050505050505050565b60008080600019858709858702925082811083820303915050806000036133cc57600084116133c157600080fd5b5082900490506110fb565b8084116133d857600080fd5b60008486880960026001871981018816978890046003810283188082028403028082028403028082028403028082028403028082028403029081029092039091026000889003889004909101858311909403939093029303949094049190911702949350505050565b60008061344c61158f565b6035546134599190615bdb565b90508060000361346c57839150506110d6565b613477848285613393565b949350505050565b609780546001600160a01b038381166001600160a01b0319831681179093556040519116919082907f8be0079c531659141344cd1fd0a4f28419497f9722a3daafe3b4186f6b6457e090600090a35050565b60d65460cb5460405163125d417960e11b8152600481018490526001600160a01b039182166024820152600092839283929116906324ba82f2906044015b6040805180830381865afa15801561352b573d6000803e3d6000fd5b505050506040513d601f19601f8201168201806040525081019061354f9190615bf3565b9092509050620151806135628242615a93565b111561358157604051634efe81e560e01b815260040160405180910390fd5b5092915050565b60405163133f757160e31b81526004810183905260009081906001600160a01b038616906399fbab8890602401606060405180830381865afa1580156135d2573d6000803e3d6000fd5b505050506040513d601f19601f820116820180604052508101906135f69190615c46565b925050506000856001600160a01b031663fc0c546a6040518163ffffffff1660e01b8152600401602060405180830381865afa15801561363a573d6000803e3d6000fd5b505050506040513d601f19601f8201168201806040525081019061365e9190615a1f565b90506000866001600160a01b03166376c46b7b6040518163ffffffff1660e01b8152600401602060405180830381865afa1580156136a0573d6000803e3d6000fd5b505050506040513d601f19601f820116820180604052508101906136c49190615a06565b9050806000036136f4576136ea6136da836148ed565b6136e48786615a52565b90614926565b93505050506110fb565b604051632fc11c0f60e01b8152600060048201819052906001600160a01b03891690632fc11c0f90602401602060405180830381865afa15801561373c573d6000803e3d6000fd5b505050506040513d601f19601f820116820180604052508101906137609190615a06565b886001600160a01b0316630a355d7d6040518163ffffffff1660e01b8152600401602060405180830381865afa15801561379e573d6000803e3d6000fd5b505050506040513d601f19601f820116820180604052508101906137c29190615a06565b6137cc9190615bdb565b905060006137db858385613393565b90506137f36137e9856148ed565b6136e48984615a52565b9998505050505050505050565b60008054610100900460ff161561388e578160ff1660011480156138235750303b155b6138865760405162461bcd60e51b815260206004820152602e60248201527f496e697469616c697a61626c653a20636f6e747261637420697320616c72656160448201526d191e481a5b9a5d1a585b1a5e995960921b60648201526084016108b0565b506000919050565b60005460ff8084169116106138fc5760405162461bcd60e51b815260206004820152602e60248201527f496e697469616c697a61626c653a20636f6e747261637420697320616c72656160448201526d191e481a5b9a5d1a585b1a5e995960921b60648201526084016108b0565b506000805460ff191660ff92909216919091179055600190565b919050565b600054610100900460ff166139865760405162461bcd60e51b815260206004820152602b60248201527f496e697469616c697a61626c653a20636f6e7472616374206973206e6f74206960448201526a6e697469616c697a696e6760a81b60648201526084016108b0565b6113a361493b565b600054610100900460ff166139f95760405162461bcd60e51b815260206004820152602b60248201527f496e697469616c697a61626c653a20636f6e7472616374206973206e6f74206960448201526a6e697469616c697a696e6760a81b60648201526084016108b0565b6113a36149af565b600054610100900460ff16613a6c5760405162461bcd60e51b815260206004820152602b60248201527f496e697469616c697a61626c653a20636f6e7472616374206973206e6f74206960448201526a6e697469616c697a696e6760a81b60648201526084016108b0565b6131298282614a21565b600080826001600160a01b031663313ce5676040518163ffffffff1660e01b8152600401602060405180830381865afa158015613ab7573d6000803e3d6000fd5b505050506040513d601f19601f82011682018060405250810190613adb9190615c89565b60ff1690506012811115613b05576040516305a2eafd60e51b8152600481018290526024016108b0565b80601203613b165750600192915050565b6000613b23826012615a93565b61347790600a615d8a565b600080613b3b8585614ab3565b9050613b478184615a52565b613b518686614aca565b613b5b9083615a93565b613b6790612710615a52565b111595945050505050565b815181511015613bb55760d054825182516040516337258c1960e01b81526001600160a01b039093166004840152602483019190915260448201526064016108b0565b816020015181602001511015613c045760d154602083810151908301516040516337258c1960e01b81526001600160a01b039093166004840152602483019190915260448201526064016108b0565b816040015181604001511015613129576040808301518282015191516337258c1960e01b815260006004820152602481019190915260448101919091526064016108b0565b6001600160a01b038216613ca95760405162461bcd60e51b815260206004820152602160248201527f45524332303a206275726e2066726f6d20746865207a65726f206164647265736044820152607360f81b60648201526084016108b0565b6001600160a01b03821660009081526033602052604090205481811015613d1d5760405162461bcd60e51b815260206004820152602260248201527f45524332303a206275726e20616d6f756e7420657863656564732062616c616e604482015261636560f01b60648201526084016108b0565b6001600160a01b0383166000908152603360205260408120838303905560358054849290613d4c908490615a93565b90915550506040518281526000906001600160a01b038516907fddf252ad1be2c89b69c2b068fc378daa952ba7f163c4a11628f55a4df523b3ef9060200160405180910390a3505050565b6001600160a01b038216613ded5760405162461bcd60e51b815260206004820152601f60248201527f45524332303a206d696e7420746f20746865207a65726f20616464726573730060448201526064016108b0565b8060356000828254613dff9190615bdb565b90915550506001600160a01b03821660009081526033602052604081208054839290613e2c908490615bdb565b90915550506040518181526001600160a01b038316906000907fddf252ad1be2c89b69c2b068fc378daa952ba7f163c4a11628f55a4df523b3ef9060200160405180910390a35050565b600080613e816113a5565b90506000613e8d612ef1565b9050600060d760009054906101000a90046001600160a01b03166001600160a01b031663ef3bac5e6040518163ffffffff1660e01b8152600401602060405180830381865afa158015613ee4573d6000803e3d6000fd5b505050506040513d601f19601f82011682018060405250810190613f089190615a1f565b60d0546001600160a01b03908116911614613f305784518251613f2b9190615a93565b613f44565b84604001518260400151613f449190615a93565b9050600060d760009054906101000a90046001600160a01b03166001600160a01b031663ef3bac5e6040518163ffffffff1660e01b8152600401602060405180830381865afa158015613f9b573d6000803e3d6000fd5b505050506040513d601f19601f82011682018060405250810190613fbf9190615a1f565b60d1546001600160a01b03908116911614613fed5785602001518360200151613fe89190615a93565b614001565b856040015183604001516140019190615a93565b9050898210156140415760d054604051637e318ff960e11b81526001600160a01b039091166004820152602481018b9052604481018390526064016108b0565b8881101561407f5760d154604051637e318ff960e11b81526001600160a01b039091166004820152602481018a9052604481018290526064016108b0565b600061408b8886614506565b9050808910156140b8576040516389454dc160e01b815260048101829052602481018a90526044016108b0565b6140c3898987614ad9565b6140cd8785613b72565b60d0546140e59033906001600160a01b031685614dc0565b60d1546140fd9033906001600160a01b031684614dc0565b60d7546040805163f77c479160e01b815290516000926001600160a01b03169163f77c47919160048083019260209291908290030181865afa158015614147573d6000803e3d6000fd5b505050506040513d601f19601f8201168201806040525081019061416b9190615a1f565b90506001600160a01b038116156141dd5760405163ccad973d60e01b8152326004820152602481018e90526001600160a01b0382169063ccad973d90604401600060405180830381600087803b1580156141c457600080fd5b505af11580156141d8573d6000803e3d6000fd5b505050505b604080518581526020810185905233917fda9a10d7b992511ddadbfc7ff712c1424ce2058bbcdac8c9876d6f8de590d43f910160405180910390a2509b9a5050505050505050505050565b600061427d826040518060400160405280602081526020017f5361666545524332303a206c6f772d6c6576656c2063616c6c206661696c6564815250856001600160a01b0316614e6d9092919063ffffffff16565b80519091501561292f578080602001905181019061429b9190615955565b61292f5760405162461bcd60e51b815260206004820152602a60248201527f5361666545524332303a204552433230206f7065726174696f6e20646964206e60448201527f6f7420737563636565640000000000000000000000000000000000000000000060648201526084016108b0565b60d354158061431c575060d454155b1561433a57604051633f8ef80760e01b815260040160405180910390fd5b6000806000806000806000878060200190518101906143599190615d96565b965096509650965096509650965060d760149054906101000a900460ff1660ff166001141580156143c9575060cc546001600160a01b0388811691161480156143a3575060d35486145b806143c7575060cd546001600160a01b0388811691161480156143c7575060d45486145b155b156143f9576040516325c502df60e01b81526001600160a01b0388166004820152602481018790526044016108b0565b60d054614412906001600160a01b031688600019614e7c565b60d15461442b906001600160a01b031688600019614e7c565b60405163d72ef77160e01b81526001600160a01b0388169063d72ef7719061446190899089908990899089908990600401615e5e565b600060405180830381600087803b15801561447b57600080fd5b505af115801561448f573d6000803e3d6000fd5b505060d0546144ac92506001600160a01b03169050886000614e7c565b60d1546144c4906001600160a01b0316886000614e7c565b5050505050505050565b6040516001600160a01b0380851660248301528316604482015260648101829052612ac29085906323b872dd60e01b906084016128cb565b6000808260a00151836040015161451d9190615bdb565b8460a0015185604001516145319190615bdb565b61453b9190615a93565b90506000836080015184602001516145539190615bdb565b856080015186602001516145679190615bdb565b6145719190615a93565b90508061457d836134d1565b6145879190615a93565b95945050505050565b60d7546040805163f9bfd90760e01b815290516000926001600160a01b03169163f9bfd9079160048083019260209291908290030181865afa1580156145da573d6000803e3d6000fd5b505050506040513d601f19601f820116820180604052508101906145fe9190615a06565b9050600060d760009054906101000a90046001600160a01b03166001600160a01b031663e592c5fa6040518163ffffffff1660e01b8152600401602060405180830381865afa158015614655573d6000803e3d6000fd5b505050506040513d601f19601f820116820180604052508101906146799190615c89565b90506000836080015184606001518560200151866000015161469b9190615bdb565b6146a59190615bdb565b6146af9190615bdb565b60d754604051633582406160e01b8152600481018390529192506001600160a01b031690633582406190602401602060405180830381865afa1580156146f9573d6000803e3d6000fd5b505050506040513d601f19601f8201168201806040525081019061471d9190615955565b61473a576040516308b2d32960e11b815260040160405180910390fd5b600060026147488482615ea4565b6147529190615ec5565b60ff16614760600285615ec5565b61476d9060ff1689615a52565b6147779190615a71565b9050600060026147878582615ea4565b6147919190615ec5565b60ff168460ff16896147a39190615a52565b6147ad9190615a71565b90506000876020015187602001516147c59190615a93565b90506000886080015188608001516147dd9190615a93565b90506000826147f98b604001518b60400151611cc69190615a93565b6148039190615a93565b905060008261481f8c60a001518c60a00151611cc69190615a93565b6148299190615a93565b905061483682878b613b2e565b158061484a575061484881868b613b2e565b155b156148685760405163bfe2242360e01b815260040160405180910390fd5b600061487560018a615ec5565b6148829060ff1688615a52565b9050600061489160018b615ec5565b61489e9060ff1688615a52565b90506148ab86838d613b2e565b15806148bf57506148bd85828d613b2e565b155b156148dd57604051638cc3aa7d60e01b815260040160405180910390fd5b5050505050505050505050505050565b60d654604051630681320d60e51b81526001600160a01b038381166004830152600092839283929091169063d02641a09060240161350f565b60006110fb8383670de0b6b3a7640000614f98565b600054610100900460ff166149a65760405162461bcd60e51b815260206004820152602b60248201527f496e697469616c697a61626c653a20636f6e7472616374206973206e6f74206960448201526a6e697469616c697a696e6760a81b60648201526084016108b0565b6113a33361347f565b600054610100900460ff16614a1a5760405162461bcd60e51b815260206004820152602b60248201527f496e697469616c697a61626c653a20636f6e7472616374206973206e6f74206960448201526a6e697469616c697a696e6760a81b60648201526084016108b0565b6001606555565b600054610100900460ff16614a8c5760405162461bcd60e51b815260206004820152602b60248201527f496e697469616c697a61626c653a20636f6e7472616374206973206e6f74206960448201526a6e697469616c697a696e6760a81b60648201526084016108b0565b8151614a9f9060369060208501906151f5565b50805161292f9060379060208401906151f5565b600081831015614ac357816110fb565b5090919050565b6000818310614ac357816110fb565b60d7546040805163f9bfd90760e01b815290516000926001600160a01b03169163f9bfd9079160048083019260209291908290030181865afa158015614b23573d6000803e3d6000fd5b505050506040513d601f19601f82011682018060405250810190614b479190615a06565b9050600060d760009054906101000a90046001600160a01b03166001600160a01b03166364facdd56040518163ffffffff1660e01b8152600401602060405180830381865afa158015614b9e573d6000803e3d6000fd5b505050506040513d601f19601f82011682018060405250810190614bc29190615a06565b9050600084606001518560000151614bda9190615bdb565b90506000614bf585604001518760400151611cc69190615a93565b9050614c358286602001518860200151614c0f9190615a93565b614c199084615a93565b614c239190615a52565b8751614c2f908a615a52565b86613b2e565b614c525760405163ed73742f60e01b815260040160405180910390fd5b6000614c6b8660a001518860a00151611cc69190615a93565b9050614cae8387608001518960800151614c859190615a93565b614c8f9084615a93565b614c999190615a52565b6060890151614ca8908b615a52565b87613b2e565b614ccb5760405163ed73742f60e01b815260040160405180910390fd5b60208701518751600091614cde91615bdb565b9050600087602001518860000151614cf69190615bdb565b9050614d20886020015183614d0b9190615a52565b60208b0151614d1a9084615a52565b88613b2e565b614d3d5760405163b025d75560e01b815260040160405180910390fd5b600089608001518a60600151614d539190615bdb565b9050600089608001518a60600151614d6b9190615bdb565b9050614d958a6080015183614d809190615a52565b60808d0151614d8f9084615a52565b8a613b2e565b614db25760405163b025d75560e01b815260040160405180910390fd5b505050505050505050505050565b60d760009054906101000a90046001600160a01b03166001600160a01b031663ef3bac5e6040518163ffffffff1660e01b8152600401602060405180830381865afa158015614e13573d6000803e3d6000fd5b505050506040513d601f19601f82011682018060405250810190614e379190615a1f565b6001600160a01b0316826001600160a01b031603614e595761292f8382614fb7565b61292f6001600160a01b038316848361289f565b60606134778484600085615074565b801580614ef65750604051636eb1769f60e11b81523060048201526001600160a01b03838116602483015284169063dd62ed3e90604401602060405180830381865afa158015614ed0573d6000803e3d6000fd5b505050506040513d601f19601f82011682018060405250810190614ef49190615a06565b155b614f685760405162461bcd60e51b815260206004820152603660248201527f5361666545524332303a20617070726f76652066726f6d206e6f6e2d7a65726f60448201527f20746f206e6f6e2d7a65726f20616c6c6f77616e63650000000000000000000060648201526084016108b0565b6040516001600160a01b03831660248201526044810182905261292f90849063095ea7b360e01b906064016128cb565b828202811515841585830485141716614fb057600080fd5b0492915050565b604080516000808252602082019092526001600160a01b038416908390604051614fe19190615ee8565b60006040518083038185875af1925050503d806000811461501e576040519150601f19603f3d011682016040523d82523d6000602084013e615023565b606091505b505090508061292f5760405162461bcd60e51b815260206004820152601060248201527f21736166655472616e736665724554480000000000000000000000000000000060448201526064016108b0565b6060824710156150ec5760405162461bcd60e51b815260206004820152602660248201527f416464726573733a20696e73756666696369656e742062616c616e636520666f60448201527f722063616c6c000000000000000000000000000000000000000000000000000060648201526084016108b0565b6001600160a01b0385163b6151435760405162461bcd60e51b815260206004820152601d60248201527f416464726573733a2063616c6c20746f206e6f6e2d636f6e747261637400000060448201526064016108b0565b600080866001600160a01b0316858760405161515f9190615ee8565b60006040518083038185875af1925050503d806000811461519c576040519150601f19603f3d011682016040523d82523d6000602084013e6151a1565b606091505b50915091506151b18282866151bc565b979650505050505050565b606083156151cb5750816110fb565b8251156151db5782518084602001fd5b8160405162461bcd60e51b81526004016108b091906155a6565b82805461520190615ba1565b90600052602060002090601f0160209004810192826152235760008555615269565b82601f1061523c57805160ff1916838001178555615269565b82800160010185558215615269579182015b8281111561526957825182559160200191906001019061524e565b50615275929150615279565b5090565b5b80821115615275576000815560010161527a565b634e487b7160e01b600052604160045260246000fd5b604051601f8201601f1916810167ffffffffffffffff811182821017156152cd576152cd61528e565b604052919050565b600067ffffffffffffffff8211156152ef576152ef61528e565b5060051b60200190565b60ff81168114611edb57600080fd5b600082601f83011261531957600080fd5b8135602061532e615329836152d5565b6152a4565b82815260059290921b8401810191818101908684111561534d57600080fd5b8286015b84811015615371578035615364816152f9565b8352918301918301615351565b509695505050505050565b600082601f83011261538d57600080fd5b8135602061539d615329836152d5565b82815260059290921b840181019181810190868411156153bc57600080fd5b8286015b8481101561537157803583529183019183016153c0565b600067ffffffffffffffff8211156153f1576153f161528e565b50601f01601f191660200190565b600082601f83011261541057600080fd5b81356020615420615329836152d5565b82815260059290921b8401810191818101908684111561543f57600080fd5b8286015b8481101561537157803567ffffffffffffffff8111156154635760008081fd5b8701603f810189136154755760008081fd5b848101356040615487615329836153d7565b8281528b8284860101111561549c5760008081fd5b8282850189830137600092810188019290925250845250918301918301615443565b600080600080608085870312156154d457600080fd5b843567ffffffffffffffff808211156154ec57600080fd5b6154f888838901615308565b9550602087013591508082111561550e57600080fd5b61551a8883890161537c565b9450604087013591508082111561553057600080fd5b5061553d878288016153ff565b949793965093946060013593505050565b60005b83811015615569578181015183820152602001615551565b83811115612ac25750506000910152565b6000815180845261559281602086016020860161554e565b601f01601f19169290920160200192915050565b6020815260006110fb602083018461557a565b6001600160a01b0381168114611edb57600080fd5b8035613916816155b9565b600080604083850312156155ec57600080fd5b82356155f7816155b9565b946020939093013593505050565b60008060006060848603121561561a57600080fd5b8335615625816155b9565b92506020840135615635816155b9565b929592945050506040919091013590565b60008083601f84011261565857600080fd5b50813567ffffffffffffffff81111561567057600080fd5b60208301915083602082850101111561568857600080fd5b9250929050565b60008060008060008060a087890312156156a857600080fd5b863595506020870135945060408701356156c1816155b9565b935060608701359250608087013567ffffffffffffffff8111156156e457600080fd5b6156f089828a01615646565b979a9699509497509295939492505050565b60006020828403121561571457600080fd5b5035919050565b60006020828403121561572d57600080fd5b81356110fb816155b9565b6000806000806000806000806000806000806101408d8f03121561575b57600080fd5b67ffffffffffffffff8d35111561577157600080fd5b61577e8e8e358f01615646565b909c509a5067ffffffffffffffff60208e0135111561579c57600080fd5b6157ac8e60208f01358f01615646565b909a5098506157bd60408e016155ce565b97506157cb60608e016155ce565b96506157d960808e016155ce565b95506157e760a08e016155ce565b94506157f560c08e016155ce565b935061580360e08e016155ce565b92506158126101008e016155ce565b91506158216101208e016155ce565b90509295989b509295989b509295989b565b6000806040838503121561584657600080fd5b8235615851816155b9565b91506020830135615861816155b9565b809150509250929050565b60008060006060848603121561588157600080fd5b833567ffffffffffffffff8082111561589957600080fd5b6158a587838801615308565b945060208601359150808211156158bb57600080fd5b6158c78783880161537c565b935060408601359150808211156158dd57600080fd5b506158ea868287016153ff565b9150509250925092565b60008060008060006080868803121561590c57600080fd5b853594506020860135935060408601359250606086013567ffffffffffffffff81111561593857600080fd5b61594488828901615646565b969995985093965092949392505050565b60006020828403121561596757600080fd5b815180151581146110fb57600080fd5b6000602080838503121561598a57600080fd5b825167ffffffffffffffff8111156159a157600080fd5b8301601f810185136159b257600080fd5b80516159c0615329826152d5565b81815260059190911b820183019083810190878311156159df57600080fd5b928401925b828410156151b15783516159f7816155b9565b825292840192908401906159e4565b600060208284031215615a1857600080fd5b5051919050565b600060208284031215615a3157600080fd5b81516110fb816155b9565b634e487b7160e01b600052601160045260246000fd5b6000816000190483118215151615615a6c57615a6c615a3c565b500290565b600082615a8e57634e487b7160e01b600052601260045260246000fd5b500490565b600082821015615aa557615aa5615a3c565b500390565b600060a082018783526020878185015260a0604085015281875180845260c086019150828901935060005b81811015615afa5784516001600160a01b031683529383019391830191600101615ad5565b50506001600160a01b03969096166060850152505050608001529392505050565b60006020808385031215615b2e57600080fd5b825167ffffffffffffffff811115615b4557600080fd5b8301601f81018513615b5657600080fd5b8051615b64615329826152d5565b81815260059190911b82018301908381019087831115615b8357600080fd5b928401925b828410156151b157835182529284019290840190615b88565b600181811c90821680615bb557607f821691505b602082108103615bd557634e487b7160e01b600052602260045260246000fd5b50919050565b60008219821115615bee57615bee615a3c565b500190565b60008060408385031215615c0657600080fd5b505080516020909101519092909150565b634e487b7160e01b600052603260045260246000fd5b600060018201615c3f57615c3f615a3c565b5060010190565b600080600060608486031215615c5b57600080fd5b8351615c66816155b9565b6020850151909350615c77816155b9565b80925050604084015190509250925092565b600060208284031215615c9b57600080fd5b81516110fb816152f9565b600181815b80851115615ce1578160001904821115615cc757615cc7615a3c565b80851615615cd457918102915b93841c9390800290615cab565b509250929050565b600082615cf8575060016110d6565b81615d05575060006110d6565b8160018114615d1b5760028114615d2557615d41565b60019150506110d6565b60ff841115615d3657615d36615a3c565b50506001821b6110d6565b5060208310610133831016604e8410600b8410161715615d64575081810a6110d6565b615d6e8383615ca6565b8060001904821115615d8257615d82615a3c565b029392505050565b60006110fb8383615ce9565b600080600080600080600060e0888a031215615db157600080fd5b8751615dbc816155b9565b602089015160408a01519198509650615dd4816155b9565b80955050606088015193506080880151925060a0880151915060c088015167ffffffffffffffff811115615e0757600080fd5b8801601f81018a13615e1857600080fd5b8051615e26615329826153d7565b8181528b6020838501011115615e3b57600080fd5b615e4c82602083016020860161554e565b80935050505092959891949750929550565b8681526001600160a01b038616602082015284604082015283606082015282608082015260c060a08201526000615e9860c083018461557a565b98975050505050505050565b600060ff821660ff84168160ff0481118215151615615d8257615d82615a3c565b600060ff821660ff841680821015615edf57615edf615a3c565b90039392505050565b60008251615efa81846020870161554e565b919091019291505056fea164736f6c634300080d000a496e697469616c697a61626c653a20636f6e747261637420697320616c726561",
  "devdoc": {
    "kind": "dev",
    "methods": {
      "allowance(address,address)": {
        "details": "See {IERC20-allowance}."
      },
      "approve(address,uint256)": {
        "details": "See {IERC20-approve}. NOTE: If `amount` is the maximum `uint256`, the allowance is not updated on `transferFrom`. This is semantically equivalent to an infinite approval. Requirements: - `spender` cannot be the zero address."
      },
      "balanceOf(address)": {
        "details": "See {IERC20-balanceOf}."
      },
      "decimals()": {
        "details": "Returns the number of decimals used to get its user representation. For example, if `decimals` equals `2`, a balance of `505` tokens should be displayed to a user as `5.05` (`505 / 10 ** 2`). Tokens usually opt for a value of 18, imitating the relationship between Ether and Wei. This is the value {ERC20} uses, unless this function is overridden; NOTE: This information is only used for _display_ purposes: it in no way affects any of the arithmetic of the contract, including {IERC20-balanceOf} and {IERC20-transfer}."
      },
      "decreaseAllowance(address,uint256)": {
        "details": "Atomically decreases the allowance granted to `spender` by the caller. This is an alternative to {approve} that can be used as a mitigation for problems described in {IERC20-approve}. Emits an {Approval} event indicating the updated allowance. Requirements: - `spender` cannot be the zero address. - `spender` must have allowance for the caller of at least `subtractedValue`."
      },
      "deposit(uint256,uint256,address,uint256,bytes)": {
        "params": {
          "_assetTokenAmount": "Amount of asset token transfer to vault.",
          "_data": "The calldata to pass along to the proxy action for more working context.",
          "_minShareReceive": "Minimum share that _shareReceiver must receive.",
          "_shareReceiver": "Addresses to be receive share.",
          "_stableTokenAmount": "Amount of stable token transfer to vault."
        }
      },
      "increaseAllowance(address,uint256)": {
        "details": "Atomically increases the allowance granted to `spender` by the caller. This is an alternative to {approve} that can be used as a mitigation for problems described in {IERC20-approve}. Emits an {Approval} event indicating the updated allowance. Requirements: - `spender` cannot be the zero address."
      },
      "initPositions(uint256,uint256,uint256,bytes)": {
        "params": {
          "_assetTokenAmount": "Amount of asset token transfer to vault.",
          "_data": "The calldata to pass along to the proxy action for more working context.",
          "_minShareReceive": "Minimum share that _shareReceiver must receive.",
          "_stableTokenAmount": "Amount of stable token transfer to vault."
        }
      },
      "initialize(string,string,address,address,address,address,address,address,address,address)": {
        "params": {
          "_alpacaToken": "Alpaca token address.",
          "_assetVault": "Address of asset vault.",
          "_config": "The address of delta neutral vault config.",
          "_lpToken": "Address stable and asset token pair.",
          "_name": "Name.",
          "_priceOracle": "DeltaNeutralOracle address.",
          "_stableVault": "Address of stable vault.",
          "_stableVaultWorker": "Address of asset worker.",
          "_symbol": "Symbol."
        }
      },
      "name()": {
        "details": "Returns the name of the token."
      },
      "owner()": {
        "details": "Returns the address of the current owner."
      },
      "rebalance(uint8[],uint256[],bytes[])": {
        "params": {
          "_actions": "List of actions to execute.",
          "_datas": "The calldata to pass along for more working context.",
          "_values": "Native token amount."
        }
      },
      "reinvest(uint8[],uint256[],bytes[],uint256)": {
        "params": {
          "_actions": "List of actions to execute.",
          "_datas": "The calldata to pass along for more working context.",
          "_minTokenReceive": "Minimum token received when swap reward.",
          "_values": "Native token amount."
        }
      },
      "renounceOwnership()": {
        "details": "Leaves the contract without owner. It will not be possible to call `onlyOwner` functions anymore. Can only be called by the current owner. NOTE: Renouncing ownership will leave the contract without an owner, thereby removing any functionality that is only available to the owner."
      },
      "setDeltaNeutralOracle(address)": {
        "params": {
          "_newPriceOracle": "New deltaNeutralOracle address."
        }
      },
      "setDeltaNeutralVaultConfig(address)": {
        "params": {
          "_newVaultConfig": "New deltaNeutralOracle address."
        }
      },
      "shareToValue(uint256)": {
        "params": {
          "_shareAmount": "Amount of share."
        }
      },
      "symbol()": {
        "details": "Returns the symbol of the token, usually a shorter version of the name."
      },
      "totalSupply()": {
        "details": "See {IERC20-totalSupply}."
      },
      "transfer(address,uint256)": {
        "details": "See {IERC20-transfer}. Requirements: - `to` cannot be the zero address. - the caller must have a balance of at least `amount`."
      },
      "transferFrom(address,address,uint256)": {
        "details": "See {IERC20-transferFrom}. Emits an {Approval} event indicating the updated allowance. This is not required by the EIP. See the note at the beginning of {ERC20}. NOTE: Does not update the allowance if the current allowance is the maximum `uint256`. Requirements: - `from` and `to` cannot be the zero address. - `from` must have a balance of at least `amount`. - the caller must have allowance for ``from``'s tokens of at least `amount`."
      },
      "transferOwnership(address)": {
        "details": "Transfers ownership of the contract to a new account (`newOwner`). Can only be called by the current owner."
      },
      "valueToShare(uint256)": {
        "params": {
          "_value": "value in usd."
        }
      },
      "withdraw(uint256,uint256,uint256,bytes)": {
        "params": {
          "_data": "The calldata to pass along to the proxy action for more working context.",
          "_minAssetTokenAmount": "Minimum asset token shareOwner expect to receive.",
          "_minStableTokenAmount": "Minimum stable token shareOwner expect to receive.",
          "_shareAmount": "Amount of share to withdraw from vault."
        }
      }
    },
    "title": "DeltaNeutralVault02 is designed to take a long and short position in an asset at the same time to cancel out the effect on the out-standing portfolio when the assets price moves. Moreover, DeltaNeutralVault02 support credit-dependent limit access",
    "version": 1
  },
  "userdoc": {
    "kind": "user",
    "methods": {
      "deposit(uint256,uint256,address,uint256,bytes)": {
        "notice": "Deposit to delta neutral vault."
      },
      "initPositions(uint256,uint256,uint256,bytes)": {
        "notice": "initialize delta neutral vault positions."
      },
      "initialize(string,string,address,address,address,address,address,address,address,address)": {
        "notice": "Initialize Delta Neutral vault."
      },
      "pendingManagementFee()": {
        "notice": "Return amount of share pending for minting as a form of management fee"
      },
      "positionInfo()": {
        "notice": "Return equity and debt value in usd of stable and asset positions."
      },
      "rebalance(uint8[],uint256[],bytes[])": {
        "notice": "Rebalance stable and asset positions."
      },
      "reinvest(uint8[],uint256[],bytes[],uint256)": {
        "notice": "Reinvest fund to stable and asset positions."
      },
      "setDeltaNeutralOracle(address)": {
        "notice": "Set new DeltaNeutralOracle."
      },
      "setDeltaNeutralVaultConfig(address)": {
        "notice": "Set new DeltaNeutralVaultConfig."
      },
      "shareToValue(uint256)": {
        "notice": "Return the value of share from the given share amount."
      },
      "totalEquityValue()": {
        "notice": "Return equity value of delta neutral position."
      },
      "valueToShare(uint256)": {
        "notice": "Return the amount of share from the given value."
      },
      "withdraw(uint256,uint256,uint256,bytes)": {
        "notice": "Withdraw from delta neutral vault."
      }
    },
    "version": 1
  },
  "storageLayout": {
    "storage": [
      {
        "astId": 130,
        "contract": "contracts/DeltaNeutralVault02.sol:DeltaNeutralVault02",
        "label": "_initialized",
        "offset": 0,
        "slot": "0",
        "type": "t_uint8"
      },
      {
        "astId": 133,
        "contract": "contracts/DeltaNeutralVault02.sol:DeltaNeutralVault02",
        "label": "_initializing",
        "offset": 1,
        "slot": "0",
        "type": "t_bool"
      },
      {
        "astId": 1546,
        "contract": "contracts/DeltaNeutralVault02.sol:DeltaNeutralVault02",
        "label": "__gap",
        "offset": 0,
        "slot": "1",
        "type": "t_array(t_uint256)50_storage"
      },
      {
        "astId": 343,
        "contract": "contracts/DeltaNeutralVault02.sol:DeltaNeutralVault02",
        "label": "_balances",
        "offset": 0,
        "slot": "51",
        "type": "t_mapping(t_address,t_uint256)"
      },
      {
        "astId": 349,
        "contract": "contracts/DeltaNeutralVault02.sol:DeltaNeutralVault02",
        "label": "_allowances",
        "offset": 0,
        "slot": "52",
        "type": "t_mapping(t_address,t_mapping(t_address,t_uint256))"
      },
      {
        "astId": 351,
        "contract": "contracts/DeltaNeutralVault02.sol:DeltaNeutralVault02",
        "label": "_totalSupply",
        "offset": 0,
        "slot": "53",
        "type": "t_uint256"
      },
      {
        "astId": 353,
        "contract": "contracts/DeltaNeutralVault02.sol:DeltaNeutralVault02",
        "label": "_name",
        "offset": 0,
        "slot": "54",
        "type": "t_string_storage"
      },
      {
        "astId": 355,
        "contract": "contracts/DeltaNeutralVault02.sol:DeltaNeutralVault02",
        "label": "_symbol",
        "offset": 0,
        "slot": "55",
        "type": "t_string_storage"
      },
      {
        "astId": 934,
        "contract": "contracts/DeltaNeutralVault02.sol:DeltaNeutralVault02",
        "label": "__gap",
        "offset": 0,
        "slot": "56",
        "type": "t_array(t_uint256)45_storage"
      },
      {
        "astId": 279,
        "contract": "contracts/DeltaNeutralVault02.sol:DeltaNeutralVault02",
        "label": "_status",
        "offset": 0,
        "slot": "101",
        "type": "t_uint256"
      },
      {
        "astId": 323,
        "contract": "contracts/DeltaNeutralVault02.sol:DeltaNeutralVault02",
        "label": "__gap",
        "offset": 0,
        "slot": "102",
        "type": "t_array(t_uint256)49_storage"
      },
      {
        "astId": 10,
        "contract": "contracts/DeltaNeutralVault02.sol:DeltaNeutralVault02",
        "label": "_owner",
        "offset": 0,
        "slot": "151",
        "type": "t_address"
      },
      {
        "astId": 122,
        "contract": "contracts/DeltaNeutralVault02.sol:DeltaNeutralVault02",
        "label": "__gap",
        "offset": 0,
        "slot": "152",
        "type": "t_array(t_uint256)49_storage"
      },
      {
        "astId": 2161,
        "contract": "contracts/DeltaNeutralVault02.sol:DeltaNeutralVault02",
        "label": "stableTo18ConversionFactor",
        "offset": 0,
        "slot": "201",
        "type": "t_uint256"
      },
      {
        "astId": 2163,
        "contract": "contracts/DeltaNeutralVault02.sol:DeltaNeutralVault02",
        "label": "assetTo18ConversionFactor",
        "offset": 0,
        "slot": "202",
        "type": "t_uint256"
      },
      {
        "astId": 2165,
        "contract": "contracts/DeltaNeutralVault02.sol:DeltaNeutralVault02",
        "label": "lpToken",
        "offset": 0,
        "slot": "203",
        "type": "t_address"
      },
      {
        "astId": 2167,
        "contract": "contracts/DeltaNeutralVault02.sol:DeltaNeutralVault02",
        "label": "stableVault",
        "offset": 0,
        "slot": "204",
        "type": "t_address"
      },
      {
        "astId": 2169,
        "contract": "contracts/DeltaNeutralVault02.sol:DeltaNeutralVault02",
        "label": "assetVault",
        "offset": 0,
        "slot": "205",
        "type": "t_address"
      },
      {
        "astId": 2171,
        "contract": "contracts/DeltaNeutralVault02.sol:DeltaNeutralVault02",
        "label": "stableVaultWorker",
        "offset": 0,
        "slot": "206",
        "type": "t_address"
      },
      {
        "astId": 2173,
        "contract": "contracts/DeltaNeutralVault02.sol:DeltaNeutralVault02",
        "label": "assetVaultWorker",
        "offset": 0,
        "slot": "207",
        "type": "t_address"
      },
      {
        "astId": 2175,
        "contract": "contracts/DeltaNeutralVault02.sol:DeltaNeutralVault02",
        "label": "stableToken",
        "offset": 0,
        "slot": "208",
        "type": "t_address"
      },
      {
        "astId": 2177,
        "contract": "contracts/DeltaNeutralVault02.sol:DeltaNeutralVault02",
        "label": "assetToken",
        "offset": 0,
        "slot": "209",
        "type": "t_address"
      },
      {
        "astId": 2179,
        "contract": "contracts/DeltaNeutralVault02.sol:DeltaNeutralVault02",
        "label": "alpacaToken",
        "offset": 0,
        "slot": "210",
        "type": "t_address"
      },
      {
        "astId": 2181,
        "contract": "contracts/DeltaNeutralVault02.sol:DeltaNeutralVault02",
        "label": "stableVaultPosId",
        "offset": 0,
        "slot": "211",
        "type": "t_uint256"
      },
      {
        "astId": 2183,
        "contract": "contracts/DeltaNeutralVault02.sol:DeltaNeutralVault02",
        "label": "assetVaultPosId",
        "offset": 0,
        "slot": "212",
        "type": "t_uint256"
      },
      {
        "astId": 2185,
        "contract": "contracts/DeltaNeutralVault02.sol:DeltaNeutralVault02",
        "label": "lastFeeCollected",
        "offset": 0,
        "slot": "213",
        "type": "t_uint256"
      },
      {
        "astId": 2188,
        "contract": "contracts/DeltaNeutralVault02.sol:DeltaNeutralVault02",
        "label": "priceOracle",
        "offset": 0,
        "slot": "214",
        "type": "t_contract(IDeltaNeutralOracle)5736"
      },
      {
        "astId": 2191,
        "contract": "contracts/DeltaNeutralVault02.sol:DeltaNeutralVault02",
        "label": "config",
        "offset": 0,
        "slot": "215",
        "type": "t_contract(IDeltaNeutralVaultConfig02)5973"
      },
      {
        "astId": 2193,
        "contract": "contracts/DeltaNeutralVault02.sol:DeltaNeutralVault02",
        "label": "OPENING",
        "offset": 20,
        "slot": "215",
        "type": "t_uint8"
      }
    ],
    "types": {
      "t_address": {
        "encoding": "inplace",
        "label": "address",
        "numberOfBytes": "20"
      },
      "t_array(t_uint256)45_storage": {
        "base": "t_uint256",
        "encoding": "inplace",
        "label": "uint256[45]",
        "numberOfBytes": "1440"
      },
      "t_array(t_uint256)49_storage": {
        "base": "t_uint256",
        "encoding": "inplace",
        "label": "uint256[49]",
        "numberOfBytes": "1568"
      },
      "t_array(t_uint256)50_storage": {
        "base": "t_uint256",
        "encoding": "inplace",
        "label": "uint256[50]",
        "numberOfBytes": "1600"
      },
      "t_bool": {
        "encoding": "inplace",
        "label": "bool",
        "numberOfBytes": "1"
      },
      "t_contract(IDeltaNeutralOracle)5736": {
        "encoding": "inplace",
        "label": "contract IDeltaNeutralOracle",
        "numberOfBytes": "20"
      },
      "t_contract(IDeltaNeutralVaultConfig02)5973": {
        "encoding": "inplace",
        "label": "contract IDeltaNeutralVaultConfig02",
        "numberOfBytes": "20"
      },
      "t_mapping(t_address,t_mapping(t_address,t_uint256))": {
        "encoding": "mapping",
        "key": "t_address",
        "label": "mapping(address => mapping(address => uint256))",
        "numberOfBytes": "32",
        "value": "t_mapping(t_address,t_uint256)"
      },
      "t_mapping(t_address,t_uint256)": {
        "encoding": "mapping",
        "key": "t_address",
        "label": "mapping(address => uint256)",
        "numberOfBytes": "32",
        "value": "t_uint256"
      },
      "t_string_storage": {
        "encoding": "bytes",
        "label": "string",
        "numberOfBytes": "32"
      },
      "t_uint256": {
        "encoding": "inplace",
        "label": "uint256",
        "numberOfBytes": "32"
      },
      "t_uint8": {
        "encoding": "inplace",
        "label": "uint8",
        "numberOfBytes": "1"
      }
    }
  }
}