{
  "address": "0x47de203aa07CB71bF3ed8db1c3465091a689CdB0",
  "abi": [
    {
      "inputs": [],
      "stateMutability": "nonpayable",
      "type": "constructor"
    },
    {
      "inputs": [],
      "name": "xALPACACreditor_Unauthorize",
      "type": "error"
    },
    {
      "inputs": [],
      "name": "xALPACACreditor_ValueTooHigh",
      "type": "error"
    },
    {
      "anonymous": false,
      "inputs": [
        {
          "indexed": false,
          "internalType": "uint8",
          "name": "version",
          "type": "uint8"
        }
      ],
      "name": "Initialized",
      "type": "event"
    },
    {
      "anonymous": false,
      "inputs": [
        {
          "indexed": true,
          "internalType": "address",
          "name": "_caller",
          "type": "address"
        },
        {
          "indexed": false,
          "internalType": "uint256",
          "name": "_oldValuePerxALPACA",
          "type": "uint256"
        },
        {
          "indexed": false,
          "internalType": "uint256",
          "name": "_newValuePerxALPACA",
          "type": "uint256"
        }
      ],
      "name": "LogSetValuePerxALPACA",
      "type": "event"
    },
    {
      "anonymous": false,
      "inputs": [
        {
          "indexed": true,
          "internalType": "address",
          "name": "_caller",
          "type": "address"
        },
        {
          "indexed": true,
          "internalType": "address",
          "name": "_valueSetter",
          "type": "address"
        }
      ],
      "name": "LogSetValueSetter",
      "type": "event"
    },
    {
      "anonymous": false,
      "inputs": [
        {
          "indexed": true,
          "internalType": "address",
          "name": "previousOwner",
          "type": "address"
        },
        {
          "indexed": true,
          "internalType": "address",
          "name": "newOwner",
          "type": "address"
        }
      ],
      "name": "OwnershipTransferred",
      "type": "event"
    },
    {
      "inputs": [
        {
          "internalType": "address",
          "name": "_user",
          "type": "address"
        }
      ],
      "name": "getUserCredit",
      "outputs": [
        {
          "internalType": "uint256",
          "name": "",
          "type": "uint256"
        }
      ],
      "stateMutability": "view",
      "type": "function"
    },
    {
      "inputs": [
        {
          "internalType": "contract IxALPACA",
          "name": "_xALPACA",
          "type": "address"
        },
        {
          "internalType": "uint256",
          "name": "_valuePerxALPACA",
          "type": "uint256"
        }
      ],
      "name": "initialize",
      "outputs": [],
      "stateMutability": "nonpayable",
      "type": "function"
    },
    {
      "inputs": [],
      "name": "owner",
      "outputs": [
        {
          "internalType": "address",
          "name": "",
          "type": "address"
        }
      ],
      "stateMutability": "view",
      "type": "function"
    },
    {
      "inputs": [],
      "name": "renounceOwnership",
      "outputs": [],
      "stateMutability": "nonpayable",
      "type": "function"
    },
    {
      "inputs": [
        {
          "internalType": "uint256",
          "name": "_newValuePerxALPACA",
          "type": "uint256"
        }
      ],
      "name": "setValuePerxALPACA",
      "outputs": [],
      "stateMutability": "nonpayable",
      "type": "function"
    },
    {
      "inputs": [
        {
          "internalType": "address",
          "name": "_newValueSetter",
          "type": "address"
        }
      ],
      "name": "setValueSetter",
      "outputs": [],
      "stateMutability": "nonpayable",
      "type": "function"
    },
    {
      "inputs": [
        {
          "internalType": "address",
          "name": "newOwner",
          "type": "address"
        }
      ],
      "name": "transferOwnership",
      "outputs": [],
      "stateMutability": "nonpayable",
      "type": "function"
    },
    {
      "inputs": [],
      "name": "valuePerxALPACA",
      "outputs": [
        {
          "internalType": "uint256",
          "name": "",
          "type": "uint256"
        }
      ],
      "stateMutability": "view",
      "type": "function"
    },
    {
      "inputs": [],
      "name": "valueSetter",
      "outputs": [
        {
          "internalType": "address",
          "name": "",
          "type": "address"
        }
      ],
      "stateMutability": "view",
      "type": "function"
    },
    {
      "inputs": [],
      "name": "xALPACA",
      "outputs": [
        {
          "internalType": "contract IxALPACA",
          "name": "",
          "type": "address"
        }
      ],
      "stateMutability": "view",
      "type": "function"
    }
  ],
  "transactionHash": "0x41b087657c1405c6af7a1e6a12098d22b9072489726946d90bcbfa67b8db3b99",
  "args": [],
  "numDeployments": 1,
  "solcInputHash": "80c1d8b85362075366e47aa320ad0d03",
  "bytecode": "0x608060405234801561001057600080fd5b50600061001d6001610081565b90508015610035576000805461ff0019166101001790555b801561007b576000805461ff0019169055604051600181527f7f26b83ff96e1f2b6a682f133852f6798a09c465da95921460cefb38474024989060200160405180910390a15b50610198565b60008054610100900460ff1615610113578160ff1660011480156100b557506100b33061018960201b6105d31760201c565b155b61010b5760405162461bcd60e51b815260206004820152602e6024820152600080516020610ad383398151915260448201526d191e481a5b9a5d1a585b1a5e995960921b60648201526084015b60405180910390fd5b506000919050565b60005460ff80841691161061016f5760405162461bcd60e51b815260206004820152602e6024820152600080516020610ad383398151915260448201526d191e481a5b9a5d1a585b1a5e995960921b6064820152608401610102565b506000805460ff191660ff92909216919091179055600190565b6001600160a01b03163b151590565b61092c806101a76000396000f3fe608060405234801561001057600080fd5b50600436106100be5760003560e01c8063b6df14ab11610076578063cd946ba81161005b578063cd946ba81461015e578063dad6f0dc14610171578063f2fde38b1461018457600080fd5b8063b6df14ab14610138578063cd6dc6871461014b57600080fd5b80637c5f6349116100a75780637c5f6349146100e95780638da5cb5b14610114578063b224f9bb1461012557600080fd5b80632ba4f0a2146100c3578063715018a6146100df575b600080fd5b6100cc60665481565b6040519081526020015b60405180910390f35b6100e7610197565b005b6067546100fc906001600160a01b031681565b6040516001600160a01b0390911681526020016100d6565b6033546001600160a01b03166100fc565b6065546100fc906001600160a01b031681565b6100e761014636600461084e565b610202565b6100e7610159366004610872565b6102b5565b6100e761016c36600461089e565b6103bc565b6100cc61017f36600461084e565b610458565b6100e761019236600461084e565b6104f1565b6033546001600160a01b031633146101f65760405162461bcd60e51b815260206004820181905260248201527f4f776e61626c653a2063616c6c6572206973206e6f7420746865206f776e657260448201526064015b60405180910390fd5b61020060006105e2565b565b6033546001600160a01b0316331461025c5760405162461bcd60e51b815260206004820181905260248201527f4f776e61626c653a2063616c6c6572206973206e6f7420746865206f776e657260448201526064016101ed565b6067805473ffffffffffffffffffffffffffffffffffffffff19166001600160a01b03831690811790915560405133907f143756cbf499512428f05e75fac99a3a9b4bdce5c2254e99f2fbc2a75b75e50590600090a350565b60006102c16001610641565b905080156102d9576000805461ff0019166101001790555b826001600160a01b031663900cf0cf6040518163ffffffff1660e01b8152600401602060405180830381865afa158015610317573d6000803e3d6000fd5b505050506040513d601f19601f8201168201806040525081019061033b91906108b7565b50610344610757565b6065805473ffffffffffffffffffffffffffffffffffffffff19166001600160a01b038516179055606682905580156103b7576000805461ff0019169055604051600181527f7f26b83ff96e1f2b6a682f133852f6798a09c465da95921460cefb38474024989060200160405180910390a15b505050565b6067546001600160a01b031633146103e75760405163d3e80f7960e01b815260040160405180910390fd5b683635c9adc5dea000008111156104115760405163074dedeb60e11b815260040160405180910390fd5b6066805490829055604080518281526020810184905233917fde8475cec749561c373d0a6dc945aeae0c2b5c44568c89322c9b449d2b7c9d12910160405180910390a25050565b6066546065546040516370a0823160e01b81526001600160a01b038481166004830152600093670de0b6b3a76400009390929116906370a0823190602401602060405180830381865afa1580156104b3573d6000803e3d6000fd5b505050506040513d601f19601f820116820180604052508101906104d791906108b7565b6104e191906108d0565b6104eb91906108fd565b92915050565b6033546001600160a01b0316331461054b5760405162461bcd60e51b815260206004820181905260248201527f4f776e61626c653a2063616c6c6572206973206e6f7420746865206f776e657260448201526064016101ed565b6001600160a01b0381166105c75760405162461bcd60e51b815260206004820152602660248201527f4f776e61626c653a206e6577206f776e657220697320746865207a65726f206160448201527f646472657373000000000000000000000000000000000000000000000000000060648201526084016101ed565b6105d0816105e2565b50565b6001600160a01b03163b151590565b603380546001600160a01b0383811673ffffffffffffffffffffffffffffffffffffffff19831681179093556040519116919082907f8be0079c531659141344cd1fd0a4f28419497f9722a3daafe3b4186f6b6457e090600090a35050565b60008054610100900460ff16156106cf578160ff1660011480156106645750303b155b6106c75760405162461bcd60e51b815260206004820152602e60248201527f496e697469616c697a61626c653a20636f6e747261637420697320616c72656160448201526d191e481a5b9a5d1a585b1a5e995960921b60648201526084016101ed565b506000919050565b60005460ff80841691161061073d5760405162461bcd60e51b815260206004820152602e60248201527f496e697469616c697a61626c653a20636f6e747261637420697320616c72656160448201526d191e481a5b9a5d1a585b1a5e995960921b60648201526084016101ed565b506000805460ff191660ff92909216919091179055600190565b600054610100900460ff166107c25760405162461bcd60e51b815260206004820152602b60248201527f496e697469616c697a61626c653a20636f6e7472616374206973206e6f74206960448201526a6e697469616c697a696e6760a81b60648201526084016101ed565b610200600054610100900460ff166108305760405162461bcd60e51b815260206004820152602b60248201527f496e697469616c697a61626c653a20636f6e7472616374206973206e6f74206960448201526a6e697469616c697a696e6760a81b60648201526084016101ed565b610200336105e2565b6001600160a01b03811681146105d057600080fd5b60006020828403121561086057600080fd5b813561086b81610839565b9392505050565b6000806040838503121561088557600080fd5b823561089081610839565b946020939093013593505050565b6000602082840312156108b057600080fd5b5035919050565b6000602082840312156108c957600080fd5b5051919050565b60008160001904831182151516156108f857634e487b7160e01b600052601160045260246000fd5b500290565b60008261091a57634e487b7160e01b600052601260045260246000fd5b50049056fea164736f6c634300080d000a496e697469616c697a61626c653a20636f6e747261637420697320616c726561",
  "devdoc": {
    "kind": "dev",
    "methods": {
      "getUserCredit(address)": {
        "params": {
          "_user": "address of user."
        },
        "returns": {
          "_0": "user's credit in USD value"
        }
      },
      "initialize(address,uint256)": {
        "params": {
          "_valuePerxALPACA": "USD value per 1 xALPACA",
          "_xALPACA": "xALPACA."
        }
      },
      "owner()": {
        "details": "Returns the address of the current owner."
      },
      "renounceOwnership()": {
        "details": "Leaves the contract without owner. It will not be possible to call `onlyOwner` functions anymore. Can only be called by the current owner. NOTE: Renouncing ownership will leave the contract without an owner, thereby removing any functionality that is only available to the owner."
      },
      "setValuePerxALPACA(uint256)": {
        "params": {
          "_newValuePerxALPACA": "new value to be set."
        }
      },
      "transferOwnership(address)": {
        "details": "Transfers ownership of the contract to a new account (`newOwner`). Can only be called by the current owner."
      }
    },
    "title": "xALPACACreditor - Assess credit of user per xALPACA that user's holding",
    "version": 1
  },
  "userdoc": {
    "kind": "user",
    "methods": {
      "getUserCredit(address)": {
        "notice": "Get user's credit in USD value"
      },
      "initialize(address,uint256)": {
        "notice": "Initialize xALPACACreditor"
      },
      "setValuePerxALPACA(uint256)": {
        "notice": "Set the value per xALPACA"
      },
      "setValueSetter(address)": {
        "notice": "set the value setter"
      }
    },
    "version": 1
  },
  "storageLayout": {
    "storage": [
      {
        "astId": 130,
        "contract": "contracts/xALPACACreditor.sol:xALPACACreditor",
        "label": "_initialized",
        "offset": 0,
        "slot": "0",
        "type": "t_uint8"
      },
      {
        "astId": 133,
        "contract": "contracts/xALPACACreditor.sol:xALPACACreditor",
        "label": "_initializing",
        "offset": 1,
        "slot": "0",
        "type": "t_bool"
      },
      {
        "astId": 1546,
        "contract": "contracts/xALPACACreditor.sol:xALPACACreditor",
        "label": "__gap",
        "offset": 0,
        "slot": "1",
        "type": "t_array(t_uint256)50_storage"
      },
      {
        "astId": 10,
        "contract": "contracts/xALPACACreditor.sol:xALPACACreditor",
        "label": "_owner",
        "offset": 0,
        "slot": "51",
        "type": "t_address"
      },
      {
        "astId": 122,
        "contract": "contracts/xALPACACreditor.sol:xALPACACreditor",
        "label": "__gap",
        "offset": 0,
        "slot": "52",
        "type": "t_array(t_uint256)49_storage"
      },
      {
        "astId": 7287,
        "contract": "contracts/xALPACACreditor.sol:xALPACACreditor",
        "label": "xALPACA",
        "offset": 0,
        "slot": "101",
        "type": "t_contract(IxALPACA)6623"
      },
      {
        "astId": 7289,
        "contract": "contracts/xALPACACreditor.sol:xALPACACreditor",
        "label": "valuePerxALPACA",
        "offset": 0,
        "slot": "102",
        "type": "t_uint256"
      },
      {
        "astId": 7291,
        "contract": "contracts/xALPACACreditor.sol:xALPACACreditor",
        "label": "valueSetter",
        "offset": 0,
        "slot": "103",
        "type": "t_address"
      }
    ],
    "types": {
      "t_address": {
        "encoding": "inplace",
        "label": "address",
        "numberOfBytes": "20"
      },
      "t_array(t_uint256)49_storage": {
        "base": "t_uint256",
        "encoding": "inplace",
        "label": "uint256[49]",
        "numberOfBytes": "1568"
      },
      "t_array(t_uint256)50_storage": {
        "base": "t_uint256",
        "encoding": "inplace",
        "label": "uint256[50]",
        "numberOfBytes": "1600"
      },
      "t_bool": {
        "encoding": "inplace",
        "label": "bool",
        "numberOfBytes": "1"
      },
      "t_contract(IxALPACA)6623": {
        "encoding": "inplace",
        "label": "contract IxALPACA",
        "numberOfBytes": "20"
      },
      "t_uint256": {
        "encoding": "inplace",
        "label": "uint256",
        "numberOfBytes": "32"
      },
      "t_uint8": {
        "encoding": "inplace",
        "label": "uint8",
        "numberOfBytes": "1"
      }
    }
  }
}